:100000000C9470050C949A050C949A050C949A051E
:100010000C94D5330C949A050C949A050C949A057B
:100020000C949A050C9430350C949A050C949A050E
:100030000C949A050C9466320C949A050C949A05CB
:100040000C949A050C949A050C9440340C949A05DF
:100050000C9488340C94B2340C949A050C949A0540
:100060000C949A050C949A050C94AA320C949A0557
:100070000C94DC340C9406350C949A050C949A0577
:100080000C949A050C949A050C949A0520756C6F43
:100090007A656E004C6F672074797023004E617032
:1000A0006C6E656E6F206D6178207A617A6E616D1D
:1000B000752E204E45554C4F5A454E4F003D3D3D07
:1000C000204B6F6E6563207A617A6E616D75203D9D
:1000D0003D3D0A004361733A20202020202020006B
:1000E000446174756D3A2020202020002D2D2D2D87
:1000F0002D2D2D2D2D2D2D2D2D2D2D2D2D2D2D2D30
:100100002D005679736C6564656B3A20204E45521C
:100110004F5A484F444E4500526F7A64696C3A20FA
:1001200020202000566974657A3A20202020205033
:100130005241564120445241484100526F7A64690D
:100140006C3A2020202000566974657A3A202020DD
:1001500020204C4556412044524148410050726194
:100160007679206361733A20004C6576792063616B
:10017000733A2020002D2D2D20536F7568726E204C
:100180007A61766F6475202D2D2D005245534554AC
:100190000043494C0043494C2050524156412044B1
:1001A000524148410043494C204C4556412044525D
:1001B000414841004D455A4943415300535441522F
:1001C00054000A3D3D3D205A617A6E616D207A618E
:1001D000766F6475203D3D3D001209120912091227
:1001E0000009120912091209000000120912000088
:1001F00000000009120900000000001E0F1E000090
:100200000000000F1E0F000000181C1E1F1E1C18EF
:10021000004368796261206B6F6E66696775726111
:10022000636520646973706C656A65203200436899
:10023000796261206B6F6E666967757261636520B4
:10024000646973706C656A652031004B6F6E666916
:1002500067757261636520646973706C656A7500A7
:1002600053746172742000533E4D6F7A6E6F7374D5
:1002700069204C2F503E566F6C62610002000020D6
:10028000002300260029000000000203000A0B00E2
:100290000000000504090800000000000000000044
:1002A0000000000000000000002200250028002BB4
:1002B0000000002100240027002A0002020202029E
:1002C00002020204040404040404040303030303F9
:1002D00003030301010101010101010102040810EE
:1002E0002040800102040810204080010204081010
:1002F0002040800102040810204080537973746507
:100300006D003E20004C3E53797374656D20503E65
:100310004D6F64756C00556C6F7A6974206E6173F3
:10032000746176656E6900556C6F7A656E6F005604
:100330007970005A6170005A6F6272617A2063614D
:10034000732070756C7A7500507265706E75746983
:10035000206D6F64756C75002D2D3E002720616B3C
:100360007469766E69004D6F64756C2027002020DB
:1003700068656C7020202020202020202020202054
:100380002020202020202020202D207461746F2028
:100390006E61706F76656461002020696E666F2003
:1003A000202020202020202020202020202020204D
:1003B000202020202D207A6F6272617A6920756476
:1003C000616A65206F2068617264776172652F666B
:1003D00069726D7761726500202070657266203CDD
:1003E000317C303E20202020202020202020202072
:1003F0002020202D207A61702F767970207A6F620C
:1004000072617A6F76616E6920727963686C6F735E
:1004100074692070726F6772616D75002020646569
:100420006C203C6D3E203C6B3E2020202020202074
:10043000202020202020202D20736D617A65207AD5
:10044000617A6E616D203C6D6F64756C3E203C6B13
:100450006C69633E002020736574203C6D3E203C37
:100460006B3E2048205B2C482C482E2E2E5D2020F1
:100470002D206E6173746176692070726F203C6DFF
:100480006F64756C3E203C6B6C69633E20617A2022
:10049000313220686F646E6F7420302D3235350034
:1004A0002020736574203C6D3E203C6B3E202274FE
:1004B00065787422202020202020202D206E61735A
:1004C000746176692070726F203C6D6F64756C3E4C
:1004D000203C6B6C69633E20617A203132207A6E59
:1004E000616B750020206C697374205B6D5D205B0F
:1004F0006B5D202020202020202020202020202D67
:1005000020767970697365207A617A6E616D7920E1
:1005100028767365207C206A6564656E206D6F6443
:10052000756C207C206A656E206D6F64756C2B6B1A
:100530006C6963000A5072696B617A793A00202015
:1005400020204C6F67207A617A6E616D753A2000C9
:1005500020202020506F636574206D6F64756C756A
:100560003A2000290031393A35393A3430004175A2
:10057000672032372032303235002028002B763584
:10058000302D323058342D3078323700524D5320D0
:10059000302E3374320046573A200053616B756C2D
:1005A0002053746F706B792076352E300048573A9F
:1005B0002000205A6164656A202768656C70272EC8
:1005C0000043687962612E004E657A6E616D792014
:1005D0007072696B617A2E004E656E616C657A652A
:1005E0006E6F2E20005A617A6E616D20736D617A94
:1005F000616E2E0043687962612E2028486F646E18
:100600006F7479207072657320746578743F290067
:1006100043687962612E2028546578742070726571
:100620007320686F646E6F74793F29004F4B2E20E2
:100630005465787420756C6F7A656E2E0043687906
:10064000626E792076737475702E004E616C657AD7
:10065000656E6F3A20002D2D2D2D2D2D2D2D2D2D3C
:100660002D2D2D2D2D002020000020002020000009
:1006700020002020000020002D2D2D2D2D2D2D2D92
:100680002D2D2D2D2D2D2D004D6F64756C204B6C57
:1006900069632044617461005072696A61746F20FB
:1006A00027002D2D35352D2D20005465726D696E76
:1006B000616C3A202768656C702700536572696128
:1006C0006C203131353230302F382F31626974006F
:1006D0004E6173746176656E69004A6520746F209F
:1006E000616C65206A656E2064656D6F20612064B1
:1006F0006F2070616D657469206E657A61706973D1
:10070000756A652E0044656D6F20646F7374616C4B
:100710006F20706F6B796E20756C6F7A69742073BF
:100720007665206E6173746176656E692E00537410
:100730006F706B7900557074696D650044656D6FFD
:10074000005B20202020202032377833376D733D26
:100750003939396D732020202020205D2020202071
:100760004361732070726920277C27002D2D3E2065
:100770007465726D696E616C0044656D6F004465EF
:100780006D6F206B6F6E636900446C6F757A6520C6
:100790005265736574203E204D656E750052657319
:1007A0006574203E204E6173746176656E690053F6
:1007B0003E506F73756E204C503E2D2B20523E5A8A
:1007C00070657400446174756D2026206361730048
:1007D000484F44494E59005A61646F7374206F202A
:1007E0007679706973005A727573656E6F004D6526
:1007F00072656E69207A727573656E6F004D657AE9
:1008000069636173004C2F503E556B6F6E636920B6
:1008100020523E5A72757369740053746F706B790D
:100820000053746F706B79207370757374656E7993
:10083000005265736574203E205A7061746B7900B4
:100840005374617274203E205A6168616A69207A2B
:1008500061766F640053544F504B5900446C6F7570
:100860007A65205265736574203E204D656E750073
:100870005265736574203E2046756E6B6365005348
:10088000544F504B5920532D4C5000556B6F6E6395
:10089000656E6F00556B6F6E63656E6F005A6164B5
:1008A0006F7374206F207679706973005A72757354
:1008B000656E6F004D6572656E69207A727573653D
:1008C0006E6F004D657A6963617300533E556B6FBF
:1008D0006E636920202020523E5A7275736974003D
:1008E00053746F706B790053746F706B79207370F1
:1008F000757374656E79005265736574203E205A75
:100900007061746B79005374617274203E205A6177
:1009100068616A69207A61766F640053544F504B66
:100920005900446C6F757A65205265736574203E7A
:10093000204D656E75005265736574203E204675C6
:100940006E6B63650053544F504B5920532D530029
:100950004C657661206472616861004C6576610067
:1009600050726176612064726168610050726176D4
:1009700061005A61766F6420736B6F6E63696C00FF
:100980004F64706F63657420736B6F6E63696C0086
:100990005A727573656E69206F64706F6374750049
:1009A0004F64706F636574005A6168616A656E2098
:1009B0006F64706F6365740052657365743E204D9B
:1009C0006572656E69207A61766F64750053746133
:1009D00072743E205A6168616A6974004F44504FD6
:1009E000434554005A61646F7374206F20767970A8
:1009F0006973005A61766F64207A727573656E0050
:100A00004D6572656E69207A727573656E6F004D03
:100A1000657A69636173005A61766F64004348596F
:100A200042412053454E5A4F52553A00202D452DF4
:100A300020004B6F6E63616B79204F4B00202D457A
:100A40002D2000202D452D20004348594241206B88
:100A50006F6E63616B75005A61766F64207A6168AE
:100A6000616A656E005265736574203E205A70613C
:100A7000746B79005374617274203E205A6168610E
:100A80006A69207A61766F64005A41564F44004487
:100A90006C6F757A65205265736574203E204D65D4
:100AA0006E75005265736574203E2046756E6B63EB
:100AB000650053544F504B592048550050756C7A7F
:100AC00020004C6F672070726970726176656E00ED
:100AD000454550524F4D20706C6E612100005F3CC7
:100AE00011241FBECFEFD0E4DEBFCDBF13E0A0E0E6
:100AF000B1E0E0E7FCE800E00BBF02C007900D9218
:100B0000A833B107D9F727E0A8E3B3E001C01D92ED
:100B1000A438B207E1F715E0C0E7D5E004C021979B
:100B2000FE010E947F3DCF36D107C9F70E94903564
:100B30000C9413460C940000CF93DF93FC01DB016F
:100B40005481369614968C9114978150990B40E0FD
:100B5000541303C0DF91CF91089514962D913C91C9
:100B600015978217930770F42D913C9111972115D9
:100B7000310541F0280F391FE901288121934F5F8A
:100B80000197E6CF20E0FACF2FB7F89460912507C0
:100B90007091260780912707909128072FBF08950D
:100BA000CF93DF93D82FC92F0E94C40560932C07E1
:100BB00070932D0780932E0790932F07D0932A07C9
:100BC000C0932B0781E08093840110922907109233
:100BD0007B011092720110926901109260011092D3
:100BE0005701DF91CF9108958FB7F89410922407A1
:100BF0001092230710921F079DE0909356011092C8
:100C00001E078FBF0895E0915201A0915101F0E0BD
:100C1000A33050F1E053F84FB0E0A459BD4F2C91F0
:100C200080915001280F3327331F2E0F3F1FCF0114
:100C30009695879596958795280F391FCF0160E97E
:100C400071E00E942A3D260F371FCF0164E670E055
:100C50000E942A3DC901861B970B67E070E00E9445
:100C60002A3D80934F010895E153F84FD5CF4F921D
:100C70005F926F927F92AF92BF92CF92DF92EF928C
:100C8000FF920F931F93CF93DF93FB01C080D1801E
:100C9000E280F380FC0180819181A281B381C81A36
:100CA000D90AEA0AFB0AC701B60128EE33E040E0A0
:100CB00050E00E943E3D8B01CDE0D7E07D836C8308
:100CC0008CE3482E512C612C712CCA01B901A3016F
:100CD00092010E943E3DB62E6B83CA01B901A30169
:100CE00092010E943E3DA62E6A83C701B60120E80C
:100CF0003EEE46E350E00E943E3DF90139832883F1
:100D0000C90168EE73E00E942A3D6E8394E6E92EE5
:100D1000F12CCF01B7010E942A3DCB012AE030E03F
:100D2000B9010E942A3D8F83CF01B9010E942A3D5B
:100D3000482FCB01B9010E942A3D888749874AE0A4
:100D40008A2D642F0E941E3D8A879B878B2D0E94CF
:100D50001E3D8C879D87C801B7010E942A3D6E8782
:100D6000C801B9010E942A3D482FCB01B9010E9458
:100D70002A3D8F87488BDF91CF911F910F91FF9074
:100D8000EF90DF90CF90BF90AF907F906F905F908B
:100D90004F9008958091250790912607A0912707ED
:100DA000B091280780930F0690931006A093110628
:100DB000B0931206809184009091850090930E0666
:100DC00080930D0681E080930C060895809125079D
:100DD00090912607A0912707B091280780930806D5
:100DE00090930906A0930A06B0930B0680918400A5
:100DF00090918500909307068093060681E080938A
:100E0000050608958091250790912607A091270750
:100E1000B09128078093010690930206A0930306E1
:100E2000B093040680918400909185009093000611
:100E30008093FF0581E08093FE050895809125074A
:100E400090912607A0912707B09128078093FA0573
:100E50009093FB05A093FC05B093FD058091840061
:100E6000909185009093F9058093F80581E0809337
:100E7000F70508958091250790912607A0912707EF
:100E8000B09128078093F3059093F405A093F5059E
:100E9000B093F60580918400909185009093F205BF
:100EA0008093F10581E08093F0050895FA0190E0C8
:100EB00024E1629FB00111242191211519F08431A0
:100EC000910509F40895DC01A60FB71FA05DB84F86
:100ED0002C930196F1CFCF93DF93DA0114962C91E6
:100EE000149794E1981B291708F4922FE82FF0E04B
:100EF00084E1689FE00DF11D1124E05DF84F20E0D2
:100F000030E0291718F0DF91CF91089514964D9194
:100F10005C9115972417350770F44D915C911197EA
:100F20004115510541F0420F531FEA018881819319
:100F30002F5F3F4FE6CF80E0FACF0F931F93CF9301
:100F4000DF938C01C42F062E000C770B4AE050E093
:100F500080E397E00E943D416C2FCC0F770B4AE075
:100F600050E08AE397E00E943D41D80114968D91AC
:100F70009C91C4E1D0E0C81BD90BD695C795C4316C
:100F800028F4A80160E08C2F0E946B07DD27FE018A
:100F9000E15DF84F80E28083D8011496ED91FC91D9
:100FA000E05DF84FEC0FFD1F8083DF91CF911F9123
:100FB0000F91089542E061E00C949D0744E063E0E6
:100FC0000C949D0746E065E00C949D0780E090E05E
:100FD0000895089508950895DC01ED91FC9106842B
:100FE000F785E02D40E00994DC01ED91FC91068449
:100FF000F785E02D41E0099581E090E00895DC015E
:1010000081E001C0880F6A95EAF71C968C931C97C3
:101010001A965C934E931997ED91FC911197048465
:10102000F585E02D60E0CD0109948091FA0490915E
:10103000F904891B990B08959091F9048091FA04A1
:101040002FEF3FEF981748F4E92FF0E0E752FB4FFE
:10105000208130E09F5F9093F904C9010895E091E9
:10106000F9048091FA04E81730F4F0E0E752FB4FFE
:10107000808190E008958FEF9FEF0895089508957F
:1010800008952091D804260F3327331F21323105CC
:10109000ECF42091D704FC0180E090E0243069F06A
:1010A00082E00895A091D8042191AC0149545B4F8E
:1010B000A40FB52FB11D2C930196861798F380913C
:1010C000D804680F6093D80480E0089581E0089503
:1010D000CF93DF930F92CDB7DEB7FC016983809188
:1010E0001E058115F1F080911B05803250F081E0E2
:1010F00090E09383828380E090E00F90DF91CF9126
:10110000089580911C05E82FF0E0E550FB4F998190
:1011100090838F5F80931C0580931B0581E090E096
:10112000ECCF61E0CE0101960E944108F7CFCF924B
:10113000DF92EF92FF920F931F93CF93DF937C0187
:10114000CB018A0120911E052115D9F0EB016B011D
:10115000C40ED51ECC15DD0551F4C801DF91CF9129
:101160001F910F91FF90EF90DF90CF9008956991BC
:10117000D701ED91FC910190F081E02DC701099517
:10118000E9CF642F0E944108E8CF85ED8093BC0031
:101190008091BC0084FDFCCF1092D70408951F936A
:1011A000CF93DF93DC0152968D919C9153970097DA
:1011B00051F421E030E013963C932E931297DF9187
:1011C000CF911F9108951D96ED91FC911E971C964D
:1011D0002C911C97322F30957FB754964C91549791
:1011E000142F127041FD21C0F894408143234083A5
:1011F000EC012197F1F748E0508160FF1BC0522BB2
:101200005083EC012197F1F766954A95A9F7808103
:10121000111591F0832380837FBF52968D919C910D
:101220000197F1F781E090E0CACF6095F894408192
:10123000422BDDCF5323E4CF822BEDCF8FEF9FEFF7
:10124000089580E090E0089508953FB7F894809164
:10125000780490917904A0917A04B0917B0426B52A
:10126000A89B05C02F3F19F00196A11DB11D3FBFDE
:10127000BA2FA92F982F8827BC01CD01620F711DAD
:10128000811D911D42E0660F771F881F991F4A95A7
:10129000D1F708954F925F926F927F928F929F92B3
:1012A000AF92BF92CF92DF92EF92FF920F931F9374
:1012B000CF93DF938B01D82FC92F0E942509262FAA
:1012C000822E972E5C016801ED2EFC2E05C0C11404
:1012D000D104E104F10409F10E9425092B013C012C
:1012E000481859086A087B088601DE2DCF2D31E0A9
:1012F000C31AD108E108F108282D792DC50138EE6F
:10130000830E33E0931EA11CB11C38EE431633E06C
:10131000530661047104D8F6D3CFDF91CF911F91AA
:101320000F91FF90EF90DF90CF90BF90AF909F9084
:101330008F907F906F905F904F9008959C010197E0
:1013400041F0220F331F220F331FC9010597019768
:10135000F1F70895CF93DF93EC01423018F08C81C0
:1013600088608C834F836887211529F0413019F4F8
:101370008C8184608C8364E670E080E090E00E9461
:101380004A096C8164FD5BC0E881F9810684F785B8
:10139000E02D42E063E0CE01099584E991E10E94ED
:1013A0009E09E881F9810684F785E02D42E063E03B
:1013B000CE01099586E990E00E949E09E881F981B5
:1013C0000684F785E02D42E063E0CE01099586E9C9
:1013D00090E00E949E09E881F9810684F785E02D5E
:1013E00042E062E0CE01099586E990E00E949E0904
:1013F0006C816062CE010E94EC078CE390E00E9459
:101400009E0984E08D836CE0CE010E94EC0761E0D0
:10141000CE010E94EC0780ED97E00E949E0982E0D9
:101420008E8366E0CE010E94EC07E881F981048496
:10143000F585E02D6FEFCE01DF91CF9109946062C9
:10144000CE010E94EC0784E991E10E949E096C8123
:101450006062CE010E94EC0786E990E00E949E093E
:101460006C816062CE010E94EC07BECFCF93DF9308
:1014700090E0FC01E552FD4F249185549D4FFC0105
:1014800084918115D1F090E0880F991FFC01EF54F1
:10149000FD4FA591B591FC01E955FD4FC591D59141
:1014A0009FB7623069F4F8943C91822F8095832332
:1014B0008C938881822B88839FBFDF91CF91089581
:1014C000F8948C91822B8C93F7CF82508A3038F528
:1014D000E82FF0E0E55EF94B0C947F3D80918000B1
:1014E0008F77809380000895809180008F7DF9CF61
:1014F0008091B0008F778093B00008958091B00004
:101500008F7DF9CF809190008F7780939000089520
:10151000809190008F7DF9CF84B58F7784BD089539
:1015200084B58F7DFBCF1F93CF93DF93162F282F8A
:1015300030E0F901E957FD4F8491F901E552FD4F83
:10154000D491F901E554FD4FC491C115A1F0811169
:101550000E94650AEC2FF0E0EE0FFF1FE955FD4FEA
:10156000A591B5919FB7F8948C91111108C0D095B1
:10157000D823DC939FBFDF91CF911F9108958D2BCE
:101580008C93F8CFDF92EF92FF920F931F93CF933C
:10159000DF938C01D62ED0E0F8018481D81740F07B
:1015A000DF91CF911F910F91FF90EF90DF90089501
:1015B0007801ED0EF11CF701C68186898C1302C0FB
:1015C000D114E9F19EE0C534C9F07CF4C03219F0C1
:1015D00024F4C11108C090E011C080ED8C0F91ED92
:1015E0009C0F8A3058F09FE009C09CE0C03531F074
:1015F0009DE0C53519F09BE0CC34A9F7F801A08136
:10160000B18162818381680F6D0F9295907F690F20
:10161000ED91FC9111970190F081E02DCD0109959C
:10162000D1110AC0F8018581811531F061E0C03225
:1016300009F460E00E94930AF7018681868BDF5FE0
:10164000ABCF60E08FE00E94930A60E082E10C94EF
:10165000930ACF93DF93282F30E0F901E957FD4F2C
:101660008491F901E552FD4FD491F901E554FD4F04
:10167000C491C11581F081110E94650AEC2FF0E040
:10168000EE0FFF1FE358FD4FA591B591EC91ED23AF
:1016900081E0E11101C080E090E0DF91CF910895F9
:1016A000FC01A48DA80FB92FB11DA35ABF4F2C91D7
:1016B000848D90E001968F739927848FA689B789CE
:1016C0002C93A089B1898C91837080648C93938DC5
:1016D000848D981306C00288F389E02D80818F7D68
:1016E00080830895FC01818D228D90E0805C9F4F66
:1016F000821B91098F739927089583E196E00E94D8
:10170000720B9C0181E0232B09F480E008958BED9E
:1017100093E00E94720B9C0181E0232B09F480E08E
:10172000089580E090E0892B29F00E947D0B8111C3
:101730000E94000080E090E0892B29F00E94870B36
:1017400081110C9400000895FC01918D828D9817F1
:1017500031F0828DE80FF11D858D90E008958FEFB7
:101760009FEF0895FC01918D828D981761F0A28DF5
:10177000AE0FBF2FB11D5D968C91928D9F5F9F73B1
:10178000928F90E008958FEF9FEF0895FC01538DA5
:10179000448D842F90E0252F30E0821B930B54174B
:1017A00010F0CF96089501970895CF93DF93EC0141
:1017B000888D81110FC0DF91CF9108950FB607FC7E
:1017C0000DC08C9185FF0AC0808185FF07C0CE01C6
:1017D0000E94500BAA89BB89E889F9898C9185FD03
:1017E000EDCF808186FFEACFE6CFEF92FF920F9395
:1017F0001F93CF93DF93EC01F62E81E0888F9B8DB2
:101800008C8D98131AC0E889F989808185FF15C0ED
:101810009FB7F894EE89FF896083E889F989808110
:101820008370806480839FBF81E090E0DF91CF91DF
:101830001F910F91FF90EF9008950B8D10E00F5FB7
:101840001F4F0F731127E02E8C8D8E1579F0EB8DC5
:10185000EC0FFD2FF11DE35AFF4FF0829FB7F89474
:101860000B8FEA89FB8980818062DCCF0FB607FC91
:10187000EBCFE889F989808185FFE6CFCE010E9410
:10188000500BE2CFFC01A089B1898C91A689B78960
:1018900082FD0FC09C91818D8F5F8F73228D821787
:1018A00049F0A18DAE0FBF2FB11D5D969C93818F26
:1018B00008958C910895CF92DF92EF92FF920F934B
:1018C0001F93CF93DF937C016A0100E010E00C15B9
:1018D0001D0551F4C801DF91CF911F910F91FF9029
:1018E000EF90DF90CF900895EB01D701ED91FC913F
:1018F0000190F081E02D6991C7010995892B51F381
:101900000F5F1F4FBE01E3CF90910001891310C0FC
:10191000ECE7F2E0E4919FEF90930001E23089F070
:1019200028F4E11108C010926E0002C0E330D1F03B
:1019300060E00C94930A90916F009D7F90936F00EC
:10194000F7CF909170009D7F9093700091E09093FD
:10195000B0009091B100987F94609093B100109284
:10196000B300E6CF909171009D7F90937100E0CF1E
:1019700080930C0770930B0760930A075093090735
:101980004093080730930707209306070E94C40579
:1019900060930207709303078093040790930507F1
:1019A000109201078CE00C94840C20E030E040E5BC
:1019B00050E064EC79E081E00C94B80C1092F904EA
:1019C0001092FA0410921C0510921B051092D70475
:1019D00081E08093B1041092B00461E081E10E9443
:1019E000930A61E080E10E94930AE9EBF0E08081D4
:1019F0008E7F808380818D7F808388E48093B80090
:101A000085E48093BC0080E498E090938A048093FE
:101A100089048FE398E090938D0480938C0408955B
:101A200020911B0581E0213208F043C08091D7044A
:101A30008111FCCF90911D0532E03093D70431E045
:101A40003093B1043FEF3093AF044BEF54E0509329
:101A5000B3044093B2041092B5042093B4041092DE
:101A6000B6042091B604990F922B9093B6049091EE
:101A7000B004913029F51092B0049091B60490937F
:101A8000BB009091BC0093FDF8CF95EC9093BC0007
:101A90009091D7049230E1F39091AF049F3F49F0C9
:101AA0008091AF04803271F08091AF04803361F493
:101AB00083E010921C0510921B0510921E050895DC
:101AC00095EEE4CF82E0F5CF84E0F3CF0F931F9340
:101AD0002FB7F89480917D0490917E04A0917F04AB
:101AE000B09180042FBF80931B0690931C06A09397
:101AF0001D06B0931E0683E196E00E94B20B8F3F55
:101B0000980721F52FB7F89440917D0450917E04F9
:101B100060917F04709180042FBF00911B0610918B
:101B20001C0620911D0630911E06401B510B620BB6
:101B3000730B009117061091180620911906309129
:101B40001A064017510762077307A8F21F910F91F9
:101B5000089590B190938504EBE6F0E09081982B86
:101B60009083E8E6F0E08081816080830895FC0145
:101B7000AC01425F5F4F8FEF9FEF2191922728E0EA
:101B8000BC01880F991F77FF04C031E2832730E141
:101B900093272A95A9F74E175F0779F70895CF93F2
:101BA000DF93EC010E94B70D9C0181E04E855F85BB
:101BB0004217530709F080E0DF91CF9108952091FB
:101BC0000D0730910E072115310509F458C0909189
:101BD0001307911509F44DC0905D90933A019091CF
:101BE0001407911509F447C0905D90933B019091C3
:101BF0001507911509F441C0905D90933C019091B7
:101C00001607905D4AE390933D0140933E01909109
:101C10001707911102C0232B11F080E3890F8093E5
:101C20003F0180911807805D8093400180911B07E0
:101C300090E2853008F49AE390934101909119075E
:101C4000905D9093420190911A07905D90934301AB
:101C50009EE290934401805D8093450180911C0732
:101C6000805D8093460180911D07805D80934701D0
:101C70000895982FB2CF982FB8CF982FBECF8093CA
:101C80003A0180933B0180933C01982F482FBBCFB2
:101C900040E550E060E270E080E397E00C943D4165
:101CA00024E1829FC001112444E150E060E270E031
:101CB000805D984F0C943D41CF93DF939C01069635
:101CC000F901C481C20FD32FD11D6F71A62F660FEA
:101CD000BB0BA75CBE4F2C173D0719F4DF91CF91CA
:101CE0000895EDA1EA3331F44C91FC014193CF0109
:101CF0002197F1CFEF710E2E000CFF0BE75CFE4F2A
:101D00004081F3CFCF93C82F80E20E94DF0DC11531
:101D100019F08AE3809341014AE351E063E086E0F1
:101D20000E945607C091EF056C2F88E395E00E9452
:101D30005C0E6C2F8EE695E0CF910C945C0EFC014E
:101D4000448155816081718183E196E00C945B0C44
:101D50000F931F93CF93DF938C01EB01FE016491EE
:101D60002196611521F0C8010E94F50BF7CFDF9194
:101D7000CF911F910F9108950C94F50BFC01838175
:101D8000811599F08181682B6083828191E0909325
:101D90001E0580931D0510921C0510921B058FE1F6
:101DA00095E00E9468080C94100D0895EF92FF9240
:101DB0000F931F93CF93DF93EC01162F042FF22E76
:101DC0008B85888B0E94DE0C8889EE24E394E09258
:101DD0001E0580931D0510921C0510921B050E9484
:101DE000100D811111C0E98A8FE195E00E941C0855
:101DF0008E878989811549F01F861C8260E0CE019B
:101E00000E960E94BE0E01C0198A2F2D402F612F01
:101E1000CE01DF91CF911F910F91FF90EF900C9425
:101E2000AA09FC01862F6485611599F02185328508
:101E30002115310521F4811107C060E005C0213072
:101E40003105D9F78111F9CF6587CF010E960C9432
:101E5000BE0E0895EF92FF921F93CF93DF93EC0194
:101E6000FC019C012C5F3F4F80E060FF02C0958920
:101E7000892B66953196E217F307B9F7413009F4DB
:101E80004C899D85892B142F182B7E018EE0E80E3E
:101E9000F11C6A89612BC7010E94BE0E6A89609598
:101EA0006123C701DF91CF911F91FF90EF900C94B8
:101EB000BE0E0F931F93CF93DF93D82FC92F142FEC
:101EC000062F0F7040E0123031F062956F70412F95
:101ED0000E942A0F412F602F8D2F9C2FDF91CF91D1
:101EE0001F910F910C942A0FEF92FF920F931F9363
:101EF000CF93DF9390E1899F80011124EB01CB0107
:101F000040967C01C8010E94CC4489930F5F1F4F0B
:101F1000CE15DF05B9F7DF91CF911F910F91FF909B
:101F2000EF900895DF92EF92FF920F931F93CF935C
:101F3000DF93CDB7DEB760970FB6F894DEBF0FBE64
:101F4000CDBF082FF62EE42ED52E11E0BE016F5F17
:101F50007F4F8FEF810F0E94740FCE0101960E9478
:101F6000CF0D8115F1F0998190131BC09A819F7755
:101F7000F91217C09CE0FE013396AE2DBD2D0190E5
:101F80000D929A95E1F760960FB6F894DEBF0FBEFA
:101F9000CDBFDF91CF911F910F91FF90EF90DF9018
:101FA00008951F5F103491F680E0EDCFCF92DF925D
:101FB000FF920F931F93CF93DF9390E1899F80014E
:101FC0001124EB01CB0140966C01F990C8010E94ED
:101FD000CC44F81621F06F2DC8010E94D4440F5F45
:101FE0001F4FCC15DD0589F7DF91CF911F910F9120
:101FF000FF90DF90CF900895CF93DF93EC0188811D
:102000009981009711F00E94C93F198218821D82A0
:102010001C821B821A82DF91CF910895009711F0E4
:102020000C94C93F08950F931F93CF93DF93EC0156
:102030008B0188819981009729F02A813B8126179D
:10204000370790F4B8016F5F7F4F0E945A40FC0140
:1020500080E0309751F0F983E8831B830A838C81F9
:102060009D81892B09F4108281E0DF91CF911F912E
:102070000F910895DC01FB014481558114968D91E7
:102080009C9115978417950778F08D919C910097F6
:1020900059F0608171816115710531F00E945F41D5
:1020A0009C0181E0232B09F080E00895EF92FF92DC
:1020B0000F931F93CF93DF93EC017B01FB01019002
:1020C0000020E9F731978F01061B170BB8010E941A
:1020D0001310811109C0CE01DF91CF911F910F9193
:1020E000FF90EF900C94FC0F1D830C83B701888147
:1020F0009981DF91CF911F910F91FF90EF900C94F8
:102100005841FB01EF2B51F0DB010D900020E9F766
:102110001197AD01461B570B0C945B0C08956F9201
:102120007F928F929F92AF92BF92CF92DF92EF9267
:10213000FF920F931F93CF93DF93CDB7DEB7A19795
:102140000FB6F894DEBF0FBECDBF3C01142F052F94
:10215000962E872E19A2223008F42AE05E0181E231
:10216000A80EB11CC22ED12CE12CF12C612F702FA6
:10217000892D982DA70196010E943E3D812F902F19
:10218000A92DB82D122F032F942E852E6A3014F509
:10219000605DF50162935F018C159D05AE05BF057D
:1021A00028F7BF01C3010E948110A1960FB6F894D1
:1021B000DEBF0FBECDBFDF91CF911F910F91FF907A
:1021C000EF90DF90CF90BF90AF909F908F907F90D7
:1021D0006F900895695CDDCF482F50E060E070E0BB
:1021E0002AE083E196E00C948F1069E772E00C948A
:1021F00081101F93CF93DF93D62FC72F142F0E94E8
:102200009F0E62E073E083E196E00E94A80E8D2F9E
:102210009C2F111549F00E949F0E83E196E0DF91FB
:10222000CF911F910C94F510DF91CF911F910C94D9
:102230009F0ECF92DF92FF920F931F93CF93DF9366
:1022400000D000D000D0CDB7DEB78C01F62E2091A3
:10225000110180E1289FB001112464517E4F1C823E
:102260001B821E821D821A821982CE0101960E9453
:102270005610C980DA804F2DB801CE0101960E9418
:10228000F910C6010F900F900F900F900F900F90C4
:10229000DF91CF911F910F91FF90DF90CF900C9421
:1022A0000E10CF93DF93D82FC92F0E9481108D2F4E
:1022B0009C2FDF91CF910C94F510CF93DF93D82F03
:1022C000C92F0E94A80E8D2F9C2FDF91CF910C94C7
:1022D000F5100C9481100F931F93CF93DF93CDB71C
:1022E000DEB762970FB6F894DEBF0FBECDBF6F8723
:1022F000788B898B9A8B042F122F1B861C861D8648
:102300001E86BE01615F7F4FCE010B960E9437068D
:1023100080E30E94DF0D111531F06CE772E083E17C
:1023200096E00E946911011599F080913B01898323
:1023300080913C018A8380913D018B838AE38C8369
:102340001D82BE016F5F7F4F83E196E00E9469119D
:1023500080913F018983809140018A838AE38B8346
:10236000809142018C83809143018D838EE28E8324
:10237000809145018F838091460188878091470134
:1023800089871A86BE016F5F7F4F83E196E00E94C6
:102390006911111531F06FE772E083E196E00E9458
:1023A000691162960FB6F894DEBF0FBECDBFDF9104
:1023B000CF911F910F910895EF92FF920F931F936A
:1023C000CF93DF93EC018B016115710569F0FB017F
:1023D00001900020E9F731977F01E61AF70AB7016B
:1023E0000E941310811109C0CE01DF91CF911F917E
:1023F0000F91FF90EF900C94FC0FFD82EC82B801DE
:1024000088819981DF91CF911F910F91FF90EF907B
:102410000C945841FC01448150E060E270E0069663
:102420000C943D41CF93DF93C091E505D091E60533
:1024300060EE75E08CED95E0209721F06BEE75E095
:1024400087EE95E00E94370680E20E94DF0D21971B
:1024500031F44AE351E062E08AE00E94560784EAE0
:1024600095E00E940A12C091EF056C2F8EE695E070
:102470000E945C0E6C2F88E395E0DF91CF910C9465
:102480005C0E8F929F92AF92BF92CF92DF92EF92AB
:10249000FF920F931F93CF93DF936B017C01A701F2
:1024A0009601C701B6010E940E4661E872E08111F3
:1024B00014C0C701B6010E94044665E872E0892B8A
:1024C00061F42FEF3FEF4FE75FE4C701B6010E94D1
:1024D000FF45181694F469E872E083E196E0DF9115
:1024E000CF911F910F91FF90EF90DF90CF90BF9011
:1024F000AF909F908F900C9481102FEF3FEF4FE79C
:102500005FECC701B6010E940C3E87FDE4CF20E0DE
:1025100030E0A901C701B6010E940C3E87FF09C047
:102520006DE283E196E00E94BC0EF7FAF094F7F8B2
:10253000F0942EE632E143E05AE3C701B6010E946F
:10254000F2446B017C010E94D0458B01D82FC92F2A
:102550000E94113E9B01AC01B601C7010E94F144EB
:102560006B017C012AE0A8016D2F7C2F83E196E0AE
:102570000E948F106EE283E196E00E94BC0EC3E0E1
:1025800020E030E040E251E4B601C7010E94723E13
:10259000F62E072F182FD92F0E94D0454B01A12CC2
:1025A000B12C2AE0B501A40183E196E00E948F10CE
:1025B000C501B4010E94113E9B01AC016F2D702F2B
:1025C000812F9D2F0E94F1446B017C01CA95C1F6B9
:1025D000DF91CF911F910F91FF90EF90DF90CF90FF
:1025E000BF90AF909F908F9008952F923F924F92FF
:1025F0005F926F927F928F929F92AF92BF92CF9293
:10260000DF92EF92FF920F931F93CF93DF93CDB79B
:10261000DEB764970FB6F894DEBF0FBECDBF62EC95
:1026200071E083E196E00E945D112091B00601EB1C
:1026300016E0F80180E0412C512C3201C12CD12C44
:10264000760188248A94982C540182134CC12FEF70
:1026500082169206A206B206C1F0D701C601C414C2
:10266000D504E604F70410F4D301C2010097A105D4
:10267000B10559F088199909AA09BB0931E03C87CD
:102680008F379E4EA643B10508F41C86212C312CB1
:102690008091B0062816310408F43DC12FEF821650
:1026A0009206A206B20609F47EC0C114D104E10468
:1026B000F10409F478C0411451046104710409F46F
:1026C00072C0D701C60188199909AA09BB098D876B
:1026D0009E87AF87B88BA3019201281939094A094F
:1026E0005B09298B3A8B4B8B5C8B83E196E00E94D4
:1026F000F51065E771E083E196E00E945D1169E6FF
:1027000071E083E196E00E94A80E20E04C856D8583
:102710007E858F8598890E946B1183E196E00E94E7
:10272000F5106DE571E083E196E00E94A80E20E0CF
:102730004C8569897A898B899C890E946B1183E118
:1027400096E00E94F5108D859E85AF85B889298910
:102750003A894B895C8982179307A407B50708F06B
:102760001BC167E471E083E196E00E945D116BE3B9
:1027700071E083E196E00E94A80EC301B2016C19DA
:102780007D098E099F090E94113E20E030E04AE752
:1027900054E40E945E450E9441126DE872E083E1BC
:1027A00096E00E94511180913505811509F47DC094
:1027B0006CEE70E083E196E00E945D11809135053A
:1027C000811509F410C1809150014091510120916F
:1027D0005201E0905301F0905401009155011AE02C
:1027E000612F0E941E3D805D8983905D9A833EE249
:1027F0003B83842F0E941E3D805D8C83905D9D8372
:102800003E8330E02053384F82E38F83C90164E672
:1028100070E00E942A3DCB01EAE0F0E0BF010E9497
:102820002A3D805D8887C901BF010E942A3D282F6B
:10283000CB01BF010E942A3D805D8987205D2A87E8
:102840001B8660EE70E083E196E00E94A80EBE0158
:102850006F5F7F4F83E196E00E9451118E2D612FB3
:102860000E941E3D805D8983905D9A832AE32B83BD
:102870008F2D0E941E3D805D8C83905D9D832E83F5
:10288000802F0E941E3D805D8F83905D9887198602
:1028900064ED70E083E196E00E94A80EBE016F5FD8
:1028A0007F4F83E196E00E9451116DEB70E083E170
:1028B00096E064960FB6F894DEBF0FBECDBFDF91F1
:1028C000CF911F910F91FF90EF90DF90CF90BF902D
:1028D000AF909F908F907F906F905F904F903F90C0
:1028E0002F900C945D119481913039F48080918007
:1028F000A280B3808F5F3596A8CE933029F4C08034
:10290000D180E280F380F6CF9430A1F740805180EF
:1029100062807380EFCFD8016D917D918D919C91F4
:10292000681979098A099B0921E04C850E946B117D
:1029300063EB72E083E196E00E946911F801848103
:10294000843021F190F48230D9F08330E1F06CEBE7
:1029500071E0813081F083E196E00E94F510FFEF95
:102960002F1A3F0A0B5F1F4F93CE853091F06BE813
:1029700071E0863081F783E196E00E94A80EEBCFEC
:1029800064EB71E0F8CF65EA71E0F5CF65E971E0DD
:10299000F2CF61E971E0EFCF89899A89AB89BC896F
:1029A0002D853E854F85588982179307A407B50763
:1029B00098F464E271E083E196E00E945D1168E1C1
:1029C00071E083E196E00E94A80EC701B601641988
:1029D000750986099709D7CE62E071E083E196E038
:1029E0000E945D11E0CE00E0F12CE12C20E040E0FF
:1029F00080E0F5CEEF92FF920F931F93CF93DF937A
:102A0000EC018B01CB010E94DD3D7C01BC01CE01BC
:102A10000E941310811109C0CE01DF91CF911F9147
:102A20000F91FF90EF900C94FC0FEC82FD82B801A7
:102A300088819981DF91CF911F910F91FF90EF9045
:102A40000C94D63D0F931F93CF93DF9300D000D00B
:102A500000D0CDB7DEB7E5EEF5E082E090E09183FF
:102A600080838BE682876BEE75E087EE95E00E94AF
:102A7000370681E00E94820E1C821B821E821D820C
:102A80001A8219826BE878E0CE0101960E94FA144E
:102A900009811A81CE0101960E94DE07C8010E94B9
:102AA0000E1084E090E00F900F900F900F900F9019
:102AB0000F90DF91CF911F910F910C94D0050F9340
:102AC0001F93CF93DF9300D000D000D0CDB7DEB7F7
:102AD00080912A0790912B078A30910561F188F443
:102AE000009709F4B4C0099709F449C00F900F90FA
:102AF0000F900F900F900F90DF91CF911F910F913A
:102B000008950B9799F765E077E083E196E00E94DE
:102B10005D116AED76E083E196E00E945D110F9011
:102B20000F900F900F900F900F90DF91CF911F910A
:102B30000F910C94D50C1C821B821E821D821A825E
:102B400019826EE777E0CE0101960E94FA1409819E
:102B50001A8161E0CE0101960E941911C8010E94FC
:102B60000E108CE090E00F900F900F900F900F9050
:102B70000F90DF91CF911F910F910C94D0050E947F
:102B8000480E1C821B821E821D821A82198269E7EE
:102B900077E0CE0101960E94FA1409811A81CE01D4
:102BA00001960E94DA07C8010E940E101C821B8247
:102BB0001E821D821A8219826CE677E0CE01019690
:102BC0000E94FA1409811A81AE014F5F5F4F63E0E2
:102BD00084E00E946B07C8010E940E1040913C05E2
:102BE00050E066E672E08EE595E00E943441409147
:102BF000A80550E062E271E08AEC95E00E94344161
:102C00004091720550E062E171E084E995E00E9434
:102C100034410E94F4050E94C4056093E00570935E
:102C2000E1058093E2059093E3051092DC05109294
:102C3000DD051092DE051092DF051092DB05109283
:102C4000DA058BE68093E40580E090E08CCF8091FC
:102C50008401811561F01092840183E196E00E9465
:102C6000F51061E477E083E196E00E945D118091C8
:102C70007B01811191C0809172018111B7C0809157
:102C80006901811571F01092690181E0809332052C
:102C900024E630E040E550E060ED77E083E00E941C
:102CA000B80C80916001811531F010926001109292
:102CB00032050E94D50C80913605811105C08091A6
:102CC0003205811509F44AC00E94C4056093E005ED
:102CD0007093E1058093E2059093E30560EE75E063
:102CE0008CED95E00E94370680E20E94DF0D4AE3FA
:102CF00051E061E086E00E9456078091DA059091EC
:102D0000DB051C821B821E821D821A82198265E3EA
:102D100077E0892B11F06EE277E0CE0101960E94F8
:102D2000FA1409811A81AE014F5F5F4F61E080E0C4
:102D30000E946B07C8010E940E101091E405612FDC
:102D400084EA95E00E945C0E612F8EE695E00E9479
:102D50005C0E612F88E395E00E945C0E8091370540
:102D6000811509F463C08AE38093410160E972E050
:102D700083E196E00E9469116AE371E083E196E0E5
:102D80000F900F900F900F900F900F90DF91CF91B9
:102D90001F910F910C94511110927B0180917C0135
:102DA00090917D01A0917E01B0917F018093DC051F
:102DB0009093DD05A093DE05B093DF0581E090E000
:102DC0009093DB058093DA0588E68093E4050E9402
:102DD000F40528E933E040E550E06CED75E083E070
:102DE0000E94B80C81E08093840180CE1092720121
:102DF0008091330591E08927809333051C821B82E3
:102E00001E821D821A8219826CE377E0CE01019640
:102E10000E94FA1409811A81CE0101960E94DA07F4
:102E2000C8010E940E100E94D50C29CF8091310557
:102E30006FE073E0811107C080913605811509F4B8
:102E400055CE6EE972E083E196E00F900F900F90FF
:102E50000F900F900F90DF91CF911F910F910C94D5
:102E600069110F931F93CF93DF9300D000D000D050
:102E7000CDB7DEB70E94480E1C821B821E821D82C7
:102E80001A82198260ED76E0CE0101960E94FA1452
:102E900009811A81CE0101960E94DA07C8010E94B9
:102EA0000E101C821B821E821D821A8219826BEBFD
:102EB00076E0CE0101960E94FA1409811A81AE01D2
:102EC0004F5F5F4F62E080E00E946B07C8010E9485
:102ED0000E101C821B821E821D821A8219826AEACF
:102EE00076E0CE0101960E94FA1409811A81AE01A2
:102EF0004F5F5F4F63E082E00E946B07C8010E9452
:102F00000E101C821B821E821D821A82198262EAA6
:102F100076E0CE0101960E94FA1409811A81BE0161
:102F20006F5F7F4F88E395E00E949C05C8010E9477
:102F30000E1084EA95E00E940A128EE695E00F904A
:102F40000F900F900F900F900F90DF91CF911F91E6
:102F50000F910C940A12CF92DF92FF920F931F935E
:102F6000CF93DF9300D000D000D0CDB7DEB78C0177
:102F7000F62E1C821B821E821D821A8219826BEF22
:102F800072E0CE0101960E94FA14C980DA804F2DBA
:102F9000B801CE0101960E94F910C6010F900F9062
:102FA0000F900F900F900F90DF91CF911F910F9185
:102FB000FF90DF90CF900C940E107F928F929F9293
:102FC000AF92BF92CF92DF92EF92FF920F931F9337
:102FD000CF93DF93CDB7DEB766970FB6F894DEBF19
:102FE0000FBECDBF982EB62E742E852EA12C8E012D
:102FF0000F5F1F4FC982DA82B8018A2D0E94740FB9
:10300000C980DA80C8010E94CF0D7801811579F15D
:103010009C102DC08D2D8F77B81229C0BD1083C094
:103020008CE0E72DF82DDE01139601900D928A9524
:10303000E1F7C8010E94B70D988B8F87B8018A2DE0
:103040000E94D60F81E066960FB6F894DEBF0FBEE1
:10305000CDBFDF91CF911F910F91FF90EF90DF9047
:10306000CF90BF90AF909F908F907F900895A39442
:1030700080E4A812BFCF10E0C982DA82B701812FA5
:103080000E94740FC980DA80C7010E94CF0D81159C
:10309000B9F01F5F103481F700E0C982DA82B7010E
:1030A000802F0E94740FC980DA80C7010E94CF0D63
:1030B000811511F0C7FC1AC00F5F003471F71FEFC4
:1030C0000FEF8CE0E72DF82DDE01139601900D92A5
:1030D0008A95E1F79982BA82C7010E94B70D988B51
:1030E0008F871F3F29F0B701812FAACF1FEFE9CFAC
:1030F000B701802F0F3F09F0A3CF1C8A1B8A1E8ABD
:103100001D8A1A8A198A60ED7AE0CE0141960E94E2
:10311000FA1409891A8961E0CE0141960E94AB1721
:10312000C8010E940E1080E08ECF6F927F928F9226
:103130009F92AF92BF92CF92DF92EF92FF920F9346
:103140001F93CF93DF93CDB7DEB76F970FB6F89489
:10315000DEBF0FBECDBF80912A0790912B0789302B
:10316000910509F462C0D8F4009709F479C0059775
:1031700009F4B4C16F960FB6F894DEBF0FBECDBF91
:10318000DF91CF911F910F91FF90EF90DF90CF9043
:10319000BF90AF909F908F907F906F9008958A30EE
:1031A000910559F10B9731F78091500189838091F6
:1031B00051018A83809152018B83AE014F5F5F4F33
:1031C00060E084E00E94DD178115A1F20E94D50C19
:1031D0001D8A1C8A1F8A1E8A1B8A1A8A62E972E06B
:1031E000CE0142960E9456100A891B8961E0CE01E9
:1031F00042960E941911C80194C08CE090E06F962D
:103200000FB6F894DEBF0FBECDBFDF91CF911F91F7
:103210000F91FF90EF90DF90CF90BF90AF909F9075
:103220008F907F906F900C94D0058091350581111F
:1032300014C0AE014F5F5F4F60E084E00E94920FC8
:10324000811559F08981809350018A8180935101C1
:103250008B81809352010E94030680E090E0CFCFE3
:1032600080918401811529F1109284010E94480EF9
:103270001C821B821E821D821A82198260ED77E0F9
:10328000CE0101960E94FA1409811A81CE0101969D
:103290000E94DA07C8010E940E1084EA95E00E949D
:1032A0000A128EE695E00E940A1288E395E00E94D9
:1032B0000A128091720181114AC0809136058115F0
:1032C00009F458CF809135058E010F5F1F4F811192
:1032D00043C01C821B821E821D821A8219826DE9E4
:1032E00077E0C8010E94FA14E980FA80A80162E040
:1032F00081E00E946B07C7010E940E101C821B8296
:103300001E821D821A82198269E877E0C8010E9434
:10331000FA14E980FA80A80163E080E00E946B075C
:10332000C7016F960FB6F894DEBF0FBECDBFDF9119
:10333000CF911F910F91FF90EF90DF90CF90BF90B2
:10334000AF909F908F907F906F900C940E10109282
:10335000720185E090E053CF60904F018090500162
:10336000909051017090520120915301409154016D
:103370003091550180E2F82E2A3038F0822F6AE031
:103380000E941E3D90E3F92EF80EF982822F6AE02A
:103390000E941E3D50E3C52EC90ECA822AE32B832C
:1033A000842F0E941E3D70E3D72ED80EDC82E0E30E
:1033B000EE2EE90EED822E83832F0E941E3DF0E358
:1033C000AF2EA80EAF82A0E3BA2EB90EB88619862A
:1033D000A80162E086E00E945607862D90E0FC017D
:1033E000EE0FFF1FE80FF91FE55BFD4F808189831A
:1033F00081818A8380E28B838C832AE080E282163B
:1034000028F0882D6AE00E941E3D805D8D832AE0B1
:10341000882D622F0E941E3D905D9E838EE28F83D9
:1034200080E2921620F0892D0E941E3D805D8887E3
:103430003AE0892D632F0E941E3D905D99878EE2B0
:103440008A8782E38B8780E38C87872D0E941E3DCD
:10345000292F0E941E3D905D9D87205D2E871F862F
:10346000A80163E083E00E945607F982CA82DB82EA
:10347000EC82AD82BE828AE38F834E0188E0880EA3
:10348000911C5E01E2E1AE0EB11CD501F4013501E3
:1034900082918D930E171F07D9F740913C0550E09C
:1034A000B3018EE395E00E94344180E289838A83F0
:1034B000FB82CC82DD82EE82F40182914F01F50124
:1034C00081935F0108151905B9F74091A80550E0EF
:1034D000B3018AEA95E00E9434414CCE8091840188
:1034E000811509F43FC010928401109234050E94A6
:1034F000480E1C821B821E821D821A82198264EC75
:1035000077E0CE0101960E94FA1409811A81CE015A
:1035100001960E94DE07C8010E940E101C821B82C9
:103520001E821D821A8219826FEA77E0CE0101960F
:103530000E94FA1409811A81AE014F5F5F4F63E068
:1035400080E00E946B07C8010E940E1084EA95E09B
:103550000E940A128EE695E00E940A1288E395E026
:103560000E940A1280917201811519F01092720165
:1035700074CE80917B01811549F010927B0180917E
:1035800034058F5F8730A0F5809334058091690101
:10359000811589F11092690168EC70E080E090E09B
:1035A0000E944A098DE10E94290B892B19F481E0C0
:1035B000809369018FEF909160019115F1F0109265
:1035C000600168EC70E080E090E00E944A098EE1C2
:1035D0000E94290B892B09F4A7C021E0E091340552
:1035E000E73008F0AFC0F0E0EB5DF94B0C947F3DA5
:1035F00010923405CBCF80E0DECF811199C080914D
:103600003605811509F4B6CD198A10E21983809127
:1036100050010AE0602F0E941E3D805D8A83905D0C
:103620009B831C831D83809151010E941E3D805D00
:103630008E83905D9F831887198782E38A8780E352
:103640008B87809152010E941E3D292F0E941E3DB2
:10365000905D9C87205D2D871E8780914F0190E0B3
:10366000FC01EE0FFF1FE80FF91FE55BFD4F8081A6
:103670008F878181888BAE014F5F5F4F61E080E073
:103680000E94560780915301602F0E941E3D805D6D
:103690008A83905D9B83809154010E941E3D805DD2
:1036A0008E83905D9F83809155010E941E3D805DB9
:1036B0008A87905D9B871C871D87809135058111C6
:1036C000B0C096E589E79E878F8780E7888BAE013B
:1036D0004F5F5F4F62E080E00E9456078EE0EBE8AC
:1036E000F1E0DE01529601900D928A95E1F780910A
:1036F0003405FE013196E80FF11DE80FF11D8289B6
:103700008F5F843008F036CDE189E43108F032CDA6
:10371000F4E18F9FC0011124805D984FE80FF92FCD
:10372000F11D87E0808326CD81E08093600155CF35
:103730002FEF54CF80915001820F803230F081E022
:10374000809350010E9403065ACF8111F9CF8FE177
:10375000F7CF80915101820F8D3020F081E080936E
:103760005101F0CF8111FBCF8CE0F9CF8091520154
:10377000820F843620F089E180935201E3CF8931B2
:10378000D8F783E6F9CF80915301820F8F3F21F460
:1037900087E180935301D6CF8831D8F3109253013B
:1037A000D1CF80915401820F8F3F21F48BE380931E
:1037B0005401C8CF8C33D8F310925401C3CF8FB7C4
:1037C000F8941092220710922107109220078FBFC1
:1037D000809155013AE0632F0E941E3D820F839F26
:1037E000802D1124813F20F082E380935501AACFE0
:1037F0008333D8F310925501A5CF809135058111FF
:1038000009C08FB7F89410922207109221071092E6
:1038100020078FBF8091350591E08927809335057A
:1038200091CF9AE581E64FCF2F923F924F925F92D0
:103830006F927F928F929F92AF92BF92CF92DF92C0
:10384000EF92FF920F931F93CF93DF93CDB7DEB725
:10385000AD970FB6F894DEBF0FBECDBF80912A079B
:1038600090912B078C30910569F08A30910519F5FC
:1038700088E395E00E940A128CE090E090932B0779
:1038800080932A07AD960FB6F894DEBF0FBECDBF6A
:10389000DF91CF911F910F91FF90EF90DF90CF902C
:1038A000BF90AF909F908F907F906F905F904F9060
:1038B0003F902F900895099791F40E94311783E16A
:1038C00096E00E94720B892B29F410922B0710921C
:1038D0002A07D8CF83E196E00E94B20BF0CF83E1B4
:1038E00096E00E94720B892B69F218A21F8E1E8E21
:1038F0001D8E1AA219A26E012DE1C20ED11C6BE71A
:1039000072E0C6010E9456100D8D1E8DE9A0FAA02E
:103910000E94660D9C01CFA2D8A62F3F320721F04E
:103920002A30310509F0D2C10115110591F1E114D8
:10393000F10479F148015401D4018D914D01082E13
:10394000000C990B0E94033E892BA9F7B1E0EB1AFA
:10395000F108E00EF11ED7018C91082E000C990B96
:103960000E94033E892B21F0EA14FB0408F0D0C129
:10397000BFEFEB1AFB0AEA18FB080A151B0528F42F
:10398000A701B501C8010E943441F801EE0DFF1DE9
:1039900010821C821B821E821D821A82198268E993
:1039A00076E0FE0131963F01CF010E94FA14A98012
:1039B000BA8060E0C3010E941911C5010E940E1077
:1039C0001E8F0D8FFAA2E9A28FA198A50E949F0ECB
:1039D00060EA72E083E196E00E9451111C821B8232
:1039E0001E821D821A82198262EA72E0C3010E945D
:1039F0005610A980BA80B3018FA198A50E943A10F1
:103A0000982EC5010E940E10911409F4ABC18FEFDE
:103A10009FEF9A8B898B9CA38BA3CE0183969F9358
:103A20008F9342979F938F9387EA92E09F938F9310
:103A30001F930F930E947C4168E876E083E196E053
:103A40000E945D1168E776E083E196E00E945D11D7
:103A50000FB6F894DEBF0FBECDBF812C912C49E686
:103A600056E02AE636E086E696E049A75AA72BA755
:103A70003CA7482E9DA76E013FE0C30ED11CB301A9
:103A8000882D0E94740FC3010E94CF0D811509F487
:103A900071C0B980B7FC6EC089899A8997FD04C04E
:103AA000B816190609F066C02A80A22CE894A7F877
:103AB0008BA19CA197FD04C0A816190609F05AC055
:103AC00062EB72E083E196E00E94691184E665E7AB
:103AD00076E0B81638F49AE062E776E0B91610F0AE
:103AE00066E776E083E196E00E94A80E8B2D0E94A7
:103AF000EC1062EB72E083E196E00E946911A4E6AB
:103B00002FE636E0B901AA1648F4BAE0ECE6F6E092
:103B1000BF01AB1618F080E796E0BC0183E196E0A8
:103B20000E94A80E8A2D0E94EC1060E283E196E0CC
:103B30000E94F50B27FEF0C062E283E196E00E944E
:103B4000BC0EDE0113965D01F50161915F01611507
:103B500039F083E196E00E94BC0ECA14DB04A1F7A1
:103B600062E283E196E00E94BC0E83E196E00E944F
:103B7000F5109394839420E4821281CF911431F054
:103B800066E576E083E196E00E945D116BE476E005
:103B900083E196E00E94A80E892D0E94EC1083E13B
:103BA00096E00E94F510992493941C821B821E8239
:103BB0001D821A82198265EB72E0C3010E945610C1
:103BC000A980BA80B3018FA198A50E943A10882ECF
:103BD000C5010E940E10811409F42BC11C8A1B8A96
:103BE0001E8A1D8A1A8A198A6E0131E1C30ED11C00
:103BF0006BE772E0C6010E9456106DE376E0C601E5
:103C00000E94FA14E988FA88CE0185969F938F93D3
:103C100002979F938F938AEB92E09F938F931F93CA
:103C20000F930E947C410FB6F894DEBF0FBECDBF4C
:103C30002601029709F0B8C060E270E0C8010E9456
:103C40004441009709F4B0C060E270E001960E9420
:103C50004441009709F4A8C060E270E001960E9418
:103C60004441DC01892B09F49FC0FD018D91803214
:103C7000E1F3823209F078C06D0162E270E0CD01BB
:103C80000E944441AC01892B09F48EC08CE0F30101
:103C900011928A95E9F74C195D094D30510514F0E0
:103CA0004CE050E0B601C3010E946D416DA1606817
:103CB000A3018BA10E94DD176CE276E0811102C0A6
:103CC00060E176E0C2010E94FA146CC029831A8276
:103CD00057013FEFA31AB30A1E8F0D8FFAA2E9A274
:103CE000B5018FA198A50E9413100D8D1E8DE9A01E
:103CF000FAA0811549F0BE016F5F7F4FC8018E0D9C
:103D00009F1D0E94584175010E94660D9C0105CEC1
:103D1000E1E0EE1AF1081FCE9E012D5F3F4F190121
:103D2000B12CD101AD901D01B4E669A57AA5AB1601
:103D300038F4EAE0642D7DA5AE1610F06BA57CA5E5
:103D400083E196E00E94A80E8A2D0E94EC10B394A5
:103D5000FCE0BF1609F409CF6CE283E196E00E9413
:103D6000F50BDFCF912C21CF8CE0D3011D928A95EA
:103D7000E9F763014E01BDE08B0E911C8081811536
:103D800019F08C149D04B9F56DA16F77A3018BA177
:103D90000E94DD17811509F449C064EC72E0C2018C
:103DA0000E94DC11E988FA88FA8AE98AC2010E9435
:103DB0009F0E83E196E00E94F510C7010E940E104D
:103DC000C801AD960FB6F894DEBF0FBECDBFDF9130
:103DD000CF911F910F91FF90EF90DF90CF90BF9008
:103DE000AF909F908F907F906F905F904F903F909B
:103DF0002F900C940E105F013196D5018C9180327A
:103E0000D1F3C5010E94883D8115B1E09B0760F6A2
:103E1000F60181936F016CE270E0C5010E9444419C
:103E2000FC01892B09F4B0CF3196A8CF64EF75E07F
:103E300049CF1C821B821E821D821A82198269ED63
:103E400072E0C3010E945610A980BA80B3018FA10D
:103E500098A50E943A10482EC5010E940E104114E8
:103E600009F44AC0CE0185969F938F9302979F9342
:103E70008F938EED92E09F938F931F930F930E94E9
:103E80007C410FB6F894DEBF0FBECDBF0297A1F5FF
:103E9000ADA0BBA05982B301882D0E94740F598038
:103EA000C3010E94CF0D982E811541F1B51026C097
:103EB0008A818F77A81222C08CE0FE017196DF0103
:103EC000282F1D922A95E9F7DE01139601900D9295
:103ED0008A95E1F78B2D80688983C3010E94B70D15
:103EE000988B8F87B301882D0E94D60F65EE75E001
:103EF00083E196E00E945D11812C0EC0839430E432
:103F00008312C8CF68ED75E083E196E00E94A80EA9
:103F100088248394992493941C821B821E821D8280
:103F20001A82198268EE72E0C3010E945610A980BD
:103F3000BA80B3018FA198A50E943A10D82EC5016E
:103F40000E940E10D11409F459C0270195E0A92E42
:103F5000B12C85E0E816F10420F4570185E0482EE5
:103F6000512C1C821B821E821D821A8219826BE7D1
:103F700072E0C3010E945610AE14BF0400F1A98084
:103F8000BA80A114B10431F0C5010E94A63DCB0155
:103F9000892B51F5109233050E943117C5010E94FB
:103FA0000E1099249394EF2861F5811409F4E1C06F
:103FB00061EC75E083E196E00E94A80ECAC067013B
:103FC0004E145F0408F46201C00ED11ED6019C900D
:103FD0001C92B8016A0D7B1DC3010E94DC11A980EF
:103FE000BA80F6019082CDCF6130710521F481E075
:103FF00080933305D3CF88248394D0CFEF2809F45E
:104000009EC06EEE72E0C8010E944F41892B91F56F
:1040100064E375E083E196E00E945D1164EE74E074
:1040200083E196E00E945D1160EA74E083E196E02E
:104030000E945D1165E574E083E196E00E945D11E8
:104040006CE174E083E196E00E945D1168ED73E03D
:1040500083E196E00E945D1169E973E083E196E0F7
:104060000E945D116EE673E083E196E00E945D11AF
:104070009924939463EF72E0C8010E944F41892B09
:1040800009F05DC06DEA75E083E196E00E94A80E3C
:104090006BE975E083E196E00E945D1166E975E0E9
:1040A00083E196E00E94A80E6CE875E083E196E05B
:1040B0000E94A80E6DE775E083E196E00E94A80ECD
:1040C0006AE775E083E196E00E94A80E6EE675E06F
:1040D00083E196E00E94A80E60E283E196E00E94F0
:1040E000F50B65E675E083E196E00E94A80E63E6B5
:1040F00075E083E196E00E945D1160E575E083E183
:1041000096E00E94A80E809130050E94EC1083E199
:1041100096E00E94F5106EE375E083E196E00E9460
:10412000A80E2AE040E150E060E070E083E196E014
:104130000E948F1083E196E00E94F51036CF911017
:1041400034CF68EC75E083E196E00E94A80E811000
:104150002FCF62EB75E083E196E00E945D1124E6CB
:1041600030E040E550E060ED77E083E00E94B80C7D
:1041700027CE83E196E00E94F5100E94D50C20CE58
:104180000F931F93CF93DF9300D000D000D0CDB713
:10419000DEB7E1EBF6E08FEF9FEFDC0180839183E8
:1041A000A283B3831482359627E0E130F207B1F79A
:1041B0001092B0061C821B821E821D821A821982F6
:1041C00062EC7AE0CE0101960E94FA1409811A810C
:1041D00061E0CE0101960E94AB17C8010F900F90CD
:1041E0000F900F900F900F90DF91CF911F910F9133
:1041F0000C940E108F929F92AF92BF92CF92DF924B
:10420000EF92FF920F931F93CF93DF93CDB7DEB75B
:1042100028970FB6F894DEBF0FBECDBF8C01DB012F
:10422000FA012FB7F8944D915D916D917C91808149
:1042300091812FBFF801C180D280E380F4804A01D0
:104240005B018C189D08AE08BF0827818216910477
:10425000A104B10408F472C0418352836383748360
:10426000880F991F880F991F9683858381E080832B
:1042700080914E01811509F461C01C821B821E824F
:104280001D821A8219826CEB7AE0CE0101967C01C4
:104290000E94FA14C980DA8060E0C7010E94AB175F
:1042A000C6010E940E10F80180858983F1E0023773
:1042B0001F0739F480912A0790912B07892B09F465
:1042C00050C080E28A8380E48B8380E2D82EDC8237
:1042D0001D82B70183E196E00E946911F8014181D6
:1042E0005281638174812AE083E196E00E948F10FD
:1042F0008EE28983F80125813681C90164E670E088
:104300000E942A3D605D6A83EAE0F0E0C901BF01D6
:104310000E942A3D282FCB01BF010E942A3D805DCB
:104320008B83205D2C83DD828DE68E8383E78F83F4
:104330001886B70183E196E00E94511128960FB6C6
:10434000F894DEBF0FBECDBFDF91CF911F910F91CB
:10435000FF90EF90DF90CF90BF90AF909F908F90A5
:1043600008958BE2AFCFCF92DF92EF92FF92CF937F
:10437000DF9300D000D000D0CDB7DEB780912E05FE
:1043800090912F05892BF9F08AE090E00E94D005EA
:104390000E94C4056E5C7F4F8F4F9F4F6B017C0165
:1043A0000E94C4056C157D058E059F0560F4809103
:1043B0002A0790912B070C9731F0E0912E05F09190
:1043C0002F050995EDCF10922D05E0912C05E09376
:1043D000110180E1E89FF0011124E551FE4F86852F
:1043E000978590932F0580932E0589E090E00E9499
:1043F000D0051C821B821E821D821A82198266E6EB
:1044000073E0CE0101960E94FA14E980FA8060E020
:10441000CE0101960E94AB17C7010E940E10609159
:10442000110120E1629FB001112464517E4F83E1AC
:1044300096E00E9469116CE573E083E196E00F90CD
:104440000F900F900F900F900F90DF91CF91FF90F2
:10445000EF90DF90CF900C945D11CF92DF92EF92AE
:10446000FF920F931F93CF93DF93CDB7DEB768977B
:104470000FB6F894DEBF0FBECDBF8CE10E94290BB2
:10448000019791F481E080932D0568960FB6F8941A
:10449000DEBF0FBECDBFDF91CF911F910F91FF9077
:1044A000EF90DF90CF9008951C8A1B8A1E8A1D8A88
:1044B000188E1F8A8E010D5E1F4F68E573E0C801DC
:1044C0000E94FA1480917B017801811581F080911E
:1044D0002B058F5F833008F080E010927B01809382
:1044E0002B0580E00E94500E81E00E94500E10913A
:1044F0002B05113009F46CC0123009F4BBC0111146
:1045000055C080916901811571F010926901809107
:104510002C05811102C080913005815080932C05BB
:1045200081E00E94500E80916001811591F01092FF
:10453000600120912C05809130058150990B28173E
:10454000190611F011E0120F10932C0581E00E9462
:10455000500E80913605811549F11C821B821E8206
:104560001D821A82198268E473E0CE0101960E94CE
:10457000FA1409811A81AE014F5F5F4F60E082E05B
:104580000E946B07C8010E940E10A70161E082E043
:104590000E946B0740912C0580E1489FA0011124E7
:1045A00044515E4F61E086E00E9456078B899C89EA
:1045B00068960FB6F894DEBF0FBECDBFDF91CF91E6
:1045C0001F910F91FF90EF90DF90CF900C940E1001
:1045D00080916901811509F445C0109269018091AB
:1045E0004E0191E0892780934E0180913605811517
:1045F000E9F21C821B821E821D821A82198267E3E5
:1046000073E08E010F5F1F4FC8010E94FA14C9802A
:10461000DA80A80160E082E00E946B07C6010E9478
:104620000E10A70161E082E00E946B0780914E01AD
:1046300063E373E0811102C06FE273E01C821B82AE
:104640001E821D821A821982C8010E94FA14E98012
:10465000FA80A80161E086E00E946B07C7010E9412
:104660000E10A4CF80916001811509F4BECF109285
:104670006001B5CF80916901811539F1109269010E
:1046800080911101898380914E018A83AE014F5F31
:104690005F4F63E080E00E94DD170E94D50C188A0E
:1046A0001F861A8A198A1E861D8667E273E0CE016C
:1046B0000D960E94FA140D851E8561E0CE010D96BF
:1046C0000E94AB17C8010E940E10809160018115F5
:1046D000D1F0109260018BE090E090932B078093D3
:1046E0002A07E091110180E1E89FF0011124E551D2
:1046F000FE4F0684F785E02D09958DE090E09093BC
:104700002B0780932A0780913605811509F44ECF37
:104710001C821B821E821D821A82198266E173E04E
:10472000CE0101960E94FA1409811A81AE014F5FF1
:104730005F4F60E082E00E946B07C8010E940E108C
:104740001C821B821E821D821A82198265E073E020
:10475000CE0101960E94FA1409811A81AE014F5FC1
:104760005F4F61E082E00E946B07C80178CFEF9253
:10477000FF921F93CF93DF9300D000D000D0CDB72E
:10478000DEB7182FE091B006813039F18DEF810F3F
:10479000843018F1EE3008F11C821B821E821D82CB
:1047A0001A8219826DE970E0CE0101960E94FA1416
:1047B000E980FA8061E0CE0101960E94AB17C70143
:1047C0000F900F900F900F900F900F90DF91CF915F
:1047D0001F91FF90EF900C940E1085E0E89FF00180
:1047E0001124EF54F94F4083518362837383148300
:1047F0001C821B821E821D821A82198264E970E06B
:10480000CE0101960E94FA14E980FA8060E0CE01A0
:1048100001960E94AB17C7010E940E10812F0E94C3
:10482000EC106CE870E083E196E00E945D118091ED
:10483000B0068F5F8093B0060F900F900F900F908F
:104840000F900F90DF91CF911F91FF90EF900895FF
:104850004F925F926F927F928F929F92AF92BF9290
:10486000CF92DF92EF92FF920F931F93CF93DF933C
:10487000CDB7DEB766970FB6F894DEBF0FBECDBFDB
:10488000E0912A07F0912B07EC30F10508F0DEC12A
:10489000E45DF94B0C947F3D0E94210B8CE090E08D
:1048A00066960FB6F894DEBF0FBECDBFDF91CF91F5
:1048B0001F910F91FF90EF90DF90CF90BF90AF903E
:1048C0009F908F907F906F905F904F900C94D00549
:1048D00088E395E00E940A1284EA95E00E940A1299
:1048E0008EE695E00E940A120E94210B19821A821C
:1048F0001B821C82AE014F5F5F4F60E081E00E942F
:10490000920F811591F15B814C81298130E0ACE3FC
:10491000B0E00E94E2442A81620F711D811D911D49
:104920009B01A8EEB3E00E94E244609336017093CD
:1049300037018093380190933901252F30E00E9490
:10494000E2446B017C01242F30E0A4E6B0E00E9439
:10495000E244C60ED71EE81EF91EC0923201D09264
:104960003301E0923401F092350124E030E03093DD
:10497000DB052093DA058FE68093E4053093E605A6
:104980002093E5058093EF0580E090E089CF80914A
:104990008401811509F449C0109284010E94480ED7
:1049A0001C821B821E821D821A82198262EB7AE0AF
:1049B000CE0101960E94FA1409811A81CE01019656
:1049C0000E94DA07C8010E940E101C821B821E8200
:1049D0001D821A82198263EA7AE0CE0101960E9452
:1049E000FA1409811A81AE014F5F5F4F62E083E0E4
:1049F0000E946B07C8010E940E101C821B821E823F
:104A00001D821A8219826FE87AE0CE0101960E9417
:104A1000FA1409811A81AE014F5F5F4F63E080E0B5
:104A20000E946B07C8010E940E10809172018115CF
:104A300009F40CC11092720185E090E031CF8091B1
:104A40008401811509F49DC01092840181E0809356
:104A500029070E94480E1C821B821E821D821A8218
:104A6000198269E87AE0CE0101960E94FA14098160
:104A70001A81CE0101960E94DE07C8010E940E1025
:104A80001C821B821E821D821A82198264E77AE0D0
:104A9000CE0101960E94FA1409811A81AE014F5F7E
:104AA0005F4F62E080E00E946B07C8010E940E1019
:104AB0001C821B821E821D821A82198265E67AE0A0
:104AC000CE0101960E94FA1409811A81AE014F5F4E
:104AD0005F4F63E083E00E946B07C8010E940E10E5
:104AE0001092DC051092DD051092DE051092DF05B4
:104AF0001092E0051092E1051092E2051092E30594
:104B00001092E7051092E8051092E9051092EA0567
:104B10001092EB051092EC051092ED051092EE0547
:104B20001092DB051092DA058BE68093E405109273
:104B3000E6051092E5058093EF0560EE75E08CEDDB
:104B400095E00E94370680E20E94DF0D40913C050F
:104B500050E066E672E08EE595E00E9434414091B7
:104B6000A80550E062E271E08AEC95E00E943441D1
:104B70004091720550E062E171E084E995E00E94A5
:104B8000344180912907811581F10E94C405AB0150
:104B9000BC018091320190913301A0913401B09118
:104BA000350100912C0710912D0720912E0730918F
:104BB0002F07800F911FA21FB31F84179507A60709
:104BC000B70798F4109229071091E405612F88E344
:104BD00095E00E945C0E612F84EA95E00E945C0ED5
:104BE000612F8EE695E00E945C0E80917201811526
:104BF00019F010927201C8CE80916901811529F0D7
:104C00001092690188E090E04BCE8DE10E94290B63
:104C1000892BC1F380916001811519F01092600118
:104C2000F1CF8EE10E94290B892B61F3809157010E
:104C3000811519F010925701E5CF8FE10E94290BE1
:104C4000892B01F380917B01811117C066960FB605
:104C5000F894DEBF0FBECDBFDF91CF911F910F91B2
:104C6000FF90EF90DF90CF90BF90AF909F908F908C
:104C70007F906F905F904F90089510927B010E94FB
:104C8000F4051C821B821E821D821A82198267E52E
:104C90007AE0CE0101960E94FA1409811A8161E03E
:104CA000CE0101960E941911C8010E940E100E94A7
:104CB000C02040917C0150917D0160917E017091F6
:104CC0007F0181E00E94B72380917C0190917D015A
:104CD000A0917E01B0917F018093DC059093DD056A
:104CE000A093DE05B093DF058093E7059093E80578
:104CF000A093E905B093EA0521E030E03093DB05AD
:104D00002093DA0588E68093E4053093E605209346
:104D1000E5058093EF0582E090E0C2CD80918401AB
:104D20008115C1F0109284011C821B821E821D829B
:104D30001A82198269E47AE0CE0101960E94FA147F
:104D400009811A8161E0CE0101960E941911C80102
:104D50000E940E108091720181114BCF8DE10E9453
:104D6000290B892B09F0A2C085E090E09093DB0528
:104D70008093DA05805A9D4FFC0180818093E40581
:104D80008EE10E94290B892B09F093C085E090E009
:104D90009093E6058093E505805A9D4FFC01808144
:104DA0008093EF058FE10E94290B8C018091DA0539
:104DB0009091DB05059709F07FC01C821B821E8243
:104DC0001D821A82198263E47AE0CE0101960E9464
:104DD000FA14E980FA80BE016F5F7F4F84EA95E0A4
:104DE0000E949C05C7010E940E108091E5059091DC
:104DF000E605059709F065C01C821B821E821D8294
:104E00001A8219826DE37AE0CE0101960E94FA14AB
:104E1000E980FA80BE016F5F7F4F8EE695E00E94C9
:104E20009C05C7010E940E108091DA059091DB0568
:104E30002091E5053091E605822B932B1C821B8285
:104E40001E821D821A821982892B09F03FC001152A
:104E5000110509F43BC062E37AE0CE0101960E949D
:104E6000FA1409811A8161E0CE0101960E9419119C
:104E7000C8010E940E1088E395E00E940A128091FA
:104E80006901811110926901809160018111109274
:104E9000600180917B01811110927B01809157010B
:104EA00081111092570181E090E0FACC80E090E00F
:104EB0005DCF80E090E06CCF84EA95E00E940A121A
:104EC00094CF8EE695E00E940A12AECF6CE27AE0B3
:104ED000CE0101960E94FA14E980FA80BE016F5F4C
:104EE0007F4F88E395E00E949C05C7010E940E1049
:104EF00082E00E94500E1C821B821E821D821A823A
:104F000019826DE17AE0CE0101960E94FA14E980DF
:104F1000FA80AE014F5F5F4F62E080E00E946B0756
:104F2000C7010E940E10E3E1012B21F48DE4809370
:104F30006B07E2E18091E5059091E605059741F464
:104F4000AE2FB0E0A05DB84F80E598968C93E1500D
:104F50008091DA059091DB05059729F4F0E0E05D9A
:104F6000F84F8CE480A780913705811509F46ECE47
:104F700024E630E040E550E060ED77E083E06696BF
:104F80000FB6F894DEBF0FBECDBFDF91CF911F915A
:104F90000F91FF90EF90DF90CF90BF90AF909F90D8
:104FA0008F907F906F905F904F900C94B80C809191
:104FB00084018115C9F0109284010E94480E1C8260
:104FC0001B821E821D821A82198267E17AE0CE015D
:104FD00001960E94FA1409811A81CE0101960E945D
:104FE000E207C8010E940E108091DA059091DB055E
:104FF000019709F073C080916901811509F46EC0B1
:105000001092690140916A0150916B0160916C01AD
:1050100070916D014093E0055093E1056093E205C6
:105020007093E30582E090E09093DB058093DA05CE
:105030008BE68093E40583E00E94B72361E08FE074
:105040000E94930A60EE75E08CED95E00E943706B1
:1050500080E20E94DF0D6091E40584EA95E00E9401
:105060005C0E8AE3809341014AE351E062E086E00E
:105070000E9456071C821B821E821D821A82198280
:105080006BE579E0CE0101960E94FA1409811A813C
:10509000AE014F5F5F4F62E080E00E946B07C80186
:1050A0000E940E101C821B821E821D821A8219828F
:1050B00060E579E0CE0101960E94FA1409811A8117
:1050C00060E0CE0101960E941911C8010E940E10E5
:1050D0006AE371E083E196E00E9451118091E50559
:1050E0009091E605019709F073C0809160018115E8
:1050F00009F46EC01092600140916101509162010B
:1051000060916301709164014093EB055093EC054D
:105110006093ED057093EE0582E090E09093E605D4
:105120008093E5058BE68093EF0584E00E94B7232A
:1051300061E082E10E94930A6BEE75E087EE95E0F4
:105140000E94370680E20E94DF0D6091EF058EE637
:1051500095E00E945C0E8AE3809341014AE351E0AE
:1051600063E086E00E9456071C821B821E821D821D
:105170001A8219826CE679E0CE0101960E94FA1437
:1051800009811A81AE014F5F5F4F63E080E00E94AA
:105190006B07C8010E940E101C821B821E821D829A
:1051A0001A82198260E679E0CE0101960E94FA1413
:1051B00009811A8160E0CE0101960E941911C8018F
:1051C0000E940E106AE371E083E196E00E945111A3
:1051D0008091DA059091DB05029709F048C0809133
:1051E000E5059091E605029709F041C01C821B82FB
:1051F0001E821D821A82198262E779E0CE01019631
:105200000E94FA1409811A81CE0101960E94DE07DC
:10521000C8010E940E108091EB059091EC05A091C1
:10522000ED05B091EE054091E0055091E1056091EA
:10523000E2057091E305481759076A077B0790F468
:105240006BEE75E087EE95E00E94370680E20E94E3
:10525000DF0D6091E40588E395E00E945C0E84E038
:1052600090E01ECB60EE75E08CED95E0EDCF1091F7
:105270003605111509F443C00E94C40569837A8379
:105280008B839C83BE016F5F7F4F87EE95E00E940A
:10529000370680E20E94DF0D8091E5059091E605DA
:1052A000019799F41091EF05612F8EE695E00E9429
:1052B0005C0E612F88E395E00E945C0E4AE351E0AA
:1052C00063E086E00E94560710E08091DA05909135
:1052D000DB050197A1F40091E405602F84EA95E0D5
:1052E0000E945C0E111559F0602F88E395E00E9432
:1052F0005C0E4AE351E062E086E00E94560780912E
:1053000057018115D9F1109257011C821B821E8210
:105310001D821A8219826FE07AE0CE0101960E9406
:10532000FA1409811A8161E0CE0101960E941911D7
:10533000C8010E940E10409158015091590160918E
:105340005A0170915B0182E00E94B72368E571E029
:1053500087EE95E00E94370680E20E94DF0D8AE327
:10536000809341014AE351E061E086E00E945607E4
:1053700048EF52E061E080E00E94560780917201A0
:10538000811509F463CC109272011C821B821E826B
:105390001D821A82198260E07AE0CE0101960E9495
:1053A000FA1409811A8161E0CE0101960E94191157
:1053B000C8010E940E1040917301509174016091D8
:1053C00075017091760186E00E94B7231C821B82D2
:1053D0001E821D821A82198263EF79E0CE01019646
:1053E0000E94FA1409811A81CE0101960E94DE07FB
:1053F000C8010E940E1022E030E03093DB052093BC
:10540000DA058BE68093E4053093E6052093E50505
:105410008093EF0524CF809184018115D1F0109203
:1054200084011C821B821E821D821A82198264EEF4
:1054300079E0CE0101960E94FA1409811A8161E097
:10544000CE0101960E941911C8010E940E100E94FF
:10545000F51280917201811509F4F8CB1092720156
:105460000E94210B91CA80918401811509F49DC08D
:105470001092840181E0809329071092DC0510923C
:10548000DD051092DE051092DF05809136019091C6
:105490003701A0913801B09139018093E0059093D4
:1054A000E105A093E205B093E3051092DB051092AD
:1054B000DA058BE68093E4051092E6051092E50587
:1054C0008093EF0560EE75E08CED95E00E94370665
:1054D00080E20E94DF0D109244010E94480E1C825F
:1054E0001B821E821D821A8219826CED79E0CE0128
:1054F00001960E94FA1409811A81CE0101960E9438
:10550000DE07C8010E940E104AE351E062E08AE023
:105510000E9456071C821B821E821D821A821982DB
:105520006DEC79E0CE0101960E94FA1409811A818E
:10553000AE014F5F5F4F62E080E00E946B07C801E1
:105540000E940E101C821B821E821D821A821982EA
:1055500068EB79E0CE0101960E94FA1409811A8164
:10556000AE014F5F5F4F63E080E00E946B07C801B0
:105570000E940E1087E0E9E0F3E0DE011196019051
:105580000D928A95E1F787E0FE013196A4E9B5E036
:1055900001900D928A95E1F787E0FE013196AEE524
:1055A000B5E001900D928A95E1F780912907811568
:1055B00009F10E94C405AB01BC01809132019091B8
:1055C0003301A0913401B091350100912C07109165
:1055D0002D0720912E0730912F07800F911FA21FBA
:1055E000B31F481759076A077B0720F01092290755
:1055F0000E94121280916901811541F11092690196
:105600008091360190913701A0913801B091390114
:105610008133F5E79F07A105B10508F459C0805310
:105620009547A109B1098093360190933701A09362
:105630003801B093390181E08093840110922C07E6
:1056400010922D0710922E0710922F078091600163
:10565000811561F1109260018091360190913701BE
:10566000A0913801B0913901813922EB920728E0ED
:10567000A207B10520F080E992EBA8E0B0E0805DE0
:105680009A48AF4FBF4F8093360190933701A09354
:105690003801B093390181E08093840110922C0786
:1056A00010922D0710922E0710922F0780917B01E8
:1056B000811531F010927B0186E090E00E94D005C8
:1056C00080917201811509F4C1CA10927201EBCB6D
:1056D00080E395E7A0E0B0E0A6CF8091840181153A
:1056E00009F45BC00E94F405109284011C821B82A5
:1056F0001E821D821A82198268EA79E0CE01019623
:105700000E94FA1409811A8161E0CE0101960E947B
:105710001911C8010E940E100E94480E1C821B82A3
:105720001E821D821A82198260EA79E0CE010196FA
:105730000E94FA1409811A81CE0101960E94E207A3
:10574000C8010E940E1081E090E09093E6058093DE
:10575000E50588E68093EF050E94C405462F572F84
:10576000BC014093E7055093E8056093E905709309
:10577000EA058091E0059091E105A091E205B091E4
:10578000E305840F951FA61FB71F8093EB05909329
:10579000EC05A093ED05B093EE05809172018115A3
:1057A000D9F0109272011C821B821E821D821A8205
:1057B000198260E979E0CE0101960E94FA1409810C
:1057C0001A8161E0CE0101960E941911C8010E9460
:1057D0000E100E94D50C67CB80913605811509F417
:1057E00035CA0E94C405462F572FBC014093E705D8
:1057F0005093E8056093E9057093EA058091EB0505
:105800009091EC05A091ED05B091EE0584179507F8
:10581000A607B707C0F066960FB6F894DEBF0FBEB6
:10582000CDBFDF91CF911F910F91FF90EF90DF904F
:10583000CF90BF90AF909F908F907F906F905F9030
:105840004F900C9412121C821B821E821D821A829F
:10585000198260E879E0CE0101960E94FA1409816C
:105860001A8161E0CE0101960E941911C8010E94BF
:105870000E1081E090E00E94D00520E030E040ED85
:1058800057E068EC70E081E07ACBC0903601D090B0
:105890003701E0903801F090390160913201709148
:1058A0003301809134019091350128EE822E23E05E
:1058B000922EA12CB12CA50194010E943E3D2901FC
:1058C0003A016B8B7C8B8D8B9E8BC701B60120E6DA
:1058D0003AEE40E050E00E943E3D2983C701B60108
:1058E000A50194010E943E3D6CE3862E912CA12CD3
:1058F000B12CCA01B901A50194010E943E3D6A8301
:10590000C301B201A50194010E943E3D6B836B89E6
:105910007C898D899E8924E630E040E050E00E9439
:105920003E3D2C83AE014F5F5F4F60E081E00E94FF
:10593000DD17811509F48AC90E94D50C188A1F86C3
:105940001A8A198A1E861D8660E073E0CE010D96C4
:105950000E9456100D851E8561E0CE010D960E94B5
:105960001911C80166960FB6F894DEBF0FBECDBF01
:10597000DF91CF911F910F91FF90EF90DF90CF902B
:10598000BF90AF909F908F907F906F905F904F905F
:105990000C940E100F931F93CF93DF9300D000D081
:1059A00000D0CDB7DEB780912A0790912B078430C5
:1059B000910509F497C2B0F48130910509F4AFC0A4
:1059C0008230910509F472C1892B09F450C00F90FF
:1059D0000F900F900F900F900F90DF91CF911F912C
:1059E0000F9108958930910581F00A9781F78CE035
:1059F00090E00F900F900F900F900F900F90DF910D
:105A0000CF911F910F910C94D00588E395E00E94EF
:105A10000A1284EA95E00E940A128EE695E00E943E
:105A20000A120E94210B40913C0550E066E672E0AC
:105A30008EE595E00E9434414091720550E062E1AC
:105A400071E084E995E00E94344124E030E0309335
:105A5000DB052093DA058FE68093E4053093E605B5
:105A60002093E5058093EF0580E090E0C2CF809120
:105A70008401811509F449C0109284010E94480EE6
:105A80001C821B821E821D821A82198265E479E0C3
:105A9000CE0101960E94FA1409811A81CE01019665
:105AA0000E94DA07C8010E940E101C821B821E820F
:105AB0001D821A82198266E379E0CE0101960E9466
:105AC000FA1409811A81AE014F5F5F4F62E083E0F3
:105AD0000E946B07C8010E940E101C821B821E824E
