:100000000C9478050C94A2050C94A2050C94A205FE
:100010000C949A340C94A2050C94A2050C94A2059D
:100020000C94A2050C94F5350C94A2050C94A20531
:100030000C94A2050C9440330C94A2050C94A205D8
:100040000C94A2050C94A2050C9405350C94A20501
:100050000C944D350C9477350C94A2050C94A205A4
:100060000C94A2050C94A2050C946F330C94A20579
:100070000C94A1350C94CB350C94A2050C94A205DC
:100080000C94A2050C94A2050C94A20520756C6F2B
:100090007A656E004C6F672074797023004E617032
:1000A0006C6E656E6F206D6178207A617A6E616D1D
:1000B000752E204E45554C4F5A454E4F003D3D3D07
:1000C000204B6F6E6563207A617A6E616D75203D9D
:1000D0003D3D0A004361733A20202020202020006B
:1000E000446174756D3A2020202020002D2D2D2D87
:1000F0002D2D2D2D2D2D2D2D2D2D2D2D2D2D2D2D30
:100100002D005679736C6564656B3A20204E45521C
:100110004F5A484F444E4500526F7A64696C3A20FA
:1001200020202000566974657A3A20202020205033
:100130005241564120445241484100526F7A64690D
:100140006C3A2020202000566974657A3A202020DD
:1001500020204C4556412044524148410050726194
:100160007679206361733A20004C6576792063616B
:10017000733A2020002D2D2D20536F7568726E204C
:100180007A61766F6475202D2D2D005245534554AC
:100190000043494C0043494C2050524156412044B1
:1001A000524148410043494C204C4556412044525D
:1001B000414841004D455A4943415300535441522F
:1001C00054000A3D3D3D205A617A6E616D207A618E
:1001D000766F6475203D3D3D001209120912091227
:1001E0000009120912091209000000120912000088
:1001F00000000009120900000000001E0F1E000090
:100200000000000F1E0F000000181C1E1F1E1C18EF
:10021000004368796261206B6F6E66696775726111
:10022000636520646973706C656A65203200436899
:10023000796261206B6F6E666967757261636520B4
:10024000646973706C656A652031004B6F6E666916
:1002500067757261636520646973706C656A7500A7
:10026000525443206E6572656167756A6500537408
:100270006172742000533E4D6F7A6E6F7374692003
:100280004C2F503E566F6C6261000200002000232C
:1002900000260029000000000203000A0B000000F5
:1002A0000005040908000000000000000000000034
:1002B000000000000000002200250028002B0000A4
:1002C000002100240027002A00020202020202028A
:1002D00002040404040404040403030303030303E7
:1002E0000301010101010101010102040810204084
:1002F0008001020408102040800102040810204000
:100300008001020408102040801F1C1F1E1F1E1F9A
:100310001F1E1F1E53797374656D003E20004C3EF6
:1003200053797374656D20503E4D6F64756C005544
:100330006C6F7A6974206E6173746176656E6900A2
:10034000556C6F7A656E6F00567970005A61700057
:100350005A6F6272617A206361732070756C7A756E
:1003600000507265706E757469206D6F64756C7580
:10037000002D2D3E002720616B7469766E69004D5B
:100380006F64756C202700202068656C7020202029
:10039000202020202020202020202020202020205D
:1003A00020202D207461746F206E61706F766564FB
:1003B00061002020696E666F2020202020202020F0
:1003C000202020202020202020202020202D207AC6
:1003D0006F6272617A69207564616A65206F206856
:1003E000617264776172652F6669726D776172659B
:1003F00000202070657266203C317C303E20202039
:100400002020202020202020202020202D207A6144
:10041000702F767970207A6F6272617A6F76616E72
:100420006920727963686C6F7374692070726F678A
:1004300072616D7500202072746320595959592DCD
:100440004D4D2D44442048483A4D4D3A53532020B9
:100450002D206E617374617669206361732076204C
:1004600052544300202064656C203C6D3E203C6B60
:100470003E20202020202020202020202020202D51
:1004800020736D617A65207A617A6E616D203C6DB2
:100490006F64756C3E203C6B6C69633E002020737A
:1004A0006574203C6D3E203C6B3E2048205B2C4810
:1004B0002C482E2E2E5D20202D206E6173746176C7
:1004C000692070726F203C6D6F64756C3E203C6BD0
:1004D0006C69633E20617A20313220686F646E6FF0
:1004E0007420302D323535002020736574203C6D2A
:1004F0003E203C6B3E202274657874222020202010
:100500002020202D206E6173746176692070726FD7
:10051000203C6D6F64756C3E203C6B6C69633E20C3
:10052000617A203132207A6E616B750020206C690F
:100530007374205B6D5D205B6B5D2020202020208C
:10054000202020202020202D2076797069736520BE
:100550007A617A6E616D792028767365207C206AD5
:100560006564656E206D6F64756C207C206A656EB5
:10057000206D6F64756C2B6B6C6963000A50726937
:100580006B617A793A00202020204C6F67207A61D5
:100590007A6E616D753A200020202020506F6365CF
:1005A00074206D6F64756C753A2000290031393AFA
:1005B00035393A34340041756720323720323032D1
:1005C00035002028002B7635302D323058342D3030
:1005D0007832372D72746300524D5320302E3374AD
:1005E000320046573A200053616B756C2053746F8C
:1005F000706B792076352E300048573A2000205A0B
:100600006164656A202768656C70272E00436879ED
:1006100062612E004E657A6E616D79207072696B31
:10062000617A2E004361732076205254433A2000B1
:100630004E656E616C657A656E6F2E20005A617A28
:100640006E616D20736D617A616E2E004368796210
:10065000612E2028486F646E6F7479207072657304
:1006600020746578743F290043687962612E2028E0
:1006700054657874207072657320686F646E6F744F
:10068000793F29004F4B2E205465787420756C6F8C
:100690007A656E2E00436879626E79207673747580
:1006A000702E004E616C657A656E6F3A20002D2DBC
:1006B0002D2D2D2D2D2D2D2D2D2D2D2D2D002020B1
:1006C000000020002020000020002020000020004A
:1006D0002D2D2D2D2D2D2D2D2D2D2D2D2D2D2D0077
:1006E0004D6F64756C204B6C6963204461746100CC
:1006F0005072696A61746F2027002D2D35352D2DBC
:1007000020005465726D696E616C3A202768656CD3
:1007100070270053657269616C2031313532303099
:100720002F382F31626974004E6173746176656E83
:1007300069004A6520746F20616C65206A656E20CF
:1007400064656D6F206120646F2070616D657469F0
:10075000206E657A61706973756A652E0044656DF7
:100760006F20646F7374616C6F20706F6B796E2093
:10077000756C6F7A697420737665206E617374612D
:1007800076656E692E0053746F706B7900557074C6
:10079000696D650044656D6F005B2020202020207E
:1007A00032377833376D733D3939396D73202020F6
:1007B0002020205D2020202043617320707269205A
:1007C000277C27002D2D3E207465726D696E616C4B
:1007D0000044656D6F0044656D6F206B6F6E6369DB
:1007E00000484F44494E59005A61646F7374206F3A
:1007F000207679706973005A727573656E6F004D5B
:100800006572656E69207A727573656E6F004D65ED
:100810007A69636173004C2F503E556B6F6E63694C
:100820002020523E5A72757369740053746F706B56
:10083000790053746F706B79207370757374656E83
:1008400079005265736574203E205A7061746B792B
:10085000005374617274203E205A6168616A692095
:100860007A61766F640053544F504B5900446C6F5B
:10087000757A65205265736574203E204D656E75EE
:10088000005265736574203E2046756E6B6365008B
:1008900053544F504B5920532D4C5000556B6F6E95
:1008A00063656E6F00556B6F6E63656E6F005A61A6
:1008B000646F7374206F207679706973005A727553
:1008C00073656E6F004D6572656E69207A7275731F
:1008D000656E6F004D657A6963617300533E556BB9
:1008E0006F6E636920202020523E5A7275736974BE
:1008F0000053746F706B790053746F706B79207351
:1009000070757374656E79005265736574203E204E
:100910005A7061746B79005374617274203E205A6E
:100920006168616A69207A61766F640053544F5040
:100930004B5900446C6F757A65205265736574205D
:100940003E204D656E75005265736574203E2046ED
:10095000756E6B63650053544F504B5920532D53A4
:10096000004C657661206472616861004C65766157
:10097000005072617661206472616861005072613A
:100980007661005A61766F6420736B6F6E63696C79
:10099000004F64706F63657420736B6F6E63696C76
:1009A000005A727573656E69206F64706F63747539
:1009B000004F64706F636574005A6168616A656EA8
:1009C000206F64706F6365740052657365743E20B8
:1009D0004D6572656E69207A61766F647500537437
:1009E0006172743E205A6168616A6974004F4450B4
:1009F0004F434554005A61646F7374206F207679B9
:100A0000706973005A61766F64207A727573656ECF
:100A1000004D6572656E69207A727573656E6F0040
:100A20004D657A69636173005A61766F640043486B
:100A30005942412053454E5A4F52553A00202D45B8
:100A40002D20004B6F6E63616B79204F4B00202D82
:100A5000452D2000202D452D20004348594241209E
:100A60006B6F6E63616B75005A61766F64207A619B
:100A700068616A656E005265736574203E205A7025
:100A800061746B79005374617274203E205A6168FE
:100A9000616A69207A61766F64005A41564F44005A
:100AA000446C6F757A65205265736574203E204DE5
:100AB000656E75005265736574203E2046756E6BD9
:100AC00063650053544F504B592048550050756C86
:100AD0007A20004C6F672070726970726176656E63
:100AE00000454550524F4D20706C6E612100023D13
:100AF00011241FBECFEFD0E4DEBFCDBF13E0A0E0D6
:100B0000B1E0ECE6F3E900E00BBF02C007900D9204
:100B1000A433B107D9F727E0A4E3B3E001C01D92E5
:100B2000AD37B207E1F715E0C8E7D5E004C021977B
:100B3000FE010E94223EC737D107C9F70E945536F1
:100B40000C9498490C940000CF93DF93FC01DB01D7
:100B50005481369614968C9114978150990B40E0ED
:100B6000541303C0DF91CF91089514962D913C91B9
:100B700015978217930770F42D913C9111972115C9
:100B8000310541F0280F391FE901288121934F5F7A
:100B90000197E6CF20E0FACF2FB7F89460911E07B7
:100BA00070911F0780912007909121072FBF089512
:100BB000CF93DF93D82FC92F0E94CC0560932507D0
:100BC000709326078093270790932807D0932307D5
:100BD000C093240781E080937D0110922207109238
:100BE000740110926B0110926201109259011092DF
:100BF0005001DF91CF9108958FB7F89410921D079F
:100C000010921C0710921B079DE090934F011092C9
:100C10001A078FBF08954F925F926F927F92AF92A3
:100C2000BF92CF92DF92EF92FF920F931F93CF93D9
:100C3000DF93FB01C080D180E280F380FC018081E2
:100C40009181A281B381C81AD90AEA0AFB0AC701B5
:100C5000B60128EE33E040E050E00E94E13D8B0118
:100C6000C9E0D7E07D836C838CE3482E512C612C46
:100C7000712CCA01B901A30192010E94E13DB62E77
:100C80006B83CA01B901A30192010E94E13DA62E26
:100C90006A83C701B60120E83EEE46E350E00E94B9
:100CA000E13DF90139832883C90168EE73E00E94B0
:100CB000CD3D6E8394E6E92EF12CCF01B7010E9461
:100CC000CD3DCB012AE030E0B9010E94CD3D8F83BC
:100CD000CF01B9010E94CD3D482FCB01B9010E943F
:100CE000CD3D888749874AE08A2D642F0E94C13D07
:100CF0008A879B878B2D0E94C13D8C879D87C80169
:100D0000B7010E94CD3D6E87C801B9010E94CD3D5B
:100D1000482FCB01B9010E94CD3D8F87488BDF91D1
:100D2000CF911F910F91FF90EF90DF90CF90BF90E8
:100D3000AF907F906F905F904F90089580911E07C5
:100D400090911F07A0912007B091210780930B0677
:100D500090930C06A0930D06B0930E06809184002C
:100D60009091850090930A068093090681E0809314
:100D70000806089580911E0790911F07A0912007F3
:100D8000B09121078093040690930506A093060670
:100D9000B09307068091840090918500909303069C
:100DA0008093020681E080930106089580911E07DA
:100DB00090911F07A0912007B09121078093FD0516
:100DC0009093FE05A093FF05B093000680918400E8
:100DD000909185009093FC058093FB0581E08093C2
:100DE000FA05089580911E0790911F07A091200792
:100DF000B09121078093F6059093F705A093F8052D
:100E0000B093F90580918400909185009093F50549
:100E10008093F40581E08093F305089580911E0787
:100E200090911F07A0912007B09121078093EF05B3
:100E30009093F005A093F105B093F20580918400A2
:100E4000909185009093EE058093ED0581E080936D
:100E5000EC050895FA0190E024E1629FB0011124AD
:100E60002191211519F08431910509F40895DC01CF
:100E7000A60FB71FA75DB84F2C930196F1CFCF9364
:100E8000DF93DA0114962C91149794E1981B29179B
:100E900008F4922FE82FF0E084E1689FE00DF11D47
:100EA0001124E75DF84F20E030E0291718F0DF91BA
:100EB000CF91089514964D915C911597241735079D
:100EC00070F44D915C9111974115510541F0420F1D
:100ED000531FEA01888181932F5F3F4FE6CF80E067
:100EE000FACF0F931F93CF93DF938C01C42F062E5D
:100EF000000C770B4AE050E089E297E00E949244B0
:100F00006C2FCC0F770B4AE050E083E397E00E9410
:100F10009244D80114968D919C91C4E1D0E0C81BF5
:100F2000D90BD695C795C43128F4A80160E08C2F61
:100F30000E943F07DD27FE01E85DF84F80E28083D5
:100F4000D8011496ED91FC91E75DF84FEC0FFD1F71
:100F50008083DF91CF911F910F91089542E061E06E
:100F60000C94710744E063E00C94710746E065E07F
:100F70000C94710780E090E0089508950895089515
:100F8000DC01ED91FC910684F785E02D40E00994A9
:100F9000DC01ED91FC910684F785E02D41E0099597
:100FA00081E090E00895DC0181E001C0880F6A953E
:100FB000EAF71C968C931C971A965C934E9319979C
:100FC000ED91FC9111970484F585E02D60E0CD0151
:100FD00009948091F6049091F504891B990B08956A
:100FE0009091F5048091F6042FEF3FEF981748F4A5
:100FF000E92FF0E0EB52FB4F208130E09F5F9093B0
:10100000F504C9010895E091F5048091F604E8170C
:1010100030F4F0E0EB52FB4F808190E008958FEFC9
:101020009FEF08950895089508952091D404260F00
:101030003327331F21323105ECF42091D304FC0116
:1010400080E090E0243069F082E00895A091D4041B
:101050002191AC014D545B4FA40FB52FB11D2C93C2
:101060000196861798F38091D404680F6093D40496
:1010700080E0089581E00895CF93DF930F92CDB77C
:10108000DEB7FC01698380911A058115F1F080912A
:101090001705803250F081E090E09383828380E0F6
:1010A00090E00F90DF91CF91089580911805E82F7F
:1010B000F0E0E950FB4F998190838F5F8093180592
:1010C0008093170581E090E0ECCF61E0CE010196BE
:1010D0000E941508F7CFCF92DF92EF92FF920F9305
:1010E0001F93CF93DF937C01CB018A0120911A05D6
:1010F0002115D9F0EB016B01C40ED51ECC15DD0511
:1011000051F4C801DF91CF911F910F91FF90EF90A3
:10111000DF90CF9008956991D701ED91FC910190F6
:10112000F081E02DC7010995E9CF642F0E941508D1
:10113000E8CF85ED8093BC008091BC0084FDFCCF9E
:101140001092D30408959C0150E0E9E0F3E081E0BF
:101150008617F8F0633038F0C90183709927892B1E
:1011600011F44F5F5F4FC901039696958795969549
:101170008795EDE6F1E02E9FB0012F9F700D3E9F09
:10118000700D112461507109860F971F840F951FF0
:1011900008959491490F511D8F5F3196D9CF1F93B8
:1011A000CF93DF93DC0152968D919C9153970097DA
:1011B00051F421E030E013963C932E931297DF9187
:1011C000CF911F9108951D96ED91FC911E971C964D
:1011D0002C911C97322F30957FB754964C91549791
:1011E000142F127041FD21C0F894408143234083A5
:1011F000EC012197F1F748E0508160FF1BC0522BB2
:101200005083EC012197F1F766954A95A9F7808103
:10121000111591F0832380837FBF52968D919C910D
:101220000197F1F781E090E0CACF6095F894408192
:10123000422BDDCF5323E4CF822BEDCF8FEF9FEFF7
:10124000089580E090E0089508953FB7F894809164
:10125000740490917504A0917604B091770426B53A
:10126000A89B05C02F3F19F00196A11DB11D3FBFDE
:10127000BA2FA92F982F8827BC01CD01620F711DAD
:10128000811D911D42E0660F771F881F991F4A95A7
:10129000D1F708954F925F926F927F928F929F92B3
:1012A000AF92BF92CF92DF92EF92FF920F931F9374
:1012B000CF93DF938B01D82FC92F0E942509262FAA
:1012C000822E972E5C016801ED2EFC2E05C0C11404
:1012D000D104E104F10409F10E9425092B013C012C
:1012E000481859086A087B088601DE2DCF2D31E0A9
:1012F000C31AD108E108F108282D792DC50138EE6F
:10130000830E33E0931EA11CB11C38EE431633E06C
:10131000530661047104D8F6D3CFDF91CF911F91AA
:101320000F91FF90EF90DF90CF90BF90AF909F9084
:101330008F907F906F905F904F9008959C010197E0
:1013400041F0220F331F220F331FC9010597019768
:10135000F1F70895CF93DF93EC01423018F08C81C0
:1013600088608C834F836887211529F0413019F4F8
:101370008C8184608C8364E670E080E090E00E9461
:101380004A096C8164FD5BC0E881F9810684F785B8
:10139000E02D42E063E0CE01099584E991E10E94ED
:1013A0009E09E881F9810684F785E02D42E063E03B
:1013B000CE01099586E990E00E949E09E881F981B5
:1013C0000684F785E02D42E063E0CE01099586E9C9
:1013D00090E00E949E09E881F9810684F785E02D5E
:1013E00042E062E0CE01099586E990E00E949E0904
:1013F0006C816062CE010E94C0078CE390E00E9485
:101400009E0984E08D836CE0CE010E94C00761E0FC
:10141000CE010E94C00780ED97E00E949E0982E005
:101420008E8366E0CE010E94C007E881F9810484C2
:10143000F585E02D6FEFCE01DF91CF9109946062C9
:10144000CE010E94C00784E991E10E949E096C814F
:101450006062CE010E94C00786E990E00E949E096A
:101460006C816062CE010E94C007BECFCF93DF9334
:1014700090E0FC01E751FD4F249187539D4FFC0103
:1014800084918115D1F090E0880F991FFC01E154FF
:10149000FD4FA591B591FC01EB54FD4FC591D59140
:1014A0009FB7623069F4F8943C91822F8095832332
:1014B0008C938881822B88839FBFDF91CF91089581
:1014C000F8948C91822B8C93F7CF82508A3038F528
:1014D000E82FF0E0E056F64B0C94223E809180001D
:1014E0008F77809380000895809180008F7DF9CF61
:1014F0008091B0008F778093B00008958091B00004
:101500008F7DF9CF809190008F7780939000089520
:10151000809190008F7DF9CF84B58F7784BD089539
:1015200084B58F7DFBCF1F93CF93DF93162F282F8A
:1015300030E0F901EB56FD4F8491F901E751FD4F81
:10154000D491F901E753FD4FC491C115A1F0811168
:101550000E94650AEC2FF0E0EE0FFF1FEB54FD4FE9
:10156000A591B5919FB7F8948C91111108C0D095B1
:10157000D823DC939FBFDF91CF911F9108958D2BCE
:101580008C93F8CFDF92EF92FF920F931F93CF933C
:10159000DF938C01D62ED0E0F8018481D81740F07B
:1015A000DF91CF911F910F91FF90EF90DF90089501
:1015B0007801ED0EF11CF701C68186898C1302C0FB
:1015C000D114E9F19EE0C534C9F07CF4C03219F0C1
:1015D00024F4C11108C090E011C080ED8C0F91ED92
:1015E0009C0F8A3058F09FE009C09CE0C03531F074
:1015F0009DE0C53519F09BE0CC34A9F7F801A08136
:10160000B18162818381680F6D0F9295907F690F20
:10161000ED91FC9111970190F081E02DCD0109959C
:10162000D1110AC0F8018581811531F061E0C03225
:1016300009F460E00E94930AF7018681868BDF5FE0
:10164000ABCF60E08FE00E94930A60E082E10C94EF
:10165000930ACF93DF93282F30E0F901EB56FD4F2B
:101660008491F901E751FD4FD491F901E753FD4F02
:10167000C491C11581F081110E94650AEC2FF0E040
:10168000EE0FFF1FE557FD4FA591B591EC91ED23AE
:1016900081E0E11101C080E090E0DF91CF910895F9
:1016A000FC01A48DA80FB92FB11DA35ABF4F2C91D7
:1016B000848D90E001968F739927848FA689B789CE
:1016C0002C93A089B1898C91837080648C93938DC5
:1016D000848D981306C00288F389E02D80818F7D68
:1016E00080830895FC01818D228D90E0805C9F4F66
:1016F000821B91098F73992708958FE096E00E94CD
:10170000720B9C0181E0232B09F480E0089587EDA2
:1017100093E00E94720B9C0181E0232B09F480E08E
:10172000089580E090E0892B29F00E947D0B8111C3
:101730000E94000080E090E0892B29F00E94870B36
:1017400081110C9400000895FC01918D828D9817F1
:1017500031F0828DE80FF11D858D90E008958FEFB7
:101760009FEF0895FC01918D828D981761F0A28DF5
:10177000AE0FBF2FB11D5D968C91928D9F5F9F73B1
:10178000928F90E008958FEF9FEF0895FC01538DA5
:10179000448D842F90E0252F30E0821B930B54174B
:1017A00010F0CF96089501970895CF93DF93EC0141
:1017B000888D81110FC0DF91CF9108950FB607FC7E
:1017C0000DC08C9185FF0AC0808185FF07C0CE01C6
:1017D0000E94500BAA89BB89E889F9898C9185FD03
:1017E000EDCF808186FFEACFE6CFEF92FF920F9395
:1017F0001F93CF93DF93EC01F62E81E0888F9B8DB2
:101800008C8D98131AC0E889F989808185FF15C0ED
:101810009FB7F894EE89FF896083E889F989808110
:101820008370806480839FBF81E090E0DF91CF91DF
:101830001F910F91FF90EF9008950B8D10E00F5FB7
:101840001F4F0F731127E02E8C8D8E1579F0EB8DC5
:10185000EC0FFD2FF11DE35AFF4FF0829FB7F89474
:101860000B8FEA89FB8980818062DCCF0FB607FC91
:10187000EBCFE889F989808185FFE6CFCE010E9410
:10188000500BE2CFFC01A089B1898C91A689B78960
:1018900082FD0FC09C91818D8F5F8F73228D821787
:1018A00049F0A18DAE0FBF2FB11D5D969C93818F26
:1018B00008958C910895CF92DF92EF92FF920F934B
:1018C0001F93CF93DF937C016A0100E010E00C15B9
:1018D0001D0551F4C801DF91CF911F910F91FF9029
:1018E000EF90DF90CF900895EB01D701ED91FC913F
:1018F0000190F081E02D6991C7010995892B51F381
:101900000F5F1F4FBE01E3CF90910001891310C0FC
:10191000EAE8F2E0E4919FEF90930001E23089F071
:1019200028F4E11108C010926E0002C0E330D1F03B
:1019300060E00C94930A90916F009D7F90936F00EC
:10194000F7CF909170009D7F9093700091E09093FD
:10195000B0009091B100987F94609093B100109284
:10196000B300E6CF909171009D7F90937100E0CF1E
:101970008093080770930707609306075093050745
:101980004093040730930307209302070E94CC057D
:101990006093FE067093FF06809300079093010703
:1019A0001092FD068CE00C94840C20E030E040E5C1
:1019B00050E064EC79E081E00C94B80C0F931F9335
:1019C0002FB7F8948091790490917A04A0917B04C8
:1019D000B0917C042FBF8093170690931806A093B4
:1019E0001906B0931A068FE096E00E94B20B8F3F63
:1019F000980721F52FB7F8944091790450917A0413
:101A000060917B0470917C042FBF009117061091A8
:101A100018062091190630911A06401B510B620BD3
:101A2000730B009113061091140620911506309146
:101A300016064017510762077307A8F21F910F910E
:101A4000089590B190938104EBE6F0E09081982B9B
:101A50009083E8E6F0E08081816080830895FC0156
:101A6000AC01425F5F4F8FEF9FEF2191922728E0FB
:101A7000BC01880F991F77FF04C031E2832730E152
:101A800093272A95A9F74E175F0779F70895CF9303
:101A9000DF93EC010E942F0D9C0181E04E855F8554
:101AA0004217530709F080E0DF91CF91089520910C
:101AB000090730910A072115310509F458C09091A2
:101AC0000F07911509F44DC0905D90933A019091E4
:101AD0001007911509F447C0905D90933B019091D8
:101AE0001107911509F441C0905D90933C019091CC
:101AF0001207905D4AE390933D0140933E0190911F
:101B00001307911102C0232B11F080E3890F8093FA
:101B10003F0180911407805D8093400180911707F9
:101B200090E2853008F49AE3909341019091150773
:101B3000905D9093420190911607905D90934301C0
:101B40009EE290934401805D809345018091180747
:101B5000805D8093460180911907805D80934701E5
:101B60000895982FB2CF982FB8CF982FBECF8093DB
:101B70003A0180933B0180933C01982F482FBBCFC3
:101B800040E550E060E270E089E297E00C94924416
:101B900024E1829FC001112444E150E060E270E042
:101BA000875D984F0C949244CF93DF939C010696E7
:101BB000F901C481C20FD32FD11D6F71A62F660FFB
:101BC000BB0BA75CBE4F2C173D0719F4DF91CF91DB
:101BD0000895EDA1EA3331F44C91FC014193CF011A
:101BE0002197F1CFEF710E2E000CFF0BE75CFE4F3B
:101BF0004081F3CFCF93C82F80E20E94570DC115CB
:101C000019F08AE3809341014AE351E063E086E002
:101C10000E942A07C091EB056C2F84E395E00E9497
:101C2000D40D6C2F8AE695E0CF910C94D40DFC0175
:101C300044815581608171818FE096E00C945B0C4A
:101C40002F923F924F925F926F927F928F929F92CC
:101C5000AF92BF92CF92DF92EF92FF920F931F93BA
:101C6000CF93DF936C012B017A0100E010E0332465
:101C7000339485ED682E84E0782E95EC292ED601DC
:101C800014968D919C91E701C01BD10B8C179D0779
:101C900008F4EC0121E0C7018C1B9D0B0817190704
:101CA00008F420E0F60190818C2FC13208F080E228
:101CB0003091D3043111FCCF3092D3042093AD0482
:101CC000FFEFF093AB047092AF046092AE041092F9
:101CD000B1042FEF280F2093B0043092B20420916A
:101CE000B204990F922B9093B2049091AC0491306E
:101CF000F1F51092AC049091B2049093BB009091D6
:101D0000BC0093FDF8CF2092BC009091D304913099
:101D1000E1F39091B104981710F48091B1041092FE
:101D2000F5048093F6048C171D0671F44201800EB1
:101D3000911EA12CB12CCA15DB05E9F40C0F1D1F57
:101D40000E151F0508F49BCFDF91CF911F910F91C6
:101D5000FF90EF90DF90CF90BF90AF909F908F90CB
:101D60007F906F905F904F903F902F90089525EE59
:101D70002093BC00CACFD60111968D919C91DC01B5
:101D8000ED91FC910284F385E02D0995F401819396
:101D90004F01FFEFAF1ABF0ACECF0F931F93CF9320
:101DA000DF938C01EB01FE0164912196611521F016
:101DB000C8010E94F50BF7CFDF91CF911F910F91D2
:101DC00008950C94F50B282F3091170581E03132DE
:101DD00008F042C08091D3048111FCCF9091190585
:101DE00042E04093D3042093AD042FEF2093AB0443
:101DF00047EF54E05093AF044093AE041092B10407
:101E00003093B0041092B2042091B204990F922B37
:101E10009093B2049091AC04913029F51092AC04E7
:101E20009091B2049093BB009091BC0093FDF8CFC9
:101E300095EC9093BC009091D3049230E1F3909193
:101E4000AB049F3F49F08091AB04803271F08091E8
:101E5000AB04803361F483E01092180510921705EB
:101E600010921A05089595EEE4CF82E0F5CF84E054
:101E7000F3CF1092F5041092F60410921805109208
:101E800017051092D30481E08093AD041092AC0446
:101E900061E081E10E94930A61E080E10E94930A7F
:101EA000E9EBF0E080818E7F808380818D7F80836D
:101EB00088E48093B80085E48093BC0084E198E0D6
:101EC000909386048093850483E198E0909389043D
:101ED000809388040895CF93DF93EC018B81811563
:101EE000A1F0888191E090931A05809319051092D2
:101EF00018051092170581E00E94E30E982F81E0EB
:101F0000911180E0DF91CF9108950E94390F81E017
:101F10008B83CE010E946B0F8111E3CFF3CFFC01C5
:101F200083818115A1F08181682B6083828191E09A
:101F300090931A05809319051092180510921705B1
:101F40008BE195E00E943C0881E00C94E30E08953B
:101F5000EF92FF920F931F93CF93DF93EC01162F15
:101F6000042FF22E8B85888B0E94390F8889EE24EE
:101F7000E394E0921A0580931905109218051092C7
:101F8000170581E00E94E30E811111C0E98A8BE1FF
:101F900095E00E94F0078E878989811549F01F8698
:101FA0001C8260E0CE010E960E948F0F01C0198A3C
:101FB0002F2D402F612FCE01DF91CF911F910F91D7
:101FC000FF90EF900C94AA09FC01862F648561159F
:101FD00099F0218532852115310521F4811107C041
:101FE00060E005C021303105D9F78111F9CF65874F
:101FF000CF010E960C948F0F0895EF92FF921F93CE
:10200000CF93DF93EC01FC019C012C5F3F4F80E0FC
:1020100060FF02C09589892B66953196E217F30718
:10202000B9F7413009F44C899D85892B142F182B61
:102030007E018EE0E80EF11C6A89612BC7010E94C7
:102040008F0F6A8960956123C701DF91CF911F913E
:10205000FF90EF900C948F0F0F931F93CF93DF930C
:10206000D82FC92F142F062F0F7040E0123031F0F7
:1020700062956F70412F0E94FD0F412F602F8D2FB1
:102080009C2FDF91CF911F910F910C94FD0FEF9238
:10209000FF920F931F93CF93DF9390E1899F80016D
:1020A0001124EB01CB0140967C01C8010E945148EC
:1020B00089930F5F1F4FCE15DF05B9F7DF91CF91E1
:1020C0001F910F91FF90EF900895DF92EF92FF9292
:1020D0000F931F93CF93DF93CDB7DEB760970FB603
:1020E000F894DEBF0FBECDBF082FF62EE42ED52EFE
:1020F00011E0BE016F5F7F4F8FEF810F0E9447108D
:10210000CE0101960E94470D8115F1F0998190133F
:102110001BC09A819F77F91217C09CE0FE0133968D
:10212000AE2DBD2D01900D929A95E1F760960FB6F8
:10213000F894DEBF0FBECDBFDF91CF911F910F91FD
:10214000FF90EF90DF9008951F5F103491F680E0CC
:10215000EDCFCF92DF92FF920F931F93CF93DF9338
:1021600090E1899F80011124EB01CB0140966C0125
:10217000F990C8010E945148F81621F06F2DC8014E
:102180000E9459480F5F1F4FCC15DD0589F7DF917D
:10219000CF911F910F91FF90DF90CF9008951F93E3
:1021A000CF93DF93FC01EA01122F8481958184177C
:1021B000950710F480E01DC0808191E090931A058E
:1021C000809319051092180510921705818192814C
:1021D000DC01ED91FC910280F381E02D0995C81797
:1021E000D90741F7812F0E94E30E982F81E09111CA
:1021F000E1CFDF91CF911F910895EF92FF920F935E
:102200001F93CF93DF9300D000D000D00F92CDB7B3
:10221000DEB78C011982E0902D05F0902E0520E0AC
:1022200041E050E0BE016F5F7F4FC7010E94CF10B9
:10223000811541F047E050E0BE016F5F7F4FC7015D
:102240000E94200E99819F773A814B815D812E817A
:102250002F776F81862F82958F70782F770F770F6A
:10226000871B880F860FF8018083822F82958F70DD
:10227000682F660F660F861B880F820F8183852F5C
:1022800082958F70282F220F220F821B880F850FB7
:102290008283842F82958F70282F220F220F821B1A
:1022A000880F840F8383832F82958F70282F220FAE
:1022B000220F821B880F830F8483892F82958F7052
:1022C000282F220F220F821B880F890F8583C801B8
:1022D00027960FB6F894DEBF0FBECDBFDF91CF912A
:1022E0001F910F91FF90EF900895DF92EF92FF9270
:1022F0000F931F93CF93DF9300D000D000D0CDB7C2
:10230000DEB78C01CE0101960E94FD10EA80FB80B1
:10231000FE24EF24FE24D9804B816A818D2D90E02C
:102320000E94A308069667E070E00E94CD3DF80188
:102330008083F282E182D3828C8184838D81858344
:102340008E8186830F900F900F900F900F900F90BB
:10235000DF91CF911F910F91FF90EF90DF90089543
:10236000CF93DF93EC0188819981009711F00E944F
:102370001E43198218821D821C821B821A82DF91E1
:10238000CF910895009711F00C941E4308950F9378
:102390001F93CF93DF93EC018B0188819981009784
:1023A00029F02A813B812617370790F4B8016F5F27
:1023B0007F4F0E94AF43FC0180E0309751F0F983DA
:1023C000E8831B830A838C819D81892B09F4108209
:1023D00081E0DF91CF911F910F910895DC01FB0106
:1023E0004481558114968D919C911597841795077A
:1023F00078F08D919C91009759F060817181611501
:10240000710531F00E94B4449C0181E0232B09F056
:1024100080E00895AF92BF92CF92DF92EF92FF9249
:102420000F931F93CF93DF938C01DC01ED90FC9011
:102430001197E114F104B9F11496CD91DC91209734
:1024400091F157016501F50181915F01082E000CA2
:10245000990B0E94B440892BA9F72197CE0DDF1D5F
:102460008881082E000C990B0E94B440892B31F50D
:10247000AE014F5F5F4F4C195D09D80115965C9313
:102480004E931497EC14FD0420F4B601C7010E948A
:102490008944D801ED91FC91119714968D919C91EE
:1024A000E80FF91F1082DF91CF911F910F91FF90DC
:1024B000EF90DF90CF90BF90AF900895CC15DD05E1
:1024C000B8F22197CDCFEF92FF920F931F93CF9346
:1024D000DF93EC017B01FB0101900020E9F73197CC
:1024E0008F01061B170BB8010E94C711811109C08B
:1024F000CE01DF91CF911F910F91FF90EF900C943F
:10250000B0111D830C83B70188819981DF91CF9130
:102510001F910F91FF90EF900C94AD44FB01EF2BB6
:1025200051F0DB010D900020E9F71197AD01461B3A
:10253000570B0C945B0C08956F927F928F929F9231
:10254000AF92BF92CF92DF92EF92FF920F931F93C1
:10255000CF93DF93CDB7DEB7A1970FB6F894DEBF68
:102560000FBECDBF3C01142F052F962E872E19A22A
:10257000223008F42AE05E0181E2A80EB11CC22ECE
:10258000D12CE12CF12C612F702F892D982DA701D2
:1025900096010E94E13D812F902FA92DB82D122F79
:1025A000032F942E852E6A3014F5605DF501629339
:1025B0005F018C159D05AE05BF0528F7BF01C3015E
:1025C0000E948E12A1960FB6F894DEBF0FBECDBF4B
:1025D000DF91CF911F910F91FF90EF90DF90CF90FF
:1025E000BF90AF909F908F907F906F900895695C9F
:1025F000DDCF482F50E060E070E02AE08FE096E009
:102600000C949C1268E572E00C948E121F93CF9389
:10261000DF93D62FC72F142F0E94170E6BE173E0A4
:102620008FE096E00E94CD0E8D2F9C2F111549F062
:102630000E94170E8FE096E0DF91CF911F910C94CE
:102640000213DF91CF911F910C94170ECF92DF925E
:10265000FF920F931F93CF93DF9300D000D000D051
:10266000CDB7DEB78C01F62E2091110180E1289FB5
:10267000B001112469527E4F1C821B821E821D8272
:102680001A821982CE0101960E946312C980DA80F3
:102690004F2DB801CE0101960E940613C6010F907E
:1026A0000F900F900F900F900F90DF91CF911F918F
:1026B0000F91FF90DF90CF900C94C211CF93DF93D6
:1026C000D82FC92F0E948E128D2F9C2FDF91CF9172
:1026D0000C940213CF93DF93D82FC92F0E94CD0EF5
:1026E0008D2F9C2FDF91CF910C9402130C948E129E
:1026F0000F931F93CF93DF93CDB7DEB762970FB6DB
:10270000F894DEBF0FBECDBF6F87788B898B9A8B15
:10271000042F122F1B861C861D861E86BE01615F3C
:102720007F4FCE010B960E940B0680E30E94570D4F
:10273000111531F06BE572E08FE096E00E947613A0
:10274000011599F080913B01898380913C018A8336
:1027500080913D018B838AE38C831D82BE016F5F74
:102760007F4F8FE096E00E94761380913F0189832E
:10277000809140018A838AE38B83809142018C831C
:10278000809143018D838EE28E83809145018F83FA
:102790008091460188878091470189871A86BE010A
:1027A0006F5F7F4F8FE096E00E947613111531F036
:1027B0006EE572E08FE096E00E94761362960FB6A7
:1027C000F894DEBF0FBECDBFDF91CF911F910F9167
:1027D0000895EF92FF920F931F93CF93DF93EC0135
:1027E0008B016115710569F0FB0101900020E9F78B
:1027F00031977F01E61AF70AB7010E94C7118111CC
:1028000009C0CE01DF91CF911F910F91FF90EF9002
:102810000C94B011FD82EC82B80188819981DF911E
:10282000CF911F910F91FF90EF900C94AD44FC015C
:10283000448150E060E270E006960C949244CF939D
:10284000DF93C091E105D091E2056CED75E088ED74
:1028500095E0209721F067EE75E083EE95E00E9409
:102860000B0680E20E94570D219731F44AE351E0B4
:1028700062E08AE00E942A0780EA95E00E9417142D
:10288000C091EB056C2F8AE695E00E94D40D6C2F69
:1028900084E395E0DF91CF910C94D40D8F929F92B9
:1028A000AF92BF92CF92DF92EF92FF920F931F935E
:1028B000CF93DF936B017C01A7019601C701B6019D
:1028C0000E94934960E672E0811114C0C701B6010D
:1028D0000E94894964E672E0892B61F42FEF3FEF93
:1028E0004FE75FE4C701B6010E948449181694F4CB
:1028F00068E672E08FE096E0DF91CF911F910F9133
:10290000FF90EF90DF90CF90BF90AF909F908F900F
:102910000C948E122FEF3FEF4FE75FECC701B6012B
:102920000E94614187FDE4CF20E030E0A901C701AA
:10293000B6010E94614187FF09C06DE28FE096E019
:102940000E94E10EF7FAF094F7F8F0942EE632E1E7
:1029500043E05AE3C701B6010E9477486B017C014E
:102960000E9455498B01D82FC92F0E9466419B01B7
:10297000AC01B601C7010E9476486B017C012AE0D8
:10298000A8016D2F7C2F8FE096E00E949C126EE2D2
:102990008FE096E00E94E10EC3E020E030E040E2EC
:1029A00051E4B601C7010E94C741F62E072F182F28
:1029B000D92F0E9455494B01A12CB12C2AE0B50119
:1029C000A4018FE096E00E949C12C501B4010E9410
:1029D00066419B01AC016F2D702F812F9D2F0E94AE
:1029E00076486B017C01CA95C1F6DF91CF911F91AA
:1029F0000F91FF90EF90DF90CF90BF90AF909F909E
:102A00008F9008952F923F924F925F926F927F9294
:102A10008F929F92AF92BF92CF92DF92EF92FF92EE
:102A20000F931F93CF93DF93CDB7DEB76B970FB69E
:102A3000F894DEBF0FBECDBF62EC71E08FE096E090
:102A40000E946A132091AC060DEA16E0F80180E0BE
:102A5000412C512C3201C12CD12C760188248A942E
:102A6000982C540182133CC12FEF82169206A206C5
:102A7000B206C1F0D701C601C414D504E604F704B8
:102A800010F4D301C2010097A105B10559F08819CE
:102A90009909AA09BB0931E03B8B8F379E4EA643AB
:102AA000B10508F41B8A212C312C8091AC06281624
:102AB000310408F42DC12FEF82169206A206B20649
:102AC00009F47EC0C114D104E104F10409F478C012
:102AD000411451046104710409F472C0D701C601A4
:102AE00088199909AA09BB098C8B9D8BAE8BBF8B6A
:102AF000A3019201281939094A095B09288F398FE6
:102B00004A8F5B8F8FE096E00E94021365E771E0C9
:102B10008FE096E00E946A1369E671E08FE096E02C
:102B20000E94CD0E20E04B896C897D898E899F891A
:102B30000E9478138FE096E00E9402136DE571E029
:102B40008FE096E00E94CD0E20E04B89688D798D54
:102B50008A8D9B8D0E9478138FE096E00E9402136D
:102B60008C899D89AE89BF89288D398D4A8D5B8D71
:102B700082179307A407B50708F00BC167E471E05B
:102B80008FE096E00E946A136BE371E08FE096E0BD
:102B90000E94CD0EC301B2016C197D098E099F09F7
:102BA0000E94664120E030E04AE754E40E94E34896
:102BB0000E944E146CE672E08FE096E00E945E1375
:102BC0006CEE70E08FE096E00E946A13CE010C96E6
:102BD0000E9475118D851AE0612F0E94C13D805DB4
:102BE0008983905D9A832EE22B838E850E94C13D5E
:102BF000805D8C83905D9D832E832F8530E02053F4
:102C0000384F82E38F83C90164E670E00E94CD3DB6
:102C1000CB01EAE0F0E0BF010E94CD3D805D8887F6
:102C2000C901BF010E94CD3D282FCB01BF010E94E9
:102C3000CD3D805D8987205D2A871B8660EE70E030
:102C40008FE096E00E94CD0EBE016F5F7F4F8FE058
:102C500096E00E945E138889612F0E94C13D805DCD
:102C60008983905D9A832AE32B8389890E94C13DE1
:102C7000805D8C83905D9D832E838A890E94C13DF7
:102C8000805D8F83905D9887198664ED70E08FE09A
:102C900096E00E94CD0EBE016F5F7F4F8FE096E001
:102CA0000E945E136DEB70E08FE096E06B960FB6BE
:102CB000F894DEBF0FBECDBFDF91CF911F910F9172
:102CC000FF90EF90DF90CF90BF90AF909F908F904C
:102CD0007F906F905F904F903F902F900C946A136D
:102CE0009481913039F480809180A280B3808F5F8D
:102CF0003596B8CE933029F4C080D180E280F3803D
:102D0000F6CF9430A1F74080518062807380EFCF7E
:102D1000D8016D917D918D919C91681979098A09ED
:102D20009B0921E04B890E94781364E872E08FE0F0
:102D300096E00E947613F8018481843021F190F4AA
:102D40008230D9F08330E1F06CEB71E0813081F0BA
:102D50008FE096E00E940213FFEF2F1A3F0A0B5FED
:102D60001F4FA3CE853091F06BE871E0863081F77C
:102D70008FE096E00E94CD0EEBCF64EB71E0F8CFD0
:102D800065EA71E0F5CF65E971E0F2CF61E971E0E4
:102D9000EFCF888D998DAA8DBB8D2C893D894E8969
:102DA0005F8982179307A407B50798F464E271E07E
:102DB0008FE096E00E946A1368E171E08FE096E090
:102DC0000E94CD0EC701B6016419750986099709DD
:102DD000E7CE62E071E08FE096E00E946A13F0CEE9
:102DE000EF92FF920F931F93CF93DF93EC018B0130
:102DF000CB010E94803E7C01BC01CE010E94C71124
:102E0000811109C0CE01DF91CF911F910F91FF90E9
:102E1000EF900C94B011EC82FD82B8018881998109
:102E2000DF91CF911F910F91FF90EF900C94793E1D
:102E30000F931F93CF93DF9300D000D000D0CDB776
:102E4000DEB7E1EEF5E082E090E0918380838BE6EF
:102E5000828767EE75E083EE95E00E940B0681E0C5
:102E60000E94FA0D1C821B821E821D821A82198208
:102E70006CE978E0CE0101960E94F01609811A8172
:102E8000CE0101960E94B207C8010E94C21184E0DF
:102E900090E00F900F900F900F900F900F90DF9198
:102EA000CF911F910F910C94D8054F925F926F9222
:102EB0007F928F929F92AF92BF92CF92DF92EF92CA
:102EC000FF920F931F93CF93DF93CDB7DEB76D972C
:102ED0000FB6F894DEBF0FBECDBF8091230790914F
:102EE000240789309105B1F18A309105C9F0892B09
:102EF000A1F16D960FB6F894DEBF0FBECDBFDF9186
:102F0000CF911F910F91FF90EF90DF90CF90BF90E6
:102F1000AF909F908F907F906F905F904F900895AB
:102F20008CE090E06D960FB6F894DEBF0FBECDBF7B
:102F3000DF91CF911F910F91FF90EF90DF90CF9095
:102F4000BF90AF909F908F907F906F905F904F90C9
:102F50000C94D80580E090E0E5CF80917D0181154B
:102F600029F110927D010E94C00D1C821B821E82DD
:102F70001D821A82198261EE77E0CE0101960E94CD
:102F8000F01609811A81CE0101960E94AE07C80190
:102F90000E94C21180EA95E00E9417148AE695E02B
:102FA0000E94171484E395E00E9417148091320563
:102FB000811509F49ECFCE0147960E9475112B8D85
:102FC00010E22A3030F0822F6AE00E94C13D10E307
:102FD000180F19838AE0B82E822F6B2D0E94C13DF5
:102FE00020E3622E690E6A822AE32B838C8D0E9475
:102FF000C13D30E3732E780E7C8200E3090F0D8310
:103000002E838D8D0E94C13D40E3E42EE80EEF82B9
:1030100050E3F52EF90EF8861986CE0101966C0163
:10302000AC0162E086E00E942A078F8990E0FC01F3
:10303000EE0FFF1FE80FF91FEA5CFD4F80818983C7
:1030400081818A8380E28B838C83288D80E22A3081
:1030500028F0822F6B2D0E94C13D805D8D833AE068
:10306000822F632F0E94C13D905D9E838EE28F83ED
:10307000298D80E22A3020F0822F0E94C13D805DA0
:1030800088873AE0822F632F0E94C13D905D998727
:103090008EE28A8782E38B8780E38C878A8D0E9409
:1030A000C13D292F0E94C13D905D9D87205D2E87E7
:1030B0001F86A60163E083E00E942A0719836A82C3
:1030C0007B820C83ED82FE828AE38F835E0198E02F
:1030D000A90EB11C7E01E0E1EE0EF11CD701F50155
:1030E00027014F0182918D93CE16DF06D1F74091D3
:1030F000380550E0B2018AE395E00E94894480E2FD
:1031000089838A831B836C827D820E83C501F501CE
:1031100022915F01F70121937F0188169906B1F78B
:103120004091A40550E0B20186EA95E00E948944EE
:10313000E0CE0F931F93CF93DF9300D000D000D049
:10314000CDB7DEB780912307909124078A3091058F
:1031500061F188F4009709F4B4C0099709F449C0F3
:103160000F900F900F900F900F900F90DF91CF91D5
:103170001F910F9108950B9799F76DE577E08FE018
:1031800096E00E946A1362E377E08FE096E00E9487
:103190006A130F900F900F900F900F900F90DF9188
:1031A000CF911F910F910C94D50C1C821B821E8213
:1031B0001D821A82198266ED77E0CE0101960E9487
:1031C000F01609811A8161E0CE0101960E94261352
:1031D000C8010E94C2118CE090E00F900F900F90F8
:1031E0000F900F900F90DF91CF911F910F910C9442
:1031F000D8050E94C00D1C821B821E821D821A826D
:10320000198261ED77E0CE0101960E94F0160981E6
:103210001A81CE0101960E94AE07C8010E94C21118
:103220001C821B821E821D821A82198264EC77E046
:10323000CE0101960E94F01609811A81AE014F5FFE
:103240005F4F63E084E00E943F07C8010E94C21103
:103250004091380550E061E572E08AE595E00E9412
:1032600089444091A40550E062E271E086EC95E06B
:103270000E94894440916E0550E062E171E080E96E
:1032800095E00E9489440E94FC050E94CC05609351
:10329000DC057093DD058093DE059093DF051092C9
:1032A000D8051092D9051092DA051092DB0510921C
:1032B000D7051092D6058BE68093E00580E090E07C
:1032C0008CCF80917D01811561F010927D018FE09E
:1032D00096E00E94021369E977E08FE096E00E9491
:1032E0006A1380917401811191C080916B018111E9
:1032F000B7C080916201811571F01092620181E086
:103300008093300524E630E040E550E060ED77E062
:1033100083E00E94B80C80915901811531F0109220
:103320005901109230050E94D50C8091320581110F
:1033300005C080913005811509F44AC00E94CC0572
:103340006093DC057093DD058093DE059093DF05C7
:103350006CED75E088ED95E00E940B0680E20E941E
:10336000570D4AE351E061E086E00E942A07809110
:10337000D6059091D7051C821B821E821D821A825F
:1033800019826DE877E0892B11F066E877E0CE01CD
:1033900001960E94F01609811A81AE014F5F5F4FBE
:1033A00061E080E00E943F07C8010E94C2111091B5
:1033B000E005612F80EA95E00E94D40D612F8AE636
:1033C00095E00E94D40D612F84E395E00E94D40D16
:1033D00080913305811509F463C08AE3809341012C
:1033E0006FE672E08FE096E00E9476136AE371E088
:1033F0008FE096E00F900F900F900F900F900F902E
:10340000DF91CF911F910F910C945E131092740174
:103410008091750190917601A0917701B09178012A
:103420008093D8059093D905A093DA05B093DB0576
:1034300081E090E09093D7058093D60588E680934D
:10344000E0050E94FC0528E933E040E550E06CED22
:1034500075E083E00E94B80C81E080937D0180CE0E
:1034600010926B018091310591E08927809331059D
:103470001C821B821E821D821A82198264E977E0F7
:10348000CE0101960E94F01609811A81CE010196A3
:103490000E94AE07C8010E94C2110E94D50C29CF1C
:1034A00080912F0565E173E0811107C0809132059D
:1034B000811509F455CE6DE073E08FE096E00F9032
:1034C0000F900F900F900F900F90DF91CF911F9161
:1034D0000F910C9476130F931F93CF93DF9300D02B
:1034E00000D000D0CDB7DEB70E94C00D1C821B8279
:1034F0001E821D821A82198268E277E0CE0101964F
:103500000E94F01609811A81CE0101960E94AE0731
:10351000C8010E94C2111C821B821E821D821A8257
:10352000198263E177E0CE0101960E94F0160981CD
:103530001A81AE014F5F5F4F62E080E00E943F075B
:10354000C8010E94C2111C821B821E821D821A8227
:10355000198262E077E0CE0101960E94F01609819F
:103560001A81AE014F5F5F4F63E082E00E943F0728
:10357000C8010E94C2111C821B821E821D821A82F7
:1035800019826AEF76E0CE0101960E94F016098159
:103590001A81BE016F5F7F4F84E395E00E94A4050E
:1035A000C8010E94C21180EA95E00E9417148AE6C1
:1035B00095E00F900F900F900F900F900F90DF916C
:1035C000CF911F910F910C941714CF92DF92FF921D
:1035D0000F931F93CF93DF9300D000D000D0CDB7CF
:1035E000DEB78C01F62E1C821B821E821D821A827F
:1035F000198264E173E0CE0101960E94F016C98041
:10360000DA804F2DB801CE0101960E940613C60143
:103610000F900F900F900F900F900F90DF91CF9120
:103620001F910F91FF90DF90CF900C94C2117F9269
:103630008F929F92AF92BF92CF92DF92EF92FF92C2
:103640000F931F93CF93DF93CDB7DEB766970FB677
:10365000F894DEBF0FBECDBF982EB62E742E852EE9
:10366000A12C8E010F5F1F4FC982DA82B8018A2D0B
:103670000E944710C980DA80C8010E94470D780176
:10368000811579F19C102DC08D2D8F77B81229C02E
:10369000BD1083C08CE0E72DF82DDE01139601905C
:1036A0000D928A95E1F7C8010E942F0D988B8F87A4
:1036B000B8018A2D0E94A91081E066960FB6F89491
:1036C000DEBF0FBECDBFDF91CF911F910F91FF9055
:1036D000EF90DF90CF90BF90AF909F908F907F90B2
:1036E0000895A39480E4A812BFCF10E0C982DA82C3
:1036F000B701812F0E944710C980DA80C7010E945C
:10370000470D8115B9F01F5F103481F700E0C982C1
:10371000DA82B701802F0E944710C980DA80C70182
:103720000E94470D811511F0C7FC1AC00F5F0034CD
:1037300071F71FEF0FEF8CE0E72DF82DDE011396E8
:1037400001900D928A95E1F79982BA82C7010E9491
:103750002F0D988B8F871F3F29F0B701812FAACF9C
:103760001FEFE9CFB701802F0F3F09F0A3CF1C8ACD
:103770001B8A1E8A1D8A1A8A198A61EE7AE0CE0196
:1037800041960E94F01609891A8961E0CE0141969E
:103790000E94E51AC8010E94C21180E08ECF2F92CC
:1037A0003F924F925F926F927F928F929F92AF92D1
:1037B000BF92CF92DF92EF92FF920F931F93CF931E
:1037C000DF93CDB7DEB7C054D1090FB6F894DEBF92
:1037D0000FBECDBF80912307909124078C309105B7
:1037E00069F08A30910521F584E395E00E94171471
:1037F0008CE090E09093240780932307C05CDF4F18
:103800000FB6F894DEBF0FBECDBFDF91CF911F91F1
:103810000F91FF90EF90DF90CF90BF90AF909F906F
:103820008F907F906F905F904F903F902F90089572
:10383000099791F40E946B1A8FE096E00E94720B38
:10384000892B29F41092240710922307D7CF8FE0F9
:1038500096E00E94B20BF0CF8FE096E00E94720BD0
:10386000892B61F21AA619A618A61FA21CA61BA6D0
:103870006E0127E2C20ED11C6AE572E0C6010E9409
:103880006312EFA0F8A40BA51CA50E94DE0C9C01FE
:10389000CAAEDBAE2F3F320721F02A30310509F0E6
:1038A000A8C1F8A6EFA21CA70BA78AAD9BAD0E94EA
:1038B0000A122FA038A4EBA4FCA41C821B821E8237
:1038C0001D821A82198260EF76E08E010F5F1F4F12
:1038D000C8010E94F016A980BA8060E0C8010E9469
:1038E0002613C5010E94C2118AAD9BAD0E94170E1E
:1038F00061E772E08FE096E00E945E131C821B82FB
:103900001E821D821A82198263E772E0C8010E943A
:103910006312A980BA80B8018AAD9BAD0E94EE11F6
:10392000982EC5010E94C211911409F4ABC18FEF0A
:103930009FEF9E8B8D8B9AA389A3CE0181969F9337
:103940008F930C979F938F9388E792E09F938F9329
:103950003F922F920E94014560EE76E08FE096E064
:103960000E946A1360ED76E08FE096E00E946A1391
:103970000FB6F894DEBF0FBECDBF712C912C41EC79
:1039800056E022EC36E08EEB96E04CAF5DAF2EAF0A
:103990003FAF682E21969FAF21976E01BFE0CB0EFF
:1039A000D11CB801872D0E944710C8010E94470D05
:1039B000811509F472C0B980B7FC6FC08D899E89EA
:1039C00097FD04C0B816190609F067C04A80A42CF8
:1039D000E894A7F889A19AA197FD04C0A816190632
:1039E00009F05BC063E872E08FE096E00E94761316
:1039F000E4E66DEC76E0BE1638F4FAE06AEC76E0C8
:103A0000BF1610F06EEC76E08FE096E00E94CD0ECF
:103A10008B2D0E94F91263E872E08FE096E00E941D
:103A2000761324E6A7ECB6E0BD01A21648F43AE00E
:103A300084EC96E0BC01A31618F0E8ECF6E0BF01B8
:103A40008FE096E00E94CD0E8A2D0E94F91260E26E
:103A50008FE096E00E94F50B47FEEDC062E28FE03A
:103A600096E00E94E10E9E012D5F3F4F5901D50166
:103A70006D915D01611539F08FE096E00E94E10ED5
:103A8000CA14DB04A1F762E28FE096E00E94E10E27
:103A90008FE096E00E9402139394739420E47212D4
:103AA00080CF911431F06EEA76E08FE096E00E94CC
:103AB0006A1363EA76E08FE096E00E94CD0E892DCE
:103AC0000E94F9128FE096E00E94021399249394C9
:103AD0001C821B821E821D821A82198266E872E095
:103AE000C8010E946312A980BA80B8018AAD9BAD5B
:103AF0000E94EE11782EC5010E94C211711409F4C2
:103B000029C1188E1F8A1A8E198E1E8A1D8A6E016F
:103B100035E1C30ED11C6AE572E0C6010E94631252
:103B200065E976E0C6010E94F016ED88FE88CE01B8
:103B30008D969F938F930C979F938F938BE892E032
:103B40009F938F933F922F920E9401450FB6F89456
:103B5000DEBF0FBECDBF3601029709F0B5C060E2EF
:103B600070E0C1010E949944009709F4ADC060E281
:103B700070E001960E949944009709F4A5C060E2A4
:103B800070E001960E949944DC01892B09F49CC0E5
:103B9000FD018D918032E1F3823209F075C06D0133
:103BA00062E270E0CD010E949944AC01892B09F4D6
:103BB0008BC08CE0F80111928A95E9F74C195D09E8
:103BC0004D30510514F04CE050E0B601C8010E94A0
:103BD000C2446DA56068A80189A10E94171B64E812
:103BE00076E0811102C068E676E0C3010E94F0161B
:103BF00069C029831A8258013FEFA31AB30AF8A6B5
:103C0000EFA21CA70BA7B5018AAD9BAD0E94C711FF
:103C1000EFA0F8A40BA51CA5811549F0BE016F5FAC
:103C20007F4FC701800F911F0E94AD4485010E9404
:103C3000DE0C9C012FCEFE0133962F01B12CD20158
:103C4000AD902D01B4E66CAD7DADAB1648F4EAE065
:103C5000662D21967FAD2197AE1610F06EAD7FAD2B
:103C60008FE096E00E94CD0E8A2D0E94F912B39447
:103C7000FCE0BF1609F40CCF6CE28FE096E00E94E6
:103C8000F50BDDCF912C24CF8CE0D8011D928A95C5
:103C9000E9F768014E01BDE08B0E911C8081811512
:103CA00019F08C149D04C1F56DA56F77A80189A149
:103CB0000E94171B811509F44AC065E972E0C3012F
:103CC0000E94E913ED88FE88FE8AED8AC3010E94F6
:103CD000170E8FE096E00E940213C7010E94C211E6
:103CE000C101C05CDF4F0FB6F894DEBF0FBECDBF81
:103CF000DF91CF911F910F91FF90EF90DF90CF90C8
:103D0000BF90AF909F908F907F906F905F904F90FB
:103D10003F902F900C94C2115F013196D5018C9188
:103D20008032D1F3C5010E942B3E8115B1E09B0783
:103D300058F6F60181936F016CE270E0C5010E94B4
:103D40009944FC01892B09F4AFCF3196A7CF6CE4DD
:103D500076E04BCF1C821B821E821D821A82198242
:103D60006AEA72E0C8010E946312A980BA80B801B1
:103D70008AAD9BAD0E94EE11682EC5010E94C21152
:103D8000611409F44AC0CE018D969F938F930C97CE
:103D90009F938F938FEA92E09F938F933F922F92FE
:103DA0000E9401450FB6F894DEBF0FBECDBF02974B
:103DB000A1F5ADA4B9A08982B801872D0E94471052
:103DC0008980C8010E94470D982E811541F1B810D5
:103DD00026C08A818F77A81222C08CE0FE017596DA
:103DE000DF01282F1D922A95E9F7DE011396019035
:103DF0000D928A95E1F78B2D80688983C8010E9416
:103E00002F0D988B8F87B801872D0E94A9106DE325
:103E100076E08FE096E00E946A13512C0EC07394F6
:103E200030E47312C8CF60E376E08FE096E00E9442
:103E3000CD0E55245394992493941C821B821E8288
:103E40001D821A82198269EB72E0C8010E94631216
:103E5000A980BA80B8018AAD9BAD0E94EE11882E70
:103E6000C5010E94C211811409F424C1370144E044
:103E7000A42EB12C84E0E816F10420F4570134E0BC
:103E8000632E712C1CA21BA21EA21DA21AA219A293
:103E90004E0191E2890E911C6AE572E0C4010E9414
:103EA0006312D82C492C89A19AA1AE14BF04A8F49E
:103EB00047016E147F0408F44301820C931CD40163
:103EC0007C901C92B1016A0D7B1D8D2D942D0E945A
:103ED000E91389A19AA1F40170829AA389A38D2D77
:103EE000942D0E940A12A9A0BAA0CE01C7969F9352
:103EF0008F9302979F938F9302979F938F9302972D
:103F00009F938F9302979F938F9302979F938F9383
:103F10008EEB92E09F938F93BF92AF920E940145E8
:103F20000FB6F894DEBF0FBECDBF069709F015C1DE
:103F3000EFA95DA94BA979A88FA42DA53EA5203D89
:103F400087E0380710F0205D3740922E19823AE062
:103F50008E2F632F0E94C13D982F990F980F990FB4
:103F60009E0F9A83852F0E94C13D982F990F980F1D
:103F7000990F950F9B83842F0E94C13D982F990F15
:103F8000980F990F940F9C83472D682D822F90E0F6
:103F90000E94A308069667E070E00E94CD3D811163
:103FA00001C087E08D832AE0872D622F0E94C13DEA
:103FB000982F990F980F990F970D9E83882D0E9427
:103FC000C13D982F990F980F990F980D9F83892DB8
:103FD0000E94C13D982F990F980F990F990D9887BE
:103FE00021E048E050E0B80180912D0590912E0528
:103FF0000E94CF102FE0922E99AE21E041E050E0D8
:10400000BE01675C7F4F80912D0590912E050E9427
:10401000CF1041E050E0BE016B5E7F4F80912D05D7
:1040200090912E050E94200E8D899D8A8F778E8B10
:1040300021E042E050E0BE016B5E7F4F80912D0594
:1040400090912E050E94CF1064E276E08FE096E01A
:104050000E94CD0ECE0145960E94FD108A8D1F92C2
:104060008F93898D1F928F93888D1F928F938F8945
:104070001F928F938E891F928F938D8990E080532A
:10408000984F9F938F9380ED92E09F938F931F9310
:104090000F930E94D144B8018FE096E00E945E1316
:1040A0000FB6F894DEBF0FBECDBFC5010E94C2118E
:1040B000992493941C821B821E821D821A8219826B
:1040C0006EEE72E0C8010E946312A980BA80B80146
:1040D0008AAD9BAD0E94EE11D82EC5010E94C2117F
:1040E000D11409F45CC0470195E0A92EB12CB5E0CC
:1040F000EB16F10420F4570185E0882E912C1C82E8
:104100001B821E821D821A8219826AE572E0C80132
:104110000E946312AE14BF0418F109811A810115BF
:10412000110531F0C8010E94493ECB01892B69F588
:10413000109231050E946B1AC8010E94C211992485
:104140009394EF2879F5511409F4EDC06DE076E011
:104150008FE096E00E94CD0ED3C055245394A5CF96
:1041600067018E149F0408F46401C20CD31CF6018D
:1041700090801082B1016A0D7B1DC8010E94E91375
:1041800009811A81D6019C92CACF6130710521F450
:1041900081E080933105D0CF55245394CDCFEF28C3
:1041A00009F4A4C064EF72E0C1010E94A444892B09
:1041B000C1F56CE775E08FE096E00E946A136CE24F
:1041C00075E08FE096E00E946A1368EE74E08FE07D
:1041D00096E00E946A136DE974E08FE096E00E9419
:1041E0006A1364E674E08FE096E00E946A1365E368
:1041F00074E08FE096E00E946A1361EF73E08FE055
:1042000096E00E946A1362EB73E08FE096E00E94F2
:104210006A1367E873E08FE096E00E946A139924BE
:10422000939469EF72E0C1010E94A444892B09F0C4
:104230005DC069EF75E08FE096E00E94CD0E67EEFD
:1042400075E08FE096E00E946A1362EE75E08FE001
:1042500096E00E94CD0E68ED75E08FE096E00E943A
:10426000CD0E65EC75E08FE096E00E94CD0E62EC1D
:1042700075E08FE096E00E94CD0E66EB75E08FE072
:1042800096E00E94CD0E60E28FE096E00E94F50B72
:104290006DEA75E08FE096E00E94CD0E6BEA75E066
:1042A0008FE096E00E946A1368E975E08FE096E07F
:1042B0000E94CD0E80912C050E94F9128FE096E0AD
:1042C0000E94021366E875E08FE096E00E94CD0E32
:1042D0002AE040E150E060E070E08FE096E00E946C
:1042E0009C128FE096E00E9402132DCF91102BCFED
:1042F00064E176E08FE096E00E94CD0E511026CF6B
:104300006EEF75E08FE096E00E946A1324E630E0DD
:1043100040E550E060ED77E083E00E94B80CC10119
:104320000E94C2116BCA8FE096E00E9402130E94A5
:10433000D50CF5CF0F931F93CF93DF9300D000D010
:1043400000D0CDB7DEB7EDEAF6E08FEF9FEFDC01EE
:1043500080839183A283B3831482359626E0ED3F58
:10436000F207B1F71092AC061C821B821E821D82DE
:104370001A82198263ED7AE0CE0101960E94F0164E
:1043800009811A8161E0CE0101960E94E51AC801F7
:104390000F900F900F900F900F900F90DF91CF9193
:1043A0001F910F910C94C2118F929F92AF92BF9266
:1043B000CF92DF92EF92FF920F931F93CF93DF93F1
:1043C000CDB7DEB728970FB6F894DEBF0FBECDBFCE
:1043D0008C01DB01FA012FB7F8944D915D916D913D
:1043E0007C91808191812FBFF801C180D280E380D0
:1043F000F4804A015B018C189D08AE08BF08278134
:1044000082169104A104B10408F472C0418352835E
:1044100063837483880F991F880F991F9683858300
:1044200081E0808380914E01811509F461C01C8276
:104430001B821E821D821A8219826DEC7AE0CE01E7
:1044400001967C010E94F016C980DA8060E0C70105
:104450000E94E51AC6010E94C211F8018085898375
:10446000F1E00B361F0739F4809123079091240760
:10447000892B09F450C080E28A8380E48B8380E238
:10448000D82EDC821D82B7018FE096E00E94761361
:10449000F80141815281638174812AE08FE096E0C6
:1044A0000E949C128EE28983F80125813681C90120
:1044B00064E670E00E94CD3D605D6A83EAE0F0E072
:1044C000C901BF010E94CD3D282FCB01BF010E9431
:1044D000CD3D805D8B83205D2C83DD828DE68E83D8
:1044E00083E78F831886B7018FE096E00E945E1302
:1044F00028960FB6F894DEBF0FBECDBFDF91CF91E7
:104500001F910F91FF90EF90DF90CF90BF90AF90F1
:104510009F908F9008958BE2AFCFCF92DF92EF9272
:10452000FF92CF93DF9300D000D000D0CDB7DEB79D
:1045300080912A0590912B05892BF9F08AE090E073
:104540000E94D8050E94CC056E5C7F4F8F4F9F4F15
:104550006B017C010E94CC056C157D058E059F05C5
:1045600060F480912307909124070C9731F0E0913B
:104570002A05F0912B050995EDCF10922905E091C0
:104580002805E093110180E1E89FF0011124EA522F
:10459000FE4F8685978590932B0580932A0589E0A9
:1045A00090E00E94D8051C821B821E821D821A8206
:1045B00019826FE773E0CE0101960E94F016E98040
:1045C000FA8060E0CE0101960E94E51AC7010E94C0
:1045D000C2116091110120E1629FB0011124695262
:1045E0007E4F8FE096E00E94761365E773E08FE0E0
:1045F00096E00F900F900F900F900F900F90DF911B
:10460000CF91FF90EF90DF90CF900C946A13CF92F0
:10461000DF92EF92FF920F931F93CF93DF93CDB76B
:10462000DEB768970FB6F894DEBF0FBECDBF8CE142
:104630000E94290B019791F481E0809329056896E7
:104640000FB6F894DEBF0FBECDBFDF91CF911F91A3
:104650000F91FF90EF90DF90CF9008951C8A1B8AF6
:104660001E8A1D8A188E1F8A8E010D5E1F4F61E7FC
:1046700073E0C8010E94F0168091740178018115E1
:1046800081F0809127058F5F833008F080E01092E1
:1046900074018093270580E00E94C80D81E00E948C
:1046A000C80D10912705113009F46CC0123009F4BF
:1046B000BBC0111155C080916201811571F010923B
:1046C000620180912805811102C080912C058150E2
:1046D0008093280581E00E94C80D809159018115C1
:1046E00091F0109259012091280580912C0581505C
:1046F000990B2817190611F011E0120F10932805D5
:1047000081E00E94C80D80913205811549F11C821B
:104710001B821E821D821A82198261E673E0CE011D
:1047200001960E94F01609811A81AE014F5F5F4F1A
:1047300060E082E00E943F07C8010E94C211A70109
:1047400061E082E00E943F074091280580E1489F98
:10475000A001112449525E4F61E086E00E942A07C1
:104760008B899C8968960FB6F894DEBF0FBECDBFCB
:10477000DF91CF911F910F91FF90EF90DF90CF903D
:104780000C94C21180916201811509F445C0109208
:10479000620180914E0191E0892780934E018091C2
:1047A00032058115E9F21C821B821E821D821A824B
:1047B000198260E573E08E010F5F1F4FC8010E94F0
:1047C000F016C980DA80A80160E082E00E943F070D
:1047D000C6010E94C211A70161E082E00E943F076A
:1047E00080914E016CE473E0811102C068E473E0D3
:1047F0001C821B821E821D821A821982C8010E949D
:10480000F016E980FA80A80161E086E00E943F0787
:10481000C7010E94C211A4CF80915901811509F4EA
:10482000BECF10925901B5CF80916201811539F147
:104830001092620180911101898380914E018A83D7
:10484000AE014F5F5F4F63E080E00E94171B0E9444
:10485000D50C188A1F861A8A198A1E861D8660E45E
:1048600073E0CE010D960E94F0160D851E8561E065
:10487000CE010D960E94E51AC8010E94C2118091D6
:1048800059018115D1F0109259018BE090E090937D
:10489000240780932307E091110180E1E89FF00154
:1048A0001124EA52FE4F0684F785E02D09958DE02C
:1048B00090E090932407809323078091320581151F
:1048C00009F44ECF1C821B821E821D821A8219821D
:1048D0006FE273E0CE0101960E94F01609811A8101
:1048E000AE014F5F5F4F60E082E00E943F07C8016A
:1048F0000E94C2111C821B821E821D821A82198292
:104900006EE173E0CE0101960E94F01609811A81D2
:10491000AE014F5F5F4F61E082E00E943F07C80138
:1049200078CFEF92FF921F93CF93DF9300D000D008
:1049300000D0CDB7DEB7182FE091AC06813039F149
:104940008DEF810F843018F1EE3008F11C821B824C
:104950001E821D821A8219826DE970E0CE010196D5
:104960000E94F016E980FA8061E0CE0101960E9473
:10497000E51AC7010F900F900F900F900F900F90B6
:10498000DF91CF911F91FF90EF900C94C21185E0C1
:10499000E89FF0011124E355F94F4083518362836E
:1049A000738314831C821B821E821D821A821982C9
:1049B00064E970E0CE0101960E94F016E980FA8069
:1049C00060E0CE0101960E94E51AC7010E94C21163
:1049D000812F0E94F9126CE870E08FE096E00E944F
:1049E0006A138091AC068F5F8093AC060F900F9096
:1049F0000F900F900F900F90DF91CF911F91FF902C
:104A0000EF9008954F925F926F927F928F929F9254
:104A1000AF92BF92CF92DF92EF92FF920F931F93CC
:104A2000CF93DF93CDB7DEB766970FB6F894DEBFAE
:104A30000FBECDBFE0912307F0912407EC30F105C4
:104A400008F0DEC1E655F64B0C94223E0E94210B85
:104A50008CE090E066960FB6F894DEBF0FBECDBF37
:104A6000DF91CF911F910F91FF90EF90DF90CF904A
:104A7000BF90AF909F908F907F906F905F904F907E
:104A80000C94D80584E395E00E94171480EA95E021
:104A90000E9417148AE695E00E9417140E94210BC9
:104AA00019821A821B821C82AE014F5F5F4F60E049
:104AB00081E00E946510811591F15B814C81298113
:104AC00030E0ACE3B0E00E9467482A81620F711DBC
:104AD000811D911D9B01A8EEB3E00E946748609381
:104AE0003601709337018093380190933901252F57
:104AF00030E00E9467486B017C01242F30E0A4E67F
:104B0000B0E00E946748C60ED71EE81EF91EC0928C
:104B10003201D0923301E0923401F092350124E069
:104B200030E03093D7052093D6058FE68093E005DB
:104B30003093E2052093E1058093EB0580E090E05F
:104B400089CF80917D01811509F449C010927D01C2
:104B50000E94C00D1C821B821E821D821A82198235
:104B600063EC7AE0CE0101960E94F01609811A8169
:104B7000CE0101960E94AE07C8010E94C2111C829C
:104B80001B821E821D821A82198264EB7AE0CE019A
:104B900001960E94F01609811A81AE014F5F5F4FA6
:104BA00062E083E00E943F07C8010E94C2111C829C
:104BB0001B821E821D821A82198260EA7AE0CE016F
:104BC00001960E94F01609811A81AE014F5F5F4F76
:104BD00063E080E00E943F07C8010E94C2118091FB
:104BE0006B01811509F40CC110926B0185E090E016
:104BF00031CF80917D01811509F49DC010927D0116
:104C000081E0809322070E94C00D1C821B821E82BD
:104C10001D821A8219826AE97AE0CE0101960E9409
:104C2000F01609811A81CE0101960E94B207C801CF
:104C30000E94C2111C821B821E821D821A8219824E
:104C400065E87AE0CE0101960E94F01609811A818A
:104C5000AE014F5F5F4F62E080E00E943F07C801F6
:104C60000E94C2111C821B821E821D821A8219821E
:104C700066E77AE0CE0101960E94F01609811A815A
:104C8000AE014F5F5F4F63E083E00E943F07C801C2
:104C90000E94C2111092D8051092D9051092DA051F
:104CA0001092DB051092DC051092DD051092DE05F6
:104CB0001092DF051092E3051092E4051092E505CD
:104CC0001092E6051092E7051092E8051092E905AA
:104CD0001092EA051092D7051092D6058BE68093C4
:104CE000E0051092E2051092E1058093EB056CED72
:104CF00075E088ED95E00E940B0680E20E94570D5A
:104D00004091380550E061E572E08AE595E00E9447
:104D100089444091A40550E062E271E086EC95E0A0
:104D20000E94894440916E0550E062E171E080E9A3
:104D300095E00E94894480912207811581F10E94AB
:104D4000CC05AB01BC018091320190913301A0915F
:104D50003401B0913501009125071091260720916B
:104D6000270730912807800F911FA21FB31F8417B8
:104D70009507A607B70798F4109222071091E0054F
:104D8000612F84E395E00E94D40D612F80EA95E0C5
:104D90000E94D40D612F8AE695E00E94D40D809187
:104DA0006B01811519F010926B01C8CE80916201E0
:104DB000811529F01092620188E090E04BCE8DE1E0
:104DC0000E94290B892BC1F380915901811519F09B
:104DD00010925901F1CF8EE10E94290B892B61F3CA
:104DE00080915001811519F010925001E5CF8FE1AB
:104DF0000E94290B892B01F380917401811117C046
:104E000066960FB6F894DEBF0FBECDBFDF91CF918F
:104E10001F910F91FF90EF90DF90CF90BF90AF90D8
:104E20009F908F907F906F905F904F900895109219
:104E300074010E94FC051C821B821E821D821A8244
:104E4000198268E67AE0CE0101960E94F016098187
:104E50001A8161E0CE0101960E942613C8010E94CA
:104E6000C2110E949A214091750150917601609182
:104E700077017091780181E00E9491248091750101
:104E800090917601A0917701B09178018093D80537
:104E90009093D905A093DA05B093DB058093E305E1
:104EA0009093E405A093E505B093E60521E030E09A
:104EB0003093D7052093D60588E68093E00530939C
:104EC000E2052093E1058093EB0582E090E0C2CDFE
:104ED00080917D018115C1F010927D011C821B82A1
:104EE0001E821D821A8219826AE57AE0CE0101963D
:104EF0000E94F01609811A8161E0CE0101960E949C
:104F00002613C8010E94C21180916B0181114BCF01
:104F10008DE10E94290B892B09F0A2C085E090E069
:104F20009093D7058093D605855B9D4FFC018081CA
:104F30008093E0058EE10E94290B892B09F093C034
:104F400085E090E09093E2058093E105855B9D4FBD
:104F5000FC0180818093EB058FE10E94290B8C017D
:104F60008091D6059091D705059709F07FC01C82E6
:104F70001B821E821D821A82198264E57AE0CE01AC
:104F800001960E94F016E980FA80BE016F5F7F4FA4
:104F900080EA95E00E94A405C7010E94C211809199
:104FA000E1059091E205059709F065C01C821B821E
:104FB0001E821D821A8219826EE47AE0CE01019669
:104FC0000E94F016E980FA80BE016F5F7F4F8AE68B
:104FD00095E00E94A405C7010E94C2118091D605E8
:104FE0009091D7052091E1053091E205822B932B1A
:104FF0001C821B821E821D821A821982892B09F053
:105000003FC00115110509F43BC063E47AE0CE010D
:1050100001960E94F01609811A8161E0CE01019685
:105020000E942613C8010E94C21184E395E00E94E9
:1050300017148091620181111092620180915901CF
:1050400081111092590180917401811110927401A3
:105050008091500181111092500181E090E0FACCD2
:1050600080E090E05DCF80E090E06CCF80EA95E05A
:105070000E94171494CF8AE695E00E941714AECFD1
:105080006DE37AE0CE0101960E94F016E980FA8085
:10509000BE016F5F7F4F84E395E00E94A405C701C6
:1050A0000E94C21182E00E94C80D1C821B821E82D7
:1050B0001D821A8219826EE27AE0CE0101960E9468
:1050C000F016E980FA80AE014F5F5F4F62E080E04A
:1050D0000E943F07C7010E94C211E3E1012B21F4A6
:1050E0008DE480936407E2E18091E1059091E2050F
:1050F000059741F4AE2FB0E0A75DB84F80E59896D4
:105100008C93E1508091D6059091D705059729F4AD
:10511000F0E0E75DF84F8CE480A7809133058115BE
:1051200009F46ECE24E630E040E550E060ED77E033
:1051300083E066960FB6F894DEBF0FBECDBFDF9159
:10514000CF911F910F91FF90EF90DF90CF90BF9084
:10515000AF909F908F907F906F905F904F900C9446
:10516000B80C80917D018115C9F010927D010E94DB
:10517000C00D1C821B821E821D821A82198268E267
:105180007AE0CE0101960E94F01609811A81CE01C3
:1051900001960E94B607C8010E94C2118091D605EF
:1051A0009091D705019709F073C080916201811534
:1051B00009F46EC010926201409163015091640144
:1051C00060916501709166014093DC055093DD05A7
:1051D0006093DE057093DF0582E090E09093D70541
:1051E0008093D6058BE68093E00583E00E949124AE
:1051F00061E08FE00E94930A6CED75E088ED95E028
:105200000E940B0680E20E94570D6091E00580EA43
:1052100095E00E94D40D8AE3809341014AE351E076
:1052200062E086E00E942A071C821B821E821D8289
:105230001A8219826CE679E0CE0101960E94F0167E
:1052400009811A81AE014F5F5F4F62E080E00E94EA
:105250003F07C8010E94C2111C821B821E821D8250
:105260001A82198261E679E0CE0101960E94F01659
:1052700009811A8160E0CE0101960E942613C801BF
:105280000E94C2116AE371E08FE096E00E945E1313
:105290008091E1059091E205019709F073C080913A
:1052A0005901811509F46EC01092590140915A01BB
:1052B00050915B0160915C0170915D014093E70545
:1052C0005093E8056093E9057093EA0582E090E069
:1052D0009093E2058093E1058BE68093EB0584E0F3
:1052E0000E94912461E082E10E94930A67EE75E0DA
:1052F00083EE95E00E940B0680E20E94570D6091BC
:10530000EB058AE695E00E94D40D8AE38093410183
:105310004AE351E063E086E00E942A071C821B8278
:105320001E821D821A8219826DE779E0CE010196F4
:105330000E94F01609811A81AE014F5F5F4F63E052
:1053400080E00E943F07C8010E94C2111C821B829C
:105350001E821D821A82198261E779E0CE010196D0
:105360000E94F01609811A8160E0CE0101960E9428
:105370002613C8010E94C2116AE371E08FE096E033
:105380000E945E138091D6059091D705029709F08F
:1053900048C08091E1059091E205029709F041C073
:1053A0001C821B821E821D821A82198263E879E0A8
:1053B000CE0101960E94F01609811A81CE01019654
:1053C0000E94B207C8010E94C2118091E705909126
:1053D000E805A091E905B091EA054091DC055091FE
:1053E000DD056091DE057091DF05481759076A07F2
:1053F0007B0790F467EE75E083EE95E00E940B0664
:1054000080E20E94570D6091E00584E395E00E94E0
:10541000D40D84E090E01ECB6CED75E088ED95E056
:10542000EDCF10913205111509F443C00E94CC054F
:1054300069837A838B839C83BE016F5F7F4F83EE8A
:1054400095E00E940B0680E20E94570D8091E105D5
:105450009091E205019799F41091EB05612F8AE68E
:1054600095E00E94D40D612F84E395E00E94D40D55
:105470004AE351E063E086E00E942A0710E0809151
:10548000D6059091D7050197A1F40091E005602F12
:1054900080EA95E00E94D40D111559F0602F84E345
:1054A00095E00E94D40D4AE351E062E086E00E945C
:1054B0002A07809150018115D9F1109250011C8268
:1054C0001B821E821D821A82198260E27AE0CE015E
:1054D00001960E94F01609811A8161E0CE010196C1
:1054E0000E942613C8010E94C2114091510150919F
:1054F0005201609153017091540182E00E94912405
:1055000061E571E083EE95E00E940B0680E20E9467
:10551000570D8AE3809341014AE351E061E086E060
:105520000E942A074EEF52E061E080E00E942A07C5
:1055300080916B01811509F463CC10926B011C8280
:105540001B821E821D821A82198261E17AE0CE01DD
:1055500001960E94F01609811A8161E0CE01019640
:105560000E942613C8010E94C21140916C01509103
:105570006D0160916E0170916F0186E00E9491242F
:105580001C821B821E821D821A82198264E07AE0CC
:10559000CE0101960E94F01609811A81CE01019672
:1055A0000E94B207C8010E94C21122E030E030938D
:1055B000D7052093D6058BE68093E0053093E2056E
:1055C0002093E1058093EB0524CF80917D01811527
:1055D000D1F010927D011C821B821E821D821A82D4
:1055E000198265EF79E0CE0101960E94F0160981DB
:1055F0001A8161E0CE0101960E942613C8010E9423
:10560000C2110E94021580916B01811509F4F8CB3B
:1056100010926B010E94210B91CA80917D0181152E
:1056200009F49DC010927D0181E0809322071092C1
:10563000D8051092D9051092DA051092DB058091F9
:10564000360190913701A0913801B09139018093D2
:10565000DC059093DD05A093DE05B093DF05109285
:10566000D7051092D6058BE68093E0051092E205EF
:105670001092E1058093EB056CED75E088ED95E007
:105680000E940B0680E20E94570D109244010E9476
:10569000C00D1C821B821E821D821A8219826DEE31
:1056A00079E0CE0101960E94F01609811A81CE019F
:1056B00001960E94B207C8010E94C2114AE351E05C
:1056C00062E08AE00E942A071C821B821E821D82E1
:1056D0001A8219826EED79E0CE0101960E94F016D1
:1056E00009811A81AE014F5F5F4F62E080E00E9446
:1056F0003F07C8010E94C2111C821B821E821D82AC
:105700001A82198269EC79E0CE0101960E94F016A6
:1057100009811A81AE014F5F5F4F63E080E00E9414
:105720003F07C8010E94C21187E0EFE0F3E0DE010D
:10573000119601900D928A95E1F787E0FE0131966E
:10574000A0E9B5E001900D928A95E1F787E0FE01AE
:105750003196AAE5B5E001900D928A95E1F7809126
:105760002207811509F10E94CC05AB01BC01809193
:10577000320190913301A0913401B0913501009133
:105780002507109126072091270730912807800FC1
:10579000911FA21FB31F481759076A077B0720F004
:1057A000109222070E941F1480916201811541F11D
:1057B000109262018091360190913701A0913801D9
:1057C000B09139018133F5E79F07A105B10508F4D0
:1057D00059C080539547A109B10980933601909330
:1057E0003701A0933801B093390181E080937D01A6
:1057F000109225071092260710922707109228076B
:1058000080915901811561F1109259018091360101
:1058100090913701A0913801B0913901813922EB83
:10582000920728E0A207B10520F080E992EBA8E0FA
:10583000B0E0805D9A48AF4FBF4F809336019093A0
:105840003701A0933801B093390181E080937D0145
:10585000109225071092260710922707109228070A
:1058600080917401811531F01092740186E090E00E
:105870000E94D80580916B01811509F4C1CA10926C
:105880006B01EBCB80E395E7A0E0B0E0A6CF809181
:105890007D01811509F45BC00E94FC0510927D0119
:1058A0001C821B821E821D821A82198269EB79E09A
:1058B000CE0101960E94F01609811A8161E0CE01A5
:1058C00001960E942613C8010E94C2110E94C00DB9
:1058D0001C821B821E821D821A82198261EB79E072
:1058E000CE0101960E94F01609811A81CE0101961F
:1058F0000E94B607C8010E94C21181E090E0909317
:10590000E2058093E10588E68093EB050E94CC05D3
:10591000462F572FBC014093E3055093E405609355
:10592000E5057093E6058091DC059091DD05A09179
:10593000DE05B091DF05840F951FA61FB71F80936A
:10594000E7059093E805A093E905B093EA058091F7
:105950006B018115D9F010926B011C821B821E8293
:105960001D821A82198261EA79E0CE0101960E94B5
:10597000F01609811A8161E0CE0101960E9426137A
:10598000C8010E94C2110E94D50C67CB80913205DC
:10599000811509F435CA0E94CC05462F572FBC014A
:1059A0004093E3055093E4056093E5057093E605A5
:1059B0008091E7059091E805A091E905B091EA058D
:1059C00084179507A607B707C0F066960FB6F89438
:1059D000DEBF0FBECDBFDF91CF911F910F91FF9022
:1059E000EF90DF90CF90BF90AF909F908F907F907F
:1059F0006F905F904F900C941F141C821B821E822C
:105A00001D821A82198261E979E0CE0101960E9415
:105A1000F01609811A8161E0CE0101960E942613D9
:105A2000C8010E94C21181E090E00E94D80520E0E8
:105A300030E040ED57E068EC70E081E07ACBC09058
:105A40003601D0903701E0903801F0903901609133
:105A5000320170913301809134019091350128EE2B
:105A6000822E23E0922EA12CB12CA50194010E943C
:105A7000E13D29013A016B8B7C8B8D8B9E8BC7019D
:105A8000B60120E63AEE40E050E00E94E13D298375
:105A9000C701B601A50194010E94E13D6CE3862E89
:105AA000912CA12CB12CCA01B901A50194010E942D
:105AB000E13D6A83C301B201A50194010E94E13D69
:105AC0006B836B897C898D899E8924E630E040E078
:105AD00050E00E94E13D2C83AE014F5F5F4F60E0DC
