:100000000C946F050C9499050C9499050C94990522
:100010000C94D4330C9499050C9499050C9499057F
:100020000C9499050C942F350C9499050C94990512
:100030000C9499050C9465320C9499050C949905CF
:100040000C9499050C9499050C943F340C949905E3
:100050000C9487340C94B1340C9499050C94990544
:100060000C9499050C9499050C94A9320C9499055B
:100070000C94DB340C9405350C9499050C9499057B
:100080000C9499050C9499050C94990520756C6F46
:100090007A656E004C6F672074797023004E617032
:1000A0006C6E656E6F206D6178207A617A6E616D1D
:1000B000752E204E45554C4F5A454E4F003D3D3D07
:1000C000204B6F6E6563207A617A6E616D75203D9D
:1000D0003D3D0A004361733A20202020202020006B
:1000E000446174756D3A2020202020002D2D2D2D87
:1000F0002D2D2D2D2D2D2D2D2D2D2D2D2D2D2D2D30
:100100002D005679736C6564656B3A20204E45521C
:100110004F5A484F444E4500526F7A64696C3A20FA
:1001200020202000566974657A3A20202020205033
:100130005241564120445241484100526F7A64690D
:100140006C3A2020202000566974657A3A202020DD
:1001500020204C4556412044524148410050726194
:100160007679206361733A20004C6576792063616B
:10017000733A2020002D2D2D20536F7568726E204C
:100180007A61766F6475202D2D2D005245534554AC
:100190000043494C0043494C2050524156412044B1
:1001A000524148410043494C204C4556412044525D
:1001B000414841004D455A4943415300535441522F
:1001C00054000A3D3D3D205A617A6E616D207A618E
:1001D000766F6475203D3D3D001209120912091227
:1001E0000009120912091209000000120912000088
:1001F00000000009120900000000001E0F1E000090
:100200000000000F1E0F000000181C1E1F1E1C18EF
:10021000004368796261206B6F6E66696775726111
:10022000636520646973706C656A65203200436899
:10023000796261206B6F6E666967757261636520B4
:10024000646973706C656A652031004B6F6E666916
:1002500067757261636520646973706C656A7500A7
:1002600053746172742000533E4D6F7A6E6F7374D5
:1002700069204C2F503E566F6C62610002000020D6
:10028000002300260029000000000203000A0B00E2
:100290000000000504090800000000000000000044
:1002A0000000000000000000002200250028002BB4
:1002B0000000002100240027002A0002020202029E
:1002C00002020204040404040404040303030303F9
:1002D00003030301010101010101010102040810EE
:1002E0002040800102040810204080010204081010
:1002F0002040800102040810204080537973746507
:100300006D003E20004C3E53797374656D20503E65
:100310004D6F64756C00556C6F7A6974206E6173F3
:10032000746176656E6900556C6F7A656E6F005604
:100330007970005A6170005A6F6272617A2063614D
:10034000732070756C7A7500507265706E75746983
:10035000206D6F64756C75002D2D3E002720616B3C
:100360007469766E69004D6F64756C2027002020DB
:1003700068656C7020202020202020202020202054
:100380002020202020202020202D207461746F2028
:100390006E61706F76656461002020696E666F2003
:1003A000202020202020202020202020202020204D
:1003B000202020202D207A6F6272617A6920756476
:1003C000616A65206F2068617264776172652F666B
:1003D00069726D7761726500202070657266203CDD
:1003E000317C303E20202020202020202020202072
:1003F0002020202D207A61702F767970207A6F620C
:1004000072617A6F76616E6920727963686C6F735E
:1004100074692070726F6772616D75002020646569
:100420006C203C6D3E203C6B3E2020202020202074
:10043000202020202020202D20736D617A65207AD5
:10044000617A6E616D203C6D6F64756C3E203C6B13
:100450006C69633E002020736574203C6D3E203C37
:100460006B3E2048205B2C482C482E2E2E5D2020F1
:100470002D206E6173746176692070726F203C6DFF
:100480006F64756C3E203C6B6C69633E20617A2022
:10049000313220686F646E6F7420302D3235350034
:1004A0002020736574203C6D3E203C6B3E202274FE
:1004B00065787422202020202020202D206E61735A
:1004C000746176692070726F203C6D6F64756C3E4C
:1004D000203C6B6C69633E20617A203132207A6E59
:1004E000616B750020206C697374205B6D5D205B0F
:1004F0006B5D202020202020202020202020202D67
:1005000020767970697365207A617A6E616D7920E1
:1005100028767365207C206A6564656E206D6F6443
:10052000756C207C206A656E206D6F64756C2B6B1A
:100530006C6963000A5072696B617A793A00202015
:1005400020204C6F67207A617A6E616D753A2000C9
:1005500020202020506F636574206D6F64756C756A
:100560003A2000290031363A31303A3035004175B1
:10057000672032352032303235002028002B763586
:10058000302D323058342D3078323000524D5320D7
:10059000302E330046573A200053616B756C205360
:1005A000746F706B792076352E300048573A2000F2
:1005B000205A6164656A202768656C70272E0043A5
:1005C000687962612E004E657A6E616D7920707275
:1005D000696B617A2E004E656E616C657A656E6F2F
:1005E0002E20005A617A6E616D20736D617A616EA2
:1005F0002E0043687962612E2028486F646E6F7404
:1006000079207072657320746578743F290043689F
:100610007962612E20285465787420707265732089
:10062000686F646E6F74793F29004F4B2E205465BC
:10063000787420756C6F7A656E2E00436879626EEF
:10064000792076737475702E004E616C657A656ED4
:100650006F3A20002D2D2D2D2D2D2D2D2D2D2D2DB5
:100660002D2D2D0020200000200020200000200043
:100670002020000020002D2D2D2D2D2D2D2D2D2D58
:100680002D2D2D2D2D004D6F64756C204B6C6963E5
:100690002044617461005072696A61746F202700A0
:1006A0002D2D35352D2D20005465726D696E616CD0
:1006B0003A202768656C70270053657269616C2069
:1006C0003131353230302F382F31626974004E614C
:1006D00073746176656E69004A6520746F20616C81
:1006E00065206A656E2064656D6F206120646F20EF
:1006F00070616D657469206E657A61706973756A81
:10070000652E0044656D6F20646F7374616C6F209B
:10071000706F6B796E20756C6F7A69742073766573
:10072000206E6173746176656E692E0053746F700C
:100730006B7900557074696D650044656D6F005B81
:1007400020202020202032377833376D733D39390F
:10075000396D732020202020205D2020202043613F
:10076000732070726920277C27002D2D3E20746530
:10077000726D696E616C0044656D6F0044656D6FEC
:10078000206B6F6E636900446C6F757A65205265EB
:10079000736574203E204D656E75005265736574F7
:1007A000203E204E6173746176656E6900533E5041
:1007B0006F73756E204C503E2D2B20523E5A706543
:1007C0007400446174756D20262063617300484F86
:1007D00044494E59005A61646F7374206F207679D2
:1007E000706973005A727573656E6F004D6572653E
:1007F0006E69207A727573656E6F004D657A6963F4
:100800006173004C2F503E556B6F6E636920205210
:100810003E5A72757369740053746F706B7900532C
:10082000746F706B79207370757374656E79005294
:1008300065736574203E205A7061746B790053743F
:10084000617274203E205A6168616A69207A61761B
:100850006F640053544F504B5900446C6F757A6568
:10086000205265736574203E204D656E750052659B
:10087000736574203E2046756E6B63650053544F5C
:10088000504B5920532D4C5000556B6F6E63656E65
:100890006F00556B6F6E63656E6F005A61646F73A6
:1008A00074206F207679706973005A727573656E63
:1008B0006F004D6572656E69207A727573656E6F33
:1008C000004D657A6963617300533E556B6F6E63CB
:1008D0006920202020523E5A727573697400537447
:1008E0006F706B790053746F706B792073707573D0
:1008F00074656E79005265736574203E205A70618C
:10090000746B79005374617274203E205A6168617F
:100910006A69207A61766F640053544F504B5900D6
:10092000446C6F757A65205265736574203E204D66
:10093000656E75005265736574203E2046756E6B5A
:1009400063650053544F504B5920532D53004C6551
:100950007661206472616861004C65766100507256
:100960006176612064726168610050726176610035
:100970005A61766F6420736B6F6E63696C004F64AD
:10098000706F63657420736B6F6E63696C005A726D
:100990007573656E69206F64706F637475004F6462
:1009A000706F636574005A6168616A656E206F6478
:1009B000706F6365740052657365743E204D657297
:1009C000656E69207A61766F647500537461727424
:1009D0003E205A6168616A6974004F44504F434534
:1009E00054005A61646F7374206F20767970697354
:1009F000005A61766F64207A727573656E004D657A
:100A000072656E69207A727573656E6F004D657AD6
:100A100069636173005A61766F64004348594241CB
:100A20002053454E5A4F52553A00202D452D200057
:100A30004B6F6E63616B79204F4B00202D452D204D
:100A400000202D452D20004348594241206B6F6EF8
:100A500063616B75005A61766F64207A6168616AC0
:100A6000656E005265736574203E205A7061746B28
:100A700079005374617274203E205A6168616A691A
:100A8000207A61766F64005A41564F4400446C6F7F
:100A9000757A65205265736574203E204D656E75CC
:100AA000005265736574203E2046756E6B63650069
:100AB00053544F504B592048550050756C7A2000C4
:100AC0004C6F672070726970726176656E00454583
:100AD00050524F4D20706C6E612100005E3C11241D
:100AE0001FBECFEFD0E4DEBFCDBF13E0A0E0B1E08A
:100AF000ECE6FCE800E00BBF02C007900D92A633C5
:100B0000B107D9F727E0A6E3B3E001C01D92A238F0
:100B1000B207E1F715E0CFE6D5E004C02197FE016A
:100B20000E947D3DCE36D107C9F70E948F350C94C7
:100B300011460C940000CF93DF93FC01DB0154813C
:100B4000369614968C9114978150990B40E054136B
:100B500003C0DF91CF91089514962D913C91159784
:100B60008217930770F42D913C911197211531054F
:100B700041F0280F391FE901288121934F5F019728
:100B8000E6CF20E0FACF2FB7F89460912307709159
:100B9000240780912507909126072FBF0895CF93B2
:100BA000DF93D82FC92F0E94C30560932A07709343
:100BB0002B0780932C0790932D07D0932807C09381
:100BC000290781E0809384011092270710927B010E
:100BD00010927201109269011092600110925701F7
:100BE000DF91CF9108958FB7F89410922207109259
:100BF000210710921D079DE09093560110921C074B
:100C00008FBF0895E0915201A0915101F0E0A3300F
:100C100050F1E053F84FB0E0A459BD4F2C918091B2
:100C20005001280F3327331F2E0F3F1FCF019695FA
:100C3000879596958795280F391FCF0160E971E058
:100C40000E94283D260F371FCF0164E670E00E9406
:100C5000283DC901861B970B67E070E00E94283D84
:100C600080934F010895E153F84FD5CF4F925F9293
:100C70006F927F92AF92BF92CF92DF92EF92FF92EC
:100C80000F931F93CF93DF93FB01C080D180E2804D
:100C9000F380FC0180819181A281B381C81AD90AB5
:100CA000EA0AFB0AC701B60128EE33E040E050E053
:100CB0000E943C3D8B01CBE0D7E07D836C838CE3CD
:100CC000482E512C612C712CCA01B901A30192014B
:100CD0000E943C3DB62E6B83CA01B901A30192016B
:100CE0000E943C3DA62E6A83C701B60120E83EEE75
:100CF00046E350E00E943C3DF90139832883C90155
:100D000068EE73E00E94283D6E8394E6E92EF12C94
:100D1000CF01B7010E94283DCB012AE030E0B901A4
:100D20000E94283D8F83CF01B9010E94283D482FA2
:100D3000CB01B9010E94283D888749874AE08A2D66
:100D4000642F0E941C3D8A879B878B2D0E941C3D2F
:100D50008C879D87C801B7010E94283D6E87C80116
:100D6000B9010E94283D482FCB01B9010E94283DBE
:100D70008F87488BDF91CF911F910F91FF90EF905C
:100D8000DF90CF90BF90AF907F906F905F904F902B
:100D900008958091230790912407A0912507B09191
:100DA000260780930D0690930E06A0930F06B0932E
:100DB0001006809184009091850090930C0680939A
:100DC0000B0681E080930A06089580912307909195
:100DD0002407A0912507B0912607809306069093DB
:100DE0000706A0930806B0930906809184009091AD
:100DF0008500909305068093040681E080930306A6
:100E000008958091230790912407A0912507B09120
:100E100026078093FF0590930006A0930106B093E8
:100E2000020680918400909185009093FE05809346
:100E3000FD0581E08093FC05089580912307909142
:100E40002407A0912507B09126078093F805909379
:100E5000F905A093FA05B093FB0580918400909169
:100E600085009093F7058093F60581E08093F50562
:100E700008958091230790912407A0912507B091B0
:100E800026078093F1059093F205A093F305B093A4
:100E9000F40580918400909185009093F0058093F3
:100EA000EF0581E08093EE050895FA0190E024E1DA
:100EB000629FB00111242191211519F0843191050F
:100EC00009F40895DC01A60FB71FA25DB84F2C935B
:100ED0000196F1CFCF93DF93DA0114962C911497FA
:100EE00094E1981B291708F4922FE82FF0E084E191
:100EF000689FE00DF11D1124E25DF84F20E030E025
:100F0000291718F0DF91CF91089514964D915C91B7
:100F100015972417350770F44D915C911197411581
:100F2000510541F0420F531FEA01888181932F5FE1
:100F30003F4FE6CF80E0FACF0F931F93CF93DF931D
:100F40008C01C42F062E000C770B4AE050E08EE295
:100F500097E00E943B416C2FCC0F770B4AE050E0AA
:100F600088E397E00E943B41D80114968D919C91B3
:100F7000C4E1D0E0C81BD90BD695C795C43128F47D
:100F8000A80160E08C2F0E946A07DD27FE01E35D67
:100F9000F84F80E28083D8011496ED91FC91E25DD8
:100FA000F84FEC0FFD1F8083DF91CF911F910F91C0
:100FB000089542E061E00C949C0744E063E00C94E7
:100FC0009C0746E065E00C949C0780E090E0089563
:100FD000089508950895DC01ED91FC910684F7854C
:100FE000E02D40E00994DC01ED91FC910684F78549
:100FF000E02D41E0099581E090E00895DC0181E079
:1010000001C0880F6A95EAF71C968C931C971A9674
:101010005C934E931997ED91FC9111970484F5859B
:10102000E02D60E0CD0109948091F8049091F704DF
:10103000891B990B08959091F7048091F8042FEF84
:101040003FEF981748F4E92FF0E0E952FB4F208179
:1010500030E09F5F9093F704C9010895E091F70491
:101060008091F804E81730F4F0E0E952FB4F8081FA
:1010700090E008958FEF9FEF0895089508950895E3
:101080002091D604260F3327331F21323105ECF48B
:101090002091D504FC0180E090E0243069F082E0EA
:1010A0000895A091D6042191AC014B545B4FA40F3D
:1010B000B52FB11D2C930196861798F38091D60415
:1010C000680F6093D60480E0089581E00895CF937F
:1010D000DF930F92CDB7DEB7FC01698380911C05C9
:1010E0008115F1F080911905803250F081E090E097
:1010F0009383828380E090E00F90DF91CF910895F9
:1011000080911A05E82FF0E0E750FB4F998190831A
:101110008F5F80931A058093190581E090E0ECCFF2
:1011200061E0CE0101960E944008F7CFCF92DF9296
:10113000EF92FF920F931F93CF93DF937C01CB012C
:101140008A0120911C052115D9F0EB016B01C40E19
:10115000D51ECC15DD0551F4C801DF91CF911F914B
:101160000F91FF90EF90DF90CF9008956991D70194
:10117000ED91FC910190F081E02DC7010995E9CF37
:10118000642F0E944008E8CF85ED8093BC008091D9
:10119000BC0084FDFCCF1092D50408951F93CF931B
:1011A000DF93DC0152968D919C915397009751F4F7
:1011B00021E030E013963C932E931297DF91CF916C
:1011C0001F9108951D96ED91FC911E971C962C91F0
:1011D0001C97322F30957FB754964C915497142F0B
:1011E000127041FD21C0F894408143234083EC01FB
:1011F0002197F1F748E0508160FF1BC0522B5083CC
:10120000EC012197F1F766954A95A9F780811115B0
:1012100091F0832380837FBF52968D919C9101979B
:10122000F1F781E090E0CACF6095F8944081422BBD
:10123000DDCF5323E4CF822BEDCF8FEF9FEF0895C7
:1012400080E090E0089508953FB7F8948091760487
:1012500090917704A0917804B091790426B5A89B69
:1012600005C02F3F19F00196A11DB11D3FBFBA2F38
:10127000A92F982F8827BC01CD01620F711D811DF8
:10128000911D42E0660F771F881F991F4A95D1F77D
:1012900008954F925F926F927F928F929F92AF923A
:1012A000BF92CF92DF92EF92FF920F931F93CF9353
:1012B000DF938B01D82FC92F0E942409262F822E5D
:1012C000972E5C016801ED2EFC2E05C0C114D104DF
:1012D000E104F10409F10E9424092B013C014818A2
:1012E00059086A087B088601DE2DCF2D31E0C31A2C
:1012F000D108E108F108282D792DC50138EE830EBB
:1013000033E0931EA11CB11C38EE431633E05306A4
:1013100061047104D8F6D3CFDF91CF911F910F9163
:10132000FF90EF90DF90CF90BF90AF909F908F9005
:101330007F906F905F904F9008959C01019741F0CE
:10134000220F331F220F331FC90105970197F1F7B1
:101350000895CF93DF93EC01423018F08C818860C0
:101360008C834F836887211529F0413019F48C81D3
:1013700084608C8364E670E080E090E00E9449091C
:101380006C8164FD5BC0E881F9810684F785E02DFE
:1013900042E063E0CE01099584E991E10E949D0954
:1013A000E881F9810684F785E02D42E063E0CE0113
:1013B000099586E990E00E949D09E881F9810684FB
:1013C000F785E02D42E063E0CE01099586E990E0E3
:1013D0000E949D09E881F9810684F785E02D42E0AD
:1013E00062E0CE01099586E990E00E949D096C813A
:1013F0006062CE010E94EB078CE390E00E949D09A1
:1014000084E08D836CE0CE010E94EB0761E0CE01A9
:101410000E94EB0780ED97E00E949D0982E08E8399
:1014200066E0CE010E94EB07E881F9810484F5852E
:10143000E02D6FEFCE01DF91CF9109946062CE0174
:101440000E94EB0784E991E10E949D096C81606232
:10145000CE010E94EB0786E990E00E949D096C8115
:101460006062CE010E94EB07BECFCF93DF9390E086
:10147000FC01E552FD4F249185549D4FFC01849160
:101480008115D1F090E0880F991FFC01EF54FD4FBA
:10149000A591B591FC01E955FD4FC591D5919FB737
:1014A000623069F4F8943C91822F809583238C9369
:1014B0008881822B88839FBFDF91CF910895F89414
:1014C0008C91822B8C93F7CF82508A3038F5E82F9D
:1014D000F0E0E75EF94B0C947D3D809180008F77C2
:1014E000809380000895809180008F7DF9CF809156
:1014F000B0008F778093B00008958091B0008F7D09
:10150000F9CF809190008F7780939000089580911B
:1015100090008F7DF9CF84B58F7784BD089584B511
:101520008F7DFBCF1F93CF93DF93162F282F30E0B3
:10153000F901E957FD4F8491F901E552FD4FD4912E
:10154000F901E554FD4FC491C115A1F081110E942C
:10155000640AEC2FF0E0EE0FFF1FE955FD4FA59157
:10156000B5919FB7F8948C91111108C0D095D823EC
:10157000DC939FBFDF91CF911F9108958D2B8C93AA
:10158000F8CFDF92EF92FF920F931F93CF93DF93E9
:101590008C01D62ED0E0F8018481D81740F0DF917D
:1015A000CF911F910F91FF90EF90DF9008957801F8
:1015B000ED0EF11CF701C68186898C1302C0D1148F
:1015C000E9F19EE0C534C9F07CF4C03219F024F48E
:1015D000C11108C090E011C080ED8C0F91ED9C0FFF
:1015E0008A3058F09FE009C09CE0C03531F09DE0A2
:1015F000C53519F09BE0CC34A9F7F801A081B18181
:1016000062818381680F6D0F9295907F690FED91D4
:10161000FC9111970190F081E02DCD010995D11138
:101620000AC0F8018581811531F061E0C03209F40A
:1016300060E00E94920AF7018681868BDF5FABCF64
:1016400060E08FE00E94920A60E082E10C94920ACE
:10165000CF93DF93282F30E0F901E957FD4F8491B4
:10166000F901E552FD4FD491F901E554FD4FC491C4
:10167000C11581F081110E94640AEC2FF0E0EE0F99
:10168000FF1FE358FD4FA591B591EC91ED2381E04B
:10169000E11101C080E090E0DF91CF910895FC015D
:1016A000A48DA80FB92FB11DA35ABF4F2C91848DC3
:1016B00090E001968F739927848FA689B7892C9320
:1016C000A089B1898C91837080648C93938D848D73
:1016D000981306C00288F389E02D80818F7D808376
:1016E0000895FC01818D228D90E0805C9F4F821BCC
:1016F00091098F739927089581E196E00E94710BFB
:101700009C0181E0232B09F480E0089589ED93E0AA
:101710000E94710B9C0181E0232B09F480E0089565
:1017200080E090E0892B29F00E947C0B81110E94BF
:10173000000080E090E0892B29F00E94860B811147
:101740000C9400000895FC01918D828D981731F062
:10175000828DE80FF11D858D90E008958FEF9FEF4A
:101760000895FC01918D828D981761F0A28DAE0FC6
:10177000BF2FB11D5D968C91928D9F5F9F73928F4D
:1017800090E008958FEF9FEF0895FC01538D448DF5
:10179000842F90E0252F30E0821B930B541710F01C
:1017A000CF96089501970895CF93DF93EC01888D2C
:1017B00081110FC0DF91CF9108950FB607FC0DC0C6
:1017C0008C9185FF0AC0808185FF07C0CE010E94F1
:1017D0004F0BAA89BB89E889F9898C9185FDEDCFEA
:1017E000808186FFEACFE6CFEF92FF920F931F939F
:1017F000CF93DF93EC01F62E81E0888F9B8D8C8D4B
:1018000098131AC0E889F989808185FF15C09FB7B0
:10181000F894EE89FF896083E889F9898081837073
:10182000806480839FBF81E090E0DF91CF911F9122
:101830000F91FF90EF9008950B8D10E00F5F1F4FF9
:101840000F731127E02E8C8D8E1579F0EB8DEC0F38
:10185000FD2FF11DE35AFF4FF0829FB7F8940B8FD5
:10186000EA89FB8980818062DCCF0FB607FCEBCF71
:10187000E889F989808185FFE6CFCE010E944F0B70
:10188000E2CFFC01A089B1898C91A689B78982FD3C
:101890000FC09C91818D8F5F8F73228D821749F0CD
:1018A000A18DAE0FBF2FB11D5D969C93818F0895C2
:1018B0008C910895CF92DF92EF92FF920F931F9336
:1018C000CF93DF937C016A0100E010E00C151D0549
:1018D00051F4C801DF91CF911F910F91FF90EF90CC
:1018E000DF90CF900895EB01D701ED91FC9101902D
:1018F000F081E02D6991C7010995892B51F30F5FA4
:101900001F4FBE01E3CF90910001891310C0ECE797
:10191000F2E0E4919FEF90930001E23089F028F427
:10192000E11108C010926E0002C0E330D1F060E017
:101930000C94920A90916F009D7F90936F00F7CF67
:10194000909170009D7F9093700091E09093B00013
:101950009091B100987F94609093B1001092B30081
:10196000E6CF909171009D7F90937100E0CF8093BE
:101970000A0770930907609308075093070740937D
:10198000060730930507209304070E94C305609360
:10199000000770930107809302079093030710924A
:1019A000FF068CE00C94830C20E030E040E550E032
:1019B00064EC79E081E00C94B70C1092F70410927B
:1019C000F80410921A05109219051092D50481E0BE
:1019D0008093AF041092AE0461E081E10E94920A0C
:1019E00061E080E10E94920AE9EBF0E080818E7F65
:1019F000808380818D7F808388E48093B80085E434
:101A00008093BC008FE398E09093880480938704D0
:101A10008EE398E090938B0480938A04089520913C
:101A2000190581E0213208F043C08091D50481116D
:101A3000FCCF90911B0532E03093D50431E0309318
:101A4000AF043FEF3093AD0449EF54E05093B1043D
:101A50004093B0041092B3042093B2041092B404E3
:101A60002091B404990F922B9093B4049091AE04FA
:101A7000913029F51092AE049091B4049093BB007C
:101A80009091BC0093FDF8CF95EC9093BC009091A1
:101A9000D5049230E1F39091AD049F3F49F08091DD
:101AA000AD04803271F08091AD04803361F483E045
:101AB00010921A051092190510921C05089595EEC2
:101AC000E4CF82E0F5CF84E0F3CF0F931F932FB7DD
:101AD000F89480917B0490917C04A0917D04B09156
:101AE0007E042FBF8093190690931A06A0931B06BD
:101AF000B0931C0681E196E00E94B10B8F3F9807DE
:101B000021F52FB7F89440917B0450917C046091AB
:101B10007D0470917E042FBF0091190610911A0662
:101B200020911B0630911C06401B510B620B730B5E
:101B3000009115061091160620911706309118068F
:101B40004017510762077307A8F21F910F9108957C
:101B500090B190938304EBE6F0E09081982B908312
:101B6000E8E6F0E08081816080830895FC01AC01AB
:101B7000425F5F4F8FEF9FEF2191922728E0BC01DA
:101B8000880F991F77FF04C031E2832730E1932744
:101B90002A95A9F74E175F0779F70895CF93DF933A
:101BA000EC010E94B60D9C0181E04E855F854217D5
:101BB000530709F080E0DF91CF91089520910B0742
:101BC00030910C072115310509F458C09091110787
:101BD000911509F44DC0905D90933A0190911207D0
:101BE000911509F447C0905D90933B0190911307C4
:101BF000911509F441C0905D90933C0190911407B8
:101C0000905D4AE390933D0140933E01909115070A
:101C1000911102C0232B11F080E3890F80933F01C3
:101C200080911607805D809340018091190790E2B2
:101C3000853008F49AE39093410190911707905DE5
:101C40009093420190911807905D909343019EE21A
:101C500090934401805D8093450180911A07805DD7
:101C60008093460180911B07805D80934701089512
:101C7000982FB2CF982FB8CF982FBECF80933A012C
:101C800080933B0180933C01982F482FBBCF40E5C8
:101C900050E060E270E08EE297E00C943B4124E17A
:101CA000829FC001112444E150E060E270E0825D57
:101CB000984F0C943B41CF93DF939C010696F9011A
:101CC000C481C20FD32FD11D6F71A62F660FBB0B1E
:101CD000A75CBE4F2C173D0719F4DF91CF910895F3
:101CE000EDA1EA3331F44C91FC014193CF012197EE
:101CF000F1CFEF710E2E000CFF0BE75CFE4F408121
:101D0000F3CFCF93C82F80E20E94DE0DC11519F0EA
:101D10008AE3809341014AE351E063E086E00E9458
:101D20005507C091ED056C2F86E395E00E945B0E90
:101D30006C2F8CE695E0CF910C945B0EFC014481F6
:101D400055816081718181E196E00C945A0C0F936A
:101D50001F93CF93DF938C01EB01FE0164912196D9
:101D6000611521F0C8010E94F40BF7CFDF91CF91EC
:101D70001F910F9108950C94F40BFC018381811540
:101D800099F08181682B6083828191E090931C059A
:101D900080931B0510921A05109219058DE195E0AC
:101DA0000E9467080C940F0D0895EF92FF920F9315
:101DB0001F93CF93DF93EC01162F042FF22E8B8508
:101DC000888B0E94DD0C8889EE24E394E0921C0548
:101DD00080931B0510921A05109219050E940F0D91
:101DE000811111C0E98A8DE195E00E941B088E8760
:101DF0008989811549F01F861C8260E0CE010E960C
:101E00000E94BD0E01C0198A2F2D402F612FCE01D7
:101E1000DF91CF911F910F91FF90EF900C94A90942
:101E2000FC01862F6485611599F021853285211585
:101E3000310521F4811107C060E005C02130310572
:101E4000D9F78111F9CF6587CF010E960C94BD0E9D
:101E50000895EF92FF921F93CF93DF93EC01FC0163
:101E60009C012C5F3F4F80E060FF02C09589892B69
:101E700066953196E217F307B9F7413009F44C89BA
:101E80009D85892B142F182B7E018EE0E80EF11C06
:101E90006A89612BC7010E94BD0E6A896095612322
:101EA000C701DF91CF911F91FF90EF900C94BD0E71
:101EB0000F931F93CF93DF93D82FC92F142F062F83
:101EC0000F7040E0123031F062956F70412F0E9428
:101ED000290F412F602F8D2F9C2FDF91CF911F91C4
:101EE0000F910C94290FEF92FF920F931F93CF93B2
:101EF000DF9390E1899F80011124EB01CB01409693
:101F00007C01C8010E94CA4489930F5F1F4FCE1500
:101F1000DF05B9F7DF91CF911F910F91FF90EF90FF
:101F20000895DF92EF92FF920F931F93CF93DF9369
:101F3000CDB7DEB760970FB6F894DEBF0FBECDBF4A
:101F4000082FF62EE42ED52E11E0BE016F5F7F4FD5
:101F50008FEF810F0E94730FCE0101960E94CE0D6C
:101F60008115F1F0998190131BC09A819F77F91226
:101F700017C09CE0FE013396AE2DBD2D01900D9251
:101F80009A95E1F760960FB6F894DEBF0FBECDBF0D
:101F9000DF91CF911F910F91FF90EF90DF90089507
:101FA0001F5F103491F680E0EDCFCF92DF92FF9269
:101FB0000F931F93CF93DF9390E1899F80011124AA
:101FC000EB01CB0140966C01F990C8010E94CA4414
:101FD000F81621F06F2DC8010E94D2440F5F1F4FE9
:101FE000CC15DD0589F7DF91CF911F910F91FF90FF
:101FF000DF90CF900895CF93DF93EC018881998192
:10200000009711F00E94C73F198218821D821C821E
:102010001B821A82DF91CF910895009711F00C94E2
:10202000C73F08950F931F93CF93DF93EC018B016C
:1020300088819981009729F02A813B8126173707EB
:1020400090F4B8016F5F7F4F0E945840FC0180E020
:10205000309751F0F983E8831B830A838C819D813B
:10206000892B09F4108281E0DF91CF911F910F91AC
:102070000895DC01FB014481558114968D919C915A
:1020800015978417950778F08D919C91009759F0DA
:10209000608171816115710531F00E945D419C0183
:1020A00081E0232B09F080E00895EF92FF920F93D7
:1020B0001F93CF93DF93EC017B01FB010190002084
:1020C000E9F731978F01061B170BB8010E94121018
:1020D000811109C0CE01DF91CF911F910F91FF9027
:1020E000EF900C94FB0F1D830C83B70188819981BD
:1020F000DF91CF911F910F91FF90EF900C9456417B
:10210000FB01EF2B51F0DB010D900020E9F7119757
:10211000AD01461B570B0C945A0C08956F927F9299
:102120008F929F92AF92BF92CF92DF92EF92FF92E7
:102130000F931F93CF93DF93CDB7DEB7A1970FB661
:10214000F894DEBF0FBECDBF3C01142F052F962E95
:10215000872E19A2223008F42AE05E0181E2A80E3F
:10216000B11CC22ED12CE12CF12C612F702F892DA6
:10217000982DA70196010E943C3D812F902FA92DFB
:10218000B82D122F032F942E852E6A3014F5605D22
:10219000F50162935F018C159D05AE05BF0528F71B
:1021A000BF01C3010E948010A1960FB6F894DEBF54
:1021B0000FBECDBFDF91CF911F910F91FF90EF9098
:1021C000DF90CF90BF90AF909F908F907F906F9057
:1021D0000895695CDDCF482F50E060E070E02AE0B0
:1021E00081E196E00C948E1069E772E00C94801007
:1021F0001F93CF93DF93D62FC72F142F0E949E0ECD
:1022000062E073E081E196E00E94A70E8D2F9C2F83
:10221000111549F00E949E0E81E196E0DF91CF9169
:102220001F910C94F410DF91CF911F910C949E0E8E
:10223000CF92DF92FF920F931F93CF93DF9300D043
:1022400000D000D0CDB7DEB78C01F62E2091110161
:1022500080E1289FB001112464517E4F1C821B82B3
:102260001E821D821A821982CE0101960E9455108B
:10227000C980DA804F2DB801CE0101960E94F81076
:10228000C6010F900F900F900F900F900F90DF915D
:10229000CF911F910F91FF90DF90CF900C940D1074
:1022A000CF93DF93D82FC92F0E9480108D2F9C2FA2
:1022B000DF91CF910C94F410CF93DF93D82FC92FD7
:1022C0000E94A70E8D2F9C2FDF91CF910C94F410BC
:1022D0000C9480100F931F93CF93DF93CDB7DEB78D
:1022E00062970FB6F894DEBF0FBECDBF6F87788BB5
:1022F000898B9A8B042F122F1B861C861D861E86A7
:10230000BE01615F7F4FCE010B960E94360680E3CF
:102310000E94DE0D111531F06CE772E081E196E06C
:102320000E946811011599F080913B018983809189
:102330003C018A8380913D018B838AE38C831D82DB
:10234000BE016F5F7F4F81E196E00E94681180912E
:102350003F018983809140018A838AE38B83809146
:1023600042018C83809143018D838EE28E83809124
:1023700045018F8380914601888780914701898735
:102380001A86BE016F5F7F4F81E196E00E9468115F
:10239000111531F06FE772E081E196E00E9468115B
:1023A00062960FB6F894DEBF0FBECDBFDF91CF911E
:1023B0001F910F910895EF92FF920F931F93CF9368
:1023C000DF93EC018B016115710569F0FB01019050
:1023D0000020E9F731977F01E61AF70AB7010E945A
:1023E0001210811109C0CE01DF91CF911F910F9181
:1023F000FF90EF900C94FB0FFD82EC82B801888176
:102400009981DF91CF911F910F91FF90EF900C94E4
:102410005641FC01448150E060E270E006960C9465
:102420003B41CF93DF93C091E305D091E4056EED7E
:1024300075E08AED95E0209721F069EE75E085EE74
:1024400095E00E94360680E20E94DE0D219731F46D
:102450004AE351E062E08AE00E94550782EA95E093
:102460000E940912C091ED056C2F8CE695E00E9448
:102470005B0E6C2F86E395E0DF91CF910C945B0EA1
:102480008F929F92AF92BF92CF92DF92EF92FF9284
:102490000F931F93CF93DF936B017C01A7019601EC
:1024A000C701B6010E940C4661E872E0811114C0B8
:1024B000C701B6010E94024665E872E0892B61F40B
:1024C0002FEF3FEF4FE75FE4C701B6010E94FD45E4
:1024D000181694F469E872E081E196E0DF91CF91FB
:1024E0001F910F91FF90EF90DF90CF90BF90AF9032
:1024F0009F908F900C9480102FEF3FEF4FE75FEC91
:10250000C701B6010E940A3E87FDE4CF20E030E01B
:10251000A901C701B6010E940A3E87FF09C06DE20A
:1025200081E196E00E94BB0EF7FAF094F7F8F09480
:102530002EE632E143E05AE3C701B6010E94F044BF
:102540006B017C010E94CE458B01D82FC92F0E94C0
:102550000F3E9B01AC01B601C7010E94EF446B0125
:102560007C012AE0A8016D2F7C2F81E196E00E947A
:102570008E106EE281E196E00E94BB0EC3E020E087
:1025800030E040E251E4B601C7010E94703EF62EF1
:10259000072F182FD92F0E94CE454B01A12CB12C0B
:1025A0002AE0B501A40181E196E00E948E10C501E8
:1025B000B4010E940F3E9B01AC016F2D702F812F43
:1025C0009D2F0E94EF446B017C01CA95C1F6DF91FB
:1025D000CF911F910F91FF90EF90DF90CF90BF9020
:1025E000AF909F908F9008952F923F924F925F925D
:1025F0006F927F928F929F92AF92BF92CF92DF9213
:10260000EF92FF920F931F93CF93DF93CDB7DEB777
:1026100064970FB6F894DEBF0FBECDBF62EC71E0D9
:1026200081E196E00E945C112091AE060FEA16E06F
:10263000F80180E0412C512C3201C12CD12C7601C3
:1026400088248A94982C540182134CC12FEF82164F
:102650009206A206B206C1F0D701C601C414D50481
:10266000E604F70410F4D301C2010097A105B105F7
:1026700059F088199909AA09BB0931E03C878F37BD
:102680009E4EA643B10508F41C86212C312C809166
:10269000AE062816310408F43DC12FEF82169206CB
:1026A000A206B20609F47EC0C114D104E104F1040B
:1026B00009F478C0411451046104710409F472C032
:1026C000D701C60188199909AA09BB098D879E8778
:1026D000AF87B88BA3019201281939094A095B0910
:1026E000298B3A8B4B8B5C8B81E196E00E94F41036
:1026F00065E771E081E196E00E945C1169E671E0B6
:1027000081E196E00E94A70E20E04C856D857E85D4
:102710008F8598890E946A1181E196E00E94F410E9
:102720006DE571E081E196E00E94A70E20E04C8506
:1027300069897A898B899C890E946A1181E196E076
:102740000E94F4108D859E85AF85B88929893A89C4
:102750004B895C8982179307A407B50708F01BC152
:1027600067E471E081E196E00E945C116BE371E047
:1027700081E196E00E94A70EC301B2016C197D09A8
:102780008E099F090E940F3E20E030E04AE754E4A2
:102790000E945C450E9440126DE872E081E196E083
:1027A0000E94501180913305811509F47DC06CEEB3
:1027B00070E081E196E00E945C1180913305811503
:1027C00009F410C1809150014091510120915201B2
:1027D000E0905301F0905401009155011AE0612FEF
:1027E0000E941C3D805D8983905D9A833EE23B831D
:1027F000842F0E941C3D805D8C83905D9D833E8371
:1028000030E02053384F82E38F83C90164E670E0E3
:102810000E94283DCB01EAE0F0E0BF010E94283D84
:10282000805D8887C901BF010E94283D282FCB0108
:10283000BF010E94283D805D8987205D2A871B8615
:1028400060EE70E081E196E00E94A70EBE016F5F2E
:102850007F4F81E196E00E9450118E2D612F0E94E2
:102860001C3D805D8983905D9A832AE32B838F2DA5
:102870000E941C3D805D8C83905D9D832E83802F04
:102880000E941C3D805D8F83905D9887198664ED62
:1028900070E081E196E00E94A70EBE016F5F7F4F5E
:1028A00081E196E00E9450116DEB70E081E196E0CD
:1028B00064960FB6F894DEBF0FBECDBFDF91CF9107
:1028C0001F910F91FF90EF90DF90CF90BF90AF904E
:1028D0009F908F907F906F905F904F903F902F9040
:1028E0000C945C119481913039F480809180A280A5
:1028F000B3808F5F3596A8CE933029F4C080D18005
:10290000E280F380F6CF9430A1F74080518062805E
:102910007380EFCFD8016D917D918D919C91681955
:1029200079098A099B0921E04C850E946A1163EBB1
:1029300072E081E196E00E946811F80184818430A0
:1029400021F190F48230D9F08330E1F06CEB71E04A
:10295000813081F081E196E00E94F410FFEF2F1AA0
:102960003F0A0B5F1F4F93CE853091F06BE871E00B
:10297000863081F781E196E00E94A70EEBCF64EBF1
:1029800071E0F8CF65EA71E0F5CF65E971E0F2CF6B
:1029900061E971E0EFCF89899A89AB89BC892D857E
:1029A0003E854F85588982179307A407B50798F489
:1029B00064E271E081E196E00E945C1168E171E0FF
:1029C00081E196E00E94A70EC701B601641975095E
:1029D00086099709D7CE62E071E081E196E00E9416
:1029E0005C11E0CE00E0F12CE12C20E040E080E042
:1029F000F5CEEF92FF920F931F93CF93DF93EC01ED
:102A00008B01CB010E94DB3D7C01BC01CE010E9409
:102A10001210811109C0CE01DF91CF911F910F914A
:102A2000FF90EF900C94FB0FEC82FD82B80188813F
:102A30009981DF91CF911F910F91FF90EF900C94AE
:102A4000D43D0F931F93CF93DF9300D000D000D0DD
:102A5000CDB7DEB7E3EEF5E082E090E091838083CE
:102A60008BE6828769EE75E085EE95E00E9436067A
:102A700081E00E94810E1C821B821E821D821A82AE
:102A8000198269E878E0CE0101960E94F914098163
:102A90001A81CE0101960E94DD07C8010E940D1027
:102AA00084E090E00F900F900F900F900F900F9098
:102AB000DF91CF911F910F910C94CF050F931F932E
:102AC000CF93DF9300D000D000D0CDB7DEB7809198
:102AD0002807909129078A30910561F188F40097C1
:102AE00009F4B4C0099709F449C00F900F900F90F2
:102AF0000F900F900F90DF91CF911F910F9108953C
:102B00000B9799F763E077E081E196E00E945C1112
:102B100068ED76E081E196E00E945C110F900F90E5
:102B20000F900F900F900F90DF91CF911F910F9109
:102B30000C94D40C1C821B821E821D821A82198264
:102B40006CE777E0CE0101960E94F91409811A81A1
:102B500061E0CE0101960E941811C8010E940D107B
:102B60008CE090E00F900F900F900F900F900F90CF
:102B7000DF91CF911F910F910C94CF050E94470ECA
:102B80001C821B821E821D821A82198267E777E0EF
:102B9000CE0101960E94F91409811A81CE01019695
:102BA0000E94D907C8010E940D101C821B821E8240
:102BB0001D821A8219826AE677E0CE0101960E9490
:102BC000F91409811A81AE014F5F5F4F63E084E021
:102BD0000E946A07C8010E940D1040913A0550E01A
:102BE00066E672E08CE595E00E9432414091A605D0
:102BF00050E062E271E088EC95E00E943241409141
:102C0000700550E062E171E082E995E00E94324196
:102C10000E94F3050E94C3056093DE057093DF05F3
:102C20008093E0059093E1051092DA051092DB05A0
:102C30001092DC051092DD051092D9051092D8058E
:102C40008BE68093E20580E090E08CCF8091840158
:102C5000811561F01092840181E196E00E94F410E8
:102C60006FE377E081E196E00E945C1180917B0147
:102C7000811191C0809172018111B7C08091690169
:102C8000811571F01092690181E08093300524E68E
:102C900030E040E550E060ED77E083E00E94B70C63
:102CA00080916001811531F0109260011092300521
:102CB0000E94D40C80913405811105C080913005AB
:102CC000811509F44AC00E94C3056093DE05709324
:102CD000DF058093E0059093E1056EED75E08AEDE8
:102CE00095E00E94360680E20E94DE0D4AE351E044
:102CF00061E086E00E9455078091D8059091D90542
:102D00001C821B821E821D821A82198263E377E075
:102D1000892B11F06CE277E0CE0101960E94F91444
:102D200009811A81AE014F5F5F4F61E080E00E9430
:102D30006A07C8010E940D101091E205612F82EA16
:102D400095E00E945B0E612F8CE695E00E945B0E81
:102D5000612F86E395E00E945B0E80913505811519
:102D600009F463C08AE38093410160E972E081E184
:102D700096E00E9468116AE371E081E196E00F90AD
:102D80000F900F900F900F900F90DF91CF911F91A8
:102D90000F910C94501110927B0180917C019091C5
:102DA0007D01A0917E01B0917F018093DA0590931F
:102DB000DB05A093DC05B093DD0581E090E0909306
:102DC000D9058093D80588E68093E2050E94F30533
:102DD00028E933E040E550E06CED75E083E00E94C7
:102DE000B70C81E08093840180CE109272018091B3
:102DF000310591E08927809331051C821B821E8258
:102E00001D821A8219826AE377E0CE0101960E9440
:102E1000F91409811A81CE0101960E94D907C801CF
:102E20000E940D100E94D40C29CF80912F056FE0D5
:102E300073E0811107C080913405811509F455CEE6
:102E40006EE972E081E196E00F900F900F900F9085
:102E50000F900F90DF91CF911F910F910C946811FB
:102E60000F931F93CF93DF9300D000D000D0CDB746
:102E7000DEB70E94470E1C821B821E821D821A82B0
:102E800019826EEC76E0CE0101960E94F914098158
:102E90001A81CE0101960E94D907C8010E940D1027
:102EA0001C821B821E821D821A82198269EB76E0C7
:102EB000CE0101960E94F91409811A81AE014F5F7B
:102EC0005F4F62E080E00E946A07C8010E940D1017
:102ED0001C821B821E821D821A82198268EA76E099
:102EE000CE0101960E94F91409811A81AE014F5F4B
:102EF0005F4F63E082E00E946A07C8010E940D10E4
:102F00001C821B821E821D821A82198260EA76E070
:102F1000CE0101960E94F91409811A81BE016F5FEA
:102F20007F4F86E395E00E949B05C8010E940D102B
:102F300082EA95E00E9409128CE695E00F900F90CE
:102F40000F900F900F900F90DF91CF911F910F91E5
:102F50000C940912CF92DF92FF920F931F93CF939D
:102F6000DF9300D000D000D0CDB7DEB78C01F62EB5
:102F70001C821B821E821D821A8219826BEF72E0F4
:102F8000CE0101960E94F914C980DA804F2DB80154
:102F9000CE0101960E94F810C6010F900F900F907D
:102FA0000F900F900F90DF91CF911F910F91FF9095
:102FB000DF90CF900C940D107F928F929F92AF92E2
:102FC000BF92CF92DF92EF92FF920F931F93CF9316
:102FD000DF93CDB7DEB766970FB6F894DEBF0FBEAE
:102FE000CDBF982EB62E742E852EA12C8E010F5F8C
:102FF0001F4FC982DA82B8018A2D0E94730FC980DF
:10300000DA80C8010E94CE0D7801811579F19C10FB
:103010002DC08D2D8F77B81229C0BD1083C08CE0D4
:10302000E72DF82DDE01139601900D928A95E1F7B8
:10303000C8010E94B60D988B8F87B8018A2D0E9417
:10304000D50F81E066960FB6F894DEBF0FBECDBFF8
:10305000DF91CF911F910F91FF90EF90DF90CF9074
:10306000BF90AF909F908F907F900895A39480E43D
:10307000A812BFCF10E0C982DA82B701812F0E9467
:10308000730FC980DA80C7010E94CE0D8115B9F097
:103090001F5F103481F700E0C982DA82B701802F08
:1030A0000E94730FC980DA80C7010E94CE0D81157E
:1030B00011F0C7FC1AC00F5F003471F71FEF0FEF5C
:1030C0008CE0E72DF82DDE01139601900D928A9584
:1030D000E1F79982BA82C7010E94B60D988B8F875B
:1030E0001F3F29F0B701812FAACF1FEFE9CFB7010A
:1030F000802F0F3F09F0A3CF1C8A1B8A1E8A1D8ACE
:103100001A8A198A6EEC7AE0CE0141960E94F9146F
:1031100009891A8961E0CE0141960E94AA17C80167
:103120000E940D1080E08ECF6F927F928F929F92BF
:10313000AF92BF92CF92DF92EF92FF920F931F93C5
:10314000CF93DF93CDB7DEB76F970FB6F894DEBF9E
:103150000FBECDBF80912807909129078930910536
:1031600009F462C0D8F4009709F479C0059709F40E
:10317000B4C16F960FB6F894DEBF0FBECDBFDF911E
:10318000CF911F910F91FF90EF90DF90CF90BF9064
:10319000AF909F908F907F906F9008958A309105A7
:1031A00059F10B9731F7809150018983809151013A
:1031B0008A83809152018B83AE014F5F5F4F60E045
:1031C00084E00E94DC178115A1F20E94D40C1D8AB4
:1031D0001C8A1F8A1E8A1B8A1A8A62E972E0CE0143
:1031E00042960E9455100A891B8961E0CE014296E1
:1031F0000E941811C80194C08CE090E06F960FB641
:10320000F894DEBF0FBECDBFDF91CF911F910F911C
:10321000FF90EF90DF90CF90BF90AF909F908F90F6
:103220007F906F900C94CF0580913305811114C06D
:10323000AE014F5F5F4F60E084E00E94910F811507
:1032400059F08981809350018A81809351018B814B
:10325000809352010E94020680E090E0CFCF8091DF
:103260008401811529F1109284010E94470E1C826D
:103270001B821E821D821A8219826EEC77E0CE01BB
:1032800001960E94F91409811A81CE0101960E94CB
:10329000D907C8010E940D1082EA95E00E94091228
:1032A0008CE695E00E94091286E395E00E940912DF
:1032B0008091720181114AC080913405811509F411
:1032C00058CF809133058E010F5F1F4F811143C08E
:1032D0001C821B821E821D821A8219826BE977E092
:1032E000C8010E94F914E980FA80A80162E081E037
:1032F0000E946A07C7010E940D101C821B821E8259
:103300001D821A82198267E877E0C8010E94F914C9
:10331000E980FA80A80163E080E00E946A07C701A3
:103320006F960FB6F894DEBF0FBECDBFDF91CF9181
:103330001F910F91FF90EF90DF90CF90BF90AF90D3
:103340009F908F907F906F900C940D10109272014F
:1033500085E090E053CF60904F01809050019090B5
:1033600051017090520120915301409154013091CC
:10337000550180E2F82E2A3038F0822F6AE00E9450
:103380001C3D90E3F92EF80EF982822F6AE00E942C
:103390001C3D50E3C52EC90ECA822AE32B83842F1D
:1033A0000E941C3D70E3D72ED80EDC82E0E3EE2EA7
:1033B000E90EED822E83832F0E941C3DF0E3AF2E99
:1033C000A80EAF82A0E3BA2EB90EB8861986A8015E
:1033D00062E086E00E945507862D90E0FC01EE0F2A
:1033E000FF1FE80FF91FE55BFD4F80818983818115
:1033F0008A8380E28B838C832AE080E2821628F025
:10340000882D6AE00E941C3D805D8D832AE0882D16
:10341000622F0E941C3D905D9E838EE28F8380E22E
:10342000921620F0892D0E941C3D805D88873AE02D
:10343000892D632F0E941C3D905D99878EE28A87BB
:1034400082E38B8780E38C87872D0E941C3D292F88
:103450000E941C3D905D9D87205D2E871F86A801E0
:1034600063E083E00E945507F982CA82DB82EC8226
:10347000AD82BE828AE38F834E0188E0880E911C64
:103480005E01E2E1AE0EB11CD501F401350182917D
:103490008D930E171F07D9F740913A0550E0B301FD
:1034A0008CE395E00E94324180E289838A83FB822B
:1034B000CC82DD82EE82F40182914F01F50181938D
:1034C0005F0108151905B9F74091A60550E0B30151
:1034D00088EA95E00E9432414CCE809184018115AA
:1034E00009F43FC010928401109232050E94470EE9
:1034F0001C821B821E821D821A82198262EC77E076
:10350000CE0101960E94F91409811A81CE0101961B
:103510000E94DD07C8010E940D101C821B821E82C2
:103520001D821A8219826DEA77E0CE0101960E940F
:10353000F91409811A81AE014F5F5F4F63E080E0AB
:103540000E946A07C8010E940D1082EA95E00E945D
:1035500009128CE695E00E94091286E395E00E942C
:10356000091280917201811519F01092720174CEC6
:1035700080917B01811549F010927B018091320589
:103580008F5F8730A0F580933205809169018115A6
:1035900089F11092690168EC70E080E090E00E948F
:1035A00049098DE10E94280B892B19F481E0809351
:1035B00069018FEF909160019115F1F01092600117
:1035C00068EC70E080E090E00E9449098EE10E9482
:1035D000280B892B09F4A7C021E0E0913205E730E0
:1035E00008F0AFC0F0E0ED5DF94B0C947D3D10921A
:1035F0003205CBCF80E0DECF811199C080913405B8
:10360000811509F4B6CD198A10E219838091500111
:103610000AE0602F0E941C3D805D8A83905D9B8341
:103620001C831D83809151010E941C3D805D8E830F
:10363000905D9F831887198782E38A8780E38B8751
:10364000809152010E941C3D292F0E941C3D905DDB
:103650009C87205D2D871E8780914F0190E0FC01A3
:10366000EE0FFF1FE80FF91FE55BFD4F80818F878D
:103670008181888BAE014F5F5F4F61E080E00E94E7
:10368000550780915301602F0E941C3D805D8A8305
:10369000905D9B83809154010E941C3D805D8E83D0
:1036A000905D9F83809155010E941C3D805D8A87BB
:1036B000905D9B871C871D87809133058111B0C069
:1036C00096E589E79E878F8780E7888BAE014F5FFD
:1036D0005F4F62E080E00E9455078EE0EBE8F1E08A
:1036E000DE01529601900D928A95E1F780913205A4
:1036F000FE013196E80FF11DE80FF11D82898F5F01
:10370000843008F036CDE189E43108F032CDF4E1BF
:103710008F9FC0011124825D984FE80FF92FF11D92
:1037200087E0808326CD81E08093600155CF2FEF25
:1037300054CF80915001820F803230F081E080932D
:1037400050010E9402065ACF8111F9CF8FE1F7CFC5
:1037500080915101820F8D3020F081E080935101E2
:10376000F0CF8111FBCF8CE0F9CF80915201820F15
:10377000843620F089E180935201E3CF8931D8F774
:1037800083E6F9CF80915301820F8F3F21F487E1C7
:1037900080935301D6CF8831D8F310925301D1CF03
:1037A00080915401820F8F3F21F48BE38093540169
:1037B000C8CF8C33D8F310925401C3CF8FB7F8948D
:1037C0001092200710921F0710921E078FBF809142
:1037D00055013AE0632F0E941C3D820F839F802D8C
:1037E0001124813F20F082E380935501AACF8333D7
:1037F000D8F310925501A5CF80913305811109C0EE
:103800008FB7F8941092200710921F0710921E078E
:103810008FBF8091330591E089278093330591CF45
:103820009AE581E64FCF2F923F924F925F926F922F
:103830007F928F929F92AF92BF92CF92DF92EF9240
:10384000FF920F931F93CF93DF93CDB7DEB7AD9762
:103850000FB6F894DEBF0FBECDBF809128079091C0
:1038600029078C30910569F08A30910519F586E3B6
:1038700095E00E9409128CE090E0909329078093D4
:103880002807AD960FB6F894DEBF0FBECDBFDF910F
:10389000CF911F910F91FF90EF90DF90CF90BF904D
:1038A000AF909F908F907F906F905F904F903F90E0
:1038B0002F900895099791F40E94301781E196E0C6
:1038C0000E94710B892B29F4109229071092280766
:1038D000D8CF81E196E00E94B10BF0CF81E196E074
:1038E0000E94710B892B69F218A21F8E1E8E1D8EED
:1038F0001AA219A26E012DE1C20ED11C6BE772E073
:10390000C6010E9455100D8D1E8DE9A0FAA00E94DF
:10391000650D9C01CFA2D8A62F3F320721F02A3097
:10392000310509F0D2C10115110591F1E114F1043D
:1039300079F148015401D4018D914D01082E000CFC
:10394000990B0E94013E892BA9F7B1E0EB1AF1080F
:10395000E00EF11ED7018C91082E000C990B0E94ED
:10396000013E892B21F0EA14FB0408F0D0C1BFEF1F
:10397000EB1AFB0AEA18FB080A151B0528F4A70135
:10398000B501C8010E943241F801EE0DFF1D108201
:103990001C821B821E821D821A82198266E976E0D1
:1039A000FE0131963F01CF010E94F914A980BA802F
:1039B00060E0C3010E941811C5010E940D101E8F06
:1039C0000D8FFAA2E9A28FA198A50E949E0E60EA2F
:1039D00072E081E196E00E9450111C821B821E82DF
:1039E0001D821A82198262EA72E0C3010E94551098
:1039F000A980BA80B3018FA198A50E943910982E92
:103A0000C5010E940D10911409F4ABC18FEF9FEF17
:103A10009A8B898B9CA38BA3CE0183969F938F93C4
:103A200042979F938F9387EA92E09F938F931F9380
:103A30000F930E947A4166E876E081E196E00E9469
:103A40005C1166E776E081E196E00E945C110FB6BA
:103A5000F894DEBF0FBECDBF812C912C47E656E017
:103A600028E636E084E696E049A75AA72BA73CA7AC
:103A7000482E9DA76E013FE0C30ED11CB301882DD7
:103A80000E94730FC3010E94CE0D811509F471C00D
:103A9000B980B7FC6EC089899A8997FD04C0B816B1
:103AA000190609F066C02A80A22CE894A7F88BA119
:103AB0009CA197FD04C0A816190609F05AC062EB34
:103AC00072E081E196E00E94681184E663E776E0A7
:103AD000B81638F49AE060E776E0B91610F064E7BB
:103AE00076E081E196E00E94A70E8B2D0E94EB10FC
:103AF00062EB72E081E196E00E946811A4E62DE697
:103B000036E0B901AA1648F4BAE0EAE6F6E0BF01E9
:103B1000AB1618F08EE696E0BC0181E196E00E94BB
:103B2000A70E8A2D0E94EB1060E281E196E00E94D0
:103B3000F40B27FEF0C062E281E196E00E94BB0E2A
:103B4000DE0113965D01F50161915F01611539F0A8
:103B500081E196E00E94BB0ECA14DB04A1F762E289
:103B600081E196E00E94BB0E81E196E00E94F41094
:103B70009394839420E4821281CF911431F064E510
:103B800076E081E196E00E945C1169E476E081E1F3
:103B900096E00E94A70E892D0E94EB1081E196E02D
:103BA0000E94F410992493941C821B821E821D8211
:103BB0001A82198265EB72E0C3010E945510A98038
:103BC000BA80B3018FA198A50E943910882EC50133
:103BD0000E940D10811409F42BC11C8A1B8A1E8AB5
:103BE0001D8A1A8A198A6E0131E1C30ED11C6BE756
:103BF00072E0C6010E9455106BE376E0C6010E9498
:103C0000F914E988FA88CE0185969F938F930297DD
:103C10009F938F938AEB92E09F938F931F930F93C1
:103C20000E947A410FB6F894DEBF0FBECDBF2601C9
:103C3000029709F0B8C060E270E0C8010E944241FA
:103C4000009709F4B0C060E270E001960E94424122
:103C5000009709F4A8C060E270E001960E9442411A
:103C6000DC01892B09F49FC0FD018D918032E1F3C5
:103C7000823209F078C06D0162E270E0CD010E94ED
:103C80004241AC01892B09F48EC08CE0F301119202
:103C90008A95E9F74C195D094D30510514F04CE057
:103CA00050E0B601C3010E946B416DA16068A301A1
:103CB0008BA10E94DC176AE276E0811102C06EE0FF
:103CC00076E0C2010E94F9146CC029831A82570160
:103CD0003FEFA31AB30A1E8F0D8FFAA2E9A2B50116
:103CE0008FA198A50E9412100D8D1E8DE9A0FAA03B
:103CF000811549F0BE016F5F7F4FC8018E0D9F1D7A
:103D00000E94564175010E94650D9C0105CEE1E0BF
:103D1000EE1AF1081FCE9E012D5F3F4F1901B12C05
:103D2000D101AD901D01B4E669A57AA5AB1638F4B2
:103D3000EAE0642D7DA5AE1610F06BA57CA581E1AF
:103D400096E00E94A70E8A2D0E94EB10B394FCE02F
:103D5000BF1609F409CF6CE281E196E00E94F40BF2
:103D6000DFCF912C21CF8CE0D3011D928A95E9F70A
:103D700063014E01BDE08B0E911C8081811519F00D
:103D80008C149D04B9F56DA16F77A3018BA10E94DE
:103D9000DC17811509F449C064EC72E0C2010E948D
:103DA000DB11E988FA88FA8AE98AC2010E949E0E2C
:103DB00081E196E00E94F410C7010E940D10C80135
:103DC000AD960FB6F894DEBF0FBECDBFDF91CF9199
:103DD0001F910F91FF90EF90DF90CF90BF90AF9029
:103DE0009F908F907F906F905F904F903F902F901B
:103DF0000C940D105F013196D5018C918032D1F376
:103E0000C5010E94863D8115B1E09B0760F6F60171
:103E100081936F016CE270E0C5010E944241FC0198
:103E2000892B09F4B0CF3196A8CF62EF75E049CF66
:103E30001C821B821E821D821A82198269ED72E029
:103E4000C3010E945510A980BA80B3018FA198A523
:103E50000E943910482EC5010E940D10411409F42A
:103E60004AC0CE0185969F938F9302979F938F931D
:103E70008EED92E09F938F931F930F930E947A4150
:103E80000FB6F894DEBF0FBECDBF0297A1F5ADA06F
:103E9000BBA05982B301882D0E94730F5980C301C2
:103EA0000E94CE0D982E811541F1B51026C08A8151
:103EB0008F77A81222C08CE0FE017196DF01282FB7
:103EC0001D922A95E9F7DE01139601900D928A95CD
:103ED000E1F78B2D80688983C3010E94B60D988B12
:103EE0008F87B301882D0E94D50F63EE75E081E1C5
:103EF00096E00E945C11812C0EC0839430E4831202
:103F0000C8CF66ED75E081E196E00E94A70E882497
:103F10008394992493941C821B821E821D821A8290
:103F2000198268EE72E0C3010E945510A980BA8020
:103F3000B3018FA198A50E943910D82EC5010E9407
:103F40000D10D11409F459C0270195E0A92EB12C08
:103F500085E0E816F10420F4570185E0482E512C45
:103F60001C821B821E821D821A8219826BE772E0FC
:103F7000C3010E945510AE14BF0400F1A980BA809D
:103F8000A114B10431F0C5010E94A43DCB01892BDD
:103F900051F5109231050E943017C5010E940D1095
:103FA00099249394EF2861F5811409F4E1C06FEB33
:103FB00075E081E196E00E94A70ECAC067014E1429
:103FC0005F0408F46201C00ED11ED6019C901C92C1
:103FD000B8016A0D7B1DC3010E94DB11A980BA8064
:103FE000F6019082CDCF6130710521F481E080939C
:103FF0003105D3CF88248394D0CFEF2809F49EC015
:104000006EEE72E0C8010E944D41892B91F564E388
:1040100075E081E196E00E945C1164EE74E081E15C
:1040200096E00E945C1160EA74E081E196E00E94F3
:104030005C1165E574E081E196E00E945C116CE141
:1040400074E081E196E00E945C1168ED73E081E12B
:1040500096E00E945C1169E973E081E196E00E94BC
:104060005C116EE673E081E196E00E945C11992498
:10407000939463EF72E0C8010E944D41892B09F0CF
:104080005DC06BEA75E081E196E00E94A70E69E9E8
:1040900075E081E196E00E945C1164E975E081E1E0
:1040A00096E00E94A70E6CE875E081E196E00E9420
:1040B000A70E6DE775E081E196E00E94A70E6AE722
:1040C00075E081E196E00E94A70E6EE675E081E161
:1040D00096E00E94A70E60E281E196E00E94F40B58
:1040E00065E675E081E196E00E94A70E63E675E063
:1040F00081E196E00E945C1160E575E081E196E067
:104100000E94A70E80912E050E94EB1081E196E09F
:104110000E94F4106EE375E081E196E00E94A70E24
:104120002AE040E150E060E070E081E196E00E942A
:104130008E1081E196E00E94F41036CF911034CFBA
:1041400066EC75E081E196E00E94A70E81102FCF0A
:1041500060EB75E081E196E00E945C1124E630E0BE
:1041600040E550E060ED77E083E00E94B70C27CE99
:1041700081E196E00E94F4100E94D40C20CE0F93AF
:104180001F93CF93DF9300D000D000D0CDB7DEB720
:10419000EFEAF6E08FEF9FEFDC0180839183A2834B
:1041A000B3831482359626E0EF3FF207B1F7109201
:1041B000AE061C821B821E821D821A82198260EC4E
:1041C0007AE0CE0101960E94F91409811A8161E01A
:1041D000CE0101960E94AA17C8010F900F900F9070
:1041E0000F900F900F90DF91CF911F910F910C9432
:1041F0000D108F929F92AF92BF92CF92DF92EF926B
:10420000FF920F931F93CF93DF93CDB7DEB728971D
:104210000FB6F894DEBF0FBECDBF8C01DB01FA01F3
:104220002FB7F8944D915D916D917C918081918132
:104230002FBFF801C180D280E380F4804A015B0186
:104240008C189D08AE08BF08278182169104A1042E
:10425000B10408F472C04183528363837483880F6E
:10426000991F880F991F9683858381E080838091B1
:104270004E01811509F461C01C821B821E821D82C1
:104280001A8219826AEB7AE0CE0101967C010E94C3
:10429000F914C980DA8060E0C7010E94AA17C6013C
:1042A0000E940D10F80180858983F1E002371F0715
:1042B00039F48091280790912907892B09F450C07F
:1042C00080E28A8380E48B8380E2D82EDC821D82A8
:1042D000B70181E196E00E946811F80141815281A5
:1042E000638174812AE081E196E00E948E108EE263
:1042F0008983F80125813681C90164E670E00E9456
:10430000283D605D6A83EAE0F0E0C901BF010E94D8
:10431000283D282FCB01BF010E94283D805D8B8363
:10432000205D2C83DD828DE68E8383E78F83188664
:10433000B70181E196E00E94501128960FB6F894DB
:10434000DEBF0FBECDBFDF91CF911F910F91FF90C8
:10435000EF90DF90CF90BF90AF909F908F90089597
:104360008BE2AFCFCF92DF92EF92FF92CF93DF93AA
:1043700000D000D000D0CDB7DEB780912C05909151
:104380002D05892BF9F08AE090E00E94CF050E946C
:10439000C3056E5C7F4F8F4F9F4F6B017C010E9466
:1043A000C3056C157D058E059F0560F48091280777
:1043B000909129070C9731F0E0912C05F0912D0593
:1043C0000995EDCF10922B05E0912A05E09311019C
:1043D00080E1E89FF0011124E551FE4F8685978525
:1043E00090932D0580932C0589E090E00E94CF05E5
:1043F0001C821B821E821D821A82198266E673E06D
:10440000CE0101960E94F914E980FA8060E0CE01A5
:1044100001960E94AA17C7010E940D106091110118
:1044200020E1629FB001112464517E4F81E196E04A
:104430000E9468116CE573E081E196E00F900F90A7
:104440000F900F900F900F90DF91CF91FF90EF9012
:10445000DF90CF900C945C11CF92DF92EF92FF929D
:104460000F931F93CF93DF93CDB7DEB768970FB647
:10447000F894DEBF0FBECDBF8CE10E94280B0197E0
:1044800091F481E080932B0568960FB6F894DEBF17
:104490000FBECDBFDF91CF911F910F91FF90EF9095
:1044A000DF90CF9008951C8A1B8A1E8A1D8A188E61
:1044B0001F8A8E010D5E1F4F68E573E0C8010E94E0
:1044C000F91480917B017801811581F08091290593
:1044D0008F5F833008F080E010927B018093290584
:1044E00080E00E944F0E81E00E944F0E109129053E
:1044F000113009F46CC0123009F4BBC0111155C061
:1045000080916901811571F01092690180912A05ED
:10451000811102C080912E05815080932A0581E08F
:104520000E944F0E80916001811591F01092600100
:1045300020912A0580912E058150990B2817190684
:1045400011F011E0120F10932A0581E00E944F0E26
:1045500080913405811549F11C821B821E821D82C7
:104560001A82198268E473E0CE0101960E94F91460
:1045700009811A81AE014F5F5F4F60E082E00E94C7
:104580006A07C8010E940D10A70161E082E00E9445
:104590006A0740912A0580E1489FA00111244451F7
:1045A0005E4F61E086E00E9455078B899C89689682
:1045B0000FB6F894DEBF0FBECDBFDF91CF911F9134
:1045C0000F91FF90EF90DF90CF900C940D108091A1
:1045D0006901811509F445C01092690180914E016D
:1045E00091E0892780934E01809134058115E9F28D
:1045F0001C821B821E821D821A82198267E373E06D
:104600008E010F5F1F4FC8010E94F914C980DA8024
:10461000A80160E082E00E946A07C6010E940D10B6
:10462000A70161E082E00E946A0780914E0163E386
:1046300073E0811102C06FE273E01C821B821E8254
:104640001D821A821982C8010E94F914E980FA8039
:10465000A80161E086E00E946A07C7010E940D1070
:10466000A4CF80916001811509F4BECF1092600142
:10467000B5CF80916901811539F11092690180915E
:104680001101898380914E018A83AE014F5F5F4F94
:1046900063E080E00E94DC170E94D40C188A1F8619
:1046A0001A8A198A1E861D8667E273E0CE010D966E
:1046B0000E94F9140D851E8561E0CE010D960E94C1
:1046C000AA17C8010E940D10809160018115D1F0D8
:1046D000109260018BE090E0909329078093280767
:1046E000E091110180E1E89FF0011124E551FE4FB6
:1046F0000684F785E02D09958DE090E090932907D9
:104700008093280780913405811509F44ECF1C82CF
:104710001B821E821D821A82198266E173E0CE011D
:1047200001960E94F91409811A81AE014F5F5F4F13
:1047300060E082E00E946A07C8010E940D101C829E
:104740001B821E821D821A82198265E073E0CE01EF
:1047500001960E94F91409811A81AE014F5F5F4FE3
:1047600061E082E00E946A07C80178CFEF92FF9271
:104770001F93CF93DF9300D000D000D0CDB7DEB72A
:10478000182FE091AE06813039F18DEF810F843022
:1047900018F1EE3008F11C821B821E821D821A82E3
:1047A00019826DE970E0CE0101960E94F914E9804A
:1047B000FA8061E0CE0101960E94AA17C7010F900E
:1047C0000F900F900F900F900F90DF91CF911F914E
:1047D000FF90EF900C940D1085E0E89FF0011124FC
:1047E000E155F94F408351836283738314831C82A4
:1047F0001B821E821D821A82198264E970E0CE013A
:1048000001960E94F914E980FA8060E0CE010196D9
:104810000E94AA17C7010E940D10812F0E94EB1061
:104820006CE870E081E196E00E945C118091AE0638
:104830008F5F8093AE060F900F900F900F900F90A8
:104840000F90DF91CF911F91FF90EF9008954F92BD
:104850005F926F927F928F929F92AF92BF92CF9210
:10486000DF92EF92FF920F931F93CF93DF93CDB719
:10487000DEB766970FB6F894DEBF0FBECDBFE091EE
:104880002807F0912907EC30F10508F0DEC1E65D5C
:10489000F94B0C947D3D0E94200B8CE090E06696D5
:1048A0000FB6F894DEBF0FBECDBFDF91CF911F9141
:1048B0000F91FF90EF90DF90CF90BF90AF909F90BF
:1048C0008F907F906F905F904F900C94CF0586E310
:1048D00095E00E94091282EA95E00E9409128CE696
:1048E00095E00E9409120E94200B19821A821B82F5
:1048F0001C82AE014F5F5F4F60E081E00E94910F2C
:10490000811591F15B814C81298130E0ACE3B0E00D
:104910000E94E0442A81620F711D811D911D9B013F
:10492000A8EEB3E00E94E044609336017093370133
:104930008093380190933901252F30E00E94E044A4
:104940006B017C01242F30E0A4E6B0E00E94E0443B
:10495000C60ED71EE81EF91EC0923201D092330156
:10496000E0923401F092350124E030E03093D90533
:104970002093D8058FE68093E2053093E4052093D9
:10498000E3058093ED0580E090E089CF809184017C
:10499000811509F449C0109284010E94470E1C82BF
:1049A0001B821E821D821A82198260EB7AE0CE0180
:1049B00001960E94F91409811A81CE0101960E9484
:1049C000D907C8010E940D101C821B821E821D8205
:1049D0001A82198261EA7AE0CE0101960E94F914E6
:1049E00009811A81AE014F5F5F4F62E083E00E9450
:1049F0006A07C8010E940D101C821B821E821D8244
:104A00001A8219826DE87AE0CE0101960E94F914AB
:104A100009811A81AE014F5F5F4F63E080E00E9421
:104A20006A07C8010E940D1080917201811509F476
:104A30000CC11092720185E090E031CF8091840129
:104A4000811509F49DC01092840181E080932707AD
:104A50000E94470E1C821B821E821D821A821982AE
:104A600067E87AE0CE0101960E94F91409811A8163
:104A7000CE0101960E94DD07C8010E940D101C8224
:104A80001B821E821D821A82198262E77AE0CE01A1
:104A900001960E94F91409811A81AE014F5F5F4FA0
:104AA00062E080E00E946A07C8010E940D101C822B
:104AB0001B821E821D821A82198263E67AE0CE0171
:104AC00001960E94F91409811A81AE014F5F5F4F70
:104AD00063E083E00E946A07C8010E940D101092F3
:104AE000DA051092DB051092DC051092DD051092BC
:104AF000DE051092DF051092E0051092E10510929C
:104B0000E5051092E6051092E7051092E80510926F
:104B1000E9051092EA051092EB051092EC0510924F
:104B2000D9051092D8058BE68093E2051092E40532
:104B30001092E3058093ED056EED75E08AED95E04A
:104B40000E94360680E20E94DE0D40913A0550E058
:104B500066E672E08CE595E00E9432414091A60540
:104B600050E062E271E088EC95E00E9432414091B1
:104B7000700550E062E171E082E995E00E94324107
:104B800080912707811581F10E94C305AB01BC010B
:104B90008091320190913301A0913401B09135019F
:104BA00000912A0710912B0720912C0730912D0797
:104BB000800F911FA21FB31F84179507A607B70781
:104BC00098F4109227071091E205612F86E395E093
:104BD0000E945B0E612F82EA95E00E945B0E612FBE
:104BE0008CE695E00E945B0E80917201811519F0B0
:104BF00010927201C8CE80916901811529F010923E
:104C0000690188E090E04BCE8DE10E94280B892B52
:104C1000C1F380916001811519F010926001F1CF0C
:104C20008EE10E94280B892B61F380915701811539
:104C300019F010925701E5CF8FE10E94280B892BC4
:104C400001F380917B01811117C066960FB6F8942D
:104C5000DEBF0FBECDBFDF91CF911F910F91FF90AF
:104C6000EF90DF90CF90BF90AF909F908F907F900C
:104C70006F905F904F90089510927B010E94F30512
:104C80001C821B821E821D821A82198265E57AE0CF
:104C9000CE0101960E94F91409811A8161E0CE01CA
:104CA00001960E941811C8010E940D100E94BF2099
:104CB00040917C0150917D0160917E0170917F0156
:104CC00081E00E94B62380917C0190917D01A091AA
:104CD0007E01B0917F018093DA059093DB05A0936C
:104CE000DC05B093DD058093E5059093E605A09380
:104CF000E705B093E80521E030E03093D905209333
:104D0000D80588E68093E2053093E4052093E30517
:104D10008093ED0582E090E0C2CD80918401811501
:104D2000C1F0109284011C821B821E821D821A8295
:104D3000198267E47AE0CE0101960E94F914098194
:104D40001A8161E0CE0101960E941811C8010E94EB
:104D50000D108091720181114BCF8DE10E94280BC3
:104D6000892B09F0A2C085E090E09093D90580934B
:104D7000D805805A9D4FFC0180818093E2058EE129
:104D80000E94280B892B09F093C085E090E0909356
:104D9000E4058093E305805A9D4FFC018081809358
:104DA000ED058FE10E94280B8C018091D805909130
:104DB000D905059709F07FC01C821B821E821D82C7
:104DC0001A82198261E47AE0CE0101960E94F914F8
:104DD000E980FA80BE016F5F7F4F82EA95E00E9412
:104DE0009B05C7010E940D108091E3059091E40599
:104DF000059709F065C01C821B821E821D821A82E3
:104E000019826BE37AE0CE0101960E94F914E980E1
:104E1000FA80BE016F5F7F4F8CE695E00E949B0594
:104E2000C7010E940D108091D8059091D90520915D
:104E3000E3053091E405822B932B1C821B821E829A
:104E40001D821A821982892B09F03FC001151105B4
:104E500009F43BC060E37AE0CE0101960E94F914A8
:104E600009811A8161E0CE0101960E941811C801E2
:104E70000E940D1086E395E00E940912809169015D
:104E8000811110926901809160018111109260017D
:104E900080917B01811110927B01809157018111DA
:104EA0001092570181E090E0FACC80E090E05DCF75
:104EB00080E090E06CCF82EA95E00E94091294CFE6
:104EC0008CE695E00E940912AECF6AE27AE0CE014C
:104ED00001960E94F914E980FA80BE016F5F7F4F4E
:104EE00086E395E00E949B05C7010E940D1082E0B9
:104EF0000E944F0E1C821B821E821D821A82198202
:104F00006BE17AE0CE0101960E94F914E980FA8003
:104F1000AE014F5F5F4F62E080E00E946A07C70109
:104F20000E940D10E3E1012B21F48DE480936907C9
:104F3000E2E18091E3059091E405059741F4AE2FFD
:104F4000B0E0A25DB84F80E598968C93E1508091D7
:104F5000D8059091D905059729F4F0E0E25DF84F66
:104F60008CE480A780913505811509F46ECE24E686
:104F700030E040E550E060ED77E083E066960FB604
:104F8000F894DEBF0FBECDBFDF91CF911F910F917F
:104F9000FF90EF90DF90CF90BF90AF909F908F9059
:104FA0007F906F905F904F900C94B70C809184012C
:104FB0008115C9F0109284010E94470E1C821B8249
:104FC0001E821D821A82198265E17AE0CE01019665
:104FD0000E94F91409811A81CE0101960E94E1070D
:104FE000C8010E940D108091D8059091D9050197B4
:104FF00009F073C080916901811509F46EC01092A7
:10500000690140916A0150916B0160916C0170914E
:105010006D014093DE055093DF056093E0057093CA
:10502000E10582E090E09093D9058093D8058BE666
:105030008093E20583E00E94B62361E08FE00E9446
:10504000920A6EED75E08AED95E00E94360680E2E8
:105050000E94DE0D6091E20582EA95E00E945B0EFF
:105060008AE3809341014AE351E062E086E00E94D6
:1050700055071C821B821E821D821A82198269E5D5
:1050800079E0CE0101960E94F91409811A81AE01DE
:105090004F5F5F4F62E080E00E946A07C8010E9494
:1050A0000D101C821B821E821D821A8219826EE4E0
:1050B00079E0CE0101960E94F91409811A8160E01D
:1050C000CE0101960E941811C8010E940D106AE3DA
:1050D00071E081E196E00E9450118091E30590918A
:1050E000E405019709F073C080916001811509F40E
:1050F0006EC0109260014091610150916201609117
:105100006301709164014093E9055093EA0560934F
:10511000EB057093EC0582E090E09093E4058093BA
:10512000E3058BE68093ED0584E00E94B62361E001
:1051300082E10E94920A69EE75E085EE95E00E9498
:10514000360680E20E94DE0D6091ED058CE695E06A
:105150000E945B0E8AE3809341014AE351E063E0E1
:1051600086E00E9455071C821B821E821D821A82C5
:1051700019826AE679E0CE0101960E94F91409814C
:105180001A81AE014F5F5F4F63E080E00E946A07C3
:10519000C8010E940D101C821B821E821D821A8271
:1051A00019826EE579E0CE0101960E94F914098119
:1051B0001A8160E0CE0101960E941811C8010E9478
:1051C0000D106AE371E081E196E00E945011809138
:1051D000D8059091D905029709F048C08091E30560
:1051E0009091E405029709F041C01C821B821E8247
:1051F0001D821A82198260E779E0CE0101960E9431
:10520000F91409811A81CE0101960E94DD07C801B7
:105210000E940D108091E9059091EA05A091EB059F
:10522000B091EC054091DE055091DF056091E005FD
:105230007091E105481759076A077B0790F469EEFA
:1052400075E085EE95E00E94360680E20E94DE0D54
:105250006091E20586E395E00E945B0E84E090E0B9
:105260001ECB6EED75E08AED95E0EDCF1091340523
:10527000111509F443C00E94C30569837A838B83A7
:105280009C83BE016F5F7F4F85EE95E00E943606DE
:1052900080E20E94DE0D8091E3059091E405019784
:1052A00099F41091ED05612F8CE695E00E945B0E5C
:1052B000612F86E395E00E945B0E4AE351E063E0D4
:1052C00086E00E94550710E08091D8059091D9059D
:1052D0000197A1F40091E205602F82EA95E00E9417
:1052E0005B0E111559F0602F86E395E00E945B0E6E
:1052F0004AE351E062E086E00E9455078091570141
:105300008115D9F1109257011C821B821E821D82C9
:105310001A8219826DE07AE0CE0101960E94F9149A
:1053200009811A8161E0CE0101960E941811C8011D
:105330000E940D10409158015091590160915A01FD
:1053400070915B0182E00E94B62368E571E085EE12
:1053500095E00E94360680E20E94DE0D8AE380938B
:1053600041014AE351E061E086E00E94550748EFC1
:1053700052E061E080E00E94550780917201811542
:1053800009F463CC109272011C821B821E821D8262
:105390001A8219826EEF79E0CE0101960E94F9140B
:1053A00009811A8161E0CE0101960E941811C8019D
:1053B0000E940D104091730150917401609175012C
:1053C0007091760186E00E94B6231C821B821E82A9
:1053D0001D821A82198261EF79E0CE0101960E9446
:1053E000F91409811A81CE0101960E94DD07C801D6
:1053F0000E940D1022E030E03093D9052093D805AB
:105400008BE68093E2053093E4052093E3058093D7
:10541000ED0524CF809184018115D1F01092840193
:105420001C821B821E821D821A82198262EE79E022
:10543000CE0101960E94F91409811A8161E0CE0122
:1054400001960E941811C8010E940D100E94F412CA
:1054500080917201811509F4F8CB109272010E94BB
:10546000200B91CA80918401811509F49DC010928E
:10547000840181E0809327071092DA051092DB0502
:105480001092DC051092DD05809136019091370174
:10549000A0913801B09139018093DE059093DF052A
:1054A000A093E005B093E1051092D9051092D805BC
:1054B0008BE68093E2051092E4051092E305809359
:1054C000ED056EED75E08AED95E00E94360680E20E
:1054D0000E94DE0D109244010E94470E1C821B8226
:1054E0001E821D821A8219826AED79E0CE01019630
:1054F0000E94F91409811A81CE0101960E94DD07EC
:10550000C8010E940D104AE351E062E08AE00E9467
:1055100055071C821B821E821D821A8219826BEC27
:1055200079E0CE0101960E94F91409811A81AE0139
:105530004F5F5F4F62E080E00E946A07C8010E94EF
:105540000D101C821B821E821D821A82198266EB3C
:1055500079E0CE0101960E94F91409811A81AE0109
:105560004F5F5F4F63E080E00E946A07C8010E94BE
:105570000D1087E0E9E0F3E0DE01119601900D9255
:105580008A95E1F787E0FE013196A2E9B5E0019046
:105590000D928A95E1F787E0FE013196ACE5B5E022
:1055A00001900D928A95E1F780912707811509F105
:1055B0000E94C305AB01BC0180913201909133017F
:1055C000A0913401B091350100912A0710912B0769
:1055D00020912C0730912D07800F911FA21FB31F20
:1055E000481759076A077B0720F0109227070E9487
:1055F000111280916901811541F110926901809128
:10560000360190913701A0913801B0913901813371
:10561000F5E79F07A105B10508F459C080539547E8
:10562000A109B1098093360190933701A093380105
:10563000B093390181E08093840110922A0710927F
:105640002B0710922C0710922D0780916001811575
:1056500061F1109260018091360190913701A09123
:105660003801B0913901813922EB920728E0A20775
:10567000B10520F080E992EBA8E0B0E0805D9A48A7
:10568000AF4FBF4F8093360190933701A0933801FD
:10569000B093390181E08093840110922A0710921F
:1056A0002B0710922C0710922D0780917B018115FA
:1056B00031F010927B0186E090E00E94CF0580914E
:1056C0007201811509F4C1CA10927201EBCB80E31B
:1056D00095E7A0E0B0E0A6CF80918401811509F4A0
:1056E0005BC00E94F305109284011C821B821E8203
:1056F0001D821A82198266EA79E0CE0101960E9423
:10570000F91409811A8161E0CE0101960E941811F5
:10571000C8010E940D100E94470E1C821B821E822F
:105720001D821A8219826EE979E0CE0101960E94EB
:10573000F91409811A81CE0101960E94E107C8017E
:105740000E940D1081E090E09093E4058093E305C2
:1057500088E68093ED050E94C305462F572FBC01B4
:105760004093E5055093E6056093E7057093E805DF
:105770008091DE059091DF05A091E005B091E105F3
:10578000840F951FA61FB71F8093E9059093EA0524
:10579000A093EB05B093EC05809172018115D9F0CF
:1057A000109272011C821B821E821D821A82198233
:1057B0006EE879E0CE0101960E94F91409811A8100
:1057C00061E0CE0101960E941811C8010E940D10DF
:1057D0000E94D40C67CB80913405811509F435CA39
:1057E0000E94C305462F572FBC014093E5055093F7
:1057F000E6056093E7057093E8058091E9059091CF
:10580000EA05A091EB05B091EC0584179507A60772
:10581000B707C0F066960FB6F894DEBF0FBECDBFD7
:10582000DF91CF911F910F91FF90EF90DF90CF907C
:10583000BF90AF909F908F907F906F905F904F90B0
:105840000C9411121C821B821E821D821A821982E4
:105850006EE779E0CE0101960E94F91409811A8160
:1058600061E0CE0101960E941811C8010E940D103E
:1058700081E090E00E94CF0520E030E040ED57E06D
:1058800068EC70E081E07ACBC0903601D0903701AF
:10589000E0903801F090390160913201709133014C
:1058A000809134019091350128EE822E23E0922ED2
:1058B000A12CB12CA50194010E943C3D29013A0183
:1058C0006B8B7C8B8D8B9E8BC701B60120E63AEEED
:1058D00040E050E00E943C3D2983C701B601A5018C
:1058E00094010E943C3D6CE3862E912CA12CB12C9E
:1058F000CA01B901A50194010E943C3D6A83C3011C
:10590000B201A50194010E943C3D6B836B897C89A7
:105910008D899E8924E630E040E050E00E943C3DC5
:105920002C83AE014F5F5F4F60E081E00E94DC1787
:10593000811509F48AC90E94D40C188A1F861A8A14
:10594000198A1E861D8660E073E0CE010D960E94C6
:1059500055100D851E8561E0CE010D960E9418112F
:10596000C80166960FB6F894DEBF0FBECDBFDF91BB
:10597000CF911F910F91FF90EF90DF90CF90BF904C
:10598000AF909F908F907F906F905F904F900C940E
:105990000D100F931F93CF93DF9300D000D000D052
:1059A000CDB7DEB780912807909129078430910503
:1059B00009F497C2B0F48130910509F4AFC0823088
:1059C000910509F472C1892B09F450C00F900F9012
:1059D0000F900F900F900F90DF91CF911F910F912B
:1059E00008958930910581F00A9781F78CE090E065
:1059F0000F900F900F900F900F900F90DF91CF911D
:105A00001F910F910C94CF0586E395E00E94091237
:105A100082EA95E00E9409128CE695E00E94091244
:105A20000E94200B40913A0550E066E672E08CE55A
:105A300095E00E9432414091700550E062E171E0D2
:105A400082E995E00E94324124E030E03093D905AC
:105A50002093D8058FE68093E2053093E4052093E8
:105A6000E3058093ED0580E090E0C2CF8091840152
:105A7000811509F449C0109284010E94470E1C82CE
:105A80001B821E821D821A82198263E479E0CE0194
:105A900001960E94F91409811A81CE0101960E9493
:105AA000D907C8010E940D101C821B821E821D8214
:105AB0001A82198264E379E0CE0101960E94F914FA
:105AC00009811A81AE014F5F5F4F62E083E00E945F
:105AD0006A07C8010E940D101C821B821E821D8253
