:100000000C9477050C94A1050C94A1050C94A10502
:100010000C9499340C94A1050C94A1050C94A105A1
:100020000C94A1050C94F4350C94A1050C94A10535
:100030000C94A1050C943F330C94A1050C94A105DC
:100040000C94A1050C94A1050C9404350C94A10505
:100050000C944C350C9476350C94A1050C94A105A8
:100060000C94A1050C94A1050C946E330C94A1057D
:100070000C94A0350C94CA350C94A1050C94A105E0
:100080000C94A1050C94A1050C94A10520756C6F2E
:100090007A656E004C6F672074797023004E617032
:1000A0006C6E656E6F206D6178207A617A6E616D1D
:1000B000752E204E45554C4F5A454E4F003D3D3D07
:1000C000204B6F6E6563207A617A6E616D75203D9D
:1000D0003D3D0A004361733A20202020202020006B
:1000E000446174756D3A2020202020002D2D2D2D87
:1000F0002D2D2D2D2D2D2D2D2D2D2D2D2D2D2D2D30
:100100002D005679736C6564656B3A20204E45521C
:100110004F5A484F444E4500526F7A64696C3A20FA
:1001200020202000566974657A3A20202020205033
:100130005241564120445241484100526F7A64690D
:100140006C3A2020202000566974657A3A202020DD
:1001500020204C4556412044524148410050726194
:100160007679206361733A20004C6576792063616B
:10017000733A2020002D2D2D20536F7568726E204C
:100180007A61766F6475202D2D2D005245534554AC
:100190000043494C0043494C2050524156412044B1
:1001A000524148410043494C204C4556412044525D
:1001B000414841004D455A4943415300535441522F
:1001C00054000A3D3D3D205A617A6E616D207A618E
:1001D000766F6475203D3D3D001209120912091227
:1001E0000009120912091209000000120912000088
:1001F00000000009120900000000001E0F1E000090
:100200000000000F1E0F000000181C1E1F1E1C18EF
:10021000004368796261206B6F6E66696775726111
:10022000636520646973706C656A65203200436899
:10023000796261206B6F6E666967757261636520B4
:10024000646973706C656A652031004B6F6E666916
:1002500067757261636520646973706C656A7500A7
:10026000525443206E6572656167756A6500537408
:100270006172742000533E4D6F7A6E6F7374692003
:100280004C2F503E566F6C6261000200002000232C
:1002900000260029000000000203000A0B000000F5
:1002A0000005040908000000000000000000000034
:1002B000000000000000002200250028002B0000A4
:1002C000002100240027002A00020202020202028A
:1002D00002040404040404040403030303030303E7
:1002E0000301010101010101010102040810204084
:1002F0008001020408102040800102040810204000
:100300008001020408102040801F1C1F1E1F1E1F9A
:100310001F1E1F1E53797374656D003E20004C3EF6
:1003200053797374656D20503E4D6F64756C005544
:100330006C6F7A6974206E6173746176656E6900A2
:10034000556C6F7A656E6F00567970005A61700057
:100350005A6F6272617A206361732070756C7A756E
:1003600000507265706E757469206D6F64756C7580
:10037000002D2D3E002720616B7469766E69004D5B
:100380006F64756C202700202068656C7020202029
:10039000202020202020202020202020202020205D
:1003A00020202D207461746F206E61706F766564FB
:1003B00061002020696E666F2020202020202020F0
:1003C000202020202020202020202020202D207AC6
:1003D0006F6272617A69207564616A65206F206856
:1003E000617264776172652F6669726D776172659B
:1003F00000202070657266203C317C303E20202039
:100400002020202020202020202020202D207A6144
:10041000702F767970207A6F6272617A6F76616E72
:100420006920727963686C6F7374692070726F678A
:1004300072616D7500202072746320595959592DCD
:100440004D4D2D44442048483A4D4D3A53532020B9
:100450002D206E617374617669206361732076204C
:1004600052544300202064656C203C6D3E203C6B60
:100470003E20202020202020202020202020202D51
:1004800020736D617A65207A617A6E616D203C6DB2
:100490006F64756C3E203C6B6C69633E002020737A
:1004A0006574203C6D3E203C6B3E2048205B2C4810
:1004B0002C482E2E2E5D20202D206E6173746176C7
:1004C000692070726F203C6D6F64756C3E203C6BD0
:1004D0006C69633E20617A20313220686F646E6FF0
:1004E0007420302D323535002020736574203C6D2A
:1004F0003E203C6B3E202274657874222020202010
:100500002020202D206E6173746176692070726FD7
:10051000203C6D6F64756C3E203C6B6C69633E20C3
:10052000617A203132207A6E616B750020206C690F
:100530007374205B6D5D205B6B5D2020202020208C
:10054000202020202020202D2076797069736520BE
:100550007A617A6E616D792028767365207C206AD5
:100560006564656E206D6F64756C207C206A656EB5
:10057000206D6F64756C2B6B6C6963000A50726937
:100580006B617A793A00202020204C6F67207A61D5
:100590007A6E616D753A200020202020506F6365CF
:1005A00074206D6F64756C753A2000290031363AFD
:1005B00031313A30330041756720323520323032E4
:1005C00035002028002B7635302D323058342D3030
:1005D0007833462D72746300524D5320302E330011
:1005E00046573A200053616B756C2053746F706BE3
:1005F000792076352E300048573A2000205A616421
:10060000656A202768656C70272E004368796261EF
:100610002E004E657A6E616D79207072696B617A19
:100620002E004361732076205254433A20004E65D9
:100630006E616C657A656E6F2E20005A617A6E610C
:100640006D20736D617A616E2E0043687962612E50
:100650002028486F646E6F747920707265732074FF
:100660006578743F290043687962612E20285465BB
:100670007874207072657320686F646E6F74793F50
:1006800029004F4B2E205465787420756C6F7A6565
:100690006E2E00436879626E792076737475702EC1
:1006A000004E616C657A656E6F3A20002D2D2D2D00
:1006B0002D2D2D2D2D2D2D2D2D2D2D00202000000B
:1006C00020002020000020002020000020002D2DF0
:1006D0002D2D2D2D2D2D2D2D2D2D2D2D2D004D6F15
:1006E00064756C204B6C69632044617461005072C6
:1006F000696A61746F2027002D2D35352D2D20005E
:100700005465726D696E616C3A202768656C70275C
:100710000053657269616C203131353230302F38C9
:100720002F31626974004E6173746176656E690081
:100730004A6520746F20616C65206A656E2064656F
:100740006D6F206120646F2070616D657469206E2B
:10075000657A61706973756A652E0044656D6F20F6
:10076000646F7374616C6F20706F6B796E20756C41
:100770006F7A697420737665206E61737461766533
:100780006E692E0053746F706B7900557074696DCB
:10079000650044656D6F005B2020202020203237EB
:1007A0007833376D733D3939396D7320202020201F
:1007B000205D202020204361732070726920277CF7
:1007C00027002D2D3E207465726D696E616C0044AA
:1007D000656D6F0044656D6F206B6F6E63690048D7
:1007E0004F44494E59005A61646F7374206F2076EC
:1007F00079706973005A727573656E6F004D65721A
:10080000656E69207A727573656E6F004D657A69E1
:10081000636173004C2F503E556B6F6E63692020EF
:10082000523E5A72757369740053746F706B79001D
:1008300053746F706B79207370757374656E790083
:100840005265736574203E205A7061746B79005351
:1008500074617274203E205A6168616A69207A610D
:10086000766F640053544F504B5900446C6F757A47
:1008700065205265736574203E204D656E7500528B
:1008800065736574203E2046756E6B636500535436
:100890004F504B5920532D4C5000556B6F6E636574
:1008A0006E6F00556B6F6E63656E6F005A61646F9B
:1008B0007374206F207679706973005A727573654E
:1008C0006E6F004D6572656E69207A727573656E24
:1008D0006F004D657A6963617300533E556B6F6EAF
:1008E000636920202020523E5A7275736974005348
:1008F000746F706B790053746F706B7920737075BF
:100900007374656E79005265736574203E205A7069
:1009100061746B79005374617274203E205A61686F
:10092000616A69207A61766F640053544F504B5965
:1009300000446C6F757A65205265736574203E20A3
:100940004D656E75005265736574203E2046756E68
:100950006B63650053544F504B5920532D53004C3B
:10096000657661206472616861004C657661005053
:1009700072617661206472616861005072617661B3
:10098000005A61766F6420736B6F6E63696C004F01
:1009900064706F63657420736B6F6E63696C005A6B
:1009A000727573656E69206F64706F637475004F44
:1009B00064706F636574005A6168616A656E206F68
:1009C00064706F6365740052657365743E204D6595
:1009D00072656E69207A61766F6475005374617216
:1009E000743E205A6168616A6974004F44504F43F5
:1009F0004554005A61646F7374206F207679706972
:100A000073005A61766F64207A727573656E004D5B
:100A10006572656E69207A727573656E6F004D65DB
:100A20007A69636173005A61766F64004348594282
:100A3000412053454E5A4F52553A00202D452D2006
:100A4000004B6F6E63616B79204F4B00202D452D5D
:100A50002000202D452D20004348594241206B6F36
:100A60006E63616B75005A61766F64207A616861AC
:100A70006A656E005265736574203E205A70617419
:100A80006B79005374617274203E205A6168616A08
:100A900069207A61766F64005A41564F4400446C75
:100AA0006F757A65205265736574203E204D656EC2
:100AB00075005265736574203E2046756E6B6365E4
:100AC0000053544F504B592048550050756C7A20B4
:100AD000004C6F672070726970726176656E0045B8
:100AE0004550524F4D20706C6E612100013D112424
:100AF0001FBECFEFD0E4DEBFCDBF13E0A0E0B1E07A
:100B0000EAE6F3E900E00BBF02C007900D92A233C2
:100B1000B107D9F727E0A2E3B3E001C01D92AB37DC
:100B2000B207E1F715E0C7E7D5E004C02197FE0161
:100B30000E94213EC637D107C9F70E9454360C9453
:100B400097490C940000CF93DF93FC01DB015481A3
:100B5000369614968C9114978150990B40E054135B
:100B600003C0DF91CF91089514962D913C91159774
:100B70008217930770F42D913C911197211531053F
:100B800041F0280F391FE901288121934F5F019718
:100B9000E6CF20E0FACF2FB7F89460911C07709150
:100BA0001D0780911E0790911F072FBF0895CF93B7
:100BB000DF93D82FC92F0E94CB0560932307709332
:100BC00024078093250790932607D0932107C0938D
:100BD000220781E080937D0110922007109274011A
:100BE00010926B0110926201109259011092500103
:100BF000DF91CF9108958FB7F89410921B07109250
:100C00001A07109219079DE090934F011092180750
:100C10008FBF08954F925F926F927F92AF92BF9273
:100C2000CF92DF92EF92FF920F931F93CF93DF93B8
:100C3000FB01C080D180E280F380FC018081918142
:100C4000A281B381C81AD90AEA0AFB0AC701B60110
:100C500028EE33E040E050E00E94E03D8B01C7E029
:100C6000D7E07D836C838CE3482E512C612C712C52
:100C7000CA01B901A30192010E94E03DB62E6B8327
:100C8000CA01B901A30192010E94E03DA62E6A8328
:100C9000C701B60120E83EEE46E350E00E94E03D89
:100CA000F90139832883C90168EE73E00E94CC3DC5
:100CB0006E8394E6E92EF12CCF01B7010E94CC3D62
:100CC000CB012AE030E0B9010E94CC3D8F83CF01F7
:100CD000B9010E94CC3D482FCB01B9010E94CC3D07
:100CE000888749874AE08A2D642F0E94C03D8A8701
:100CF0009B878B2D0E94C03D8C879D87C801B701C3
:100D00000E94CC3D6E87C801B9010E94CC3D482F9E
:100D1000CB01B9010E94CC3D8F87488BDF91CF91E9
:100D20001F910F91FF90EF90DF90CF90BF90AF9009
:100D30007F906F905F904F90089580911C079091E5
:100D40001D07A0911E07B0911F078093090690937D
:100D50000A06A0930B06B0930C0680918400909134
:100D60008500909308068093070681E0809306062D
:100D7000089580911C0790911D07A0911E07B091C6
:100D80001F078093020690930306A0930406B09376
:100D900005068091840090918500909301068093D0
:100DA000000681E08093FF05089580911C079091D3
:100DB0001D07A0911E07B0911F078093FB0590931C
:100DC000FC05A093FD05B093FE05809184009091F1
:100DD00085009093FA058093F90581E08093F805EA
:100DE000089580911C0790911D07A0911E07B09156
:100DF0001F078093F4059093F505A093F605B09333
:100E0000F70580918400909185009093F30580937D
:100E1000F20581E08093F105089580911C0790917F
:100E20001D07A0911E07B0911F078093ED059093B9
:100E3000EE05A093EF05B093F005809184009091AA
:100E400085009093EC058093EB0581E08093EA05A3
:100E50000895FA0190E024E1629FB00111242191EC
:100E6000211519F08431910509F40895DC01A60FCC
:100E7000B71FA95DB84F2C930196F1CFCF93DF93A5
:100E8000DA0114962C91149794E1981B291708F411
:100E9000922FE82FF0E084E1689FE00DF11D11240E
:100EA000E95DF84F20E030E0291718F0DF91CF918D
:100EB000089514964D915C9115972417350770F499
:100EC0004D915C9111974115510541F0420F531F0F
:100ED000EA01888181932F5F3F4FE6CF80E0FACF10
:100EE0000F931F93CF93DF938C01C42F062E000C1A
:100EF000770B4AE050E087E297E00E9491446C2F24
:100F0000CC0F770B4AE050E081E397E00E949144D8
:100F1000D80114968D919C91C4E1D0E0C81BD90BE7
:100F2000D695C795C43128F4A80160E08C2F0E94A3
:100F30003E07DD27FE01EA5DF84F80E28083D8019D
:100F40001496ED91FC91E95DF84FEC0FFD1F808345
:100F5000DF91CF911F910F91089542E061E00C94D1
:100F6000700744E063E00C94700746E065E00C9481
:100F7000700780E090E00895089508950895DC01D9
:100F8000ED91FC910684F785E02D40E00994DC01A9
:100F9000ED91FC910684F785E02D41E0099581E013
:100FA00090E00895DC0181E001C0880F6A95EAF7BE
:100FB0001C968C931C971A965C934E931997ED91FF
:100FC000FC9111970484F585E02D60E0CD01099432
:100FD0008091F4049091F304891B990B08959091EA
:100FE000F3048091F4042FEF3FEF981748F4E92FB2
:100FF000F0E0ED52FB4F208130E09F5F9093F304CF
:10100000C9010895E091F3048091F404E81730F4E5
:10101000F0E0ED52FB4F808190E008958FEF9FEF5D
:1010200008950895089508952091D204260F332736
:10103000331F21323105ECF42091D104FC0180E012
:1010400090E0243069F082E00895A091D2042191CB
:10105000AC014F545B4FA40FB52FB11D2C930196DB
:10106000861798F38091D204680F6093D20480E0D1
:10107000089581E00895CF93DF930F92CDB7DEB747
:10108000FC016983809118058115F1F080911505A7
:10109000803250F081E090E09383828380E090E0A2
:1010A0000F90DF91CF91089580911605E82FF0E021
:1010B000EB50FB4F998190838F5F8093160580934F
:1010C000150581E090E0ECCF61E0CE0101960E9431
:1010D0001408F7CFCF92DF92EF92FF920F931F93F6
:1010E000CF93DF937C01CB018A0120911805211554
:1010F000D9F0EB016B01C40ED51ECC15DD0551F402
:10110000C801DF91CF911F910F91FF90EF90DF9079
:10111000CF9008956991D701ED91FC910190F081F4
:10112000E02DC7010995E9CF642F0E941408E8CF8C
:1011300085ED8093BC008091BC0084FDFCCF1092B3
:10114000D10408959C0150E0E9E0F3E081E08617C6
:10115000F8F0633038F0C90183709927892B11F4B6
:101160004F5F5F4FC9010396969587959695879532
:10117000EDE6F1E02E9FB0012F9F700D3E9F700DA8
:10118000112461507109860F971F840F951F0895D0
:101190009491490F511D8F5F3196D9CF1F93CF93F3
:1011A000DF93DC0152968D919C915397009751F4F7
:1011B00021E030E013963C932E931297DF91CF916C
:1011C0001F9108951D96ED91FC911E971C962C91F0
:1011D0001C97322F30957FB754964C915497142F0B
:1011E000127041FD21C0F894408143234083EC01FB
:1011F0002197F1F748E0508160FF1BC0522B5083CC
:10120000EC012197F1F766954A95A9F780811115B0
:1012100091F0832380837FBF52968D919C9101979B
:10122000F1F781E090E0CACF6095F8944081422BBD
:10123000DDCF5323E4CF822BEDCF8FEF9FEF0895C7
:1012400080E090E0089508953FB7F894809172048B
:1012500090917304A0917404B091750426B5A89B75
:1012600005C02F3F19F00196A11DB11D3FBFBA2F38
:10127000A92F982F8827BC01CD01620F711D811DF8
:10128000911D42E0660F771F881F991F4A95D1F77D
:1012900008954F925F926F927F928F929F92AF923A
:1012A000BF92CF92DF92EF92FF920F931F93CF9353
:1012B000DF938B01D82FC92F0E942409262F822E5D
:1012C000972E5C016801ED2EFC2E05C0C114D104DF
:1012D000E104F10409F10E9424092B013C014818A2
:1012E00059086A087B088601DE2DCF2D31E0C31A2C
:1012F000D108E108F108282D792DC50138EE830EBB
:1013000033E0931EA11CB11C38EE431633E05306A4
:1013100061047104D8F6D3CFDF91CF911F910F9163
:10132000FF90EF90DF90CF90BF90AF909F908F9005
:101330007F906F905F904F9008959C01019741F0CE
:10134000220F331F220F331FC90105970197F1F7B1
:101350000895CF93DF93EC01423018F08C818860C0
:101360008C834F836887211529F0413019F48C81D3
:1013700084608C8364E670E080E090E00E9449091C
:101380006C8164FD5BC0E881F9810684F785E02DFE
:1013900042E063E0CE01099584E991E10E949D0954
:1013A000E881F9810684F785E02D42E063E0CE0113
:1013B000099586E990E00E949D09E881F9810684FB
:1013C000F785E02D42E063E0CE01099586E990E0E3
:1013D0000E949D09E881F9810684F785E02D42E0AD
:1013E00062E0CE01099586E990E00E949D096C813A
:1013F0006062CE010E94BF078CE390E00E949D09CD
:1014000084E08D836CE0CE010E94BF0761E0CE01D5
:101410000E94BF0780ED97E00E949D0982E08E83C5
:1014200066E0CE010E94BF07E881F9810484F5855A
:10143000E02D6FEFCE01DF91CF9109946062CE0174
:101440000E94BF0784E991E10E949D096C8160625E
:10145000CE010E94BF0786E990E00E949D096C8141
:101460006062CE010E94BF07BECFCF93DF9390E0B2
:10147000FC01E751FD4F249187539D4FFC0184915E
:101480008115D1F090E0880F991FFC01E154FD4FC8
:10149000A591B591FC01EB54FD4FC591D5919FB736
:1014A000623069F4F8943C91822F809583238C9369
:1014B0008881822B88839FBFDF91CF910895F89414
:1014C0008C91822B8C93F7CF82508A3038F5E82F9D
:1014D000F0E0E156F64B0C94213E809180008F772E
:1014E000809380000895809180008F7DF9CF809156
:1014F000B0008F778093B00008958091B0008F7D09
:10150000F9CF809190008F7780939000089580911B
:1015100090008F7DF9CF84B58F7784BD089584B511
:101520008F7DFBCF1F93CF93DF93162F282F30E0B3
:10153000F901EB56FD4F8491F901E751FD4FD4912C
:10154000F901E753FD4FC491C115A1F081110E942B
:10155000640AEC2FF0E0EE0FFF1FEB54FD4FA59156
:10156000B5919FB7F8948C91111108C0D095D823EC
:10157000DC939FBFDF91CF911F9108958D2B8C93AA
:10158000F8CFDF92EF92FF920F931F93CF93DF93E9
:101590008C01D62ED0E0F8018481D81740F0DF917D
:1015A000CF911F910F91FF90EF90DF9008957801F8
:1015B000ED0EF11CF701C68186898C1302C0D1148F
:1015C000E9F19EE0C534C9F07CF4C03219F024F48E
:1015D000C11108C090E011C080ED8C0F91ED9C0FFF
:1015E0008A3058F09FE009C09CE0C03531F09DE0A2
:1015F000C53519F09BE0CC34A9F7F801A081B18181
:1016000062818381680F6D0F9295907F690FED91D4
:10161000FC9111970190F081E02DCD010995D11138
:101620000AC0F8018581811531F061E0C03209F40A
:1016300060E00E94920AF7018681868BDF5FABCF64
:1016400060E08FE00E94920A60E082E10C94920ACE
:10165000CF93DF93282F30E0F901EB56FD4F8491B3
:10166000F901E751FD4FD491F901E753FD4FC491C2
:10167000C11581F081110E94640AEC2FF0E0EE0F99
:10168000FF1FE557FD4FA591B591EC91ED2381E04A
:10169000E11101C080E090E0DF91CF910895FC015D
:1016A000A48DA80FB92FB11DA35ABF4F2C91848DC3
:1016B00090E001968F739927848FA689B7892C9320
:1016C000A089B1898C91837080648C93938D848D73
:1016D000981306C00288F389E02D80818F7D808376
:1016E0000895FC01818D228D90E0805C9F4F821BCC
:1016F00091098F73992708958DE096E00E94710BF0
:101700009C0181E0232B09F480E0089585ED93E0AE
:101710000E94710B9C0181E0232B09F480E0089565
:1017200080E090E0892B29F00E947C0B81110E94BF
:10173000000080E090E0892B29F00E94860B811147
:101740000C9400000895FC01918D828D981731F062
:10175000828DE80FF11D858D90E008958FEF9FEF4A
:101760000895FC01918D828D981761F0A28DAE0FC6
:10177000BF2FB11D5D968C91928D9F5F9F73928F4D
:1017800090E008958FEF9FEF0895FC01538D448DF5
:10179000842F90E0252F30E0821B930B541710F01C
:1017A000CF96089501970895CF93DF93EC01888D2C
:1017B00081110FC0DF91CF9108950FB607FC0DC0C6
:1017C0008C9185FF0AC0808185FF07C0CE010E94F1
:1017D0004F0BAA89BB89E889F9898C9185FDEDCFEA
:1017E000808186FFEACFE6CFEF92FF920F931F939F
:1017F000CF93DF93EC01F62E81E0888F9B8D8C8D4B
:1018000098131AC0E889F989808185FF15C09FB7B0
:10181000F894EE89FF896083E889F9898081837073
:10182000806480839FBF81E090E0DF91CF911F9122
:101830000F91FF90EF9008950B8D10E00F5F1F4FF9
:101840000F731127E02E8C8D8E1579F0EB8DEC0F38
:10185000FD2FF11DE35AFF4FF0829FB7F8940B8FD5
:10186000EA89FB8980818062DCCF0FB607FCEBCF71
:10187000E889F989808185FFE6CFCE010E944F0B70
:10188000E2CFFC01A089B1898C91A689B78982FD3C
:101890000FC09C91818D8F5F8F73228D821749F0CD
:1018A000A18DAE0FBF2FB11D5D969C93818F0895C2
:1018B0008C910895CF92DF92EF92FF920F931F9336
:1018C000CF93DF937C016A0100E010E00C151D0549
:1018D00051F4C801DF91CF911F910F91FF90EF90CC
:1018E000DF90CF900895EB01D701ED91FC9101902D
:1018F000F081E02D6991C7010995892B51F30F5FA4
:101900001F4FBE01E3CF90910001891310C0EAE898
:10191000F2E0E4919FEF90930001E23089F028F427
:10192000E11108C010926E0002C0E330D1F060E017
:101930000C94920A90916F009D7F90936F00F7CF67
:10194000909170009D7F9093700091E09093B00013
:101950009091B100987F94609093B1001092B30081
:10196000E6CF909171009D7F90937100E0CF8093BE
:10197000060770930507609304075093030740938D
:10198000020730930107209300070E94CB05609364
:10199000FC067093FD068093FE069093FF0610925E
:1019A000FB068CE00C94830C20E030E040E550E036
:1019B00064EC79E081E00C94B70C0F931F932FB780
:1019C000F8948091770490917804A0917904B09173
:1019D0007A042FBF8093150690931606A0931706DE
:1019E000B09318068DE096E00E94B10B8F3F9807E8
:1019F00021F52FB7F89440917704509178046091C5
:101A0000790470917A042FBF009115061091160683
:101A10002091170630911806401B510B620B730B77
:101A200000911106109112062091130630911406B0
:101A30004017510762077307A8F21F910F9108958D
:101A400090B190937F04EBE6F0E09081982B908327
:101A5000E8E6F0E08081816080830895FC01AC01BC
:101A6000425F5F4F8FEF9FEF2191922728E0BC01EB
:101A7000880F991F77FF04C031E2832730E1932755
:101A80002A95A9F74E175F0779F70895CF93DF934B
:101A9000EC010E942E0D9C0181E04E855F8542176E
:101AA000530709F080E0DF91CF9108952091070757
:101AB000309108072115310509F458C090910D07A0
:101AC000911509F44DC0905D90933A0190910E07E5
:101AD000911509F447C0905D90933B0190910F07D9
:101AE000911509F441C0905D90933C0190911007CD
:101AF000905D4AE390933D0140933E019091110720
:101B0000911102C0232B11F080E3890F80933F01D4
:101B100080911207805D809340018091150790E2CB
:101B2000853008F49AE39093410190911307905DFA
:101B30009093420190911407905D909343019EE22F
:101B400090934401805D8093450180911607805DEC
:101B50008093460180911707805D80934701089527
:101B6000982FB2CF982FB8CF982FBECF80933A013D
:101B700080933B0180933C01982F482FBBCF40E5D9
:101B800050E060E270E087E297E00C94914424E139
:101B9000829FC001112444E150E060E270E0895D61
:101BA000984F0C949144CF93DF939C010696F901D2
:101BB000C481C20FD32FD11D6F71A62F660FBB0B2F
:101BC000A75CBE4F2C173D0719F4DF91CF91089504
:101BD000EDA1EA3331F44C91FC014193CF012197FF
:101BE000F1CFEF710E2E000CFF0BE75CFE4F408132
:101BF000F3CFCF93C82F80E20E94560DC11519F084
:101C00008AE3809341014AE351E063E086E00E9469
:101C10002907C091E9056C2F82E395E00E94D30D5E
:101C20006C2F88E695E0CF910C94D30DFC01448194
:101C30005581608171818DE096E00C945A0C2F9251
:101C40003F924F925F926F927F928F929F92AF924C
:101C5000BF92CF92DF92EF92FF920F931F93CF9399
:101C6000DF936C012B017A0100E010E03324339400
:101C700083ED682E84E0782E95EC292ED6011496FB
:101C80008D919C91E701C01BD10B8C179D0708F427
:101C9000EC0121E0C7018C1B9D0B0817190708F404
:101CA00020E0F60190818C2FC13208F080E2309163
:101CB000D1043111FCCF3092D1042093AB04FFEF5B
:101CC000F093A9047092AD046092AC041092AF043A
:101CD0002FEF280F2093AE043092B0042091B0046F
:101CE000990F922B9093B0049091AA049130F1F542
:101CF0001092AA049091B0049093BB009091BC0004
:101D000093FDF8CF2092BC009091D1049130E1F383
:101D10009091AF04981710F48091AF041092F304DF
:101D20008093F4048C171D0671F44201800E911EFD
:101D3000A12CB12CCA15DB05E9F40C0F1D1F0E15E3
:101D40001F0508F49BCFDF91CF911F910F91FF905A
:101D5000EF90DF90CF90BF90AF909F908F907F904B
:101D60006F905F904F903F902F90089525EE2093B5
:101D7000BC00CACFD60111968D919C91DC01ED91EA
:101D8000FC910284F385E02D0995F40181934F01C4
:101D9000FFEFAF1ABF0ACECF0F931F93CF93DF93FE
:101DA0008C01EB01FE0164912196611521F0C801BF
:101DB0000E94F40BF7CFDF91CF911F910F910895FF
:101DC0000C94F40B282F3091150581E0313208F086
:101DD00042C08091D1048111FCCF9091170542E05F
:101DE0004093D1042093AB042FEF2093A90445EF37
:101DF00054E05093AD044093AC041092AF04309380
:101E0000AE041092B0042091B004990F922B9093DD
:101E1000B0049091AA04913029F51092AA049091EF
:101E2000B0049093BB009091BC0093FDF8CF95EC6B
:101E30009093BC009091D1049230E1F39091A90469
:101E40009F3F49F08091A904803271F08091A904EC
:101E5000803361F483E010921605109215051092FC
:101E60001805089595EEE4CF82E0F5CF84E0F3CF36
:101E70001092F3041092F4041092160510921505B6
:101E80001092D10481E08093AB041092AA0461E027
:101E900081E10E94920A61E080E10E94920AE9EBEE
:101EA000F0E080818E7F808380818D7F808388E4D5
:101EB0008093B80085E48093BC0083E198E0909320
:101EC00084048093830482E198E090938704809354
:101ED00086040895CF93DF93EC018B818115A1F0E7
:101EE000888191E09093180580931705109216054C
:101EF0001092150581E00E94E20E982F81E0911169
:101F000080E0DF91CF9108950E94380F81E08B83AC
:101F1000CE010E946A0F8111E3CFF3CFFC018381D0
:101F20008115A1F08181682B6083828191E090937B
:101F3000180580931705109216051092150589E172
:101F400095E00E943B0881E00C94E20E0895EF9228
:101F5000FF920F931F93CF93DF93EC01162F042F63
:101F6000F22E8B85888B0E94380F8889EE24E394AB
:101F7000E09218058093170510921605109215052A
:101F800081E00E94E20E811111C0E98A89E195E0A9
:101F90000E94EF078E878989811549F01F861C8270
:101FA00060E0CE010E960E948E0F01C0198A2F2D7F
:101FB000402F612FCE01DF91CF911F910F91FF90A4
:101FC000EF900C94A909FC01862F6485611599F0A6
:101FD000218532852115310521F4811107C060E08A
:101FE00005C021303105D9F78111F9CF6587CF01BF
:101FF0000E960C948E0F0895EF92FF921F93CF933D
:10200000DF93EC01FC019C012C5F3F4F80E060FFFF
:1020100002C09589892B66953196E217F307B9F7C7
:10202000413009F44C899D85892B142F182B7E0192
:102030008EE0E80EF11C6A89612BC7010E948E0FA9
:102040006A8960956123C701DF91CF911F91FF904D
:10205000EF900C948E0F0F931F93CF93DF93D82F95
:10206000C92F142F062F0F7040E0123031F0629507
:102070006F70412F0E94FC0F412F602F8D2F9C2FDE
:10208000DF91CF911F910F910C94FC0FEF92FF9273
:102090000F931F93CF93DF9390E1899F80011124C9
:1020A000EB01CB0140967C01C8010E945048899306
:1020B0000F5F1F4FCE15DF05B9F7DF91CF911F914D
:1020C0000F91FF90EF900895DF92EF92FF920F93A0
:1020D0001F93CF93DF93CDB7DEB760970FB6F89419
:1020E000DEBF0FBECDBF082FF62EE42ED52E11E099
:1020F000BE016F5F7F4F8FEF810F0E944610CE01B0
:1021000001960E94460D8115F1F0998190131BC034
:102110009A819F77F91217C09CE0FE013396AE2D8D
:10212000BD2D01900D929A95E1F760960FB6F89447
:10213000DEBF0FBECDBFDF91CF911F910F91FF90FA
:10214000EF90DF9008951F5F103491F680E0EDCF9F
:10215000CF92DF92FF920F931F93CF93DF9390E183
:10216000899F80011124EB01CB0140966C01F9900D
:10217000C8010E945048F81621F06F2DC8010E9436
:1021800058480F5F1F4FCC15DD0589F7DF91CF91C0
:102190001F910F91FF90DF90CF9008951F93CF93E1
:1021A000DF93FC01EA01122F848195818417950742
:1021B00010F480E01DC0808191E090931805809319
:1021C0001705109216051092150581819281DC0188
:1021D000ED91FC910280F381E02D0995C817D90794
:1021E00041F7812F0E94E20E982F81E09111E1CFFB
:1021F000DF91CF911F910895EF92FF920F931F935C
:10220000CF93DF9300D000D000D00F92CDB7DEB7D0
:102210008C011982E0902B05F0902C0520E041E024
:1022200050E0BE016F5F7F4FC7010E94CE10811545
:1022300041F047E050E0BE016F5F7F4FC7010E9451
:102240001F0E99819F773A814B815D812E812F7777
:102250006F81862F82958F70782F770F770F871B6E
:10226000880F860FF8018083822F82958F70682FE8
:10227000660F660F861B880F820F8183852F8295DC
:102280008F70282F220F220F821B880F850F8283C9
:10229000842F82958F70282F220F220F821B880F88
:1022A000840F8383832F82958F70282F220F220F14
:1022B000821B880F830F8483892F82958F70282F2C
:1022C000220F220F821B880F890F8583C801279652
:1022D0000FB6F894DEBF0FBECDBFDF91CF911F9137
:1022E0000F91FF90EF900895DF92EF92FF920F937E
:1022F0001F93CF93DF9300D000D000D0CDB7DEB7CF
:102300008C01CE0101960E94FC10EA80FB80FE2425
:10231000EF24FE24D9804B816A818D2D90E00E94AC
:10232000A208069667E070E00E94CC3DF801808329
:10233000F282E182D3828C8184838D8185838E8138
:1023400086830F900F900F900F900F900F90DF915A
:10235000CF911F910F91FF90EF90DF900895CF9351
:10236000DF93EC0188819981009711F00E941D4351
:10237000198218821D821C821B821A82DF91CF91E2
:102380000895009711F00C941D4308950F931F9327
:10239000CF93DF93EC018B0188819981009729F01D
:1023A0002A813B812617370790F4B8016F5F7F4F72
:1023B0000E94AE43FC0180E0309751F0F983E8833E
:1023C0001B830A838C819D81892B09F4108281E013
:1023D000DF91CF911F910F910895DC01FB014481A2
:1023E000558114968D919C9115978417950778F0D7
:1023F0008D919C91009759F06081718161157105F3
:1024000031F00E94B3449C0181E0232B09F080E06D
:102410000895AF92BF92CF92DF92EF92FF920F9307
:102420001F93CF93DF938C01DC01ED90FC9011970B
:10243000E114F104B9F11496CD91DC91209791F15A
:1024400057016501F50181915F01082E000C990B80
:102450000E94B340892BA9F72197CE0DDF1D8881FB
:10246000082E000C990B0E94B340892B31F5AE0168
:102470004F5F5F4F4C195D09D80115965C934E93E1
:102480001497EC14FD0420F4B601C7010E9488449F
:10249000D801ED91FC91119714968D919C91E80FC4
:1024A000F91F1082DF91CF911F910F91FF90EF9054
:1024B000DF90CF90BF90AF900895CC15DD05B8F2B6
:1024C0002197CDCFEF92FF920F931F93CF93DF937E
:1024D000EC017B01FB0101900020E9F731978F01AE
:1024E000061B170BB8010E94C611811109C0CE014D
:1024F000DF91CF911F910F91FF90EF900C94AF114E
:102500001D830C83B70188819981DF91CF911F9141
:102510000F91FF90EF900C94AC44FB01EF2B51F026
:10252000DB010D900020E9F71197AD01461B570B19
:102530000C945A0C08956F927F928F929F92AF9253
:10254000BF92CF92DF92EF92FF920F931F93CF93A0
:10255000DF93CDB7DEB7A1970FB6F894DEBF0FBEFD
:10256000CDBF3C01142F052F962E872E19A22230A5
:1025700008F42AE05E0181E2A80EB11CC22ED12C23
:10258000E12CF12C612F702F892D982DA701960138
:102590000E94E03D812F902FA92DB82D122F032FDF
:1025A000942E852E6A3014F5605DF50162935F010B
:1025B0008C159D05AE05BF0528F7BF01C3010E941C
:1025C0008D12A1960FB6F894DEBF0FBECDBFDF917E
:1025D000CF911F910F91FF90EF90DF90CF90BF9020
:1025E000AF909F908F907F906F900895695CDDCF42
:1025F000482F50E060E070E02AE08DE096E00C9417
:102600009B1268E572E00C948D121F93CF93DF93B9
:10261000D62FC72F142F0E94160E6BE173E08DE0AA
:1026200096E00E94CC0E8D2F9C2F111549F00E9430
:10263000160E8DE096E0DF91CF911F910C9401135F
:10264000DF91CF911F910C94160ECF92DF92FF92E3
:102650000F931F93CF93DF9300D000D000D0CDB75E
:10266000DEB78C01F62E2091110180E1289FB00188
:10267000112469527E4F1C821B821E821D821A8287
:102680001982CE0101960E946212C980DA804F2D14
:10269000B801CE0101960E940513C6010F900F905C
:1026A0000F900F900F900F90DF91CF911F910F918E
:1026B000FF90DF90CF900C94C111CF93DF93D82F70
:1026C000C92F0E948D128D2F9C2FDF91CF910C94DA
:1026D0000113CF93DF93D82FC92F0E94CC0E8D2FDB
:1026E0009C2FDF91CF910C9401130C948D120F93BA
:1026F0001F93CF93DF93CDB7DEB762970FB6F894F1
:10270000DEBF0FBECDBF6F87788B898B9A8B042F6E
:10271000122F1B861C861D861E86BE01615F7F4FA1
:10272000CE010B960E940A0680E30E94560D1115F9
:1027300031F06BE572E08DE096E00E9475130115B3
:1027400099F080913B01898380913C018A8380913B
:102750003D018B838AE38C831D82BE016F5F7F4FB7
:102760008DE096E00E94751380913F0189838091EE
:1027700040018A838AE38B83809142018C8380911C
:1027800043018D838EE28E83809145018F838091FA
:10279000460188878091470189871A86BE016F5F4D
:1027A0007F4F8DE096E00E947513111531F06EE5B4
:1027B00072E08DE096E00E94751362960FB6F89471
:1027C000DEBF0FBECDBFDF91CF911F910F91089556
:1027D000EF92FF920F931F93CF93DF93EC018B0146
:1027E0006115710569F0FB0101900020E9F731974F
:1027F0007F01E61AF70AB7010E94C611811109C0CC
:10280000CE01DF91CF911F910F91FF90EF900C942B
:10281000AF11FD82EC82B80188819981DF91CF915F
:102820001F910F91FF90EF900C94AC44FC014481F8
:1028300050E060E270E006960C949144CF93DF93F1
:10284000C091DF05D091E0056AED75E086ED95E079
:10285000209721F065EE75E081EE95E00E940A0672
:1028600080E20E94560D219731F44AE351E062E084
:102870008AE00E9429078EE995E00E941614C09113
:10288000E9056C2F88E695E00E94D30D6C2F82E35A
:1028900095E0DF91CF910C94D30D8F929F92AF92E0
:1028A000BF92CF92DF92EF92FF920F931F93CF933D
:1028B000DF936B017C01A7019601C701B6010E945D
:1028C000924960E672E0811114C0C701B6010E940E
:1028D000884964E672E0892B61F42FEF3FEF4FE700
:1028E0005FE4C701B6010E948349181694F468E6B4
:1028F00072E08DE096E0DF91CF911F910F91FF90F4
:10290000EF90DF90CF90BF90AF909F908F900C94FE
:102910008D122FEF3FEF4FE75FECC701B6010E942A
:10292000604187FDE4CF20E030E0A901C701B60196
:102930000E94604187FF09C06DE28DE096E00E9431
:10294000E00EF7FAF094F7F8F0942EE632E143E067
:102950005AE3C701B6010E9476486B017C010E94D0
:1029600054498B01D82FC92F0E9465419B01AC01AE
:10297000B601C7010E9475486B017C012AE0A801DD
:102980006D2F7C2F8DE096E00E949B126EE28DE011
:1029900096E00E94E00EC3E020E030E040E251E427
:1029A000B601C7010E94C641F62E072F182FD92F56
:1029B0000E9454494B01A12CB12C2AE0B501A4017D
:1029C0008DE096E00E949B12C501B4010E94654112
:1029D0009B01AC016F2D702F812F9D2F0E94754898
:1029E0006B017C01CA95C1F6DF91CF911F910F91C8
:1029F000FF90EF90DF90CF90BF90AF909F908F901F
:102A000008952F923F924F925F926F927F928F9292
:102A10009F92AF92BF92CF92DF92EF92FF920F936D
:102A20001F93CF93DF93CDB7DEB76B970FB6F894B4
:102A3000DEBF0FBECDBF62EC71E08DE096E00E947C
:102A400069132091AA060BEA16E0F80180E0412CF8
:102A5000512C3201C12CD12C760188248A94982CD7
:102A6000540182133CC12FEF82169206A206B206D1
:102A7000C1F0D701C601C414D504E604F70410F46C
:102A8000D301C2010097A105B10559F08819990930
:102A9000AA09BB0931E03B8B8F379E4EA643B10597
:102AA00008F41B8A212C312C8091AA0628163104A7
:102AB00008F42DC12FEF82169206A206B20609F481
:102AC0007EC0C114D104E104F10409F478C04114BA
:102AD00051046104710409F472C0D701C601881958
:102AE0009909AA09BB098C8B9D8BAE8BBF8BA30167
:102AF0009201281939094A095B09288F398F4A8FB1
:102B00005B8F8DE096E00E94011365E771E08DE038
:102B100096E00E94691369E671E08DE096E00E94FC
:102B2000CC0E20E04B896C897D898E899F890E941B
:102B300077138DE096E00E9401136DE571E08DE062
:102B400096E00E94CC0E20E04B89688D798D8A8DAD
:102B50009B8D0E9477138DE096E00E9401138C8973
:102B60009D89AE89BF89288D398D4A8D5B8D8217ED
:102B70009307A407B50708F00BC167E471E08DE087
:102B800096E00E9469136BE371E08DE096E00E948D
:102B9000CC0EC301B2016C197D098E099F090E94F8
:102BA000654120E030E04AE754E40E94E2480E9498
:102BB0004D146CE672E08DE096E00E945D136CEEC1
:102BC00070E08DE096E00E946913CE010C960E94A1
:102BD00074118D851AE0612F0E94C03D805D89834C
:102BE000905D9A832EE22B838E850E94C03D805D8E
:102BF0008C83905D9D832E832F8530E02053384F4A
:102C000082E38F83C90164E670E00E94CC3DCB0172
:102C1000EAE0F0E0BF010E94CC3D805D8887C901F9
:102C2000BF010E94CC3D282FCB01BF010E94CC3DAB
:102C3000805D8987205D2A871B8660EE70E08DE0CD
:102C400096E00E94CC0EBE016F5F7F4F8DE096E054
:102C50000E945D138889612F0E94C03D805D898339
:102C6000905D9A832AE32B8389890E94C03D805D11
:102C70008C83905D9D832E838A890E94C03D805DF8
:102C80008F83905D9887198664ED70E08DE096E003
:102C90000E94CC0EBE016F5F7F4F8DE096E00E94D8
:102CA0005D136DEB70E08DE096E06B960FB6F894D7
:102CB000DEBF0FBECDBFDF91CF911F910F91FF906F
:102CC000EF90DF90CF90BF90AF909F908F907F90CC
:102CD0006F905F904F903F902F900C946913948168
:102CE000913039F480809180A280B3808F5F3596D7
:102CF000B8CE933029F4C080D180E280F380F6CF43
:102D00009430A1F74080518062807380EFCFD8016A
:102D10006D917D918D919C91681979098A099B0922
:102D200021E04B890E94771364E872E08DE096E021
:102D30000E947513F8018481843021F190F482306F
:102D4000D9F08330E1F06CEB71E0813081F08DE0FF
:102D500096E00E940113FFEF2F1A3F0A0B5F1F4FEF
:102D6000A3CE853091F06BE871E0863081F78DE07D
:102D700096E00E94CC0EEBCF64EB71E0F8CF65EAF1
:102D800071E0F5CF65E971E0F2CF61E971E0EFCF75
:102D9000888D998DAA8DBB8D2C893D894E895F893F
:102DA00082179307A407B50798F464E271E08DE0F9
:102DB00096E00E94691368E171E08DE096E00E9460
:102DC000CC0EC701B6016419750986099709E7CECB
:102DD00062E071E08DE096E00E946913F0CEEF9220
:102DE000FF920F931F93CF93DF93EC018B01CB01E5
:102DF0000E947F3E7C01BC01CE010E94C611811160
:102E000009C0CE01DF91CF911F910F91FF90EF90FC
:102E10000C94AF11EC82FD82B80188819981DF9119
:102E2000CF911F910F91FF90EF900C94783E0F93EC
:102E30001F93CF93DF9300D000D000D0CDB7DEB783
:102E4000EFEDF5E082E090E0918380838BE682876E
:102E500065EE75E081EE95E00E940A0681E00E9431
:102E6000F90D1C821B821E821D821A8219826AE958
:102E700078E0CE0101960E94EF1609811A81CE01F9
:102E800001960E94B107C8010E94C11184E090E040
:102E90000F900F900F900F900F900F90DF91CF91A8
:102EA0001F910F910C94D7054F925F926F927F9272
:102EB0008F929F92AF92BF92CF92DF92EF92FF924A
:102EC0000F931F93CF93DF93CDB7DEB76D970FB6F8
:102ED000F894DEBF0FBECDBF8091210790912207ED
:102EE00089309105B1F18A309105C9F0892BA1F1A2
:102EF0006D960FB6F894DEBF0FBECDBFDF91CF91B8
:102F00001F910F91FF90EF90DF90CF90BF90AF9007
:102F10009F908F907F906F905F904F9008958CE07E
:102F200090E06D960FB6F894DEBF0FBECDBFDF9177
:102F3000CF911F910F91FF90EF90DF90CF90BF90B6
:102F4000AF909F908F907F906F905F904F900C9478
:102F5000D70580E090E0E5CF80917D01811529F1D2
:102F600010927D010E94BF0D1C821B821E821D8259
:102F70001A8219826FED77E0CE0101960E94EF165A
:102F800009811A81CE0101960E94AD07C8010E94F5
:102F9000C1118EE995E00E94161488E695E00E9422
:102FA000161482E395E00E94161480913005811575
:102FB00009F49ECFCE0147960E9474112B8D10E22A
:102FC0002A3030F0822F6AE00E94C03D10E3180FD3
:102FD00019838AE0B82E822F6B2D0E94C03D20E31A
:102FE000622E690E6A822AE32B838C8D0E94C03D7B
:102FF00030E3732E780E7C8200E3090F0D832E835D
:103000008D8D0E94C03D40E3E42EE80EEF8250E338
:10301000F52EF90EF8861986CE0101966C01AC01E9
:1030200062E086E00E9429078F8990E0FC01EE0FA4
:10303000FF1FE80FF91FEA5CFD4F808189838181C2
:103040008A8380E28B838C83288D80E22A3028F06B
:10305000822F6B2D0E94C03D805D8D833AE0822FD0
:10306000632F0E94C03D905D9E838EE28F83298DE9
:1030700080E22A3020F0822F0E94C03D805D888748
:103080003AE0822F632F0E94C03D905D99878EE2C7
:103090008A8782E38B8780E38C878A8D0E94C03D7C
:1030A000292F0E94C03D905D9D87205D2E871F8641
:1030B000A60163E083E00E94290719836A827B826C
:1030C0000C83ED82FE828AE38F835E0198E0A90E75
:1030D000B11C7E01E0E1EE0EF11CD701F5012701E4
:1030E0004F0182918D93CE16DF06D1F740913605C0
:1030F00050E0B20188E395E00E94884480E2898331
:103100008A831B836C827D820E83C501F501229127
:103110005F01F70121937F0188169906B1F740916D
:10312000A20550E0B20184EA95E00E948844E0CE16
:103130000F931F93CF93DF9300D000D000D0CDB773
:10314000DEB780912107909122078A30910561F1C5
:1031500088F4009709F4B4C0099709F449C00F90A6
:103160000F900F900F900F900F90DF91CF911F91C4
:103170000F9108950B9799F76BE577E08DE096E056
:103180000E94691360E377E08DE096E00E94691386
:103190000F900F900F900F900F900F90DF91CF91A5
:1031A0001F910F910C94D40C1C821B821E821D82D5
:1031B0001A82198264ED77E0CE0101960E94EF1623
:1031C00009811A8161E0CE0101960E942513C80190
:1031D0000E94C1118CE090E00F900F900F900F9023
:1031E0000F900F90DF91CF911F910F910C94D70505
:1031F0000E94BF0D1C821B821E821D821A821982B0
:103200006FEC77E0CE0101960E94EF1609811A81DA
:10321000CE0101960E94AD07C8010E94C1111C8217
:103220001B821E821D821A82198262EC77E0CE0117
:1032300001960E94EF1609811A81AE014F5F5F4F20
:1032400063E084E00E943E07C8010E94C1114091E2
:10325000360550E061E572E088E595E00E9488441B
:103260004091A20550E062E271E084EC95E00E949A
:10327000884440916C0550E062E171E08EE895E091
:103280000E9488440E94FB050E94CB056093DA05EA
:103290007093DB058093DC059093DD051092D605D5
:1032A0001092D7051092D8051092D9051092D50525
:1032B0001092D4058BE68093DE0580E090E08CCF01
:1032C00080917D01811561F010927D018DE096E085
:1032D0000E94011367E977E08DE096E00E94691390
:1032E00080917401811191C080916B018111B7C0EF
:1032F00080916201811571F01092620181E08093EA
:103300002E0524E630E040E550E060ED77E083E014
:103310000E94B70C80915901811531F0109259012A
:1033200010922E050E94D40C80913005811105C0A9
:1033300080912E05811509F44AC00E94CB05609347
:10334000DA057093DB058093DC059093DD056AED6B
:1033500075E086ED95E00E940A0680E20E94560D17
:103360004AE351E061E086E00E9429078091D4059C
:103370009091D5051C821B821E821D821A821982A1
:103380006BE877E0892B11F064E877E0CE010196D5
:103390000E94EF1609811A81AE014F5F5F4F61E015
:1033A00080E00E943E07C8010E94C1111091DE0515
:1033B000612F8EE995E00E94D30D612F88E695E09C
:1033C0000E94D30D612F82E395E00E94D30D80917E
:1033D0003105811509F463C08AE3809341016FE6EA
:1033E00072E08DE096E00E9475136AE371E08DE073
:1033F00096E00F900F900F900F900F900F90DF912D
:10340000CF911F910F910C945D13109274018091D4
:10341000750190917601A0917701B0917801809328
:10342000D6059093D705A093D805B093D90581E030
:1034300090E09093D5058093D40588E68093DE05CF
:103440000E94FB0528E933E040E550E06CED75E0B3
:1034500083E00E94B70C81E080937D0180CE1092C2
:103460006B0180912F0591E0892780932F051C82A5
:103470001B821E821D821A82198262E977E0CE01C8
:1034800001960E94EF1609811A81CE0101960E94D1
:10349000AD07C8010E94C1110E94D40C29CF8091B0
:1034A0002D0565E173E0811107C08091300581151C
:1034B00009F455CE6DE073E08DE096E00F900F902B
:1034C0000F900F900F900F90DF91CF911F910F9160
:1034D0000C9475130F931F93CF93DF9300D000D0FC
:1034E00000D0CDB7DEB70E94BF0D1C821B821E82AA
:1034F0001D821A82198266E277E0CE0101960E944F
:10350000EF1609811A81CE0101960E94AD07C8010C
:103510000E94C1111C821B821E821D821A82198286
:1035200061E177E0CE0101960E94EF1609811A81D0
:10353000AE014F5F5F4F62E080E00E943E07C8012E
:103540000E94C1111C821B821E821D821A82198256
:1035500060E077E0CE0101960E94EF1609811A81A2
:10356000AE014F5F5F4F63E082E00E943E07C801FB
:103570000E94C1111C821B821E821D821A82198226
:1035800068EF76E0CE0101960E94EF1609811A815C
:10359000BE016F5F7F4F82E395E00E94A305C801E3
:1035A0000E94C1118EE995E00E94161488E695E00C
:1035B0000F900F900F900F900F900F90DF91CF9181
:1035C0001F910F910C941614CF92DF92FF920F93DC
:1035D0001F93CF93DF9300D000D000D0CDB7DEB7DC
:1035E0008C01F62E1C821B821E821D821A82198279
:1035F00064E173E0CE0101960E94EF16C980DA8083
:103600004F2DB801CE0101960E940513C6010F90FF
:103610000F900F900F900F900F90DF91CF911F910F
:103620000F91FF90DF90CF900C94C1117F928F92F9
:103630009F92AF92BF92CF92DF92EF92FF920F9341
:103640001F93CF93DF93CDB7DEB766970FB6F8948D
:10365000DEBF0FBECDBF982EB62E742E852EA12CA8
:103660008E010F5F1F4FC982DA82B8018A2D0E9436
:103670004610C980DA80C8010E94460D7801811584
:1036800079F19C102DC08D2D8F77B81229C0BD10F7
:1036900083C08CE0E72DF82DDE01139601900D928A
:1036A0008A95E1F7C8010E942E0D988B8F87B8018B
:1036B0008A2D0E94A81081E066960FB6F894DEBFAE
:1036C0000FBECDBFDF91CF911F910F91FF90EF9073
:1036D000DF90CF90BF90AF909F908F907F90089594
:1036E000A39480E4A812BFCF10E0C982DA82B701A8
:1036F000812F0E944610C980DA80C7010E94460DC2
:103700008115B9F01F5F103481F700E0C982DA82B9
:10371000B701802F0E944610C980DA80C7010E943D
:10372000460D811511F0C7FC1AC00F5F003471F708
:103730001FEF0FEF8CE0E72DF82DDE0113960190BF
:103740000D928A95E1F79982BA82C7010E942E0DE7
:10375000988B8F871F3F29F0B701812FAACF1FEFCA
:10376000E9CFB701802F0F3F09F0A3CF1C8A1B8A36
:103770001E8A1D8A1A8A198A6FED7AE0CE01419657
:103780000E94EF1609891A8961E0CE0141960E94D4
:10379000E41AC8010E94C11180E08ECF2F923F929F
:1037A0004F925F926F927F928F929F92AF92BF9251
:1037B000CF92DF92EF92FF920F931F93CF93DF93FD
:1037C000CDB7DEB7C054D1090FB6F894DEBF0FBE37
:1037D000CDBF80912107909122078C30910569F02F
:1037E0008A30910521F582E395E00E9416148CE061
:1037F00090E09093220780932107C05CDF4F0FB6C3
:10380000F894DEBF0FBECDBFDF91CF911F910F9116
:10381000FF90EF90DF90CF90BF90AF909F908F90F0
:103820007F906F905F904F903F902F9008950997F1
:1038300091F40E946A1A8DE096E00E94710B892B28
:1038400029F41092220710922107D7CF8DE096E03D
:103850000E94B10BF0CF8DE096E00E94710B892B96
:1038600061F21AA619A618A61FA21CA61BA66E0115
:1038700027E2C20ED11C6AE572E0C6010E94621204
:10388000EFA0F8A40BA51CA50E94DD0C9C01CAAEFC
:10389000DBAE2F3F320721F02A30310509F0A8C1F5
:1038A000F8A6EFA21CA70BA78AAD9BAD0E94091238
:1038B0002FA038A4EBA4FCA41C821B821E821D82B4
:1038C0001A8219826EEE76E08E010F5F1F4FC801DB
:1038D0000E94EF16A980BA8060E0C8010E942513FB
:1038E000C5010E94C1118AAD9BAD0E94160E61E711
:1038F00072E08DE096E00E945D131C821B821E82A6
:103900001D821A82198263E772E0C8010E94621266
:10391000A980BA80B8018AAD9BAD0E94ED11982EA6
:10392000C5010E94C111911409F4ABC18FEF9FEF43
:103930009E8B8D8B9AA389A3CE0181969F938F93A3
:103940000C979F938F9388E792E09F938F933F927A
:103950002F920E9400456EED76E08DE096E00E9489
:1039600069136EEC76E08DE096E00E9469130FB665
:10397000F894DEBF0FBECDBF712C912C4FEB56E0FB
:1039800020EC36E08CEB96E04CAF5DAF2EAF3FAF56
:10399000682E21969FAF21976E01BFE0CB0ED11C00
:1039A000B801872D0E944610C8010E94460D81155E
:1039B00009F472C0B980B7FC6FC08D899E8997FDEC
:1039C00004C0B816190609F067C04A80A42CE89410
:1039D000A7F889A19AA197FD04C0A816190609F0B5
:1039E0005BC063E872E08DE096E00E947513E4E648
:1039F0006BEC76E0BE1638F4FAE068EC76E0BF16C1
:103A000010F06CEC76E08DE096E00E94CC0E8B2DF1
:103A10000E94F81263E872E08DE096E00E94751350
:103A200024E6A5ECB6E0BD01A21648F43AE082EC2B
:103A300096E0BC01A31618F0E6ECF6E0BF018DE0BD
:103A400096E00E94CC0E8A2D0E94F81260E28DE072
:103A500096E00E94F40B47FEEDC062E28DE096E036
:103A60000E94E00E9E012D5F3F4F5901D5016D91DF
:103A70005D01611539F08DE096E00E94E00ECA14F8
:103A8000DB04A1F762E28DE096E00E94E00E8DE09B
:103A900096E00E9401139394739420E4721280CFF5
:103AA000911431F06CEA76E08DE096E00E946913A3
:103AB00061EA76E08DE096E00E94CC0E892D0E94AE
:103AC000F8128DE096E00E940113992493941C82D1
:103AD0001B821E821D821A82198266E872E0C8016A
:103AE0000E946212A980BA80B8018AAD9BAD0E9483
:103AF000ED11782EC5010E94C111711409F429C17C
:103B0000188E1F8A1A8E198E1E8A1D8A6E0135E143
:103B1000C30ED11C6AE572E0C6010E94621263E91D
:103B200076E0C6010E94EF16ED88FE88CE018D96E4
:103B30009F938F930C979F938F938BE892E09F9323
:103B40008F933F922F920E9400450FB6F894DEBFEC
:103B50000FBECDBF3601029709F0B5C060E270E03C
:103B6000C1010E949844009709F4ADC060E270E082
:103B700001960E949844009709F4A5C060E270E0A5
:103B800001960E949844DC01892B09F49CC0FD0138
:103B90008D918032E1F3823209F075C06D0162E2ED
:103BA00070E0CD010E949844AC01892B09F48BC0D0
:103BB0008CE0F80111928A95E9F74C195D094D30B6
:103BC000510514F04CE050E0B601C8010E94C14418
:103BD0006DA56068A80189A10E94161B62E876E0C5
:103BE000811102C066E676E0C3010E94EF1669C04B
:103BF00029831A8258013FEFA31AB30AF8A6EFA24D
:103C00001CA70BA7B5018AAD9BAD0E94C611EFA002
:103C1000F8A40BA51CA5811549F0BE016F5F7F4F6D
:103C2000C701800F911F0E94AC4485010E94DD0CEA
:103C30009C012FCEFE0133962F01B12CD201AD9005
:103C40002D01B4E66CAD7DADAB1648F4EAE0662D0F
:103C500021967FAD2197AE1610F06EAD7FAD8DE051
:103C600096E00E94CC0E8A2D0E94F812B394FCE0DC
:103C7000BF1609F40CCF6CE28DE096E00E94F40BC5
:103C8000DDCF912C24CF8CE0D8011D928A95E9F7E5
:103C900068014E01BDE08B0E911C8081811519F0E9
:103CA0008C149D04C1F56DA56F77A80189A10E94B0
:103CB000161B811509F44AC065E972E0C3010E9430
:103CC000E813ED88FE88FE8AED8AC3010E94160E75
:103CD0008DE096E00E940113C7010E94C111C1014D
:103CE000C05CDF4F0FB6F894DEBF0FBECDBFDF91D3
:103CF000CF911F910F91FF90EF90DF90CF90BF90E9
:103D0000AF909F908F907F906F905F904F903F907B
:103D10002F900C94C1115F013196D5018C918032A6
:103D2000D1F3C5010E942A3E8115B1E09B0758F6E8
:103D3000F60181936F016CE270E0C5010E94984426
:103D4000FC01892B09F4AFCF3196A7CF6AE476E066
:103D50004BCF1C821B821E821D821A8219826AEA44
:103D600072E0C8010E946212A980BA80B8018AADCF
:103D70009BAD0E94ED11682EC5010E94C111611416
:103D800009F44AC0CE018D969F938F930C979F9311
:103D90008F938FEA92E09F938F933F922F920E948E
:103DA00000450FB6F894DEBF0FBECDBF0297A1F558
:103DB000ADA4B9A08982B801872D0E9446108980E0
:103DC000C8010E94460D982E811541F1B81026C0F9
:103DD0008A818F77A81222C08CE0FE017596DF01E0
:103DE000282F1D922A95E9F7DE01139601900D9276
:103DF0008A95E1F78B2D80688983C8010E942E0D7A
:103E0000988B8F87B801872D0E94A8106BE376E00E
:103E10008DE096E00E946913512C0EC0739430E43B
:103E20007312C8CF6EE276E08DE096E00E94CC0E71
:103E300055245394992493941C821B821E821D82C4
:103E40001A82198269EB72E0C8010E946212A9808D
:103E5000BA80B8018AAD9BAD0E94ED11882EC501D4
:103E60000E94C111811409F424C1370144E0A42E39
:103E7000B12C84E0E816F10420F4570134E0632EFD
:103E8000712C1CA21BA21EA21DA21AA219A24E01D5
:103E900091E2890E911C6AE572E0C4010E946212EF
:103EA000D82C492C89A19AA1AE14BF04A8F44701CB
:103EB0006E147F0408F44301820C931CD4017C909F
:103EC0001C92B1016A0D7B1D8D2D942D0E94E8136B
:103ED00089A19AA1F40170829AA389A38D2D942DB2
:103EE0000E940912A9A0BAA0CE01C7969F938F93F2
:103EF00002979F938F9302979F938F9302979F931D
:103F00008F9302979F938F9302979F938F938EEB3C
:103F100092E09F938F93BF92AF920E9400450FB69D
:103F2000F894DEBF0FBECDBF069709F015C1EFA90B
:103F30005DA94BA979A88FA42DA53EA5203D87E0BA
:103F4000380710F0205D3740922E19823AE08E2F0C
:103F5000632F0E94C03D982F990F980F990F9E0FC5
:103F60009A83852F0E94C03D982F990F980F990F23
:103F7000950F9B83842F0E94C03D982F990F980F17
:103F8000990F940F9C83472D682D822F90E00E94FB
:103F9000A208069667E070E00E94CC3D811101C046
:103FA00087E08D832AE0872D622F0E94C03D982FE5
:103FB000990F980F990F970D9E83882D0E94C03DF1
:103FC000982F990F980F990F980D9F83892D0E9414
:103FD000C03D982F990F980F990F990D988721E060
:103FE00048E050E0B80180912B0590912C050E948B
:103FF000CE102FE0922E99AE21E041E050E0BE01BC
:10400000675C7F4F80912B0590912C050E94CE100C
:1040100041E050E0BE016B5E7F4F80912B05909197
:104020002C050E941F0E8D899D8A8F778E8B21E033
:1040300042E050E0BE016B5E7F4F80912B05909176
:104040002C050E94CE1062E276E08DE096E00E94A0
:10405000CC0ECE0145960E94FC108A8D1F928F9344
:10406000898D1F928F93888D1F928F938F891F92B6
:104070008F938E891F928F938D8990E08053984FF4
:104080009F938F9380ED92E09F938F931F930F9355
:104090000E94D044B8018DE096E00E945D130FB6F7
:1040A000F894DEBF0FBECDBFC5010E94C111992497
:1040B00093941C821B821E821D821A8219826EEECC
:1040C00072E0C8010E946212A980BA80B8018AAD6C
:1040D0009BAD0E94ED11D82EC5010E94C111D114D3
:1040E00009F45CC0470195E0A92EB12CB5E0EB16B0
:1040F000F10420F4570185E0882E912C1C821B824C
:104100001E821D821A8219826AE572E0C8010E942D
:104110006212AE14BF0418F109811A81011511054C
:1041200031F0C8010E94483ECB01892B69F51092FD
:104130002F050E946A1AC8010E94C1119924939404
:10414000EF2879F5511409F4EDC06BE076E08DE0CD
:1041500096E00E94CC0ED3C055245394A5CF67019E
:104160008E149F0408F46401C20CD31CF6019080E5
:104170001082B1016A0D7B1DC8010E94E8130981FC
:104180001A81D6019C92CACF6130710521F481E079
:1041900080932F05D0CF55245394CDCFEF2809F429
:1041A000A4C064EF72E0C1010E94A344892BC1F551
:1041B0006CE775E08DE096E00E9469136CE275E0B3
:1041C0008DE096E00E94691368EE74E08DE096E061
:1041D0000E9469136DE974E08DE096E00E94691316
:1041E00064E674E08DE096E00E94691365E374E094
:1041F0008DE096E00E94691361EF73E08DE096E038
:104200000E94691362EB73E08DE096E00E946913EF
:1042100067E873E08DE096E00E9469139924939417
:1042200069EF72E0C1010E94A344892B09F05DC0CF
:1042300067EF75E08DE096E00E94CC0E65EE75E0CC
:104240008DE096E00E94691360EE75E08DE096E0E7
:104250000E94CC0E68ED75E08DE096E00E94CC0ED9
:1042600065EC75E08DE096E00E94CC0E62EC75E0A6
:104270008DE096E00E94CC0E66EB75E08DE096E056
:104280000E94CC0E60E28DE096E00E94F40B6DEA95
:1042900075E08DE096E00E94CC0E6BEA75E08DE053
:1042A00096E00E94691368E975E08DE096E00E944F
:1042B000CC0E80912A050E94F8128DE096E00E94B3
:1042C000011366E875E08DE096E00E94CC0E2AE0CE
:1042D00040E150E060E070E08DE096E00E949B12CB
:1042E0008DE096E00E9401132DCF91102BCF62E15B
:1042F00076E08DE096E00E94CC0E511026CF6CEF58
:1043000075E08DE096E00E94691324E630E040E518
:1043100050E060ED77E083E00E94B70CC1010E949D
:10432000C1116BCA8DE096E00E9401130E94D40C6B
:10433000F5CF0F931F93CF93DF9300D000D000D021
:10434000CDB7DEB7EBEAF6E08FEF9FEFDC018083BD
:104350009183A283B3831482359626E0EB3FF20764
:10436000B1F71092AA061C821B821E821D821A823D
:10437000198261ED7AE0CE0101960E94EF16098163
:104380001A8161E0CE0101960E94E41AC8010F90E3
:104390000F900F900F900F900F90DF91CF911F9182
:1043A0000F910C94C1118F929F92AF92BF92CF92B6
:1043B000DF92EF92FF920F931F93CF93DF93CDB7CE
:1043C000DEB728970FB6F894DEBF0FBECDBF8C01C5
:1043D000DB01FA012FB7F8944D915D916D917C91BD
:1043E000808191812FBFF801C180D280E380F48069
:1043F0004A015B018C189D08AE08BF082781821610
:104400009104A104B10408F472C041835283638310
:104410007483880F991F880F991F9683858381E085
:10442000808380914E01811509F461C01C821B823A
:104430001E821D821A8219826BEC7AE0CE010196EF
:104440007C010E94EF16C980DA8060E0C7010E94FB
:10445000E41AC6010E94C111F80180858983F1E048
:104460000B361F0739F48091210790912207892B81
:1044700009F450C080E28A8380E48B8380E2D82EE6
:10448000DC821D82B7018DE096E00E947513F80171
:1044900041815281638174812AE08DE096E00E941F
:1044A0009B128EE28983F80125813681C90164E679
:1044B00070E00E94CC3D605D6A83EAE0F0E0C901F3
:1044C000BF010E94CC3D282FCB01BF010E94CC3DF3
:1044D000805D8B83205D2C83DD828DE68E8383E778
:1044E0008F831886B7018DE096E00E945D132896B1
:1044F0000FB6F894DEBF0FBECDBFDF91CF911F91F5
:104500000F91FF90EF90DF90CF90BF90AF909F9072
:104510008F9008958BE2AFCFCF92DF92EF92FF9210
:10452000CF93DF9300D000D000D0CDB7DEB780911D
:10453000280590912905892BF9F08AE090E00E94E6
:10454000D7050E94CB056E5C7F4F8F4F9F4F6B014D
:104550007C010E94CB056C157D058E059F0560F4DE
:1045600080912107909122070C9731F0E091280566
:10457000F09129050995EDCF10922705E0912605C8
:10458000E093110180E1E89FF0011124EA52FE4F0F
:1045900086859785909329058093280589E090E08A
:1045A0000E94D7051C821B821E821D821A821982DC
:1045B0006FE773E0CE0101960E94EF16E980FA8062
:1045C00060E0CE0101960E94E41AC7010E94C11169
:1045D0006091110120E1629FB001112469527E4F68
:1045E0008DE096E00E94751365E773E08DE096E03C
:1045F0000F900F900F900F900F900F90DF91CF9131
:10460000FF90EF90DF90CF900C946913CF92DF92E0
:10461000EF92FF920F931F93CF93DF93CDB7DEB747
:1046200068970FB6F894DEBF0FBECDBF8CE10E9435
:10463000280B019791F481E08093270568960FB6C7
:10464000F894DEBF0FBECDBFDF91CF911F910F91C8
:10465000FF90EF90DF90CF9008951C8A1B8A1E8AEE
:104660001D8A188E1F8A8E010D5E1F4F61E773E051
:10467000C8010E94EF16809174017801811581F0C4
:10468000809125058F5F833008F080E010927401DF
:104690008093250580E00E94C70D81E00E94C70D30
:1046A00010912505113009F46CC0123009F4BBC01B
:1046B000111155C080916201811571F01092620153
:1046C00080912605811102C080912A058150809336
:1046D000260581E00E94C70D80915901811591F056
:1046E000109259012091260580912A058150990B3D
:1046F0002817190611F011E0120F1093260581E01A
:104700000E94C70D80913005811549F11C821B82E2
:104710001E821D821A82198261E673E0CE01019623
:104720000E94EF1609811A81AE014F5F5F4F60E072
:1047300082E00E943E07C8010E94C111A70161E00A
:1047400082E00E943E074091260580E1489FA0013B
:10475000112449525E4F61E086E00E9429078B894F
:104760009C8968960FB6F894DEBF0FBECDBFDF916F
:10477000CF911F910F91FF90EF90DF90CF900C940D
:10478000C11180916201811509F445C01092620146
:1047900080914E0191E0892780934E0180913005F0
:1047A0008115E9F21C821B821E821D821A821982E7
:1047B00060E573E08E010F5F1F4FC8010E94EF1686
:1047C000C980DA80A80160E082E00E943E07C6014D
:1047D0000E94C111A70161E082E00E943E07809122
:1047E0004E016CE473E0811102C068E473E01C8246
:1047F0001B821E821D821A821982C8010E94EF1636
:10480000E980FA80A80161E086E00E943E07C701C6
:104810000E94C111A4CF80915901811509F4BECF26
:1048200010925901B5CF80916201811539F1109232
:10483000620180911101898380914E018A83AE01CA
:104840004F5F5F4F63E080E00E94161B0E94D40C14
:10485000188A1F861A8A198A1E861D8660E473E0EC
:10486000CE010D960E94EF160D851E8561E0CE01EA
:104870000D960E94E41AC8010E94C111809159014D
:104880008115D1F0109259018BE090E090932207AE
:1048900080932107E091110180E1E89FF00111244C
:1048A000EA52FE4F0684F785E02D09958DE090E0F1
:1048B000909322078093210780913005811509F498
:1048C0004ECF1C821B821E821D821A8219826FE2C9
:1048D00073E0CE0101960E94EF1609811A81AE01A4
:1048E0004F5F5F4F60E082E00E943E07C8010E9478
:1048F000C1111C821B821E821D821A8219826EE1E6
:1049000073E0CE0101960E94EF1609811A81AE0173
:104910004F5F5F4F61E082E00E943E07C80178CFA1
:10492000EF92FF921F93CF93DF9300D000D000D07F
:10493000CDB7DEB7182FE091AA06813039F18DEF9F
:10494000810F843018F1EE3008F11C821B821E8228
:104950001D821A8219826DE970E0CE0101960E94D3
:10496000EF16E980FA8061E0CE0101960E94E41A18
:10497000C7010F900F900F900F900F900F90DF9145
:10498000CF911F91FF90EF900C94C11185E0E89FAB
:10499000F0011124E555F94F4083518362837383FD
:1049A00014831C821B821E821D821A82198264E972
:1049B00070E0CE0101960E94EF16E980FA8060E077
:1049C000CE0101960E94E41AC7010E94C111812FF5
:1049D0000E94F8126CE870E08DE096E00E94691386
:1049E0008091AA068F5F8093AA060F900F900F9078
:1049F0000F900F900F90DF91CF911F91FF90EF904C
:104A000008954F925F926F927F928F929F92AF9292
:104A1000BF92CF92DF92EF92FF920F931F93CF93AB
:104A2000DF93CDB7DEB766970FB6F894DEBF0FBE43
:104A3000CDBFE0912107F0912207EC30F10508F09D
:104A4000DEC1E755F64B0C94213E0E94200B8CE012
:104A500090E066960FB6F894DEBF0FBECDBFDF9133
:104A6000CF911F910F91FF90EF90DF90CF90BF906B
:104A7000AF909F908F907F906F905F904F900C942D
:104A8000D70582E395E00E9416148EE995E00E9416
:104A9000161488E695E00E9416140E94200B1982D5
:104AA0001A821B821C82AE014F5F5F4F60E081E083
:104AB0000E946410811591F15B814C81298130E065
:104AC000ACE3B0E00E9466482A81620F711D811D2F
:104AD000911D9B01A8EEB3E00E94664860933601E9
:104AE000709337018093380190933901252F30E07E
:104AF0000E9466486B017C01242F30E0A4E6B0E000
:104B00000E946648C60ED71EE81EF91EC0923201EA
:104B1000D0923301E0923401F092350124E030E08C
:104B20003093D5052093D4058FE68093DE0530932E
:104B3000E0052093DF058093E90580E090E089CFD0
:104B400080917D01811509F449C010927D010E9478
:104B5000BF0D1C821B821E821D821A82198261EC8B
:104B60007AE0CE0101960E94EF1609811A81CE01EA
:104B700001960E94AD07C8010E94C1111C821B82D0
:104B80001E821D821A82198262EB7AE0CE010196A2
:104B90000E94EF1609811A81AE014F5F5F4F62E0FC
:104BA00083E00E943E07C8010E94C1111C821B8243
:104BB0001E821D821A8219826EE97AE0CE01019668
:104BC0000E94EF1609811A81AE014F5F5F4F63E0CB
:104BD00080E00E943E07C8010E94C11180916B01D4
:104BE000811509F40CC110926B0185E090E031CF82
:104BF00080917D01811509F49DC010927D0181E0B5
:104C0000809320070E94BF0D1C821B821E821D8282
:104C10001A82198268E97AE0CE0101960E94EF16A5
:104C200009811A81CE0101960E94B107C8010E9434
:104C3000C1111C821B821E821D821A82198263E8A6
:104C40007AE0CE0101960E94EF1609811A81AE0129
:104C50004F5F5F4F62E080E00E943E07C8010E9404
:104C6000C1111C821B821E821D821A82198264E776
:104C70007AE0CE0101960E94EF1609811A81AE01F9
:104C80004F5F5F4F63E083E00E943E07C8010E94D0
:104C9000C1111092D6051092D7051092D805109226
:104CA000D9051092DA051092DB051092DC051092FE
:104CB000DD051092E1051092E2051092E3051092D5
:104CC000E4051092E5051092E6051092E7051092B2
:104CD000E8051092D5051092D4058BE68093DE0589
:104CE0001092E0051092DF058093E9056AED75E00A
:104CF00086ED95E00E940A0680E20E94560D4091E2
:104D0000360550E061E572E088E595E00E94884450
:104D10004091A20550E062E271E084EC95E00E94CF
:104D2000884440916C0550E062E171E08EE895E0C6
:104D30000E94884480912007811581F10E94CB0553
:104D4000AB01BC018091320190913301A0913401FB
:104D5000B091350100912307109124072091250778
:104D600030912607800F911FA21FB31F841795074C
:104D7000A607B70798F4109220071091DE05612F5F
:104D800082E395E00E94D30D612F8EE995E00E94A9
:104D9000D30D612F88E695E00E94D30D80916B01C1
:104DA000811519F010926B01C8CE809162018115B6
:104DB00029F01092620188E090E04BCE8DE10E94D4
:104DC000280B892BC1F380915901811519F010929C
:104DD0005901F1CF8EE10E94280B892B61F380915C
:104DE0005001811519F010925001E5CF8FE10E941A
:104DF000280B892B01F380917401811117C06696ED
:104E00000FB6F894DEBF0FBECDBFDF91CF911F91DB
:104E10000F91FF90EF90DF90CF90BF90AF909F9059
:104E20008F907F906F905F904F90089510927401D3
:104E30000E94FB051C821B821E821D821A8219821F
:104E400066E67AE0CE0101960E94EF1609811A818A
:104E500061E0CE0101960E942513C8010E94C11194
:104E60000E949921409175015091760160917701DE
:104E70007091780181E00E94902480917501909159
:104E80007601A0917701B09178018093D605909337
:104E9000D705A093D805B093D9058093E1059093E9
:104EA000E205A093E305B093E40521E030E0309300
:104EB000D5052093D40588E68093DE053093E00580
:104EC0002093DF058093E90582E090E0C2CD8091D8
:104ED0007D018115C1F010927D011C821B821E8212
:104EE0001D821A82198268E57AE0CE0101960E943D
:104EF000EF1609811A8161E0CE0101960E94251307
:104F0000C8010E94C11180916B0181114BCF8DE1CD
:104F10000E94280B892B09F0A2C085E090E09093B5
:104F2000D5058093D405855B9D4FFC0180818093DE
:104F3000DE058EE10E94280B892B09F093C085E0E5
:104F400090E09093E0058093DF05855B9D4FFC0129
:104F500080818093E9058FE10E94280B8C0180916C
:104F6000D4059091D505059709F07FC01C821B825E
:104F70001E821D821A82198262E57AE0CE010196B4
:104F80000E94EF16E980FA80BE016F5F7F4F8EE9C5
:104F900095E00E94A305C7010E94C1118091DF0521
:104FA0009091E005059709F065C01C821B821E8266
:104FB0001D821A8219826CE47AE0CE0101960E9469
:104FC000EF16E980FA80BE016F5F7F4F88E695E0BB
:104FD0000E94A305C7010E94C1118091D405909140
:104FE000D5052091DF053091E005822B932B1C82A3
:104FF0001B821E821D821A821982892B09F03FC0F2
:105000000115110509F43BC061E47AE0CE01019677
:105010000E94EF1609811A8161E0CE0101960E947B
:105020002513C8010E94C11182E395E00E94161465
:105030008091620181111092620180915901811168
:105040001092590180917401811110927401809124
:10505000500181111092500181E090E0FACC80E083
:1050600090E05DCF80E090E06CCF8EE995E00E940B
:10507000161494CF88E695E00E941614AECF6BE329
:105080007AE0CE0101960E94EF16E980FA80BE0117
:105090006F5F7F4F82E395E00E94A305C7010E94E6
:1050A000C11182E00E94C70D1C821B821E821D82DC
:1050B0001A8219826CE27AE0CE0101960E94EF1604
:1050C000E980FA80AE014F5F5F4F62E080E00E94AE
:1050D0003E07C7010E94C111E3E1012B21F48DE4D9
:1050E00080936207E2E18091DF059091E0050597EA
:1050F00041F4AE2FB0E0A95DB84F80E598968C934F
:10510000E1508091D4059091D505059729F4F0E000
:10511000E95DF84F8CE480A780913105811509F491
:105120006ECE24E630E040E550E060ED77E083E0CD
:1051300066960FB6F894DEBF0FBECDBFDF91CF915C
:105140001F910F91FF90EF90DF90CF90BF90AF90A5
:105150009F908F907F906F905F904F900C94B70CC2
:1051600080917D018115C9F010927D010E94BF0DD3
:105170001C821B821E821D821A82198266E27AE0DC
:10518000CE0101960E94EF1609811A81CE01019687
:105190000E94B507C8010E94C1118091D405909169
:1051A000D505019709F073C080916201811509F45A
:1051B0006EC0109262014091630150916401609150
:1051C0006501709166014093DA055093DB056093A9
:1051D000DC057093DD0582E090E09093D505809327
:1051E000D4058BE68093DE0583E00E94902461E085
:1051F0008FE00E94920A6AED75E086ED95E00E94CC
:105200000A0680E20E94560D6091DE058EE995E067
:105210000E94D30D8AE3809341014AE351E062E0AA
:1052200086E00E9429071C821B821E821D821A8230
:1052300019826AE679E0CE0101960E94EF16098193
:105240001A81AE014F5F5F4F62E080E00E943E072F
:10525000C8010E94C1111C821B821E821D821A82FB
:1052600019826FE579E0CE0101960E94EF1609815F
:105270001A8160E0CE0101960E942513C8010E94A8
:10528000C1116AE371E08DE096E00E945D138091A8
:10529000DF059091E005019709F073C080915901F5
:1052A000811509F46EC01092590140915A01509134
:1052B0005B0160915C0170915D014093E505509345
:1052C000E6056093E7057093E80582E090E090932F
:1052D000E0058093DF058BE68093E90584E00E947A
:1052E000902461E082E10E94920A65EE75E081EE11
:1052F00095E00E940A0680E20E94560D6091E90541
:1053000088E695E00E94D30D8AE3809341014AE349
:1053100051E063E086E00E9429071C821B821E8206
:105320001D821A8219826BE779E0CE0101960E94F4
:10533000EF1609811A81AE014F5F5F4F63E080E095
:105340000E943E07C8010E94C1111C821B821E825E
:105350001D821A8219826FE679E0CE0101960E94C1
:10536000EF1609811A8160E0CE0101960E94251393
:10537000C8010E94C1116AE371E08DE096E00E94CD
:105380005D138091D4059091D505029709F048C02E
:105390008091DF059091E005029709F041C01C82E1
:1053A0001B821E821D821A82198261E879E0CE0179
:1053B00001960E94EF1609811A81CE0101960E9482
:1053C000B107C8010E94C1118091E5059091E605E1
:1053D000A091E705B091E8054091DA055091DB0511
:1053E0006091DC057091DD05481759076A077B0756
:1053F00090F465EE75E081EE95E00E940A0680E289
:105400000E94560D6091DE0582E395E00E94D30D67
:1054100084E090E01ECB6AED75E086ED95E0EDCF7F
:1054200010913005111509F443C00E94CB05698322
:105430007A838B839C83BE016F5F7F4F81EE95E003
:105440000E940A0680E20E94560D8091DF0590912D
:10545000E005019799F41091E905612F88E695E040
:105460000E94D30D612F82E395E00E94D30D4AE3A1
:1054700051E063E086E00E94290710E08091D405A6
:105480009091D5050197A1F40091DE05602F8EE97A
:1054900095E00E94D30D111559F0602F82E395E03D
:1054A0000E94D30D4AE351E062E086E00E942907A2
:1054B000809150018115D9F1109250011C821B82FC
:1054C0001E821D821A8219826EE17AE0CE01019657
:1054D0000E94EF1609811A8161E0CE0101960E94B7
:1054E0002513C8010E94C1114091510150915201F0
:1054F000609153017091540182E00E94902461E513
:1055000071E081EE95E00E940A0680E20E94560D4D
:105510008AE3809341014AE351E061E086E00E9422
:1055200029074EEF52E061E080E00E942907809158
:105530006B01811509F463CC10926B011C821B82F4
:105540001E821D821A8219826FE07AE0CE010196D6
:105550000E94EF1609811A8161E0CE0101960E9436
:105560002513C8010E94C11140916C0150916D0139
:1055700060916E0170916F0186E00E9490241C8200
:105580001B821E821D821A82198262E07AE0CE019D
:1055900001960E94EF1609811A81CE0101960E94A0
:1055A000B107C8010E94C11122E030E03093D50557
:1055B0002093D4058BE68093DE053093E00520939D
:1055C000DF058093E90524CF80917D018115D1F01D
:1055D00010927D011C821B821E821D821A821982FA
:1055E00063EF79E0CE0101960E94EF1609811A81DE
:1055F00061E0CE0101960E942513C8010E94C111ED
:105600000E94011580916B01811509F4F8CB10926D
:105610006B010E94200B91CA80917D01811509F4D4
:105620009DC010927D0181E0809320071092D605E5
:105630001092D7051092D8051092D90580913601A5
:1056400090913701A0913801B09139018093DA052A
:105650009093DB05A093DC05B093DD051092D50592
:105660001092D4058BE68093DE051092E00510922F
:10567000DF058093E9056AED75E086ED95E00E940F
:105680000A0680E20E94560D109244010E94BF0D4E
:105690001C821B821E821D821A8219826BEE79E0A7
:1056A000CE0101960E94EF1609811A81CE01019662
:1056B0000E94B107C8010E94C1114AE351E062E0B3
:1056C0008AE00E9429071C821B821E821D821A8288
:1056D00019826CED79E0CE0101960E94EF160981E6
:1056E0001A81AE014F5F5F4F62E080E00E943E078B
:1056F000C8010E94C1111C821B821E821D821A8257
:10570000198267EC79E0CE0101960E94EF160981BB
:105710001A81AE014F5F5F4F63E080E00E943E0759
:10572000C8010E94C11187E0EFE0F3E0DE011196AD
:1057300001900D928A95E1F787E0FE013196AEE87F
:10574000B5E001900D928A95E1F787E0FE01319670
:10575000A8E5B5E001900D928A95E1F780912007C8
:10576000811509F10E94CB05AB01BC01809132018A
:1057700090913301A0913401B0913501009123073C
:10578000109124072091250730912607800F911F43
:10579000A21FB31F481759076A077B0720F0109212
:1057A00020070E941E1480916201811541F1109220
:1057B00062018091360190913701A0913801B0913A
:1057C00039018133F5E79F07A105B10508F459C0F8
:1057D00080539547A109B109809336019093370111
:1057E000A0933801B093390181E080937D0110923C
:1057F0002307109224071092250710922607809104
:105800005901811561F110925901809136019091F1
:105810003701A0913801B0913901813922EB92070B
:1058200028E0A207B10520F080E992EBA8E0B0E003
:10583000805D9A48AF4FBF4F8093360190933701F8
:10584000A0933801B093390181E080937D011092DB
:1058500023071092240710922507109226078091A3
:105860007401811531F01092740186E090E00E947D
:10587000D70580916B01811509F4C1CA10926B01A3
:10588000EBCB80E395E7A0E0B0E0A6CF80917D016F
:10589000811509F45BC00E94FB0510927D011C82FA
:1058A0001B821E821D821A82198267EB79E0CE016B
:1058B00001960E94EF1609811A8161E0CE010196DE
:1058C0000E942513C8010E94C1110E94BF0D1C82B5
:1058D0001B821E821D821A8219826FEA79E0CE0134
:1058E00001960E94EF1609811A81CE0101960E944D
:1058F000B507C8010E94C11181E090E09093E005D6
:105900008093DF0588E68093E9050E94CB05462F4A
:10591000572FBC014093E1055093E2056093E305E6
:105920007093E4058091DA059091DB05A091DC0588
:10593000B091DD05840F951FA61FB71F8093E50565
:105940009093E605A093E705B093E80580916B017D
:105950008115D9F010926B011C821B821E821D8260
:105960001A8219826FE979E0CE0101960E94EF1642
:1059700009811A8161E0CE0101960E942513C801B8
:105980000E94C1110E94D40C67CB80913005811513
:1059900009F435CA0E94CB05462F572FBC0140930E
:1059A000E1055093E2056093E3057093E40580916F
:1059B000E5059091E605A091E705B091E80584170B
:1059C0009507A607B707C0F066960FB6F894DEBF36
:1059D0000FBECDBFDF91CF911F910F91FF90EF9040
:1059E000DF90CF90BF90AF909F908F907F906F90FF
:1059F0005F904F900C941E141C821B821E821D828D
:105A00001A8219826FE879E0CE0101960E94EF16A2
:105A100009811A8161E0CE0101960E942513C80117
:105A20000E94C11181E090E00E94D70520E030E0A3
:105A300040ED57E068EC70E081E07ACBC090360131
:105A4000D0903701E0903801F09039016091320137
:105A500070913301809134019091350128EE822EAE
:105A600023E0922EA12CB12CA50194010E94E03DCF
:105A700029013A016B8B7C8B8D8B9E8BC701B60104
:105A800020E63AEE40E050E00E94E03D2983C70165
:105A9000B601A50194010E94E03D6CE3862E912C95
:105AA000A12CB12CCA01B901A50194010E94E03DCD
:105AB0006A83C301B201A50194010E94E03D6B839A
:105AC0006B897C898D899E8924E630E040E050E036
:105AD0000E94E03D2C83AE014F5F5F4F60E081E0AC
