:100000000C9475050C949D050C949D050C949D0510
:100010000C9485340C949D050C949D050C949D05C1
:100020000C949D050C94CC350C949D050C949D0569
:100030000C949D050C942F330C949D050C949D05F8
:100040000C949D050C949D050C94EC340C949D052A
:100050000C9434350C945A350C949D050C949D05E4
:100060000C949D050C949D050C945E330C949D0599
:100070000C9480350C94A6350C949D056364696ED0
:100080006F70737578585B0020756C6F7A656E00C1
:100090004C6F672074797023004E61706C6E656ED2
:1000A0006F206D6178207A617A6E616D752E204EB9
:1000B00045554C4F5A454E4F003D3D3D204B6F6ED0
:1000C0006563207A617A6E616D75203D3D3D0A0061
:1000D0004361733A20202020202020004461747561
:1000E0006D3A2020202020002D2D2D2D2D2D2D2D61
:1000F0002D2D2D2D2D2D2D2D2D2D2D2D2D005679E8
:10010000736C6564656B3A20204E45524F5A484FD8
:10011000444E4500526F7A64696C3A2020202000DA
:10012000566974657A3A2020202020505241564169
:1001300020445241484100526F7A64696C3A202051
:10014000202000566974657A3A20202020204C45F2
:1001500056412044524148410050726176792063F3
:1001600061733A20004C657679206361733A2020F0
:10017000002D2D2D20536F7568726E207A61766F79
:100180006475202D2D2D0052455345540043494C94
:100190000043494C2050524156412044524148416D
:1001A0000043494C204C45564120445241484100AF
:1001B0004D455A49434153005354415254000A3D5E
:1001C0003D3D205A617A6E616D207A61766F64756B
:1001D000203D3D3D001209120912091200091209C1
:1001E00012091209000000120912000000000009A3
:1001F000120900000000001E0F1E00000000000F8A
:100200001E0F000000181C1E1F1E1C1800436879DA
:100210006261206B6F6E66696775726163652064E9
:100220006973706C656A6520320043687962612089
:100230006B6F6E6669677572616365206469737060
:100240006C656A652031004B6F6E66696775726117
:10025000636520646973706C656A7500525443204D
:100260006E6572656167756A6500537461727420AA
:1002700000533E4D6F7A6E6F737469204C2F503E61
:10028000566F6C62610002000020002300260029E6
:100290000000000002030000000000000005040947
:1002A0000800000000000000000000000000000046
:1002B0000000002200250028002B0000002100245F
:1002C0000027002A000202020202020202040404C1
:1002D00004040404040303030303030303010101EF
:1002E0000101010101010204081020408001020403
:1002F0000810204080010204081020408001020400
:1003000008102040801F1C1F1E1F1E1F1F1E1F1EA7
:1003100053797374656D003E20004C3E53797374BD
:10032000656D20503E4D6F64756C00556C6F7A6939
:1003300074206E6173746176656E6900556C6F7AB6
:10034000656E6F00567970005A6170005A6F627264
:10035000617A206361732070756C7A7500507265E4
:10036000706E757469206D6F64756C75002D2D3E0F
:10037000002720616B7469766E69004D6F64756C3F
:10038000202700202068656C70202020202020205D
:1003900020202020202020202020202020202D2050
:1003A0007461746F206E61706F76656461002020E7
:1003B000696E666F20202020202020202020202011
:1003C0002020202020202020202D207A6F627261A2
:1003D0007A69207564616A65206F2068617264774C
:1003E0006172652F6669726D776172650020207099
:1003F000657266203C317C303E2020202020202069
:1004000020202020202020202D207A61702F767936
:1004100070207A6F6272617A6F76616E692072798C
:1004200063686C6F7374692070726F6772616D7549
:1004300000202072746320595959592D4D4D2D4477
:10044000442048483A4D4D3A535320202D206E61A8
:10045000737461766920636173207620525443007F
:10046000202064656C203C6D3E203C6B3E202020AB
:1004700020202020202020202020202D20736D618E
:100480007A65207A617A6E616D203C6D6F64756C5F
:100490003E203C6B6C69633E002020736574203CF9
:1004A0006D3E203C6B3E2048205B2C482C482E2E75
:1004B0002E5D20202D206E6173746176692070722C
:1004C0006F203C6D6F64756C3E203C6B6C69633EC5
:1004D00020617A20313220686F646E6F7420302D75
:1004E000323535002020736574203C6D3E203C6B16
:1004F0003E20227465787422202020202020202D88
:10050000206E6173746176692070726F203C6D6F2C
:1005100064756C3E203C6B6C69633E20617A2031CF
:1005200032207A6E616B750020206C697374205BD9
:100530006D5D205B6B5D202020202020202020206E
:100540002020202D20767970697365207A617A6E7B
:10055000616D792028767365207C206A6564656EFC
:10056000206D6F64756C207C206A656E206D6F64F1
:10057000756C2B6B6C6963000A5072696B617A79D8
:100580003A00202020204C6F67207A617A6E616DDE
:10059000753A200020202020506F636574206D6F15
:1005A00064756C753A2000290031363A31303A349E
:1005B0003600417567203235203230323500202830
:1005C000002B7635302D323058342D307832372D9F
:1005D00072746300524D5320302E330046573A2038
:1005E0000053616B756C2053746F706B7920763596
:1005F0002E300048573A2000205A6164656A20274F
:1006000068656C70272E0043687962612E004E6524
:100610007A6E616D79207072696B617A2E00436128
:10062000732076205254433A20004E656E616C650B
:100630007A656E6F2E20005A617A6E616D20736D3F
:10064000617A616E2E0043687962612E2028486FBE
:10065000646E6F7479207072657320746578743F6E
:10066000290043687962612E2028546578742070CF
:1006700072657320686F646E6F74793F29004F4B09
:100680002E205465787420756C6F7A656E2E004349
:100690006879626E792076737475702E004E616C85
:1006A000657A656E6F3A20002D2D2D2D2D2D2D2D67
:1006B0002D2D2D2D2D2D2D0020200000200020205F
:1006C000000020002020000020002D2D2D2D2D2D9C
:1006D0002D2D2D2D2D2D2D2D2D004D6F64756C2064
:1006E0004B6C69632044617461005072696A617483
:1006F0006F2027002D2D35352D2D20005465726D6E
:10070000696E616C3A202768656C702700536572CA
:1007100069616C203131353230302F382F316269C8
:1007200074004E6173746176656E69004A65207469
:100730006F20616C65206A656E2064656D6F206155
:1007400020646F2070616D657469206E657A6170D8
:100750006973756A652E0044656D6F20646F7374EC
:10076000616C6F20706F6B796E20756C6F7A697435
:1007700020737665206E6173746176656E692E00F4
:1007800053746F706B7900557074696D65004465C2
:100790006D6F005B20202020202032377833376DAA
:1007A000733D3939396D732020202020205D2020B1
:1007B00020204361732070726920277C27002D2D33
:1007C0003E207465726D696E616C0044656D6F00EA
:1007D00044656D6F206B6F6E636900484F44494EEE
:1007E00059005A61646F7374206F20767970697351
:1007F000005A727573656E6F004D6572656E692083
:100800007A727573656E6F004D657A696361730006
:100810004C2F503E556B6F6E63692020523E5A72CA
:10082000757369740053746F706B790053746F70D3
:100830006B79207370757374656E7900526573659A
:1008400074203E205A7061746B7900537461727425
:10085000203E205A6168616A69207A61766F64007F
:1008600053544F504B5900446C6F757A6520526554
:10087000736574203E204D656E7500526573657416
:10088000203E2046756E6B63650053544F504B59A4
:1008900020532D4C5000556B6F6E63656E6F005585
:1008A0006B6F6E63656E6F005A61646F7374206F57
:1008B000207679706973005A727573656E6F004D9A
:1008C0006572656E69207A727573656E6F004D652D
:1008D0007A6963617300533E556B6F6E63692020C4
:1008E0002020523E5A72757369740053746F706B96
:1008F000790053746F706B79207370757374656EC3
:1009000079005265736574203E205A7061746B796A
:10091000005374617274203E205A6168616A6920D4
:100920007A61766F640053544F504B5900446C6F9A
:10093000757A65205265736574203E204D656E752D
:10094000005265736574203E2046756E6B636500CA
:1009500053544F504B5920532D53004C6576612012
:100960006472616861004C65766100507261766105
:10097000206472616861005072617661005A61762C
:100980006F6420736B6F6E63696C004F64706F638C
:10099000657420736B6F6E63696C005A7275736552
:1009A0006E69206F64706F637475004F64706F635D
:1009B0006574005A6168616A656E206F64706F6368
:1009C00065740052657365743E204D6572656E698D
:1009D000207A61766F64750053746172743E205A98
:1009E0006168616A6974004F44504F434554005A2E
:1009F00061646F7374206F207679706973005A6137
:100A0000766F64207A727573656E004D6572656EDF
:100A100069207A727573656E6F004D657A696361DE
:100A200073005A61766F6400434859424120534530
:100A30004E5A4F52553A00202D452D20004B6F6ED7
:100A400063616B79204F4B00202D452D2000202D18
:100A5000452D20004348594241206B6F6E63616B06
:100A600075005A61766F64207A6168616A656E000C
:100A70005265736574203E205A7061746B7900531F
:100A800074617274203E205A6168616A69207A61DB
:100A9000766F64005A41564F4400446C6F757A6516
:100AA000205265736574203E204D656E7500526559
:100AB000736574203E2046756E6B63650053544F1A
:100AC000504B592048550050756C7A20004C6F6788
:100AD0002070726970726176656E00454550524FA4
:100AE0004D20706C6E6121008D3C11241FBECFEF34
:100AF000D0E1DEBFCDBF13E0A0E0B1E0E0E8F1E976
:100B000002C005900D92A233B107D9F727E0A2E306
:100B1000B3E001C01D92A637B207E1F715E0C5E7C3
:100B2000D5E004C02197FE010E94AD3DC437D10736
:100B3000C9F70E9428360C94B2480C940000CF9359
:100B4000DF93FC01DB015481369614968C91149747
:100B50008150990B40E0541303C0DF91CF91089569
:100B600014962D913C9115978217930770F42D914F
:100B70003C9111972115310541F0280F391FE901EA
:100B8000288121934F5F0197E6CF20E0FACF2FB75E
:100B9000F894609117077091180780911907909148
:100BA0001A072FBF0895CF93DF93D82FC92F0E9424
:100BB000C70560931E0770931F07809320079093CB
:100BC0002107D0931C07C0931D0781E080937D010E
:100BD00010921B071092740110926B011092620127
:100BE0001092590110925001DF91CF9108958FB763
:100BF000F8941092160710921507109214079DE0B2
:100C000090934F01109213078FBF08954F925F92F8
:100C10006F927F92AF92BF92CF92DF92EF92FF924C
:100C20000F931F93CF93DF93FB01C080D180E280AD
:100C3000F380FC0180819181A281B381C81AD90A15
:100C4000EA0AFB0AC701B60128EE33E040E050E0B3
:100C50000E946C3D8B01C2E0D7E07D836C838CE306
:100C6000482E512C612C712CCA01B901A3019201AB
:100C70000E946C3DB62E6B83CA01B901A30192019B
:100C80000E946C3DA62E6A83C701B60120E83EEEA5
:100C900046E350E00E946C3DF90139832883C90185
:100CA00068EE73E00E94583D6E8394E6E92EF12CC5
:100CB000CF01B7010E94583DCB012AE030E0B901D5
:100CC0000E94583D8F83CF01B9010E94583D482FA3
:100CD000CB01B9010E94583D888749874AE08A2D97
:100CE000642F0E944C3D8A879B878B2D0E944C3D30
:100CF0008C879D87C801B7010E94583D6E87C80147
:100D0000B9010E94583D482FCB01B9010E94583DBE
:100D10008F87488BDF91CF911F910F91FF90EF90BC
:100D2000DF90CF90BF90AF907F906F905F904F908B
:100D300008958091170790911807A0911907B09115
:100D40001A078093040690930506A0930606B093B5
:100D5000070680918400909185009093030680930C
:100D6000020681E080930106089580911707909113
:100D70001807A0911907B0911A078093FD05909369
:100D8000FE05A093FF05B09300068091840090912A
:100D900085009093FC058093FB0581E08093FA0524
:100DA00008958091170790911807A0911907B091A5
:100DB0001A078093F6059093F705A093F805B09372
:100DC000F90580918400909185009093F5058093BA
:100DD000F40581E08093F3050895809117079091C1
:100DE0001807A0911907B0911A078093EF05909307
:100DF000F005A093F105B093F205809184009091E5
:100E000085009093EE058093ED0581E08093EC05DD
:100E100008958091170790911807A0911907B09134
:100E20001A078093E8059093E905A093EA05B0932B
:100E3000EB0580918400909185009093E705809365
:100E4000E60581E08093E5050895FA0190E024E14C
:100E5000629FB00111242191211519F0843191056F
:100E600009F40895DC01A60FB71FAE5DB84F2C93AF
:100E70000196F1CFCF93DF93DA0114962C9114975A
:100E800094E1981B291708F4922FE82FF0E084E1F1
:100E9000689FE00DF11D1124EE5DF84F20E030E079
:100EA000291718F0DF91CF91089514964D915C9118
:100EB00015972417350770F44D915C9111974115E2
:100EC000510541F0420F531FEA01888181932F5F42
:100ED0003F4FE6CF80E0FACF0F931F93CF93DF937E
:100EE0008C01C42F062E000C770B4AE050E082E202
:100EF00097E00E94D3436C2FCC0F770B4AE050E071
:100F00008CE297E00E94D343D80114968D919C9176
:100F1000C4E1D0E0C81BD90BD695C795C43128F4DD
:100F2000A80160E08C2F0E943A07DD27FE01EF5DEB
:100F3000F84F80E28083D8011496ED91FC91EE5D2C
:100F4000F84FEC0FFD1F8083DF91CF911F910F9120
:100F5000089542E061E00C946C0744E063E00C9477
:100F60006C0746E065E00C946C0780E090E0089523
:100F7000089508950895DC01ED91FC910684F785AC
:100F8000E02D40E00994DC01ED91FC910684F785A9
:100F9000E02D41E0099581E090E00895DC0181E0D9
:100FA00001C0880F6A95EAF71C968C931C971A96D5
:100FB0005C934E931997ED91FC9111970484F585FC
:100FC000E02D60E0CD0109948091EF049091EE0452
:100FD000891B990B08959091EE048091EF042FEFF7
:100FE0003FEF981748F4E92FF0E0E253FB4F2081E0
:100FF00030E09F5F9093EE04C9010895E091EE0404
:101000008091EF04E81730F4F0E0E253FB4F808169
:1010100090E008958FEF9FEF089508950895089543
:101020002091CD04260F3327331F21323105ECF4F4
:101030002091CC04FC0180E090E0243069F082E053
:101040000895A091CD042191AC0144555B4FA40FAC
:10105000B52FB11D2C930196861798F38091CD047E
:10106000680F6093CD0480E0089581E00895CF93E8
:10107000DF930F92CDB7DEB7FC0169838091130532
:101080008115F1F080911005803250F081E090E000
:101090009383828380E090E00F90DF91CF91089559
:1010A00080911105E82FF0E0E051FB4F998190838A
:1010B0008F5F809311058093100581E090E0ECCF65
:1010C00061E0CE0101960E941008F7CFCF92DF9227
:1010D000EF92FF920F931F93CF93DF937C01CB018D
:1010E0008A01209113052115D9F0EB016B01C40E83
:1010F000D51ECC15DD0551F4C801DF91CF911F91AC
:101100000F91FF90EF90DF90CF9008956991D701F4
:10111000ED91FC910190F081E02DC7010995E9CF97
:10112000642F0E941008E8CF85ED8093BC00809169
:10113000BC0084FDFCCF1092CC0408959C0150E0CB
:10114000E5E0F3E081E08617F8F0633038F0C9019C
:1011500083709927892B11F44F5F5F4FC901039664
:101160009695879596958795EDE6F1E02E9FB001CF
:101170002F9F700D3E9F700D112461507109860FD5
:10118000971F840F951F08959491490F511D8F5FEC
:101190003196D9CF1F93CF93DF93DC0152968D9177
:1011A0009C915397009751F421E030E013963C93C3
:1011B0002E931297DF91CF911F9108951D96ED9177
:1011C000FC911E971C962C911C97322F30957FB75F
:1011D00054964C915497142F127041FD21C0F894ED
:1011E000408143234083EC012197F1F748E050818F
:1011F00060FF1BC0522B5083EC012197F1F76695DD
:101200004A95A9F78081111591F0832380837FBFD0
:1012100052968D919C910197F1F781E090E0CACFB1
:101220006095F8944081422BDDCF5323E4CF822B8D
:10123000EDCF8FEF9FEF089580E090E0089508953F
:101240003FB7F89480916D0490916E04A0916F0463
:10125000B091700426B5A89B05C02F3F19F00196E8
:10126000A11DB11D3FBFBA2FA92F982F8827BC0100
:10127000CD01620F711D811D911D42E0660F771F28
:10128000881F991F4A95D1F708954F925F926F92E8
:101290007F928F929F92AF92BF92CF92DF92EF9206
:1012A000FF920F931F93CF93DF938B01D82FC92FFA
:1012B0000E942009262F822E972E5C016801ED2EB8
:1012C000FC2E05C0C114D104E104F10409F10E940F
:1012D00020092B013C01481859086A087B0886013F
:1012E000DE2DCF2D31E0C31AD108E108F108282DF9
:1012F000792DC50138EE830E33E0931EA11CB11C7D
:1013000038EE431633E0530661047104D8F6D3CFA8
:10131000DF91CF911F910F91FF90EF90DF90CF90D1
:10132000BF90AF909F908F907F906F905F904F9005
:1013300008959C01019741F0220F331F220F331FA4
:10134000C90105970197F1F70895CF93DF93EC0159
:10135000423018F08C8188608C834F836887211518
:1013600029F0413019F48C8184608C8364E670E04C
:1013700080E090E00E9445096C8164FD5BC0E881DB
:10138000F9810684F785E02D42E063E0CE010995FE
:1013900084E991E10E949909E881F9810684F78541
:1013A000E02D42E063E0CE01099586E990E00E94DD
:1013B0009909E881F9810684F785E02D42E063E030
:1013C000CE01099586E990E00E949909E881F981AA
:1013D0000684F785E02D42E062E0CE01099586E9BA
:1013E00090E00E9499096C816062CE010E94BB0767
:1013F0008CE390E00E94990984E08D836CE0CE013B
:101400000E94BB0761E0CE010E94BB0780ED97E020
:101410000E94990982E08E8366E0CE010E94BB079C
:10142000E881F9810484F585E02D6FEFCE01DF912D
:10143000CF9109946062CE010E94BB0784E991E1DB
:101440000E9499096C816062CE010E94BB0786E907
:1014500090E00E9499096C816062CE010E94BB07F6
:10146000BECFCF93DF9390E0FC01EB51FD4F249171
:101470008B539D4FFC0184918115D1F090E0880F32
:10148000991FFC01E554FD4FA591B591FC01EF5466
:10149000FD4FC591D5919FB7623069F4F8943C91A6
:1014A000822F809583238C938881822B88839FBF92
:1014B000DF91CF910895F8948C91822B8C93F7CF84
:1014C000853099F038F4833011F1843041F0823066
:1014D000D1F00895883069F0893089F008958091BD
:1014E00080008F77809380000895809180008F7DA9
:1014F000F9CF8091B0008F778093B00008958091EC
:10150000B0008F7DF9CF84B58F7784BD089584B501
:101510008F7DFBCF1F93CF93DF93162F282F30E0C3
:10152000F901EF56FD4F8491F901EB51FD4FD49134
:10153000F901EB53FD4FC491C115A1F081110E9437
:10154000600AEC2FF0E0EE0FFF1FEF54FD4FA59166
:10155000B5919FB7F8948C91111108C0D095D823FC
:10156000DC939FBFDF91CF911F9108958D2B8C93BA
:10157000F8CFDF92EF92FF920F931F93CF93DF93F9
:101580008C01D62ED0E0F8018481D81740F0DF918D
:10159000CF911F910F91FF90EF90DF900895780108
:1015A000ED0EF11CF701C68186898C1302C0D1149F
:1015B000E9F19EE0C534C9F07CF4C03219F024F49E
:1015C000C11108C090E011C080ED8C0F91ED9C0F0F
:1015D0008A3058F09FE009C09CE0C03531F09DE0B2
:1015E000C53519F09BE0CC34A9F7F801A081B18191
:1015F00062818381680F6D0F9295907F690FED91E5
:10160000FC9111970190F081E02DCD010995D11148
:101610000AC0F8018581811531F061E0C03209F41A
:1016200060E00E948A0AF7018681868BDF5FABCF7C
:1016300060E08FE00E948A0A60E082E10C948A0AEE
:10164000CF93DF93282F30E0F901EF56FD4F8491BF
:10165000F901EB51FD4FD491F901EB53FD4FC491CA
:10166000C11581F081110E94600AEC2FF0E0EE0FAD
:10167000FF1FE957FD4FA591B591EC91ED2381E056
:10168000E11101C080E090E0DF91CF910895FC016D
:10169000A48DA80FB92FB11DA35ABF4F2C91848DD3
:1016A00090E001968F739927848FA689B7892C9330
:1016B000A089B1898C91837080648C93938D848D83
:1016C000981306C00288F389E02D80818F7D808386
:1016D0000895FC01818D228D90E0805C9F4F821BDC
:1016E00091098F739927089588E096E00E94690B0D
:1016F0009C0181E0232B09F480E0089580ED93E0C4
:101700000E94690B9C0181E0232B09F480E008957D
:1017100080E090E0892B29F00E94740B81110E94D7
:10172000000080E090E0892B29F00E947E0B81115F
:101730000C9400000895FC01918D828D981731F072
:10174000828DE80FF11D858D90E008958FEF9FEF5A
:101750000895FC01918D828D981761F0A28DAE0FD6
:10176000BF2FB11D5D968C91928D9F5F9F73928F5D
:1017700090E008958FEF9FEF0895FC01538D448D05
:10178000842F90E0252F30E0821B930B541710F02C
:10179000CF96089501970895CF93DF93EC01888D3C
:1017A00081110FC0DF91CF9108950FB607FC0DC0D6
:1017B0008C9185FF0AC0808185FF07C0CE010E9401
:1017C000470BAA89BB89E889F9898C9185FDEDCF02
:1017D000808186FFEACFE6CFEF92FF920F931F93AF
:1017E000CF93DF93EC01F62E81E0888F9B8D8C8D5B
:1017F00098131AC0E889F989808185FF15C09FB7C1
:10180000F894EE89FF896083E889F9898081837083
:10181000806480839FBF81E090E0DF91CF911F9132
:101820000F91FF90EF9008950B8D10E00F5F1F4F09
:101830000F731127E02E8C8D8E1579F0EB8DEC0F48
:10184000FD2FF11DE35AFF4FF0829FB7F8940B8FE5
:10185000EA89FB8980818062DCCF0FB607FCEBCF81
:10186000E889F989808185FFE6CFCE010E94470B88
:10187000E2CFFC01A089B1898C91A689B78982FD4C
:101880000FC09C91818D8F5F8F73228D821749F0DD
:10189000A18DAE0FBF2FB11D5D969C93818F0895D2
:1018A0008C910895CF92DF92EF92FF920F931F9346
:1018B000CF93DF937C016A0100E010E00C151D0559
:1018C00051F4C801DF91CF911F910F91FF90EF90DC
:1018D000DF90CF900895EB01D701ED91FC9101903D
:1018E000F081E02D6991C7010995892B51F30F5FB4
:1018F0001F4FBE01E3CF9091000189130EC0E6E8AF
:10190000F2E0E4919FEF90930001E13049F0E23082
:1019100069F0E11102C010926E0060E00C948A0A36
:1019200090916F009D7F90936F00F7CF9091700022
:101930009D7F9093700091E09093B0009091B100E2
:10194000987F94609093B1001092B300E6CF80939B
:101950000107709300076093FF065093FE064093C3
:10196000FD063093FC062093FB060E94C70560939A
:10197000F7067093F8068093F9069093FA06109292
:10198000F6068CE00C947B0C20E030E040E550E063
:1019900064EC79E081E00C94A70C0F931F932FB7B0
:1019A000F8948091720490917304A0917404B091A2
:1019B00075042FBF8093100690931106A093120612
:1019C000B093130688E096E00E94A90B8F3F98071A
:1019D00021F52FB7F89440917204509173046091EF
:1019E0007404709175042FBF0091100610911106B8
:1019F0002091120630911306401B510B620B730BA2
:101A000000910C0610910D0620910E0630910F06E4
:101A10004017510762077307A8F21F910F910895AD
:101A200090B190937A04EBE6F0E09081982B90834C
:101A3000E8E6F0E08081816080830895FC01AC01DC
:101A4000425F5F4F8FEF9FEF2191922728E0BC010B
:101A5000880F991F77FF04C031E2832730E1932775
:101A60002A95A9F74E175F0779F70895CF93DF936B
:101A7000EC010E941E0D9C0181E04E855F8542179E
:101A8000530709F080E0DF91CF910895209102077C
:101A9000309103072115310509F458C090910807CA
:101AA000911509F44DC0905D90933A01909109070A
:101AB000911509F447C0905D90933B0190910A07FE
:101AC000911509F441C0905D90933C0190910B07F2
:101AD000905D4AE390933D0140933E0190910C0745
:101AE000911102C0232B11F080E3890F80933F01F5
:101AF00080910D07805D809340018091100790E2F6
:101B0000853008F49AE39093410190910E07905D1F
:101B10009093420190910F07905D909343019EE254
:101B200090934401805D8093450180911107805D11
:101B30008093460180911207805D8093470108954C
:101B4000982FB2CF982FB8CF982FBECF80933A015D
:101B500080933B0180933C01982F482FBBCF40E5F9
:101B600050E060E270E082E297E00C94D34324E11D
:101B7000829FC001112444E150E060E270E08E5D7C
:101B8000984F0C94D343CF93DF939C010696F901B1
:101B9000C481C20FD32FD11D6F71A62F660FBB0B4F
:101BA000A75CBE4F2C173D0719F4DF91CF91089524
:101BB000EDA1EA3331F44C91FC014193CF0121971F
:101BC000F1CFEF710E2E000CFF0BE75CFE4F408152
:101BD000F3CFCF93C82F80E20E94460DC11519F0B4
:101BE0008AE3809341014AE351E063E086E00E948A
:101BF0002507C091E4056C2F8DE295E00E94C30D8E
:101C00006C2F83E695E0CF910C94C30DFC014481C9
:101C100055816081718188E096E00C94520C2F927E
:101C20003F924F925F926F927F928F929F92AF926C
:101C3000BF92CF92DF92EF92FF920F931F93CF93B9
:101C4000DF936C012B017A0100E010E03324339420
:101C50008EEC682E84E0782E95EC292ED601149611
:101C60008D919C91E701C01BD10B8C179D0708F447
:101C7000EC0121E0C7018C1B9D0B0817190708F424
:101C800020E0F60190818C2FC13208F080E2309183
:101C9000CC043111FCCF3092CC042093A604FFEF8A
:101CA000F093A4047092A8046092A7041092AA046E
:101CB0002FEF280F2093A9043092AB042091AB049E
:101CC000990F922B9093AB049091A5049130F1F56C
:101CD0001092A5049091AB049093BB009091BC002E
:101CE00093FDF8CF2092BC009091CC049130E1F3A9
:101CF0009091AA04981710F48091AA041092EE040F
:101D00008093EF048C171D0671F44201800E911E22
:101D1000A12CB12CCA15DB05E9F40C0F1D1F0E1503
:101D20001F0508F49BCFDF91CF911F910F91FF907A
:101D3000EF90DF90CF90BF90AF909F908F907F906B
:101D40006F905F904F903F902F90089525EE2093D5
:101D5000BC00CACFD60111968D919C91DC01ED910A
:101D6000FC910284F385E02D0995F40181934F01E4
:101D7000FFEFAF1ABF0ACECF0F931F93CF93DF931E
:101D80008C01EB01FE0164912196611521F0C801DF
:101D90000E94EC0BF7CFDF91CF911F910F91089527
:101DA0000C94EC0B282F3091100581E0313208F0B3
:101DB00042C08091CC048111FCCF9091120542E089
:101DC0004093CC042093A6042FEF2093A40440EF6B
:101DD00054E05093A8044093A7041092AA043093AF
:101DE000A9041092AB042091AB04990F922B90930D
:101DF000AB049091A504913029F51092A50490911F
:101E0000AB049093BB009091BC0093FDF8CF95EC90
:101E10009093BC009091CC049230E1F39091A40493
:101E20009F3F49F08091A404803271F08091A40416
:101E3000803361F483E01092110510921005109226
:101E40001305089595EEE4CF82E0F5CF84E0F3CF5B
:101E50001092EE041092EF041092110510921005EA
:101E60001092CC0481E08093A6041092A50461E056
:101E700081E10E948A0A61E080E10E948A0AE9EB1E
:101E8000F0E080818E7F808380818D7F808388E4F5
:101E90008093B80085E48093BC008FE098E0909335
:101EA0007F0480937E048EE098E090938204809378
:101EB00081040895CF93DF93EC018B818115A1F00C
:101EC000888191E09093130580931205109211057B
:101ED0001092100581E00E94D20E982F81E091119E
:101EE00080E0DF91CF9108950E94280F81E08B83DD
:101EF000CE010E945A0F8111E3CFF3CFFC01838101
:101F00008115A1F08181682B6083828191E090939B
:101F1000130580931205109211051092100584E1AB
:101F200095E00E94370881E00C94D20E0895EF925C
:101F3000FF920F931F93CF93DF93EC01162F042F83
:101F4000F22E8B85888B0E94280F8889EE24E394DB
:101F5000E09213058093120510921105109210055E
:101F600081E00E94D20E811111C0E98A84E195E0DE
:101F70000E94EB078E878989811549F01F861C8294
:101F800060E0CE010E960E947E0F01C0198A2F2DAF
:101F9000402F612FCE01DF91CF911F910F91FF90C4
:101FA000EF900C94A509FC01862F6485611599F0CA
:101FB000218532852115310521F4811107C060E0AA
:101FC00005C021303105D9F78111F9CF6587CF01DF
:101FD0000E960C947E0F0895EF92FF921F93CF936D
:101FE000DF93EC01FC019C012C5F3F4F80E060FF20
:101FF00002C09589892B66953196E217F307B9F7E8
:10200000413009F44C899D85892B142F182B7E01B2
:102010008EE0E80EF11C6A89612BC7010E947E0FD9
:102020006A8960956123C701DF91CF911F91FF906D
:10203000EF900C947E0F0F931F93CF93DF93D82FC5
:10204000C92F142F062F0F7040E0123031F0629527
:102050006F70412F0E94EC0F412F602F8D2F9C2F0E
:10206000DF91CF911F910F910C94EC0FEF92FF92A3
:102070000F931F93CF93DF9390E1899F80011124E9
:10208000EB01CB0140967C01C8010E943447899343
:102090000F5F1F4FCE15DF05B9F7DF91CF911F916D
:1020A0000F91FF90EF900895DF92EF92FF920F93C0
:1020B0001F93CF93DF93CDB7DEB760970FB6F89439
:1020C000DEBF0FBECDBF082FF62EE42ED52E11E0B9
:1020D000BE016F5F7F4F8FEF810F0E943610CE01E0
:1020E00001960E94360D8115F1F0998190131BC065
:1020F0009A819F77F91217C09CE0FE013396AE2DAE
:10210000BD2D01900D929A95E1F760960FB6F89467
:10211000DEBF0FBECDBFDF91CF911F910F91FF901A
:10212000EF90DF9008951F5F103491F680E0EDCFBF
:10213000CF92DF92FF920F931F93CF93DF9390E1A3
:10214000899F80011124EB01CB0140966C01F9902D
:10215000C8010E943447F81621F06F2DC8010E9473
:102160003C470F5F1F4FCC15DD0589F7DF91CF91FD
:102170001F910F91FF90DF90CF9008951F93CF9301
:10218000DF93FC01EA01122F848195818417950762
:1021900010F480E01DC0808191E09093130580933E
:1021A0001205109211051092100581819281DC01B7
:1021B000ED91FC910280F381E02D0995C817D907B4
:1021C00041F7812F0E94D20E982F81E09111E1CF2B
:1021D000DF91CF911F910895EF92FF920F931F937C
:1021E000CF93DF9300D000D000D00F92CDB7DEB7F1
:1021F0008C011982E0902605F090270520E041E04F
:1022000050E0BE016F5F7F4FC7010E94BE10811575
:1022100041F047E050E0BE016F5F7F4FC7010E9471
:102220000F0E99819F773A814B815D812E812F77A7
:102230006F81862F82958F70782F770F770F871B8E
:10224000880F860FF8018083822F82958F70682F08
:10225000660F660F861B880F820F8183852F8295FC
:102260008F70282F220F220F821B880F850F8283E9
:10227000842F82958F70282F220F220F821B880FA8
:10228000840F8383832F82958F70282F220F220F34
:10229000821B880F830F8483892F82958F70282F4C
:1022A000220F220F821B880F890F8583C801279672
:1022B0000FB6F894DEBF0FBECDBFDF91CF911F9157
:1022C0000F91FF90EF900895DF92EF92FF920F939E
:1022D0001F93CF93DF9300D000D000D0CDB7DEB7EF
:1022E0008C01CE0101960E94EC10EA80FB80FE2456
:1022F000EF24FE24D9804B816A818D2D90E00E94CD
:102300009E08069667E070E00E94583DF8018083C1
:10231000F282E182D3828C8184838D8185838E8158
:1023200086830F900F900F900F900F900F90DF917A
:10233000CF911F910F91FF90EF90DF900895CF9371
:10234000DF93EC0188819981009711F00E9483420C
:10235000198218821D821C821B821A82DF91CF9102
:102360000895009711F00C94834208950F931F93E2
:10237000CF93DF93EC018B0188819981009729F03D
:102380002A813B812617370790F4B8016F5F7F4F92
:102390000E941443FC0180E0309751F0F983E883F8
:1023A0001B830A838C819D81892B09F4108281E033
:1023B000DF91CF911F910F910895DC01FB014481C2
:1023C000558114968D919C9115978417950778F0F7
:1023D0008D919C91009759F0608171816115710513
:1023E00031F00E94F5439C0181E0232B09F080E04D
:1023F0000895AF92BF92CF92DF92EF92FF920F9328
:102400001F93CF93DF938C01DC01ED90FC9011972B
:10241000E114F104B9F11496CD91DC91209791F17A
:1024200057016501F50181915F01082E000C990BA0
:102430000E941940892BA9F72197CE0DDF1D8881B5
:10244000082E000C990B0E941940892B31F5AE0122
:102450004F5F5F4F4C195D09D80115965C934E9301
:102460001497EC14FD0420F4B601C7010E94CA437E
:10247000D801ED91FC91119714968D919C91E80FE4
:10248000F91F1082DF91CF911F910F91FF90EF9074
:10249000DF90CF90BF90AF900895CC15DD05B8F2D6
:1024A0002197CDCFEF92FF920F931F93CF93DF939E
:1024B000EC017B01FB0101900020E9F731978F01CE
:1024C000061B170BB8010E94B611811109C0CE017D
:1024D000DF91CF911F910F91FF90EF900C949F117E
:1024E0001D830C83B70188819981DF91CF911F9162
:1024F0000F91FF90EF900C94EE43FB01EF2B51F006
:10250000DB010D900020E9F71197AD01461B570B39
:102510000C94520C08956F927F928F929F92AF927B
:10252000BF92CF92DF92EF92FF920F931F93CF93C0
:10253000DF93CDB7DEB7A1970FB6F894DEBF0FBE1D
:10254000CDBF3C01142F052F962E872E19A22230C5
:1025500008F42AE05E0181E2A80EB11CC22ED12C43
:10256000E12CF12C612F702F892D982DA701960158
:102570000E946C3D812F902FA92DB82D122F032F73
:10258000942E852E6A3014F5605DF50162935F012B
:102590008C159D05AE05BF0528F7BF01C3010E943C
:1025A0007D12A1960FB6F894DEBF0FBECDBFDF91AE
:1025B000CF911F910F91FF90EF90DF90CF90BF9040
:1025C000AF909F908F907F906F900895695CDDCF62
:1025D000482F50E060E070E02AE088E096E00C943C
:1025E0008B1268E572E00C947D121F93CF93DF93FA
:1025F000D62FC72F142F0E94060E67E173E088E0E4
:1026000096E00E94BC0E8D2F9C2F111549F00E9460
:10261000060E88E096E0DF91CF911F910C94F112A5
:10262000DF91CF911F910C94060ECF92DF92FF9213
:102630000F931F93CF93DF9300D000D000D0CDB77E
:10264000DEB78C01F62E2091110180E1289FB001A8
:10265000112469527E4F1C821B821E821D821A82A7
:102660001982CE0101960E945212C980DA804F2D44
:10267000B801CE0101960E94F512C6010F900F908D
:102680000F900F900F900F90DF91CF911F910F91AE
:10269000FF90DF90CF900C94B111CF93DF93D82FA0
:1026A000C92F0E947D128D2F9C2FDF91CF910C940A
:1026B000F112CF93DF93D82FC92F0E94BC0E8D2F1C
:1026C0009C2FDF91CF910C94F1120C947D120F93FB
:1026D0001F93CF93DF93CDB7DEB762970FB6F89411
:1026E000DEBF0FBECDBF6F87788B898B9A8B042F8F
:1026F000122F1B861C861D861E86BE01615F7F4FC2
:10270000CE010B960E94060680E30E94460D11152D
:1027100031F06BE572E088E096E00E9465130115E8
:1027200099F080913B01898380913C018A8380915B
:102730003D018B838AE38C831D82BE016F5F7F4FD7
:1027400088E096E00E94651380913F018983809123
:1027500040018A838AE38B83809142018C8380913C
:1027600043018D838EE28E83809145018F8380911A
:10277000460188878091470189871A86BE016F5F6D
:102780007F4F88E096E00E946513111531F06EE5E9
:1027900072E088E096E00E94651362960FB6F894A6
:1027A000DEBF0FBECDBFDF91CF911F910F91089576
:1027B000EF92FF920F931F93CF93DF93EC018B0166
:1027C0006115710569F0FB0101900020E9F731976F
:1027D0007F01E61AF70AB7010E94B611811109C0FC
:1027E000CE01DF91CF911F910F91FF90EF900C944C
:1027F0009F11FD82EC82B80188819981DF91CF9190
:102800001F910F91FF90EF900C94EE43FC014481D7
:1028100050E060E270E006960C94D343CF93DF93D0
:10282000C091DA05D091DB0565ED75E081ED95E0AD
:10283000209721F060EE75E08CED95E00E94060691
:1028400080E20E94460D219731F44AE351E062E0B4
:102850008AE00E94250789E995E00E940614C0914C
:10286000E4056C2F83E695E00E94C30D6C2F8DE28A
:1028700095E0DF91CF910C94C30D8F929F92AF9210
:10288000BF92CF92DF92EF92FF920F931F93CF935D
:10289000DF936B017C01A7019601C701B6010E947D
:1028A000AD4860E672E0811114C0C701B6010E9414
:1028B000A34864E672E0892B61F42FEF3FEF4FE706
:1028C0005FE4C701B6010E949E48181694F468E6BA
:1028D00072E088E096E0DF91CF911F910F91FF9019
:1028E000EF90DF90CF90BF90AF909F908F900C941F
:1028F0007D122FEF3FEF4FE75FECC701B6010E945B
:10290000C64087FDE4CF20E030E0A901C701B60151
:102910000E94C64087FF09C06DE288E096E00E94F1
:10292000D00EF7FAF094F7F8F0942EE632E143E097
:102930005AE3C701B6010E9491476B017C010E94D6
:102940006F488B01D82FC92F0E94CB409B01AC014F
:10295000B601C7010E9490476B017C012AE0A801E3
:102960006D2F7C2F88E096E00E948B126EE288E04B
:1029700096E00E94D00EC3E020E030E040E251E457
:10298000B601C7010E942C41F62E072F182FD92F10
:102990000E946F484B01A12CB12C2AE0B501A40183
:1029A00088E096E00E948B12C501B4010E94CB40E2
:1029B0009B01AC016F2D702F812F9D2F0E9490479E
:1029C0006B017C01CA95C1F6DF91CF911F910F91E8
:1029D000FF90EF90DF90CF90BF90AF909F908F903F
:1029E00008952F923F924F925F926F927F928F92B3
:1029F0009F92AF92BF92CF92DF92EF92FF920F938E
:102A00001F93CF93DF93CDB7DEB76B970FB6F894D4
:102A1000DEBF0FBECDBF6EEB71E088E096E00E9496
:102A200059132091A50606EA16E0F80180E0412C32
:102A3000512C3201C12CD12C760188248A94982CF7
:102A4000540182133CC12FEF82169206A206B206F1
:102A5000C1F0D701C601C414D504E604F70410F48C
:102A6000D301C2010097A105B10559F08819990950
:102A7000AA09BB0931E03B8B8F379E4EA643B105B7
:102A800008F41B8A212C312C8091A50628163104CC
:102A900008F42DC12FEF82169206A206B20609F4A1
:102AA0007EC0C114D104E104F10409F478C04114DA
:102AB00051046104710409F472C0D701C601881978
:102AC0009909AA09BB098C8B9D8BAE8BBF8BA30187
:102AD0009201281939094A095B09288F398F4A8FD1
:102AE0005B8F88E096E00E94F11261E771E088E078
:102AF00096E00E94591365E671E088E096E00E9436
:102B0000BC0E20E04B896C897D898E899F890E944B
:102B1000671388E096E00E94F11269E571E088E0B1
:102B200096E00E94BC0E20E04B89688D798D8A8DDD
:102B30009B8D0E94671388E096E00E94F1128C89B9
:102B40009D89AE89BF89288D398D4A8D5B8D82170D
:102B50009307A407B50708F00BC163E471E088E0B0
:102B600096E00E94591367E371E088E096E00E94C6
:102B7000BC0EC301B2016C197D098E099F090E9428
:102B8000CB4020E030E04AE754E40E94FD470E9439
:102B90003D146CE672E088E096E00E944D1368EE0A
:102BA00070E088E096E00E945913CE010C960E94D6
:102BB00064118D851AE0612F0E944C3D805D8983F0
:102BC000905D9A832EE22B838E850E944C3D805D22
:102BD0008C83905D9D832E832F8530E02053384F6A
:102BE00082E38F83C90164E670E00E94583DCB0107
:102BF000EAE0F0E0BF010E94583D805D8887C9018E
:102C0000BF010E94583D282FCB01BF010E94583DB3
:102C1000805D8987205D2A871B866CED70E088E0E7
:102C200096E00E94BC0EBE016F5F7F4F88E096E089
:102C30000E944D138889612F0E944C3D805D8983DD
:102C4000905D9A832AE32B8389890E944C3D805DA5
:102C50008C83905D9D832E838A890E944C3D805D8C
:102C60008F83905D9887198660ED70E088E096E02C
:102C70000E94BC0EBE016F5F7F4F88E096E00E940D
:102C80004D1369EB70E088E096E06B960FB6F89410
:102C9000DEBF0FBECDBFDF91CF911F910F91FF908F
:102CA000EF90DF90CF90BF90AF909F908F907F90EC
:102CB0006F905F904F903F902F900C945913948198
:102CC000913039F480809180A280B3808F5F3596F7
:102CD000B8CE933029F4C080D180E280F380F6CF63
:102CE0009430A1F74080518062807380EFCFD8018B
:102CF0006D917D918D919C91681979098A099B0943
:102D000021E04B890E94671364E872E088E096E056
:102D10000E946513F8018481843021F190F482309F
:102D2000D9F08330E1F068EB71E0813081F088E028
:102D300096E00E94F112FFEF2F1A3F0A0B5F1F4F20
:102D4000A3CE853091F067E871E0863081F788E0A6
:102D500096E00E94BC0EEBCF60EB71E0F8CF61EA29
:102D600071E0F5CF61E971E0F2CF6DE871E0EFCF8E
:102D7000888D998DAA8DBB8D2C893D894E895F895F
:102D800082179307A407B50798F460E271E088E022
:102D900096E00E94591364E171E088E096E00E9499
:102DA000BC0EC701B6016419750986099709E7CEFB
:102DB0006EEF70E088E096E00E945913F0CEEF923B
:102DC000FF920F931F93CF93DF93EC018B01CB0105
:102DD0000E94083E7C01BC01CE010E94B611811107
:102DE00009C0CE01DF91CF911F910F91FF90EF901D
:102DF0000C949F11EC82FD82B80188819981DF914A
:102E0000CF911F910F91FF90EF900C94013E0F9383
:102E10001F93CF93DF9300D000D000D0CDB7DEB7A3
:102E2000EAEDF5E082E090E0918380838BE6828793
:102E300060EE75E08CED95E00E94060681E00E9450
:102E4000E90D1C821B821E821D821A82198266E98C
:102E500078E0CE0101960E94DF1609811A81CE0129
:102E600001960E94AD07C8010E94B11184E090E074
:102E70000F900F900F900F900F900F90DF91CF91C8
:102E80001F910F910C94D3054F925F926F927F9296
:102E90008F929F92AF92BF92CF92DF92EF92FF926A
:102EA0000F931F93CF93DF93CDB7DEB76D970FB618
:102EB000F894DEBF0FBECDBF80911C0790911D0717
:102EC00089309105B1F18A309105C9F0892BA1F1C2
:102ED0006D960FB6F894DEBF0FBECDBFDF91CF91D8
:102EE0001F910F91FF90EF90DF90CF90BF90AF9028
:102EF0009F908F907F906F905F904F9008958CE09F
:102F000090E06D960FB6F894DEBF0FBECDBFDF9197
:102F1000CF911F910F91FF90EF90DF90CF90BF90D6
:102F2000AF909F908F907F906F905F904F900C9498
:102F3000D30580E090E0E5CF80917D01811529F1F6
:102F400010927D010E94AF0D1C821B821E821D8289
:102F50001A8219826BED77E0CE0101960E94DF168E
:102F600009811A81CE0101960E94A907C8010E9419
:102F7000B11189E995E00E94061483E695E00E946C
:102F800006148DE295E00E94061480912B058115B0
:102F900009F49ECFCE0147960E9464112B8D10E25A
:102FA0002A3030F0822F6AE00E944C3D10E3180F67
:102FB00019838AE0B82E822F6B2D0E944C3D20E3AE
:102FC000622E690E6A822AE32B838C8D0E944C3D0F
:102FD00030E3732E780E7C8200E3090F0D832E837D
:102FE0008D8D0E944C3D40E3E42EE80EEF8250E3CD
:102FF000F52EF90EF8861986CE0101966C01AC010A
:1030000062E086E00E9425078F8990E0FC01EE0FC8
:10301000FF1FE80FF91FEA5CFD4F808189838181E2
:103020008A8380E28B838C83288D80E22A3028F08B
:10303000822F6B2D0E944C3D805D8D833AE0822F64
:10304000632F0E944C3D905D9E838EE28F83298D7D
:1030500080E22A3020F0822F0E944C3D805D8887DC
:103060003AE0822F632F0E944C3D905D99878EE25B
:103070008A8782E38B8780E38C878A8D0E944C3D10
:10308000292F0E944C3D905D9D87205D2E871F86D5
:10309000A60163E083E00E94250719836A827B8290
:1030A0000C83ED82FE828AE38F835E0198E0A90E95
:1030B000B11C7E01E0E1EE0EF11CD701F501270104
:1030C0004F0182918D93CE16DF06D1F740913105E5
:1030D00050E0B20183E395E00E94CA4380E2898315
:1030E0008A831B836C827D820E83C501F501229148
:1030F0005F01F70121937F0188169906B1F740918E
:103100009D0550E0B2018FE995E00E94CA43E0CEF0
:103110000F931F93CF93DF9300D000D000D0CDB793
:10312000DEB780911C0790911D078A30910561F1EF
:1031300088F4009709F4B4C0099709F449C00F90C6
:103140000F900F900F900F900F90DF91CF911F91E4
:103150000F9108950B9799F767E577E088E096E07F
:103160000E9459136CE277E088E096E00E945913C0
:103170000F900F900F900F900F900F90DF91CF91C5
:103180001F910F910C94C40C1C821B821E821D8205
:103190001A82198260ED77E0CE0101960E94DF1657
:1031A00009811A8161E0CE0101960E941513C801C0
:1031B0000E94B1118CE090E00F900F900F900F9053
:1031C0000F900F90DF91CF911F910F910C94D30529
:1031D0000E94AF0D1C821B821E821D821A821982E0
:1031E0006BEC77E0CE0101960E94DF1609811A810F
:1031F000CE0101960E94A907C8010E94B1111C824C
:103200001B821E821D821A8219826EEB77E0CE012C
:1032100001960E94DF1609811A81AE014F5F5F4F50
:1032200063E084E00E943A07C8010E94B111409116
:10323000310550E061E572E083E595E00E94CA4304
:1032400040919D0550E062E271E08FEB95E00E94B5
:10325000CA434091670550E062E171E089E895E07A
:103260000E94CA430E94F7050E94C7056093D505D6
:103270007093D6058093D7059093D8051092D10509
:103280001092D2051092D3051092D4051092D00559
:103290001092CF058BE68093D90580E090E08CCF2B
:1032A00080917D01811561F010927D0188E096E0AA
:1032B0000E94F11263E977E088E096E00E945913DA
:1032C00080917401811191C080916B018111B7C00F
:1032D00080916201811571F01092620181E080930A
:1032E000290524E630E040E550E060ED77E083E03A
:1032F0000E94A70C80915901811531F0109259015B
:10330000109229050E94C40C80912B05811105C0E3
:1033100080912905811509F44AC00E94C705609370
:10332000D5057093D6058093D7059093D80565EDA4
:1033300075E081ED95E00E94060680E20E94460D50
:103340004AE351E061E086E00E9425078091CF05C5
:103350009091D0051C821B821E821D821A821982C6
:1033600067E877E0892B11F060E877E0CE010196FD
:103370000E94DF1609811A81AE014F5F5F4F61E045
:1033800080E00E943A07C8010E94B1111091D9054E
:10339000612F89E995E00E94C30D612F83E695E0D6
:1033A0000E94C30D612F8DE295E00E94C30D8091B4
:1033B0002C05811509F463C08AE3809341016FE60F
:1033C00072E088E096E00E9465136AE371E088E0AD
:1033D00096E00F900F900F900F900F900F90DF914D
:1033E000CF911F910F910C944D1310927401809105
:1033F000750190917601A0917701B0917801809349
:10340000D1059093D205A093D305B093D40581E064
:1034100090E09093D0058093CF0588E68093D905FE
:103420000E94F70528E933E040E550E06CED75E0D7
:1034300083E00E94A70C81E080937D0180CE1092F2
:103440006B0180912A0591E0892780932A051C82CF
:103450001B821E821D821A8219826EE877E0CE01DD
:1034600001960E94DF1609811A81CE0101960E9401
:10347000A907C8010E94B1110E94C40C29CF8091F4
:10348000280565E173E0811107C080912B05811546
:1034900009F455CE6DE073E088E096E00F900F9050
:1034A0000F900F900F900F90DF91CF911F910F9180
:1034B0000C9465130F931F93CF93DF9300D000D02C
:1034C00000D0CDB7DEB70E94AF0D1C821B821E82DA
:1034D0001D821A82198262E277E0CE0101960E9473
:1034E000DF1609811A81CE0101960E94A907C80141
:1034F0000E94B1111C821B821E821D821A821982B7
:103500006DE077E0CE0101960E94DF1609811A81F5
:10351000AE014F5F5F4F62E080E00E943A07C80152
:103520000E94B1111C821B821E821D821A82198286
:103530006CEF76E0CE0101960E94DF1609811A81B8
:10354000AE014F5F5F4F63E082E00E943A07C8011F
:103550000E94B1111C821B821E821D821A82198256
:1035600064EF76E0CE0101960E94DF1609811A8190
:10357000BE016F5F7F4F8DE295E00E949F05C801FD
:103580000E94B11189E995E00E94061483E695E056
:103590000F900F900F900F900F900F90DF91CF91A1
:1035A0001F910F910C940614CF92DF92FF920F930C
:1035B0001F93CF93DF9300D000D000D0CDB7DEB7FC
:1035C0008C01F62E1C821B821E821D821A82198299
:1035D00060E173E0CE0101960E94DF16C980DA80B7
:1035E0004F2DB801CE0101960E94F512C6010F9031
:1035F0000F900F900F900F900F90DF91CF911F9130
:103600000F91FF90DF90CF900C94B1117F928F9229
:103610009F92AF92BF92CF92DF92EF92FF920F9361
:103620001F93CF93DF93CDB7DEB766970FB6F894AD
:10363000DEBF0FBECDBF982EB62E742E852EA12CC8
:103640008E010F5F1F4FC982DA82B8018A2D0E9456
:103650003610C980DA80C8010E94360D78018115C4
:1036600079F19C102DC08D2D8F77B81229C0BD1017
:1036700083C08CE0E72DF82DDE01139601900D92AA
:103680008A95E1F7C8010E941E0D988B8F87B801BB
:103690008A2D0E94981081E066960FB6F894DEBFDE
:1036A0000FBECDBFDF91CF911F910F91FF90EF9093
:1036B000DF90CF90BF90AF909F908F907F900895B4
:1036C000A39480E4A812BFCF10E0C982DA82B701C8
:1036D000812F0E943610C980DA80C7010E94360D02
:1036E0008115B9F01F5F103481F700E0C982DA82DA
:1036F000B701802F0E943610C980DA80C7010E946E
:10370000360D811511F0C7FC1AC00F5F003471F738
:103710001FEF0FEF8CE0E72DF82DDE0113960190DF
:103720000D928A95E1F79982BA82C7010E941E0D17
:10373000988B8F871F3F29F0B701812FAACF1FEFEA
:10374000E9CFB701802F0F3F09F0A3CF1C8A1B8A56
:103750001E8A1D8A1A8A198A6BED7AE0CE0141967B
:103760000E94DF1609891A8961E0CE0141960E9404
:10377000D41AC8010E94B11180E08ECF2F923F92DF
:103780004F925F926F927F928F929F92AF92BF9271
:10379000CF92DF92EF92FF920F931F93CF93DF931D
:1037A000CDB7DEB7C054D1090FB6F894DEBF0FBE57
:1037B000CDBF80911C0790911D078C30910569F059
:1037C0008A30910521F58DE295E00E9406148CE087
:1037D00090E090931D0780931C07C05CDF4F0FB6ED
:1037E000F894DEBF0FBECDBFDF91CF911F910F9137
:1037F000FF90EF90DF90CF90BF90AF909F908F9011
:103800007F906F905F904F903F902F900895099711
:1038100091F40E945A1A88E096E00E94690B892B65
:1038200029F410921D0710921C07D7CF88E096E06C
:103830000E94A90BF0CF88E096E00E94690B892BCB
:1038400061F21AA619A618A61FA21CA61BA66E0135
:1038500027E2C20ED11C6AE572E0C6010E94521234
:10386000EFA0F8A40BA51CA50E94CD0C9C01CAAE2C
:10387000DBAE2F3F320721F02A30310509F0A8C115
:10388000F8A6EFA21CA70BA78AAD9BAD0E94F91169
:103890002FA038A4EBA4FCA41C821B821E821D82D4
:1038A0001A8219826AEE76E08E010F5F1F4FC801FF
:1038B0000E94DF16A980BA8060E0C8010E9415133B
:1038C000C5010E94B1118AAD9BAD0E94060E61E751
:1038D00072E088E096E00E944D131C821B821E82DB
:1038E0001D821A82198263E772E0C8010E94521297
:1038F000A980BA80B8018AAD9BAD0E94DD11982ED7
:10390000C5010E94B111911409F4ABC18FEF9FEF73
:103910009E8B8D8B9AA389A3CE0181969F938F93C3
:103920000C979F938F9388E792E09F938F933F929A
:103930002F920E9435446AED76E088E096E00E947E
:1039400059136AEC76E088E096E00E9459130FB6AE
:10395000F894DEBF0FBECDBF712C912C4BEB56E01F
:103960002CEB36E088EB96E04CAF5DAF2EAF3FAF6F
:10397000682E21969FAF21976E01BFE0CB0ED11C20
:10398000B801872D0E943610C8010E94360D81159E
:1039900009F472C0B980B7FC6FC08D899E8997FD0C
:1039A00004C0B816190609F067C04A80A42CE89430
:1039B000A7F889A19AA197FD04C0A816190609F0D5
:1039C0005BC063E872E088E096E00E946513E4E67D
:1039D00067EC76E0BE1638F4FAE064EC76E0BF16E9
:1039E00010F068EC76E088E096E00E94BC0E8B2D2B
:1039F0000E94E81263E872E088E096E00E94651396
:103A000024E6A1ECB6E0BD01A21648F43AE08EEB44
:103A100096E0BC01A31618F0E2ECF6E0BF0188E0E6
:103A200096E00E94BC0E8A2D0E94E81260E288E0B7
:103A300096E00E94EC0B47FEEDC062E288E096E063
:103A40000E94D00E9E012D5F3F4F5901D5016D910F
:103A50005D01611539F088E096E00E94D00ECA142D
:103A6000DB04A1F762E288E096E00E94D00E88E0D5
:103A700096E00E94F1129394739420E4721280CF26
:103A8000911431F068EA76E088E096E00E945913DC
:103A90006DE976E088E096E00E94BC0E892D0E94D8
:103AA000E81288E096E00E94F112992493941C8217
:103AB0001B821E821D821A82198266E872E0C8018A
:103AC0000E945212A980BA80B8018AAD9BAD0E94B3
:103AD000DD11782EC5010E94B111711409F429C1BC
:103AE000188E1F8A1A8E198E1E8A1D8A6E0135E164
:103AF000C30ED11C6AE572E0C6010E9452126FE843
:103B000076E0C6010E94DF16ED88FE88CE018D9614
:103B10009F938F930C979F938F938BE892E09F9343
:103B20008F933F922F920E9435440FB6F894DEBFD8
:103B30000FBECDBF3601029709F0B5C060E270E05C
:103B4000C1010E94DA43009709F4ADC060E270E061
:103B500001960E94DA43009709F4A5C060E270E084
:103B600001960E94DA43DC01892B09F49CC0FD0117
:103B70008D918032E1F3823209F075C06D0162E20D
:103B800070E0CD010E94DA43AC01892B09F48BC0AF
:103B90008CE0F80111928A95E9F74C195D094D30D6
:103BA000510514F04CE050E0B601C8010E940344F6
:103BB0006DA56068A80189A10E94061B6EE776E0EA
:103BC000811102C062E676E0C3010E94DF1669C07F
:103BD00029831A8258013FEFA31AB30AF8A6EFA26D
:103BE0001CA70BA7B5018AAD9BAD0E94B611EFA033
:103BF000F8A40BA51CA5811549F0BE016F5F7F4F8E
:103C0000C701800F911F0E94EE4385010E94CD0CD9
:103C10009C012FCEFE0133962F01B12CD201AD9025
:103C20002D01B4E66CAD7DADAB1648F4EAE0662D2F
:103C300021967FAD2197AE1610F06EAD7FAD88E076
:103C400096E00E94BC0E8A2D0E94E812B394FCE01C
:103C5000BF1609F40CCF6CE288E096E00E94EC0BF2
:103C6000DDCF912C24CF8CE0D8011D928A95E9F705
:103C700068014E01BDE08B0E911C8081811519F009
:103C80008C149D04C1F56DA56F77A80189A10E94D0
:103C9000061B811509F44AC065E972E0C3010E9460
:103CA000D813ED88FE88FE8AED8AC3010E94060EB5
:103CB00088E096E00E94F112C7010E94B111C10193
:103CC000C05CDF4F0FB6F894DEBF0FBECDBFDF91F3
:103CD000CF911F910F91FF90EF90DF90CF90BF9009
:103CE000AF909F908F907F906F905F904F903F909C
:103CF0002F900C94B1115F013196D5018C918032D7
:103D0000D1F3C5010E94B33D8115B1E09B0758F680
:103D1000F60181936F016CE270E0C5010E94DA4305
:103D2000FC01892B09F4AFCF3196A7CF66E476E08A
:103D30004BCF1C821B821E821D821A8219826AEA64
:103D400072E0C8010E945212A980BA80B8018AADFF
:103D50009BAD0E94DD11682EC5010E94B111611456
:103D600009F44AC0CE018D969F938F930C979F9331
:103D70008F938FEA92E09F938F933F922F920E94AE
:103D800035440FB6F894DEBF0FBECDBF0297A1F544
:103D9000ADA4B9A08982B801872D0E943610898010
:103DA000C8010E94360D982E811541F1B81026C029
:103DB0008A818F77A81222C08CE0FE017596DF0100
:103DC000282F1D922A95E9F7DE01139601900D9296
:103DD0008A95E1F78B2D80688983C8010E941E0DAA
:103DE000988B8F87B801872D0E94981067E376E043
:103DF00088E096E00E945913512C0EC0739430E471
:103E00007312C8CF6AE276E088E096E00E94BC0EAA
:103E100055245394992493941C821B821E821D82E4
:103E20001A82198269EB72E0C8010E945212A980BD
:103E3000BA80B8018AAD9BAD0E94DD11882EC50104
:103E40000E94B111811409F424C1370144E0A42E69
:103E5000B12C84E0E816F10420F4570134E0632E1D
:103E6000712C1CA21BA21EA21DA21AA219A24E01F5
:103E700091E2890E911C6AE572E0C4010E9452121F
:103E8000D82C492C89A19AA1AE14BF04A8F44701EB
:103E90006E147F0408F44301820C931CD4017C90BF
:103EA0001C92B1016A0D7B1D8D2D942D0E94D8139B
:103EB00089A19AA1F40170829AA389A38D2D942DD2
:103EC0000E94F911A9A0BAA0CE01C7969F938F9323
:103ED00002979F938F9302979F938F9302979F933D
:103EE0008F9302979F938F9302979F938F938EEB5D
:103EF00092E09F938F93BF92AF920E9435440FB68A
:103F0000F894DEBF0FBECDBF069709F015C1EFA92B
:103F10005DA94BA979A88FA42DA53EA5203D87E0DA
:103F2000380710F0205D3740922E19823AE08E2F2C
:103F3000632F0E944C3D982F990F980F990F9E0F59
:103F40009A83852F0E944C3D982F990F980F990FB7
:103F5000950F9B83842F0E944C3D982F990F980FAB
:103F6000990F940F9C83472D682D822F90E00E941B
:103F70009E08069667E070E00E94583D811101C0DE
:103F800087E08D832AE0872D622F0E944C3D982F79
:103F9000990F980F990F970D9E83882D0E944C3D85
:103FA000982F990F980F990F980D9F83892D0E9434
:103FB0004C3D982F990F980F990F990D988721E0F4
:103FC00048E050E0B80180912605909127050E94B5
:103FD000BE102FE0922E99AE21E041E050E0BE01EC
:103FE000675C7F4F80912605909127050E94BE1047
:103FF00041E050E0BE016B5E7F4F809126059091BD
:1040000027050E940F0E8D899D8A8F778E8B21E068
:1040100042E050E0BE016B5E7F4F8091260590919B
:1040200027050E94BE106EE176E088E096E00E94CF
:10403000BC0ECE0145960E94EC108A8D1F928F9384
:10404000898D1F928F93888D1F928F938F891F92D6
:104050008F938E891F928F938D8990E08053984F14
:104060009F938F9380ED92E09F938F931F930F9375
:104070000E941244B80188E096E00E944D130FB6EA
:10408000F894DEBF0FBECDBFC5010E94B1119924C7
:1040900093941C821B821E821D821A8219826EEEEC
:1040A00072E0C8010E945212A980BA80B8018AAD9C
:1040B0009BAD0E94DD11D82EC5010E94B111D11413
:1040C00009F45CC0470195E0A92EB12CB5E0EB16D0
:1040D000F10420F4570185E0882E912C1C821B826C
:1040E0001E821D821A8219826AE572E0C8010E944E
:1040F0005212AE14BF0418F109811A81011511057D
:1041000031F0C8010E94D13DCB01892B69F5109295
:104110002A050E945A1AC8010E94B1119924939449
:10412000EF2879F5511409F4EDC067E076E088E0F6
:1041300096E00E94BC0ED3C055245394A5CF6701CE
:104140008E149F0408F46401C20CD31CF601908005
:104150001082B1016A0D7B1DC8010E94D81309812C
:104160001A81D6019C92CACF6130710521F481E099
:1041700080932A05D0CF55245394CDCFEF2809F44E
:10418000A4C064EF72E0C1010E94E543892BC1F530
:1041900068E775E088E096E00E94591368E275E0F0
:1041A00088E096E00E94591364EE74E088E096E09F
:1041B0000E94591369E974E088E096E00E9459135F
:1041C00060E674E088E096E00E94591361E374E0D1
:1041D00088E096E00E9459136DEE73E088E096E067
:1041E0000E9459136EEA73E088E096E00E9459132A
:1041F00063E873E088E096E00E9459139924939451
:1042000069EF72E0C1010E94E543892B09F05DC0AE
:1042100063EF75E088E096E00E94BC0E61EE75E009
:1042200088E096E00E9459136CED75E088E096E016
:104230000E94BC0E64ED75E088E096E00E94BC0E22
:1042400061EC75E088E096E00E94BC0E6EEB75E0D4
:1042500088E096E00E94BC0E62EB75E088E096E094
:104260000E94BC0E60E288E096E00E94EC0B69EAD6
:1042700075E088E096E00E94BC0E67EA75E088E091
:1042800096E00E94591364E975E088E096E00E9488
:10429000BC0E809125050E94E81288E096E00E94FD
:1042A000F11262E875E088E096E00E94BC0E2AE018
:1042B00040E150E060E070E088E096E00E948B1200
:1042C00088E096E00E94F1122DCF91102BCF6EE086
:1042D00076E088E096E00E94BC0E511026CF68EF91
:1042E00075E088E096E00E94591324E630E040E54E
:1042F00050E060ED77E083E00E94A70CC1010E94CE
:10430000B1116BCA88E096E00E94F1120E94C40CC1
:10431000F5CF0F931F93CF93DF9300D000D000D041
:10432000CDB7DEB7E6EAF6E08FEF9FEFDC018083E2
:104330009183A283B3831482359626E0E63FF20789
:10434000B1F71092A5061C821B821E821D821A8262
:1043500019826DEC7AE0CE0101960E94DF16098188
:104360001A8161E0CE0101960E94D41AC8010F9013
:104370000F900F900F900F900F90DF91CF911F91A2
:104380000F910C94B1118F929F92AF92BF92CF92E6
:10439000DF92EF92FF920F931F93CF93DF93CDB7EE
:1043A000DEB728970FB6F894DEBF0FBECDBF8C01E5
:1043B000DB01FA012FB7F8944D915D916D917C91DD
:1043C000808191812FBFF801C180D280E380F48089
:1043D0004A015B018C189D08AE08BF082781821630
:1043E0009104A104B10408F472C041835283638331
:1043F0007483880F991F880F991F9683858381E0A6
:10440000808380914E01811509F461C01C821B825A
:104410001E821D821A82198267EC7AE0CE01019613
:104420007C010E94DF16C980DA8060E0C7010E942B
:10443000D41AC6010E94B111F80180858983F1E088
:104440000B361F0739F480911C0790911D07892BAB
:1044500009F450C080E28A8380E48B8380E2D82E06
:10446000DC821D82B70188E096E00E946513F801A6
:1044700041815281638174812AE088E096E00E9444
:104480008B128EE28983F80125813681C90164E6A9
:1044900070E00E94583D605D6A83EAE0F0E0C90187
:1044A000BF010E94583D282FCB01BF010E94583DFB
:1044B000805D8B83205D2C83DD828DE68E8383E798
:1044C0008F831886B70188E096E00E944D132896E6
:1044D0000FB6F894DEBF0FBECDBFDF91CF911F9115
:1044E0000F91FF90EF90DF90CF90BF90AF909F9093
:1044F0008F9008958BE2AFCFCF92DF92EF92FF9231
:10450000CF93DF9300D000D000D0CDB7DEB780913D
:10451000230590912405892BF9F08AE090E00E9410
:10452000D3050E94C7056E5C7F4F8F4F9F4F6B0175
:104530007C010E94C7056C157D058E059F0560F402
:1045400080911C0790911D070C9731F0E091230595
:10455000F09124050995EDCF10922205E0912105F7
:10456000E093110180E1E89FF0011124EA52FE4F2F
:1045700086859785909324058093230589E090E0B4
:104580000E94D3051C821B821E821D821A82198200
:104590006BE773E0CE0101960E94DF16E980FA8096
:1045A00060E0CE0101960E94D41AC7010E94B111A9
:1045B0006091110120E1629FB001112469527E4F88
:1045C00088E096E00E94651361E773E088E096E07A
:1045D0000F900F900F900F900F900F90DF91CF9151
:1045E000FF90EF90DF90CF900C945913CF92DF9211
:1045F000EF92FF920F931F93CF93DF93CDB7DEB768
:1046000068970FB6F894DEBF0FBECDBF8CE10E9455
:10461000200B019791F481E08093220568960FB6F4
:10462000F894DEBF0FBECDBFDF91CF911F910F91E8
:10463000FF90EF90DF90CF9008951C8A1B8A1E8A0E
:104640001D8A188E1F8A8E010D5E1F4F6DE673E066
:10465000C8010E94DF16809174017801811581F0F4
:10466000809120058F5F833008F080E01092740104
:104670008093200580E00E94B70D81E00E94B70D75
:1046800010912005113009F46CC0123009F4BBC040
:10469000111155C080916201811571F01092620173
:1046A00080912105811102C0809125058150809360
:1046B000210581E00E94B70D80915901811591F08B
:1046C0001092590120912105809125058150990B67
:1046D0002817190611F011E0120F1093210581E03F
:1046E0000E94B70D80912B05811549F11C821B8218
:1046F0001E821D821A8219826DE573E0CE01019639
:104700000E94DF1609811A81AE014F5F5F4F60E0A2
:1047100082E00E943A07C8010E94B111A70161E03E
:1047200082E00E943A074091210580E1489FA00164
:10473000112449525E4F61E086E00E9425078B8973
:104740009C8968960FB6F894DEBF0FBECDBFDF918F
:10475000CF911F910F91FF90EF90DF90CF900C942D
:10476000B11180916201811509F445C01092620176
:1047700080914E0191E0892780934E0180912B0515
:104780008115E9F21C821B821E821D821A82198207
:104790006CE473E08E010F5F1F4FC8010E94DF16AB
:1047A000C980DA80A80160E082E00E943A07C60171
:1047B0000E94B111A70161E082E00E943A07809156
:1047C0004E0168E473E0811102C064E473E01C826E
:1047D0001B821E821D821A821982C8010E94DF1666
:1047E000E980FA80A80161E086E00E943A07C701EB
:1047F0000E94B111A4CF80915901811509F4BECF57
:1048000010925901B5CF80916201811539F1109252
:10481000620180911101898380914E018A83AE01EA
:104820004F5F5F4F63E080E00E94061B0E94C40C54
:10483000188A1F861A8A198A1E861D866CE373E001
:10484000CE010D960E94DF160D851E8561E0CE011A
:104850000D960E94D41AC8010E94B111809159018D
:104860008115D1F0109259018BE090E090931D07D3
:1048700080931C07E091110180E1E89FF001112471
:10488000EA52FE4F0684F785E02D09958DE090E011
:1048900090931D0780931C0780912B05811509F4C7
:1048A0004ECF1C821B821E821D821A8219826BE2ED
:1048B00073E0CE0101960E94DF1609811A81AE01D4
:1048C0004F5F5F4F60E082E00E943A07C8010E949C
:1048D000B1111C821B821E821D821A8219826AE11A
:1048E00073E0CE0101960E94DF1609811A81AE01A4
:1048F0004F5F5F4F61E082E00E943A07C80178CFC6
:10490000EF92FF921F93CF93DF9300D000D000D09F
:10491000CDB7DEB7182FE091A506813039F18DEFC4
:10492000810F843018F1EE3008F11C821B821E8248
:104930001D821A82198269E970E0CE0101960E94F7
:10494000DF16E980FA8061E0CE0101960E94D41A58
:10495000C7010F900F900F900F900F900F90DF9165
:10496000CF911F91FF90EF900C94B11185E0E89FDB
:10497000F0011124EA55F94F408351836283738318
:1049800014831C821B821E821D821A82198260E996
:1049900070E0CE0101960E94DF16E980FA8060E0A7
:1049A000CE0101960E94D41AC7010E94B111812F35
:1049B0000E94E81268E870E088E096E00E945913CF
:1049C0008091A5068F5F8093A5060F900F900F90A2
:1049D0000F900F900F90DF91CF911F91FF90EF906C
:1049E00008954F925F926F927F928F929F92AF92B3
:1049F000BF92CF92DF92EF92FF920F931F93CF93CC
:104A0000DF93CDB7DEB766970FB6F894DEBF0FBE63
:104A1000CDBFE0911C07F0911D07EC30F10508F0C7
:104A2000DEC1EC54F74B0C94AD3D0E94180B8CE0AA
:104A300090E066960FB6F894DEBF0FBECDBFDF9153
:104A4000CF911F910F91FF90EF90DF90CF90BF908B
:104A5000AF909F908F907F906F905F904F900C944D
:104A6000D3058DE295E00E94061489E995E00E9445
:104A7000061483E695E00E9406140E94180B198222
:104A80001A821B821C82AE014F5F5F4F60E081E0A3
:104A90000E945410811591F15B814C81298130E095
:104AA000ACE3B0E00E9481472A81620F711D811D35
:104AB000911D9B01A8EEB3E00E94814760933601EF
:104AC000709337018093380190933901252F30E09E
:104AD0000E9481476B017C01242F30E0A4E6B0E006
:104AE0000E948147C60ED71EE81EF91EC0923201F1
:104AF000D0923301E0923401F092350124E030E0AD
:104B00003093D0052093CF058FE68093D90530935D
:104B1000DB052093DA058093E40580E090E089CFFF
:104B200080917D01811509F449C010927D010E9498
:104B3000AF0D1C821B821E821D821A8219826DEBB0
:104B40007AE0CE0101960E94DF1609811A81CE011A
:104B500001960E94A907C8010E94B1111C821B8204
:104B60001E821D821A8219826EEA7AE0CE010196B7
:104B70000E94DF1609811A81AE014F5F5F4F62E02C
:104B800083E00E943A07C8010E94B1111C821B8277
:104B90001E821D821A8219826AE97AE0CE0101968C
:104BA0000E94DF1609811A81AE014F5F5F4F63E0FB
:104BB00080E00E943A07C8010E94B11180916B0108
:104BC000811509F40CC110926B0185E090E031CFA2
:104BD00080917D01811509F49DC010927D0181E0D5
:104BE00080931B070E94AF0D1C821B821E821D82B8
:104BF0001A82198264E97AE0CE0101960E94DF16DA
:104C000009811A81CE0101960E94AD07C8010E9458
:104C1000B1111C821B821E821D821A8219826FE7CB
:104C20007AE0CE0101960E94DF1609811A81AE0159
:104C30004F5F5F4F62E080E00E943A07C8010E9428
:104C4000B1111C821B821E821D821A82198260E7AA
:104C50007AE0CE0101960E94DF1609811A81AE0129
:104C60004F5F5F4F63E083E00E943A07C8010E94F4
:104C7000B1111092D1051092D2051092D305109265
:104C8000D4051092D5051092D6051092D705109232
:104C9000D8051092DC051092DD051092DE05109209
:104CA000DF051092E0051092E1051092E2051092E6
:104CB000E3051092D0051092CF058BE68093D905BD
:104CC0001092DB051092DA058093E40565ED75E03E
:104CD00081ED95E00E94060680E20E94460D40911B
:104CE000310550E061E572E083E595E00E94CA433A
:104CF00040919D0550E062E271E08FEB95E00E94EB
:104D0000CA434091670550E062E171E089E895E0AF
:104D10000E94CA4380911B07811581F10E94C7053B
:104D2000AB01BC018091320190913301A09134011B
:104D3000B091350100911E0710911F0720912007A7
:104D400030912107800F911FA21FB31F8417950771
:104D5000A607B70798F410921B071091D905612F89
:104D60008DE295E00E94C30D612F89E995E00E94D4
:104D7000C30D612F83E695E00E94C30D80916B0106
:104D8000811519F010926B01C8CE809162018115D6
:104D900029F01092620188E090E04BCE8DE10E94F4
:104DA000200B892BC1F380915901811519F01092C4
:104DB0005901F1CF8EE10E94200B892B61F3809184
:104DC0005001811519F010925001E5CF8FE10E943A
:104DD000200B892B01F380917401811117C0669615
:104DE0000FB6F894DEBF0FBECDBFDF91CF911F91FC
:104DF0000F91FF90EF90DF90CF90BF90AF909F907A
:104E00008F907F906F905F904F90089510927401F3
:104E10000E94F7051C821B821E821D821A82198243
:104E200062E67AE0CE0101960E94DF1609811A81BE
:104E300061E0CE0101960E941513C8010E94B111D4
:104E40000E9489214091750150917601609177010E
:104E50007091780181E00E94802480917501909189
:104E60007601A0917701B09178018093D10590935C
:104E7000D205A093D305B093D4058093DC0590931D
:104E8000DD05A093DE05B093DF0521E030E030932F
:104E9000D0052093CF0588E68093D9053093DB05B4
:104EA0002093DA058093E40582E090E0C2CD809102
:104EB0007D018115C1F010927D011C821B821E8232
:104EC0001D821A82198264E57AE0CE0101960E9461
:104ED000DF1609811A8161E0CE0101960E94151347
:104EE000C8010E94B11180916B0181114BCF8DE1FE
:104EF0000E94200B892B09F0A2C085E090E09093DE
:104F0000D0058093CF05855B9D4FFC018081809308
:104F1000D9058EE10E94200B892B09F093C085E012
:104F200090E09093DB058093DA05855B9D4FFC0153
:104F300080818093E4058FE10E94200B8C01809199
:104F4000CF059091D005059709F07FC01C821B8288
:104F50001E821D821A8219826EE47AE0CE010196C9
:104F60000E94DF16E980FA80BE016F5F7F4F89E9FA
:104F700095E00E949F05C7010E94B1118091DA055A
:104F80009091DB05059709F065C01C821B821E828B
:104F90001D821A82198268E47AE0CE0101960E948D
:104FA000DF16E980FA80BE016F5F7F4F83E695E0F0
:104FB0000E949F05C7010E94B1118091CF05909179
:104FC000D0052091DA053091DB05822B932B1C82D2
:104FD0001B821E821D821A821982892B09F03FC012
:104FE0000115110509F43BC06DE37AE0CE0101968D
:104FF0000E94DF1609811A8161E0CE0101960E94AC
:105000001513C8010E94B1118DE295E00E940614AB
:105010008091620181111092620180915901811188
:105020001092590180917401811110927401809144
:10503000500181111092500181E090E0FACC80E0A3
:1050400090E05DCF80E090E06CCF89E995E00E9430
:10505000061494CF83E695E00E940614AECF67E372
:105060007AE0CE0101960E94DF16E980FA80BE0147
:105070006F5F7F4F8DE295E00E949F05C7010E9400
:10508000B11182E00E94B70D1C821B821E821D821C
:105090001A82198268E27AE0CE0101960E94DF1638
:1050A000E980FA80AE014F5F5F4F62E080E00E94CE
:1050B0003A07C7010E94B111E3E1012B21F48DE40D
:1050C00080935D07E2E18091DA059091DB05059719
:1050D00041F4AE2FB0E0AE5DB84F80E598968C936A
:1050E000E1508091CF059091D005059729F4F0E02B
:1050F000EE5DF84F8CE480A780912C05811509F4B2
:105100006ECE24E630E040E550E060ED77E083E0ED
:1051100066960FB6F894DEBF0FBECDBFDF91CF917C
:105120001F910F91FF90EF90DF90CF90BF90AF90C5
:105130009F908F907F906F905F904F900C94A70CF2
:1051400080917D018115C9F010927D010E94AF0D03
:105150001C821B821E821D821A82198262E27AE000
:10516000CE0101960E94DF1609811A81CE010196B7
:105170000E94B107C8010E94B1118091CF059091A2
:10518000D005019709F073C080916201811509F47F
:105190006EC0109262014091630150916401609170
:1051A0006501709166014093D5055093D6056093D3
:1051B000D7057093D80582E090E09093D005809356
:1051C000CF058BE68093D90583E00E94802461E0BF
:1051D0008FE00E948A0A65ED75E081ED95E00E94FE
:1051E000060680E20E94460D6091D90589E995E0A6
:1051F0000E94C30D8AE3809341014AE351E062E0DB
:1052000086E00E9425071C821B821E821D821A8254
:10521000198266E679E0CE0101960E94DF160981C7
:105220001A81AE014F5F5F4F62E080E00E943A0753
:10523000C8010E94B1111C821B821E821D821A822B
:1052400019826BE579E0CE0101960E94DF16098193
:105250001A8160E0CE0101960E941513C8010E94D8
:10526000B1116AE371E088E096E00E944D138091ED
:10527000DA059091DB05019709F073C0809159011F
:10528000811509F46EC01092590140915A01509154
:105290005B0160915C0170915D014093E00550936A
:1052A000E1056093E2057093E30582E090E090935E
:1052B000DB058093DA058BE68093E40584E00E94A9
:1052C000802461E082E10E948A0A60EE75E08CED44
:1052D00095E00E94060680E20E94460D6091E4057A
:1052E00083E695E00E94C30D8AE3809341014AE37F
:1052F00051E063E086E00E9425071C821B821E822B
:105300001D821A82198267E779E0CE0101960E9418
:10531000DF1609811A81AE014F5F5F4F63E080E0C5
:105320000E943A07C8010E94B1111C821B821E8292
:105330001D821A8219826BE679E0CE0101960E94E5
:10534000DF1609811A8160E0CE0101960E941513D3
:10535000C8010E94B1116AE371E088E096E00E9402
:105360004D138091CF059091D005029709F048C068
:105370008091DA059091DB05029709F041C01C820B
:105380001B821E821D821A8219826DE779E0CE018E
:1053900001960E94DF1609811A81CE0101960E94B2
:1053A000AD07C8010E94B1118091E0059091E1051F
:1053B000A091E205B091E3054091D5055091D60545
:1053C0006091D7057091D805481759076A077B0780
:1053D00090F460EE75E08CED95E00E94060680E2A8
:1053E0000E94460D6091D9058DE295E00E94C30DA3
:1053F00084E090E01ECB65ED75E081ED95E0EDCFAA
:1054000010912B05111509F443C00E94C70569834B
:105410007A838B839C83BE016F5F7F4F8CED95E019
:105420000E94060680E20E94460D8091DA05909166
:10543000DB05019799F41091E405612F83E695E06F
:105440000E94C30D612F8DE295E00E94C30D4AE3D7
:1054500051E063E086E00E94250710E08091CF05CF
:105460009091D0050197A1F40091D905602F89E9A9
:1054700095E00E94C30D111559F0602F8DE295E063
:105480000E94C30D4AE351E062E086E00E942507D6
:10549000809150018115D9F1109250011C821B821C
:1054A0001E821D821A8219826AE17AE0CE0101967B
:1054B0000E94DF1609811A8161E0CE0101960E94E7
:1054C0001513C8010E94B111409151015091520130
:1054D000609153017091540182E00E94802461E543
:1054E00071E08CED95E00E94060680E20E94460D78
:1054F0008AE3809341014AE351E061E086E00E9443
:1055000025074EEF52E061E080E00E942507809180
:105510006B01811509F463CC10926B011C821B8214
:105520001E821D821A8219826BE07AE0CE010196FA
:105530000E94DF1609811A8161E0CE0101960E9466
:105540001513C8010E94B11140916C0150916D0179
:1055500060916E0170916F0186E00E9480241C8230
:105560001B821E821D821A8219826EEF79E0CE01A3
:1055700001960E94DF1609811A81CE0101960E94D0
:10558000AD07C8010E94B11122E030E03093D00590
:105590002093CF058BE68093D9053093DB052093CC
:1055A000DA058093E40524CF80917D018115D1F047
:1055B00010927D011C821B821E821D821A8219821A
:1055C0006FEE79E0CE0101960E94DF1609811A8103
:1055D00061E0CE0101960E941513C8010E94B1112D
:1055E0000E94F11480916B01811509F4F8CB10929F
:1055F0006B010E94180B91CA80917D01811509F4FD
:105600009DC010927D0181E080931B071092D1050F
:105610001092D2051092D3051092D40580913601D4
:1056200090913701A0913801B09139018093D5054F
:105630009093D605A093D705B093D8051092D005C6
:105640001092CF058BE68093D9051092DB0510925E
:10565000DA058093E40565ED75E081ED95E00E9443
:10566000060680E20E94460D109244010E94AF0D92
:105670001C821B821E821D821A82198267EE79E0CB
:10568000CE0101960E94DF1609811A81CE01019692
:105690000E94AD07C8010E94B1114AE351E062E0E7
:1056A0008AE00E9425071C821B821E821D821A82AC
:1056B000198268ED79E0CE0101960E94DF1609811A
:1056C0001A81AE014F5F5F4F62E080E00E943A07AF
:1056D000C8010E94B1111C821B821E821D821A8287
:1056E000198263EC79E0CE0101960E94DF160981F0
:1056F0001A81AE014F5F5F4F63E080E00E943A077E
:10570000C8010E94B11187E0EFE0F3E0DE011196DD
:1057100001900D928A95E1F787E0FE013196A9E8A4
:10572000B5E001900D928A95E1F787E0FE01319690
:10573000A3E5B5E001900D928A95E1F780911B07F2
:10574000811509F10E94C705AB01BC0180913201AE
:1057500090913301A0913401B091350100911E0761
:1057600010911F072091200730912107800F911F72
:10577000A21FB31F481759076A077B0720F0109232
:105780001B070E940E1480916201811541F1109255
:1057900062018091360190913701A0913801B0915A
:1057A00039018133F5E79F07A105B10508F459C018
:1057B00080539547A109B109809336019093370131
:1057C000A0933801B093390181E080937D0110925C
:1057D0001E0710921F071092200710922107809138
:1057E0005901811561F11092590180913601909112
:1057F0003701A0913801B0913901813922EB92072C
:1058000028E0A207B10520F080E992EBA8E0B0E023
:10581000805D9A48AF4FBF4F809336019093370118
:10582000A0933801B093390181E080937D011092FB
:105830001E0710921F0710922007109221078091D7
:105840007401811531F01092740186E090E00E949D
:10585000D30580916B01811509F4C1CA10926B01C7
:10586000EBCB80E395E7A0E0B0E0A6CF80917D018F
:10587000811509F45BC00E94F70510927D011C821E
:105880001B821E821D821A82198263EB79E0CE018F
:1058900001960E94DF1609811A8161E0CE0101960E
:1058A0000E941513C8010E94B1110E94AF0D1C8205
:1058B0001B821E821D821A8219826BEA79E0CE0158
:1058C00001960E94DF1609811A81CE0101960E947D
:1058D000B107C8010E94B11181E090E09093DB050F
:1058E0008093DA0588E68093E4050E94C705462F79
:1058F000572FBC014093DC055093DD056093DE0516
:105900007093DF058091D5059091D605A091D705BC
:10591000B091D805840F951FA61FB71F8093E0058F
:105920009093E105A093E205B093E30580916B01AC
:105930008115D9F010926B011C821B821E821D8280
:105940001A8219826BE979E0CE0101960E94DF1676
:1059500009811A8161E0CE0101960E941513C801E8
:105960000E94B1110E94C40C67CB80912B05811558
:1059700009F435CA0E94C705462F572FBC01409332
:10598000DC055093DD056093DE057093DF058091A3
:10599000E0059091E105A091E205B091E30584173F
:1059A0009507A607B707C0F066960FB6F894DEBF56
:1059B0000FBECDBFDF91CF911F910F91FF90EF9060
:1059C000DF90CF90BF90AF909F908F907F906F901F
:1059D0005F904F900C940E141C821B821E821D82BD
:1059E0001A8219826BE879E0CE0101960E94DF16D7
:1059F00009811A8161E0CE0101960E941513C80148
:105A00000E94B11181E090E00E94D30520E030E0D7
:105A100040ED57E068EC70E081E07ACBC090360151
:105A2000D0903701E0903801F09039016091320157
:105A300070913301809134019091350128EE822ECE
:105A400023E0922EA12CB12CA50194010E946C3D63
:105A500029013A016B8B7C8B8D8B9E8BC701B60124
:105A600020E63AEE40E050E00E946C3D2983C701F9
:105A7000B601A50194010E946C3D6CE3862E912C29
:105A8000A12CB12CCA01B901A50194010E946C3D61
:105A90006A83C301B201A50194010E946C3D6B832E
:105AA0006B897C898D899E8924E630E040E050E056
:105AB0000E946C3D2C83AE014F5F5F4F60E081E040
:105AC0000E94061B811509F48AC90E94C40C188A19
:105AD0001F861A8A198A1E861D8666E073E0CE012B
