:100000000C946E050C9496050C9496050C9496052C
:100010000C94C1330C9496050C9496050C9496059B
:100020000C9496050C9408350C9496050C94960542
:100030000C9496050C9456320C9496050C949605E7
:100040000C9496050C9496050C9428340C94960503
:100050000C9470340C9496340C9496050C9496057C
:100060000C9496050C9496050C949A320C94960573
:100070000C94BC340C94E2340C9496056364696E61
:100080006F70737578585B0020756C6F7A656E00C1
:100090004C6F672074797023004E61706C6E656ED2
:1000A0006F206D6178207A617A6E616D752E204EB9
:1000B00045554C4F5A454E4F003D3D3D204B6F6ED0
:1000C0006563207A617A6E616D75203D3D3D0A0061
:1000D0004361733A20202020202020004461747561
:1000E0006D3A2020202020002D2D2D2D2D2D2D2D61
:1000F0002D2D2D2D2D2D2D2D2D2D2D2D2D005679E8
:10010000736C6564656B3A20204E45524F5A484FD8
:10011000444E4500526F7A64696C3A2020202000DA
:10012000566974657A3A2020202020505241564169
:1001300020445241484100526F7A64696C3A202051
:10014000202000566974657A3A20202020204C45F2
:1001500056412044524148410050726176792063F3
:1001600061733A20004C657679206361733A2020F0
:10017000002D2D2D20536F7568726E207A61766F79
:100180006475202D2D2D0052455345540043494C94
:100190000043494C2050524156412044524148416D
:1001A0000043494C204C45564120445241484100AF
:1001B0004D455A49434153005354415254000A3D5E
:1001C0003D3D205A617A6E616D207A61766F64756B
:1001D000203D3D3D001209120912091200091209C1
:1001E00012091209000000120912000000000009A3
:1001F000120900000000001E0F1E00000000000F8A
:100200001E0F000000181C1E1F1E1C1800436879DA
:100210006261206B6F6E66696775726163652064E9
:100220006973706C656A6520320043687962612089
:100230006B6F6E6669677572616365206469737060
:100240006C656A652031004B6F6E66696775726117
:10025000636520646973706C656A750053746172BC
:10026000742000533E4D6F7A6E6F737469204C2F6B
:10027000503E566F6C626100020000200023002691
:10028000002900000000020300000000000000053B
:100290000409080000000000000000000000000049
:1002A00000000000002200250028002B0000002193
:1002B00000240027002A00020202020202020204B5
:1002C00004040404040404030303030303030301F9
:1002D0000101010101010101020408102040800117
:1002E0000204081020408001020408102040800110
:1002F0000204081020408053797374656D003E201D
:10030000004C3E53797374656D20503E4D6F64759B
:100310006C00556C6F7A6974206E617374617665D8
:100320006E6900556C6F7A656E6F00567970005A71
:100330006170005A6F6272617A2063617320707518
:100340006C7A7500507265706E757469206D6F649B
:10035000756C75002D2D3E002720616B7469766EDB
:1003600069004D6F64756C202700202068656C70F3
:10037000202020202020202020202020202020207D
:1003800020202020202D207461746F206E61706FFA
:1003900076656461002020696E666F202020202031
:1003A000202020202020202020202020202020204D
:1003B0002D207A6F6272617A69207564616A6520A6
:1003C0006F2068617264776172652F6669726D77FC
:1003D00061726500202070657266203C317C303E81
:1003E0002020202020202020202020202020202D00
:1003F000207A61702F767970207A6F6272617A6FDD
:1004000076616E6920727963686C6F7374692070AD
:10041000726F6772616D7500202064656C203C6DA1
:100420003E203C6B3E202020202020202020202029
:100430002020202D20736D617A65207A617A6E61AB
:100440006D203C6D6F64756C3E203C6B6C69633E47
:10045000002020736574203C6D3E203C6B3E20489C
:10046000205B2C482C482E2E2E5D20202D206E61E6
:1004700073746176692070726F203C6D6F64756C67
:100480003E203C6B6C69633E20617A2031322068EB
:100490006F646E6F7420302D323535002020736507
:1004A00074203C6D3E203C6B3E20227465787422A3
:1004B000202020202020202D206E61737461766919
:1004C0002070726F203C6D6F64756C3E203C6B6CCD
:1004D00069633E20617A203132207A6E616B75004B
:1004E00020206C697374205B6D5D205B6B5D202048
:1004F00020202020202020202020202D20767970F0
:10050000697365207A617A6E616D792028767365EA
:10051000207C206A6564656E206D6F64756C207C3C
:10052000206A656E206D6F64756C2B6B6C6963005F
:100530000A5072696B617A793A00202020204C6F52
:1005400067207A617A6E616D753A20002020202044
:10055000506F636574206D6F64756C753A20002967
:100560000031393A35393A3438004175672032372D
:100570002032303235002028002B7635302D3230B5
:1005800058342D3078323700524D5320302E33748A
:10059000320046573A200053616B756C2053746FDC
:1005A000706B792076352E300048573A2000205A5B
:1005B0006164656A202768656C70272E004368793E
:1005C00062612E004E657A6E616D79207072696B82
:1005D000617A2E004E656E616C657A656E6F2E20B5
:1005E000005A617A6E616D20736D617A616E2E00C2
:1005F00043687962612E2028486F646E6F74792099
:100600007072657320746578743F2900436879625D
:10061000612E202854657874207072657320686F8D
:10062000646E6F74793F29004F4B2E2054657874A7
:1006300020756C6F7A656E2E00436879626E792042
:1006400076737475702E004E616C657A656E6F3AC4
:1006500020002D2D2D2D2D2D2D2D2D2D2D2D2D2D04
:100660002D0020200000200020200000200020205D
:10067000000020002D2D2D2D2D2D2D2D2D2D2D2D3E
:100680002D2D2D004D6F64756C204B6C69632044DB
:10069000617461005072696A61746F2027002D2DAA
:1006A00035352D2D20005465726D696E616C3A20D0
:1006B0002768656C70270053657269616C20313161
:1006C000353230302F382F31626974004E617374C7
:1006D0006176656E69004A6520746F20616C6520E3
:1006E0006A656E2064656D6F206120646F207061A3
:1006F0006D657469206E657A61706973756A652EBF
:100700000044656D6F20646F7374616C6F20706F4F
:100710006B796E20756C6F7A697420737665206EC4
:100720006173746176656E692E0053746F706B79B6
:1007300000557074696D650044656D6F005B202025
:100740002020202032377833376D733D3939396DA9
:10075000732020202020205D202020204361732052
:1007600070726920277C27002D2D3E207465726DE4
:10077000696E616C0044656D6F0044656D6F206B40
:100780006F6E636900446C6F757A6520526573659E
:1007900074203E204D656E75005265736574203E71
:1007A000204E6173746176656E6900533E506F73BD
:1007B000756E204C503E2D2B20523E5A70657400B1
:1007C000446174756D20262063617300484F44496D
:1007D0004E59005A61646F7374206F207679706986
:1007E00073005A727573656E6F004D6572656E6940
:1007F000207A727573656E6F004D657A69636173F7
:10080000004C2F503E556B6F6E63692020523E5A4C
:1008100072757369740053746F706B790053746FE1
:10082000706B79207370757374656E79005265739F
:100830006574203E205A7061746B79005374617244
:1008400074203E205A6168616A69207A61766F641B
:100850000053544F504B5900446C6F757A652052C9
:1008600065736574203E204D656E75005265736535
:1008700074203E2046756E6B63650053544F504B99
:100880005920532D4C5000556B6F6E63656E6F0091
:10089000556B6F6E63656E6F005A61646F73742081
:1008A0006F207679706973005A727573656E6F0088
:1008B0004D6572656E69207A727573656E6F004D55
:1008C000657A6963617300533E556B6F6E6369208F
:1008D000202020523E5A72757369740053746F70F1
:1008E0006B790053746F706B7920737075737465D6
:1008F0006E79005265736574203E205A7061746B86
:1009000079005374617274203E205A6168616A698B
:10091000207A61766F640053544F504B5900446CF9
:100920006F757A65205265736574203E204D656E43
:1009300075005265736574203E2046756E6B636565
:100940000053544F504B5920532D53004C65766142
:10095000206472616861004C657661005072617656
:1009600061206472616861005072617661005A6151
:10097000766F6420736B6F6E63696C004F64706F89
:1009800063657420736B6F6E63696C005A72757364
:10099000656E69206F64706F637475004F64706F6B
:1009A000636574005A6168616A656E206F64706F78
:1009B0006365740052657365743E204D6572656EA3
:1009C00069207A61766F64750053746172743E2099
:1009D0005A6168616A6974004F44504F434554003E
:1009E0005A61646F7374206F207679706973005A4E
:1009F00061766F64207A727573656E004D657265FD
:100A00006E69207A727573656E6F004D657A6963E1
:100A10006173005A61766F64004348594241205324
:100A2000454E5A4F52553A00202D452D20004B6F10
:100A30006E63616B79204F4B00202D452D200020E7
:100A40002D452D20004348594241206B6F6E636154
:100A50006B75005A61766F64207A6168616A656EB1
:100A6000005265736574203E205A7061746B790082
:100A70005374617274203E205A6168616A69207AF9
:100A800061766F64005A41564F4400446C6F757A2A
:100A900065205265736574203E204D656E75005269
:100AA00065736574203E2046756E6B636500535414
:100AB0004F504B592048550050756C7A20004C6FB0
:100AC000672070726970726176656E00454550529C
:100AD0004F4D20706C6E61210000E73B11241FBE5A
:100AE000CFEFD0E1DEBFCDBF13E0A0E0B1E0EEED8F
:100AF000FAE802C005900D92A833B107D9F727E0B4
:100B0000A8E3B3E001C01D92AF37B207E1F715E0EB
:100B1000CEE6D5E004C02197FE010E94073DCD3608
:100B2000D107C9F70E9464350C945A450C94000013
:100B3000CF93DF93FC01DB015481369614968C91A0
:100B400014978150990B40E0541303C0DF91CF916B
:100B5000089514962D913C9115978217930770F480
:100B60002D913C9111972115310541F0280F391F26
:100B7000E901288121934F5F0197E6CF20E0FACF6A
:100B80002FB7F89460912007709121078091220778
:100B9000909123072FBF0895CF93DF93D82FC92FAC
:100BA0000E94C00560932707709328078093290748
:100BB00090932A07D0932507C093260781E080935E
:100BC00084011092240710927B01109272011092FE
:100BD00069011092600110925701DF91CF91089541
:100BE0008FB7F89410921F0710921E0710921A07E1
:100BF0009DE090935601109219078FBF0895E091E0
:100C00005201A0915101F0E0A33050F1E053F84FB0
:100C1000B0E0A459BD4F2C9180915001280F33278B
:100C2000331F2E0F3F1FCF01969587959695879579
:100C3000280F391FCF0160E971E00E94B23C260FF6
:100C4000371FCF0164E670E00E94B23CC901861BE9
:100C5000970B67E070E00E94B23C80934F010895CB
:100C6000E153F84FD5CF4F925F926F927F92AF9240
:100C7000BF92CF92DF92EF92FF920F931F93CF9389
:100C8000DF93FB01C080D180E280F380FC01808192
:100C90009181A281B381C81AD90AEA0AFB0AC70165
:100CA000B60128EE33E040E050E00E94C63C8B01E4
:100CB000C8E0D7E07D836C838CE3482E512C612CF7
:100CC000712CCA01B901A30192010E94C63CB62E43
:100CD0006B83CA01B901A30192010E94C63CA62EF2
:100CE0006A83C701B60120E83EEE46E350E00E9469
:100CF000C63CF90139832883C90168EE73E00E947C
:100D0000B23C6E8394E6E92EF12CCF01B7010E942C
:100D1000B23CCB012AE030E0B9010E94B23C8F83A3
:100D2000CF01B9010E94B23C482FCB01B9010E940A
:100D3000B23C888749874AE08A2D642F0E94A63CEE
:100D40008A879B878B2D0E94A63C8C879D87C80134
:100D5000B7010E94B23C6E87C801B9010E94B23C43
:100D6000482FCB01B9010E94B23C8F87488BDF919D
:100D7000CF911F910F91FF90EF90DF90CF90BF9098
:100D8000AF907F906F905F904F9008958091200773
:100D900090912107A0912207B091230780930A0622
:100DA00090930B06A0930C06B0930D0680918400DF
:100DB00090918500909309068093080681E08093C6
:100DC000070608958091200790912107A09122079E
:100DD000B09123078093030690930406A093050621
:100DE000B09306068091840090918500909302064E
:100DF0008093010681E0809300060895809120078A
:100E000090912107A0912207B09123078093FC05C0
:100E10009093FD05A093FE05B093FF05809184009B
:100E2000909185009093FB058093FA0581E0809373
:100E3000F90508958091200790912107A09122073C
:100E4000B09123078093F5059093F605A093F705DD
:100E5000B093F80580918400909185009093F405FB
:100E60008093F30581E08093F20508958091200737
:100E700090912107A0912207B09123078093EE055E
:100E80009093EF05A093F005B093F1058091840055
:100E9000909185009093ED058093EC0581E080931F
:100EA000EB050895FA0190E024E1629FB00111245E
:100EB0002191211519F08431910509F40895DC017F
:100EC000A60FB71FA55DB84F2C930196F1CFCF9316
:100ED000DF93DA0114962C91149794E1981B29174B
:100EE00008F4922FE82FF0E084E1689FE00DF11DF7
:100EF0001124E55DF84F20E030E0291718F0DF916C
:100F0000CF91089514964D915C911597241735074C
:100F100070F44D915C9111974115510541F0420FCC
:100F2000531FEA01888181932F5F3F4FE6CF80E016
:100F3000FACF0F931F93CF93DF938C01C42F062E0C
:100F4000000C770B4AE050E08BE297E00E949E4055
:100F50006C2FCC0F770B4AE050E085E397E00E94BE
:100F60009E40D80114968D919C91C4E1D0E0C81B9D
:100F7000D90BD695C795C43128F4A80160E08C2F11
:100F80000E946707DD27FE01E65DF84F80E280835F
:100F9000D8011496ED91FC91E55DF84FEC0FFD1F23
:100FA0008083DF91CF911F910F91089542E061E01E
:100FB0000C94990744E063E00C94990746E065E0DF
:100FC0000C94990780E090E008950895089508959D
:100FD000DC01ED91FC910684F785E02D40E0099459
:100FE000DC01ED91FC910684F785E02D41E0099547
:100FF00081E090E00895DC0181E001C0880F6A95EE
:10100000EAF71C968C931C971A965C934E9319974B
:10101000ED91FC9111970484F585E02D60E0CD0100
:1010200009948091F5049091F404891B990B08951B
:101030009091F4048091F5042FEF3FEF981748F456
:10104000E92FF0E0EC52FB4F208130E09F5F90935E
:10105000F404C9010895E091F4048091F504E817BF
:1010600030F4F0E0EC52FB4F808190E008958FEF78
:101070009FEF08950895089508952091D304260FB1
:101080003327331F21323105ECF42091D204FC01C7
:1010900080E090E0243069F082E00895A091D304CC
:1010A0002191AC014E545B4FA40FB52FB11D2C9371
:1010B0000196861798F38091D304680F6093D30448
:1010C00080E0089581E00895CF93DF930F92CDB72C
:1010D000DEB7FC016983809119058115F1F08091DB
:1010E0001605803250F081E090E09383828380E0A7
:1010F00090E00F90DF91CF91089580911705E82F30
:10110000F0E0EA50FB4F998190838F5F8093170541
:101110008093160581E090E0ECCF61E0CE0101966E
:101120000E943D08F7CFCF92DF92EF92FF920F938C
:101130001F93CF93DF937C01CB018A012091190586
:101140002115D9F0EB016B01C40ED51ECC15DD05C0
:1011500051F4C801DF91CF911F910F91FF90EF9053
:10116000DF90CF9008956991D701ED91FC910190A6
:10117000F081E02DC7010995E9CF642F0E943D0859
:10118000E8CF85ED8093BC008091BC0084FDFCCF4E
:101190001092D20408951F93CF93DF93DC015296EF
:1011A0008D919C915397009751F421E030E0139674
:1011B0003C932E931297DF91CF911F9108951D9626
:1011C000ED91FC911E971C962C911C97322F309517
:1011D0007FB754964C915497142F127041FD21C043
:1011E000F894408143234083EC012197F1F748E0D4
:1011F000508160FF1BC0522B5083EC012197F1F707
:1012000066954A95A9F78081111591F08323808313
:101210007FBF52968D919C910197F1F781E090E00C
:10122000CACF6095F8944081422BDDCF5323E4CFA1
:10123000822BEDCF8FEF9FEF089580E090E008952F
:1012400008953FB7F8948091730490917404A0912D
:101250007504B091760426B5A89B05C02F3F19F000
:101260000196A11DB11D3FBFBA2FA92F982F882726
:10127000BC01CD01620F711D811D911D42E0660F01
:10128000771F881F991F4A95D1F708954F925F9253
:101290006F927F928F929F92AF92BF92CF92DF9286
:1012A000EF92FF920F931F93CF93DF938B01D82F71
:1012B000C92F0E942109262F822E972E5C016801DA
:1012C000ED2EFC2E05C0C114D104E104F10409F196
:1012D0000E9421092B013C01481859086A087B0823
:1012E0008601DE2DCF2D31E0C31AD108E108F108C7
:1012F000282D792DC50138EE830E33E0931EA11CF5
:10130000B11C38EE431633E0530661047104D8F67D
:10131000D3CFDF91CF911F910F91FF90EF90DF908E
:10132000CF90BF90AF909F908F907F906F905F9085
:101330004F9008959C01019741F0220F331F220F17
:10134000331FC90105970197F1F70895CF93DF93F4
:10135000EC01423018F08C8188608C834F83688761
:10136000211529F0413019F48C8184608C8364E666
:1013700070E080E090E00E9446096C8164FD5BC0F3
:10138000E881F9810684F785E02D42E063E0CE0133
:10139000099584E991E10E949A09E881F98106841E
:1013A000F785E02D42E063E0CE01099586E990E003
:1013B0000E949A09E881F9810684F785E02D42E0D0
:1013C00063E0CE01099586E990E00E949A09E881E0
:1013D000F9810684F785E02D42E062E0CE010995AF
:1013E00086E990E00E949A096C816062CE010E94B9
:1013F000E8078CE390E00E949A0984E08D836CE01A
:10140000CE010E94E80761E0CE010E94E80780ED6E
:1014100097E00E949A0982E08E8366E0CE010E94E6
:10142000E807E881F9810484F585E02D6FEFCE01AE
:10143000DF91CF9109946062CE010E94E80784E9B0
:1014400091E10E949A096C816062CE010E94E807D6
:1014500086E990E00E949A096C816062CE010E9448
:10146000E807BECFCF93DF9390E0FC01E952FD4F38
:10147000249189549D4FFC0184918115D1F090E015
:10148000880F991FFC01E355FD4FA591B591FC0113
:10149000ED55FD4FC591D5919FB7623069F4F89431
:1014A0003C91822F809583238C938881822B888323
:1014B0009FBFDF91CF910895F8948C91822B8C93EC
:1014C000F7CF853099F038F4833011F1843041F052
:1014D0008230D1F00895883069F0893089F008951C
:1014E000809180008F7780938000089580918000A4
:1014F0008F7DF9CF8091B0008F778093B0000895F1
:101500008091B0008F7DF9CF84B58F7784BD089529
:1015100084B58F7DFBCF1F93CF93DF93162F282F9A
:1015200030E0F901ED57FD4F8491F901E952FD4F8B
:10153000D491F901E954FD4FC491C115A1F0811175
:101540000E94610AEC2FF0E0EE0FFF1FED55FD4FFA
:10155000A591B5919FB7F8948C91111108C0D095C1
:10156000D823DC939FBFDF91CF911F9108958D2BDE
:101570008C93F8CFDF92EF92FF920F931F93CF934C
:10158000DF938C01D62ED0E0F8018481D81740F08B
:10159000DF91CF911F910F91FF90EF90DF90089511
:1015A0007801ED0EF11CF701C68186898C1302C00B
:1015B000D114E9F19EE0C534C9F07CF4C03219F0D1
:1015C00024F4C11108C090E011C080ED8C0F91EDA2
:1015D0009C0F8A3058F09FE009C09CE0C03531F084
:1015E0009DE0C53519F09BE0CC34A9F7F801A08146
:1015F000B18162818381680F6D0F9295907F690F31
:10160000ED91FC9111970190F081E02DCD010995AC
:10161000D1110AC0F8018581811531F061E0C03235
:1016200009F460E00E948B0AF7018681868BDF5FF8
:10163000ABCF60E08FE00E948B0A60E082E10C9407
:101640008B0ACF93DF93282F30E0F901ED57FD4F40
:101650008491F901E952FD4FD491F901E954FD4F0C
:10166000C491C11581F081110E94610AEC2FF0E054
:10167000EE0FFF1FE758FD4FA591B591EC91ED23BB
:1016800081E0E11101C080E090E0DF91CF91089509
:10169000FC01A48DA80FB92FB11DA35ABF4F2C91E7
:1016A000848D90E001968F739927848FA689B789DE
:1016B0002C93A089B1898C91837080648C93938DD5
:1016C000848D981306C00288F389E02D80818F7D78
:1016D00080830895FC01818D228D90E0805C9F4F76
:1016E000821B91098F73992708958EE096E00E94DE
:1016F0006A0B9C0181E0232B09F480E0089586EDBC
:1017000093E00E946A0B9C0181E0232B09F480E0A6
:10171000089580E090E0892B29F00E94750B8111DB
:101720000E94000080E090E0892B29F00E947F0B4E
:1017300081110C9400000895FC01918D828D981701
:1017400031F0828DE80FF11D858D90E008958FEFC7
:101750009FEF0895FC01918D828D981761F0A28D05
:10176000AE0FBF2FB11D5D968C91928D9F5F9F73C1
:10177000928F90E008958FEF9FEF0895FC01538DB5
:10178000448D842F90E0252F30E0821B930B54175B
:1017900010F0CF96089501970895CF93DF93EC0151
:1017A000888D81110FC0DF91CF9108950FB607FC8E
:1017B0000DC08C9185FF0AC0808185FF07C0CE01D6
:1017C0000E94480BAA89BB89E889F9898C9185FD1B
:1017D000EDCF808186FFEACFE6CFEF92FF920F93A5
:1017E0001F93CF93DF93EC01F62E81E0888F9B8DC2
:1017F0008C8D98131AC0E889F989808185FF15C0FE
:101800009FB7F894EE89FF896083E889F989808120
:101810008370806480839FBF81E090E0DF91CF91EF
:101820001F910F91FF90EF9008950B8D10E00F5FC7
:101830001F4F0F731127E02E8C8D8E1579F0EB8DD5
:10184000EC0FFD2FF11DE35AFF4FF0829FB7F89484
:101850000B8FEA89FB8980818062DCCF0FB607FCA1
:10186000EBCFE889F989808185FFE6CFCE010E9420
:10187000480BE2CFFC01A089B1898C91A689B78978
:1018800082FD0FC09C91818D8F5F8F73228D821797
:1018900049F0A18DAE0FBF2FB11D5D969C93818F36
:1018A00008958C910895CF92DF92EF92FF920F935B
:1018B0001F93CF93DF937C016A0100E010E00C15C9
:1018C0001D0551F4C801DF91CF911F910F91FF9039
:1018D000EF90DF90CF900895EB01D701ED91FC914F
:1018E0000190F081E02D6991C7010995892B51F391
:1018F0000F5F1F4FBE01E3CF9091000189130EC00F
:10190000E8E7F2E0E4919FEF90930001E13049F0C5
:10191000E23069F0E11102C010926E0060E00C94B8
:101920008B0A90916F009D7F90936F00F7CF9091FD
:1019300070009D7F9093700091E09093B000909123
:10194000B100987F94609093B1001092B300E6CFFD
:101950008093070770930607609305075093040769
:101960004093030730930207209301070E94C005AC
:101970006093FD067093FE068093FF069093000728
:101980001092FC068CE00C947C0C20E030E040E5EA
:1019900050E064EC79E081E00C94A80C1092F4041F
:1019A0001092F50410921705109216051092D204A9
:1019B00081E08093AC041092AB0461E081E10E946D
:1019C0008B0A61E080E10E948B0AE9EBF0E0808104
:1019D0008E7F808380818D7F808388E48093B800B0
:1019E00085E48093BC008CE398E090938504809319
:1019F00084048BE398E0909388048093870408958F
:101A00002091160581E0213208F043C08091D20474
:101A10008111FCCF9091180532E03093D20431E06F
:101A20003093AC043FEF3093AA0446EF54E0509358
:101A3000AE044093AD041092B0042093AF04109212
:101A4000B1042091B104990F922B9093B10490911D
:101A5000AB04913029F51092AB049091B1049093AE
:101A6000BB009091BC0093FDF8CF95EC9093BC0027
:101A70009091D2049230E1F39091AA049F3F49F0F3
:101A80008091AA04803271F08091AA04803361F4BD
:101A900083E010921705109216051092190508950B
:101AA00095EEE4CF82E0F5CF84E0F3CF0F931F9360
:101AB0002FB7F8948091780490917904A0917A04DA
:101AC000B0917B042FBF8093160690931706A093C6
:101AD0001806B09319068EE096E00E94AA0B8F3F7D
:101AE000980721F52FB7F894409178045091790424
:101AF00060917A0470917B042FBF009116061091BB
:101B000017062091180630911906401B510B620BE5
:101B1000730B009112061091130620911406309158
:101B200015064017510762077307A8F21F910F911E
:101B3000089590B190938004EBE6F0E09081982BAB
:101B40009083E8E6F0E08081816080830895FC0165
:101B5000AC01425F5F4F8FEF9FEF2191922728E00A
:101B6000BC01880F991F77FF04C031E2832730E161
:101B700093272A95A9F74E175F0779F70895CF9312
:101B8000DF93EC010E94A70D9C0181E04E855F85EB
:101B90004217530709F080E0DF91CF91089520911B
:101BA0000807309109072115310509F458C09091B3
:101BB0000E07911509F44DC0905D90933A019091F4
:101BC0000F07911509F447C0905D90933B019091E8
:101BD0001007911509F441C0905D90933C019091DC
:101BE0001107905D4AE390933D0140933E0190912F
:101BF0001207911102C0232B11F080E3890F80930B
:101C00003F0180911307805D80934001809116070A
:101C100090E2853008F49AE3909341019091140783
:101C2000905D9093420190911507905D90934301D0
:101C30009EE290934401805D809345018091170757
:101C4000805D8093460180911807805D80934701F5
:101C50000895982FB2CF982FB8CF982FBECF8093EA
:101C60003A0180933B0180933C01982F482FBBCFD2
:101C700040E550E060E270E08BE297E00C949E401B
:101C800024E1829FC001112444E150E060E270E051
:101C9000855D984F0C949E40CF93DF939C010696F0
:101CA000F901C481C20FD32FD11D6F71A62F660F0A
:101CB000BB0BA75CBE4F2C173D0719F4DF91CF91EA
:101CC0000895EDA1EA3331F44C91FC014193CF0129
:101CD0002197F1CFEF710E2E000CFF0BE75CFE4F4A
:101CE0004081F3CFCF93C82F80E20E94CF0DC11562
:101CF00019F08AE3809341014AE351E063E086E012
:101D00000E945207C091EA056C2F83E395E00E9480
:101D10004C0E6C2F89E695E0CF910C944C0EFC0193
:101D200044815581608171818EE096E00C94530C62
:101D30000F931F93CF93DF938C01EB01FE0164910E
:101D40002196611521F0C8010E94ED0BF7CFDF91BC
:101D5000CF911F910F9108950C94ED0BFC0183819D
:101D6000811599F08181682B6083828191E0909345
:101D700019058093180510921705109216058AE12F
:101D800095E00E9464080C94000D0895EF92FF9274
:101D90000F931F93CF93DF93EC01162F042FF22E96
:101DA0008B85888B0E94CE0C8889EE24E394E09288
:101DB00019058093180510921705109216050E94B8
:101DC000000D811111C0E98A8AE195E00E9418088E
:101DD0008E878989811549F01F861C8260E0CE01BB
:101DE0000E960E94AE0E01C0198A2F2D402F612F32
:101DF000CE01DF91CF911F910F91FF90EF900C9446
:101E0000A609FC01862F6485611599F0218532852C
:101E10002115310521F4811107C060E005C0213092
:101E20003105D9F78111F9CF6587CF010E960C9452
:101E3000AE0E0895EF92FF921F93CF93DF93EC01C4
:101E4000FC019C012C5F3F4F80E060FF02C0958940
:101E5000892B66953196E217F307B9F7413009F4FB
:101E60004C899D85892B142F182B7E018EE0E80E5E
:101E7000F11C6A89612BC7010E94AE0E6A896095C8
:101E80006123C701DF91CF911F91FF90EF900C94D8
:101E9000AE0E0F931F93CF93DF93D82FC92F142F1C
:101EA000062F0F7040E0123031F062956F70412FB5
:101EB0000E941A0F412F602F8D2F9C2FDF91CF9101
:101EC0001F910F910C941A0FEF92FF920F931F9393
:101ED000CF93DF9390E1899F80011124EB01CB0127
:101EE00040967C01C8010E94DC4389930F5F1F4F1D
:101EF000CE15DF05B9F7DF91CF911F910F91FF90BC
:101F0000EF900895DF92EF92FF920F931F93CF937C
:101F1000DF93CDB7DEB760970FB6F894DEBF0FBE84
:101F2000CDBF082FF62EE42ED52E11E0BE016F5F37
:101F30007F4F8FEF810F0E94640FCE0101960E94A8
:101F4000BF0D8115F1F0998190131BC09A819F7785
:101F5000F91217C09CE0FE013396AE2DBD2D019005
:101F60000D929A95E1F760960FB6F894DEBF0FBE1A
:101F7000CDBFDF91CF911F910F91FF90EF90DF9038
:101F800008951F5F103491F680E0EDCFCF92DF927D
:101F9000FF920F931F93CF93DF9390E1899F80016E
:101FA0001124EB01CB0140966C01F990C8010E940D
:101FB000DC43F81621F06F2DC8010E94E4430F5F47
:101FC0001F4FCC15DD0589F7DF91CF911F910F9140
:101FD000FF90DF90CF900895CF93DF93EC0188813D
:101FE0009981009711F00E944E3F198218821D823C
:101FF0001C821B821A82DF91CF910895009711F005
:102000000C944E3F08950F931F93CF93DF93EC01F1
:102010008B0188819981009729F02A813B812617BD
:10202000370790F4B8016F5F7F4F0E94DF3FFC01DC
:1020300080E0309751F0F983E8831B830A838C8119
:102040009D81892B09F4108281E0DF91CF911F914E
:102050000F910895DC01FB014481558114968D9107
:102060009C9115978417950778F08D919C91009716
:1020700059F0608171816115710531F00E94C04095
:102080009C0181E0232B09F080E00895EF92FF92FC
:102090000F931F93CF93DF93EC017B01FB01019022
:1020A0000020E9F731978F01061B170BB8010E943A
:1020B0000310811109C0CE01DF91CF911F910F91C3
:1020C000FF90EF900C94EC0F1D830C83B701888177
:1020D0009981DF91CF911F910F91FF90EF900C9418
:1020E000B940FB01EF2B51F0DB010D900020E9F727
:1020F0001197AD01461B570B0C94530C08956F922A
:102100007F928F929F92AF92BF92CF92DF92EF9287
:10211000FF920F931F93CF93DF93CDB7DEB7A197B5
:102120000FB6F894DEBF0FBECDBF3C01142F052FB4
:10213000962E872E19A2223008F42AE05E0181E251
:10214000A80EB11CC22ED12CE12CF12C612F702FC6
:10215000892D982DA70196010E94C63C812F902FB2
:10216000A92DB82D122F032F942E852E6A3014F529
:10217000605DF50162935F018C159D05AE05BF059D
:1021800028F7BF01C3010E947110A1960FB6F89401
:10219000DEBF0FBECDBFDF91CF911F910F91FF909A
:1021A000EF90DF90CF90BF90AF909F908F907F90F7
:1021B0006F900895695CDDCF482F50E060E070E0DB
:1021C0002AE08EE096E00C947F1069E772E00C94B0
:1021D00071101F93CF93DF93D62FC72F142F0E9418
:1021E0008F0E6EEF72E08EE096E00E94980E8D2FBB
:1021F0009C2F111549F00E948F0E8EE096E0DF9122
:10220000CF911F910C94E510DF91CF911F910C9409
:102210008F0ECF92DF92FF920F931F93CF93DF9396
:1022200000D000D000D0CDB7DEB78C01F62E2091C3
:10223000110180E1289FB001112464517E4F1C825E
:102240001B821E821D821A821982CE0101960E9473
:102250004610C980DA804F2DB801CE0101960E9448
:10226000E910C6010F900F900F900F900F900F90F4
:10227000DF91CF911F910F91FF90DF90CF900C9441
:10228000FE0FCF93DF93D82FC92F0E9471108D2F8F
:102290009C2FDF91CF910C94E510CF93DF93D82F33
:1022A000C92F0E94980E8D2F9C2FDF91CF910C94F7
:1022B000E5100C9471100F931F93CF93DF93CDB75C
:1022C000DEB762970FB6F894DEBF0FBECDBF6F8743
:1022D000788B898B9A8B042F122F1B861C861D8668
:1022E0001E86BE01615F7F4FCE010B960E943306B2
:1022F00080E30E94CF0D111531F06CE772E08EE0A3
:1023000096E00E945911011599F080913B01898353
:1023100080913C018A8380913D018B838AE38C8389
:102320001D82BE016F5F7F4F8EE096E00E945911C3
:1023300080913F018983809140018A838AE38B8366
:10234000809142018C83809143018D838EE28E8344
:10235000809145018F838091460188878091470154
:1023600089871A86BE016F5F7F4F8EE096E00E94DC
:102370005911111531F06FE772E08EE096E00E947E
:10238000591162960FB6F894DEBF0FBECDBFDF9134
:10239000CF911F910F910895EF92FF920F931F938A
:1023A000CF93DF93EC018B016115710569F0FB019F
:1023B00001900020E9F731977F01E61AF70AB7018B
:1023C0000E940310811109C0CE01DF91CF911F91AE
:1023D0000F91FF90EF900C94EC0FFD82EC82B8010E
:1023E00088819981DF91CF911F910F91FF90EF909C
:1023F0000C94B940FC01448150E060E270E0069624
:102400000C949E40CF93DF93C091E005D091E105FD
:102410006BED75E087ED95E0209721F066EE75E0B5
:1024200082EE95E00E94330680E20E94CF0D219754
:1024300031F44AE351E062E08AE00E9452078FE9FA
:1024400095E00E94FA11C091EA056C2F89E695E0AB
:102450000E944C0E6C2F83E395E0DF91CF910C949A
:102460004C0E8F929F92AF92BF92CF92DF92EF92DB
:10247000FF920F931F93CF93DF936B017C01A70112
:102480009601C701B6010E94554561E872E08111CD
:1024900014C0C701B6010E944B4565E872E0892B64
:1024A00061F42FEF3FEF4FE75FE4C701B6010E94F1
:1024B0004645181694F469E872E08EE096E0DF91E4
:1024C000CF911F910F91FF90EF90DF90CF90BF9031
:1024D000AF909F908F900C9471102FEF3FEF4FE7CC
:1024E0005FECC701B6010E94913D87FDE4CF20E07B
:1024F00030E0A901C701B6010E94913D87FF09C0E4
:102500006DE28EE096E00E94AC0EF7FAF094F7F8D8
:10251000F0942EE632E143E05AE3C701B6010E948F
:1025200039446B017C010E9417458B01D82FC92FBC
:102530000E94963D9B01AC01B601C7010E94384440
:102540006B017C012AE0A8016D2F7C2F8EE096E0C4
:102550000E947F106EE28EE096E00E94AC0EC3E017
:1025600020E030E040E251E4B601C7010E94F73DAF
:10257000F62E072F182FD92F0E9417454B01A12C9B
:10258000B12C2AE0B501A4018EE096E00E947F10F4
:10259000C501B4010E94963D9B01AC016F2D702FC7
:1025A000812F9D2F0E9438446B017C01CA95C1F692
:1025B000DF91CF911F910F91FF90EF90DF90CF901F
:1025C000BF90AF909F908F9008952F923F924F921F
:1025D0005F926F927F928F929F92AF92BF92CF92B3
:1025E000DF92EF92FF920F931F93CF93DF93CDB7BC
:1025F000DEB764970FB6F894DEBF0FBECDBF6EEBAB
:1026000071E08EE096E00E944D112091AB060CEA3D
:1026100016E0F80180E0412C512C3201C12CD12C64
:10262000760188248A94982C540182134CC12FEF90
:1026300082169206A206B206C1F0D701C601C414E2
:10264000D504E604F70410F4D301C2010097A105F4
:10265000B10559F088199909AA09BB0931E03C87ED
:102660008F379E4EA643B10508F41C86212C312CD1
:102670008091AB062816310408F43DC12FEF821675
:102680009206A206B20609F47EC0C114D104E10488
:10269000F10409F478C0411451046104710409F48F
:1026A00072C0D701C60188199909AA09BB098D878B
:1026B0009E87AF87B88BA3019201281939094A096F
:1026C0005B09298B3A8B4B8B5C8B8EE096E00E94EA
:1026D000E51061E771E08EE096E00E944D1165E63D
:1026E00071E08EE096E00E94980E20E04C856D85AA
:1026F0007E858F8598890E945B118EE096E00E940E
:10270000E51069E571E08EE096E00E94980E20E009
:102710004C8569897A898B899C890E945B118EE03E
:1027200096E00E94E5108D859E85AF85B889298940
:102730003A894B895C8982179307A407B50708F08B
:102740001BC163E471E08EE096E00E944D1167E3E7
:1027500071E08EE096E00E94980EC301B2016C1900
:102760007D098E099F090E94963D20E030E04AE7EE
:1027700054E40E94A5440E9431126DE872E08EE09C
:1027800096E00E94411180913005811509F47DC0C9
:1027900068EE70E08EE096E00E944D118091300569
:1027A000811509F410C1809150014091510120918F
:1027B0005201E0905301F0905401009155011AE04C
:1027C000612F0E94A63C805D8983905D9A833EE2E2
:1027D0003B83842F0E94A63C805D8C83905D9D830B
:1027E0003E8330E02053384F82E38F83C90164E693
:1027F00070E00E94B23CCB01EAE0F0E0BF010E9431
:10280000B23C805D8887C901BF010E94B23C282F7D
:10281000CB01BF010E94B23C805D8987205D2A8781
:102820001B866CED70E08EE096E00E94980EBE0173
:102830006F5F7F4F8EE096E00E9441118E2D612FD9
:102840000E94A63C805D8983905D9A832AE32B8356
:102850008F2D0E94A63C805D8C83905D9D832E838E
:10286000802F0E94A63C805D8F83905D988719869B
:1028700060ED70E08EE096E00E94980EBE016F5F02
:102880007F4F8EE096E00E94411169EB70E08EE090
:1028900096E064960FB6F894DEBF0FBECDBFDF9111
:1028A000CF911F910F91FF90EF90DF90CF90BF904D
:1028B000AF909F908F907F906F905F904F903F90E0
:1028C0002F900C944D119481913039F48080918037
:1028D000A280B3808F5F3596A8CE933029F4C08054
:1028E000D180E280F380F6CF9430A1F74080518010
:1028F00062807380EFCFD8016D917D918D919C9115
:10290000681979098A099B0921E04C850E945B11AD
:1029100063EB72E08EE096E00E945911F801848129
:10292000843021F190F48230D9F08330E1F068EB0B
:1029300071E0813081F08EE096E00E94E510FFEFBB
:102940002F1A3F0A0B5F1F4F93CE853091F067E837
:1029500071E0863081F78EE096E00E94980EEBCF12
:1029600060EB71E0F8CF61EA71E0F5CF61E971E009
:10297000F2CF6DE871E0EFCF89899A89AB89BC8984
:102980002D853E854F85588982179307A407B50783
:1029900098F460E271E08EE096E00E944D1164E1EF
:1029A00071E08EE096E00E94980EC701B6016419AE
:1029B000750986099709D7CE6EEF70E08EE096E034
:1029C0000E944D11E0CE00E0F12CE12C20E040E02F
:1029D00080E0F5CEEF92FF920F931F93CF93DF939A
:1029E000EC018B01CB010E94623D7C01BC01CE0158
:1029F0000E940310811109C0CE01DF91CF911F9178
:102A00000F91FF90EF900C94EC0FEC82FD82B801D7
:102A100088819981DF91CF911F910F91FF90EF9065
:102A20000C945B3D0F931F93CF93DF9300D000D0A6
:102A300000D0CDB7DEB7E0EEF5E082E090E0918324
:102A400080838BE6828766EE75E082EE95E00E94D9
:102A5000330681E00E94720E1C821B821E821D8240
:102A60001A82198267E878E0CE0101960E94EA1482
:102A700009811A81CE0101960E94DA07C8010E94DD
:102A8000FE0F84E090E00F900F900F900F900F904A
:102A90000F90DF91CF911F910F910C94CC050F9364
:102AA0001F93CF93DF9300D000D000D0CDB7DEB717
:102AB00080912507909126078A30910561F188F46D
:102AC000009709F4B4C0099709F449C00F900F901A
:102AD0000F900F900F900F90DF91CF911F910F915A
:102AE00008950B9799F761E077E08EE096E00E94F9
:102AF0004D1166ED76E08EE096E00E944D110F904C
:102B00000F900F900F900F900F90DF91CF911F912A
:102B10000F910C94C50C1C821B821E821D821A828E
:102B200019826AE777E0CE0101960E94EA140981D2
:102B30001A8161E0CE0101960E940911C8010E942C
:102B4000FE0F8CE090E00F900F900F900F900F9081
:102B50000F90DF91CF911F910F910C94CC050E94A3
:102B6000380E1C821B821E821D821A82198265E722
:102B700077E0CE0101960E94EA1409811A81CE0104
:102B800001960E94D607C8010E94FE0F1C821B827C
:102B90001E821D821A82198268E677E0CE010196B4
:102BA0000E94EA1409811A81AE014F5F5F4F63E012
:102BB00084E00E946707C8010E94FE0F409137051C
:102BC00050E066E672E089E595E00E94954040910C
:102BD000A30550E062E271E085EC95E00E9495402B
:102BE00040916D0550E062E171E08FE895E00E9450
:102BF00095400E94F0050E94C0056093DB0570932C
:102C0000DC058093DD059093DE051092D7051092C8
:102C1000D8051092D9051092DA051092D6051092B7
:102C2000D5058BE68093DF0580E090E08CCF809126
:102C30008401811561F0109284018EE096E00E947B
:102C4000E5106DE377E08EE096E00E944D118091F3
:102C50007B01811191C0809172018111B7C0809177
:102C60006901811571F01092690181E080932D0551
:102C700024E630E040E550E060ED77E083E00E943C
:102C8000A80C80916001811531F0109260011092C2
:102C90002D050E94C50C80913105811105C08091E0
:102CA0002D05811509F44AC00E94C0056093DB051B
:102CB0007093DC058093DD059093DE056BED75E088
:102CC00087ED95E00E94330680E20E94CF0D4AE333
:102CD00051E061E086E00E9452078091D505909115
:102CE000D6051C821B821E821D821A82198261E314
:102CF00077E0892B11F06AE277E0CE0101960E941D
:102D0000EA1409811A81AE014F5F5F4F61E080E0F4
:102D10000E946707C8010E94FE0F1091DF05612F16
:102D20008FE995E00E944C0E612F89E695E00E94A4
:102D30004C0E612F83E395E00E944C0E809132058A
:102D4000811509F463C08AE38093410160E972E070
:102D50008EE096E00E9459116AE371E08EE096E001
:102D60000F900F900F900F900F900F90DF91CF91D9
:102D70001F910F910C94411110927B0180917C0165
:102D800090917D01A0917E01B0917F018093D70544
:102D90009093D805A093D905B093DA0581E090E02F
:102DA0009093D6058093D50588E68093DF050E9431
:102DB000F00528E933E040E550E06CED75E083E094
:102DC0000E94A80C81E08093840180CE1092720151
:102DD00080912E0591E0892780932E051C821B820D
:102DE0001E821D821A82198268E377E0CE01019665
:102DF0000E94EA1409811A81CE0101960E94D60729
:102E0000C8010E94FE0F0E94C50C29CF80912C059D
:102E10006FE073E0811107C080913105811509F4DD
:102E200055CE6EE972E08EE096E00F900F900F9015
:102E30000F900F900F90DF91CF911F910F910C94F5
:102E400059110F931F93CF93DF9300D000D000D080
:102E5000CDB7DEB70E94380E1C821B821E821D82F7
:102E60001A8219826CEC76E0CE0101960E94EA1477
:102E700009811A81CE0101960E94D607C8010E94DD
:102E8000FE0F1C821B821E821D821A82198267EB32
:102E900076E0CE0101960E94EA1409811A81AE0102
:102EA0004F5F5F4F62E080E00E946707C8010E94A9
:102EB000FE0F1C821B821E821D821A82198266EA04
:102EC00076E0CE0101960E94EA1409811A81AE01D2
:102ED0004F5F5F4F63E082E00E946707C8010E9476
:102EE000FE0F1C821B821E821D821A8219826EE9CD
:102EF00076E0CE0101960E94EA1409811A81BE0192
:102F00006F5F7F4F83E395E00E949805C8010E94A0
:102F1000FE0F8FE995E00E94FA1189E695E00F9087
:102F20000F900F900F900F900F90DF91CF911F9106
:102F30000F910C94FA11CF92DF92FF920F931F938F
:102F4000CF93DF9300D000D000D0CDB7DEB78C0197
:102F5000F62E1C821B821E821D821A82198267EF46
:102F600072E0CE0101960E94EA14C980DA804F2DEA
:102F7000B801CE0101960E94E910C6010F900F9092
:102F80000F900F900F900F90DF91CF911F910F91A5
:102F9000FF90DF90CF900C94FE0F7F928F929F92C4
:102FA000AF92BF92CF92DF92EF92FF920F931F9357
:102FB000CF93DF93CDB7DEB766970FB6F894DEBF39
:102FC0000FBECDBF982EB62E742E852EA12C8E014D
:102FD0000F5F1F4FC982DA82B8018A2D0E94640FE9
:102FE000C980DA80C8010E94BF0D7801811579F18E
:102FF0009C102DC08D2D8F77B81229C0BD1083C0B5
:103000008CE0E72DF82DDE01139601900D928A9544
:10301000E1F7C8010E94A70D988B8F87B8018A2D10
:103020000E94C60F81E066960FB6F894DEBF0FBE11
:10303000CDBFDF91CF911F910F91FF90EF90DF9067
:10304000CF90BF90AF909F908F907F900895A39462
:1030500080E4A812BFCF10E0C982DA82B701812FC5
:103060000E94640FC980DA80C7010E94BF0D8115DC
:10307000B9F01F5F103481F700E0C982DA82B7012E
:10308000802F0E94640FC980DA80C7010E94BF0DA3
:10309000811511F0C7FC1AC00F5F003471F71FEFE4
:1030A0000FEF8CE0E72DF82DDE01139601900D92C5
:1030B0008A95E1F79982BA82C7010E94A70D988B81
:1030C0008F871F3F29F0B701812FAACF1FEFE9CFCC
:1030D000B701802F0F3F09F0A3CF1C8A1B8A1E8ADD
:1030E0001D8A1A8A198A6CEC7AE0CE0141960E94F8
:1030F000EA1409891A8961E0CE0141960E949B1762
:10310000C8010E94FE0F80E08ECF6F927F928F9257
:103110009F92AF92BF92CF92DF92EF92FF920F9366
:103120001F93CF93DF93CDB7DEB76F970FB6F894A9
:10313000DEBF0FBECDBF8091250790912607893055
:10314000910509F462C0D8F4009709F479C0059795
:1031500009F4B4C16F960FB6F894DEBF0FBECDBFB1
:10316000DF91CF911F910F91FF90EF90DF90CF9063
:10317000BF90AF909F908F907F906F9008958A300E
:10318000910559F10B9731F7809150018983809116
:1031900051018A83809152018B83AE014F5F5F4F53
:1031A00060E084E00E94CD178115A1F20E94C50C59
:1031B0001D8A1C8A1F8A1E8A1B8A1A8A62E972E08B
:1031C000CE0142960E9446100A891B8961E0CE0119
:1031D00042960E940911C80194C08CE090E06F965D
:1031E0000FB6F894DEBF0FBECDBFDF91CF911F9118
:1031F0000F91FF90EF90DF90CF90BF90AF909F9096
:103200008F907F906F900C94CC0580913005811148
:1032100014C0AE014F5F5F4F60E084E00E94820FF8
:10322000811559F08981809350018A8180935101E1
:103230008B81809352010E94FF0580E090E0CFCF08
:1032400080918401811529F1109284010E94380E29
:103250001C821B821E821D821A8219826CEC77E00E
:10326000CE0101960E94EA1409811A81CE010196CD
:103270000E94D607C8010E94FE0F8FE995E00E94C8
:10328000FA1189E695E00E94FA1183E395E00E9425
:10329000FA118091720181114AC080913105811526
:1032A00009F458CF809130058E010F5F1F4F8111B7
:1032B00043C01C821B821E821D821A82198269E908
:1032C00077E0C8010E94EA14E980FA80A80162E070
:1032D00081E00E946707C7010E94FE0F1C821B82CB
:1032E0001E821D821A82198265E877E0C8010E9459
:1032F000EA14E980FA80A80163E080E00E94670791
:10330000C7016F960FB6F894DEBF0FBECDBFDF9139
:10331000CF911F910F91FF90EF90DF90CF90BF90D2
:10332000AF909F908F907F906F900C94FE0F1092B3
:10333000720185E090E053CF60904F018090500182
:10334000909051017090520120915301409154018D
:103350003091550180E2F82E2A3038F0822F6AE051
:103360000E94A63C90E3F92EF80EF982822F6AE0C3
:103370000E94A63C50E3C52EC90ECA822AE32B83C5
:10338000842F0E94A63C70E3D72ED80EDC82E0E3A7
:10339000EE2EE90EED822E83832F0E94A63CF0E3F1
:1033A000AF2EA80EAF82A0E3BA2EB90EB88619864A
:1033B000A80162E086E00E945207862D90E0FC01A1
:1033C000EE0FFF1FE80FF91FE55BFD4F808189833A
:1033D00081818A8380E28B838C832AE080E282165B
:1033E00028F0882D6AE00E94A63C805D8D832AE04B
:1033F000882D622F0E94A63C905D9E838EE28F8373
:1034000080E2921620F0892D0E94A63C805D88877C
:103410003AE0892D632F0E94A63C905D99878EE249
:103420008A8782E38B8780E38C87872D0E94A63C66
:10343000292F0E94A63C905D9D87205D2E871F86C8
:10344000A80163E083E00E945207F982CA82DB820E
:10345000EC82AD82BE828AE38F834E0188E0880EC3
:10346000911C5E01E2E1AE0EB11CD501F401350103
:1034700082918D930E171F07D9F74091370550E0C1
:10348000B30189E395E00E94954080E289838A83B5
:10349000FB82CC82DD82EE82F40182914F01F50144
:1034A00081935F0108151905B9F74091A30550E014
:1034B000B30185EA95E00E9495404CCE809184014D
:1034C000811509F43FC01092840110922F050E94CB
:1034D000380E1C821B821E821D821A82198260ECA9
:1034E00077E0CE0101960E94EA1409811A81CE018B
:1034F00001960E94DA07C8010E94FE0F1C821B82FF
:103500001E821D821A8219826BEA77E0CE01019633
:103510000E94EA1409811A81AE014F5F5F4F63E098
:1035200080E00E946707C8010E94FE0F8FE995E0C6
:103530000E94FA1189E695E00E94FA1183E395E072
:103540000E94FA1180917201811519F01092720196
:1035500074CE80917B01811549F010927B0180919E
:103560002F058F5F8730A0F580932F05809169012B
:10357000811589F11092690168EC70E080E090E0BB
:103580000E9446098DE10E94210B892B19F481E0EC
:10359000809369018FEF909160019115F1F0109285
:1035A000600168EC70E080E090E00E9446098EE1E6
:1035B0000E94210B892B09F4A7C021E0E0912F057F
:1035C000E73008F0AFC0F0E0E45AFA4B0C94073D46
:1035D00010922F05CBCF80E0DECF811199C0809172
:1035E0003105811509F4B6CD198A10E2198380914D
:1035F00050010AE0602F0E94A63C805D8A83905DA6
:103600009B831C831D83809151010E94A63C805D99
:103610008E83905D9F831887198782E38A8780E372
:103620008B87809152010E94A63C292F0E94A63CC4
:10363000905D9C87205D2D871E8780914F0190E0D3
:10364000FC01EE0FFF1FE80FF91FE55BFD4F8081C6
:103650008F878181888BAE014F5F5F4F61E080E093
:103660000E94520780915301602F0E94A63C805D0A
:103670008A83905D9B83809154010E94A63C805D6B
:103680008E83905D9F83809155010E94A63C805D52
:103690008A87905D9B871C871D87809130058111EB
:1036A000B0C096E589E79E878F8780E7888BAE015B
:1036B0004F5F5F4F62E080E00E9452078EE0EBE8D0
:1036C000F1E0DE01529601900D928A95E1F780912A
:1036D0002F05FE013196E80FF11DE80FF11D8289DB
:1036E0008F5F843008F036CDE189E43108F032CDC7
:1036F000F4E18F9FC0011124855D984FE80FF92FE9
:10370000F11D87E0808326CD81E08093600155CF55
:103710002FEF54CF80915001820F803230F081E042
:10372000809350010E94FF055ACF8111F9CF8FE19C
:10373000F7CF80915101820F8D3020F081E080938E
:103740005101F0CF8111FBCF8CE0F9CF8091520174
:10375000820F843620F089E180935201E3CF8931D2
:10376000D8F783E6F9CF80915301820F8F3F21F480
:1037700087E180935301D6CF8831D8F3109253015B
:10378000D1CF80915401820F8F3F21F48BE380933E
:103790005401C8CF8C33D8F310925401C3CF8FB7E4
:1037A000F89410921D0710921C0710921B078FBFF0
:1037B000809155013AE0632F0E94A63C820F839FBF
:1037C000802D1124813F20F082E380935501AACF00
:1037D0008333D8F310925501A5CF80913005811124
:1037E00009C08FB7F89410921D0710921C07109211
:1037F0001B078FBF8091300591E0892780933005AA
:1038000091CF9AE581E64FCF2F923F924F925F92F0
:103810006F927F928F929F92AF92BF92CF92DF92E0
:10382000EF92FF920F931F93CF93DF93CDB7DEB745
:10383000AD970FB6F894DEBF0FBECDBF80912507C0
:10384000909126078C30910569F08A30910519F521
:1038500083E395E00E94FA118CE090E090932607B4
:1038600080932507AD960FB6F894DEBF0FBECDBF8F
:10387000DF91CF911F910F91FF90EF90DF90CF904C
:10388000BF90AF909F908F907F906F905F904F9080
:103890003F902F900895099791F40E9421178EE090
:1038A00096E00E946A0B892B29F410922607109249
:1038B0002507D8CF8EE096E00E94AA0BF0CF8EE0CD
:1038C00096E00E946A0B892B69F218A21F8E1E8E49
:1038D0001D8E1AA219A26E012DE1C20ED11C6BE73A
:1038E00072E0C6010E9446100D8D1E8DE9A0FAA05F
:1038F0000E94560D9C01CFA2D8A62F3F320721F07F
:103900002A30310509F0D2C10115110591F1E114F8
:10391000F10479F148015401D4018D914D01082E33
:10392000000C990B0E94883D892BA9F7B1E0EB1A96
:10393000F108E00EF11ED7018C91082E000C990BB6
:103940000E94883D892B21F0EA14FB0408F0D0C1C5
:10395000BFEFEB1AFB0AEA18FB080A151B0528F44F
:10396000A701B501C8010E949540F801EE0DFF1DA9
:1039700010821C821B821E821D821A82198264E9B7
:1039800076E0FE0131963F01CF010E94EA14A98042
:10399000BA8060E0C3010E940911C5010E94FE0FB8
:1039A0001E8F0D8FFAA2E9A28FA198A50E948F0EFB
:1039B00060EA72E08EE096E00E9441111C821B8258
:1039C0001E821D821A82198262EA72E0C3010E947D
:1039D0004610A980BA80B3018FA198A50E942A1031
:1039E000982EC5010E94FE0F911409F4ABC18FEF10
:1039F0009FEF9A8B898B9CA38BA3CE0183969F9379
:103A00008F9342979F938F9387EA92E09F938F9330
:103A10001F930F930E94DD4064E876E08EE096E00D
:103A20000E944D1164E776E08EE096E00E944D1111
:103A30000FB6F894DEBF0FBECDBF812C912C45E6AA
:103A400056E026E636E082E696E049A75AA72BA77D
:103A50003CA7482E9DA76E013FE0C30ED11CB301C9
:103A6000882D0E94640FC3010E94BF0D811509F4C7
:103A700071C0B980B7FC6EC089899A8997FD04C06E
:103A8000B816190609F066C02A80A22CE894A7F897
:103A90008BA19CA197FD04C0A816190609F05AC075
:103AA00062EB72E08EE096E00E94591184E661E7D5
:103AB00076E0B81638F49AE06EE676E0B91610F0C3
:103AC00062E776E08EE096E00E94980E8B2D0E94D1
:103AD000DC1062EB72E08EE096E00E945911A4E6E1
:103AE0002BE636E0B901AA1648F4BAE0E8E6F6E0BB
:103AF000BF01AB1618F08CE696E0BC018EE096E0B4
:103B00000E94980E8A2D0E94DC1060E28EE096E002
:103B10000E94ED0B27FEF0C062E28EE096E00E946C
:103B2000AC0EDE0113965D01F50161915F01611537
:103B300039F08EE096E00E94AC0ECA14DB04A1F7C7
:103B400062E28EE096E00E94AC0E8EE096E00E946B
:103B5000E5109394839420E4821281CF911431F084
:103B600062E576E08EE096E00E944D1167E476E033
:103B70008EE096E00E94980E892D0E94DC108EE067
:103B800096E00E94E510992493941C821B821E8269
:103B90001D821A82198265EB72E0C3010E944610F1
:103BA000A980BA80B3018FA198A50E942A10882EFF
:103BB000C5010E94FE0F811409F42BC11C8A1B8AC7
:103BC0001E8A1D8A1A8A198A6E0131E1C30ED11C20
:103BD0006BE772E0C6010E94461069E376E0C60119
:103BE0000E94EA14E988FA88CE0185969F938F9304
:103BF00002979F938F938AEB92E09F938F931F93EB
:103C00000F930E94DD400FB6F894DEBF0FBECDBF0C
:103C10002601029709F0B8C060E270E0C8010E9476
:103C2000A540009709F4B0C060E270E001960E94E0
:103C3000A540009709F4A8C060E270E001960E94D8
:103C4000A540DC01892B09F49FC0FD018D918032D4
:103C5000E1F3823209F078C06D0162E270E0CD01DB
:103C60000E94A540AC01892B09F48EC08CE0F301C1
:103C700011928A95E9F74C195D094D30510514F000
:103C80004CE050E0B601C3010E94CE406DA16068D7
:103C9000A3018BA10E94CD1768E276E0811102C0DA
:103CA0006CE076E0C2010E94EA146CC029831A829B
:103CB00057013FEFA31AB30A1E8F0D8FFAA2E9A294
:103CC000B5018FA198A50E9403100D8D1E8DE9A04E
:103CD000FAA0811549F0BE016F5F7F4FC8018E0DBC
:103CE0009F1D0E94B94075010E94560D9C0105CE92
:103CF000E1E0EE1AF1081FCE9E012D5F3F4F190142
:103D0000B12CD101AD901D01B4E669A57AA5AB1621
:103D100038F4EAE0642D7DA5AE1610F06BA57CA505
:103D20008EE096E00E94980E8A2D0E94DC10B394DB
:103D3000FCE0BF1609F409CF6CE28EE096E00E9429
:103D4000ED0BDFCF912C21CF8CE0D3011D928A9512
:103D5000E9F763014E01BDE08B0E911C8081811556
:103D600019F08C149D04B9F56DA16F77A3018BA197
:103D70000E94CD17811509F449C064EC72E0C201BC
:103D80000E94CC11E988FA88FA8AE98AC2010E9465
:103D90008F0E8EE096E00E94E510C7010E94FE0F94
:103DA000C801AD960FB6F894DEBF0FBECDBFDF9150
:103DB000CF911F910F91FF90EF90DF90CF90BF9028
:103DC000AF909F908F907F906F905F904F903F90BB
:103DD0002F900C94FE0F5F013196D5018C918032AB
:103DE000D1F3C5010E940D3D8115B1E09B0760F63E
:103DF000F60181936F016CE270E0C5010E94A5405D
:103E0000FC01892B09F4B0CF3196A8CF60EF75E0A3
:103E100049CF1C821B821E821D821A82198269ED83
:103E200072E0C3010E944610A980BA80B3018FA13D
:103E300098A50E942A10482EC5010E94FE0F411429
:103E400009F44AC0CE0185969F938F9302979F9362
:103E50008F938EED92E09F938F931F930F930E9409
:103E6000DD400FB6F894DEBF0FBECDBF0297A1F5BF
:103E7000ADA0BBA05982B301882D0E94640F598068
:103E8000C3010E94BF0D982E811541F1B51026C0C7
:103E90008A818F77A81222C08CE0FE017196DF0123
:103EA000282F1D922A95E9F7DE01139601900D92B5
:103EB0008A95E1F78B2D80688983C3010E94A70D45
:103EC000988B8F87B301882D0E94C60F61EE75E035
:103ED0008EE096E00E944D11812C0EC0839430E458
:103EE0008312C8CF64ED75E08EE096E00E94980ED4
:103EF00088248394992493941C821B821E821D82A1
:103F00001A82198268EE72E0C3010E944610A980ED
:103F1000BA80B3018FA198A50E942A10D82EC5019E
:103F20000E94FE0FD11409F459C0270195E0A92E73
:103F3000B12C85E0E816F10420F4570185E0482E05
:103F4000512C1C821B821E821D821A8219826BE7F1
:103F500072E0C3010E944610AE14BF0400F1A980B4
:103F6000BA80A114B10431F0C5010E942B3DCB01F0
:103F7000892B51F510922E050E942117C5010E9430
:103F8000FE0F99249394EF2861F5811409F4E1C0A0
:103F90006DEB75E08EE096E00E94980ECAC0670156
:103FA0004E145F0408F46201C00ED11ED6019C902D
:103FB0001C92B8016A0D7B1DC3010E94CC11A9801F
:103FC000BA80F6019082CDCF6130710521F481E095
:103FD00080932E05D3CF88248394D0CFEF2809F483
:103FE0009EC06EEE72E0C8010E94B040892B91F530
:103FF00060E375E08EE096E00E944D1160EE74E0A3
:104000008EE096E00E944D116CE974E08EE096E03F
:104010000E944D1161E574E08EE096E00E944D1122
:1040200068E174E08EE096E00E944D1164ED73E06B
:104030008EE096E00E944D1165E973E08EE096E017
:104040000E944D116AE673E08EE096E00E944D11E9
:104050009924939463EF72E0C8010E94B040892BC9
:1040600009F05DC069EA75E08EE096E00E94980E66
:1040700067E975E08EE096E00E944D1162E975E017
:104080008EE096E00E94980E68E875E08EE096E07B
:104090000E94980E69E775E08EE096E00E94980E07
:1040A00066E775E08EE096E00E94980E6AE675E09D
:1040B0008EE096E00E94980E60E28EE096E00E940C
:1040C000ED0B61E675E08EE096E00E94980E6FE5DC
:1040D00075E08EE096E00E944D116CE475E08EE094
:1040E00096E00E94980E80912B050E94DC108EE0D5
:1040F00096E00E94E5106AE375E08EE096E00E948B
:10410000980E2AE040E150E060E070E08EE096E03A
:104110000E947F108EE096E00E94E51036CF91104D
:1041200034CF64EC75E08EE096E00E94980E81102A
:104130002FCF6EEA75E08EE096E00E944D1124E6E6
:1041400030E040E550E060ED77E083E00E94A80CAD
:1041500027CE8EE096E00E94E5100E94C50C20CE8E
:104160000F931F93CF93DF9300D000D000D0CDB733
:10417000DEB7ECEAF6E08FEF9FEFDC0180839183FE
:10418000A283B3831482359626E0EC3FF207B1F7A1
:104190001092AB061C821B821E821D821A8219821B
:1041A0006EEB7AE0CE0101960E94EA1409811A8131
:1041B00061E0CE0101960E949B17C8010F900F90FD
:1041C0000F900F900F900F90DF91CF911F910F9153
:1041D0000C94FE0F8F929F92AF92BF92CF92DF927C
:1041E000EF92FF920F931F93CF93DF93CDB7DEB77C
:1041F00028970FB6F894DEBF0FBECDBF8C01DB0150
:10420000FA012FB7F8944D915D916D917C91808169
:1042100091812FBFF801C180D280E380F4804A01F0
:104220005B018C189D08AE08BF0827818216910497
:10423000A104B10408F472C0418352836383748380
:10424000880F991F880F991F9683858381E080834B
:1042500080914E01811509F461C01C821B821E826F
:104260001D821A82198268EB7AE0CE0101967C01E8
:104270000E94EA14C980DA8060E0C7010E949B179F
:10428000C6010E94FE0FF80180858983F1E00237A4
:104290001F0739F48091250790912607892B09F48F
:1042A00050C080E28A8380E48B8380E2D82EDC8257
:1042B0001D82B7018EE096E00E945911F8014181FC
:1042C0005281638174812AE08EE096E00E947F1023
:1042D0008EE28983F80125813681C90164E670E0A8
:1042E0000E94B23C605D6A83EAE0F0E0C901BF0170
:1042F0000E94B23C282FCB01BF010E94B23C805DDE
:104300008B83205D2C83DD828DE68E8383E78F8314
:104310001886B7018EE096E00E94411128960FB6EC
:10432000F894DEBF0FBECDBFDF91CF911F910F91EB
:10433000FF90EF90DF90CF90BF90AF909F908F90C5
:1043400008958BE2AFCFCF92DF92EF92FF92CF939F
:10435000DF9300D000D000D0CDB7DEB78091290523
:1043600090912A05892BF9F08AE090E00E94CC0513
:104370000E94C0056E5C7F4F8F4F9F4F6B017C0189
:104380000E94C0056C157D058E059F0560F4809127
:104390002507909126070C9731F0E0912905F091BF
:1043A0002A050995EDCF10922805E0912705E093A5
:1043B000110180E1E89FF0011124E551FE4F86854F
:1043C000978590932A058093290589E090E00E94C3
:1043D000CC051C821B821E821D821A82198262E613
:1043E00073E0CE0101960E94EA14E980FA8060E051
:1043F000CE0101960E949B17C7010E94FE0F60919B
:10440000110120E1629FB001112464517E4F8EE0C2
:1044100096E00E94591168E573E08EE096E00F90F7
:104420000F900F900F900F900F90DF91CF91FF9012
:10443000EF90DF90CF900C944D11CF92DF92EF92DE
:10444000FF920F931F93CF93DF93CDB7DEB768979B
:104450000FB6F894DEBF0FBECDBF8CE10E94210BDA
:10446000019791F481E08093280568960FB6F8943F
:10447000DEBF0FBECDBFDF91CF911F910F91FF9097
:10448000EF90DF90CF9008951C8A1B8A1E8A1D8AA8
:10449000188E1F8A8E010D5E1F4F64E573E0C80100
:1044A0000E94EA1480917B017801811581F080914E
:1044B00026058F5F833008F080E010927B018093A7
:1044C000260580E00E94400E81E00E94400E10917F
:1044D0002605113009F46CC0123009F4BBC011116B
:1044E00055C080916901811571F010926901809128
:1044F0002705811102C080912B05815080932705EB
:1045000081E00E94400E80916001811591F010922F
:1045100060012091270580912B058150990B281768
:10452000190611F011E0120F1093270581E00E9487
:10453000400E80913105811549F11C821B821E823B
:104540001D821A82198264E473E0CE0101960E94F2
:10455000EA1409811A81AE014F5F5F4F60E082E08B
:104560000E946707C8010E94FE0FA70161E082E078
:104570000E9467074091270580E1489FA001112410
:1045800044515E4F61E086E00E9452078B899C890E
:1045900068960FB6F894DEBF0FBECDBFDF91CF9106
:1045A0001F910F91FF90EF90DF90CF900C94FE0F32
:1045B00080916901811509F445C0109269018091CB
:1045C0004E0191E0892780934E018091310581153C
:1045D000E9F21C821B821E821D821A82198263E309
:1045E00073E08E010F5F1F4FC8010E94EA14C9805B
:1045F000DA80A80160E082E00E946707C6010E949D
:10460000FE0FA70161E082E00E94670780914E01E2
:104610006FE273E0811102C06BE273E01C821B82C7
:104620001E821D821A821982C8010E94EA14E98042
:10463000FA80A80161E086E00E946707C7010E9436
:10464000FE0FA4CF80916001811509F4BECF1092B6
:104650006001B5CF80916901811539F1109269012E
:1046600080911101898380914E018A83AE014F5F51
:104670005F4F63E080E00E94CD170E94C50C188A4E
:104680001F861A8A198A1E861D8663E273E0CE0190
:104690000D960E94EA140D851E8561E0CE010D96EF
:1046A0000E949B17C8010E94FE0F80916001811536
:1046B000D1F0109260018BE090E0909326078093F8
:1046C0002507E091110180E1E89FF0011124E551F7
:1046D000FE4F0684F785E02D09958DE090E09093DC
:1046E00026078093250780913105811509F44ECF67
:1046F0001C821B821E821D821A82198262E173E073
:10470000CE0101960E94EA1409811A81AE014F5F21
:104710005F4F60E082E00E946707C8010E94FE0FC1
:104720001C821B821E821D821A82198261E073E044
:10473000CE0101960E94EA1409811A81AE014F5FF1
:104740005F4F61E082E00E946707C80178CFEF9277
:10475000FF921F93CF93DF9300D000D000D0CDB74E
:10476000DEB7182FE091AB06813039F18DEF810F64
:10477000843018F1EE3008F11C821B821E821D82EB
:104780001A82198269E970E0CE0101960E94EA144A
:10479000E980FA8061E0CE0101960E949B17C70173
:1047A0000F900F900F900F900F900F90DF91CF917F
:1047B0001F91FF90EF900C94FE0F85E0E89FF001B1
:1047C0001124E455F94F408351836283738314832A
:1047D0001C821B821E821D821A82198260E970E08F
:1047E000CE0101960E94EA14E980FA8060E0CE01D1
:1047F00001960E949B17C7010E94FE0F812F0E9405
:10480000DC1068E870E08EE096E00E944D11809127
:10481000AB068F5F8093AB060F900F900F900F90B9
:104820000F900F90DF91CF911F91FF90EF9008951F
:104830004F925F926F927F928F929F92AF92BF92B0
:10484000CF92DF92EF92FF920F931F93CF93DF935C
:10485000CDB7DEB766970FB6F894DEBF0FBECDBFFB
:10486000E0912507F0912607EC30F10508F0DEC154
:10487000ED59FA4B0C94073D0E94190B8CE090E027
:1048800066960FB6F894DEBF0FBECDBFDF91CF9115
:104890001F910F91FF90EF90DF90CF90BF90AF905E
:1048A0009F908F907F906F905F904F900C94CC056D
:1048B00083E395E00E94FA118FE995E00E94FA11D6
:1048C00089E695E00E94FA110E94190B19821A825A
:1048D0001B821C82AE014F5F5F4F60E081E00E944F
:1048E000820F811591F15B814C81298130E0ACE32D
:1048F000B0E00E9429442A81620F711D811D911D23
:104900009B01A8EEB3E00E942944609336017093A6
:1049100037018093380190933901252F30E00E94B0
:1049200029446B017C01242F30E0A4E6B0E00E9412
:104930002944C60ED71EE81EF91EC0923201D0923D
:104940003301E0923401F092350124E030E03093FD
:10495000D6052093D5058FE68093DF053093E105DA
:104960002093E0058093EA0580E090E089CF809174
:104970008401811509F449C0109284010E94380E07
:104980001C821B821E821D821A8219826EEA7AE0C4
:10499000CE0101960E94EA1409811A81CE01019686
:1049A0000E94D607C8010E94FE0F1C821B821E8235
:1049B0001D821A8219826FE97AE0CE0101960E9467
:1049C000EA1409811A81AE014F5F5F4F62E083E014
:1049D0000E946707C8010E94FE0F1C821B821E8274
:1049E0001D821A8219826BE87AE0CE0101960E943C
:1049F000EA1409811A81AE014F5F5F4F63E080E0E6
:104A00000E946707C8010E94FE0F80917201811504
:104A100009F40CC11092720185E090E031CF8091D1
:104A20008401811509F49DC01092840181E0809376
:104A300024070E94380E1C821B821E821D821A824D
:104A4000198265E87AE0CE0101960E94EA14098194
:104A50001A81CE0101960E94DA07C8010E94FE0F5A
:104A60001C821B821E821D821A82198260E77AE0F4
:104A7000CE0101960E94EA1409811A81AE014F5FAE
:104A80005F4F62E080E00E946707C8010E94FE0F4E
:104A90001C821B821E821D821A82198261E67AE0C4
:104AA000CE0101960E94EA1409811A81AE014F5F7E
:104AB0005F4F63E083E00E946707C8010E94FE0F1A
:104AC0001092D7051092D8051092D9051092DA05E8
:104AD0001092DB051092DC051092DD051092DE05C8
:104AE0001092E2051092E3051092E4051092E5059C
:104AF0001092E6051092E7051092E8051092E9057C
:104B00001092D6051092D5058BE68093DF051092A2
:104B1000E1051092E0058093EA056BED75E087ED05
:104B200095E00E94330680E20E94CF0D4091370548
:104B300050E066E672E089E595E00E94954040917C
:104B4000A30550E062E271E085EC95E00E9495409B
:104B500040916D0550E062E171E08FE895E00E94C0
:104B6000954080912407811581F10E94C005AB0119
:104B7000BC018091320190913301A0913401B09138
:104B800035010091270710912807209129073091BE
:104B90002A07800F911FA21FB31F84179507A6072E
:104BA000B70798F4109224071091DF05612F83E373
:104BB00095E00E944C0E612F8FE995E00E944C0E0B
:104BC000612F89E695E00E944C0E8091720181155B
:104BD00019F010927201C8CE80916901811529F0F7
:104BE0001092690188E090E04BCE8DE10E94210B8C
:104BF000892BC1F380916001811519F01092600139
:104C0000F1CF8EE10E94210B892B61F38091570136
:104C1000811519F010925701E5CF8FE10E94210B09
:104C2000892B01F380917B01811117C066960FB625
:104C3000F894DEBF0FBECDBFDF91CF911F910F91D2
:104C4000FF90EF90DF90CF90BF90AF909F908F90AC
:104C50007F906F905F904F90089510927B010E941B
:104C6000F0051C821B821E821D821A82198263E556
:104C70007AE0CE0101960E94EA1409811A8161E06E
:104C8000CE0101960E940911C8010E94FE0F0E94E8
:104C9000B02040917C0150917D0160917E01709126
:104CA0007F0181E00E94A72380917C0190917D018A
:104CB000A0917E01B0917F018093D7059093D80594
:104CC000A093D905B093DA058093E2059093E305AC
:104CD000A093E405B093E50521E030E03093D605DC
:104CE0002093D50588E68093DF053093E105209376
:104CF000E0058093EA0582E090E0C2CD80918401D6
:104D00008115C1F0109284011C821B821E821D82BB
:104D10001A82198265E47AE0CE0101960E94EA14B3
:104D200009811A8161E0CE0101960E940911C80132
:104D30000E94FE0F8091720181114BCF8DE10E9484
:104D4000210B892B09F0A2C085E090E09093D60555
:104D50008093D505805A9D4FFC0180818093DF05AB
:104D60008EE10E94210B892B09F093C085E090E031
:104D70009093E1058093E005805A9D4FFC0180816E
:104D80008093EA058FE10E94210B8C018091D5056B
:104D90009091D605059709F07FC01C821B821E8268
:104DA0001D821A8219826FE37AE0CE0101960E9479
:104DB000EA14E980FA80BE016F5F7F4F8FE995E0CA
:104DC0000E949805C7010E94FE0F8091E005909116
:104DD000E105059709F065C01C821B821E821D82B9
:104DE0001A82198269E37AE0CE0101960E94EA14E0
:104DF000E980FA80BE016F5F7F4F89E695E00E94EF
:104E00009805C7010E94FE0F8091D5059091D605A7
:104E10002091E0053091E105822B932B1C821B82AF
:104E20001E821D821A821982892B09F03FC001154A
:104E3000110509F43BC06EE27AE0CE0101960E94B2
:104E4000EA1409811A8161E0CE0101960E940911DC
:104E5000C8010E94FE0F83E395E00E94FA11809141
:104E60006901811110926901809160018111109294
:104E7000600180917B01811110927B01809157012B
:104E800081111092570181E090E0FACC80E090E02F
:104E90005DCF80E090E06CCF8FE995E00E94FA1141
:104EA00094CF89E695E00E94FA11AECF68E27AE0ED
:104EB000CE0101960E94EA14E980FA80BE016F5F7C
:104EC0007F4F83E395E00E949805C7010E94FE0F83
:104ED00082E00E94400E1C821B821E821D821A826A
:104EE000198269E17AE0CE0101960E94EA14E98014
:104EF000FA80AE014F5F5F4F62E080E00E9467077B
:104F0000C7010E94FE0FE3E1012B21F48DE48093A1
:104F10006607E2E18091E0059091E105059741F493
:104F2000AE2FB0E0A55DB84F80E598968C93E15028
:104F30008091D5059091D605059729F4F0E0E55DBF
:104F4000F84F8CE480A780913205811509F46ECE6C
:104F500024E630E040E550E060ED77E083E06696DF
:104F60000FB6F894DEBF0FBECDBFDF91CF911F917A
:104F70000F91FF90EF90DF90CF90BF90AF909F90F8
:104F80008F907F906F905F904F900C94A80C8091C1
:104F900084018115C9F0109284010E94380E1C8290
:104FA0001B821E821D821A82198263E17AE0CE0181
:104FB00001960E94EA1409811A81CE0101960E948D
:104FC000DE07C8010E94FE0F8091D5059091D6059D
:104FD000019709F073C080916901811509F46EC0D1
:104FE0001092690140916A0150916B0160916C01CE
:104FF00070916D014093DB055093DC056093DD05F6
:105000007093DE0582E090E09093D6058093D505FD
:105010008BE68093DF0583E00E94A72361E08FE0A9
:105020000E948B0A6BED75E087ED95E00E943306D8
:1050300080E20E94CF0D6091DF058FE995E00E942C
:105040004C0E8AE3809341014AE351E062E086E03E
:105050000E9452071C821B821E821D821A821982A4
:1050600067E579E0CE0101960E94EA1409811A8170
:10507000AE014F5F5F4F62E080E00E946707C801AA
:105080000E94FE0F1C821B821E821D821A821982C0
:105090006CE479E0CE0101960E94EA1409811A813C
:1050A00060E0CE0101960E940911C8010E94FE0F26
:1050B0006AE371E08EE096E00E9441118091E00584
:1050C0009091E105019709F073C08091600181150D
:1050D00009F46EC01092600140916101509162012B
:1050E00060916301709164014093E6055093E70578
:1050F0006093E8057093E90582E090E09093E10504
:105100008093E0058BE68093EA0584E00E94A72364
:1051100061E082E10E948B0A66EE75E082EE95E026
:105120000E94330680E20E94CF0D6091EA0589E675
:1051300095E00E944C0E8AE3809341014AE351E0DE
:1051400063E086E00E9452071C821B821E821D8241
:105150001A82198268E679E0CE0101960E94EA146B
:1051600009811A81AE014F5F5F4F63E080E00E94CA
:105170006707C8010E94FE0F1C821B821E821D82CF
:105180001A8219826CE579E0CE0101960E94EA1438
:1051900009811A8160E0CE0101960E940911C801BF
:1051A0000E94FE0F6AE371E08EE096E00E944111DA
:1051B0008091D5059091D605029709F048C080915D
:1051C000E0059091E105029709F041C01C821B8225
:1051D0001E821D821A8219826EE679E0CE01019646
:1051E0000E94EA1409811A81CE0101960E94DA0711
:1051F000C8010E94FE0F8091E6059091E705A091FD
:10520000E805B091E9054091DB055091DC0560911E
:10521000DD057091DE05481759076A077B0790F492
:1052200066EE75E082EE95E00E94330680E20E9411
:10523000CF0D6091DF0583E395E00E944C0E84E082
:1052400090E01ECB6BED75E087ED95E0EDCF109112
:105250003105111509F443C00E94C00569837A83A2
:105260008B839C83BE016F5F7F4F82EE95E00E942F
:10527000330680E20E94CF0D8091E0059091E10518
:10528000019799F41091EA05612F89E695E00E9453
:105290004C0E612F83E395E00E944C0E4AE351E0EF
:1052A00063E086E00E94520710E08091D50590915E
:1052B000D6050197A1F40091DF05602F8FE995E0F5
:1052C0000E944C0E111559F0602F83E395E00E9467
:1052D0004C0E4AE351E062E086E00E945207809162
:1052E00057018115D9F1109257011C821B821E8231
:1052F0001D821A8219826BE07AE0CE0101960E942B
:10530000EA1409811A8161E0CE0101960E94091117
:10531000C8010E94FE0F40915801509159016091BF
:105320005A0170915B0182E00E94A72368E571E059
:1053300082EE95E00E94330680E20E94CF0D8AE360
:10534000809341014AE351E061E086E00E94520708
:1053500048EF52E061E080E00E94520780917201C4
:10536000811509F463CC109272011C821B821E828B
:105370001D821A8219826CEF79E0CE0101960E949B
:10538000EA1409811A8161E0CE0101960E94091197
:10539000C8010E94FE0F4091730150917401609109
:1053A00075017091760186E00E94A7231C821B8202
:1053B0001E821D821A8219826FEE79E0CE0101965B
:1053C0000E94EA1409811A81CE0101960E94DA072F
:1053D000C8010E94FE0F22E030E03093D6052093F2
:1053E000D5058BE68093DF053093E1052093E0053A
:1053F0008093EA0524CF809184018115D1F0109229
:1054000084011C821B821E821D821A82198260EE18
:1054100079E0CE0101960E94EA1409811A8161E0C7
:10542000CE0101960E940911C8010E94FE0F0E9440
:10543000E51280917201811509F4F8CB1092720186
:105440000E94190B91CA80918401811509F49DC0B5
:105450001092840181E0809324071092D705109266
:10546000D8051092D9051092DA05809136019091F5
:105470003701A0913801B09139018093DB059093F9
:10548000DC05A093DD05B093DE051092D6051092E1
:10549000D5058BE68093DF051092E1051092E005BB
:1054A0008093EA056BED75E087ED95E00E94330689
:1054B00080E20E94CF0D109244010E94380E1C829F
:1054C0001B821E821D821A82198268ED79E0CE014C
:1054D00001960E94EA1409811A81CE0101960E9468
:1054E000DA07C8010E94FE0F4AE351E062E08AE059
:1054F0000E9452071C821B821E821D821A82198200
:1055000069EC79E0CE0101960E94EA1409811A81C2
:10551000AE014F5F5F4F62E080E00E946707C80105
:105520000E94FE0F1C821B821E821D821A8219821B
:1055300064EB79E0CE0101960E94EA1409811A8198
:10554000AE014F5F5F4F63E080E00E946707C801D4
:105550000E94FE0F87E0E9E0F3E0DE011196019082
:105560000D928A95E1F787E0FE013196AFE8B5E04C
:1055700001900D928A95E1F787E0FE013196A9E549
:10558000B5E001900D928A95E1F78091240781158D
:1055900009F10E94C005AB01BC01809132019091DC
:1055A0003301A0913401B09135010091270710918A
:1055B00028072091290730912A07800F911FA21FE9
:1055C000B31F481759076A077B0720F0109224077A
:1055D0000E94021280916901811541F110926901C6
:1055E0008091360190913701A0913801B091390135
:1055F0008133F5E79F07A105B10508F459C0805331
:105600009547A109B1098093360190933701A09382
:105610003801B093390181E080938401109227070B
:10562000109228071092290710922A078091600192
:10563000811561F1109260018091360190913701DE
:10564000A0913801B0913901813922EB920728E00D
:10565000A207B10520F080E992EBA8E0B0E0805D00
:105660009A48AF4FBF4F8093360190933701A09374
:105670003801B093390181E08093840110922707AB
:10568000109228071092290710922A0780917B0117
:10569000811531F010927B0186E090E00E94CC05EC
:1056A00080917201811509F4C1CA10927201EBCB8D
:1056B00080E395E7A0E0B0E0A6CF8091840181155A
:1056C00009F45BC00E94F005109284011C821B82C9
:1056D0001E821D821A82198264EA79E0CE01019647
:1056E0000E94EA1409811A8161E0CE0101960E94AC
:1056F0000911C8010E94FE0F0E94380E1C821B82F5
:105700001E821D821A8219826CE979E0CE0101960F
:105710000E94EA1409811A81CE0101960E94DE07D7
:10572000C8010E94FE0F81E090E09093E105809314
:10573000E00588E68093EA050E94C005462F572FB2
:10574000BC014093E2055093E3056093E405709338
:10575000E5058091DB059091DC05A091DD05B09118
:10576000DE05840F951FA61FB71F8093E605909353
:10577000E705A093E805B093E905809172018115D2
:10578000D9F0109272011C821B821E821D821A8225
:1057900019826CE879E0CE0101960E94EA14098131
:1057A0001A8161E0CE0101960E940911C8010E9490
:1057B000FE0F0E94C50C67CB80913105811509F45D
:1057C00035CA0E94C005462F572FBC014093E20501
:1057D0005093E3056093E4057093E5058091E60539
:1057E0009091E705A091E805B091E9058417950728
:1057F000A607B707C0F066960FB6F894DEBF0FBED7
:10580000CDBFDF91CF911F910F91FF90EF90DF906F
:10581000CF90BF90AF909F908F907F906F905F9050
:105820004F900C9402121C821B821E821D821A82CF
:1058300019826CE779E0CE0101960E94EA14098191
:105840001A8161E0CE0101960E940911C8010E94EF
:10585000FE0F81E090E00E94CC0520E030E040EDBA
:1058600057E068EC70E081E07ACBC0903601D090D0
:105870003701E0903801F090390160913201709168
:105880003301809134019091350128EE822E23E07E
:10589000922EA12CB12CA50194010E94C63C290195
:1058A0003A016B8B7C8B8D8B9E8BC701B60120E6FA
:1058B0003AEE40E050E00E94C63C2983C701B601A1
:1058C000A50194010E94C63C6CE3862E912CA12C6C
:1058D000B12CCA01B901A50194010E94C63C6A839A
:1058E000C301B201A50194010E94C63C6B836B8980
:1058F0007C898D899E8924E630E040E050E00E945A
:10590000C63C2C83AE014F5F5F4F60E081E00E9498
:10591000CD17811509F48AC90E94C50C188A1F8603
:105920001A8A198A1E861D8660E073E0CE010D96E4
:105930000E9446100D851E8561E0CE010D960E94E5
:105940000911C80166960FB6F894DEBF0FBECDBF31
:10595000DF91CF911F910F91FF90EF90DF90CF904B
:10596000BF90AF909F908F907F906F905F904F907F
:105970000C94FE0F0F931F93CF93DF9300D000D0B2
:1059800000D0CDB7DEB780912507909126078430EF
:10599000910509F497C2B0F48130910509F4AFC0C4
:1059A0008230910509F472C1892B09F450C00F901F
:1059B0000F900F900F900F900F90DF91CF911F914C
:1059C0000F9108958930910581F00A9781F78CE055
:1059D00090E00F900F900F900F900F900F90DF912D
:1059E000CF911F910F910C94CC0583E395E00E9419
:1059F000FA118FE995E00E94FA1189E695E00E947C
:105A0000FA110E94190B4091370550E066E672E0EA
:105A100089E595E00E94954040916D0550E062E176
:105A200071E08FE895E00E94954024E030E03093EB
:105A3000D6052093D5058FE68093DF053093E105E9
:105A40002093E0058093EA0580E090E0C2CF80914A
:105A50008401811509F449C0109284010E94380E16
:105A60001C821B821E821D821A82198261E479E0E7
:105A7000CE0101960E94EA1409811A81CE01019695
:105A80000E94D607C8010E94FE0F1C821B821E8244
:105A90001D821A82198262E379E0CE0101960E948A
:105AA000EA1409811A81AE014F5F5F4F62E083E023
:105AB0000E946707C8010E94FE0F1C821B821E8283
:105AC0001D821A8219826EE179E0CE0101960E9450
:105AD000EA1409811A81AE014F5F5F4F63E080E0F5
