:100000000C946D020C9495020C9495020C9495023C
:100010000C9495020C9495020C9495020C94950204
:100020000C9495020C94DA240C9455280C942E26EA
:100030000C9495020C9495020C9495020C949502E4
:100040000C9495020C9479230C9495020C949502CF
:100050000C9495020C9495020C9495020C943A25FC
:100060000C9495020C9482250C94AF250C94950267
:100070000C9495020C9495020C9495020C949502A4
:100080000C94D5250C9495020C9495020C94950231
:100090000C94BD230C9495020C9495020C9495023B
:1000A0000C9495020C9495020C94950220756C6F3B
:1000B0007A656E004C6F6720747970230012091204
:1000C000091209120009120912091209000000128E
:1000D0000912000000000009120900000000001EC3
:1000E0000F1E00000000000F1E0F000000181C1E55
:1000F0001F1E1C18004368796261204469737032C6
:100100000043687962612044697370310044697307
:10011000702E696E6974005374617274200003124A
:10012000010002EF02014041233680000101020379
:10013000010403090441726475696E6F204C4C43DD
:100140000041726475696E6F204C656F6E617264F8
:100150006F00080B00020202000009040000010207
:1001600002000005240010010524010101042402FD
:10017000060524060001070581031000400904015B
:1001800000020A0000000705020240000007058384
:1001900002400000000000002300260029002C007F
:1001A0002F000000000200090F0000030401000CF2
:1001B000000000000000000000000000000000003F
:1001C0000000000000250028002B002E0031000058
:1001D000000000240027002A002D00300004040441
:1001E00004040304050202020204030202020206DE
:1001F00006060606060404020202040404080201BC
:10020000104080401020408040800802040180405F
:100210002010020110801020404020537973746533
:100220006D003E20004C3E53797374656D20503E46
:100230004D6F64756C00556C6F7A697400556C6F06
:100240007A656E6F00567970005A61700050756C57
:100250007A79004D6F64756C002D2D3E002720616A
:100260006B7469766E69004D6F64756C202700525F
:100270003E4E61737461762064523E4D656E75002A
:1002800020484F44494E5920004C6F6720707269D6
:1002900070726176656E004C65766120647261688B
:1002A00061004C6576610050726176612064726114
:1002B0006861005072617661002020003D3D3D2064
:1002C0004B6F6E6563207A617A6E616D75203D3D7E
:1002D0003D0A004361733A20202020202020004462
:1002E0006174756D3A2020202020002D2D2D2D2D9C
:1002F0002D2D2D2D2D2D2D2D2D2D2D2D2D2D2D2D2E
:10030000005679736C6564656B3A20204E45524FF8
:100310005A484F444E4500526F7A64696C3A202027
:10032000202000566974657A3A20202020205052FF
:1003300041564120445241484100526F7A64696CF1
:100340003A2020202000566974657A3A2020202027
:10035000204C45564120445241484100507261763C
:1003600079206361733A20004C657679206361736C
:100370003A2020002D2D2D20536F7568726E207A43
:1003800061766F6475202D2D2D0052455345540024
:1003900043494C0043494C2050524156412044525D
:1003A0004148410043494C204C455641204452416C
:1003B0004841005354415254000A3D3D3D205A618A
:1003C0007A6E616D207A61766F6475203D3D3D00E7
:1003D0004F64706F63657420736B6F6E63696C003C
:1003E0005A727573656E69206F64706F63747500FF
:1003F0004F64706F636574005A6168616A656E204E
:100400006F64706F63657400533E5A6168616A6916
:1004100074004F44504F434554005A61646F7374E5
:10042000206F207679706973005A61766F64207A44
:10043000727573656E004D6572656E69207A7275AE
:1004400073656E6F005A61766F640043485942418C
:100450002053454E5A4F52553A00202D452D20002D
:100460004B6F6E63616B79204F4B00202D452D2023
:1004700000202D452D20004348594241206B6F6ECE
:1004800063616B75005A61766F64207A6168616A96
:10049000656E00533E5374617274202020523E5AA0
:1004A000706574005A41564F4400523E46756E6B5B
:1004B00063652064523E4D656E750053544F504B3A
:1004C000592048550050756C7A2000454550524FD0
:1004D0004D20706C6E612100192F11241FBECFEFCB
:1004E000DAE0DEBFCDBF12E0A0E0B1E0EAE0FAE67C
:1004F00002C005900D92A43BB107D9F726E0A4EB0A
:10050000B2E001C01D92A437B207E1F712E0CDE6D8
:10051000D2E004C02197FE010E942230CC36D107E0
:10052000C9F70E94C2280C94D7340C940000CF93D2
:10053000DF93FC01DB015481369614968C9114975D
:100540008150990B40E0541303C0DF91CF9108957F
:1005500014962D913C9115978217930770F42D9165
:100560003C9111972115310541F0280F391FE90100
:10057000288121934F5F0197E6CF20E0FACF2FB774
:10058000F8946091450670914606809147069091D7
:1005900048062FBF0895CF93DF93D82FC92F0E940D
:1005A000BF0260934C0670934D0680934E06909365
:1005B0004F06D0934A06C0934B0681E08093850195
:1005C0001092490610927C011092730110926A01F8
:1005D00010926101DF91CF9108958FB7F894109236
:1005E00044061092430610923F069DE090936001EE
:1005F00010923E068FBF0895E0915C01A0915B01CF
:10060000F0E0A33050F1E053F84FB0E0AA5BBD4FEB
:100610002C9180915A01280F3327331F2E0F3F1F33
:10062000CF019695879596958795280F391FCF010D
:1006300060E971E00E94CD2F260F371FCF0164E6DD
:1006400070E00E94CD2FC901861B970B67E070E018
:100650000E94CD2F809359010895E153F84FD5CFD3
:100660004F925F926F927F92AF92BF92CF92DF9242
:10067000EF92FF920F931F93CF93DF93FB01C08004
:10068000D180E280F380FC0180819181A281B381DD
:10069000C81AD90AEA0AFB0AC701B60128EE33E0F4
:1006A00040E050E00E94E12F8B01CDE2D6E07D8357
:1006B0006C838CE3482E512C612C712CCA01B9013A
:1006C000A30192010E94E12FB62E6B83CA01B901EA
:1006D000A30192010E94E12FA62E6A83C701B601F1
:1006E00020E83EEE46E350E00E94E12FF901398315
:1006F0002883C90168EE73E00E94CD2F6E8394E6D3
:10070000E92EF12CCF01B7010E94CD2FCB012AE0B9
:1007100030E0B9010E94CD2F8F83CF01B9010E9433
:10072000CD2F482FCB01B9010E94CD2F8887498753
:100730004AE08A2D642F0E94C12F8A879B878B2DC8
:100740000E94C12F8C879D87C801B7010E94CD2FC1
:100750006E87C801B9010E94CD2F482FCB01B90186
:100760000E94CD2F8F87488BDF91CF911F910F91E2
:10077000FF90EF90DF90CF90BF90AF907F906F9001
:100780005F904F9008958091450690914606A09104
:100790004706B09148068093CD059093CE05A0936F
:1007A000CF05B093D00580918400909185009093FF
:1007B000CC058093CB0581E08093CA050895809194
:1007C000450690914606A0914706B0914806809351
:1007D000C6059093C705A093C805B093C90580913D
:1007E0008400909185009093C5058093C40581E0B5
:1007F0008093C30508958091450690914606A09187
:100800004706B09148068093BF059093C005A0931A
:10081000C105B093C20580918400909185009093AA
:10082000BE058093BD0581E08093BC05089580914D
:10083000450690914606A0914706B09148068093E0
:10084000B8059093B905A093BA05B093BB05809104
:100850008400909185009093B7058093B60581E060
:100860008093B5050895FA0190E070E07195619567
:100870007109607177272191211519F08031910557
:1008800009F40895DC01A60FB71FA05BB94F2C93A4
:100890000196F1CFCF93DF93DA0190E1981B149684
:1008A0004C911497941708F4492FE62FF0E0F19536
:1008B000E195F109E071FF27E80FF11DE05BF94FC9
:1008C00080E090E0841718F0DF91CF91089514969E
:1008D0002D913C9115978217930768F42D913C91C7
:1008E00011972115310539F0280F391FE9012881A9
:1008F00021930196E7CF20E0FBCF0F931F93CF9377
:10090000DF938C01C42F062E000C770B48E050E0DB
:1009100080E596E00E944B336C2FCC0F770B48E0BC
:1009200050E088E596E00E944B33D80114968D91F3
:100930009C91C0E1D0E0C81BD90BD695C795C031BA
:1009400028F4A80160E08C2F0E944A04DD27FE01F4
:10095000E15BF94F80E28083D8011496ED91FC9120
:10096000E05BF94FEC0FFD1F8083DF91CF911F916A
:100970000F91089580E090E00895089508950895F6
:10098000DC01ED91FC910684F785E02D40E00994AF
:10099000DC01ED91FC910684F785E02D41E009959D
:1009A00081E090E0089508950895DC0181E001C0A0
:1009B000880F6A95EAF71C968C931C971A965C939D
:1009C0004E931997ED91FC9111970484F585E02DD4
:1009D00060E0CD0109948091900490919104891B6D
:1009E000990B089590919104809190042FEF3FEF1F
:1009F000981748F4E92FF0E0E45BFB4F208130E0EA
:100A00009F5F90939104C9010895E09191048091B2
:100A10009004E81730F4F0E0E45BFB4F808190E055
:100A200008958FEF9FEF0895089520914804260FB1
:100A30003327331F21323105ECF420914B04FC01A4
:100A400080E090E0243069F082E00895A0914804AD
:100A50002191AC01485D5B4FA40FB52FB11D2C93C4
:100A60000196861798F380914804680F60934804B4
:100A700080E0089581E00895CF93DF930F92CDB782
:100A8000DEB7FC016983809195048115F1F08091B6
:100A90009204803250F081E090E09383828380E082
:100AA00090E00F90DF91CF91089580919304E82F0B
:100AB000F0E0E459FB4F998190838F5F809393041A
:100AC0008093920481E090E0ECCF61E0CE0101964A
:100AD0000E941505F7CFCF92DF92EF92FF920F930E
:100AE0001F93CF93DF937C01CB018A012091950462
:100AF0002115D9F0EB016B01C40ED51ECC15DD0517
:100B000051F4C801DF91CF911F910F91FF90EF90A9
:100B1000DF90CF9008956991D701ED91FC910190FC
:100B2000F081E02DC7010995E9CF642F0E941505DA
:100B3000E8CF1F93CF93DF93DC0152968D919C9168
:100B40005397009751F421E030E013963C932E9395
:100B50001297DF91CF911F9108951D96ED91FC9111
:100B60001E971C962C911C97322F30957FB7549668
:100B70004C915497142F127041FD21C0F89440817C
:100B800043234083EC012197F1F748E0508160FF57
:100B90001BC0522B5083EC012197F1F766954A95C3
:100BA000A9F78081111591F0832380837FBF52962E
:100BB0008D919C910197F1F781E090E0CACF60950B
:100BC000F8944081422BDDCF5323E4CF822BEDCF2D
:100BD0008FEF9FEF089580E090E0089508953FB76C
:100BE000F8948091D1039091D203A091D303B09156
:100BF000D40326B5A89B05C02F3F19F00196A11D6F
:100C0000B11D3FBFBA2FA92F982F8827BC01CD0156
:100C1000620F711D811D911D42E0660F771F881FB5
:100C2000991F4A95D1F708954F925F926F927F92E4
:100C30008F929F92AF92BF92CF92DF92EF92FF92EC
:100C40000F931F93CF93DF938B01D82FC92F0E944F
:100C5000EF05262F822E972E5C016801ED2EFC2ECB
:100C600005C0C114D104E104F10409F10E94EF05AB
:100C70002B013C01481859086A087B088601DE2DC3
:100C8000CF2D31E0C31AD108E108F108282D792DC4
:100C9000C50138EE830E33E0931EA11CB11C38EE63
:100CA000431633E0530661047104D8F6D3CFDF91C5
:100CB000CF911F910F91FF90EF90DF90CF90BF9059
:100CC000AF909F908F907F906F905F904F9008951E
:100CD0000F931F93CF93DF93EC01423018F08C8178
:100CE00088608C834F836887211529F0413019F47F
:100CF0008C8184608C8364E670E080E090E00E94E8
:100D000014066C8164FD5CC0E881F9810684F78576
:100D1000E02D42E063E0CE0109958BE496E4019773
:100D2000F1F7E881F9810684F785E02D42E063E080
:100D3000CE01099503E512E0C8010197F1F7E881BA
:100D4000F9810684F785E02D42E063E0CE01099544
:100D5000C8010197F1F7E881F9810684F785E02D54
:100D600042E062E0CE010995C8010197F1F76C817C
:100D70006062CE010E94C0048BEE90E00197F1F713
:100D800084E08D836CE0CE010E94C00461E0CE015E
:100D90000E94C0048BE39FE10197F1F782E08E830C
:100DA00066E0CE010E94C004E881F9810484F585E3
:100DB000E02D6FEFCE01DF91CF911F910F9109943C
:100DC0006062CE010E94C0048BE496E40197F1F7C3
:100DD0006C816062CE010E94C00403E512E0C8018C
:100DE0000197F1F76C816062CE010E94C004BCCF14
:100DF000CF93DF9390E0FC01E450FE4F24918352A7
:100E00009E4FFC0184918115D1F090E0880F991FCD
:100E1000FC01E153FE4FA591B591FC01EF53FE4F4C
:100E2000C591D5919FB7623069F4F8943C91822FB7
:100E3000809583238C938881822B88839FBFDF9149
:100E4000CF910895F8948C91822B8C93F7CF815099
:100E50008F30C0F5E82FF0E0E752FB4C0C942230C5
:100E6000809180008F77809380000895809180002A
:100E70008F7DF9CF80918000877FF5CF84B58F7704
:100E800084BD089584B58F7DFBCF809190008F77CE
:100E9000809390000895809190008F7DF9CF80918C
:100EA0009000877FF5CF8091C0008F778093C0003E
:100EB00008958091C0008F7DF9CF8091C200877F17
:100EC0008093C20008951F93CF93DF93162F282F8E
:100ED00030E0F901EE55FE4F8491F901E450FE4FE8
:100EE000D491F901E352FE4FC491C115A1F08111D3
:100EF0000E942707EC2FF0E0EE0FFF1FEF53FE4F8D
:100F0000A591B5919FB7F8948C91111108C0D09517
:100F1000D823DC939FBFDF91CF911F9108958D2B34
:100F20008C93F8CFDF92EF92FF920F931F93CF93A2
:100F3000DF938C01D62ED0E0F8018481D81740F0E1
:100F4000DF91CF911F910F91FF90EF90DF90089567
:100F50007801ED0EF11CF701C68186898C1302C061
:100F6000D114E9F19EE0C534C9F07CF4C03219F027
:100F700024F4C11108C090E011C080ED8C0F91EDF8
:100F80009C0F8A3058F09FE009C09CE0C03531F0DA
:100F90009DE0C53519F09BE0CC34A9F7F801A0819C
:100FA000B18162818381680F6D0F9295907F690F87
:100FB000ED91FC9111970190F081E02DCD01099503
:100FC000D1110AC0F8018581811531F061E0C0328C
:100FD00009F460E00E946307F7018681868BDF5F7A
:100FE000ABCF10924B0481E080934A0410924904E5
:100FF00061E082E00E94630761E083E00E94630792
:10100000E9EBF0E080818E7F808380818D7F80831B
:1010100088E48093B80085E48093BC000895CF9362
:10102000DF9391E0909322048115B9F0C091B8004C
:10103000D091BA008091BC008A7B8093BC0060E0B4
:1010400082E00E94630760E083E00E9463070E94E1
:10105000F107D093BA00C093B800DF91CF91089503
:10106000CF93DF93282F30E0F901EE55FE4F8491A6
:10107000F901E450FE4FD491F901E352FE4FC491BF
:10108000C11581F081110E942707EC2FF0E0EE0FCF
:10109000FF1FEC56FE4FA591B591EC91ED2381E039
:1010A000E11101C080E090E0DF91CF910895FC0153
:1010B0008485958597FD0BC09FB7F89482E0809357
:1010C000E9008091F2009FBF90E0019608959FB7DC
:1010D000F89482E08093E9008091F2009FBF90E055
:1010E000089583E08093E9008091F200811519F062
:1010F0008AE38093E8000895CF93DF930F92CDB7F2
:10110000DEB7DC016983ED91FC910280F381E02D73
:1011100041E050E0BE016F5F7F4F09950F90DF9176
:10112000CF910895FC01A48DA80FB92FB11DA35A2A
:10113000BF4F2C91848D90E001968F739927848FF7
:10114000A689B7892C93A089B1898C9182748C93DC
:10115000938D848D981306C00288F389E02D8081D9
:101160008F7D80830895FC01818D228D90E0805CCD
:101170009F4F821B91098F739927089581E393E014
:101180000E94B3089C0181E0232B09F480E00895BC
:1011900080E090E0892B29F00E94BE0881110C9418
:1011A00000000895FC01918D828D981731F0828D99
:1011B000E80FF11D858D90E008958FEF9FEF089562
:1011C000FC01918D828D981761F0A28DAE0FBF2F1B
:1011D000B11D5D968C91928D9F5F9F73928F90E071
:1011E00008958FEF9FEF0895FC01538D448D842F58
:1011F00090E0252F30E0821B930B541710F0CF9610
:10120000089501970895CF93DF93EC01888D8111A4
:101210000FC0DF91CF9108950FB607FC0DC08C91E0
:1012200085FF0AC0808185FF07C0CE010E94920819
:10123000AA89BB89E889F9898C9185FDEDCF8081E8
:1012400086FFEACFE6CFEF92FF920F931F93CF93E3
:10125000DF93EC01F62E81E0888F9B8D8C8D9813A7
:1012600019C0E889F989808185FF14C09FB7F89477
:10127000EE89FF896083E889F9898081827480839F
:101280009FBF81E090E0DF91CF911F910F91FF9080
:10129000EF9008950B8D10E00F5F1F4F0F73112714
:1012A000E02E8C8D8E1579F0EB8DEC0FFD2FF11D5E
:1012B000E35AFF4FF0829FB7F8940B8FEA89FB89BE
:1012C00080818062DCCF0FB607FCEBCFE889F9891B
:1012D000808185FFE6CFCE010E949208E2CFCF92B7
:1012E000DF92EF92FF920F931F93CF93DF937C01D6
:1012F0006A0100E010E00C151D0551F4C801DF91F2
:10130000CF911F910F91FF90EF90DF90CF900895B4
:10131000EB01D701ED91FC910190F081E02D6991F5
:10132000C7010995892B51F30F5F1F4FBE01E3CF12
:10133000615028F4289884E6809329030895FC01DD
:101340008091F1008193CF01F3CF40912703509119
:101350002803209125033091260342175307BCF43C
:101360009091E80095709115D9F39091E80092FD65
:1013700019C08093F1008091270390912803019672
:101380008F739927892B19F48EEF8093E800809151
:1013900027039091280301969093280380932703B5
:1013A00081E0089580E00895EF92FF920F931F93DC
:1013B000CF93DF93F82E192FE62E042F81E0860FAE
:1013C000880F0E94A50983E00E94A509CF2DD12F87
:1013D000EC0EFD2EF11CCE15DF0511F481E00EC0E0
:1013E000011599F0FE0184910E94A509182F80E053
:1013F0000E94A509812321968111EDCFDF91CF9124
:101400001F910F91FF90EF9008958881EDCF80910B
:10141000BD0281110DC082E08093B90284E0809307
:10142000BA021092BC021092BB0281E08093BD020E
:1014300089EB92E008952FB7F89483E08093E90058
:101440009091E800892F807295FF04C09091F2007E
:1014500080E4891B2FBF08950E941B0A90E0089525
:101460008F929F92AF92BF92CF92DF92EF92FF92B4
:101470000F931F93CF93DF937C018B01EA0180913F
:101480000C01811571F18091D003811551F180918A
:10149000CF0380FF05C08091E00082608093E00070
:1014A0006E01B12C8AEFA82E93E0892E2AE3922EAA
:1014B0000CC00E941B0A811129C0AA9491F061E01E
:1014C00070E080E090E00E941406C114D10489F716
:1014D000B110EFCF5D9884E68093CE031C161D06F5
:1014E0003CF081E090E0F70193838283C0E0D0E09C
:1014F000CE01DF91CF911F910F91FF90EF90DF9080
:10150000CF90BF90AF909F908F900895C816D10450
:101510000CF48C2D9FB7F8948092E9002091E8009C
:1015200025FD02C09FBFD1CF282F30E0C81AD108B7
:10153000A801815040F4020F131FB11451F0909292
:10154000E800B12CEFCFFA0141914093F100AF01D7
:10155000F0CF8091E80085FDF4CF9092E800BB24A5
:10156000B394C114D104F1F2ECCF9091D003911156
:1015700003C08FEF9FEF08952FB7F89492E09093F8
:10158000E9009091F200492F50E0911102C0452BE3
:1015900031F0289884E6809329038091F10091111D
:1015A00002C02FBFE6CF9091F200911103C09BE6DD
:1015B0009093E8002FBF90E00895CF93DF93EC0164
:1015C0008C859D8597FF04C00E94B50A9D878C87F6
:1015D000DF91CF910895FC018485958597FD0C944A
:1015E000B50A2FEF3FEF3587248708958F929F929A
:1015F000AF92BF92CF92DF92EF92FF920F931F9321
:10160000CF93DF93D0919204C1E0D13208F09EC015
:10161000F09094040E94EF054B015C01C0914B04D3
:10162000C1116EC082E080934B0481E080934A0434
:101630008FEF8093FE0310922004D0931F042CE6BA
:1016400034E0AFEFB3E0F9018E2F821B8D1708F461
:1016500091C01092210480912104FF0CF82AF0928D
:10166000210480914904813009F087C01092490417
:101670000E94EF056B017C01809121048093BB00E7
:101680008091240490912504A0912604B091270410
:10169000892B8A2B8B2BA1F00E94EF0580902404CC
:1016A00090902504A0902604B09027046C197D0921
:1016B0008E099F0986169706A806B90608F441C048
:1016C0008091BC0083FDD8CF85EC8093BC000E9444
:1016D000EF056B017C0180914B04823009F44FC00F
:1016E0008091FE038F3F91F18091FE03C2E0803232
:1016F00069F18091FE03C3E0803341F1C4E026C06C
:101700008091240490912504A0912604B09127048F
:10171000892B8A2B8B2B09F481CF0E94EF05009136
:10172000240410912504209126043091270468197F
:1017300079098A099B09061717072807390708F04E
:101740006DCF809123040E940F08C5E0109293048E
:1017500010929204109295048C2FDF91CF911F91DB
:101760000F91FF90EF90DF90CF90BF90AF909F9040
:101770008F90089581918D9367CF85EEA6CF80914C
:10178000240490912504A0912604B0912704892B6C
:101790008A2B8B2B09F49FCF0E94EF0580902404A5
:1017A00090902504A0902604B09027046C197D0920
:1017B0008E099F0986169706A806B90608F08BCFF2
:1017C000C0CF93B19093DB03EBE6F0E09081982BD0
:1017D0009083E8E6F0E08081816080830895CF9374
:1017E000C0910C016AE070E080E090E00E94140675
:1017F00081E0C11101C080E0CF910895FC01AC01EE
:10180000425F5F4F8FEF9FEF2191922728E0BC014D
:10181000880F991F77FF04C031E2832730E19327B7
:101820002A95A9F74E175F0779F70895809100016F
:101830008C3069F4EEE1F1E0E4918FEF80930001E8
:10184000E330D1F040F4E11571F0E13079F060E07F
:101850008CE00C946307E430D1F7809172008F7BA9
:1018600080937200F4CF10926E00F1CF80916F00E0
:101870008D7F80936F00EBCF809171008D7F80937F
:101880007100E5CF80932C0670932B0660932A0697
:101890005093290640932806309327062093260666
:1018A0000E94BF0260932206709323068093240651
:1018B00090932506109221060C94160C20E030E03F
:1018C00040E550E064EC79E081E00C94420C20911A
:1018D0002D0630912E062115310509F458C090913E
:1018E0003306911509F44DC0905D90934401909199
:1018F0003406911509F447C0905D9093450190918D
:101900003506911509F441C0905D90934601909180
:101910003606905D4AE390934701409348019091C9
:101920003706911102C0232B11F080E3890F8093B9
:10193000490180913806805D80934A0180913B0681
:1019400090E2853008F49AE390934B019091390628
:10195000905D90934C0190913A06905D90934D016B
:101960009EE290934E01805D80934F0180913C06F2
:10197000805D8093500180913D06805D8093510190
:101980000895982FB2CF982FB8CF982FBECF8093BD
:1019900044018093450180934601982F482FBBCF87
:1019A00040E150E060E270E080E596E00E944B3359
:1019B00040E150E060E270E080E696E00C944B334A
:1019C00090E09195819591098071992740E150E0CF
:1019D00060E270E0805B994F0C944B33CF93DF93C0
:1019E0009C010696F901C481C20FD32FD11D6F71DE
:1019F000A62F660FBB0BAD5BBE4F2C173D0719F42E
:101A0000DF91CF910895EDA1EA3331F44C91FC01BF
:101A10004193CF012197F1CFEF710E2E000CFF0BF8
:101A2000ED5BFE4F4081F3CF0F931F93CF93DF9376
:101A30008C01EB01FE016491611531F0C8010E9437
:101A40007C082196892BB1F7DF91CF911F910F91DF
:101A50000895FC01448155816081718181ED95E09B
:101A60000C94300AFF920F931F93CF93DF93F82EBD
:101A7000EB018B01040F151FC017D10749F0F114BA
:101A800069F0FE0184910E94A50921968111F4CF8D
:101A9000DF91CF911F910F91FF9008958881F3CF2F
:101AA0000F931F93CF93DF930F92CDB7DEB782E0F2
:101AB000898342E450E062E571E080E80E94320DE3
:101AC0000E94070ADC0112960D911C910115110567
:101AD00039F489810F90DF91CF911F910F91089573
:101AE000D801ED91FC910280F381E02DBE016F5F82
:101AF0007F4FC801099597FDECCFF801008511854E
:101B0000E5CFFC018381811599F08181682B608389
:101B1000828191E0909395048093940410929304B1
:101B20001092920486E994E00E943C050C94F60A17
:101B30000895EF92FF920F931F93CF93DF93EC01E1
:101B4000162F042FF22E8B85888B10929104109201
:101B5000900410929304109292040E94F10783ED76
:101B600094E090938F0480938E0484ED94E090939E
:101B70008D0480938C048889EE24E394E09295048C
:101B8000809394040E94F60A811111C0E98A86E9C3
:101B900094E00E94F2048E878989811549F01F869E
:101BA0001C8260E0CE010E960E94810D01C0198A50
:101BB0002F2D402F612FCE01DF91CF911F910F91DB
:101BC000FF90EF900C946806FC01862F64856115E8
:101BD00099F0218532852115310521F4811107C045
:101BE00060E005C021303105D9F78111F9CF658753
:101BF000CF010E960C94810D0895EF92FF921F93E2
:101C0000CF93DF93EC01FC019C012C5F3F4F80E000
:101C100060FF02C09589892B66953196E217F3071C
:101C2000B9F7413009F44C899D85892B142F182B65
:101C30007E018EE0E80EF11C6A89612BC7010E94CB
:101C4000810D6A8960956123C701DF91CF911F9152
:101C5000FF90EF900C94810D0F931F93CF93DF9320
:101C6000D82FC92F142F062F0F7040E0123031F0FB
:101C700062956F70412F0E94FD0D412F602F8D2FB7
:101C80009C2FDF91CF911F910F910C94FD0DEF923E
:101C9000FF920F931F93CF93DF9390E1899F800171
:101CA0001124EB01CB0140967C01C8010E945933FD
:101CB00089930F5F1F4FCE15DF05B9F7DF91CF91E5
:101CC0001F910F91FF90EF900895DF92EF92FF9296
:101CD0000F931F93CF93DF93CDB7DEB760970FB607
:101CE000F894DEBF0FBECDBF082FF62EE42ED52E02
:101CF00011E0BE016F5F7F4F8FEF810F0E94470E93
:101D0000CE0101960E94FE0B2F853889821793071A
:101D1000F9F4898180131CC08A818F77F81218C06A
:101D20008CE0FE013396AE2DBD2D01900D928A956B
:101D3000E1F781E060960FB6F894DEBF0FBECDBF2D
:101D4000DF91CF911F910F91FF90EF90DF90089559
:101D50001F5F103471F680E0EDCFCF92DF92FF92DB
:101D60000F931F93CF93DF9390E1899F80011124FC
:101D7000EB01CB0140966C01F990C8010E945933E8
:101D8000F81621F06F2DC8010E9461330F5F1F4FBD
:101D9000CC15DD0589F7DF91CF911F910F91FF9051
:101DA000DF90CF90089585ED8093BC00809124044E
:101DB00090912504A0912604B09127040796A11DB7
:101DC000B11D23E0B695A795979587952A95D1F7EC
:101DD0002091BC0024FD03C010924B040895409153
:101DE0002404509125046091260470912704452B0A
:101DF000462B472B69F30097A105B10541F02AE274
:101E00002A95F1F700C00197A109B109E1CF8091AE
:101E100023040C940F08FB01EF2B51F0DB010D9014
:101E20000020E9F71197AD01461B570B0C94300ABF
:101E300008956F927F928F929F92AF92BF92CF92AE
:101E4000DF92EF92FF920F931F93CF93DF93CDB763
:101E5000DEB7A1970FB6F894DEBF0FBECDBF3C0131
:101E6000142F052F962E872E19A2223008F42AE06F
:101E70005E0181E2A80EB11CC22ED12CE12CF12C06
:101E8000612F702F892D982DA70196010E94E12FB7
:101E9000812F902FA92DB82D122F032F942E852E30
:101EA0006A3014F5605DF50162935F018C159D0544
:101EB000AE05BF0528F7BF01C3010E940B0FA19615
:101EC0000FB6F894DEBF0FBECDBFDF91CF911F914B
:101ED0000F91FF90EF90DF90CF90BF90AF909F90C9
:101EE0008F907F906F900895695CDDCF63E572E01D
:101EF0000C940B0FFF920F931F93CF93DF93F82E49
:101F0000092FD62FC72F142F0E94EF0B811521F018
:101F10008F2D902F0E94290D0E94EF0B811531F01B
:101F200062E272E081ED95E00E94140D111589F0D6
:101F30000E94EF0B8115D1F08D2F9C2F0E94290D4F
:101F400081ED95E0DF91CF911F910F91FF900C945F
:101F5000760F0E94EF0B811549F08D2F9C2FDF919A
:101F6000CF911F910F91FF900C94290DDF91CF918C
:101F70001F910F91FF900895CF93DF93D82FC92F12
:101F80000E940B0F8D2F9C2FDF91CF910C94760F19
:101F9000CF93DF93D82FC92F0E94140D8D2F9C2F24
:101FA000DF91CF910C94760F0C940B0F0F931F932E
:101FB000CF93DF93CDB7DEB762970FB6F894DEBF4D
:101FC0000FBECDBF6F87788B898B9A8B042F122F12
:101FD0001B861C861D861E86BE01615F7F4FCE015B
:101FE0000B960E94300380E30E94670C111531F0BC
:101FF00066E572E081ED95E00E94D40F011599F03D
:10200000809145018983809146018A8380914701AF
:102010008B838AE38C831D82BE016F5F7F4F81EDCE
:1020200095E00E94D40F80914901898380914A01F3
:102030008A838AE38B8380914C018C8380914D014C
:102040008D838EE28E8380914F018F83809150012A
:1020500088878091510189871A86BE016F5F7F4F03
:1020600081ED95E00E94D40F111531F069E572E021
:1020700081ED95E00E94D40F62960FB6F894DEBF12
:102080000FBECDBFDF91CF911F910F910895CF93D8
:10209000DF93EC0188819981009711F00E94FB3158
:1020A000198218821D821C821B821A82DF91CF91B5
:1020B0000895009711F00C94FB3108950F931F932E
:1020C000CF93DF93EC018B0188819981009729F0F0
:1020D0002A813B812617370790F4B8016F5F7F4F45
:1020E0000E948C32FC0180E0309751F0F983E88344
:1020F0001B830A838C819D81892B09F4108281E0E6
:10210000DF91CF911F910F910895EF92FF920F935E
:102110001F93CF93DF93EC017B01FB010190002023
:10212000E9F731978F01061B170BB8010E945E106B
:10213000811109C0CE01DF91CF911F910F91FF90C6
:10214000EF900C9447101D830C83B701888199810F
:10215000DF91CF911F910F91FF90EF900C9452332C
:10216000CF92DF92FF920F931F93CF93DF9300D014
:1021700000D000D0CDB7DEB78C01F62E20911B0128
:1021800080E1289FB00111246A5F7D4F1C821B8271
:102190001E821D821A821982CE0101960E9485102C
:1021A000C980DA804F2DB801CE0101960E947A0FC6
:1021B000C6010F900F900F900F900F900F90DF912E
:1021C000CF911F910F91FF90DF90CF900C945910F9
:1021D000FC01448150E060E270E006960C944B33C1
:1021E000CF93DF93C091AA05D091AB0565EA75E066
:1021F00081EA95E0209721F060EB75E08CEA95E0AC
:102200000E94300380E20E94670C219731F444E47D
:1022100051E061E086E00E94330489E695E00E9487
:10222000E810C091B4056C2F83E395E00E94EE0C9A
:102230006C2F8DEF94E0DF91CF910C94EE0C8F9288
:102240009F92AF92BF92CF92DF92EF92FF920F9345
:102250001F93CF93DF936B017C01A7019601C70108
:10226000B6010E94D2346BE572E0811114C0C7013F
:10227000B6010E94C8346FE572E0892B61F42FEF3C
:102280003FEF4FE75FE4C701B6010E94C334181661
:1022900094F463E672E081ED95E0DF91CF911F91B8
:1022A0000F91FF90EF90DF90CF90BF90AF909F90F5
:1022B0008F900C940B0F2FEF3FEF4FE75FECC701B0
:1022C000B6010E94413087FDE4CF20E030E0A90153
:1022D000C701B6010E94413087FF09C06DE281ED60
:1022E00095E00E947C08F7FAF094F7F8F0942EE657
:1022F00032E143E05AE3C701B6010E94B6336B01F5
:102300007C010E9494348B01D82FC92F0E94463043
:102310009B01AC01B601C7010E94B5336B017C0182
:102320002AE0A8016D2F7C2F81ED95E00E94190F06
:102330006EE281ED95E00E947C08C3E020E030E091
:1023400040E251E4B601C7010E94A730F62E072FE4
:10235000182FD92F0E9494344B01A12CB12C2AE0C4
:10236000B501A40181ED95E00E94190FC501B401EA
:102370000E9446309B01AC016F2D702F812F9D2F45
:102380000E94B5336B017C01CA95C1F6DF91CF91F4
:102390001F910F91FF90EF90DF90CF90BF90AF9083
:1023A0009F908F900895EF92FF920F931F93CF937A
:1023B000DF93EC018B01CB010E9438307C01BC0122
:1023C000CE010E945E10811109C0CE01DF91CF9134
:1023D0001F910F91FF90EF900C944710EC82FD82BB
:1023E000B80188819981DF91CF911F910F91FF9062
:1023F000EF900C943130CF92DF92FF920F931F93A6
:10240000CF93DF9300D000D000D0CDB7DEB78C01E2
:10241000F62E1C821B821E821D821A8219826BE19B
:1024200072E0CE0101960E94D311C980DA804F2D4F
:10243000B801CE0101960E947A0FC6010F900F904D
:102440000F900F900F900F90DF91CF911F910F91F0
:10245000FF90DF90CF900C9459105F926F927F9213
:102460008F929F92AF92BF92CF92DF92EF92FF92A4
:102470000F931F93CF93DF93CDB7DEB766970FB659
:10248000F894DEBF0FBECDBF782E962E542E652E4B
:10249000812CCE0101967C01A982BA82188B0F870C
:1024A000B701882D0E94470EA980BA800F85188930
:1024B000C7010E94FE0B67018017910789F57A100A
:1024C0002FC08B2D8F7798122BC09B109AC08CE059
:1024D000E52DF62DDE01139601900D928A95E1F718
:1024E000C7010E94FE0B988B8F87B701882D0E9431
:1024F000AD0E81E066960FB6F894DEBF0FBECDBF7D
:10250000DF91CF911F910F91FF90EF90DF90CF90CF
:10251000BF90AF909F908F907F906F905F90089545
:10252000839490E48912B8CFE12CA982BA82188BE7
:102530000F87B6018E2D0E94470EA980BA800F85A5
:102540001889C6010E94FE0B80179107F9F4E394E5
:1025500020E4E212EACFF12CA982BA82188B0F870D
:10256000B6018F2D0E94470EA980BA800F85188969
:10257000C6010E94FE0B8017910711F4A7FC20C032
:10258000F39480E4F812E8CFEE24EA94FF24FA945E
:102590008CE0E52DF62DDE01139601900D928A95C3
:1025A000E1F779829A82188B0F87C6010E94FE0B91
:1025B0002FEFE21641F08F87988BB6018E2D97CFC3
:1025C000EE24EA94E5CF2FEFF21629F08F87988B4F
:1025D000B6018F2D8CCF1C8A1B8A1E8A1D8A1A8AEF
:1025E000198A6BEC74E0CE0141960E94D3110989DF
:1025F0001A8961E0CE0141960E94FB11C8010E9438
:10260000591080E077CF6F927F928F929F92AF9216
:10261000BF92CF92DF92EF92FF920F931F93CF93CF
:10262000DF93CDB7DEB76F970FB6F894DEBF0FBE5E
:10263000CDBF80914A0690914B068930910509F4EF
:1026400062C0D8F4009709F479C0059709F4A1C1D4
:102650006F960FB6F894DEBF0FBECDBFDF91CF915E
:102660001F910F91FF90EF90DF90CF90BF90AF90B0
:102670009F908F907F906F9008958A30910559F1C7
:102680000B9731F780915A01898380915B018A838E
:1026900080915C018B83AE014F5F5F4F60E084E00F
:1026A0000E942D128115A1F20E945E0C1D8A1C8AC7
:1026B0001F8A1E8A1B8A1A8A67E672E0CE0142963A
:1026C0000E9485100A891B8961E0CE0142960E9412
:1026D000B010C80181C08CE090E06F960FB6F894FE
:1026E000DEBF0FBECDBFDF91CF911F910F91FF9045
:1026F000EF90DF90CF90BF90AF909F908F907F90A2
:102700006F900C94CB028091A904811114C0AE018A
:102710004F5F5F4F60E084E00E94650E811559F0C5
:10272000898180935A018A8180935B018B81809398
:102730005C010E94FC0280E090E0CFCF8091850197
:10274000811539F1109285010E94D00C1C821B82E8
:102750001E821D821A82198260E872E0CE01019603
:102760000E94D31109811A8142E061E0CE010196F5
:102770000E947D04C8010E94591089E695E00E94DC
:10278000E81083E395E00E94E8108DEF94E00E944A
:10279000E81080917301811135C08091FB0481158F
:1027A00009F456CF8091A9048E010F5F1F4F81114C
:1027B0002EC01C821B821E821D821A8219826FE625
:1027C00072E0C8010E94D311E980FA80A80161E09B
:1027D00080E00E944A04C7016F960FB6F894DEBFEE
:1027E0000FBECDBFDF91CF911F910F91FF90EF9062
:1027F000DF90CF90BF90AF909F908F907F906F9021
:102800000C9459101092730185E090E066CF6090AF
:10281000590180905A0190905B0170905C01209169
:102820005D0140915E0130915F0180E2F82E2A3017
:1028300038F0822F6AE00E94C12F90E3F92EF80E43
:10284000F982822F6AE00E94C12F50E3C52EC90E83
:10285000CA822AE32B83842F0E94C12F70E3D72ED4
:10286000D80EDC82E0E3EE2EE90EED822E83832F7C
:102870000E94C12FF0E3AF2EA80EAF82A0E3BA2EC4
:10288000B90EB8861986A80160E084E00E9433047E
:10289000862D90E0FC01EE0FFF1FE80FF91FEB5DA6
:1028A000FD4F8081898381818A8380E28B838C8341
:1028B0002AE080E2821628F0882D6AE00E94C12F6B
:1028C000805D8D832AE0882D622F0E94C12F905D4C
:1028D0009E838EE28F8380E2921620F0892D0E94E3
:1028E000C12F805D88873AE0892D632F0E94C12F18
:1028F000905D99878EE28A8782E38B8780E38C875D
:10290000872D0E94C12F292F0E94C12F905D9D8786
:10291000205D2E871F86A80161E081E00E943304BC
:10292000F982CA82DB82EC82AD82BE828AE38F8327
:102930004E0188E0880E911C5E01E2E1AE0EB11CF2
:10294000D501F401350182918D930E171F07D9F738
:102950004091010550E0B30183E095E00E944233CD
:1029600080E289838A83FB82CC82DD82EE82F4015D
:1029700082914F01F50181935F0108151905B9F79F
:1029800040916D0550E0B3018FE695E00E9442331F
:102990005FCE80918501811591F010928501109292
:1029A000A8040E94D00C89E695E00E94E81083E319
:1029B00095E00E94E8108DEF94E00E94E81080916D
:1029C0007301811519F010927301B5CE80917C01CD
:1029D000811549F010927C018091A8048F5F8730A7
:1029E000A0F58093A80480916A01811589F1109265
:1029F0006A0164EB70E080E090E00E9414068AE0D7
:102A00000E943008892B19F481E080936A018FEFCE
:102A1000909161019115F1F01092610164EB70E009
:102A200080E090E00E9414068BE00E943008892B21
:102A300009F4A6C021E0E091A804E73008F0AEC098
:102A4000F0E0E851FB4C0C9422301092A804CBCF5C
:102A500080E0DECF811198C08091FB04811509F4DC
:102A6000F7CD198A10E2198380915A010AE0602F8C
:102A70000E94C12F805D8A83905D9B831C831D8390
:102A800080915B010E94C12F805D8E83905D9F834A
:102A90001887198782E38A8780E38B8780915C019E
:102AA0000E94C12F292F0E94C12F905D9C87205D1D
:102AB0002D871E878091590190E0FC01EE0FFF1FCA
:102AC000E80FF91FEB5DFD4F80818F878181888B37
:102AD000AE014F5F5F4F60E080E00E943304809161
:102AE0005D01602F0E94C12F805D8A83905D9B8372
:102AF00080915E010E94C12F805D8E83905D9F83D7
:102B000080915F010E94C12F805D8A87905D9B87C5
:102B10001C871D878091A9048111AFC096E589E7C4
:102B20009E878F8780E7888BAE014F5F5F4F61E0A4
:102B300080E00E9433048EE0ECE8F1E0DE01529682
:102B400001900D928A95E1F78091A804FE013196DB
:102B5000E80FF11DE80FF11D8289823008F078CD71
:102B6000E189E03108F074CDF0E18F9FC0011124BC
:102B7000805B994FE80FF92FF11D87E0808368CDC6
:102B800081E08093610156CF2FEF55CF80915A019C
:102B9000820F803230F081E080935A010E94FC0263
:102BA0005BCF8111F9CF8FE1F7CF80915B01820F6D
:102BB0008D3020F081E080935B01F0CF8111FBCF5D
:102BC0008CE0F9CF80915C01820F843620F089E19E
:102BD00080935C01E3CF8931D8F783E6F9CF809108
:102BE0005D01820F8F3F21F487E180935D01D6CF95
:102BF0008831D8F310925D01D1CF80915E01820FB0
:102C00008F3F21F48BE380935E01C8CF8C33D8F3E0
:102C100010925E01C3CF8FB7F894109242061092C3
:102C20004106109240068FBF80915F013AE0632F0A
:102C30000E94C12F820F839F802D1124813F20F09D
:102C400082E380935F01AACF8333D8F310925F01B0
:102C5000A5CF8091A904811109C08FB7F894109273
:102C6000420610924106109240068FBF8091A9043F
:102C700091E089278093A90491CF9AE581E650CF0E
:102C80008F929F92AF92BF92CF92DF92EF92FF927C
:102C90000F931F93CF93DF93CDB7DEB728970FB66F
:102CA000F894DEBF0FBECDBF8C01DB01FA012FB758
:102CB000F8944D915D916D917C91808191812FBFB0
:102CC000F801C180D280E380F4804A015B018C1856
:102CD0009D08AE08BF08278182169104A104B104A3
:102CE00008F47EC04183528363837483880F991FE5
:102CF000880F991F9683858381E080838091580196
:102D0000811509F46DC01C821B821E821D821A82ED
:102D1000198265EC74E0CE0101967C010E94D3110A
:102D2000C980DA8060E0C7010E94FB11C6010E94E1
:102D30005910F80180858983F1E003371F0739F4C2
:102D400080914A0690914B06892B09F45CC080E281
:102D50008A8380E48B8380E28C831D820E94EF0B48
:102D6000811529F0B70181ED95E00E94D40F0E94F2
:102D7000EF0B811551F0F80141815281638174811B
:102D80002AE081ED95E00E94190F8EE28983F80117
:102D900025813681C90164E670E00E94CD2F605D17
:102DA0006A83EAE0F0E0C901BF010E94CD2F282F1D
:102DB000CB01BF010E94CD2F805D8B83205D2C83D2
:102DC00080E28D838DE68E8383E78F8318860E9451
:102DD000EF0B811529F0B70181ED95E00E94BC0F42
:102DE00028960FB6F894DEBF0FBECDBFDF91CF910E
:102DF0001F910F91FF90EF90DF90CF90BF90AF9019
:102E00009F908F9008958BE2A3CFCF92DF92EF92A5
:102E1000FF92CF93DF9300D000D000D0CDB7DEB7C4
:102E20008091A6049091A704892BF9F08AE090E0A4
:102E30000E94CB020E94BF026E5C7F4F8F4F9F4F5C
:102E40006B017C010E94BF026C157D058E059F05FC
:102E500060F480914A0690914B060C9731F0E09116
:102E6000A604F091A7040995EDCF1092A504E09176
:102E7000A404E0931B0180E1E89FF0011124EB5FC3
:102E8000FD4F868597859093A7048093A60489E0DB
:102E900090E00E94CB021C821B821E821D821A823D
:102EA000198267E672E0CE0101960E94D311E98093
:102EB000FA8060E0CE0101960E94FB11C7010E94DA
:102EC00059100E94EF0B811561F060911B0120E108
:102ED000629FB00111246A5F7D4F81ED95E00E94F1
:102EE000D40F0E94EF0B811591F06DE572E081ED3A
:102EF00095E00F900F900F900F900F900F90DF9133
:102F0000CF91FF90EF90DF90CF900C94C80F0F906F
:102F10000F900F900F900F900F90DF91CF91FF9037
:102F2000EF90DF90CF900895CF92DF92EF92FF92D3
:102F30000F931F93CF93DF93CDB7DEB768970FB68C
:102F4000F894DEBF0FBECDBF89E00E943008019724
:102F500091F481E08093A50468960FB6F894DEBFE3
:102F60000FBECDBFDF91CF911F910F91FF90EF90DA
:102F7000DF90CF9008951C8A1B8A1E8A1D8A188EA6
:102F80001F8A8E010D5E1F4F69E572E0C8010E9425
:102F9000D31180917C017801811581F08091A30487
:102FA0008F5F833008F080E010927C018093A3044F
:102FB00080E00E94E00C81E00E94E00C1091A304EC
:102FC000113009F46CC0123009F4BBC0111155C0A6
:102FD00080916A01811571F010926A018091A404B8
:102FE000811102C08091A20481508093A40481E0E9
:102FF0000E94E00C80916101811591F010926101B5
:103000002091A4048091A2048150990B28171906DD
:1030100011F011E0120F1093A40481E00E94E00C63
:103020008091FB04811549F11C821B821E821D8246
:103030001A82198263E572E0CE0101960E94D311D3
:1030400009811A81AE014F5F5F4F60E080E00E940E
:103050004A04C8010E945910A70161E080E00E9463
:103060004A044091A40480E1489FA00111244A5FD2
:103070005D4F61E084E00E9433048B899C896896EF
:103080000FB6F894DEBF0FBECDBFDF91CF911F9179
:103090000F91FF90EF90DF90CF900C94591080919A
:1030A0006A01811509F445C010926A0180915801A6
:1030B00091E08927809358018091FB048115E9F202
:1030C0001C821B821E821D821A8219826DE472E0AC
:1030D0008E010F5F1F4FC8010E94D311C980DA8093
:1030E000A80160E080E00E944A04C6010E945910D5
:1030F000A70161E080E00E944A048091580169E4E0
:1031000072E0811102C065E472E01C821B821E82A3
:103110001D821A821982C8010E94D311E980FA80A7
:10312000A80161E084E00E944A04C7010E9459108E
:10313000A4CF80916101811509F4BECF1092610185
:10314000B5CF80916A01811539F110926A018091A1
:103150001B018983809158018A83AE014F5F5F4FC5
:1031600063E080E00E942D120E945E0C188A1F8688
:103170001A8A198A1E861D866DE372E0CE010D96AD
:103180000E94D3110D851E8561E0CE010D960E942F
:10319000FB11C8010E945910809161018115D1F085
:1031A000109261018BE090E090934B0680934A0669
:1031B000E0911B0180E1E89FF0011124EB5FFD4FDE
:1031C0000684F785E02D09958DE090E090934B06FD
:1031D00080934A068091FB04811509F44ECF1C822E
:1031E0001B821E821D821A82198266E372E0CE0162
:1031F00001960E94D31109811A81AE014F5F5F4F82
:1032000060E080E00E944A04C8010E9459101C82BC
:103210001B821E821D821A82198265E272E0CE0133
:1032200001960E94D31109811A81AE014F5F5F4F51
:1032300061E080E00E944A04C80178CFEF92FF92DB
:103240001F93CF93DF9300D000D000D0CDB7DEB76F
:10325000182FE091AA0485E0E89FF0011124E555BC
:10326000FB4F408351836283738314831C821B82D0
:103270001E821D821A82198264EB70E0CE010196D3
:103280000E94D311E980FA8060E0CE0101960E948D
:10329000FB11C7010E9459100E94EF0B811549F0E4
:1032A000412F50E060E070E02AE081ED95E00E945F
:1032B000190F0E94EF0B811531F06CEA70E081ED7F
:1032C00095E00E94C80F8091AA048F5F8093AA04A2
:1032D0000F900F900F900F900F900F90DF91CF9164
:1032E0001F91FF90EF9008952F923F924F925F921F
:1032F0006F927F928F929F92AF92BF92CF92DF9206
:10330000EF92FF920F931F93CF93DF93CDB7DEB76A
:10331000A0970FB6F894DEBF0FBECDBFE0914A066E
:10332000F0914B06EC30F10508F0A3C1E151FB4CE4
:103330000C9422308CE090E0A0960FB6F894DEBF9B
:103340000FBECDBFDF91CF911F910F91FF90EF90F6
:10335000DF90CF90BF90AF909F908F907F906F90B5
:103360005F904F903F902F900C94CB028DEF94E0A4
:103370000E94E81089E695E00E94E81083E395E05A
:103380000E94E81019821A821B821C82AE014F5FD4
:103390005F4F60E081E00E94650E811591F15B81D5
:1033A0004C81298130E0ACE3B0E00E94A6332A8151
:1033B000620F711D811D911D9B01A8EEB3E00E945B
:1033C000A633609340017093410180934201909332
:1033D0004301252F30E00E94A6336B017C01242F8E
:1033E00030E0A4E6B0E00E94A633C60ED71EE81E69
:1033F000F91EC0923C01D0923D01E0923E01F09254
:103400003F0124E030E03093A00520939F058FE634
:103410008093A9053093AB052093AA058093B4054A
:1034200080E090E089CF80918501811599F110921B
:1034300085010E94D00C1C821B821E821D821A8272
:1034400019826BEB74E0CE0101960E94D3110981C1
:103450001A8142E061E0CE0101960E947D04C8011C
:103460000E9459101C821B821E821D821A821982A0
:103470006AEA74E0CE0101960E94D31109811A8193
:10348000AE014F5F5F4F61E080E00E944A04C801D7
:103490000E94591080917301811509F4EAC01092BD
:1034A000730185E090E048CF80918501811509F492
:1034B00087C01092850181E0809349060E94D00C5C
:1034C0001C821B821E821D821A82198264EA74E0A9
:1034D000CE0101960E94D31109811A8144E063E074
:1034E000CE0101960E947D04C8010E9459101C82E1
:1034F0001B821E821D821A82198263E974E0CE014A
:1035000001960E94D31109811A81AE014F5F5F4F6E
:1035100061E080E00E944A04C8010E9459101092A4
:10352000A1051092A2051092A3051092A405109275
:10353000A5051092A6051092A7051092A805109255
:10354000AC051092AD051092AE051092AF05109229
:10355000B0051092B1051092B2051092B305109209
:10356000A00510929F058BE68093A9051092AB05EC
:103570001092AA058093B40565EA75E081EA95E0AA
:103580000E94300380E20E94670C4091010550E0E8
:1035900060E472E083E295E00E94423340916D0561
:1035A00050E06CE271E08FE895E00E944233409178
:1035B000370550E06CE171E089E595E00E94423307
:1035C00080914906811581F10E94BF02AB01BC01C7
:1035D00080913C0190913D01A0913E01B0913F014D
:1035E00000914C0610914D0620914E0630914F06E9
:1035F000800F911FA21FB31F84179507A607B70757
:1036000098F4109249061091A905612F8DEF94E06E
:103610000E94EE0C612F89E695E00E94EE0C612F6E
:1036200083E395E00E94EE0C80917301811519F0FF
:1036300010927301F5CE80916A01811529F01092E4
:103640006A0188E090E078CE8AE00E943008892BF9
:10365000C1F380916101811519F010926101F1CFE0
:103660008BE00E943008892B61F380917C018111ED
:1036700019C0A0960FB6F894DEBF0FBECDBFDF9184
:10368000CF911F910F91FF90EF90DF90CF90BF905F
:10369000AF909F908F907F906F905F904F903F90F2
:1036A0002F90089510927C010E94ED021C821B82D3
:1036B0001E821D821A82198265E874E08E010F5FF6
:1036C0001F4FC8010E94D311E980FA8061E0C80150
:1036D0000E94B010C7010E945910EBEAF4E08BEF92
:1036E00094E04FEF5FEFBA014083518362837383AD
:1036F000148235968E179F07B9F71092AA041C8280
:103700001B821E821D821A82198269E872E0C8013A
:103710000E94D311E980FA8061E0C8010E94FB1188
:10372000C7010E94591040917D0150917E01609126
:103730007F017091800181E00E941E1980917D01BE
:1037400090917E01A0917F01B09180018093A105AD
:103750009093A205A093A305B093A4058093AC0514
:103760009093AD05A093AE05B093AF0521E030E096
:103770003093A00520939F0588E68093A905309398
:10378000AB052093AA058093B40582E090E0D4CDE8
:10379000809185018115C1F0109285011C821B82E8
:1037A0001E821D821A82198267E774E0CE0101969B
:1037B0000E94D31109811A8161E0CE0101960E9415
:1037C000B010C8010E94591080917301811130CF4F
:1037D0008AE00E943008892B09F094C085E090E0CF
:1037E0009093A00580939F05865C9D4FDC018C9192
:1037F0008093A9058BE00E943008892B09F085C0D1
:1038000085E090E09093AB058093AA05865C9D4F80
:10381000FC0180818093B40580919F059091A00563
:10382000059709F075C01C821B821E821D821A82B8
:10383000198261E774E0CE0101960E94D3110981DB
:103840001A81BE016F5F7F4F89E695E00E94970263
:10385000C8010E9459108091AA059091AB05059767
:1038600009F05BC01C821B821E821D821A82198293
:103870006BE674E0CE0101960E94D31109811A8192
:10388000BE016F5F7F4F83E395E00E949702C801FE
:103890000E94591080919F059091A0052091AA0542
:1038A0003091AB05822B932B1C821B821E821D82C2
:1038B0001A821982892BB1F560E674E0CE01019677
:1038C0000E94D31109811A8161E0CE0101960E9404
:1038D000B010C8010E9459108DEF94E00E94E810CA
:1038E00080916A01811110926A01809161018111B8
:1038F0001092610180917C01811110927C0181E024
:1039000090E01ACD80E090E06BCF80E090E07ACF3D
:1039100089E695E00E94E8109ECF83E395E00E943F
:10392000E810B8CF6AE574E0CE0101960E94D31189
:1039300009811A81BE016F5F7F4F8DEF94E00E9475
:103940009702C8010E94591081E00E94E00C1C827D
:103950001B821E821D821A8219826BE474E0CE01E2
:1039600001960E94D31109811A81AE014F5F5F4F0A
:1039700061E080E00E944A04C8010E9459108091D1
:10398000AA059091AB05EFE0059721F480E58093BF
:103990006F06EEE080919F059091A005059729F4B0
:1039A000F0E0E05BF94F8CE4808B8091FC048115A2
:1039B00009F45FCE24E630E040E550E060ED77E0CA
:1039C00083E0A0960FB6F894DEBF0FBECDBFDF91A7
:1039D000CF911F910F91FF90EF90DF90CF90BF900C
:1039E000AF909F908F907F906F905F904F903F909F
:1039F0002F900C94420C809185018115D9F0109282
:103A000085010E94D00C1C821B821E821D821A829C
:103A1000198265E474E0CE0101960E94D3110981F8
:103A20001A8146E065E0CE0101960E947D04C8013E
:103A30000E94591080919F059091A005019709F06F
:103A400073C080916A01811509F46EC010926A01F9
:103A500040916B0150916C0160916D0170916E010C
:103A60004093A5055093A6056093A7057093A805FC
:103A700082E090E09093A00580939F058BE6809371
:103A8000A90583E00E941E1965EA75E081EA95E0C8
:103A90000E94300380E20E94670C6091A90589E6CC
:103AA00095E00E94EE0C8AE380934B0144E451E0E0
:103AB00060E082E00E9433041C821B821E821D8211
:103AC0001A82198262EA72E0CE0101960E94D31135
:103AD00009811A81AE014F5F5F4F60E080E00E9474
:103AE0004A04C8010E9459101C821B821E821D823A
:103AF0001A82198267E972E0CE0101960E94D31101
:103B000009811A8160E0CE0101960E94B010C801BF
:103B10000E9459100E94EF0B811531F064E471E0AE
:103B200081ED95E00E94BC0F8091AA059091AB05B4
:103B3000019709F091C080916101811509F48CC051
:103B400010926101409162015091630160916401A2
:103B5000709165014093B0055093B1056093B20533
:103B60007093B30582E090E09093AB058093AA0533
:103B70008BE68093B40584E00E941E1960EB75E02B
:103B80008CEA95E00E94300380E20E94670C60910D
:103B9000B40583E395E00E94EE0C80919F0590911F
:103BA000A0050197C1F41C821B821E821D821A820D
:103BB000198269EB72E0CE0101960E94D31109814E
:103BC0001A81AE014F5F5F4F60E080E00E944A04BF
:103BD000C8010E9459108AE380934B0144E451E0EC
:103BE00061E082E00E9433041C821B821E821D82DF
:103BF0001A82198263EB72E0CE0101960E94D31102
:103C000009811A81AE014F5F5F4F61E080E00E9441
:103C10004A04C8010E9459101C821B821E821D8208
:103C20001A82198267EA72E0CE0101960E94D311CE
:103C300009811A8160E0CE0101960E94B010C8018E
:103C40000E9459100E94EF0B811531F064E471E07D
:103C500081ED95E00E94BC0F80919F059091A00599
:103C6000029791F58091AA059091AB05029761F5B5
:103C70008091B0059091B105A091B205B091B305C6
:103C80004091A5055091A6056091A7057091A805E2
:103C9000481759076A077B0790F460EB75E08CEAD8
:103CA00095E00E94300380E20E94670C6091A905B4
:103CB0008DEF94E00E94EE0C84E090E03DCB65EA4D
:103CC00075E081EA95E0EDCF1091FB04111509F440
:103CD00043C00E94BF0269837A838B839C83BE01A9
:103CE0006F5F7F4F8CEA95E00E94300380E20E9474
:103CF000670C8091AA059091AB05019799F41091FA
:103D0000B405612F83E395E00E94EE0C612F8DEFE7
:103D100094E00E94EE0C44E451E061E082E00E94F5
:103D2000330410E080919F059091A0050197A1F4C4
:103D30000091A905602F89E695E00E94EE0C11150F
:103D400059F0602F8DEF94E00E94EE0C44E451E0B6
:103D500060E082E00E94330480917301811509F4D0
:103D600088CC109273011C821B821E821D821A82D3
:103D7000198266E374E0CE0101960E94D311098195
:103D80001A8161E0CE0101960E94B010C8010E9424
:103D900059104091740150917501609176017091B4
:103DA000770186E00E941E191C821B821E821D82E2
:103DB0001A82198269E274E0CE0101960E94D31141
:103DC00009811A8144E063E0CE0101960E947D04DE
:103DD000C8010E94591022E030E03093A0052093E2
:103DE0009F058BE68093A9053093AB052093AA0528
:103DF0008093B40561CF80918501811509F46AC172
:103E0000109285011C821B821E821D821A821982D9
:103E10006AE174E08E010F5F1F4FC8010E94D31149
:103E2000E980FA8061E0C8010E94B010C7010E94D9
:103E300059100E94EF0B0F8F18A3811509F44AC186
:103E400069EB73E081ED95E00E94C80F2091AA0410
:103E50000BEA14E0F80180E0412C512C3201C12C16
:103E6000D12C760188248A94982C5401821337C16E
:103E7000FFEF8F169F06AF06BF06C1F0D701C60140
:103E8000C414D504E604F70410F4D301C20100976A
:103E9000A105B10559F088199909AA09BB0921E0C2
:103EA0002B8B8F379E4EA643B10508F41B8A212C1D
:103EB000312C8091AA042816310408F428C12FEF70
:103EC00082169206A206B20609F47EC0C114D1047D
:103ED000E104F10409F478C041145104610471044F
:103EE00009F472C0D701C60188199909AA09BB094A
:103EF0008F8B988FA98FBA8FA30192012819390946
:103F00004A095B092B8F3C8F4D8F5E8F81ED95E0C9
:103F10000E94760F64E773E081ED95E00E94C80F80
:103F200068E673E081ED95E00E94140D20E04B8976
:103F30006F89788D898D9A8D0E94D60F81ED95E0DD
:103F40000E94760F6CE573E081ED95E00E94140D00
:103F500020E04B896B8D7C8D8D8D9E8D0E94D60FC0
:103F600081ED95E00E94760F8F89988DA98DBA8D8D
:103F70002B8D3C8D4D8D5E8D82179307A407B50761
:103F800008F001C166E473E081ED95E00E94C80F7E
:103F90006AE373E081ED95E00E94140DC301B20164
:103FA0006C197D098E099F090E94463020E030E09F
:103FB0004AE754E40E9422340E941F1167E772E02E
:103FC00081ED95E00E94BC0F8091A904811509F450
:103FD0007BC06BEE72E081ED95E00E94C80F80918E
:103FE000A904811509F4F6C080915A0140915B0142
:103FF00020915C01E0905D01F0905E0100915F0115
:104000001AE0612F0E94C12F805D8983905D9A83A1
:104010003EE23B83842F0E94C12F805D8C83905DA4
:104020009D833E8330E02053384F82E38F83C90164
:1040300064E670E00E94CD2FCB01EAE0F0E0BF0122
:104040000E94CD2F805D8887C901BF010E94CD2FBE
:10405000282FCB01BF010E94CD2F805D8987205D75
:104060002A871B866FED72E081ED95E00E94140DAA
:104070006F8D78A181ED95E00E94BC0F8E2D612F90
:104080000E94C12F805D8983905D9A832AE32B83F0
:104090008F2D0E94C12F805D8C83905D9D832E8328
:1040A000802F0E94C12F805D8F83905D9887198635
:1040B00063ED72E081ED95E00E94140D6F8D78A1A3
:1040C00081ED95E00E94BC0F6CEB72E081ED95E014
:1040D0000E94C80F809173018111AACACACA948133
:1040E000913039F480809180A280B3808F5F3596C3
:1040F000BDCE933029F4C080D180E280F380F6CF2A
:104100009430A1F74080518062807380EFCFD80156
:104110006D917D918D919C91681979098A099B090E
:1041200021E04B890E94D60F65E772E081ED95E0B2
:104130000E94D40FF80184818430F9F080F481303A
:10414000C9F064EA73E0833081F081ED95E00E946C
:10415000760FFFEF2F1A3F0A0B5F1F4FAACE853055
:1041600079F06AE873E0863081F781ED95E00E948E
:10417000140DEBCF63EB73E0F8CF64E973E0F5CF98
:1041800060E973E0F2CF8B8D9C8DAD8DBE8D2F8954
:10419000388D498D5A8D82179307A407B50798F477
:1041A00063E273E081ED95E00E94C80F67E173E080
:1041B00081ED95E00E94140DC701B60164197509DF
:1041C00086099709F1CE61E073E081ED95E00E94E8
:1041D000C80FFACE00E0F12CE12C20E040E080E0B6
:1041E0000FCF80918501811509F487C01092850158
:1041F00081E0809349061092A1051092A2051092C9
:10420000A3051092A4058091400190914101A091D5
:104210004201B09143018093A5059093A605A09318
:10422000A705B093A8051092A00510929F058BE6F4
:104230008093A9051092AB051092AA058093B4054E
:1042400065EA75E081EA95E00E94300380E20E9411
:10425000670C10924E010E94D00C1C821B821E82A1
:104260001D821A82198262E174E0CE0101960E94D9
:10427000D31109811A8144E063E0CE0101960E94C6
:104280007D04C8010E94591044E451E061E086E0D9
:104290000E9433041C821B821E821D821A82198294
:1042A00068E074E0CE0101960E94D31109811A8161
:1042B000AE014F5F5F4F61E080E00E944A04C80199
:1042C0000E94591087E0E3E8F2E0DE0111960190C8
:1042D0000D928A95E1F787E0FE013196A9E5B5E0F8
:1042E00001900D928A95E1F787E0FE013196A3E2F5
:1042F000B5E001900D928A95E1F78091490681150C
:1043000009F10E94BF02AB01BC0180913C01909178
:104310003D01A0913E01B0913F0100914C061091EA
:104320004D0620914E0630914F06800F911FA21F1F
:10433000B31F481759076A077B0720F010924906F8
:104340000E94F01080916A01811541F110926A017A
:104350008091400190914101A0914201B0914301AF
:10436000813335E79307A105B10508F459C080539F
:104370009547A109B1098093400190934101A09311
:104380004201B093430181E08093850110924C0675
:1043900010924D0610924E0610924F0680916101C8
:1043A000811561F11092610180914001909141016C
:1043B000A0914201B0914301813942EB940748E05A
:1043C000A407B10520F080E992EBA8E0B0E0805DA1
:1043D0009A48AF4FBF4F8093400190934101A09303
:1043E0004201B093430181E08093850110924C0615
:1043F00010924D0610924E0610924F0680917C014D
:10440000811531F010927C0186E090E00E94CB0291
:1044100080917301811509F42CC9109273016FCA40
:1044200080E395E7A0E0B0E0A6CF809185018115FB
:1044300009F45DC00E94ED02109285011C821B826E
:104440001E821D821A82198268EF73E0CE010196E6
:104450000E94D31109811A8161E0CE0101960E9468
:10446000B010C8010E9459100E94D00C1C821B82FF
:104470001E821D821A82198260EF73E0CE010196BE
:104480000E94D31109811A8146E065E0CE010196B0
:104490000E947D04C8010E94591081E090E0909331
:1044A000AB058093AA0588E68093B4050E94BF02FD
:1044B000462F572FBC014093AC055093AD05609338
:1044C000AE057093AF058091A5059091A605A091CA
:1044D000A705B091A805840F951FA61FB71F80934D
:1044E000B0059093B105A093B205B093B305809148
:1044F00073018115D9F0109273011C821B821E82F8
:104500001D821A82198260EE73E0CE0101960E942C
:10451000D31109811A8161E0CE0101960E94B01089
:10452000C8010E9459100E945E0CE9C98091FB04E9
:10453000811509F49EC80E94BF02462F572FBC0167
:104540004093AC055093AD056093AE057093AF05F5
:104550008091B0059091B105A091B205B091B305DD
:1045600084179507A607B707D0F0A0960FB6F89462
:10457000DEBF0FBECDBFDF91CF911F910F91FF9096
:10458000EF90DF90CF90BF90AF909F908F907F90F3
:104590006F905F904F903F902F900C94F0101C8282
:1045A0001B821E821D821A82198260ED73E0CE0189
:1045B00001960E94D31109811A8161E0CE01019612
:1045C0000E94B010C8010E94591081E090E00E9442
:1045D000CB0220E030E040ED57E068EC70E081E095
:1045E000F0C9C0904001D0904101E0904201F090AC
:1045F000430160913C0170913D0180913E01909199
:104600003F0128EE822E23E0922EA12CB12CA50191
:1046100094010E94E12F29013A016B8B7C8B8D8BD9
:104620009E8BC701B60120E63AEE40E050E00E94C2
:10463000E12F2983C701B601A50194010E94E12F52
:104640006CE3862E912CA12CB12CCA01B901A501D5
:1046500094010E94E12F6A83C301B201A501940174
:104660000E94E12F6B836B897C898D899E8924E66A
:1046700030E040E050E00E94E12F2C83AE014F5F1C
:104680005F4F60E081E00E942D12811511F40C94BF
:10469000391B0E945E0C188A1F861A8A198A1E8688
:1046A0001D866AE772E0CE010D960E9485100D8589
:1046B0001E8561E0CE010D960E94B010C801A09643
:1046C0000FB6F894DEBF0FBECDBFDF91CF911F9123
:1046D0000F91FF90EF90DF90CF90BF90AF909F90A1
:1046E0008F907F906F905F904F903F902F900C94A1
:1046F00059101F921FB61F9211242F938F939F93CF
:10470000AF93BF938091450690914606A0914706CE
:10471000B09148060196A11DB11D80934506909366
:104720004606A0934706B0934806809144068F5FE3
:1047300080934406853228F01092440681E08093ED
:10474000430680914106909142060196909342065D
:1047500080934106883E934038F0109242061092B2
:10476000410681E080934006BF91AF919F918F9168
:104770002F911F901FBE1F9018951F920F920FB67A
:104780000F9211242F933F934F935F936F937F93D7
:104790008F939F93AF93BF93EF93FF939091B90043
:1047A000892F887F803509F4C0C008F042C080336B
:1047B00009F4B6C098F5883101F1D0F4883009F4D5
:1047C000A7C0803109F4A4C0811509F4F0C0FF919D
:1047D000EF91BF91AF919F918F917F916F915F9179
:1047E0004F913F912F910F900FBE0F901F901895F2
:1047F000803209F495C0883251F79091200480915D
:104800001F04981778F5E091200481E08E0F8093C3
:104810002004F0E0E150FC4F80817CC0803409F43A
:1048200090C0883409F47EC0883389F68093FE03F3
:104830006DC0803A09F49FC0B8F5803809F489C08A
:1048400050F5803611F1D8F4883509F6E09120044E
:1048500081E08E0F809320048091BB00F0E0E15056
:10486000FC4F808380914A0481115CC081E0809379
:10487000490484EA8093BC0010924B04A8CF80378F
:1048800021F0987E983609F0A2CF83E080934B0404
:104890001092FD0341C0803909F45BC0987E9838BE
:1048A00009F095CF85E839C0883BD9F058F5883AAA
:1048B00019F0803B09F08BCF84E080934B04109279
:1048C000DC0310924804E0918E04F0918F04099566
:1048D00080914804811105C081E0809348041092C2
:1048E0002804E091DC0381E08E0F8093DC03F0E08C
:1048F000E85DFB4F80818093BB009091DC03809149
:10490000480423C0907F903C09F061CF85ECB2CF82
:10491000809121048093BB0085EC8093BC0057CF2D
:104920008093FE030E94D30E52CFE091200481E0D9
:104930008E0F809320048091BB00F0E0E150FC4F8B
:1049400080839091200480911F04981708F0AACFCB
:10495000E3CF8091FD03803208F0A4CFE091FD0306
:1049600081E08E0F8093FD038091BB00F0E0E35265
:10497000FC4F8083D1CF85EC8093BC0010924B0418
:104980008091FD03803230F4E091FD03F0E0E352CA
:10499000FC4F10826091FD0370E0E0918C04F09177
:1049A0008D048DED93E009951092FD0310CF1092C8
:1049B000FE03B8CF1F920F920FB60F9211242F93C0
:1049C0003F934F935F936F937F938F939F93AF9397
:1049D000BF93CF93EF93FF9383B1C091DB0390918B
:1049E000DA03C923982F9095C9238093DB03C4FF72
:1049F00005C0E0910D01F0910E010995C5FF05C0BC
:104A0000E0910F01F09110010995C6FF05C0E091FA
:104A10001101F09112010995C7FF05C0E091130142
:104A2000F09114010995C1FF05C0E0911501F091C5
:104A300016010995C2FF05C0E0911701F091180118
:104A40000995C3FF05C0E0911901F0911A0109957C
:104A5000FF91EF91CF91BF91AF919F918F917F91F6
:104A60006F915F914F913F912F910F900FBE0F90DB
:104A70001F9018951F921FB61F9211242F933F93DA
:104A80008F939F93AF93BF938091D6039091D70359
:104A9000A091D803B091D9033091D50323E0230F1F
:104AA0002D3750F50196A11DB11D2093D50380939C
:104AB000D6039093D703A093D803B093D9038091E2
:104AC000D1039091D203A091D303B091D403019666
:104AD000A11DB11D8093D1039093D203A093D30362
:104AE000B093D403BF91AF919F918F913F912F913C
:104AF0001F901FBE1F90189526E8230F0296A11D38
:104B0000B11DD3CF2F932FB72F938F939F93EF93F5
:104B1000FF93E0914103F09142038081E0914703CC
:104B2000F091480382FD19C0908180914A038F5F04
:104B30008F7320914B03821741F0E0914A03F0E01C
:104B4000EF5CFC4F958F80934A03FF91EF919F910B
:104B50008F912F912FBF2F9118958081F6CF1F92A3
:104B60000F920FB60F9211242F933F934F935F93A1
:104B70006F937F938F939F93AF93BF93EF93FF9325
:104B800081E393E00E949208FF91EF91BF91AF9172
:104B90009F918F917F916F915F914F913F912F9155
:104BA0000F900FBE0F901F9018951F921FB61F9267
:104BB00011248F939F93AF93BF93EF93FF938091B3
:104BC0002D0390912E03A0912F03B0913003892BD8
:104BD0008A2B8B2B99F190912C03E0912A03F09171
:104BE0002B0380818927808380912D0390912E0350
:104BF000A0912F03B0913003181619061A061B0650
:104C00009CF480912D0390912E03A0912F03B091DD
:104C100030030197A109B10980932D0390932E03CE
:104C2000A0932F03B0933003FF91EF91BF91AF9109
:104C30009F918F911F901FBE1F90189580917100BA
:104C40008D7F8093710080912C03E0912A03F09175
:104C50002B039081809589238083E6CF1F920F924A
:104C60000FB60F921124CF92DF92EF92FF920F9323
:104C70001F932F933F934F935F936F937F938F93E4
:104C80009F93AF93BF93EF93FF93CF93DF93CDB7F2
:104C9000DEB76C97DEBFCDBF1092E9008091E800CF
:104CA00083FF30C08E010B5E1F4F68E0C8010E9479
:104CB000980982EF8093E8008D89E02ED12E87FF3E
:104CC00012C09091E80090FFFCCF982F9076911140
:104CD0002BC12F89388DEE89EA3088F4F0E0E55059
:104CE000FB4C0C9422309EEF9093E800EECF80387E
:104CF00041F5809124038093F1001092F1008EEF32
:104D00008093E8006C960FB6F894DEBF0FBECDBF5F
:104D1000DF91CF91FF91EF91BF91AF919F918F91D3
:104D20007F916F915F914F913F912F911F910F91C3
:104D3000FF90EF90DF90CF900F900FBE0F901F90DD
:104D400018951092F100D9CF8111D9CF21303105BA
:104D5000B1F6809124038D7F80932403D0CF8111FD
:104D6000CECF2130310559F6809124038260F4CFF3
:104D70008091E80080FFFCCF8F8980688093E300FA
:104D8000BECFF88C0B8D1C8D22E01092E9001092A2
:104D9000280310922703F2122EC0109226031092BD
:104DA00025030E94500D1F8299E09983FA8291E0B9
:104DB0009E8390EA98879AEF9987209127033091F4
:104DC0002803275F3F4F3C832B838D831092E9009C
:104DD00010922803109227031093260300932503B3
:104DE00049E050E0BE016F5F7F4F80E00E94320DCE
:104DF0000E94500D84CF10932603009325030E9438
:104E0000070ADC0112960D911C910115110531F470
:104E1000F1E0FF1214C06FE171E05AC0D801ED91CA
:104E2000FC910480F581E02D6E2D7D2DC801099542
:104E3000009709F037C1F80100851185E6CFF3E04E
:104E4000FF120EC08F89811509F440C0823061F4D1
:104E500040E860E181E491E00E94D40981114FCFE4
:104E600081E28093EB004ECF813029F440E86BE083
:104E700085E391E0F1CF833099F70E94070ADC01C6
:104E80001296ED90FC908E010F5F1F4F6801E114A8
:104E9000F10469F4D8011C92F60101900020E9F7B1
:104EA0003197BF016C197D0940E0C601D5CFD7010C
:104EB000ED91FC910680F781E02DB801C7010995BD
:104EC000080F111DF701E084F184E1CF61E371E087
:104ED000FB01449150E080E80E94320D10CF81E048
:104EE0008093F1000CCF83708111BACFEFEFF1E026
:104EF00081E021E036E39191911569F08093E9001A
:104F00002093EB00DF019E919093EC003093ED0035
:104F10008F5F873081F78EE78093EA001092EA0076
:104F20008F898093D003EBCE8B8D9C8D1092E900FE
:104F30001092280310922703909326038093250351
:104F4000898D811195C08E899D89913A49F481326C
:104F500009F086CF47E050E065E071E080E0BCCF2B
:104F6000913209F07DCF833269F48F89988DA0E06A
:104F7000B0E08093010190930201A0930301B093EC
:104F80000401BDCE803269F48091E80082FFFCCF3D
:104F900067E085E091E00E9498098BEF8093E8003C
:104FA000AECE823209F0ABCE8F8980930C01EEEF4A
:104FB000FFE7859195918B3F9C4D51F1E0E0F8E042
:104FC0008091050190910601A0910701B09108011F
:104FD000803B9440A105B105F1F480910C0180FD66
:104FE0001AC0EE3F8AE0F80791F587E797E79183CB
:104FF0008083809160008093230388E19BE00FB65B
:10500000F894A895809360000FBE9093600077CECF
:10501000EEEFFAE0D5CF808191818737974709F08D
:105020006ECEA89580916000886180936000809129
:10503000230380936000EE3FFA40A9F08091FE0ABE
:105040009091FF0A909301088093000858CE8091B8
:105050000008909101088737980739F29093FF0A6A
:105060008093FE0AC2CF1092FF0A1092FE0A47CE2A
:105070000E94070ADC0112960D911C910115110581
:1050800009F4EECED801ED91FC910190F081E02D74
:105090006E2D7D2DC8010995811131CEF801008555
:1050A0001185ECCF0CF02BCEDBCE1F921FB61F92DA
:1050B00011248F939F938091E1009091E100937F61
:1050C0009093E10083FF0FC01092E90091E090936C
:1050D000EB001092EC0092E39093ED001092D0035D
:1050E00098E09093F00082FF22C093E09093E90053
:1050F0009091F200911519F09AE39093E800909145
:10510000CE03911541F09091CE0391509093CE0330
:10511000911101C05D9A90912903911541F09091F0
:105120002903915090932903911101C0289A84FF7B
:1051300017C08091E2008E7E81608093E2008091B2
:10514000E1008F7E8093E1008091CF038E7E8061AD
:105150008093CF039F918F911F901FBE1F90189532
:1051600080FFF8CF8091E2008E7E80618093E20024
:105170008091E1008E7E8093E1008091CF038E7E4E
:105180008160E6CFCDB7DEB7A2970FB6F894DEBF49
:105190000FBECDBF789484B5826084BD84B5816034
:1051A00084BD85B5826085BD85B5816085BD8091F2
:1051B0006E00816080936E0010928100809181006A
:1051C0008260809381008091810081608093810062
:1051D0008091800081608093800080919100826046
:1051E00080939100809191008160809391008091E3
:1051F00090008160809390008091C10084608093D2
:10520000C1008091C10082608093C1008091C10083
:1052100081608093C1008091C30081608093C3004E
:105220008091C00082608093C0008091C200816044
:105230008093C20080917A00846080937A0080918C
:105240007A00826080937A0080917A0081608093F6
:105250007A0080917A00806880937A001092D0035F
:10526000109224031092CF038091D7008160809325
:10527000D70080EA8093D80089B5806189BD89B55F
:10528000826089BD89B5082F017080FFFBCF61E086
:1052900070E080E090E00E9414068091D8008F7C3E
:1052A00080618093D8008091E000807F8093E0004F
:1052B0008091E1008E7E8093E1008DE08093E2009A
:1052C000559A209AF89410928000109281001092C2
:1052D0008500109284008091810088608093810015
:1052E0008091810083608093810089EF90E09093AA
:1052F00089008093880080916F00826080936F00A6
:1053000078948FEF9FEF9093DE058093DD050E94E8
:10531000EF0B811509F4A7C21C821B821E821D821D
:105320001A82198267E171E0CE0101960E94D311C1
:10533000E980FA8060E0CE0101960E94FB11C7016E
:105340000E9459100E94EF0B811531F06BE872E05A
:1053500081ED95E00E94D40F0E94EF0B811531F092
:1053600063E972E081ED95E00E94BC0F1092910418
:105370001092900410929304109292040E94F107EC
:1053800083ED94E090938F0480938E0484ED94E0F9
:1053900090938D0480938C0420E042E060E18AEDDC
:1053A00092E00E94990D6091DF026D7F6093DF02B1
:1053B00068608AED92E00E94C0046FEF8AED92E08F
:1053C0000E94E40D9DEBE92E90E0F92E18E023E712
:1053D000A22EB12C6E0139E0C30ED11C3BE9832E05
:1053E000912C48E050E0B701CE0101960E94283090
:1053F000612F60648AED92E00E94C004C5010197AC
:10540000F1F7AE014F5F5F4F3A01D3016D913D015E
:105410008AED92E00E94C804C4010197F1F7C61416
:10542000D70499F7B8E0EB0EF11C185F1034C9F6F9
:1054300061E082E10E94F80661E08CE00E94F806DB
:1054400062E088E00E94F80662E089E00E94F806C7
:1054500062E08AE00E94F80662E08BE00E94F806B3
:1054600021E333E0E0914103F091420382E0808345
:10547000E0913D03F0913E031082E0913F03F091F3
:10548000400387E6808310924903E0914503F09141
:10549000460386E08083E0914303F09144038081DA
:1054A00080618083E0914303F091440380818860B0
:1054B0008083E0914303F09144038081806880837E
:1054C000E0914303F091440380818F7D80838DECD4
:1054D00090E09093D8028093D70294E3EFEFF4E04A
:1054E000DF01492F1D924A95E9F745EC52E05093B0
:1054F000FE044093FD0487E08093010542E1409360
:105500000205EBE6F5E0DF011D929A95E9F730938D
:105510006A052093690580936D05E6E3F5E093E362
:10552000DF011D929A95E9F73093340520933305F6
:1055300098E09093350580933705AE01435F5F4F48
:1055400060E080E00E94650E811509F463C01C8252
:105550001B821E821D821A8219826DE071E0CE01CB
:1055600001960E94D311E980FA8061E0CE01019694
:105570000E94FB11C7010E9459101D8510936D05F3
:105580008E8580936B058F8580936C0588898093C9
:1055900037058989809335058A8980933605AE0160
:1055A0004F5F5F4F61E080E00E94650E811509F456
:1055B00063C1412F50E0BE016F5F7F4F8CE291E0ED
:1055C0000E9442330E94EF0B811531F06CE271E0D2
:1055D00081ED95E00E94BC0FAE014F5F5F4F62E02E
:1055E00080E00E94650E811509F45DC140916D0552
:1055F00050E0BE016F5F7F4F8CE191E00E9442332B
:105600000E94EF0B811531F06CE171E081ED95E0C6
:105610000E94BC0F82E08093A204AE014F5F5F4FF7
:1056200063E080E00E94650E811551F089818093CE
:10563000A40481E09A81911101C080E08093580117
:105640008091A404823010F01092A4040E940517E7
:1056500083EC93E090930E0180930D011091DA0397
:1056600080E10E94E10B8FED93E090931001809315
:105670000F0180E20E94E10B8BEF93E09093120107
:105680008093110180E40E94E10B87E194E0909304
:10569000140180931301106F1093DA0380E80E94C5
:1056A000E10BB0919A01BF8FE0919B01E8A3F091CB
:1056B0009C01F9A320919D012AA370909E01609006
:1056C0009F015090A0014090A1011092FB04109204
:1056D000FC04809143068115D9F01092430631E015
:1056E0003093FB0490913F069F5F90933F0680911B
:1056F0006001981768F090913E069093FC04932700
:1057000090933E0610923F064BE1481B4093600188
:10571000809140068115F9F0109240068091A9040D
:105720008115C9F08CE0E7EAF2E0DE011196019004
:105730000D928A95E1F780915F018F5F8C3308F4B9
:10574000FFC010925F0180915E018F5F8C3308F083
:10575000C1C080935E018091CA05811551F01092FD
:10576000CA054BEC55E06DEC75E08CE791E00E94CA
:1057700040168091C305811551F01092C30544EC89
:1057800055E066EC75E083E791E00E944016809159
:10579000BC05811551F01092BC054DEB55E06FEB47
:1057A00075E08AE691E00E9440168091B50581156A
:1057B00051F01092B50546EB55E068EB75E081E6D7
:1057C00091E00E944016809173018115C9F180918A
:1057D0004A0690914B06892B99F564EB70E080E0C6
:1057E00090E00E9414060E94BF02C0907401D09005
:1057F0007501E0907601F090770158EEC50E53E008
:10580000D51EE11CF11C6C157D058E059F0508F465
:105810009AC089E00E943008892B91F40E94D00C34
:105820001092A30480911B018093A40484E997E162
:105830009093A7048093A6048DE090E00E94CB0291
:105840008091A50481110E940517E091A604F091B2
:10585000A70409958091FB04811509F4EEC0C12CC1
:10586000D12C312CBEC00E94BF02603D7740810523
:10587000910508F44CCD50CD1C8E1B8E1E8E1D8EB6
:105880001A8E198E61E071E0CE0149960E94D31103
:10589000E98CFA8C61E0CE0149960E94FB11C701A8
:1058A0000E94591099CE1C8E1B8E1E8E1D8E1A8E34
:1058B000198E65EF70E0CE0149960E94D311E98CF4
:1058C000FA8C61E0CE0149960E94FB11C7010E944B
:1058D0005910A0CE10925E0180915D018F5F8831DA
:1058E00018F480935D0137CF10925D0190915A01B9
:1058F0009F5F90935A0180915B01823029F420913F
:105900005C012370211549F0FE01E80FF11D208193
:10591000291728F00E94FC021ECF2DE1F9CF91E05B
:1059200090935A018F5F8D3018F480935B01F2CF12
:1059300090935B0180915C018F5F80935C01EACF63
:1059400080935F0108CF89E00E943008892B09F419
:105950004ACF5FCFF701E05BF94F2080C7018D5040
:105960009D4F4C01DC018C91281671F1BF8DBD87D4
:10597000E8A1EE87F9A1FF872AA1288B79826A82A4
:105980005B824C822091E1028FEF820F321608F485
:10599000832D90E03091E202303131F5243021F551
:1059A000AE014F5F5F4F840F951FDC016C91610F5B
:1059B00060688AED92E00E94C004622D8AED92E058
:1059C0000E94C804F40120821F5FFFEFEF1AFF0A54
:1059D000103109F0BFCF20E1C20ED11C311009C037
:1059E000302E760110E0B6CFFE013D968E0F9F1F40
:1059F000DCCF60E08DEF94E00E9492076091FC04A0
:105A000061116091130389E695E00E94920760910D
:105A1000FC04611521F06091130381E0682783E3A2
:105A200095E00E9492078091FC04811531F08091ED
:105A3000130391E089278093130310912C0611150D
:105A400009F444C00E94BF024B015C018091220610
:105A500090912306A0912406B0912506A5019401FA
:105A6000281B390B4A0B5B0BDA01C9012091210677
:105A70002111A7C12091260630912706821793078E
:105A8000A105B10518F1EEE1F1E0E0902A06F090F1
:105A90002B06809100018C3029F4E4911E2F17FD14
:105AA0000AC083C08F3F39F48CE080930001E491F9
:105AB0001E2FEF3FC1F481E08093210680922206E1
:105AC00090922306A0922406B092250620E030E0B2
:105AD000232B09F4FACD0E94BE08811509F4F5CDF7
