:100000000C9476050C949E050C949E050C949E050C
:100010000C9486340C949E050C949E050C949E05BD
:100020000C949E050C94CD350C949E050C949E0565
:100030000C949E050C9430330C949E050C949E05F4
:100040000C949E050C949E050C94ED340C949E0526
:100050000C9435350C945B350C949E050C949E05E0
:100060000C949E050C949E050C945F330C949E0595
:100070000C9481350C94A7350C949E056364696ECD
:100080006F70737578585B0020756C6F7A656E00C1
:100090004C6F672074797023004E61706C6E656ED2
:1000A0006F206D6178207A617A6E616D752E204EB9
:1000B00045554C4F5A454E4F003D3D3D204B6F6ED0
:1000C0006563207A617A6E616D75203D3D3D0A0061
:1000D0004361733A20202020202020004461747561
:1000E0006D3A2020202020002D2D2D2D2D2D2D2D61
:1000F0002D2D2D2D2D2D2D2D2D2D2D2D2D005679E8
:10010000736C6564656B3A20204E45524F5A484FD8
:10011000444E4500526F7A64696C3A2020202000DA
:10012000566974657A3A2020202020505241564169
:1001300020445241484100526F7A64696C3A202051
:10014000202000566974657A3A20202020204C45F2
:1001500056412044524148410050726176792063F3
:1001600061733A20004C657679206361733A2020F0
:10017000002D2D2D20536F7568726E207A61766F79
:100180006475202D2D2D0052455345540043494C94
:100190000043494C2050524156412044524148416D
:1001A0000043494C204C45564120445241484100AF
:1001B0004D455A49434153005354415254000A3D5E
:1001C0003D3D205A617A6E616D207A61766F64756B
:1001D000203D3D3D001209120912091200091209C1
:1001E00012091209000000120912000000000009A3
:1001F000120900000000001E0F1E00000000000F8A
:100200001E0F000000181C1E1F1E1C1800436879DA
:100210006261206B6F6E66696775726163652064E9
:100220006973706C656A6520320043687962612089
:100230006B6F6E6669677572616365206469737060
:100240006C656A652031004B6F6E66696775726117
:10025000636520646973706C656A7500525443204D
:100260006E6572656167756A6500537461727420AA
:1002700000533E4D6F7A6E6F737469204C2F503E61
:10028000566F6C62610002000020002300260029E6
:100290000000000002030000000000000005040947
:1002A0000800000000000000000000000000000046
:1002B0000000002200250028002B0000002100245F
:1002C0000027002A000202020202020202040404C1
:1002D00004040404040303030303030303010101EF
:1002E0000101010101010204081020408001020403
:1002F0000810204080010204081020408001020400
:1003000008102040801F1C1F1E1F1E1F1F1E1F1EA7
:1003100053797374656D003E20004C3E53797374BD
:10032000656D20503E4D6F64756C00556C6F7A6939
:1003300074206E6173746176656E6900556C6F7AB6
:10034000656E6F00567970005A6170005A6F627264
:10035000617A206361732070756C7A7500507265E4
:10036000706E757469206D6F64756C75002D2D3E0F
:10037000002720616B7469766E69004D6F64756C3F
:10038000202700202068656C70202020202020205D
:1003900020202020202020202020202020202D2050
:1003A0007461746F206E61706F76656461002020E7
:1003B000696E666F20202020202020202020202011
:1003C0002020202020202020202D207A6F627261A2
:1003D0007A69207564616A65206F2068617264774C
:1003E0006172652F6669726D776172650020207099
:1003F000657266203C317C303E2020202020202069
:1004000020202020202020202D207A61702F767936
:1004100070207A6F6272617A6F76616E692072798C
:1004200063686C6F7374692070726F6772616D7549
:1004300000202072746320595959592D4D4D2D4477
:10044000442048483A4D4D3A535320202D206E61A8
:10045000737461766920636173207620525443007F
:10046000202064656C203C6D3E203C6B3E202020AB
:1004700020202020202020202020202D20736D618E
:100480007A65207A617A6E616D203C6D6F64756C5F
:100490003E203C6B6C69633E002020736574203CF9
:1004A0006D3E203C6B3E2048205B2C482C482E2E75
:1004B0002E5D20202D206E6173746176692070722C
:1004C0006F203C6D6F64756C3E203C6B6C69633EC5
:1004D00020617A20313220686F646E6F7420302D75
:1004E000323535002020736574203C6D3E203C6B16
:1004F0003E20227465787422202020202020202D88
:10050000206E6173746176692070726F203C6D6F2C
:1005100064756C3E203C6B6C69633E20617A2031CF
:1005200032207A6E616B750020206C697374205BD9
:100530006D5D205B6B5D202020202020202020206E
:100540002020202D20767970697365207A617A6E7B
:10055000616D792028767365207C206A6564656EFC
:10056000206D6F64756C207C206A656E206D6F64F1
:10057000756C2B6B6C6963000A5072696B617A79D8
:100580003A00202020204C6F67207A617A6E616DDE
:10059000753A200020202020506F636574206D6F15
:1005A00064756C753A2000290031393A35393A358D
:1005B0003200417567203237203230323500202832
:1005C000002B7635302D323058342D307832372D9F
:1005D00072746300524D5320302E337432004657EC
:1005E0003A200053616B756C2053746F706B7920E7
:1005F00076352E300048573A2000205A6164656AEB
:10060000202768656C70272E0043687962612E0090
:100610004E657A6E616D79207072696B617A2E0019
:100620004361732076205254433A20004E656E6138
:100630006C657A656E6F2E20005A617A6E616D204E
:10064000736D617A616E2E0043687962612E202895
:10065000486F646E6F74792070726573207465786A
:10066000743F290043687962612E202854657874AC
:10067000207072657320686F646E6F74793F290013
:100680004F4B2E205465787420756C6F7A656E2EF2
:1006900000436879626E792076737475702E004E0F
:1006A000616C657A656E6F3A20002D2D2D2D2D2DF4
:1006B0002D2D2D2D2D2D2D2D2D0020200000200045
:1006C0002020000020002020000020002D2D2D2DB6
:1006D0002D2D2D2D2D2D2D2D2D2D2D004D6F647596
:1006E0006C204B6C69632044617461005072696ACC
:1006F00061746F2027002D2D35352D2D2000546578
:10070000726D696E616C3A202768656C70270053C2
:10071000657269616C203131353230302F382F31BC
:10072000626974004E6173746176656E69004A6532
:1007300020746F20616C65206A656E2064656D6F42
:10074000206120646F2070616D657469206E657A28
:1007500061706973756A652E0044656D6F20646F02
:100760007374616C6F20706F6B796E20756C6F7A2B
:10077000697420737665206E6173746176656E6945
:100780002E0053746F706B7900557074696D65003D
:1007900044656D6F005B20202020202032377833A5
:1007A000376D733D3939396D732020202020205D4D
:1007B000202020204361732070726920277C27004D
:1007C0002D2D3E207465726D696E616C0044656DFF
:1007D0006F0044656D6F206B6F6E636900484F4416
:1007E000494E59005A61646F7374206F2076797096
:1007F0006973005A727573656E6F004D6572656E30
:1008000069207A727573656E6F004D657A696361F0
:1008100073004C2F503E556B6F6E63692020523E23
:100820005A72757369740053746F706B79005374E6
:100830006F706B79207370757374656E7900526593
:10084000736574203E205A7061746B790053746133
:100850007274203E205A6168616A69207A61766FFD
:10086000640053544F504B5900446C6F757A6520A7
:100870005265736574203E204D656E750052657338
:100880006574203E2046756E6B63650053544F506F
:100890004B5920532D4C5000556B6F6E63656E6F36
:1008A00000556B6F6E63656E6F005A61646F737491
:1008B000206F207679706973005A727573656E6F58
:1008C000004D6572656E69207A727573656E6F0092
:1008D0004D657A6963617300533E556B6F6E636952
:1008E00020202020523E5A72757369740053746F31
:1008F000706B790053746F706B79207370757374BB
:10090000656E79005265736574203E205A7061747B
:100910006B79005374617274203E205A6168616A79
:1009200069207A61766F640053544F504B590044EC
:100930006C6F757A65205265736574203E204D6535
:100940006E75005265736574203E2046756E6B634C
:10095000650053544F504B5920532D53004C65762E
:1009600061206472616861004C657661005072615B
:100970007661206472616861005072617661005A2C
:1009800061766F6420736B6F6E63696C004F647087
:100990006F63657420736B6F6E63696C005A727558
:1009A00073656E69206F64706F637475004F647057
:1009B0006F636574005A6168616A656E206F647068
:1009C0006F6365740052657365743E204D65726592
:1009D0006E69207A61766F64750053746172743E3B
:1009E000205A6168616A6974004F44504F4345540E
:1009F000005A61646F7374206F2076797069730098
:100A00005A61766F64207A727573656E004D6572F7
:100A1000656E69207A727573656E6F004D657A69CF
:100A2000636173005A61766F640043485942412004
:100A300053454E5A4F52553A00202D452D20004B1C
:100A40006F6E63616B79204F4B00202D452D200088
:100A5000202D452D20004348594241206B6F6E6385
:100A6000616B75005A61766F64207A6168616A65AE
:100A70006E005265736574203E205A7061746B7904
:100A8000005374617274203E205A6168616A692063
:100A90007A61766F64005A41564F4400446C6F751A
:100AA0007A65205265736574203E204D656E750031
:100AB0005265736574203E2046756E6B6365005306
:100AC000544F504B592048550050756C7A20004CBB
:100AD0006F672070726970726176656E004545506F
:100AE000524F4D20706C6E6121008E3C11241FBE50
:100AF000CFEFD0E1DEBFCDBF13E0A0E0B1E0E2E890
:100B0000F1E902C005900D92A433B107D9F727E0AF
:100B1000A4E3B3E001C01D92A837B207E1F715E0E6
:100B2000C6E7D5E004C02197FE010E94AE3DC5375F
:100B3000D107C9F70E9429360C94B3480C940000E1
:100B4000CF93DF93FC01DB015481369614968C9190
:100B500014978150990B40E0541303C0DF91CF915B
:100B6000089514962D913C9115978217930770F470
:100B70002D913C9111972115310541F0280F391F16
:100B8000E901288121934F5F0197E6CF20E0FACF5A
:100B90002FB7F8946091190770911A0780911B077D
:100BA00090911C072FBF0895CF93DF93D82FC92FA3
:100BB0000E94C80560932007709321078093220745
:100BC00090932307D0931E07C0931F0781E0809363
:100BD0007D0110921D071092740110926B0110920A
:100BE00062011092590110925001DF91CF91089546
:100BF0008FB7F894109218071092170710921607E3
:100C00009DE090934F01109215078FBF08954F926A
:100C10005F926F927F92AF92BF92CF92DF92EF92EC
:100C2000FF920F931F93CF93DF93FB01C080D1807E
:100C3000E280F380FC0180819181A281B381C81A96
:100C4000D90AEA0AFB0AC701B60128EE33E040E000
:100C500050E00E946D3D8B01C4E0D7E07D836C8342
:100C60008CE3482E512C612C712CCA01B901A301CF
:100C700092010E946D3DB62E6B83CA01B901A3019A
:100C800092010E946D3DA62E6A83C701B60120E83D
:100C90003EEE46E350E00E946D3DF9013983288322
:100CA000C90168EE73E00E94593D6E8394E6E92E17
:100CB000F12CCF01B7010E94593DCB012AE030E071
:100CC000B9010E94593D8F83CF01B9010E94593D5E
:100CD000482FCB01B9010E94593D888749874AE0D6
:100CE0008A2D642F0E944D3D8A879B878B2D0E9401
:100CF0004D3D8C879D87C801B7010E94593D6E8785
:100D0000C801B9010E94593D482FCB01B9010E9489
:100D1000593D8F87488BDF91CF911F910F91FF90A5
:100D2000EF90DF90CF90BF90AF907F906F905F90EB
:100D30004F9008958091190790911A07A0911B0771
:100D4000B0911C078093060690930706A0930806AF
:100D5000B0930906809184009091850090930506D8
:100D60008093040681E0809303060895809119071B
:100D700090911A07A0911B07B0911C078093FF0563
:100D800090930006A0930106B09302068091840020
:100D9000909185009093FE058093FD0581E08093FE
:100DA000FC0508958091190790911A07A0911B07DF
:100DB000B0911C078093F8059093F905A093FA056C
:100DC000B093FB0580918400909185009093F70586
:100DD0008093F60581E08093F505089580911907C9
:100DE00090911A07A0911B07B0911C078093F10501
:100DF0009093F205A093F305B093F40580918400DD
:100E0000909185009093F0058093EF0581E08093A9
:100E1000EE0508958091190790911A07A0911B077C
:100E2000B0911C078093EA059093EB05A093EC0525
:100E3000B093ED0580918400909185009093E90531
:100E40008093E80581E08093E7050895FA0190E03A
:100E500024E1629FB00111242191211519F0843100
:100E6000910509F40895DC01A60FB71FAC5DB84FDA
:100E70002C930196F1CFCF93DF93DA0114962C9146
:100E8000149794E1981B291708F4922FE82FF0E0AB
:100E900084E1689FE00DF11D1124EC5DF84F20E026
:100EA00030E0291718F0DF91CF91089514964D91F5
:100EB0005C9115972417350770F44D915C9111974B
:100EC0004115510541F0420F531FEA01888181937A
:100ED0002F5F3F4FE6CF80E0FACF0F931F93CF9362
:100EE000DF938C01C42F062E000C770B4AE050E0F4
:100EF00084E297E00E94D4436C2FCC0F770B4AE03A
:100F000050E08EE297E00E94D443D80114968D9170
:100F10009C91C4E1D0E0C81BD90BD695C795C431CC
:100F200028F4A80160E08C2F0E943B07DD27FE011A
:100F3000ED5DF84F80E28083D8011496ED91FC912D
:100F4000EC5DF84FEC0FFD1F8083DF91CF911F9177
:100F50000F91089542E061E00C946D0744E063E076
:100F60000C946D0746E065E00C946D0780E090E01E
:100F70000895089508950895DC01ED91FC9106848B
:100F8000F785E02D40E00994DC01ED91FC910684A9
:100F9000F785E02D41E0099581E090E00895DC01BE
:100FA00081E001C0880F6A95EAF71C968C931C9724
:100FB0001A965C934E931997ED91FC9111970484C6
:100FC000F585E02D60E0CD0109948091F1049091C8
:100FD000F004891B990B08959091F0048091F1041D
:100FE0002FEF3FEF981748F4E92FF0E0E053FB4F65
:100FF000208130E09F5F9093F004C9010895E09153
:10100000F0048091F104E81730F4F0E0E053FB4F76
:10101000808190E008958FEF9FEF089508950895DF
:1010200008952091CF04260F3327331F2132310535
:10103000ECF42091CE04FC0180E090E0243069F0D3
:1010400082E00895A091CF042191AC0142555B4FFD
:10105000A40FB52FB11D2C930196861798F380919C
:10106000CF04680F6093CF0480E0089581E0089575
:10107000CF93DF930F92CDB7DEB7FC0169838091E8
:1010800015058115F1F080911205803250F081E054
:1010900090E09383828380E090E00F90DF91CF9186
:1010A000089580911305E82FF0E0EE50FB4F9981F1
:1010B00090838F5F809313058093120581E090E009
:1010C000ECCF61E0CE0101960E941108F7CFCF92DC
:1010D000DF92EF92FF920F931F93CF93DF937C01E8
:1010E000CB018A01209115052115D9F0EB016B0187
:1010F000C40ED51ECC15DD0551F4C801DF91CF918A
:101100001F910F91FF90EF90DF90CF90089569911C
:10111000D701ED91FC910190F081E02DC701099577
:10112000E9CF642F0E941108E8CF85ED8093BC00C1
:101130008091BC0084FDFCCF1092CE0408959C01E8
:1011400050E0E5E0F3E081E08617F8F0633038F036
:10115000C90183709927892B11F44F5F5F4FC90133
:1011600003969695879596958795EDE6F1E02E9FE7
:10117000B0012F9F700D3E9F700D112461507109B9
:10118000860F971F840F951F08959491490F511D45
:101190008F5F3196D9CF1F93CF93DF93DC015296A7
:1011A0008D919C915397009751F421E030E0139674
:1011B0003C932E931297DF91CF911F9108951D9626
:1011C000ED91FC911E971C962C911C97322F309517
:1011D0007FB754964C915497142F127041FD21C043
:1011E000F894408143234083EC012197F1F748E0D4
:1011F000508160FF1BC0522B5083EC012197F1F707
:1012000066954A95A9F78081111591F08323808313
:101210007FBF52968D919C910197F1F781E090E00C
:10122000CACF6095F8944081422BDDCF5323E4CFA1
:10123000822BEDCF8FEF9FEF089580E090E008952F
:1012400008953FB7F89480916F0490917004A09135
:101250007104B091720426B5A89B05C02F3F19F008
:101260000196A11DB11D3FBFBA2FA92F982F882726
:10127000BC01CD01620F711D811D911D42E0660F01
:10128000771F881F991F4A95D1F708954F925F9253
:101290006F927F928F929F92AF92BF92CF92DF9286
:1012A000EF92FF920F931F93CF93DF938B01D82F71
:1012B000C92F0E942109262F822E972E5C016801DA
:1012C000ED2EFC2E05C0C114D104E104F10409F196
:1012D0000E9421092B013C01481859086A087B0823
:1012E0008601DE2DCF2D31E0C31AD108E108F108C7
:1012F000282D792DC50138EE830E33E0931EA11CF5
:10130000B11C38EE431633E0530661047104D8F67D
:10131000D3CFDF91CF911F910F91FF90EF90DF908E
:10132000CF90BF90AF909F908F907F906F905F9085
:101330004F9008959C01019741F0220F331F220F17
:10134000331FC90105970197F1F70895CF93DF93F4
:10135000EC01423018F08C8188608C834F83688761
:10136000211529F0413019F48C8184608C8364E666
:1013700070E080E090E00E9446096C8164FD5BC0F3
:10138000E881F9810684F785E02D42E063E0CE0133
:10139000099584E991E10E949A09E881F98106841E
:1013A000F785E02D42E063E0CE01099586E990E003
:1013B0000E949A09E881F9810684F785E02D42E0D0
:1013C00063E0CE01099586E990E00E949A09E881E0
:1013D000F9810684F785E02D42E062E0CE010995AF
:1013E00086E990E00E949A096C816062CE010E94B9
:1013F000BC078CE390E00E949A0984E08D836CE046
:10140000CE010E94BC0761E0CE010E94BC0780EDC6
:1014100097E00E949A0982E08E8366E0CE010E94E6
:10142000BC07E881F9810484F585E02D6FEFCE01DA
:10143000DF91CF9109946062CE010E94BC0784E9DC
:1014400091E10E949A096C816062CE010E94BC0702
:1014500086E990E00E949A096C816062CE010E9448
:10146000BC07BECFCF93DF9390E0FC01EB51FD4F63
:1014700024918B539D4FFC0184918115D1F090E014
:10148000880F991FFC01E554FD4FA591B591FC0112
:10149000EF54FD4FC591D5919FB7623069F4F89430
:1014A0003C91822F809583238C938881822B888323
:1014B0009FBFDF91CF910895F8948C91822B8C93EC
:1014C000F7CF853099F038F4833011F1843041F052
:1014D0008230D1F00895883069F0893089F008951C
:1014E000809180008F7780938000089580918000A4
:1014F0008F7DF9CF8091B0008F778093B0000895F1
:101500008091B0008F7DF9CF84B58F7784BD089529
:1015100084B58F7DFBCF1F93CF93DF93162F282F9A
:1015200030E0F901EF56FD4F8491F901EB51FD4F89
:10153000D491F901EB53FD4FC491C115A1F0811174
:101540000E94610AEC2FF0E0EE0FFF1FEF54FD4FF9
:10155000A591B5919FB7F8948C91111108C0D095C1
:10156000D823DC939FBFDF91CF911F9108958D2BDE
:101570008C93F8CFDF92EF92FF920F931F93CF934C
:10158000DF938C01D62ED0E0F8018481D81740F08B
:10159000DF91CF911F910F91FF90EF90DF90089511
:1015A0007801ED0EF11CF701C68186898C1302C00B
:1015B000D114E9F19EE0C534C9F07CF4C03219F0D1
:1015C00024F4C11108C090E011C080ED8C0F91EDA2
:1015D0009C0F8A3058F09FE009C09CE0C03531F084
:1015E0009DE0C53519F09BE0CC34A9F7F801A08146
:1015F000B18162818381680F6D0F9295907F690F31
:10160000ED91FC9111970190F081E02DCD010995AC
:10161000D1110AC0F8018581811531F061E0C03235
:1016200009F460E00E948B0AF7018681868BDF5FF8
:10163000ABCF60E08FE00E948B0A60E082E10C9407
:101640008B0ACF93DF93282F30E0F901EF56FD4F3F
:101650008491F901EB51FD4FD491F901EB53FD4F0A
:10166000C491C11581F081110E94610AEC2FF0E054
:10167000EE0FFF1FE957FD4FA591B591EC91ED23BA
:1016800081E0E11101C080E090E0DF91CF91089509
:10169000FC01A48DA80FB92FB11DA35ABF4F2C91E7
:1016A000848D90E001968F739927848FA689B789DE
:1016B0002C93A089B1898C91837080648C93938DD5
:1016C000848D981306C00288F389E02D80818F7D78
:1016D00080830895FC01818D228D90E0805C9F4F76
:1016E000821B91098F73992708958AE096E00E94E2
:1016F0006A0B9C0181E0232B09F480E0089582EDC0
:1017000093E00E946A0B9C0181E0232B09F480E0A6
:10171000089580E090E0892B29F00E94750B8111DB
:101720000E94000080E090E0892B29F00E947F0B4E
:1017300081110C9400000895FC01918D828D981701
:1017400031F0828DE80FF11D858D90E008958FEFC7
:101750009FEF0895FC01918D828D981761F0A28D05
:10176000AE0FBF2FB11D5D968C91928D9F5F9F73C1
:10177000928F90E008958FEF9FEF0895FC01538DB5
:10178000448D842F90E0252F30E0821B930B54175B
:1017900010F0CF96089501970895CF93DF93EC0151
:1017A000888D81110FC0DF91CF9108950FB607FC8E
:1017B0000DC08C9185FF0AC0808185FF07C0CE01D6
:1017C0000E94480BAA89BB89E889F9898C9185FD1B
:1017D000EDCF808186FFEACFE6CFEF92FF920F93A5
:1017E0001F93CF93DF93EC01F62E81E0888F9B8DC2
:1017F0008C8D98131AC0E889F989808185FF15C0FE
:101800009FB7F894EE89FF896083E889F989808120
:101810008370806480839FBF81E090E0DF91CF91EF
:101820001F910F91FF90EF9008950B8D10E00F5FC7
:101830001F4F0F731127E02E8C8D8E1579F0EB8DD5
:10184000EC0FFD2FF11DE35AFF4FF0829FB7F89484
:101850000B8FEA89FB8980818062DCCF0FB607FCA1
:10186000EBCFE889F989808185FFE6CFCE010E9420
:10187000480BE2CFFC01A089B1898C91A689B78978
:1018800082FD0FC09C91818D8F5F8F73228D821797
:1018900049F0A18DAE0FBF2FB11D5D969C93818F36
:1018A00008958C910895CF92DF92EF92FF920F935B
:1018B0001F93CF93DF937C016A0100E010E00C15C9
:1018C0001D0551F4C801DF91CF911F910F91FF9039
:1018D000EF90DF90CF900895EB01D701ED91FC914F
:1018E0000190F081E02D6991C7010995892B51F391
:1018F0000F5F1F4FBE01E3CF9091000189130EC00F
:10190000E6E8F2E0E4919FEF90930001E13049F0C6
:10191000E23069F0E11102C010926E0060E00C94B8
:101920008B0A90916F009D7F90936F00F7CF9091FD
:1019300070009D7F9093700091E09093B000909123
:10194000B100987F94609093B1001092B300E6CFFD
:101950008093030770930207609301075093000779
:101960004093FF063093FE062093FD060E94C805B3
:101970006093F9067093FA068093FB069093FC0639
:101980001092F8068CE00C947C0C20E030E040E5EE
:1019900050E064EC79E081E00C94A80C0F931F9365
:1019A0002FB7F8948091740490917504A0917604F7
:1019B000B09177042FBF8093120690931306A093E3
:1019C0001406B09315068AE096E00E94AA0B8F3F9A
:1019D000980721F52FB7F89440917404509175043D
:1019E00060917604709177042FBF009112061091D8
:1019F00013062091140630911506401B510B620B03
:101A0000730B00910E0610910F0620911006309175
:101A100011064017510762077307A8F21F910F9133
:101A2000089590B190937C04EBE6F0E09081982BC0
:101A30009083E8E6F0E08081816080830895FC0176
:101A4000AC01425F5F4F8FEF9FEF2191922728E01B
:101A5000BC01880F991F77FF04C031E2832730E172
:101A600093272A95A9F74E175F0779F70895CF9323
:101A7000DF93EC010E941F0D9C0181E04E855F8584
:101A80004217530709F080E0DF91CF91089520912C
:101A90000407309105072115310509F458C09091CC
:101AA0000A07911509F44DC0905D90933A01909109
:101AB0000B07911509F447C0905D90933B019091FD
:101AC0000C07911509F441C0905D90933C019091F1
:101AD0000D07905D4AE390933D0140933E01909144
:101AE0000E07911102C0232B11F080E3890F809320
:101AF0003F0180910F07805D809340018091120724
:101B000090E2853008F49AE3909341019091100798
:101B1000905D9093420190911107905D90934301E5
:101B20009EE290934401805D80934501809113076C
:101B3000805D8093460180911407805D809347010A
:101B40000895982FB2CF982FB8CF982FBECF8093FB
:101B50003A0180933B0180933C01982F482FBBCFE3
:101B600040E550E060E270E084E297E00C94D443FA
:101B700024E1829FC001112444E150E060E270E062
:101B80008C5D984F0C94D443CF93DF939C010696C1
:101B9000F901C481C20FD32FD11D6F71A62F660F1B
:101BA000BB0BA75CBE4F2C173D0719F4DF91CF91FB
:101BB0000895EDA1EA3331F44C91FC014193CF013A
:101BC0002197F1CFEF710E2E000CFF0BE75CFE4F5B
:101BD0004081F3CFCF93C82F80E20E94470DC115FB
:101BE00019F08AE3809341014AE351E063E086E023
:101BF0000E942607C091E6056C2F8FE295E00E94B7
:101C0000C40D6C2F85E695E0CF910C94C40DFC01BA
:101C100044815581608171818AE096E00C94530C77
:101C20002F923F924F925F926F927F928F929F92EC
:101C3000AF92BF92CF92DF92EF92FF920F931F93DA
:101C4000CF93DF936C012B017A0100E010E0332485
:101C5000339480ED682E84E0782E95EC292ED60101
:101C600014968D919C91E701C01BD10B8C179D0799
:101C700008F4EC0121E0C7018C1B9D0B0817190724
:101C800008F420E0F60190818C2FC13208F080E248
:101C90003091CE043111FCCF3092CE042093A804B1
:101CA000FFEFF093A6047092AA046092A904109228
:101CB000AC042FEF280F2093AB043092AD04209199
:101CC000AD04990F922B9093AD049091A70491309D
:101CD000F1F51092A7049091AD049093BB00909100
:101CE000BC0093FDF8CF2092BC009091CE049130BF
:101CF000E1F39091AC04981710F48091AC04109229
:101D0000F0048093F1048C171D0671F44201800EDB
:101D1000911EA12CB12CCA15DB05E9F40C0F1D1F77
:101D20000E151F0508F49BCFDF91CF911F910F91E6
:101D3000FF90EF90DF90CF90BF90AF909F908F90EB
:101D40007F906F905F904F903F902F90089525EE79
:101D50002093BC00CACFD60111968D919C91DC01D5
:101D6000ED91FC910284F385E02D0995F4018193B6
:101D70004F01FFEFAF1ABF0ACECF0F931F93CF9340
:101D8000DF938C01EB01FE0164912196611521F036
:101D9000C8010E94ED0BF7CFDF91CF911F910F91FA
:101DA00008950C94ED0B282F3091120581E031320B
:101DB00008F042C08091CE048111FCCF90911405AF
:101DC00042E04093CE042093A8042FEF2093A60472
:101DD00042EF54E05093AA044093A9041092AC043B
:101DE0003093AB041092AD042091AD04990F922B67
:101DF0009093AD049091A704913029F51092A70417
:101E00009091AD049093BB009091BC0093FDF8CFEE
:101E100095EC9093BC009091CE049230E1F39091B8
:101E2000A6049F3F49F08091A604803271F0809112
:101E3000A604803361F483E010921305109212051A
:101E400010921505089595EEE4CF82E0F5CF84E079
:101E5000F3CF1092F0041092F10410921305109237
:101E600012051092CE0481E08093A8041092A7047A
:101E700061E081E10E948B0A61E080E10E948B0AAF
:101E8000E9EBF0E080818E7F808380818D7F80838D
:101E900088E48093B80085E48093BC0080E198E0FA
:101EA00090938104809380048FE098E09093840461
:101EB000809383040895CF93DF93EC018B81811588
:101EC000A1F0888191E090931505809314051092FC
:101ED00013051092120581E00E94D30E982F81E025
:101EE000911180E0DF91CF9108950E94290F81E048
:101EF0008B83CE010E945B0F8111E3CFF3CFFC01F6
:101F000083818115A1F08181682B6083828191E0BA
:101F100090931505809314051092130510921205E5
:101F200086E195E00E94380881E00C94D30E089574
:101F3000EF92FF920F931F93CF93DF93EC01162F35
:101F4000042FF22E8B85888B0E94290F8889EE241E
:101F5000E394E092150580931405109213051092F6
:101F6000120581E00E94D30E811111C0E98A86E139
:101F700095E00E94EC078E878989811549F01F86BC
:101F80001C8260E0CE010E960E947F0F01C0198A6C
:101F90002F2D402F612FCE01DF91CF911F910F91F7
:101FA000FF90EF900C94A609FC01862F64856115C3
:101FB00099F0218532852115310521F4811107C061
:101FC00060E005C021303105D9F78111F9CF65876F
:101FD000CF010E960C947F0F0895EF92FF921F93FE
:101FE000CF93DF93EC01FC019C012C5F3F4F80E01D
:101FF00060FF02C09589892B66953196E217F30739
:10200000B9F7413009F44C899D85892B142F182B81
:102010007E018EE0E80EF11C6A89612BC7010E94E7
:102020007F0F6A8960956123C701DF91CF911F916E
:10203000FF90EF900C947F0F0F931F93CF93DF933C
:10204000D82FC92F142F062F0F7040E0123031F017
:1020500062956F70412F0E94ED0F412F602F8D2FE1
:102060009C2FDF91CF911F910F910C94ED0FEF9268
:10207000FF920F931F93CF93DF9390E1899F80018D
:102080001124EB01CB0140967C01C8010E94354729
:1020900089930F5F1F4FCE15DF05B9F7DF91CF9101
:1020A0001F910F91FF90EF900895DF92EF92FF92B2
:1020B0000F931F93CF93DF93CDB7DEB760970FB623
:1020C000F894DEBF0FBECDBF082FF62EE42ED52E1E
:1020D00011E0BE016F5F7F4F8FEF810F0E943710BD
:1020E000CE0101960E94370D8115F1F09981901370
:1020F0001BC09A819F77F91217C09CE0FE013396AE
:10210000AE2DBD2D01900D929A95E1F760960FB618
:10211000F894DEBF0FBECDBFDF91CF911F910F911D
:10212000FF90EF90DF9008951F5F103491F680E0EC
:10213000EDCFCF92DF92FF920F931F93CF93DF9358
:1021400090E1899F80011124EB01CB0140966C0145
:10215000F990C8010E943547F81621F06F2DC8018B
:102160000E943D470F5F1F4FCC15DD0589F7DF91BA
:10217000CF911F910F91FF90DF90CF9008951F9303
:10218000CF93DF93FC01EA01122F8481958184179C
:10219000950710F480E01DC0808191E090931505B3
:1021A000809314051092130510921205818192817B
:1021B000DC01ED91FC910280F381E02D0995C817B7
:1021C000D90741F7812F0E94D30E982F81E09111FA
:1021D000E1CFDF91CF911F910895EF92FF920F937E
:1021E0001F93CF93DF9300D000D000D00F92CDB7D4
:1021F000DEB78C011982E0902805F090290520E0D7
:1022000041E050E0BE016F5F7F4FC7010E94BF10E9
:10221000811541F047E050E0BE016F5F7F4FC7017D
:102220000E94100E99819F773A814B815D812E81AA
:102230002F776F81862F82958F70782F770F770F8A
:10224000871B880F860FF8018083822F82958F70FD
:10225000682F660F660F861B880F820F8183852F7C
:1022600082958F70282F220F220F821B880F850FD7
:102270008283842F82958F70282F220F220F821B3A
:10228000880F840F8383832F82958F70282F220FCE
:10229000220F821B880F830F8483892F82958F7072
:1022A000282F220F220F821B880F890F8583C801D8
:1022B00027960FB6F894DEBF0FBECDBFDF91CF914A
:1022C0001F910F91FF90EF900895DF92EF92FF9290
:1022D0000F931F93CF93DF9300D000D000D0CDB7E2
:1022E000DEB78C01CE0101960E94ED10EA80FB80E2
:1022F000FE24EF24FE24D9804B816A818D2D90E04D
:102300000E949F08069667E070E00E94593DF80120
:102310008083F282E182D3828C8184838D81858364
:102320008E8186830F900F900F900F900F900F90DB
:10233000DF91CF911F910F91FF90EF90DF90089563
:10234000CF93DF93EC0188819981009711F00E946F
:102350008442198218821D821C821B821A82DF919C
:10236000CF910895009711F00C94844208950F9333
:102370001F93CF93DF93EC018B01888199810097A4
:1023800029F02A813B812617370790F4B8016F5F47
:102390007F4F0E941543FC0180E0309751F0F98394
:1023A000E8831B830A838C819D81892B09F4108229
:1023B00081E0DF91CF911F910F910895DC01FB0126
:1023C0004481558114968D919C911597841795079A
:1023D00078F08D919C91009759F060817181611521
:1023E000710531F00E94F6439C0181E0232B09F036
:1023F00080E00895AF92BF92CF92DF92EF92FF926A
:102400000F931F93CF93DF938C01DC01ED90FC9031
:102410001197E114F104B9F11496CD91DC91209754
:1024200091F157016501F50181915F01082E000CC2
:10243000990B0E941A40892BA9F72197CE0DDF1D19
:102440008881082E000C990B0E941A40892B31F5C7
:10245000AE014F5F5F4F4C195D09D80115965C9333
:102460004E931497EC14FD0420F4B601C7010E94AA
:10247000CB43D801ED91FC91119714968D919C91CD
:10248000E80FF91F1082DF91CF911F910F91FF90FC
:10249000EF90DF90CF90BF90AF900895CC15DD0501
:1024A000B8F22197CDCFEF92FF920F931F93CF9366
:1024B000DF93EC017B01FB0101900020E9F73197EC
:1024C0008F01061B170BB8010E94B711811109C0BB
:1024D000CE01DF91CF911F910F91FF90EF900C945F
:1024E000A0111D830C83B70188819981DF91CF9161
:1024F0001F910F91FF90EF900C94EF43FB01EF2B96
:1025000051F0DB010D900020E9F71197AD01461B5A
:10251000570B0C94530C08956F927F928F929F9259
:10252000AF92BF92CF92DF92EF92FF920F931F93E1
:10253000CF93DF93CDB7DEB7A1970FB6F894DEBF88
:102540000FBECDBF3C01142F052F962E872E19A24A
:10255000223008F42AE05E0181E2A80EB11CC22EEE
:10256000D12CE12CF12C612F702F892D982DA701F2
:1025700096010E946D3D812F902FA92DB82D122F0D
:10258000032F942E852E6A3014F5605DF501629359
:102590005F018C159D05AE05BF0528F7BF01C3017E
:1025A0000E947E12A1960FB6F894DEBF0FBECDBF7B
:1025B000DF91CF911F910F91FF90EF90DF90CF901F
:1025C000BF90AF909F908F907F906F900895695CBF
:1025D000DDCF482F50E060E070E02AE08AE096E02E
:1025E0000C948C1268E572E00C947E121F93CF93CA
:1025F000DF93D62FC72F142F0E94070E67E173E0D9
:102600008AE096E00E94BD0E8D2F9C2F111549F097
:102610000E94070E8AE096E0DF91CF911F910C9403
:10262000F212DF91CF911F910C94070ECF92DF929F
:10263000FF920F931F93CF93DF9300D000D000D071
:10264000CDB7DEB78C01F62E2091110180E1289FD5
:10265000B001112469527E4F1C821B821E821D8292
:102660001A821982CE0101960E945312C980DA8023
:102670004F2DB801CE0101960E94F612C6010F90AF
:102680000F900F900F900F900F90DF91CF911F91AF
:102690000F91FF90DF90CF900C94B211CF93DF9306
:1026A000D82FC92F0E947E128D2F9C2FDF91CF91A2
:1026B0000C94F212CF93DF93D82FC92F0E94BD0E36
:1026C0008D2F9C2FDF91CF910C94F2120C947E12DF
:1026D0000F931F93CF93DF93CDB7DEB762970FB6FB
:1026E000F894DEBF0FBECDBF6F87788B898B9A8B36
:1026F000042F122F1B861C861D861E86BE01615F5D
:102700007F4FCE010B960E94070680E30E94470D83
:10271000111531F06BE572E08AE096E00E946613D5
:10272000011599F080913B01898380913C018A8356
:1027300080913D018B838AE38C831D82BE016F5F94
:102740007F4F8AE096E00E94661380913F01898363
:10275000809140018A838AE38B83809142018C833C
:10276000809143018D838EE28E83809145018F831A
:102770008091460188878091470189871A86BE012A
:102780006F5F7F4F8AE096E00E946613111531F06B
:102790006EE572E08AE096E00E94661362960FB6DC
:1027A000F894DEBF0FBECDBFDF91CF911F910F9187
:1027B0000895EF92FF920F931F93CF93DF93EC0155
:1027C0008B016115710569F0FB0101900020E9F7AB
:1027D00031977F01E61AF70AB7010E94B7118111FC
:1027E00009C0CE01DF91CF911F910F91FF90EF9023
:1027F0000C94A011FD82EC82B80188819981DF914F
:10280000CF911F910F91FF90EF900C94EF43FC013B
:10281000448150E060E270E006960C94D443CF937C
:10282000DF93C091DC05D091DD0567ED75E083EDA8
:1028300095E0209721F062EE75E08EED95E00E9424
:10284000070680E20E94470D219731F44AE351E0E8
:1028500062E08AE00E9426078BE995E00E94071457
:10286000C091E6056C2F85E695E00E94C40D6C2FA3
:102870008FE295E0DF91CF910C94C40D8F929F92DF
:10288000AF92BF92CF92DF92EF92FF920F931F937E
:10289000CF93DF936B017C01A7019601C701B601BD
:1028A0000E94AE4860E672E0811114C0C701B60113
:1028B0000E94A44864E672E0892B61F42FEF3FEF99
:1028C0004FE75FE4C701B6010E949F48181694F4D1
:1028D00068E672E08AE096E0DF91CF911F910F9158
:1028E000FF90EF90DF90CF90BF90AF909F908F9030
:1028F0000C947E122FEF3FEF4FE75FECC701B6015C
:102900000E94C74087FDE4CF20E030E0A901C70165
:10291000B6010E94C74087FF09C06DE28AE096E0D9
:102920000E94D10EF7FAF094F7F8F0942EE632E117
:1029300043E05AE3C701B6010E9492476B017C0154
:102940000E9470488B01D82FC92F0E94CC409B0158
:10295000AC01B601C7010E9491476B017C012AE0DE
:10296000A8016D2F7C2F8AE096E00E948C126EE207
:102970008AE096E00E94D10EC3E020E030E040E221
:1029800051E4B601C7010E942D41F62E072F182FE2
:10299000D92F0E9470484B01A12CB12C2AE0B5011F
:1029A000A4018AE096E00E948C12C501B4010E9445
:1029B000CC409B01AC016F2D702F812F9D2F0E9469
:1029C00091476B017C01CA95C1F6DF91CF911F91B0
:1029D0000F91FF90EF90DF90CF90BF90AF909F90BE
:1029E0008F9008952F923F924F925F926F927F92B5
:1029F0008F929F92AF92BF92CF92DF92EF92FF920F
:102A00000F931F93CF93DF93CDB7DEB76B970FB6BE
:102A1000F894DEBF0FBECDBF6EEB71E08AE096E0AA
:102A20000E945A132091A70608EA16E0F80180E0F8
:102A3000412C512C3201C12CD12C760188248A944E
:102A4000982C540182133CC12FEF82169206A206E5
:102A5000B206C1F0D701C601C414D504E604F704D8
:102A600010F4D301C2010097A105B10559F08819EE
:102A70009909AA09BB0931E03B8B8F379E4EA643CB
:102A8000B10508F41B8A212C312C8091A706281649
:102A9000310408F42DC12FEF82169206A206B20669
:102AA00009F47EC0C114D104E104F10409F478C032
:102AB000411451046104710409F472C0D701C601C4
:102AC00088199909AA09BB098C8B9D8BAE8BBF8B8A
:102AD000A3019201281939094A095B09288F398F06
:102AE0004A8F5B8F8AE096E00E94F21261E771E004
:102AF0008AE096E00E945A1365E671E08AE096E06B
:102B00000E94BD0E20E04B896C897D898E899F894A
:102B10000E9468138AE096E00E94F21269E571E073
:102B20008AE096E00E94BD0E20E04B89688D798D89
:102B30008A8D9B8D0E9468138AE096E00E94F212B3
:102B40008C899D89AE89BF89288D398D4A8D5B8D91
:102B500082179307A407B50708F00BC163E471E07F
:102B60008AE096E00E945A1367E371E08AE096E0FB
:102B70000E94BD0EC301B2016C197D098E099F0927
:102B80000E94CC4020E030E04AE754E40E94FE4737
:102B90000E943E146CE672E08AE096E00E944E13BA
:102BA00068EE70E08AE096E00E945A13CE010C961F
:102BB0000E9465118D851AE0612F0E944D3D805D58
:102BC0008983905D9A832EE22B838E850E944D3DF2
:102BD000805D8C83905D9D832E832F8530E0205314
:102BE000384F82E38F83C90164E670E00E94593D4B
:102BF000CB01EAE0F0E0BF010E94593D805D88878B
:102C0000C901BF010E94593D282FCB01BF010E947D
:102C1000593D805D8987205D2A871B866CED70E0B9
:102C20008AE096E00E94BD0EBE016F5F7F4F8AE092
:102C300096E00E944E138889612F0E944D3D805D71
:102C40008983905D9A832AE32B8389890E944D3D75
:102C5000805D8C83905D9D832E838A890E944D3D8B
:102C6000805D8F83905D9887198660ED70E08AE0C3
:102C700096E00E94BD0EBE016F5F7F4F8AE096E036
:102C80000E944E1369EB70E08AE096E06B960FB6F7
:102C9000F894DEBF0FBECDBFDF91CF911F910F9192
:102CA000FF90EF90DF90CF90BF90AF909F908F906C
:102CB0007F906F905F904F903F902F900C945A139D
:102CC0009481913039F480809180A280B3808F5FAD
:102CD0003596B8CE933029F4C080D180E280F3805D
:102CE000F6CF9430A1F74080518062807380EFCF9F
:102CF000D8016D917D918D919C91681979098A090E
:102D00009B0921E04B890E94681364E872E08AE025
:102D100096E00E946613F8018481843021F190F4DA
:102D20008230D9F08330E1F068EB71E0813081F0DE
:102D30008AE096E00E94F212FFEF2F1A3F0A0B5F23
:102D40001F4FA3CE853091F067E871E0863081F7A0
:102D50008AE096E00E94BD0EEBCF60EB71E0F8CF09
:102D600061EA71E0F5CF61E971E0F2CF6DE871E001
:102D7000EFCF888D998DAA8DBB8D2C893D894E8989
:102D80005F8982179307A407B50798F460E271E0A2
:102D90008AE096E00E945A1364E171E08AE096E0CE
:102DA0000E94BD0EC701B60164197509860997090D
:102DB000E7CE6EEF70E08AE096E00E945A13F0CE04
:102DC000EF92FF920F931F93CF93DF93EC018B0150
:102DD000CB010E94093E7C01BC01CE010E94B711CB
:102DE000811109C0CE01DF91CF911F910F91FF900A
:102DF000EF900C94A011EC82FD82B801888199813A
:102E0000DF91CF911F910F91FF90EF900C94023EB4
:102E10000F931F93CF93DF9300D000D000D0CDB796
:102E2000DEB7ECEDF5E082E090E0918380838BE605
:102E3000828762EE75E08EED95E00E94070681E0E4
:102E40000E94EA0D1C821B821E821D821A82198238
:102E500068E978E0CE0101960E94E01609811A81A6
:102E6000CE0101960E94AE07C8010E94B21184E013
:102E700090E00F900F900F900F900F900F90DF91B8
:102E8000CF911F910F910C94D4054F925F926F9246
:102E90007F928F929F92AF92BF92CF92DF92EF92EA
:102EA000FF920F931F93CF93DF93CDB7DEB76D974C
:102EB0000FB6F894DEBF0FBECDBF80911E07909174
:102EC0001F0789309105B1F18A309105C9F0892B2E
:102ED000A1F16D960FB6F894DEBF0FBECDBFDF91A6
:102EE000CF911F910F91FF90EF90DF90CF90BF9007
:102EF000AF909F908F907F906F905F904F900895CC
:102F00008CE090E06D960FB6F894DEBF0FBECDBF9B
:102F1000DF91CF911F910F91FF90EF90DF90CF90B5
:102F2000BF90AF909F908F907F906F905F904F90E9
:102F30000C94D40580E090E0E5CF80917D0181156F
:102F400029F110927D010E94B00D1C821B821E820D
:102F50001D821A8219826DED77E0CE0101960E94E2
:102F6000E01609811A81CE0101960E94AA07C801C4
:102F70000E94B2118BE995E00E94071485E695E066
:102F80000E9407148FE295E00E94071480912D059E
:102F9000811509F49ECFCE0147960E9465112B8DB5
:102FA00010E22A3030F0822F6AE00E944D3D10E39B
:102FB000180F19838AE0B82E822F6B2D0E944D3D89
:102FC00020E3622E690E6A822AE32B838C8D0E9495
:102FD0004D3D30E3732E780E7C8200E3090F0D83A4
:102FE0002E838D8D0E944D3D40E3E42EE80EEF824E
:102FF00050E3F52EF90EF8861986CE0101966C0184
:10300000AC0162E086E00E9426078F8990E0FC0117
:10301000EE0FFF1FE80FF91FEA5CFD4F80818983E7
:1030200081818A8380E28B838C83288D80E22A30A1
:1030300028F0822F6B2D0E944D3D805D8D833AE0FC
:10304000822F632F0E944D3D905D9E838EE28F8381
:10305000298D80E22A3020F0822F0E944D3D805D34
:1030600088873AE0822F632F0E944D3D905D9987BB
:103070008EE28A8782E38B8780E38C878A8D0E9429
:103080004D3D292F0E944D3D905D9D87205D2E87EF
:103090001F86A60163E083E00E94260719836A82E7
:1030A0007B820C83ED82FE828AE38F835E0198E04F
:1030B000A90EB11C7E01E0E1EE0EF11CD701F50175
:1030C00027014F0182918D93CE16DF06D1F74091F3
:1030D000330550E0B20185E395E00E94CB4380E2E6
:1030E00089838A831B836C827D820E83C501F501EF
:1030F00022915F01F70121937F0188169906B1F7AC
:1031000040919F0550E0B20181EA95E00E94CB43D7
:10311000E0CE0F931F93CF93DF9300D000D000D069
:10312000CDB7DEB780911E0790911F078A309105B9
:1031300061F188F4009709F4B4C0099709F449C013
:103140000F900F900F900F900F900F90DF91CF91F5
:103150001F910F9108950B9799F769E577E08AE041
:1031600096E00E945A136EE277E08AE096E00E94B1
:103170005A130F900F900F900F900F900F90DF91B8
:10318000CF911F910F910C94C50C1C821B821E8243
:103190001D821A82198262ED77E0CE0101960E94AB
:1031A000E01609811A8161E0CE0101960E94161392
:1031B000C8010E94B2118CE090E00F900F900F9028
:1031C0000F900F900F90DF91CF911F910F910C9462
:1031D000D4050E94B00D1C821B821E821D821A82A1
:1031E00019826DEC77E0CE0101960E94E01609810C
:1031F0001A81CE0101960E94AA07C8010E94B2114D
:103200001C821B821E821D821A82198260EC77E06A
:10321000CE0101960E94E01609811A81AE014F5F2E
:103220005F4F63E084E00E943B07C8010E94B21137
:103230004091330550E061E572E085E595E00E943C
:10324000CB4340919F0550E062E271E081EC95E054
:103250000E94CB434091690550E062E171E08BE848
:1032600095E00E94CB430E94F8050E94C805609338
:10327000D7057093D8058093D9059093DA051092FD
:10328000D3051092D4051092D5051092D605109250
:10329000D2051092D1058BE68093DB0580E090E0AB
:1032A0008CCF80917D01811561F010927D018AE0C3
:1032B00096E00E94F21265E977E08AE096E00E94CB
:1032C0005A1380917401811191C080916B01811119
:1032D000B7C080916201811571F01092620181E0A6
:1032E00080932B0524E630E040E550E060ED77E088
:1032F00083E00E94A80C80915901811531F0109251
:10330000590110922B050E94C50C80912D05811149
:1033100005C080912B05811509F44AC00E94C8059B
:103320006093D7057093D8058093D9059093DA05FB
:1033300067ED75E083ED95E00E94070680E20E944C
:10334000470D4AE351E061E086E00E942607809144
:10335000D1059091D2051C821B821E821D821A8289
:10336000198269E877E0892B11F062E877E0CE01F5
:1033700001960E94E01609811A81AE014F5F5F4FEE
:1033800061E080E00E943B07C8010E94B2111091E9
:10339000DB05612F8BE995E00E94C40D612F85E666
:1033A00095E00E94C40D612F8FE295E00E94C40D4C
:1033B00080912E05811509F463C08AE38093410151
:1033C0006FE672E08AE096E00E9466136AE371E0BD
:1033D0008AE096E00F900F900F900F900F900F9053
:1033E000DF91CF911F910F910C944E1310927401A5
:1033F0008091750190917601A0917701B09178014B
:103400008093D3059093D405A093D505B093D605AA
:1034100081E090E09093D2058093D10588E6809377
:10342000DB050E94F80528E933E040E550E06CED4B
:1034300075E083E00E94A80C81E080937D0180CE3E
:1034400010926B0180912C0591E0892780932C05C7
:103450001C821B821E821D821A82198260E977E01B
:10346000CE0101960E94E01609811A81CE010196D3
:103470000E94AA07C8010E94B2110E94C50C29CF60
:1034800080912A0565E173E0811107C080912D05C7
:10349000811509F455CE6DE073E08AE096E00F9057
:1034A0000F900F900F900F900F90DF91CF911F9181
:1034B0000F910C9466130F931F93CF93DF9300D05B
:1034C00000D000D0CDB7DEB70E94B00D1C821B82A9
:1034D0001E821D821A82198264E277E0CE01019673
:1034E0000E94E01609811A81CE0101960E94AA0766
:1034F000C8010E94B2111C821B821E821D821A8288
:1035000019826FE077E0CE0101960E94E0160981F2
:103510001A81AE014F5F5F4F62E080E00E943B077F
:10352000C8010E94B2111C821B821E821D821A8257
:1035300019826EEF76E0CE0101960E94E0160981B5
:103540001A81AE014F5F5F4F63E082E00E943B074C
:10355000C8010E94B2111C821B821E821D821A8227
:10356000198266EF76E0CE0101960E94E01609818D
:103570001A81BE016F5F7F4F8FE295E00E94A00528
:10358000C8010E94B2118BE995E00E94071485E6FC
:1035900095E00F900F900F900F900F900F90DF918C
:1035A000CF911F910F910C940714CF92DF92FF924D
:1035B0000F931F93CF93DF9300D000D000D0CDB7EF
:1035C000DEB78C01F62E1C821B821E821D821A829F
:1035D000198260E173E0CE0101960E94E016C98075
:1035E000DA804F2DB801CE0101960E94F612C60175
:1035F0000F900F900F900F900F900F90DF91CF9141
:103600001F910F91FF90DF90CF900C94B2117F9299
:103610008F929F92AF92BF92CF92DF92EF92FF92E2
:103620000F931F93CF93DF93CDB7DEB766970FB697
:10363000F894DEBF0FBECDBF982EB62E742E852E09
:10364000A12C8E010F5F1F4FC982DA82B8018A2D2B
:103650000E943710C980DA80C8010E94370D7801B6
:10366000811579F19C102DC08D2D8F77B81229C04E
:10367000BD1083C08CE0E72DF82DDE01139601907C
:103680000D928A95E1F7C8010E941F0D988B8F87D4
:10369000B8018A2D0E94991081E066960FB6F894C1
:1036A000DEBF0FBECDBFDF91CF911F910F91FF9075
:1036B000EF90DF90CF90BF90AF909F908F907F90D2
:1036C0000895A39480E4A812BFCF10E0C982DA82E3
:1036D000B701812F0E943710C980DA80C7010E948C
:1036E000370D8115B9F01F5F103481F700E0C982F2
:1036F000DA82B701802F0E943710C980DA80C701B3
:103700000E94370D811511F0C7FC1AC00F5F0034FD
:1037100071F71FEF0FEF8CE0E72DF82DDE01139608
:1037200001900D928A95E1F79982BA82C7010E94B1
:103730001F0D988B8F871F3F29F0B701812FAACFCC
:103740001FEFE9CFB701802F0F3F09F0A3CF1C8AED
:103750001B8A1E8A1D8A1A8A198A6DED7AE0CE01AB
:1037600041960E94E01609891A8961E0CE014196CE
:103770000E94D51AC8010E94B21180E08ECF2F920C
:103780003F924F925F926F927F928F929F92AF92F1
:10379000BF92CF92DF92EF92FF920F931F93CF933E
:1037A000DF93CDB7DEB7C054D1090FB6F894DEBFB2
:1037B0000FBECDBF80911E0790911F078C309105E1
:1037C00069F08A30910521F58FE295E00E94071497
:1037D0008CE090E090931F0780931E07C05CDF4F42
:1037E0000FB6F894DEBF0FBECDBFDF91CF911F9112
:1037F0000F91FF90EF90DF90CF90BF90AF909F9090
:103800008F907F906F905F904F903F902F90089592
:10381000099791F40E945B1A8AE096E00E946A0B75
:10382000892B29F410921F0710921E07D7CF8AE028
:1038300096E00E94AA0BF0CF8AE096E00E946A0B05
:10384000892B61F21AA619A618A61FA21CA61BA6F0
:103850006E0127E2C20ED11C6AE572E0C6010E9429
:103860005312EFA0F8A40BA51CA50E94CE0C9C013E
:10387000CAAEDBAE2F3F320721F02A30310509F006
:10388000A8C1F8A6EFA21CA70BA78AAD9BAD0E940A
:10389000FA112FA038A4EBA4FCA41C821B821E8268
:1038A0001D821A8219826CEE76E08E010F5F1F4F27
:1038B000C8010E94E016A980BA8060E0C8010E9499
:1038C0001613C5010E94B2118AAD9BAD0E94070E6E
:1038D00061E772E08AE096E00E944E131C821B8230
:1038E0001E821D821A82198263E772E0C8010E945B
:1038F0005312A980BA80B8018AAD9BAD0E94DE1137
:10390000982EC5010E94B211911409F4ABC18FEF3A
:103910009FEF9E8B8D8B9AA389A3CE0181969F9357
:103920008F930C979F938F9388E792E09F938F9349
:103930003F922F920E9436446CED76E08AE096E04A
:103940000E945A136CEC76E08AE096E00E945A13CB
:103950000FB6F894DEBF0FBECDBF712C912C4DEB8E
:1039600056E02EEB36E08AEB96E04CAF5DAF2EAF23
:103970003FAF682E21969FAF21976E01BFE0CB0E1F
:10398000D11CB801872D0E943710C8010E94370D45
:10399000811509F472C0B980B7FC6FC08D899E890A
:1039A00097FD04C0B816190609F067C04A80A42C18
:1039B000E894A7F889A19AA197FD04C0A816190652
:1039C00009F05BC063E872E08AE096E00E9466134B
:1039D000E4E669EC76E0BE1638F4FAE066EC76E0F0
:1039E000BF1610F06AEC76E08AE096E00E94BD0E09
:1039F0008B2D0E94E91263E872E08AE096E00E9453
:103A0000661324E6A3ECB6E0BD01A21648F43AE042
:103A100080EC96E0BC01A31618F0E4ECF6E0BF01E0
:103A20008AE096E00E94BD0E8A2D0E94E91260E2B3
:103A30008AE096E00E94ED0B47FEEDC062E28AE06C
:103A400096E00E94D10E9E012D5F3F4F5901D50196
:103A50006D915D01611539F08AE096E00E94D10E0A
:103A6000CA14DB04A1F762E28AE096E00E94D10E5C
:103A70008AE096E00E94F2129394739420E472120A
:103A800080CF911431F06AEA76E08AE096E00E94F5
:103A90005A136FE976E08AE096E00E94BD0E892D08
:103AA0000E94E9128AE096E00E94F212992493940F
:103AB0001C821B821E821D821A82198266E872E0B5
:103AC000C8010E945312A980BA80B8018AAD9BAD8B
:103AD0000E94DE11782EC5010E94B211711409F402
:103AE00029C1188E1F8A1A8E198E1E8A1D8A6E0190
:103AF00035E1C30ED11C6AE572E0C6010E94531283
:103B000061E976E0C6010E94E016ED88FE88CE01EC
:103B10008D969F938F930C979F938F938BE892E052
:103B20009F938F933F922F920E9436440FB6F89442
:103B3000DEBF0FBECDBF3601029709F0B5C060E20F
:103B400070E0C1010E94DB43009709F4ADC060E260
:103B500070E001960E94DB43009709F4A5C060E283
:103B600070E001960E94DB43DC01892B09F49CC0C4
:103B7000FD018D918032E1F3823209F075C06D0153
:103B800062E270E0CD010E94DB43AC01892B09F4B5
:103B90008BC08CE0F80111928A95E9F74C195D0908
:103BA0004D30510514F04CE050E0B601C8010E94C0
:103BB00004446DA56068A80189A10E94071B60E804
:103BC00076E0811102C064E676E0C3010E94E0164F
:103BD00069C029831A8258013FEFA31AB30AF8A6D5
:103BE000EFA21CA70BA7B5018AAD9BAD0E94B71130
:103BF000EFA0F8A40BA51CA5811549F0BE016F5FCD
:103C00007F4FC701800F911F0E94EF4385010E94E3
:103C1000CE0C9C012FCEFE0133962F01B12CD20188
:103C2000AD902D01B4E66CAD7DADAB1648F4EAE085
:103C3000662D21967FAD2197AE1610F06EAD7FAD4B
:103C40008AE096E00E94BD0E8A2D0E94E912B3948C
:103C5000FCE0BF1609F40CCF6CE28AE096E00E940B
:103C6000ED0BDDCF912C24CF8CE0D8011D928A95ED
:103C7000E9F768014E01BDE08B0E911C8081811532
:103C800019F08C149D04C1F56DA56F77A80189A169
:103C90000E94071B811509F44AC065E972E0C3015F
:103CA0000E94D913ED88FE88FE8AED8AC3010E9426
:103CB000070E8AE096E00E94F212C7010E94B2113C
:103CC000C101C05CDF4F0FB6F894DEBF0FBECDBFA1
:103CD000DF91CF911F910F91FF90EF90DF90CF90E8
:103CE000BF90AF909F908F907F906F905F904F901C
:103CF0003F902F900C94B2115F013196D5018C91B9
:103D00008032D1F3C5010E94B43D8115B1E09B071B
:103D100058F6F60181936F016CE270E0C5010E94D4
:103D2000DB43FC01892B09F4AFCF3196A7CF68E4C0
:103D300076E04BCF1C821B821E821D821A82198262
:103D40006AEA72E0C8010E945312A980BA80B801E1
:103D50008AAD9BAD0E94DE11682EC5010E94B21192
:103D6000611409F44AC0CE018D969F938F930C97EE
:103D70009F938F938FEA92E09F938F933F922F921E
:103D80000E9436440FB6F894DEBF0FBECDBF029737
:103D9000A1F5ADA4B9A08982B801872D0E94371082
:103DA0008980C8010E94370D982E811541F1B81005
:103DB00026C08A818F77A81222C08CE0FE017596FA
:103DC000DF01282F1D922A95E9F7DE011396019055
:103DD0000D928A95E1F78B2D80688983C8010E9436
:103DE0001F0D988B8F87B801872D0E94991069E36A
:103DF00076E08AE096E00E945A13512C0EC073942C
:103E000030E47312C8CF6CE276E08AE096E00E945C
:103E1000BD0E55245394992493941C821B821E82B8
:103E20001D821A82198269EB72E0C8010E94531246
:103E3000A980BA80B8018AAD9BAD0E94DE11882EA0
:103E4000C5010E94B211811409F424C1370144E074
:103E5000A42EB12C84E0E816F10420F4570134E0DC
:103E6000632E712C1CA21BA21EA21DA21AA219A2B3
:103E70004E0191E2890E911C6AE572E0C4010E9434
:103E80005312D82C492C89A19AA1AE14BF04A8F4CE
:103E900047016E147F0408F44301820C931CD40183
:103EA0007C901C92B1016A0D7B1D8D2D942D0E947A
:103EB000D91389A19AA1F40170829AA389A38D2DA7
:103EC000942D0E94FA11A9A0BAA0CE01C7969F9383
:103ED0008F9302979F938F9302979F938F9302974D
:103EE0009F938F9302979F938F9302979F938F93A4
:103EF0008EEB92E09F938F93BF92AF920E943644D5
:103F00000FB6F894DEBF0FBECDBF069709F015C1FE
:103F1000EFA95DA94BA979A88FA42DA53EA5203DA9
:103F200087E0380710F0205D3740922E19823AE082
:103F30008E2F632F0E944D3D982F990F980F990F48
:103F40009E0F9A83852F0E944D3D982F990F980FB1
:103F5000990F950F9B83842F0E944D3D982F990FA9
:103F6000980F990F940F9C83472D682D822F90E016
:103F70000E949F08069667E070E00E94593D8111FB
:103F800001C087E08D832AE0872D622F0E944D3D7E
:103F9000982F990F980F990F970D9E83882D0E9447
:103FA0004D3D982F990F980F990F980D9F83892D4C
:103FB0000E944D3D982F990F980F990F990D988752
:103FC00021E048E050E0B801809128059091290552
:103FD0000E94BF102FE0922E99AE21E041E050E008
:103FE000BE01675C7F4F80912805909129050E9452
:103FF000BF1041E050E0BE016B5E7F4F809128050D
:10400000909129050E94100E8D899D8A8F778E8B45
:1040100021E042E050E0BE016B5E7F4F80912805B9
:10402000909129050E94BF1060E276E08AE096E058
:104030000E94BD0ECE0145960E94ED108A8D1F9202
:104040008F93898D1F928F93888D1F928F938F8965
:104050001F928F938E891F928F938D8990E080534A
:10406000984F9F938F9380ED92E09F938F931F9330
:104070000F930E941344B8018AE096E00E944E1309
:104080000FB6F894DEBF0FBECDBFC5010E94B211BE
:10409000992493941C821B821E821D821A8219828B
:1040A0006EEE72E0C8010E945312A980BA80B80176
:1040B0008AAD9BAD0E94DE11D82EC5010E94B211BF
:1040C000D11409F45CC0470195E0A92EB12CB5E0EC
:1040D000EB16F10420F4570185E0882E912C1C8208
:1040E0001B821E821D821A8219826AE572E0C80153
:1040F0000E945312AE14BF0418F109811A810115F0
:10410000110531F0C8010E94D23DCB01892B69F520
:1041100010922C050E945B1AC8010E94B2119924CA
:104120009394EF2879F5511409F4EDC069E076E035
:104130008AE096E00E94BD0ED3C055245394A5CFCB
:1041400067018E149F0408F46401C20CD31CF601AD
:1041500090801082B1016A0D7B1DC8010E94D913A5
:1041600009811A81D6019C92CACF6130710521F470
:1041700081E080932C05D0CF55245394CDCFEF28E8
:1041800009F4A4C064EF72E0C1010E94E643892BE8
:10419000C1F568E775E08AE096E00E945A1368E28C
:1041A00075E08AE096E00E945A1364EE74E08AE0BB
:1041B00096E00E945A1369E974E08AE096E00E9452
:1041C0005A1360E674E08AE096E00E945A1361E3B5
:1041D00074E08AE096E00E945A136DEE73E08AE084
:1041E00096E00E945A136EEA73E08AE096E00E941D
:1041F0005A1363E873E08AE096E00E945A13992408
:10420000939469EF72E0C1010E94E643892B09F0A3
:104210005DC065EF75E08AE096E00E94BD0E63EE3A
:1042200075E08AE096E00E945A136EED75E08AE030
:1042300096E00E94BD0E64ED75E08AE096E00E9473
:10424000BD0E61EC75E08AE096E00E94BD0E6EEB5B
:1042500075E08AE096E00E94BD0E62EB75E08AE0B0
:1042600096E00E94BD0E60E28AE096E00E94ED0BAF
:1042700069EA75E08AE096E00E94BD0E67EA75E0A3
:104280008AE096E00E945A1364E975E08AE096E0BD
:104290000E94BD0E809127050E94E9128AE096E0F7
:1042A0000E94F21262E875E08AE096E00E94BD0E7C
:1042B0002AE040E150E060E070E08AE096E00E9491
:1042C0008C128AE096E00E94F2122DCF91102BCF33
:1042D00060E176E08AE096E00E94BD0E511026CFA4
:1042E0006AEF75E08AE096E00E945A1324E630E017
:1042F00040E550E060ED77E083E00E94A80CC1014A
:104300000E94B2116BCA8AE096E00E94F2120E94EB
:10431000C50CF5CF0F931F93CF93DF9300D000D040
:1043200000D0CDB7DEB7E8EAF6E08FEF9FEFDC0113
:1043300080839183A283B3831482359626E0E83F7D
:10434000F207B1F71092A7061C821B821E821D8203
:104350001A8219826FEC7AE0CE0101960E94E01673
:1043600009811A8161E0CE0101960E94D51AC80127
:104370000F900F900F900F900F900F90DF91CF91B3
:104380001F910F910C94B2118F929F92AF92BF9296
:10439000CF92DF92EF92FF920F931F93CF93DF9311
:1043A000CDB7DEB728970FB6F894DEBF0FBECDBFEE
:1043B0008C01DB01FA012FB7F8944D915D916D915D
:1043C0007C91808191812FBFF801C180D280E380F0
:1043D000F4804A015B018C189D08AE08BF08278154
:1043E00082169104A104B10408F472C0418352837F
:1043F00063837483880F991F880F991F9683858321
:1044000081E0808380914E01811509F461C01C8296
:104410001B821E821D821A82198269EC7AE0CE010B
:1044200001967C010E94E016C980DA8060E0C70135
:104430000E94D51AC6010E94B211F80180858983B5
:10444000F1E00B361F0739F480911E0790911F078A
:10445000892B09F450C080E28A8380E48B8380E258
:10446000D82EDC821D82B7018AE096E00E94661396
:10447000F80141815281638174812AE08AE096E0EB
:104480000E948C128EE28983F80125813681C90150
:1044900064E670E00E94593D605D6A83EAE0F0E006
:1044A000C901BF010E94593D282FCB01BF010E94C5
:1044B000593D805D8B83205D2C83DD828DE68E836C
:1044C00083E78F831886B7018AE096E00E944E1337
:1044D00028960FB6F894DEBF0FBECDBFDF91CF9107
:1044E0001F910F91FF90EF90DF90CF90BF90AF9012
:1044F0009F908F9008958BE2AFCFCF92DF92EF9293
:10450000FF92CF93DF9300D000D000D0CDB7DEB7BD
:104510008091250590912605892BF9F08AE090E09D
:104520000E94D4050E94C8056E5C7F4F8F4F9F4F3D
:104530006B017C010E94C8056C157D058E059F05E9
:1045400060F480911E0790911F070C9731F0E09165
:104550002505F09126050995EDCF10922405E091EF
:104560002305E093110180E1E89FF0011124EA5254
:10457000FE4F86859785909326058093250589E0D3
:1045800090E00E94D4051C821B821E821D821A822A
:1045900019826BE773E0CE0101960E94E016E98074
:1045A000FA8060E0CE0101960E94D51AC7010E94F0
:1045B000B2116091110120E1629FB0011124695292
:1045C0007E4F8AE096E00E94661361E773E08AE01E
:1045D00096E00F900F900F900F900F900F90DF913B
:1045E000CF91FF90EF90DF90CF900C945A13CF9221
:1045F000DF92EF92FF920F931F93CF93DF93CDB78C
:10460000DEB768970FB6F894DEBF0FBECDBF8CE162
:104610000E94210B019791F481E080932405689614
:104620000FB6F894DEBF0FBECDBFDF91CF911F91C3
:104630000F91FF90EF90DF90CF9008951C8A1B8A16
:104640001E8A1D8A188E1F8A8E010D5E1F4F6DE611
:1046500073E0C8010E94E016809174017801811511
:1046600081F0809122058F5F833008F080E0109206
:1046700074018093220580E00E94B80D81E00E94C1
:10468000B80D10912205113009F46CC0123009F4F4
:10469000BBC0111155C080916201811571F010925B
:1046A000620180912305811102C08091270581500C
:1046B0008093230581E00E94B80D809159018115F6
:1046C00091F0109259012091230580912705815086
:1046D000990B2817190611F011E0120F10932305FA
:1046E00081E00E94B80D80912D05811549F11C8251
:1046F0001B821E821D821A8219826DE573E0CE0133
:1047000001960E94E01609811A81AE014F5F5F4F4A
:1047100060E082E00E943B07C8010E94B211A7013D
:1047200061E082E00E943B074091230580E1489FC1
:10473000A001112449525E4F61E086E00E942607E5
:104740008B899C8968960FB6F894DEBF0FBECDBFEB
:10475000DF91CF911F910F91FF90EF90DF90CF905D
:104760000C94B21180916201811509F445C0109238
:10477000620180914E0191E0892780934E018091E2
:104780002D058115E9F21C821B821E821D821A8270
:1047900019826CE473E08E010F5F1F4FC8010E9405
:1047A000E016C980DA80A80160E082E00E943B0741
:1047B000C6010E94B211A70161E082E00E943B079E
:1047C00080914E0168E473E0811102C064E473E0FB
:1047D0001C821B821E821D821A821982C8010E94BD
:1047E000E016E980FA80A80161E086E00E943B07BC
:1047F000C7010E94B211A4CF80915901811509F41B
:10480000BECF10925901B5CF80916201811539F167
:104810001092620180911101898380914E018A83F7
:10482000AE014F5F5F4F63E080E00E94071B0E9474
:10483000C50C188A1F861A8A198A1E861D866CE383
:1048400073E0CE010D960E94E0160D851E8561E095
:10485000CE010D960E94D51AC8010E94B211809116
:1048600059018115D1F0109259018BE090E090939D
:104870001F0780931E07E091110180E1E89FF0017E
:104880001124EA52FE4F0684F785E02D09958DE04C
:1048900090E090931F0780931E0780912D0581154E
:1048A00009F44ECF1C821B821E821D821A8219823D
:1048B0006BE273E0CE0101960E94E01609811A8135
:1048C000AE014F5F5F4F60E082E00E943B07C8018E
:1048D0000E94B2111C821B821E821D821A821982C2
:1048E0006AE173E0CE0101960E94E01609811A8107
:1048F000AE014F5F5F4F61E082E00E943B07C8015D
:1049000078CFEF92FF921F93CF93DF9300D000D028
:1049100000D0CDB7DEB7182FE091A706813039F16E
:104920008DEF810F843018F1EE3008F11C821B826C
:104930001E821D821A82198269E970E0CE010196F9
:104940000E94E016E980FA8061E0CE0101960E94A3
:10495000D51AC7010F900F900F900F900F900F90E6
:10496000DF91CF911F91FF90EF900C94B21185E0F1
:10497000E89FF0011124E855F94F40835183628389
:10498000738314831C821B821E821D821A821982E9
:1049900060E970E0CE0101960E94E016E980FA809D
:1049A00060E0CE0101960E94D51AC7010E94B211A3
:1049B000812F0E94E91268E870E08AE096E00E9488
:1049C0005A138091A7068F5F8093A7060F900F90D0
:1049D0000F900F900F900F90DF91CF911F91FF904C
:1049E000EF9008954F925F926F927F928F929F9275
:1049F000AF92BF92CF92DF92EF92FF920F931F93ED
:104A0000CF93DF93CDB7DEB766970FB6F894DEBFCE
:104A10000FBECDBFE0911E07F0911F07EC30F105EE
:104A200008F0DEC1EB54F74B0C94AE3D0E94190B1D
:104A30008CE090E066960FB6F894DEBF0FBECDBF57
:104A4000DF91CF911F910F91FF90EF90DF90CF906A
:104A5000BF90AF909F908F907F906F905F904F909E
:104A60000C94D4058FE295E00E9407148BE995E041
:104A70000E94071485E695E00E9407140E94190B16
:104A800019821A821B821C82AE014F5F5F4F60E069
:104A900081E00E945510811591F15B814C81298143
:104AA00030E0ACE3B0E00E9482472A81620F711DC2
:104AB000811D911D9B01A8EEB3E00E948247609387
:104AC0003601709337018093380190933901252F77
:104AD00030E00E9482476B017C01242F30E0A4E685
:104AE000B0E00E948247C60ED71EE81EF91EC09293
:104AF0003201D0923301E0923401F092350124E08A
:104B000030E03093D2052093D1058FE68093DB050A
:104B10003093DD052093DC058093E60580E090E08E
:104B200089CF80917D01811509F449C010927D01E2
:104B30000E94B00D1C821B821E821D821A82198265
:104B40006FEB7AE0CE0101960E94E01609811A818E
:104B5000CE0101960E94AA07C8010E94B2111C82D0
:104B60001B821E821D821A82198260EB7AE0CE01BE
:104B700001960E94E01609811A81AE014F5F5F4FD6
:104B800062E083E00E943B07C8010E94B2111C82D0
:104B90001B821E821D821A8219826CE97AE0CE0184
:104BA00001960E94E01609811A81AE014F5F5F4FA6
:104BB00063E080E00E943B07C8010E94B21180912F
:104BC0006B01811509F40CC110926B0185E090E036
:104BD00031CF80917D01811509F49DC010927D0136
:104BE00081E080931D070E94B00D1C821B821E82F3
:104BF0001D821A82198266E97AE0CE0101960E942E
:104C0000E01609811A81CE0101960E94AE07C80103
:104C10000E94B2111C821B821E821D821A8219827E
:104C200061E87AE0CE0101960E94E01609811A81BE
:104C3000AE014F5F5F4F62E080E00E943B07C8011A
:104C40000E94B2111C821B821E821D821A8219824E
:104C500062E77AE0CE0101960E94E01609811A818E
:104C6000AE014F5F5F4F63E083E00E943B07C801E6
:104C70000E94B2111092D3051092D4051092D5055E
:104C80001092D6051092D7051092D8051092D9052A
:104C90001092DA051092DE051092DF051092E00501
:104CA0001092E1051092E2051092E3051092E405DE
:104CB0001092E5051092D2051092D1058BE68093F3
:104CC000DB051092DD051092DC058093E60567EDAB
:104CD00075E083ED95E00E94070680E20E94470D93
:104CE0004091330550E061E572E085E595E00E9472
:104CF000CB4340919F0550E062E271E081EC95E08A
:104D00000E94CB434091690550E062E171E08BE87D
:104D100095E00E94CB4380911D07811581F10E948F
:104D2000C805AB01BC018091320190913301A09183
:104D30003401B09135010091200710912107209195
:104D4000220730912307800F911FA21FB31F8417E2
:104D50009507A607B70798F410921D071091DB0579
:104D6000612F8FE295E00E94C40D612F8BE995E0E1
:104D70000E94C40D612F85E695E00E94C40D8091CC
:104D80006B01811519F010926B01C8CE8091620100
:104D9000811529F01092620188E090E04BCE8DE100
:104DA0000E94210B892BC1F380915901811519F0C3
:104DB00010925901F1CF8EE10E94210B892B61F3F2
:104DC00080915001811519F010925001E5CF8FE1CB
:104DD0000E94210B892B01F380917401811117C06E
:104DE00066960FB6F894DEBF0FBECDBFDF91CF91B0
:104DF0001F910F91FF90EF90DF90CF90BF90AF90F9
:104E00009F908F907F906F905F904F900895109239
:104E100074010E94F8051C821B821E821D821A8268
:104E2000198264E67AE0CE0101960E94E0160981BB
:104E30001A8161E0CE0101960E941613C8010E94FA
:104E4000B2110E948A2140917501509176016091C2
:104E500077017091780181E00E9481248091750131
:104E600090917601A0917701B09178018093D3055C
:104E70009093D405A093D505B093D6058093DE0515
:104E80009093DF05A093E005B093E10521E030E0C9
:104E90003093D2052093D10588E68093DB053093CB
:104EA000DD052093DC058093E60582E090E0C2CD2D
:104EB00080917D018115C1F010927D011C821B82C1
:104EC0001E821D821A82198266E57AE0CE01019661
:104ED0000E94E01609811A8161E0CE0101960E94CC
:104EE0001613C8010E94B21180916B0181114BCF42
:104EF0008DE10E94210B892B09F0A2C085E090E092
:104F00009093D2058093D105855B9D4FFC018081F4
:104F10008093DB058EE10E94210B892B09F093C061
:104F200085E090E09093DD058093DC05855B9D4FE7
:104F3000FC0180818093E6058FE10E94210B8C01AA
:104F40008091D1059091D205059709F07FC01C8210
:104F50001B821E821D821A82198260E57AE0CE01D0
:104F600001960E94E016E980FA80BE016F5F7F4FD4
:104F70008BE995E00E94A005C7010E94B2118091C3
:104F8000DC059091DD05059709F065C01C821B8248
:104F90001E821D821A8219826AE47AE0CE0101968D
:104FA0000E94E016E980FA80BE016F5F7F4F85E6C0
:104FB00095E00E94A005C7010E94B2118091D10521
:104FC0009091D2052091DC053091DD05822B932B49
:104FD0001C821B821E821D821A821982892B09F073
:104FE0003FC00115110509F43BC06FE37AE0CE0123
:104FF00001960E94E01609811A8161E0CE010196B6
:105000000E941613C8010E94B2118FE295E00E941F
:1050100007148091620181111092620180915901FF
:1050200081111092590180917401811110927401C3
:105030008091500181111092500181E090E0FACCF2
:1050400080E090E05DCF80E090E06CCF8BE995E070
:105050000E94071494CF85E695E00E940714AECF16
:1050600069E37AE0CE0101960E94E016E980FA80B9
:10507000BE016F5F7F4F8FE295E00E94A005C701E0
:105080000E94B21182E00E94B80D1C821B821E8217
:105090001D821A8219826AE27AE0CE0101960E948C
:1050A000E016E980FA80AE014F5F5F4F62E080E07A
:1050B0000E943B07C7010E94B211E3E1012B21F4DA
:1050C0008DE480935F07E2E18091DC059091DD053E
:1050D000059741F4AE2FB0E0AC5DB84F80E59896EF
:1050E0008C93E1508091D1059091D205059729F4D8
:1050F000F0E0EC5DF84F8CE480A780912E058115DF
:1051000009F46ECE24E630E040E550E060ED77E053
:1051100083E066960FB6F894DEBF0FBECDBFDF9179
:10512000CF911F910F91FF90EF90DF90CF90BF90A4
:10513000AF909F908F907F906F905F904F900C9466
:10514000A80C80917D018115C9F010927D010E940B
:10515000B00D1C821B821E821D821A82198264E29B
:105160007AE0CE0101960E94E01609811A81CE01F3
:1051700001960E94B207C8010E94B2118091D10528
:105180009091D205019709F073C080916201811559
:1051900009F46EC010926201409163015091640164
:1051A00060916501709166014093D7055093D805D1
:1051B0006093D9057093DA0582E090E09093D20570
:1051C0008093D1058BE68093DB0583E00E948124E8
:1051D00061E08FE00E948B0A67ED75E083ED95E05A
:1051E0000E94070680E20E94470D6091DB058BE973
:1051F00095E00E94C40D8AE3809341014AE351E0A7
:1052000062E086E00E9426071C821B821E821D82AD
:105210001A82198268E679E0CE0101960E94E016B2
:1052200009811A81AE014F5F5F4F62E080E00E940A
:105230003B07C8010E94B2111C821B821E821D8284
:105240001A8219826DE579E0CE0101960E94E0167E
:1052500009811A8160E0CE0101960E941613C801EF
:105260000E94B2116AE371E08AE096E00E944E1358
:105270008091DC059091DD05019709F073C0809164
:105280005901811509F46EC01092590140915A01DB
:1052900050915B0160915C0170915D014093E2056A
:1052A0005093E3056093E4057093E50582E090E098
:1052B0009093DD058093DC058BE68093E60584E022
:1052C0000E94812461E082E10E948B0A62EE75E017
:1052D0008EED95E00E94070680E20E94470D6091E6
:1052E000E60585E695E00E94C40D8AE380934101BE
:1052F0004AE351E063E086E00E9426071C821B829D
:105300001E821D821A82198269E779E0CE01019618
:105310000E94E01609811A81AE014F5F5F4F63E082
:1053200080E00E943B07C8010E94B2111C821B82D0
:105330001E821D821A8219826DE679E0CE010196E5
:105340000E94E01609811A8160E0CE0101960E9458
:105350001613C8010E94B2116AE371E08AE096E078
:105360000E944E138091D1059091D205029709F0C9
:1053700048C08091DC059091DD05029709F041C09D
:105380001C821B821E821D821A8219826FE779E0BD
:10539000CE0101960E94E01609811A81CE01019684
:1053A0000E94AE07C8010E94B2118091E20590915F
:1053B000E305A091E405B091E5054091D705509132
:1053C000D8056091D9057091DA05481759076A0721
:1053D0007B0790F462EE75E08EED95E00E94070683
:1053E00080E20E94470D6091DB058FE295E00E940C
:1053F000C40D84E090E01ECB67ED75E083ED95E091
:10540000EDCF10912D05111509F443C00E94C80578
:1054100069837A838B839C83BE016F5F7F4F8EEDA0
:1054200095E00E94070680E20E94470D8091DC050E
:105430009091DD05019799F41091E605612F85E6BD
:1054400095E00E94C40D612F8FE295E00E94C40D8B
:105450004AE351E063E086E00E94260710E0809175
:10546000D1059091D2050197A1F40091DB05602F41
:105470008BE995E00E94C40D111559F0602F8FE261
:1054800095E00E94C40D4AE351E062E086E00E948C
:105490002607809150018115D9F1109250011C828C
:1054A0001B821E821D821A8219826CE17AE0CE0173
:1054B00001960E94E01609811A8161E0CE010196F1
:1054C0000E941613C8010E94B211409151015091DF
:1054D0005201609153017091540182E00E94812435
:1054E00061E571E08EED95E00E94070680E20E9482
:1054F000470D8AE3809341014AE351E061E086E091
:105500000E9426074EEF52E061E080E00E942607ED
:1055100080916B01811509F463CC10926B011C82A0
:105520001B821E821D821A8219826DE07AE0CE01F2
:1055300001960E94E01609811A8161E0CE01019670
:105540000E941613C8010E94B21140916C01509143
:105550006D0160916E0170916F0186E00E9481245F
:105560001C821B821E821D821A82198260E07AE0F0
:10557000CE0101960E94E01609811A81CE010196A2
:105580000E94AE07C8010E94B21122E030E03093C1
:10559000D2052093D1058BE68093DB053093DD05A2
:1055A0002093DC058093E60524CF80917D01811551
:1055B000D1F010927D011C821B821E821D821A82F4
:1055C000198261EF79E0CE0101960E94E01609810F
:1055D0001A8161E0CE0101960E941613C8010E9453
:1055E000B2110E94F21480916B01811509F4F8CB7D
:1055F00010926B010E94190B91CA80917D01811557
:1056000009F49DC010927D0181E080931D071092E6
:10561000D3051092D4051092D5051092D60580912D
:10562000360190913701A0913801B09139018093F2
:10563000D7059093D805A093D905B093DA051092B9
:10564000D2051092D1058BE68093DB051092DD0523
:105650001092DC058093E60567ED75E083ED95E03B
:105660000E94070680E20E94470D109244010E94AA
:10567000B00D1C821B821E821D821A82198269EE65
:1056800079E0CE0101960E94E01609811A81CE01CF
:1056900001960E94AE07C8010E94B2114AE351E090
:1056A00062E08AE00E9426071C821B821E821D8205
:1056B0001A8219826AED79E0CE0101960E94E01605
:1056C00009811A81AE014F5F5F4F62E080E00E9466
:1056D0003B07C8010E94B2111C821B821E821D82E0
:1056E0001A82198265EC79E0CE0101960E94E016DB
:1056F00009811A81AE014F5F5F4F63E080E00E9435
:105700003B07C8010E94B21187E0EFE0F3E0DE0141
:10571000119601900D928A95E1F787E0FE0131968E
:10572000ABE8B5E001900D928A95E1F787E0FE01C4
:105730003196A5E5B5E001900D928A95E1F780914B
:105740001D07811509F10E94C805AB01BC018091BC
:10575000320190913301A0913401B0913501009153
:105760002007109121072091220730912307800FF5
:10577000911FA21FB31F481759076A077B0720F024
:1057800010921D070E940F1480916201811541F152
:10579000109262018091360190913701A0913801F9
:1057A000B09139018133F5E79F07A105B10508F4F0
:1057B00059C080539547A109B10980933601909350
:1057C0003701A0933801B093390181E080937D01C6
:1057D000109220071092210710922207109223079F
:1057E00080915901811561F1109259018091360122
:1057F00090913701A0913801B0913901813922EBA4
:10580000920728E0A207B10520F080E992EBA8E01A
:10581000B0E0805D9A48AF4FBF4F809336019093C0
:105820003701A0933801B093390181E080937D0165
:10583000109220071092210710922207109223073E
:1058400080917401811531F01092740186E090E02E
:105850000E94D40580916B01811509F4C1CA109290
:105860006B01EBCB80E395E7A0E0B0E0A6CF8091A1
:105870007D01811509F45BC00E94F80510927D013D
:105880001C821B821E821D821A82198265EB79E0BE
:10589000CE0101960E94E01609811A8161E0CE01D5
:1058A00001960E941613C8010E94B2110E94B00D09
:1058B0001C821B821E821D821A8219826DEA79E087
:1058C000CE0101960E94E01609811A81CE0101964F
:1058D0000E94B207C8010E94B21181E090E090934B
:1058E000DD058093DC0588E68093E6050E94C80507
:1058F000462F572FBC014093DE055093DF05609380
:10590000E0057093E1058091D7059091D805A091AD
:10591000D905B091DA05840F951FA61FB71F809394
:10592000E2059093E305A093E405B093E50580912B
:105930006B018115D9F010926B011C821B821E82B3
:105940001D821A8219826DE979E0CE0101960E94CA
:10595000E01609811A8161E0CE0101960E941613BA
:10596000C8010E94B2110E94C50C67CB80912D0521
:10597000811509F435CA0E94C805462F572FBC016E
:105980004093DE055093DF056093E0057093E105D9
:105990008091E2059091E305A091E405B091E505C1
:1059A00084179507A607B707C0F066960FB6F89458
:1059B000DEBF0FBECDBFDF91CF911F910F91FF9042
:1059C000EF90DF90CF90BF90AF909F908F907F909F
:1059D0006F905F904F900C940F141C821B821E825C
:1059E0001D821A8219826DE879E0CE0101960E942B
:1059F000E01609811A8161E0CE0101960E9416131A
:105A0000C8010E94B21181E090E00E94D40520E01C
:105A100030E040ED57E068EC70E081E07ACBC09078
:105A20003601D0903701E0903801F0903901609153
:105A3000320170913301809134019091350128EE4B
:105A4000822E23E0922EA12CB12CA50194010E945C
:105A50006D3D29013A016B8B7C8B8D8B9E8BC70131
:105A6000B60120E63AEE40E050E00E946D3D298309
:105A7000C701B601A50194010E946D3D6CE3862E1D
:105A8000912CA12CB12CCA01B901A50194010E944D
:105A90006D3D6A83C301B201A50194010E946D3D71
:105AA0006B836B897C898D899E8924E630E040E098
:105AB00050E00E946D3D2C83AE014F5F5F4F60E070
:105AC00081E00E94071B811509F48AC90E94C50C58
:105AD000188A1F861A8A198A1E861D8666E073E058
