:100000000C9486020C94AE020C94AE020C94AE02D8
:100010000C94AE020C94AE020C94AE020C94AE02A0
:100020000C94AE020C9426230C94A1260C947A24F2
:100030000C94AE020C94AE020C94AE020C94AE0280
:100040000C94AE020C94DA210C94AE020C94AE0225
:100050000C94AE020C94AE020C94AE020C94862367
:100060000C94AE020C94CE230C94FB230C94AE02A1
:100070000C94AE020C94AE020C94AE020C94AE0240
:100080000C9421240C94AE020C94AE020C94AE029B
:100090000C9409220C94AE020C94AE020C94AE02A5
:1000A0000C94AE020C94AE020C94AE0220756C6FF0
:1000B0007A656E004C6F672074797023003D3D3D7A
:1000C000204B6F6E6563207A617A6E616D75203D9D
:1000D0003D3D0A005679736C6564656B3A20204E8D
:1000E00045524F5A484F444E4500526F7A64696CEE
:1000F0003A2020202000566974657A3A202020207A
:1001000020505241564120445241484100526F7A9A
:1001100064696C3A2020202000566974657A3A2080
:10012000202020204C455641204452414841005057
:1001300072617679206361733A20004C657679208C
:100140006361733A2020002D2D2D20536F75687246
:100150006E207A61766F6475202D2D2D00524553E7
:1001600045540043494C0043494C205052415641AC
:100170002044524148410043494C204C45564120BF
:100180004452414841005354415254000A3D3D3DC0
:10019000205A617A6E616D207A61766F6475203DB8
:1001A0003D3D001209120912091200091209120933
:1001B00012090000001209120000000000091209D3
:1001C00000000000001E0F1E00000000000F1E0FA8
:1001D000000000181C1E1F1E1C1800436879626175
:1001E0002044697370320043687962612044697306
:1001F000703100446973702E696E697400537461C4
:10020000727420000312010002EF02014041233604
:10021000800001010203010403090441726475694D
:100220006E6F204C4C430041726475696E6F204CB8
:10023000656F6E6172646F00080B000202020000BD
:100240000904000001020200000524001001052439
:1002500001010104240206052406000107058103AB
:1002600010004009040100020A0000000705020214
:10027000400000070583024000000000000023004A
:10028000260029002C002F000000000200090F00AA
:1002900000030401000C000000000000000000004A
:1002A0000000000000000000000000250028002BD6
:1002B000002E00310000000000240027002A002D3D
:1002C00000300004040404040304050202020204D2
:1002D00003020202020606060606060404020202E1
:1002E0000404040802011040804010204080408037
:1002F00008020401804020100201108010204040BC
:100300002053797374656D003E20004C3E53797321
:1003100074656D20503E4D6F64756C00556C6F7A3E
:10032000697400556C6F7A656E6F00567970005A6B
:1003300061700050756C7A79004D6F64756C002D9A
:100340002D3E002720616B7469766E69004D6F64E5
:10035000756C202700556B6F6E63656E6F005A6178
:10036000646F7374206F207679706973005A7275A8
:1003700073656E6F004D6572656E69207A72757374
:10038000656E6F0053746F706B790053746F706B90
:1003900079207370757374656E7900533E53746180
:1003A0007274202020523E5A7065740053544F508E
:1003B0004B5900523E46756E6B63652064523E4D4C
:1003C000656E750053544F504B5920532D53004CBC
:1003D000657661206472616861004C6576610050E9
:1003E0007261766120647261686100507261766149
:1003F000002020004F64706F63657420736B6F6E14
:1004000063696C005A727573656E69206F64706FF2
:10041000637475004F64706F636574005A6168613E
:100420006A656E206F64706F63657400533E5A6135
:1004300068616A6974004F44504F434554005A61E3
:10044000646F7374206F207679706973005A6176D7
:100450006F64207A727573656E004D6572656E69A2
:10046000207A727573656E6F005A61766F6400430F
:10047000485942412053454E5A4F52553A00202D7B
:10048000452D20004B6F6E63616B79204F4B002030
:100490002D452D2000202D452D2000434859424157
:1004A000206B6F6E63616B75005A61766F64207AA2
:1004B0006168616A656E00533E53746172742020F6
:1004C00020523E5A706574005A41564F4400523EC5
:1004D00046756E6B63652064523E4D656E750053C4
:1004E000544F504B592048550050756C7A20004CA1
:1004F0006F672070726970726176656E0045455055
:10050000524F4D20706C6E612100EB2C11241FBEE8
:10051000CFEFDAE0DEBFCDBF12E0A0E0B1E0E2EA6B
:10052000F5E602C005900D92A636B107D9F726E090
:10053000A6E6B2E001C01D92A132B207E1F712E0D7
:10054000C6E8D2E004C02197FE010E94F52DC5380F
:10055000D107C9F70E940E270C94AA320C94000010
:10056000CF93DF93FC01DB015481369614968C9176
:1005700014978150990B40E0541303C0DF91CF9141
:10058000089514962D913C9115978217930770F456
:100590002D913C9111972115310541F0280F391FFC
:1005A000E901288121934F5F0197E6CF20E0FACF40
:1005B0002FB7F8946091F2057091F3058091F405DE
:1005C0009091F5052FBF0895CF93DF93D82FC92FB2
:1005D0000E94D8026093F9057093FA058093FB0599
:1005E0009093FC05D093F705C093F80581E08093C4
:1005F0007E011092F6051092750110926C01109216
:10060000630110925A01DF91CF9108958FB7F8944A
:100610001092F1051092F0051092EF059DE0909375
:1006200059011092EE058FBF08954F925F926F921D
:100630007F92AF92BF92CF92DF92EF92FF920F9391
:100640001F93CF93DF93FB01C080D180E280F380C2
:10065000FC0180819181A281B381C81AD90AEA0A7A
:10066000FB0AC701B60128EE33E040E050E00E94EB
:10067000B42D8B01CDEDD5E07D836C838CE3482ECA
:10068000512C612C712CCA01B901A30192010E9465
:10069000B42DB62E6B83CA01B901A30192010E9449
:1006A000B42DA62E6A83C701B60120E83EEE46E3CC
:1006B00050E00E94B42DF90139832883C90168EE06
:1006C00073E00E94A02D6E8394E6E92EF12CCF01F9
:1006D000B7010E94A02DCB012AE030E0B9010E94B1
:1006E000A02D8F83CF01B9010E94A02D482FCB01EF
:1006F000B9010E94A02D888749874AE08A2D642F7E
:100700000E94942D8A879B878B2D0E94942D8C8725
:100710009D87C801B7010E94A02D6E87C801B9014D
:100720000E94A02D482FCB01B9010E94A02D8F87D8
:10073000488BDF91CF911F910F91FF90EF90DF9049
:10074000CF90BF90AF907F906F905F904F90089543
:100750008091F2059091F305A091F405B091F50513
:1007600080932C0590932D05A0932E05B0932F0513
:10077000809184009091850090932B0580932A05A9
:1007800081E08093290508958091F2059091F30509
:10079000A091F405B091F505809325059093260569
:1007A000A0932705B093280580918400909185003F
:1007B000909324058093230581E08093220508957A
:1007C0008091F2059091F305A091F405B091F505A3
:1007D00080931E0590931F05A0932005B0932105DB
:1007E000809184009091850090931D0580931C0555
:1007F00081E080931B0508958091F2059091F305A7
:10080000A091F405B091F505809317059093180514
:10081000A0931905B0931A058091840090918500EA
:10082000909316058093150581E080931405089533
:10083000FA0190E070E07195619571096071772718
:100840002191211519F08031910509F40895DC01F9
:10085000A60FB71FA350BA4F2C930196F1CFCF9399
:10086000DF93DA0190E1981B14964C91149794173A
:1008700008F4492FE62FF0E0F195E195F109E071D8
:10088000FF27E80FF11DE350FA4F80E090E0841756
:1008900018F0DF91CF91089514962D913C91159702
:1008A0008217930768F42D913C911197211531051A
:1008B00039F0280F391FE901288121930196E7CFEC
:1008C00020E0FBCF0F931F93CF93DF938C01C42FB6
:1008D000062E000C770B48E050E08DEF95E00E946B
:1008E0001E316C2FCC0F770B48E050E085E096E08E
:1008F0000E941E31D80114968D919C91C0E1D0E0E8
:10090000C81BD90BD695C795C03128F4A80160E063
:100910008C2F0E942F04DD27FE01E450FA4F80E265
:100920008083D8011496ED91FC91E350FA4FEC0FBF
:10093000FD1F8083DF91CF911F910F91089544E0B7
:1009400063E00C94620480E090E0089508950895B7
:100950000895DC01ED91FC910684F785E02D40E0DF
:100960000994DC01ED91FC910684F785E02D41E0CE
:10097000099581E090E0089508950895DC0181E0F3
:1009800001C0880F6A95EAF71C968C931C971A96FB
:100990005C934E931997ED91FC9111970484F58522
:1009A000E02D60E0CD0109948091420490914304D0
:1009B000891B990B089590914304809142042FEF75
:1009C0003FEF981748F4E92FF0E0E250FC4F208108
:1009D00030E09F5F90934304C9010895E091430480
:1009E00080914204E81730F4F0E0E250FC4F80813F
:1009F00090E008958FEF9FEF089508952091FA03F6
:100A0000260F3327331F21323105ECF42091FD03EB
:100A1000FC0180E090E0243069F082E00895A0912C
:100A2000FA032191AC0146525C4FA40FB52FB11DC2
:100A30002C930196861798F38091FA03680F6093C0
:100A4000FA0380E0089581E00895CF93DF930F9239
:100A5000CDB7DEB7FC016983809147048115F1F0C1
:100A600080914404803250F081E090E0938382834F
:100A700080E090E00F90DF91CF9108958091450440
:100A8000E82FF0E0E25EFB4F998190838F5F8093C7
:100A900045048093440481E090E0ECCF61E0CE0116
:100AA00001960E94FE04F7CFCF92DF92EF92FF9261
:100AB0000F931F93CF93DF937C01CB018A01209189
:100AC00047042115D9F0EB016B01C40ED51ECC15DE
:100AD000DD0551F4C801DF91CF911F910F91FF9077
:100AE000EF90DF90CF9008956991D701ED91FC913F
:100AF0000190F081E02DC7010995E9CF642F0E9494
:100B0000FE04E8CF1F93CF93DF93DC0152968D91C3
:100B10009C915397009751F421E030E013963C9359
:100B20002E931297DF91CF911F9108951D96ED910D
:100B3000FC911E971C962C911C97322F30957FB7F5
:100B400054964C915497142F127041FD21C0F89483
:100B5000408143234083EC012197F1F748E0508125
:100B600060FF1BC0522B5083EC012197F1F7669573
:100B70004A95A9F78081111591F0832380837FBF67
:100B800052968D919C910197F1F781E090E0CACF48
:100B90006095F8944081422BDDCF5323E4CF822B24
:100BA000EDCF8FEF9FEF089580E090E008950895D6
:100BB0003FB7F8948091830390918403A0918503BB
:100BC000B091860326B5A89B05C02F3F19F001966A
:100BD000A11DB11D3FBFBA2FA92F982F8827BC0197
:100BE000CD01620F711D811D911D42E0660F771FBF
:100BF000881F991F4A95D1F708954F925F926F927F
:100C00007F928F929F92AF92BF92CF92DF92EF929C
:100C1000FF920F931F93CF93DF938B01D82FC92F90
:100C20000E94D805262F822E972E5C016801ED2E9A
:100C3000FC2E05C0C114D104E104F10409F10E94A5
:100C4000D8052B013C01481859086A087B08860121
:100C5000DE2DCF2D31E0C31AD108E108F108282D8F
:100C6000792DC50138EE830E33E0931EA11CB11C13
:100C700038EE431633E0530661047104D8F6D3CF3F
:100C8000DF91CF911F910F91FF90EF90DF90CF9068
:100C9000BF90AF909F908F907F906F905F904F909C
:100CA00008950F931F93CF93DF93EC01423018F018
:100CB0008C8188608C834F836887211529F04130AF
:100CC00019F48C8184608C8364E670E080E090E0AD
:100CD0000E94FD056C8164FD5CC0E881F981068499
:100CE000F785E02D42E063E0CE0109958BE496E4C0
:100CF0000197F1F7E881F9810684F785E02D42E05C
:100D000063E0CE01099503E512E0C8010197F1F710
:100D1000E881F9810684F785E02D42E063E0CE01A9
:100D20000995C8010197F1F7E881F9810684F785F3
:100D3000E02D42E062E0CE010995C8010197F1F78C
:100D40006C816062CE010E94A9048BEE90E0019755
:100D5000F1F784E08D836CE0CE010E94A90461E08C
:100D6000CE010E94A9048BE39FE10197F1F782E095
:100D70008E8366E0CE010E94A904E881F981048493
:100D8000F585E02D6FEFCE01DF91CF911F910F918F
:100D900009946062CE010E94A9048BE496E4019755
:100DA000F1F76C816062CE010E94A90403E512E0B4
:100DB000C8010197F1F76C816062CE010E94A9041D
:100DC000BCCFCF93DF9390E0FC01EE51FD4F249117
:100DD0008D539D4FFC0184918115D1F090E0880FD7
:100DE000991FFC01EB54FD4FA591B591FC01E9550C
:100DF000FD4FC591D5919FB7623069F4F8943C914D
:100E0000822F809583238C938881822B88839FBF38
:100E1000DF91CF910895F8948C91822B8C93F7CF2A
:100E200081508F30C0F5E82FF0E0E455FD4C0C9474
:100E3000F52D809180008F778093800008958091B8
:100E400080008F7DF9CF80918000877FF5CF84B5BA
:100E50008F7784BD089584B58F7DFBCF80919000FE
:100E60008F77809390000895809190008F7DF9CFC7
:100E700080919000877FF5CF8091C0008F7780931D
:100E8000C00008958091C0008F7DF9CF8091C2008D
:100E9000877F8093C20008951F93CF93DF93162F0F
:100EA000282F30E0F901E857FD4F8491F901EE5108
:100EB000FD4FD491F901ED53FD4FC491C115A1F03F
:100EC00081110E941007EC2FF0E0EE0FFF1FE95593
:100ED000FD4FA591B5919FB7F8948C91111108C061
:100EE000D095D823DC939FBFDF91CF911F910895B8
:100EF0008D2B8C93F8CFDF92EF92FF920F931F937D
:100F0000CF93DF938C01D62ED0E0F8018481D817DF
:100F100040F0DF91CF911F910F91FF90EF90DF9004
:100F200008957801ED0EF11CF701C68186898C13B6
:100F300002C0D114E9F19EE0C534C9F07CF4C0329E
:100F400019F024F4C11108C090E011C080ED8C0F9D
:100F500091ED9C0F8A3058F09FE009C09CE0C035AD
:100F600031F09DE0C53519F09BE0CC34A9F7F801CC
:100F7000A081B18162818381680F6D0F9295907F0E
:100F8000690FED91FC9111970190F081E02DCD0159
:100F90000995D1110AC0F8018581811531F061E010
:100FA000C03209F460E00E944C07F7018681868B0D
:100FB000DF5FABCF1092FD0381E08093FC031092C2
:100FC000FB0361E082E00E944C0761E083E00E9445
:100FD0004C07E9EBF0E080818E7F808380818D7FFC
:100FE000808388E48093B80085E48093BC000895F2
:100FF000CF93DF9391E09093D4038115B9F0C09122
:10100000B800D091BA008091BC008A7B8093BC006C
:1010100060E082E00E944C0760E083E00E944C07A1
:101020000E94DA07D093BA00C093B800DF91CF9145
:101030000895CF93DF93282F30E0F901E857FD4F53
:101040008491F901EE51FD4FD491F901ED53FD4F1B
:10105000C491C11581F081110E941007EC2FF0E0BE
:10106000EE0FFF1FE658FD4FA591B591EC91ED23D2
:1010700081E0E11101C080E090E0DF91CF9108951F
:10108000FC018485958597FD0BC09FB7F89482E09D
:101090008093E9008091F2009FBF90E0019608954F
:1010A0009FB7F89482E08093E9008091F2009FBF9F
:1010B00090E0089583E08093E9008091F20081152B
:1010C00019F08AE38093E8000895CF93DF930F929D
:1010D000CDB7DEB7DC016983ED91FC910280F3812D
:1010E000E02D41E050E0BE016F5F7F4F09950F900A
:1010F000DF91CF910895FC01A48DA80FB92FB11DE8
:10110000A35ABF4F2C91848D90E001968F7399273D
:10111000848FA689B7892C93A089B1898C91827418
:101120008C93938D848D981306C00288F389E02DEB
:1011300080818F7D80830895FC01818D228D90E0D8
:10114000805C9F4F821B91098F739927089583EECE
:1011500092E00E949C089C0181E0232B09F480E02E
:10116000089580E090E0892B29F00E94A708811162
:101170000C9400000895FC01918D828D981731F038
:10118000828DE80FF11D858D90E008958FEF9FEF20
:101190000895FC01918D828D981761F0A28DAE0F9C
:1011A000BF2FB11D5D968C91928D9F5F9F73928F23
:1011B00090E008958FEF9FEF0895FC01538D448DCB
:1011C000842F90E0252F30E0821B930B541710F0F2
:1011D000CF96089501970895CF93DF93EC01888D02
:1011E00081110FC0DF91CF9108950FB607FC0DC09C
:1011F0008C9185FF0AC0808185FF07C0CE010E94C7
:101200007B08AA89BB89E889F9898C9185FDEDCF96
:10121000808186FFEACFE6CFEF92FF920F931F9374
:10122000CF93DF93EC01F62E81E0888F9B8D8C8D20
:10123000981319C0E889F989808185FF14C09FB788
:10124000F894EE89FF896083E889F9898081827446
:1012500080839FBF81E090E0DF91CF911F910F913C
:10126000FF90EF9008950B8D10E00F5F1F4F0F73ED
:101270001127E02E8C8D8E1579F0EB8DEC0FFD2F64
:10128000F11DE35AFF4FF0829FB7F8940B8FEA8964
:10129000FB8980818062DCCF0FB607FCEBCFE88949
:1012A000F989808185FFE6CFCE010E947B08E2CFDD
:1012B000CF92DF92EF92FF920F931F93CF93DF9322
:1012C0007C016A0100E010E00C151D0551F4C80115
:1012D000DF91CF911F910F91FF90EF90DF90CF9012
:1012E0000895EB01D701ED91FC910190F081E02D83
:1012F0006991C7010995892B51F30F5F1F4FBE01FB
:10130000E3CF615028F4289884E68093DB020895A7
:10131000FC018091F1008193CF01F3CF4091D9027C
:101320005091DA022091D7023091D8024217530728
:10133000BCF49091E80095709115D9F39091E80074
:1013400092FD19C08093F1008091D9029091DA0248
:1013500001968F739927892B19F48EEF8093E800FB
:101360008091D9029091DA0201969093DA028093EB
:10137000D90281E0089580E00895EF92FF920F93E3
:101380001F93CF93DF93F82E192FE62E042F81E0C1
:10139000860F880F0E948E0983E00E948E09CF2D50
:1013A000D12FEC0EFD2EF11CCE15DF0511F481E0DE
:1013B0000EC0011599F0FE0184910E948E09182F2C
:1013C00080E00E948E09812321968111EDCFDF916B
:1013D000CF911F910F91FF90EF9008958881EDCFED
:1013E00080916F0281110DC082E080936B0284E0D6
:1013F00080936C0210926E0210926D0281E08093D5
:101400006F028BE692E008952FB7F89483E0809303
:10141000E9009091E800892F807295FF04C09091B7
:10142000F20080E4891B2FBF08950E94040A90E017
:1014300008958F929F92AF92BF92CF92DF92EF92D8
:10144000FF920F931F93CF93DF937C018B01EA01EF
:1014500080910C01811571F180918203811551F108
:101460008091810380FF05C08091E00082608093BD
:10147000E0006E01B12C8AEFA82E93E0892E2AE3BA
:10148000922E0CC00E94040A811129C0AA9491F0E6
:1014900061E070E080E090E00E94FD05C114D1049D
:1014A00089F7B110EFCF5D9884E6809380031C1616
:1014B0001D063CF081E090E0F70193838283C0E059
:1014C000D0E0CE01DF91CF911F910F91FF90EF906F
:1014D000DF90CF90BF90AF909F908F900895C816E7
:1014E000D1040CF48C2D9FB7F8948092E9002091E0
:1014F000E80025FD02C09FBFD1CF282F30E0C81AD9
:10150000D108A801815040F4020F131FB11451F00B
:101510009092E800B12CEFCFFA0141914093F10095
:10152000AF01F0CF8091E80085FDF4CF9092E80004
:10153000BB24B394C114D104F1F2ECCF9091820397
:10154000911103C08FEF9FEF08952FB7F89492E0A9
:101550009093E9009091F200492F50E0911102C060
:10156000452B31F0289884E68093DB028091F100CE
:10157000911102C02FBFE6CF9091F200911103C0EC
:101580009BE69093E8002FBF90E00895CF93DF9300
:10159000EC018C859D8597FF04C00E949E0A9D8763
:1015A0008C87DF91CF910895FC018485958597FD07
:1015B0000C949E0A2FEF3FEF3587248708958F9272
:1015C0009F92AF92BF92CF92DF92EF92FF920F93D2
:1015D0001F93CF93DF93D0914404C1E0D13208F040
:1015E0009EC0F09046040E94D8054B015C01C0915A
:1015F000FD03C1116EC082E08093FD0381E0809302
:10160000FC038FEF8093B0031092D203D093D103E9
:101610002EE134E0A1EBB3E0F9018E2F821B8D1790
:1016200008F491C01092D3038091D303FF0CF82AE1
:10163000F092D3038091FB03813009F087C01092B0
:10164000FB030E94D8056B017C018091D30380933A
:10165000BB008091D6039091D703A091D803B0919D
:10166000D903892B8A2B8B2BA1F00E94D80580905F
:10167000D6039090D703A090D803B090D9036C19EB
:101680007D098E099F0986169706A806B90608F4F3
:1016900041C08091BC0083FDD8CF85EC8093BC0015
:1016A0000E94D8056B017C018091FD03823009F412
:1016B0004FC08091B0038F3F91F18091B003C2E0A1
:1016C000803269F18091B003C3E0803341F1C4E01E
:1016D00026C08091D6039091D703A091D803B091F2
:1016E000D903892B8A2B8B2B09F481CF0E94D80533
:1016F0000091D6031091D7032091D8033091D903DC
:10170000681979098A099B090617170728073907F5
:1017100008F06DCF8091D5030E94F807C5E01092C4
:10172000450410924404109247048C2FDF91CF910E
:101730001F910F91FF90EF90DF90CF90BF90AF90EF
:101740009F908F90089581918D9367CF85EEA6CF5E
:101750008091D6039091D703A091D803B091D9037B
:10176000892B8A2B8B2B09F49FCF0E94D805809060
:10177000D6039090D703A090D803B090D9036C19EA
:101780007D098E099F0986169706A806B90608F0F6
:101790008BCFC0CF93B190938D03EBE6F0E09081B7
:1017A000982B9083E8E6F0E0808181608083089543
:1017B000FC01AC01425F5F4F8FEF9FEF21919227B9
:1017C00028E0BC01880F991F77FF04C031E283270E
:1017D00030E193272A95A9F74E175F0779F7089507
:1017E000809100018C3069F4E4E0F2E0E4918FEF45
:1017F00080930001E330D1F040F4E11571F0E13065
:1018000079F060E08CE00C944C07E430D1F78091E3
:1018100072008F7B80937200F4CF10926E00F1CF34
:1018200080916F008D7F80936F00EBCF809171006E
:101830008D7F80937100E5CF8093DC057093DB058D
:101840006093DA055093D9054093D8053093D705B6
:101850002093D6050E94D8026093D2057093D305D9
:101860008093D4059093D5051092D1050C94F00B7C
:1018700020E030E040E550E064EC79E081E00C9459
:101880001C0C2091DD053091DE052115310509F490
:1018900058C09091E305911509F44DC0905D909367
:1018A00044019091E405911509F447C0905D90932F
:1018B00045019091E505911509F441C0905D909323
:1018C00046019091E605905D4AE39093470140936D
:1018D00048019091E705911102C0232B11F080E39C
:1018E000890F809349018091E805805D80934A01CA
:1018F0008091EB0590E2853008F49AE390934B01D8
:101900009091E905905D90934C019091EA05905D6E
:1019100090934D019EE290934E01805D80934F0124
:101920008091EC05805D809350018091ED05805D94
:10193000809351010895982FB2CF982FB8CF982F48
:10194000BECF809344018093450180934601982F38
:10195000482FBBCF40E150E060E270E08DEF95E0B2
:101960000E941E3140E150E060E270E08DE096E0C0
:101970000C941E3190E09195819591098071992781
:1019800040E150E060E270E083509A4F0C941E31C9
:10199000CF93DF939C010696F901C481C20FD32F28
:1019A000D11D6F71A62F660FBB0BAD5BBE4F2C1701
:1019B0003D0719F4DF91CF910895EDA1EA3331F499
:1019C0004C91FC014193CF012197F1CFEF710E2E85
:1019D000000CFF0BED5BFE4F4081F3CFCF93C82F80
:1019E00080E20E94410CC11519F08AE380934B01FB
:1019F00044E451E061E082E00E941804C0911305C4
:101A00006C2F8CE594E00E94C80C6C2F82E994E066
:101A1000CF910C94C80CFC01448155816081718187
:101A200080E395E00C94190A0F931F93CF93DF93F3
:101A30008C01EB01FE016491611531F0C8010E9437
:101A400065082196892BB1F7DF91CF911F910F91F6
:101A50000895FF920F931F93CF93DF93F82EEB011E
:101A60008B01040F151FC017D10749F0F11469F05D
:101A7000FE0184910E948E0921968111F4CFDF919D
:101A8000CF911F910F91FF9008958881F3CF0F930D
:101A90001F93CF93DF930F92CDB7DEB782E0898398
:101AA00042E450E068E372E080E80E94290D0E9461
:101AB000F009DC0112960D911C910115110539F404
:101AC00089810F90DF91CF911F910F910895D801D7
:101AD000ED91FC910280F381E02DBE016F5F7F4F9D
:101AE000C801099597FDECCFF80100851185E5CF78
:101AF000FC018381811599F08181682B608382814B
:101B000091E090934704809346041092450410920C
:101B1000440488E494E00E9425050C94DF0A0895AB
:101B2000EF92FF920F931F93CF93DF93EC01162F49
:101B3000042FF22E8B85888B10924304109242045E
:101B400010924504109244040E94DA078CEB94E052
:101B500090934104809340048DEB94E090933F0474
:101B600080933E048889EE24E394E09247048093B6
:101B700046040E94DF0A811111C0E98A88E494E0DA
:101B80000E94DB048E878989811549F01F861C829B
:101B900060E0CE010E960E94780D01C0198A2F2DAB
:101BA000402F612FCE01DF91CF911F910F91FF90B8
:101BB000EF900C945106FC01862F6485611599F015
:101BC000218532852115310521F4811107C060E09E
:101BD00005C021303105D9F78111F9CF6587CF01D3
:101BE0000E960C94780D0895EF92FF921F93CF9369
:101BF000DF93EC01FC019C012C5F3F4F80E060FF14
:101C000002C09589892B66953196E217F307B9F7DB
:101C1000413009F44C899D85892B142F182B7E01A6
:101C20008EE0E80EF11C6A89612BC7010E94780DD5
:101C30006A8960956123C701DF91CF911F91FF9061
:101C4000EF900C94780D0F931F93CF93DF93D82FC1
:101C5000C92F142F062F0F7040E0123031F062951B
:101C60006F70412F0E94F40D412F602F8D2F9C2FFC
:101C7000DF91CF911F910F910C94F40DEF92FF9291
:101C80000F931F93CF93DF9390E1899F80011124DD
:101C9000EB01CB0140967C01C8010E942C31899355
:101CA0000F5F1F4FCE15DF05B9F7DF91CF911F9161
:101CB0000F91FF90EF900895DF92EF92FF920F93B4
:101CC0001F93CF93DF93CDB7DEB760970FB6F8942D
:101CD000DEBF0FBECDBF082FF62EE42ED52E11E0AD
:101CE000BE016F5F7F4F8FEF810F0E943E0ECE01CE
:101CF00001960E94D80B2F85388982179307F9F433
:101D0000898180131CC08A818F77F81218C08CE0FB
:101D1000FE013396AE2DBD2D01900D928A95E1F70F
:101D200081E060960FB6F894DEBF0FBECDBFDF91A5
:101D3000CF911F910F91FF90EF90DF9008951F5F5B
:101D4000103471F680E0EDCFCF92DF92FF920F93C7
:101D50001F93CF93DF9390E1899F80011124EB01C2
:101D6000CB0140966C01F990C8010E942C31F81605
:101D700021F06F2DC8010E9434310F5F1F4FCC1529
:101D8000DD0589F7DF91CF911F910F91FF90DF90D3
:101D9000CF90089585ED8093BC008091D6039091FB
:101DA000D703A091D803B091D9030796A11DB11D07
:101DB00023E0B695A795979587952A95D1F7209119
:101DC000BC0024FD03C01092FD0308954091D6038A
:101DD0005091D7036091D8037091D903452B462BBE
:101DE000472B69F30097A105B10541F02AE22A9536
:101DF000F1F700C00197A109B109E1CF8091D503A6
:101E00000C94F807FB01EF2B51F0DB010D90002043
:101E1000E9F71197AD01461B570B0C94190A089569
:101E20006F927F928F929F92AF92BF92CF92DF92EA
:101E3000EF92FF920F931F93CF93DF93CDB7DEB74F
:101E4000A1970FB6F894DEBF0FBECDBF3C01142F93
:101E5000052F962E872E19A2223008F42AE05E0163
:101E600081E2A80EB11CC22ED12CE12CF12C612FE5
:101E7000702F892D982DA70196010E94B42D812FD6
:101E8000902FA92DB82D122F032F942E852E6A3056
:101E900014F5605DF50162935F018C159D05AE053B
:101EA000BF0528F7BF01C3010E94020FA1960FB61C
:101EB000F894DEBF0FBECDBFDF91CF911F910F9180
:101EC000FF90EF90DF90CF90BF90AF909F908F905A
:101ED0007F906F900895695CDDCF6DE172E00C94A6
:101EE000020F1F93CF93DF93D62FC72F142F0E947B
:101EF0000B0D68E073E080E395E00E94140D8D2FD8
:101F00009C2F111549F00E940B0D80E395E0DF91A5
:101F1000CF911F910C946D0FDF91CF911F910C9475
:101F20000B0DCF93DF93D82FC92F0E94020F8D2F57
:101F30009C2FDF91CF910C946D0FCF93DF93D82F0F
:101F4000C92F0E94140D8D2F9C2FDF91CF910C94DF
:101F50006D0F0C94020F0F931F93CF93DF93CDB7A8
:101F6000DEB762970FB6F894DEBF0FBECDBF6F87A6
:101F7000788B898B9A8B042F122F1B861C861D86CB
:101F80001E86BE01615F7F4FCE010B960E94150336
:101F900080E30E94410C111531F060E272E080E3B1
:101FA00095E00E94A90F011599F080914501898360
:101FB000809146018A83809147018B838AE38C83D9
:101FC0001D82BE016F5F7F4F80E395E00E94A90FE5
:101FD00080914901898380914A018A838AE38B83B6
:101FE00080914C018C8380914D018D838EE28E8394
:101FF00080914F018F83809150018887809151019A
:1020000089871A86BE016F5F7F4F80E395E00E944B
:10201000A90F111531F063E272E080E395E00E94B0
:10202000A90F62960FB6F894DEBF0FBECDBFDF9149
:10203000CF911F910F910895CF93DF93EC01888189
:102040009981009711F00E94CE2F198218821D826B
:102050001C821B821A82DF91CF910895009711F0A4
:102060000C94CE2F08950F931F93CF93DF93EC0121
:102070008B0188819981009729F02A813B8126175D
:10208000370790F4B8016F5F7F4F0E945F30FC010B
:1020900080E0309751F0F983E8831B830A838C81B9
:1020A0009D81892B09F4108281E0DF91CF911F91EE
:1020B0000F910895EF92FF920F931F93CF93DF93A9
:1020C000EC017B01FB0101900020E9F731978F01C2
:1020D000061B170BB8010E943310811109C0CE01F5
:1020E000DF91CF911F910F91FF90EF900C941C10F6
:1020F0001D830C83B70188819981DF91CF911F9156
:102100000F91FF90EF900C942531CF92DF92FF92C8
:102110000F931F93CF93DF9300D000D000D0CDB7A3
:10212000DEB78C01F62E20911B0180E1289FB001C3
:1021300011246F507E4F1C821B821E821D821A82C8
:102140001982CE0101960E945A10C980DA804F2D63
:10215000B801CE0101960E94710FC6010F900F9039
:102160000F900F900F900F90DF91CF911F910F91D3
:10217000FF90DF90CF900C942E10FC01448150E032
:1021800060E270E006960C941E31CF93DF93C0910D
:102190000905D0910A0564E075E080E095E020979C
:1021A00021F06FE075E08BE095E00E94150380E27E
:1021B0000E94410C219731F444E451E061E086E053
:1021C0000E94180488EC94E00E94BD10C091130591
:1021D0006C2F82E994E00E94C80C6C2F8CE594E08F
:1021E000DF91CF910C94C80C8F929F92AF92BF92C7
:1021F000CF92DF92EF92FF920F931F93CF93DF93D3
:102200006B017C01A7019601C701B6010E94A532AE
:1022100065E272E0811114C0C701B6010E949B32D1
:1022200069E272E0892B61F42FEF3FEF4FE75FE443
:10223000C701B6010E949632181694F46DE272E05E
:1022400080E395E0DF91CF911F910F91FF90EF9088
:10225000DF90CF90BF90AF909F908F900C94020F23
:102260002FEF3FEF4FE75FECC701B6010E94142E3E
:1022700087FDE4CF20E030E0A901C701B6010E944C
:10228000142E87FF09C06DE280E395E00E94650887
:10229000F7FAF094F7F8F0942EE632E143E05AE3CF
:1022A000C701B6010E9489316B017C010E9467322F
:1022B0008B01D82FC92F0E94192E9B01AC01B601AA
:1022C000C7010E9488316B017C012AE0A8016D2FB3
:1022D0007C2F80E395E00E94100F6EE280E395E092
:1022E0000E946508C3E020E030E040E251E4B6011E
:1022F000C7010E947A2EF62E072F182FD92F0E9481
:1023000067324B01A12CB12C2AE0B501A40180E376
:1023100095E00E94100FC501B4010E94192E9B0187
:10232000AC016F2D702F812F9D2F0E9488316B0182
:102330007C01CA95C1F6DF91CF911F910F91FF905B
:10234000EF90DF90CF90BF90AF909F908F900895C7
:102350003F924F925F926F927F928F929F92AF9235
:10236000BF92CF92DF92EF92FF920F931F93CF9382
:10237000DF9300D000D0CDB7DEB720910C012983C8
:102380006AE070E080E090E00E94FD05898181159F
:1023900009F454C16CE871E080E395E00E949D0F60
:1023A00020918005A1E8B5E0BA83A983FD0180E012
:1023B000812C912C5401C12CD12C760144244A94B7
:1023C000542C32018213BFC0BFEF4B165B066B0665
:1023D0007B06C1F0D701C601C814D904EA04FB0486
:1023E00010F4D501C4010097A105B10559F0841975
:1023F0009509A609B709332433948F379E4EA64317
:10240000B10508F4312C00E010E080918005081738
:10241000110508F4B0C09FEF491659066906790600
:1024200009F476C0C114D104E104F10409F470C0C8
:1024300081149104A104B10409F46AC0D701C60152
:1024400084199509A609B70989839A83AB83BC834C
:10245000D501C40184199509A609B7092C013D01CC
:1024600080E395E00E946D0F67E471E080E395E002
:102470000E949D0F6BE371E080E395E00E94140DD4
:1024800020E0432D69817A818B819C810E94AB0F72
:1024900080E395E00E946D0F6FE271E080E395E0CC
:1024A0000E94140D20E0432DC301B2010E94AB0F26
:1024B00080E395E00E946D0F89819A81AB81BC8198
:1024C00084159505A605B70508F095C069E171E08A
:1024D00080E395E00E949D0F6DE071E080E395E060
:1024E0000E94140DC501B4016C197D098E099F0964
:1024F0000E94192E20E030E04AE754E40E94F531B2
:102500000E94F41063E372E080E395E00E94910F73
:102510006DEB70E080E395E00F900F900F900F90BF
:10252000DF91CF911F910F91FF90EF90DF90CF90AF
:10253000BF90AF909F908F907F906F905F904F90E3
:102540003F900C949D0F9481913039F440805180DC
:10255000628073808F5F359635CF933029F4C080C9
:10256000D180E280F380F6CF9430A1F78080918013
:10257000A280B380EFCFA981BA816D917D918D91B9
:102580009C91641975098609970921E0432D0E94E1
:10259000AB0F61E372E080E395E00E94A90FE9814F
:1025A000FA818481843009F190F48130D9F067E7B1
:1025B00071E0833091F080E395E00E946D0F0F5F32
:1025C0001F4F89819A8105969A8389831ECF853012
:1025D00079F06DE571E0863071F780E395E00E9457
:1025E000140DE9CF66E871E0F8CF67E671E0F5CF4A
:1025F00063E671E0F2CF89819A81AB81BC81481694
:1026000059066A067B0698F466EF70E080E395E071
:102610000E949D0F6AEE70E080E395E00E94140D29
:10262000C701B601681979098A099B0961CF64ED70
:1026300070E080E395E00E949D0F6ACF0F900F90AD
:102640000F900F90DF91CF911F910F91FF90EF901E
:10265000DF90CF90BF90AF909F908F907F906F90C2
:102660005F904F903F900895EF92FF920F931F93CA
:10267000CF93DF93EC018B01CB010E940B2E7C01E9
:10268000BC01CE010E943310811109C0CE01DF913F
:10269000CF911F910F91FF90EF900C941C10EC8242
:1026A000FD82B80188819981DF91CF911F910F91AF
:1026B000FF90EF900C94042ECF92DF92FF920F9335
:1026C0001F93CF93DF9300D000D000D0CDB7DEB7FB
:1026D0008C01F62E1C821B821E821D821A82198298
:1026E00061E073E0CE0101960E943413C980DA8064
:1026F0004F2DB801CE0101960E94710FC6010F90B7
:102700000F900F900F900F900F90DF91CF911F912E
:102710000F91FF90DF90CF900C942E105F926F92EC
:102720007F928F929F92AF92BF92CF92DF92EF9261
:10273000FF920F931F93CF93DF93CDB7DEB76697CA
:102740000FB6F894DEBF0FBECDBF782E962E542E56
:10275000652E812CCE0101967C01A982BA82188B4C
:102760000F87B701882D0E943E0EA980BA800F8581
:102770001889C7010E94D80B67018017910789F556
:102780007A102FC08B2D8F7798122BC09B109AC078
:102790008CE0E52DF62DDE01139601900D928A95C1
:1027A000E1F7C7010E94D80B988B8F87B701882D5E
:1027B0000E94A40E81E066960FB6F894DEBF0FBEAD
:1027C000CDBFDF91CF911F910F91FF90EF90DF90E0
:1027D000CF90BF90AF909F908F907F906F905F90C1
:1027E0000895839490E48912B8CFE12CA982BA822B
:1027F000188B0F87B6018E2D0E943E0EA980BA80DD
:102800000F851889C6010E94D80B80179107F9F42B
:10281000E39420E4E212EACFF12CA982BA82188B69
:102820000F87B6018F2D0E943E0EA980BA800F85BA
:102830001889C6010E94D80B8017910711F4A7FCD4
:1028400020C0F39480E4F812E8CFEE24EA94FF2449
:10285000FA948CE0E52DF62DDE01139601900D9291
:102860008A95E1F779829A82188B0F87C6010E94B8
:10287000D80B2FEFE21641F08F87988BB6018E2D83
:1028800097CFEE24EA94E5CF2FEFF21629F08F8749
:10289000988BB6018F2D8CCF1C8A1B8A1E8A1D8AAD
:1028A0001A8A198A6DEF74E0CE0141960E943413A2
:1028B00009891A8961E0CE0141960E945C13C80122
:1028C0000E942E1080E077CF0F931F93CF93DF935A
:1028D00000D000D000D0CDB7DEB7E1E8F5E08FEF53
:1028E0009FEFDC0180839183A283B38314823596AA
:1028F00025E0E13DF207B1F7109280051C821B82B2
:102900001E821D821A8219826FEE74E0CE0101963A
:102910000E94341309811A8161E0CE0101960E9460
:102920005C13C8010F900F900F900F900F900F90B5
:10293000DF91CF911F910F910C942E108F929F9247
:10294000AF92BF92CF92DF92EF92FF920F931F93BD
:10295000CF93DF93CDB7DEB728970FB6F894DEBFDD
:102960000FBECDBF8C01DB01FA012FB7F8944D915A
:102970005D916D917C91808191812FBFF801C18023
:10298000D280E380F4804A015B018C189D08AE0878
:10299000BF08278182169104A104B10408F472C013
:1029A0004183528363837483880F991F880F991F13
:1029B0009683858381E0808380915801811509F495
:1029C00061C01C821B821E821D821A82198269EEDE
:1029D00074E0CE0101967C010E943413C980DA8034
:1029E00060E0C7010E945C13C6010E942E10F8012E
:1029F00080858983F1E00C361F0739F48091F70553
:102A00009091F805892B09F450C080E28A8380E414
:102A10008B8380E2D82EDC821D82B70180E395E0B3
:102A20000E94A90FF80141815281638174812AE0DB
:102A300080E395E00E94100F8EE28983F8012581E2
:102A40003681C90164E670E00E94A02D605D6A8352
:102A5000EAE0F0E0C901BF010E94A02D282FCB01C0
:102A6000BF010E94A02D805D8B83205D2C83DD82C1
:102A70008DE68E8383E78F831886B70180E395E028
:102A80000E94910F28960FB6F894DEBF0FBECDBFFF
:102A9000DF91CF911F910F91FF90EF90DF90CF903A
:102AA000BF90AF909F908F9008958BE2AFCFCF9261
:102AB000DF92EF92FF92CF93DF9300D000D000D04F
:102AC000CDB7DEB78091580490915904892BF9F065
:102AD0008AE090E00E94E4020E94D8026E5C7F4F80
:102AE0008F4F9F4F6B017C010E94D8026C157D05B2
:102AF0008E059F0560F48091F7059091F8050C977D
:102B000031F0E0915804F09159040995EDCF1092FD
:102B10005704E0915604E0931B0180E1E89FF00127
:102B20001124E051FE4F8685978590935904809338
:102B3000580489E090E00E94E4021C821B821E82FD
:102B40001D821A8219826DE473E0CE0101960E9403
:102B50003413E980FA8060E0CE0101960E945C1394
:102B6000C7010E942E1060911B0120E1629FB001FD
:102B700011246F507E4F80E395E00E94A90F63E41B
:102B800073E080E395E00F900F900F900F900F90FF
:102B90000F90DF91CF91FF90EF90DF90CF900C944A
:102BA0009D0FCF92DF92EF92FF920F931F93CF93DF
:102BB000DF93CDB7DEB768970FB6F894DEBF0FBED0
:102BC000CDBF89E00E941908019791F481E08093BC
:102BD000570468960FB6F894DEBF0FBECDBFDF91E5
:102BE000CF911F910F91FF90EF90DF90CF900895BC
:102BF0001C8A1B8A1E8A1D8A188E1F8A8E010D5EF2
:102C00001F4F6FE373E0C8010E9434138091750178
:102C10007801811581F0809155048F5F833008F031
:102C200080E0109275018093550480E00E94BA0CF8
:102C300081E00E94BA0C10915504113009F46CC067
:102C4000123009F4BBC0111155C080916301811588
:102C500071F01092630180915604811102C080913D
:102C6000540481508093560481E00E94BA0C8091F4
:102C70005A01811591F010925A01209156048091C9
:102C800054048150990B2817190611F011E0120F06
:102C90001093560481E00E94BA0C80915A04811569
:102CA00049F11C821B821E821D821A82198269E3ED
:102CB00073E0CE0101960E94341309811A81AE019E
:102CC0004F5F5F4F60E080E00E942F04C8010E94C8
:102CD0002E10A70161E080E00E942F04409156046D
:102CE00080E1489FA00111244F505E4F61E084E0D5
:102CF0000E9418048B899C8968960FB6F894DEBFF1
:102D00000FBECDBFDF91CF911F910F91FF90EF903C
:102D1000DF90CF900C942E1080916301811509F4FF
:102D200045C0109263018091580191E089278093FA
:102D3000580180915A048115E9F21C821B821E827F
:102D40001D821A82198263E373E08E010F5F1F4FA9
:102D5000C8010E943413C980DA80A80160E080E0D5
:102D60000E942F04C6010E942E10A70161E080E09E
:102D70000E942F04809158016FE273E0811102C01C
:102D80006BE273E01C821B821E821D821A821982F2
:102D9000C8010E943413E980FA80A80161E084E050
:102DA0000E942F04C7010E942E10A4CF80915A01C7
:102DB000811509F4BECF10925A01B5CF80916301FD
:102DC000811539F11092630180911B0189838091F3
:102DD00058018A83AE014F5F5F4F63E080E00E943D
:102DE0008E130E94380C188A1F861A8A198A1E862A
:102DF0001D8663E273E0CE010D960E9434130D85AB
:102E00001E8561E0CE010D960E945C13C8010E94F0
:102E10002E1080915A018115D1F010925A018BE049
:102E200090E09093F8058093F705E0911B0180E115
:102E3000E89FF0011124E051FE4F0684F785E02D54
:102E400009958DE090E09093F8058093F7058091C7
:102E50005A04811509F44ECF1C821B821E821D82EA
:102E60001A8219826CE173E0CE0101960E9434133C
:102E700009811A81AE014F5F5F4F60E080E00E94E0
:102E80002F04C8010E942E101C821B821E821D82EC
:102E90001A8219826BE073E0CE0101960E9434130E
:102EA00009811A81AE014F5F5F4F61E080E00E94AF
:102EB0002F04C80178CFEF92FF921F93CF93DF9337
:102EC00000D000D000D0CDB7DEB7182FE09180053C
:102ED00085E0E89FF0011124EF57FA4F40835183BA
:102EE0006283738314831C821B821E821D821A825A
:102EF000198264EB70E0CE0101960E943413E980E0
:102F0000FA8060E0CE0101960E945C13C7010E9426
:102F10002E10412F50E060E070E02AE080E395E061
:102F20000E94100F6CEA70E080E395E00E949D0F14
:102F3000809180058F5F809380050F900F900F9098
:102F40000F900F900F90DF91CF911F91FF90EF9016
:102F500008954F925F926F927F928F929F92AF925D
:102F6000BF92CF92DF92EF92FF921F93CF93DF93A6
:102F7000CDB7DEB766970FB6F894DEBF0FBECDBFF4
:102F8000E091F705F091F805EC30F10508F09EC1ED
:102F9000E554FD4C0C94F52D8CE090E066960FB650
:102FA000F894DEBF0FBECDBFDF91CF911F91FF9090
:102FB000EF90DF90CF90BF90AF909F908F907F90D9
:102FC0006F905F904F900C94E4028CE594E00E9427
:102FD000BD1088EC94E00E94BD1082E994E00E944C
:102FE000BD1019821A821B821C82AE014F5F5F4F97
:102FF00060E081E00E945C0E811591F15B814C8163
:10300000298130E0ACE3B0E00E9479312A81620F7F
:10301000711D811D911D9B01A8EEB3E00E947931C5
:10302000609340017093410180934201909343016A
:10303000252F30E00E9479316B017C01242F30E094
:10304000A4E6B0E00E947931C60ED71EE81EF91E34
:10305000C0923C01D0923D01E0923E01F0923F01CE
:1030600024E030E03093FF042093FE048FE6809349
:10307000080530930A05209309058093130580E025
:1030800090E08CCF80917E01811599F110927E01A4
:103090000E94AA0C1C821B821E821D821A82198227
:1030A0006FED74E0CE0101960E943413E980FA803E
:1030B00042E061E0CE0101960E946204C7010E94D5
:1030C0002E101C821B821E821D821A8219826EECB7
:1030D00074E0CE0101960E943413E980FA80AE01BB
:1030E0004F5F5F4F61E080E00E942F04C7010E94A4
:1030F0002E1080916C01811509F4E8C010926C01CA
:1031000085E090E04BCF80917E01811509F485C068
:1031100010927E0181E08093F6050E94AA0C1C8229
:103120001B821E821D821A82198268EC74E0CE0115
:1031300001960E943413E980FA80CE0101960E9424
:103140009F04C7010E942E101C821B821E821D82BA
:103150001A82198267EB74E0CE0101960E94341343
:10316000E980FA80AE014F5F5F4F61E080E00E942E
:103170002F04C7010E942E10109200051092010525
:103180001092020510920305109204051092050595
:10319000109206051092070510920B0510920C056F
:1031A00010920D0510920E0510920F051092100549
:1031B00010921105109212051092FF041092FE0455
:1031C0008BE68093080510920A05109209058093FA
:1031D000130564E075E080E095E00E94150380E24D
:1031E0000E94410C4091600450E066E172E082E888
:1031F00094E00E9415314091CC0450E06CE271E003
:103200008EEE94E00E9415314091960450E06CE1FE
:1032100071E088EB94E00E9415318091F6058115EC
:1032200081F10E94D802AB01BC0180913C019091D8
:103230003D01A0913E01B0913F01C090F905D090B1
:10324000FA05E090FB05F090FC058C0D9D1DAE1D70
:10325000BF1D84179507A607B70798F41092F605C7
:1032600010910805612F8CE594E00E94C80C612F35
:1032700088EC94E00E94C80C612F82E994E00E94DF
:10328000C80C80916C01811519F010926C01F7CE79
:1032900080916301811529F01092630188E090E02C
:1032A0007DCE8AE00E941908892BC1F380915A01D2
:1032B000811519F010925A01F1CF8BE00E94190884
:1032C000892B61F380917501811116C066960FB646
:1032D000F894DEBF0FBECDBFDF91CF911F91FF905D
:1032E000EF90DF90CF90BF90AF909F908F907F90A6
:1032F0006F905F904F900895109275010E940603A1
:103300001C821B821E821D821A82198269EA74E065
:10331000CE0101960E943413E980FA8061E0CE016B
:1033200001960E948510C7010E942E100E9464140D
:103330004091760150917701609178017091790107
:1033400081E00E945B178091760190917701A091B6
:103350007801B09179018093000590930105A093C5
:103360000205B093030580930B0590930C05A09381
:103370000D05B0930E0521E030E03093FF0420935B
:10338000FE0488E68093080530930A05209309051A
:103390008093130582E090E001CE80917E0181153B
:1033A000C1F010927E011C821B821E821D821A8235
:1033B00019826BE974E0CE0101960E943413E98012
:1033C000FA8061E0CE0101960E948510C7010E943B
:1033D0002E1080916C01811158CF8AE00E9419084B
:1033E000892B09F094C085E090E09093FF048093CE
:1033F000FE04805F9D4FFC018081809308058BE077
:103400000E941908892B09F085C085E090E090930F
:103410000A0580930905805F9D4FFC0180818093A0
:1034200013058091FE049091FF04059709F075C083
:103430001C821B821E821D821A82198265E974E039
:10344000CE0101960E943413E980FA80BE016F5FBD
:103450007F4F88EC94E00E94B002C7010E942E10BA
:103460008091090590910A05059709F05BC01C82BF
:103470001B821E821D821A8219826FE874E0CE01BF
:1034800001960E943413E980FA80BE016F5F7F4F7E
:1034900082E994E00E94B002C7010E942E10809140
:1034A000FE049091FF042091090530910A05822BBA
:1034B000932B1C821B821E821D821A821982892BE9
:1034C000B1F564E874E0CE0101960E943413E980FE
:1034D000FA8061E0CE0101960E948510C7010E942A
:1034E0002E108CE594E00E94BD1080916301811143
:1034F0001092630180915A01811110925A018091BA
:10350000750181111092750181E090E047CD80E056
:1035100090E06BCF80E090E07ACF88EC94E00E945E
:10352000BD109ECF82E994E00E94BD10B8CF6EE737
:1035300074E0CE0101960E943413E980FA80BE0146
:103540006F5F7F4F8CE594E00E94B002C7010E943C
:103550002E1081E00E94BA0C1C821B821E821D82EA
:103560001A8219826FE674E0CE0101960E9434132C
:10357000E980FA80AE014F5F5F4F61E080E00E941A
:103580002F04C7010E942E108091090590910A0511
:10359000EFE0059721F480E580931C06EEE0809132
:1035A000FE049091FF04059729F4F0E0E350FA4FF0
:1035B0008CE4808B80915B04811509F487CE24E62E
:1035C00030E040E550E060ED77E083E066960FB6CE
:1035D000F894DEBF0FBECDBFDF91CF911F91FF905A
:1035E000EF90DF90CF90BF90AF909F908F907F90A3
:1035F0006F905F904F900C941C0C80917E01811510
:10360000D9F010927E010E94AA0C1C821B821E829D
:103610001D821A82198269E674E0CE0101960E9429
:103620003413E980FA8046E065E0CE0101960E94FD
:103630006204C7010E942E108091FE049091FF0445
:10364000019709F06FC080916301811509F46AC088
:10365000109263014091640150916501609166018F
:10366000709167014093040550930505609306052A
:103670007093070582E090E09093FF048093FE042E
:103680008BE68093080583E00E945B1764E075E099
:1036900080E095E00E94150380E20E94410C609159
:1036A000080588EC94E00E94C80C8AE380934B01E3
:1036B00044E451E060E082E00E9418041C821B8216
:1036C0001E821D821A8219826AED73E0CE01019674
:1036D0000E943413E980FA80AE014F5F5F4F60E0D3
:1036E00080E00E942F04C7010E942E101C821B82C2
:1036F0001E821D821A8219826FEC73E0CE01019640
:103700000E943413E980FA8060E0CE0101960E94A5
:103710008510C7010E942E1064E471E080E395E0FB
:103720000E94910F8091090590910A05019709F077
:103730008DC080915A01811509F488C010925A01F8
:1037400040915B0150915C0160915D0170915E015F
:1037500040930F0550931005609311057093120567
:1037600082E090E090930A05809309058BE68093B0
:10377000130584E00E945B176FE075E08BE095E035
:103780000E94150380E20E94410C6091130582E9BA
:1037900094E00E94C80C8091FE049091FF04019770
:1037A000C1F41C821B821E821D821A82198261EF63
:1037B00073E0CE0101960E943413E980FA80AE01D5
:1037C0004F5F5F4F60E080E00E942F04C7010E94BE
:1037D0002E108AE380934B0144E451E061E082E0E3
:1037E0000E9418041C821B821E821D821A8219826A
:1037F0006BEE73E0CE0101960E943413E980FA80EB
:10380000AE014F5F5F4F61E080E00E942F04C7016F
:103810000E942E101C821B821E821D821A82198217
:103820006FED73E0CE0101960E943413E980FA80B7
:1038300060E0CE0101960E948510C7010E942E1003
:1038400064E471E080E395E00E94910F8091FE04B2
:103850009091FF04029791F58091090590910A05D6
:10386000029761F580910F0590911005A0911105C7
:10387000B09112054091040550910505609106052F
:1038800070910705481759076A077B0790F46FE0A6
:1038900075E08BE095E00E94150380E20E94410CE8
:1038A000609108058CE594E00E94C80C84E090E0EB
:1038B00075CB64E075E080E095E0EDCF10915A049F
:1038C000111509F443C00E94D80269837A838B835F
:1038D0009C83BE016F5F7F4F8BE095E00E941503D4
:1038E00080E20E94410C8091090590910A050197A0
:1038F00099F410911305612F82E994E00E94C80C9D
:10390000612F8CE594E00E94C80C44E451E061E032
:1039100082E00E94180410E08091FE049091FF0460
:103920000197A1F4F09008056F2D88EC94E00E94B7
:10393000C80C111559F06F2D8CE594E00E94C80C4D
:1039400044E451E060E082E00E94180480916C0140
:10395000811509F4BBCC10926C011C821B821E8263
:103960001D821A8219826AE574E0CE0101960E94D6
:103970003413E980FA8061E0CE0101960E9485103F
:10398000C7010E942E1040916D0150916E0160910F
:103990006F017091700186E00E945B171C821B8290
:1039A0001E821D821A8219826DE474E0CE01019696
:1039B0000E943413E980FA80CE0101960E949F0490
:1039C000C7010E942E1022E030E03093FF042093C4
:1039D000FE048BE68093080530930A0520930905C1
:1039E0008093130563CF80917E018115D1F01092F1
:1039F0007E011C821B821E821D821A8219826EE346
:103A000074E0CE0101960E943413E980FA8061E0EF
:103A1000CE0101960E948510C7010E942E100E94BF
:103A2000A81180916C01811130CC50CC80917E0125
:103A3000811509F485C010927E0181E08093F6051E
:103A400010920005109201051092020510920305D4
:103A50008091400190914101A0914201B0914301B8
:103A60008093040590930505A0930605B093070580
:103A70001092FF041092FE048BE6809308051092CA
:103A80000A05109209058093130564E075E080E053
:103A900095E00E94150380E20E94410C10924E01B5
:103AA0000E94AA0C1C821B821E821D821A8219820D
:103AB00066E374E0CE0101960E943413E980FA8037
:103AC000CE0101960E949F04C7010E942E1044E47B
:103AD00051E061E086E00E9418041C821B821E8275
:103AE0001D821A8219826CE274E0CE0101960E9456
:103AF0003413E980FA80AE014F5F5F4F61E080E0F0
:103B00000E942F04C7010E942E1087E0EFE3F2E02D
:103B1000DE01119601900D928A95E1F787E0FE0192
:103B20003196A8EBB4E001900D928A95E1F787E019
:103B3000FE013196A2E8B4E001900D928A95E1F77A
:103B40008091F605811509F10E94D802AB01BC01F4
:103B500080913C0190913D01A0913E01B0913F01C7
:103B6000C090F905D090FA05E090FB05F090FC05B7
:103B70008C0D9D1DAE1DBF1D481759076A077B0799
:103B800020F01092F6050E94C51080916301811506
:103B900041F1109263018091400190914101A09107
:103BA0004201B09143018133F5E79F07A105B105BB
:103BB00008F459C080539547A109B1098093400189
:103BC00090934101A0934201B093430181E080931F
:103BD0007E011092F9051092FA051092FB051092E1
:103BE000FC0580915A01811561F110925A01809172
:103BF000400190914101A0914201B091430181396E
:103C000022EB920728E0A207B10520F080E992EBB1
:103C1000A8E0B0E0805D9A48AF4FBF4F809340016D
:103C200090934101A0934201B093430181E08093BE
:103C30007E011092F9051092FA051092FB05109280
:103C4000FC0580917501811531F01092750186E0B7
:103C500090E00E94E40280916C01811509F436CB5A
:103C600010926C0151CC80E395E7A0E0B0E0A6CFC4
:103C700080917E01811509F45DC00E9406031092B7
:103C80007E011C821B821E821D821A8219826CE1B7
:103C900074E0CE0101960E943413E980FA8061E05D
:103CA000CE0101960E948510C7010E942E100E942D
:103CB000AA0C1C821B821E821D821A82198264E158
:103CC00074E0CE0101960E943413E980FA8046E048
:103CD00065E0CE0101960E946204C7010E942E1089
:103CE00081E090E090930A058093090588E680932F
:103CF00013050E94D802462F572FBC0140930B0595
:103D000050930C0560930D0570930E05809104058A
:103D100090910505A0910605B0910705840F951FA8
:103D2000A61FB71F80930F0590931005A093110550
:103D3000B093120580916C018115D9F010926C013D
:103D40001C821B821E821D821A82198264E074E02A
:103D5000CE0101960E943413E980FA8061E0CE0121
:103D600001960E948510C7010E942E100E94380CF7
:103D7000CBCB80915A04811509F4A8CA0E94D802BD
:103D8000462F572FBC0140930B0550930C056093B1
:103D90000D0570930E0580910F0590911005A0916F
:103DA0001105B091120584179507A607B707B8F05B
:103DB00066960FB6F894DEBF0FBECDBFDF91CF91F0
:103DC0001F91FF90EF90DF90CF90BF90AF909F90AA
:103DD0008F907F906F905F904F900C94C5101C82D5
:103DE0001B821E821D821A82198264EF73E0CE014B
:103DF00001960E943413E980FA8061E0CE010196B9
:103E00000E948510C7010E942E1081E090E00E9460
:103E1000E40220E030E040ED57E068EC70E081E043
:103E2000D5CBC0904001D0904101E0904201F0908C
:103E3000430160913C0170913D0180913E01909160
:103E40003F0128EE822E23E0922EA12CB12CA50159
:103E500094010E94B42D29013A016B8B7C8B8D8BD0
:103E60009E8BC701B60120E63AEE40E050E00E948A
:103E7000B42D2983C701B601A50194010E94B42D78
:103E80006CE3862E912CA12CB12CCA01B901A5019D
:103E900094010E94B42D6A83C301B201A50194016B
:103EA0000E94B42D6B836B897C898D899E8924E661
:103EB00030E040E050E00E94B42D2C83AE014F5F13
:103EC0005F4F60E081E00E948E13811509F4FEC906
:103ED0000E94380C188A1F861A8A198A1E861D8627
:103EE00066E372E0CE010D960E945A10ED84FE84C6
:103EF00061E0CE010D960E948510C70166960FB64F
:103F0000F894DEBF0FBECDBFDF91CF911F91FF9020
:103F1000EF90DF90CF90BF90AF909F908F907F9069
:103F20006F905F904F900C942E100F931F93CF9330
:103F3000DF9300D000D000D0CDB7DEB78091F70579
:103F40009091F8058430910509F411C2B0F48130E4
:103F5000910509F496C08230910509F441C1892B7D
:103F600009F44EC00F900F900F900F900F900F908C
:103F7000DF91CF911F910F9108958930910581F0C4
:103F80000A9781F78CE090E00F900F900F900F90C0
:103F90000F900F90DF91CF911F910F910C94E4023D
:103FA0008CE594E00E94BD1088EC94E00E94BD1066
:103FB00082E994E00E94BD104091600450E066E107
:103FC00072E082E894E00E9415314091960450E03E
:103FD0006CE171E088EB94E00E94153124E030E060
:103FE0003093FF042093FE048FE6809308053093FE
:103FF0000A05209309058093130580E090E0C4CF63
:1040000080917E01811599F110927E010E94AA0C87
:104010001C821B821E821D821A82198264EC73E04C
:10402000CE0101960E94341309811A8142E061E0B9
:10403000CE0101960E946204C8010E942E101C82CB
:104040001B821E821D821A82198263EB73E0CE01ED
:1040500001960E94341309811A81AE014F5F5F4FB0
:1040600061E080E00E942F04C8010E942E10809120
:104070006C01811509F476CF10926C0181E090E01B
:1040800083CF80917E01811509F45BC010927E017F
:104090000E94AA0C1C821B821E821D821A82198217
:1040A0006CEA73E0CE0101960E94341309811A81F3
:1040B000CE0101960E949F04C8010E942E101C820E
:1040C0001B821E821D821A8219826BE973E0CE0167
:1040D00001960E94341309811A81AE014F5F5F4F30
:1040E00061E080E00E942F04C8010E942E1010920F
:1040F0000B0510920C0510920D0510920E051092F2
:104100000F051092100510921105109212051092D1
:104110000A05109209058BE6809313056FE075E0A0
:104120008BE095E00E94150380E20E94410C6BE653
:104130008CE594E00E94C80C6BE682E994E00E9452
:10414000C80C80916C01811519F010926C0155CF4B
:1041500080917501811509F405CF109275010E94B7
:1041600006031C821B821E821D821A8219826BE842
:1041700073E0CE0101960E94341309811A8161E037
:10418000CE0101960E948510C8010E942E100E9447
:10419000641440917601509177016091780170919B
:1041A000790181E00E945B178091760190917701FF
:1041B000A0917801B091790180930B0590930C0543
:1041C000A0930D05B0930E0581E090E090930A0551
:1041D0008093090588E68093130582E090E0D4CEB1
:1041E00080917E018115D9F010927E010E94AA0C67
:1041F0001C821B821E821D821A82198264E873E06F
:10420000CE0101960E94341309811A8146E065E0CF
:10421000CE0101960E946204C8010E942E10809176
:104220007501811509F43FC0109275014091760126
:1042300050917701609178017091790140930F0559
:1042400050931005609311057093120585E00E944C
:104250005B1782E090E090930A05809309058BE656
:10426000809313056FE075E08BE095E00E941503E5
:1042700081E00E94EE0C1C821B821E821D821A822B
:10428000198265E573E0CE0101960E94341309811D
:104290001A81CE0101960E949F04C8010E942E102F
:1042A00084E090E071CE80915A04811581F00E94E3
:1042B000D80269837A838B839C83BE016F5F7F4FB3
:1042C0008BE095E00E94150380E00E94EE0C809147
:1042D0006C01811509F446CE10926C011C821B8280
:1042E0001E821D821A82198265E773E0CE01019653
:1042F0000E94341309811A8161E0CE0101960E9467
:104300008510C8010E942E1040916D0150916E01E0
:1043100060916F017091700186E00E945B176DE6FD
:1043200071E08BE095E00E94150381E00E94EE0CA5
:104330001C821B821E821D821A8219826DE673E026
:10434000CE0101960E94341309811A81CE01019693
:104350000E949F04C8010E942E1082E090E090937A
:104360000A05809309058BE68093130599CF809108
:104370007E018115D1F010927E011C821B821E826B
:104380001D821A8219826EE573E0CE0101960E94A9
:10439000341309811A8161E0CE0101960E948510D3
:1043A000C8010E942E100E94A81180916C018111F9
:1043B000CCCED8CD1F921FB61F9211248F939F93FE
:1043C000AF93BF938091F2059091F305A091F4050E
:1043D000B091F5050196A11DB11D8093F205909352
:1043E000F305A093F405B093F5058091F1058F5F77
:1043F0008093F105853228F01092F10581E08093D9
:10440000F005BF91AF919F918F911F901FBE1F909C
:1044100018951F920F920FB60F9211242F933F936E
:104420004F935F936F937F938F939F93AF93BF93BC
:10443000EF93FF939091B900892F887F803509F41D
:10444000C0C008F042C0803309F4B6C098F5883186
:1044500001F1D0F4883009F4A7C0803109F4A4C078
:10446000811509F4F0C0FF91EF91BF91AF919F9139
:104470008F917F916F915F914F913F912F910F900D
:104480000FBE0F901F901895803209F495C08832A6
:1044900051F79091D2038091D103981778F5E0916C
:1044A000D20381E08E0F8093D203F0E0EF54FC4FF3
:1044B00080817CC0803409F490C0883409F47EC0C7
:1044C000883389F68093B0036DC0803A09F49FC0A9
:1044D000B8F5803809F489C050F5803611F1D8F468
:1044E000883509F6E091D20381E08E0F8093D203E4
:1044F0008091BB00F0E0EF54FC4F80838091FC037F
:1045000081115CC081E08093FB0384EA8093BC004E
:104510001092FD03A8CF803721F0987E983609F0DD
:10452000A2CF83E08093FD031092AF0341C0803996
:1045300009F45BC0987E983809F095CF85E839C0BA
:10454000883BD9F058F5883A19F0803B09F08BCFB9
:1045500084E08093FD0310928E031092FA03E091A1
:104560004004F091410409958091FA03811105C03E
:1045700081E08093FA031092DA03E0918E0381E0E8
:104580008E0F80938E03F0E0E652FC4F8081809383
:10459000BB0090918E038091FA0323C0907F903CE2
:1045A00009F061CF85ECB2CF8091D3038093BB003B
:1045B00085EC8093BC0057CF8093B0030E94CA0E55
:1045C00052CFE091D20381E08E0F8093D20380918D
:1045D000BB00F0E0EF54FC4F80839091D2038091B8
:1045E000D103981708F0AACFE3CF8091AF038032B0
:1045F00008F0A4CFE091AF0381E08E0F8093AF036A
:104600008091BB00F0E0E157FC4F8083D1CF85EC77
:104610008093BC001092FD038091AF03803230F490
:10462000E091AF03F0E0E157FC4F10826091AF03DF
:1046300070E0E0913E04F0913F048FE893E009952B
:104640001092AF0310CF1092B003B8CF1F920F9209
:104650000FB60F9211242F933F934F935F936F9355
:104660007F938F939F93AF93BF93CF93EF93FF93DA
:1046700083B1C0918D0390918C03C923982F90959D
:10468000C92380938D03C4FF05C0E0910D01F09113
:104690000E010995C5FF05C0E0910F01F0911001D1
:1046A0000995C6FF05C0E0911101F091120109952D
:1046B000C7FF05C0E0911301F09114010995C1FFF6
:1046C00005C0E0911501F09116010995C2FF05C0E2
:1046D000E0911701F09118010995C3FF05C0E09121
:1046E0001901F0911A010995FF91EF91CF91BF91B6
:1046F000AF919F918F917F916F915F914F913F917A
:104700002F910F900FBE0F901F9018951F921FB6FC
:104710001F9211242F933F938F939F93AF93BF9337
:104720008091880390918903A0918A03B0918B03B3
:104730003091870323E0230F2D3750F50196A11DFB
:10474000B11D209387038093880390938903A093DE
:104750008A03B0938B038091830390918403A0918B
:104760008503B09186030196A11DB11D809383033B
:1047700090938403A0938503B0938603BF91AF9178
:104780009F918F913F912F911F901FBE1F90189561
:1047900026E8230F0296A11DB11DD3CF2F932FB76B
:1047A0002F938F939F93EF93FF93E091F302F091F8
:1047B000F4028081E091F902F091FA0282FD19C0C1
:1047C00090818091FC028F5F8F732091FD02821790
:1047D00041F0E091FC02F0E0ED51FD4F958F8093A8
:1047E000FC02FF91EF919F918F912F912FBF2F91FD
:1047F00018958081F6CF1F920F920FB60F92112459
:104800002F933F934F935F936F937F938F939F93D8
:10481000AF93BF93EF93FF9383EE92E00E947B08E8
:10482000FF91EF91BF91AF919F918F917F916F9188
:104830005F914F913F912F910F900FBE0F901F905E
:1048400018951F921FB61F9211248F939F93AF93B9
:10485000BF93EF93FF938091DF029091E002A091CC
:10486000E102B091E202892B8A2B8B2B99F1909176
:10487000DE02E091DC02F091DD02808189278083F5
:104880008091DF029091E002A091E102B091E202FA
:10489000181619061A061B069CF48091DF029091E7
:1048A000E002A091E102B091E2020197A109B109F1
:1048B0008093DF029093E002A093E102B093E202C2
:1048C000FF91EF91BF91AF919F918F911F901FBE6C
:1048D0001F901895809171008D7F80937100809159
:1048E000DE02E091DC02F091DD0290818095892367
:1048F0008083E6CF1F920F920FB60F921124CF92B2
:10490000DF92EF92FF920F931F932F933F934F935A
:104910005F936F937F938F939F93AF93BF93EF9327
:10492000FF93CF93DF93CDB7DEB76C97DEBFCDBFDC
:104930001092E9008091E80083FF30C08E010B5E89
:104940001F4F68E0C8010E94810982EF8093E80050
:104950008D89E02ED12E87FF12C09091E80090FF44
:10496000FCCF982F907691112BC12F89388DEE892D
:10497000EA3088F4F0E0E953FD4C0C94F52D9EEFFD
:104980009093E800EECF803841F58091D602809375
:10499000F1001092F1008EEF8093E8006C960FB654
:1049A000F894DEBF0FBECDBFDF91CF91FF91EF91A5
:1049B000BF91AF919F918F917F916F915F914F9137
:1049C0003F912F911F910F91FF90EF90DF90CF902B
:1049D0000F900FBE0F901F9018951092F100D9CF35
:1049E0008111D9CF21303105B1F68091D6028D7F6A
:1049F0008093D602D0CF8111CECF2130310559F628
:104A00008091D6028260F4CF8091E80080FFFCCFD5
:104A10008F8980688093E300BECFF88C0B8D1C8D4E
:104A200022E01092E9001092DA021092D902F212FA
:104A30002EC01092D8021092D7020E94470D1F82FA
:104A400099E09983FA8291E09E8390EA98879AEFA1
:104A500099872091D9023091DA02275F3F4F3C833A
:104A60002B838D831092E9001092DA021092D90202
:104A70001093D8020093D70249E050E0BE016F5F67
:104A80007F4F80E00E94290D0E94470D84CF109334
:104A9000D8020093D7020E94F009DC0112960D9112
:104AA0001C910115110531F4F1E0FF1214C065E00D
:104AB00072E05AC0D801ED91FC910480F581E02D9F
:104AC0006E2D7D2DC8010995009709F037C1F801B9
:104AD00000851185E6CFF3E0FF120EC08F898115A6
:104AE00009F440C0823061F440E860E187E292E07E
:104AF0000E94BD0981114FCF81E28093EB004ECF20
:104B0000813029F440E86BE08BE192E0F1CF833013
:104B100099F70E94F009DC011296ED90FC908E014D
:104B20000F5F1F4F6801E114F10469F4D8011C9272
:104B3000F60101900020E9F73197BF016C197D095A
:104B400040E0C601D5CFD701ED91FC910680F781F9
:104B5000E02DB801C7010995080F111DF701E08488
:104B6000F184E1CF67E172E0FB01449150E080E81D
:104B70000E94290D10CF81E08093F1000CCF83704B
:104B80008111BACFEAEEF1E081E021E036E39191C4
:104B9000911569F08093E9002093EB00DF019E916D
:104BA0009093EC003093ED008F5F873081F78EE7B4
:104BB0008093EA001092EA008F8980938203EBCE03
:104BC0008B8D9C8D1092E9001092DA021092D9021E
:104BD0009093D8028093D702898D811195C08E89D8
:104BE0009D89913A49F4813209F086CF47E050E03F
:104BF00065E071E080E0BCCF913209F07DCF833277
:104C000069F48F89988DA0E0B0E0809301019093C2
:104C10000201A0930301B0930401BDCE803269F478
:104C20008091E80082FFFCCF67E085E091E00E9480
:104C300081098BEF8093E800AECE823209F0ABCED3
:104C40008F8980930C01EEEFFFE7859195918B3F63
:104C50009C4D51F1E0E0F8E0809105019091060152
:104C6000A0910701B0910801803B9440A105B105D6
:104C7000F1F480910C0180FD1AC0EE3F8AE0F80744
:104C800091F587E797E79183808380916000809317
:104C9000D50288E19BE00FB6F894A8958093600058
:104CA0000FBE9093600077CEEEEFFAE0D5CF808113
:104CB00091818737974709F06ECEA8958091600063
:104CC0008861809360008091D50280936000EE3F00
:104CD000FA40A9F08091FE0A9091FF0A9093010892
:104CE0008093000858CE8091000890910108873782
:104CF000980739F29093FF0A8093FE0AC2CF109270
:104D0000FF0A1092FE0A47CE0E94F009DC011296BB
:104D10000D911C910115110509F4EECED801ED910C
:104D2000FC910190F081E02D6E2D7D2DC80109953B
:104D3000811131CEF80100851185ECCF0CF02BCE1E
:104D4000DBCE1F921FB61F9211248F939F938091E9
:104D5000E1009091E100937F9093E10083FF0FC009
:104D60001092E90091E09093EB001092EC0092E336
:104D70009093ED001092820398E09093F00082FFF0
:104D800022C093E09093E9009091F200911519F000
:104D90009AE39093E80090918003911541F09091EF
:104DA0008003915090938003911101C05D9A90917E
:104DB000DB02911541F09091DB0291509093DB0260
:104DC000911101C0289A84FF17C08091E2008E7E65
:104DD00081608093E2008091E1008F7E8093E1000A
:104DE000809181038E7E8061809381039F918F915A
:104DF0001F901FBE1F90189580FFF8CF8091E20092
:104E00008E7E80618093E2008091E1008E7E8093AF
:104E1000E100809181038E7E8160E6CFCDB7DEB761
:104E2000A2970FB6F894DEBF0FBECDBF789484B5BD
:104E3000826084BD84B5816084BD85B5826085BD96
:104E400085B5816085BD80916E00816080936E0024
:104E50001092810080918100826080938100809116
:104E600081008160809381008091800081608093C7
:104E700080008091910082608093910080919100E8
:104E80008160809391008091900081608093900078
:104E90008091C10084608093C1008091C1008260D4
:104EA0008093C1008091C10081608093C100809196
:104EB000C30081608093C3008091C00082608093B2
:104EC000C0008091C20081608093C20080917A000E
:104ED000846080937A0080917A00826080937A0067
:104EE00080917A00816080937A0080917A00806856
:104EF00080937A00109282031092D602109281035E
:104F00008091D70081608093D70080EA8093D80099
:104F100089B5806189BD89B5826089BD89B5082F51
:104F2000017080FFFBCF61E070E080E090E00E94C4
:104F3000FD058091D8008F7C80618093D80080919E
:104F4000E000807F8093E0008091E1008E7E80937E
:104F5000E1008DE08093E200559A209AF894109237
:104F60008000109281001092850010928400809140
:104F700081008860809381008091810083608093AC
:104F8000810089EF90E09093890080938800809160
:104F90006F00826080936F0078948FEF9FEF909303
:104FA0003D0580933C051C821B821E821D821A8255
:104FB00019826DEF71E0CE0101960E943413E980F1
:104FC000FA8060E0CE0101960E945C13C7010E9446
:104FD0002E1067E472E080E395E00E94A90F61E57E
:104FE00072E080E395E00E94910F109243041092CA
:104FF000420410924504109244040E94DA078CEB9C
:1050000094E090934104809340048DEB94E090935E
:105010003F0480933E0420E042E060E18CE892E0AF
:105020000E94900D609191026D7F60939102686083
:105030008CE892E00E94A9046FEF8CE892E00E9455
:10504000DB0D93EAE92E91E0F92E18E023E7A22E7A
:10505000B12C6E0129E0C20ED11C3BE9832E912CAC
:1050600048E050E0B701CE0101960E94FB2D612F70
:1050700060648CE892E00E94A904C5010197F1F7F1
:10508000AE014F5F5F4F3A01D3016D913D018CE856
:1050900092E00E94B104C4010197F1F7C614D7044D
:1050A00099F7B8E0EB0EF11C185F1034C9F661E017
:1050B00082E10E94E10661E08CE00E94E10662E08C
:1050C00088E00E94E10662E089E00E94E10662E079
:1050D0008AE00E94E10662E08BE00E94E10623EE96
:1050E00032E0E091F302F091F40282E08083E091FB
:1050F000EF02F091F0021082E091F102F091F202E1
:1051000087E680831092FB02E091F702F091F802AB
:1051100086E08083E091F502F091F6028081806163
:105120008083E091F502F091F602808188608083AF
:10513000E091F502F091F602808180688083E09131
:10514000F502F091F60280818F7D80838DEC90E0F6
:1051500090938A028093890294E3EEE5F4E0DF0104
:10516000492F1D924A95E9F747E752E050935D04B5
:1051700040935C0487E08093600442E140936104C3
:10518000EAECF4E0DF011D929A95E9F73093C90447
:105190002093C8048093CC04E5E9F4E093E3DF01B5
:1051A0001D929A95E9F7309393042093920498E026
:1051B0009093940480939604AE01435F5F4F60E048
:1051C00080E00E945C0E811509F45BC01C821B828A
:1051D0001E821D821A82198263EF71E0CE01019650
:1051E0000E943413E980FA8061E0CE0101960E94AA
:1051F0005C13C7010E942E101D851093CC048E8570
:105200008093CA048F858093CB0488898093960409
:105210008989809394048A8980939504AE014F5FB5
:105220005F4F61E080E00E945C0E811509F42FC1A0
:10523000412F50E0BE016F5F7F4F8CE291E00E94F2
:1052400015316CE271E080E395E00E94910FAE01B0
:105250004F5F5F4F62E080E00E945C0E811509F4B1
:105260002DC14091CC0450E0BE016F5F7F4F8CE1B7
:1052700091E00E9415316CE171E080E395E00E94BD
:10528000910F82E080935404AE014F5F5F4F63E063
:1052900080E00E945C0E811551F089818093560454
:1052A00081E09A81911101C080E080935801809142
:1052B0005604823010F0109256040E94571588EA66
:1052C00093E090930E0180930D0110918C0380E187
:1052D0000E94CA0B84EC93E09093100180930F011D
:1052E00080E20E94CA0B80EE93E0909312018093BB
:1052F000110180E40E94CA0B8CEF93E0909314019B
:1053000080931301106F10938C0380E80E94CA0BE6
:10531000B0918501BF8FE0918601E8A3F0918701EC
:10532000F9A3209188012AA37090890160908A01D5
:1053300050908B0140908C0110925A0410925B04A3
:105340008091F0058115D9F01092F00531E030938D
:105350005A049091EF059F5F9093EF05809159015A
:10536000981768F09091EE0590935B0493279093C3
:10537000EE051092EF054BE1481B409359018091D7
:105380002905811551F0109229054AE255E06CE299
:1053900075E085E791E00E949E14809122058115B9
:1053A00051F01092220543E255E065E275E08CE68B
:1053B00091E00E949E1480911B05811551F010927E
:1053C0001B054CE155E06EE175E083E691E00E943B
:1053D0009E1480911405811551F01092140545E139
:1053E00055E067E175E08AE591E00E949E148091A6
:1053F0006C018115C9F18091F7059091F805892B11
:1054000099F564EB70E080E090E00E94FD050E9459
:10541000D802C0906D01D0906E01E0906F01F090C5
:10542000700158EEC50E53E0D51EE11CF11C6C1541
:105430007D058E059F0508F458C089E00E94190873
:10544000892B91F40E94AA0C1092550480911B01A3
:105450008093560481ED95E190935904809358040C
:105460008DE090E00E94E4028091570481110E9437
:105470005715E0915804F0915904099580915A0408
:10548000811509F4ACC0C12CD12C312C7CC01C8EF0
:105490001B8E1E8E1D8E1A8E198E67EE71E0CE0148
:1054A00049960E943413E98CFA8C61E0CE0149964A
:1054B0000E945C13C7010E942E10C9CE1C8E1B8E49
:1054C0001E8E1D8E1A8E198E6BED71E0CE014996DF
:1054D0000E943413E98CFA8C61E0CE0149960E9457
:1054E0005C13C7010E942E10CCCE89E00E941908DF
:1054F000892B09F48CCFA1CFF701E350FA4F20801C
:10550000C7018B559D4F4C01DC018C91281671F120
:10551000BF8DBD87E8A1EE87F9A1FF872AA1288B5F
:1055200079826A825B824C82209193028FEF820F94
:10553000321608F4832D90E030919402303131F529
:10554000243021F5AE014F5F5F4F840F951FDC01C2
:105550006C91610F60688CE892E00E94A904622D52
:105560008CE892E00E94B104F40120821F5FFFEFFB
:10557000EF1AFF0A103109F0BFCF20E1C20ED11C93
:10558000311009C0302E760110E0B6CFFE013D96F5
:105590008E0F9F1FDCCF60E08CE594E00E947B07BC
:1055A00060915B0461116091C50288EC94E00E94F7
:1055B0007B0760915B04611521F06091C50281E079
:1055C000682782E994E00E947B0780915B04811543
:1055D00031F08091C50291E089278093C502109136
:1055E000DC05111509F444C00E94D8024B015C018E
:1055F0008091D2059091D305A091D405B091D505A5
:10560000A5019401281B390B4A0B5B0BDA01C90178
:105610002091D1052111A7C12091D6053091D70540
:1056200082179307A105B10518F1E4E0F2E0E090DC
:10563000DA05F090DB05809100018C3029F4E491CB
:105640001E2F17FD0AC083C08F3F39F48CE0809372
:105650000001E4911E2FEF3FC1F481E08093D1055A
:105660008092D2059092D305A092D405B092D50530
:1056700020E030E0232B09F45FCE0E94A7088115BB
:1056800009F45ACE0E94000057CEE33009F4B7C0A7
:1056900030F5E11509F444C012E0E13009F057C0DB
:1056A0001092800010928100809181008860809328
:1056B000810080918100816080938100EFECF2E0B5
:1056C000E491F0E0EE0FFF1FE955FD4F85919591B4
:1056D000EEEEF2E0E491E093C70211E038C0E4306E
:1056E00009F0AFCF1092C0001092C1008091C100AC
:1056F00088608093C1008091C10081608093C10067
:10570000EFECF2E0E491F0E0EE0FFF1FE955FD4F02
:1057100085919591EEEEF2E0E491E093C60217C018
:1057200014BC15BC84B5826084BD85B5816085BD1F
:10573000EFECF2E0E491F0E0EE0FFF1FE955FD4FD2
:1057400085919591EEEEF2E0E491E093C80261E07C
:105750008CE00E94E106970140E050E060E074E2D6
:1057600084EF90E00E94D62D69017A01F594E794C8
:10577000D794C79461E0C61AD108E108F108D701AF
:10578000C601612F6D7F611183C0C114E1E0DE06A7
:10579000E104F1040CF478C0DA01C90164E0B595C4
:1057A000A795979587956A95D1F70197A109B109B2
:1057B000123009F007C181159140A105B1050CF423
:1057C0004CCF203460E436074105510508F445CF3D
:1057D000DA01C901F7E0B595A79597958795FA95F0
:1057E000D1F70197A109B109111137CF8115E1E076
:1057F0009E07A105B1050CF0D0C023E02FC0109288
:1058000090001092910080919100886080939100A7
:1058100080919100816080939100EFECF2E0E4913F
:10582000F0E0EE0FFF1FE955FD4F859195919093A4
:10583000DD028093DC02EEEEF2E0E491E093DE0222
:1058400086CFDA01C901EBE0B595A79597958795C5
:10585000EA95D1F70197A109B10925E035B5387F5F
:10586000232B25BD87BD8FEF9FEFDC018093D102F5
:105870009093D202A093D302B093D40280916E0091
:10588000826080936E00E9CE1111E7CE202FE6CF23
:10589000C114D104E1E0EE06F10454F1DA01C901CA
:1058A00077E0B595A795979587957A95D1F7019764
:1058B000A109B10933E01130E9F420918100287F7A
:1058C000232B2093810090938900809388008FEF91
:1058D0009FEFDC018093CD029093CE02A093CF0284
:1058E000B093D00280916F00826080936F00B5CE3C
:1058F000302FE1CF1330D9F420919100287F232B52
:105900002093910090939900809398008FEF9FEFE0
:10591000DC018093DF029093E002A093E102B09358
:10592000E2028091710082608093710096CE143003
:1059300009F093CE2091C100287F232B2093C10032
:105940008093CF008FEF9FEFDC018093C90290938B
:10595000CA02A093CB02B093CC0280917200806403
:10596000809372007ACE2091D8053091D9058217A4
:105970009307A105B10508F47BCE0E94F00B1092AD
:10598000D1058092D2059092D305A092D405B09211
:10599000D50511501093DC056BCEDA01C90169E021
:1059A000B595A795979587956A95D1F70197A10920
:1059B000B109811561E09607A105B1050CF041CF51
:1059C00024E04CCF8115F1E09F07A105B1050CF053
:1059D000FFCE22E043CFCF92DF92EF92FF92CF93A0
:1059E000DF93E3EEF2E01382128288EEC82E83E0AA
:1059F000D82EE12CF12CC482D582E682F78281E98F
:105A000091E0918380838DEC90E0958784878CEC86
:105A100090E09787868788EC90E0918B808B89EC6B
:105A200090E0938B828B8AEC90E0958B848B8EEC4C
:105A300090E0978B868B118E128E138E148EE0E37E
:105A4000F5E013821282C482D582E682F78283EA6D
:105A500091E0918380838FEF9FEF95878487E8E4BF
:105A6000F4E013821282C482D582E682F78285EB4B
:105A700091E091838083ECE8F2E01382128287EC5C
:105A800091E091838083108A8FEF87871686118A31
:105A90008FE38387148615861286118684E0828BB5
:105AA00082E0838B81E0848B80E1858B80E2868B32
:105AB00080E4878B80E8808F40E050E063E0CF0196
:105AC0000E94BE04C7E7D2E01B821A82CC82DD822C
:105AD000EE82FF828BED91E0998388831B8A1A8A7C
