:100000000C946D020C9495020C9495020C9495023C
:100010000C9495020C9495020C9495020C94950204
:100020000C9495020C947E240C94F9270C94D22500
:100030000C9495020C9495020C9495020C949502E4
:100040000C9495020C941D230C9495020C9495022B
:100050000C9495020C9495020C9495020C94DE2459
:100060000C9495020C9426250C9453250C9495021F
:100070000C9495020C9495020C9495020C949502A4
:100080000C9479250C9495020C9495020C9495028D
:100090000C9461230C9495020C9495020C94950297
:1000A0000C9495020C9495020C94950220756C6F3B
:1000B0007A656E004C6F6720747970230012091204
:1000C000091209120009120912091209000000128E
:1000D0000912000000000009120900000000001EC3
:1000E0000F1E00000000000F1E0F000000181C1E55
:1000F0001F1E1C18004368796261204469737032C6
:100100000043687962612044697370310044697307
:10011000702E696E6974005374617274200003124A
:10012000010002EF02014041233680000101020379
:10013000010403090441726475696E6F204C4C43DD
:100140000041726475696E6F204C656F6E617264F8
:100150006F00080B00020202000009040000010207
:1001600002000005240010010524010101042402FD
:10017000060524060001070581031000400904015B
:1001800000020A0000000705020240000007058384
:1001900002400000000000002300260029002C007F
:1001A0002F000000000200090F0000030401000CF2
:1001B000000000000000000000000000000000003F
:1001C0000000000000250028002B002E0031000058
:1001D000000000240027002A002D00300004040441
:1001E00004040304050202020204030202020206DE
:1001F00006060606060404020202040404080201BC
:10020000104080401020408040800802040180405F
:100210002010020110801020404020537973746533
:100220006D003E20004C3E53797374656D20503E46
:100230004D6F64756C00556C6F7A697400556C6F06
:100240007A656E6F00567970005A61700050756C57
:100250007A79004D6F64756C002D2D3E002720616A
:100260006B7469766E69004D6F64756C202700525F
:100270003E4E61737461762064523E4D656E75002A
:1002800020484F44494E5920004C6F6720707269D6
:1002900070726176656E004C65766120647261688B
:1002A00061004C6576610050726176612064726114
:1002B0006861005072617661002020003D3D3D2064
:1002C0004B6F6E6563207A617A6E616D75203D3D7E
:1002D0003D0A004361733A20202020202020004462
:1002E0006174756D3A2020202020002D2D2D2D2D9C
:1002F0002D2D2D2D2D2D2D2D2D2D2D2D2D2D2D2D2E
:10030000005679736C6564656B3A20204E45524FF8
:100310005A484F444E4500526F7A64696C3A202027
:10032000202000566974657A3A20202020205052FF
:1003300041564120445241484100526F7A64696CF1
:100340003A2020202000566974657A3A2020202027
:10035000204C45564120445241484100507261763C
:1003600079206361733A20004C657679206361736C
:100370003A2020002D2D2D20536F7568726E207A43
:1003800061766F6475202D2D2D0052455345540024
:1003900043494C0043494C2050524156412044525D
:1003A0004148410043494C204C455641204452416C
:1003B0004841005354415254000A3D3D3D205A618A
:1003C0007A6E616D207A61766F6475203D3D3D00E7
:1003D0004F64706F63657420736B6F6E63696C003C
:1003E0005A727573656E69206F64706F63747500FF
:1003F0004F64706F636574005A6168616A656E204E
:100400006F64706F63657400533E5A6168616A6916
:1004100074004F44504F434554005A61646F7374E5
:10042000206F207679706973005A61766F64207A44
:10043000727573656E004D6572656E69207A7275AE
:1004400073656E6F005A61766F640043485942418C
:100450002053454E5A4F52553A00202D452D20002D
:100460004B6F6E63616B79204F4B00202D452D2023
:1004700000202D452D20004348594241206B6F6ECE
:1004800063616B75005A61766F64207A6168616A96
:10049000656E00533E5374617274202020523E5AA0
:1004A000706574005A41564F4400523E46756E6B5B
:1004B00063652064523E4D656E750053544F504B3A
:1004C000592048550050756C7A2000454550524FD0
:1004D0004D20706C6E6121009F2E11241FBECFEF46
:1004E000DAE0DEBFCDBF12E0A0E0B1E0E8E1F9E67E
:1004F00002C005900D92A63BB107D9F726E0A6EB06
:10050000B2E001C01D92A637B207E1F712E0CDE6D6
:10051000D2E004C02197FE010E94A92FCC36D1075A
:10052000C9F70E9466280C945E340C940000CF93A7
:10053000DF93FC01DB015481369614968C9114975D
:100540008150990B40E0541303C0DF91CF9108957F
:1005500014962D913C9115978217930770F42D9165
:100560003C9111972115310541F0280F391FE90100
:10057000288121934F5F0197E6CF20E0FACF2FB774
:10058000F8946091470670914806809149069091D1
:100590004A062FBF0895CF93DF93D82FC92F0E940B
:1005A000BF0260934E0670934F068093500690935F
:1005B0005106D0934C06C0934D0681E0809385018F
:1005C00010924B0610927C011092730110926A01F6
:1005D00010926101DF91CF9108958FB7F894109236
:1005E000460610924506109241069DE090936001E8
:1005F000109240068FBF0895E0915C01A0915B01CD
:10060000F0E0A33050F1E053F84FB0E0AA5BBD4FEB
:100610002C9180915A01280F3327331F2E0F3F1F33
:10062000CF019695879596958795280F391FCF010D
:1006300060E971E00E94542F260F371FCF0164E656
:1006400070E00E94542FC901861B970B67E070E091
:100650000E94542F809359010895E153F84FD5CF4C
:100660004F925F926F927F92AF92BF92CF92DF9242
:10067000EF92FF920F931F93CF93DF93FB01C08004
:10068000D180E280F380FC0180819181A281B381DD
:10069000C81AD90AEA0AFB0AC701B60128EE33E0F4
:1006A00040E050E00E94682F8B01CFE2D6E07D83CE
:1006B0006C838CE3482E512C612C712CCA01B9013A
:1006C000A30192010E94682FB62E6B83CA01B90163
:1006D000A30192010E94682FA62E6A83C701B6016A
:1006E00020E83EEE46E350E00E94682FF90139838E
:1006F0002883C90168EE73E00E94542F6E8394E64C
:10070000E92EF12CCF01B7010E94542FCB012AE032
:1007100030E0B9010E94542F8F83CF01B9010E94AC
:10072000542F482FCB01B9010E94542F8887498745
:100730004AE08A2D642F0E94482F8A879B878B2D41
:100740000E94482F8C879D87C801B7010E94542FB3
:100750006E87C801B9010E94542F482FCB01B901FF
:100760000E94542F8F87488BDF91CF911F910F915B
:10077000FF90EF90DF90CF90BF90AF907F906F9001
:100780005F904F9008958091470690914806A09100
:100790004906B0914A068093CF059093D005A09367
:1007A000D105B093D20580918400909185009093FB
:1007B000CE058093CD0581E08093CC05089580918E
:1007C000470690914806A0914906B0914A06809349
:1007D000C8059093C905A093CA05B093CB05809135
:1007E0008400909185009093C7058093C60581E0B1
:1007F0008093C50508958091470690914806A09181
:100800004906B0914A068093C1059093C205A09312
:10081000C305B093C40580918400909185009093A6
:10082000C0058093BF0581E08093BE050895809147
:10083000470690914806A0914906B0914A068093D8
:10084000BA059093BB05A093BC05B093BD058091FC
:100850008400909185009093B9058093B80581E05C
:100860008093B7050895FA0190E070E07195619565
:100870007109607177272191211519F08031910557
:1008800009F40895DC01A60FB71FAE5AB94F2C9397
:100890000196F1CFCF93DF93DA0190E1981B149684
:1008A0004C911497941708F4492FE62FF0E0F19536
:1008B000E195F109E071FF27E80FF11DEE5AF94FBC
:1008C00080E090E0841718F0DF91CF91089514969E
:1008D0002D913C9115978217930768F42D913C91C7
:1008E00011972115310539F0280F391FE9012881A9
:1008F00021930196E7CF20E0FBCF0F931F93CF9377
:10090000DF938C01C42F062E000C770B48E050E0DB
:1009100082E596E00E94D2326C2FCC0F770B48E034
:1009200050E08AE596E00E94D232D80114968D916B
:100930009C91C0E1D0E0C81BD90BD695C795C031BA
:1009400028F4A80160E08C2F0E944A04DD27FE01F4
:10095000EF5AF94F80E28083D8011496ED91FC9113
:10096000EE5AF94FEC0FFD1F8083DF91CF911F915D
:100970000F91089580E090E00895089508950895F6
:10098000DC01ED91FC910684F785E02D40E00994AF
:10099000DC01ED91FC910684F785E02D41E009959D
:1009A00081E090E0089508950895DC0181E001C0A0
:1009B000880F6A95EAF71C968C931C971A965C939D
:1009C0004E931997ED91FC9111970484F585E02DD4
:1009D00060E0CD0109948091920490919304891B69
:1009E000990B089590919304809192042FEF3FEF1B
:1009F000981748F4E92FF0E0E25BFB4F208130E0EC
:100A00009F5F90939304C9010895E09193048091AE
:100A10009204E81730F4F0E0E25BFB4F808190E055
:100A200008958FEF9FEF0895089520914A04260FAF
:100A30003327331F21323105ECF420914D04FC01A2
:100A400080E090E0243069F082E00895A0914A04AB
:100A50002191AC01465D5B4FA40FB52FB11D2C93C6
:100A60000196861798F380914A04680F60934A04B0
:100A700080E0089581E00895CF93DF930F92CDB782
:100A8000DEB7FC016983809197048115F1F08091B4
:100A90009404803250F081E090E09383828380E080
:100AA00090E00F90DF91CF91089580919504E82F09
:100AB000F0E0E259FB4F998190838F5F809395041A
:100AC0008093940481E090E0ECCF61E0CE01019648
:100AD0000E941505F7CFCF92DF92EF92FF920F930E
:100AE0001F93CF93DF937C01CB018A012091970460
:100AF0002115D9F0EB016B01C40ED51ECC15DD0517
:100B000051F4C801DF91CF911F910F91FF90EF90A9
:100B1000DF90CF9008956991D701ED91FC910190FC
:100B2000F081E02DC7010995E9CF642F0E941505DA
:100B3000E8CF1F93CF93DF93DC0152968D919C9168
:100B40005397009751F421E030E013963C932E9395
:100B50001297DF91CF911F9108951D96ED91FC9111
:100B60001E971C962C911C97322F30957FB7549668
:100B70004C915497142F127041FD21C0F89440817C
:100B800043234083EC012197F1F748E0508160FF57
:100B90001BC0522B5083EC012197F1F766954A95C3
:100BA000A9F78081111591F0832380837FBF52962E
:100BB0008D919C910197F1F781E090E0CACF60950B
:100BC000F8944081422BDDCF5323E4CF822BEDCF2D
:100BD0008FEF9FEF089580E090E0089508953FB76C
:100BE000F8948091D3039091D403A091D503B09150
:100BF000D60326B5A89B05C02F3F19F00196A11D6D
:100C0000B11D3FBFBA2FA92F982F8827BC01CD0156
:100C1000620F711D811D911D42E0660F771F881FB5
:100C2000991F4A95D1F708954F925F926F927F92E4
:100C30008F929F92AF92BF92CF92DF92EF92FF92EC
:100C40000F931F93CF93DF938B01D82FC92F0E944F
:100C5000EF05262F822E972E5C016801ED2EFC2ECB
:100C600005C0C114D104E104F10409F10E94EF05AB
:100C70002B013C01481859086A087B088601DE2DC3
:100C8000CF2D31E0C31AD108E108F108282D792DC4
:100C9000C50138EE830E33E0931EA11CB11C38EE63
:100CA000431633E0530661047104D8F6D3CFDF91C5
:100CB000CF911F910F91FF90EF90DF90CF90BF9059
:100CC000AF909F908F907F906F905F904F9008951E
:100CD0000F931F93CF93DF93EC01423018F08C8178
:100CE00088608C834F836887211529F0413019F47F
:100CF0008C8184608C8364E670E080E090E00E94E8
:100D000014066C8164FD5CC0E881F9810684F78576
:100D1000E02D42E063E0CE0109958BE496E4019773
:100D2000F1F7E881F9810684F785E02D42E063E080
:100D3000CE01099503E512E0C8010197F1F7E881BA
:100D4000F9810684F785E02D42E063E0CE01099544
:100D5000C8010197F1F7E881F9810684F785E02D54
:100D600042E062E0CE010995C8010197F1F76C817C
:100D70006062CE010E94C0048BEE90E00197F1F713
:100D800084E08D836CE0CE010E94C00461E0CE015E
:100D90000E94C0048BE39FE10197F1F782E08E830C
:100DA00066E0CE010E94C004E881F9810484F585E3
:100DB000E02D6FEFCE01DF91CF911F910F9109943C
:100DC0006062CE010E94C0048BE496E40197F1F7C3
:100DD0006C816062CE010E94C00403E512E0C8018C
:100DE0000197F1F76C816062CE010E94C004BCCF14
:100DF000CF93DF9390E0FC01E450FE4F24918352A7
:100E00009E4FFC0184918115D1F090E0880F991FCD
:100E1000FC01E153FE4FA591B591FC01EF53FE4F4C
:100E2000C591D5919FB7623069F4F8943C91822FB7
:100E3000809583238C938881822B88839FBFDF9149
:100E4000CF910895F8948C91822B8C93F7CF815099
:100E50008F30C0F5E82FF0E0E05AFB4C0C94A92F3E
:100E6000809180008F77809380000895809180002A
:100E70008F7DF9CF80918000877FF5CF84B58F7704
:100E800084BD089584B58F7DFBCF809190008F77CE
:100E9000809390000895809190008F7DF9CF80918C
:100EA0009000877FF5CF8091C0008F778093C0003E
:100EB00008958091C0008F7DF9CF8091C200877F17
:100EC0008093C20008951F93CF93DF93162F282F8E
:100ED00030E0F901EE55FE4F8491F901E450FE4FE8
:100EE000D491F901E352FE4FC491C115A1F08111D3
:100EF0000E942707EC2FF0E0EE0FFF1FEF53FE4F8D
:100F0000A591B5919FB7F8948C91111108C0D09517
:100F1000D823DC939FBFDF91CF911F9108958D2B34
:100F20008C93F8CFDF92EF92FF920F931F93CF93A2
:100F3000DF938C01D62ED0E0F8018481D81740F0E1
:100F4000DF91CF911F910F91FF90EF90DF90089567
:100F50007801ED0EF11CF701C68186898C1302C061
:100F6000D114E9F19EE0C534C9F07CF4C03219F027
:100F700024F4C11108C090E011C080ED8C0F91EDF8
:100F80009C0F8A3058F09FE009C09CE0C03531F0DA
:100F90009DE0C53519F09BE0CC34A9F7F801A0819C
:100FA000B18162818381680F6D0F9295907F690F87
:100FB000ED91FC9111970190F081E02DCD01099503
:100FC000D1110AC0F8018581811531F061E0C0328C
:100FD00009F460E00E946307F7018681868BDF5F7A
:100FE000ABCF10924D0481E080934C0410924B04DF
:100FF00061E082E00E94630761E083E00E94630792
:10100000E9EBF0E080818E7F808380818D7F80831B
:1010100088E48093B80085E48093BC000895CF9362
:10102000DF9391E0909324048115B9F0C091B8004A
:10103000D091BA008091BC008A7B8093BC0060E0B4
:1010400082E00E94630760E083E00E9463070E94E1
:10105000F107D093BA00C093B800DF91CF91089503
:10106000CF93DF93282F30E0F901EE55FE4F8491A6
:10107000F901E450FE4FD491F901E352FE4FC491BF
:10108000C11581F081110E942707EC2FF0E0EE0FCF
:10109000FF1FEC56FE4FA591B591EC91ED2381E039
:1010A000E11101C080E090E0DF91CF910895FC0153
:1010B0008485958597FD0BC09FB7F89482E0809357
:1010C000E9008091F2009FBF90E0019608959FB7DC
:1010D000F89482E08093E9008091F2009FBF90E055
:1010E000089583E08093E9008091F200811519F062
:1010F0008AE38093E8000895CF93DF930F92CDB7F2
:10110000DEB7DC016983ED91FC910280F381E02D73
:1011100041E050E0BE016F5F7F4F09950F90DF9176
:10112000CF910895FC01A48DA80FB92FB11DA35A2A
:10113000BF4F2C91848D90E001968F739927848FF7
:10114000A689B7892C93A089B1898C9182748C93DC
:10115000938D848D981306C00288F389E02D8081D9
:101160008F7D80830895FC01818D228D90E0805CCD
:101170009F4F821B91098F739927089583E393E012
:101180000E94B3089C0181E0232B09F480E00895BC
:1011900080E090E0892B29F00E94BE0881110C9418
:1011A00000000895FC01918D828D981731F0828D99
:1011B000E80FF11D858D90E008958FEF9FEF089562
:1011C000FC01918D828D981761F0A28DAE0FBF2F1B
:1011D000B11D5D968C91928D9F5F9F73928F90E071
:1011E00008958FEF9FEF0895FC01538D448D842F58
:1011F00090E0252F30E0821B930B541710F0CF9610
:10120000089501970895CF93DF93EC01888D8111A4
:101210000FC0DF91CF9108950FB607FC0DC08C91E0
:1012200085FF0AC0808185FF07C0CE010E94920819
:10123000AA89BB89E889F9898C9185FDEDCF8081E8
:1012400086FFEACFE6CFEF92FF920F931F93CF93E3
:10125000DF93EC01F62E81E0888F9B8D8C8D9813A7
:1012600019C0E889F989808185FF14C09FB7F89477
:10127000EE89FF896083E889F9898081827480839F
:101280009FBF81E090E0DF91CF911F910F91FF9080
:10129000EF9008950B8D10E00F5F1F4F0F73112714
:1012A000E02E8C8D8E1579F0EB8DEC0FFD2FF11D5E
:1012B000E35AFF4FF0829FB7F8940B8FEA89FB89BE
:1012C00080818062DCCF0FB607FCEBCFE889F9891B
:1012D000808185FFE6CFCE010E949208E2CFCF92B7
:1012E000DF92EF92FF920F931F93CF93DF937C01D6
:1012F0006A0100E010E00C151D0551F4C801DF91F2
:10130000CF911F910F91FF90EF90DF90CF900895B4
:10131000EB01D701ED91FC910190F081E02D6991F5
:10132000C7010995892B51F30F5F1F4FBE01E3CF12
:10133000615028F4289884E680932B030895FC01DB
:101340008091F1008193CF01F3CF40912903509117
:101350002A03209127033091280342175307BCF436
:101360009091E80095709115D9F39091E80092FD65
:1013700019C08093F1008091290390912A0301966E
:101380008F739927892B19F48EEF8093E800809151
:10139000290390912A03019690932A0380932903AD
:1013A00081E0089580E00895EF92FF920F931F93DC
:1013B000CF93DF93F82E192FE62E042F81E0860FAE
:1013C000880F0E94A50983E00E94A509CF2DD12F87
:1013D000EC0EFD2EF11CCE15DF0511F481E00EC0E0
:1013E000011599F0FE0184910E94A509182F80E053
:1013F0000E94A509812321968111EDCFDF91CF9124
:101400001F910F91FF90EF9008958881EDCF80910B
:10141000BF0281110DC082E08093BB0284E0809303
:10142000BC021092BE021092BD0281E08093BF0206
:101430008BEB92E008952FB7F89483E08093E90056
:101440009091E800892F807295FF04C09091F2007E
:1014500080E4891B2FBF08950E941B0A90E0089525
:101460008F929F92AF92BF92CF92DF92EF92FF92B4
:101470000F931F93CF93DF937C018B01EA0180913F
:101480001B01811571F18091D203811551F1809179
:10149000D10380FF05C08091E00082608093E0006E
:1014A0006E01B12C8AEFA82E93E0892E2AE3922EAA
:1014B0000CC00E941B0A811129C0AA9491F061E01E
:1014C00070E080E090E00E941406C114D10489F716
:1014D000B110EFCF5D9884E68093D0031C161D06F3
:1014E0003CF081E090E0F70193838283C0E0D0E09C
:1014F000CE01DF91CF911F910F91FF90EF90DF9080
:10150000CF90BF90AF909F908F900895C816D10450
:101510000CF48C2D9FB7F8948092E9002091E8009C
:1015200025FD02C09FBFD1CF282F30E0C81AD108B7
:10153000A801815040F4020F131FB11451F0909292
:10154000E800B12CEFCFFA0141914093F100AF01D7
:10155000F0CF8091E80085FDF4CF9092E800BB24A5
:10156000B394C114D104F1F2ECCF9091D203911154
:1015700003C08FEF9FEF08952FB7F89492E09093F8
:10158000E9009091F200492F50E0911102C0452BE3
:1015900031F0289884E680932B038091F10091111B
:1015A00002C02FBFE6CF9091F200911103C09BE6DD
:1015B0009093E8002FBF90E00895CF93DF93EC0164
:1015C0008C859D8597FF04C00E94B50A9D878C87F6
:1015D000DF91CF910895FC018485958597FD0C944A
:1015E000B50A2FEF3FEF3587248708958F929F929A
:1015F000AF92BF92CF92DF92EF92FF920F931F9321
:10160000CF93DF93D0919404C1E0D13208F09EC013
:10161000F09096040E94EF054B015C01C0914D04CF
:10162000C1116EC082E080934D0481E080934C0430
:101630008FEF8093000410922204D09321042EE6B1
:1016400034E0A1E0B4E0F9018E2F821B8D1708F47D
:1016500091C01092230480912304FF0CF82AF09289
:10166000230480914B04813009F087C010924B0411
:101670000E94EF056B017C01809123048093BB00E5
:101680008091260490912704A0912804B091290408
:10169000892B8A2B8B2BA1F00E94EF0580902604CA
:1016A00090902704A0902804B09029046C197D091B
:1016B0008E099F0986169706A806B90608F441C048
:1016C0008091BC0083FDD8CF85EC8093BC000E9444
:1016D000EF056B017C0180914D04823009F44FC00D
:1016E000809100048F3F91F180910004C2E080322C
:1016F00069F180910004C3E0803341F1C4E026C069
:101700008091260490912704A0912804B091290487
:10171000892B8A2B8B2B09F481CF0E94EF05009136
:101720002604109127042091280430912904681977
:1017300079098A099B09061717072807390708F04E
:101740006DCF809125040E940F08C5E0109295048A
:1017500010929404109297048C2FDF91CF911F91D7
:101760000F91FF90EF90DF90CF90BF90AF909F9040
:101770008F90089581918D9367CF85EEA6CF80914C
:10178000260490912704A0912804B0912904892B64
:101790008A2B8B2B09F49FCF0E94EF0580902604A3
:1017A00090902704A0902804B09029046C197D091A
:1017B0008E099F0986169706A806B90608F08BCFF2
:1017C000C0CF93B19093DD03EBE6F0E09081982BCE
:1017D0009083E8E6F0E08081816080830895FC01D9
:1017E000AC01425F5F4F8FEF9FEF2191922728E07E
:1017F000BC01880F991F77FF04C031E2832730E1D5
:1018000093272A95A9F74E175F0779F708958091D6
:1018100000018C3069F4EEE1F1E0E4918FEF809308
:101820000001E330D1F040F4E11571F0E13079F0DE
:1018300060E08CE00C946307E430D1F78091720093
:101840008F7B80937200F4CF10926E00F1CF809165
:101850006F008D7F80936F00EBCF809171008D7F43
:1018600080937100E5CF80932E0670932D066093D0
:101870002C0650932B0640932A063093290620937A
:1018800028060E94BF026093240670932506809369
:10189000260690932706109223060C94070C20E04E
:1018A00030E040E550E064EC79E081E00C94330CEA
:1018B00020912F06309130062115310509F458C0CA
:1018C00090913506911509F44DC0905D90934401B7
:1018D00090913606911509F447C0905D90934501AB
:1018E00090913706911509F441C0905D909346019F
:1018F00090913806905D4AE39093470140934801E8
:1019000090913906911102C0232B11F080E3890FC9
:101910008093490180913A06805D80934A018091CD
:101920003D0690E2853008F49AE390934B01909144
:101930003B06905D90934C0190913C06905D909396
:101940004D019EE290934E01805D80934F01809106
:101950003E06805D8093500180913F06805D8093BC
:1019600051010895982FB2CF982FB8CF982FBECF9E
:10197000809344018093450180934601982F482F1E
:10198000BBCF40E150E060E270E082E596E00E946B
:10199000D23240E150E060E270E082E696E00C94E2
:1019A000D23290E09195819591098071992740E11B
:1019B00050E060E270E08E5A994F0C94D232CF938F
:1019C000DF939C010696F901C481C20FD32FD11D6C
:1019D0006F71A62F660FBB0BAD5BBE4F2C173D077B
:1019E00019F4DF91CF910895EDA1EA3331F44C91D0
:1019F000FC014193CF012197F1CFEF710E2E000C26
:101A0000FF0BED5BFE4F4081F3CFFC01448155811C
:101A10006081718183ED95E00C94300A0F931F93E0
:101A2000CF93DF938C01EB01FE016491611531F0DE
:101A3000C8010E947C082196892BB1F7DF91CF91D4
:101A40001F910F910895FF920F931F93CF93DF93F0
:101A5000F82EEB018B01040F151FC017D10749F0B9
:101A6000F11469F0FE0184910E94A509219681116B
:101A7000F4CFDF91CF911F910F91FF90089588814E
:101A8000F3CF0F931F93CF93DF930F92CDB7DEB7B2
:101A900082E0898342E450E062E571E080E80E94E0
:101AA000230D0E94070ADC0112960D911C9101156D
:101AB000110539F489810F90DF91CF911F910F911A
:101AC0000895D801ED91FC910280F381E02DBE01D3
:101AD0006F5F7F4FC801099597FDECCFF801008536
:101AE0001185E5CFFC018381811599F08181682BF7
:101AF0006083828191E09093970480939604109282
:101B000095041092940488E994E00E943C050C949A
:101B1000F60A0895EF92FF920F931F93CF93DF93EE
:101B2000EC01162F042FF22E8B85888B10929304D4
:101B30001092920410929504109294040E94F1075E
:101B400083ED94E0909391048093900484ED94E06D
:101B500090938F0480938E048889EE24E394E0921E
:101B60009704809396040E94F60A811111C0E98AB5
:101B700088E994E00E94F2048E878989811549F0F2
:101B80001F861C8260E0CE010E960E94720D01C07D
:101B9000198A2F2D402F612FCE01DF91CF911F91F8
:101BA0000F91FF90EF900C946806FC01862F6485DE
:101BB000611599F0218532852115310521F48111B6
:101BC00007C060E005C021303105D9F78111F9CF98
:101BD0006587CF010E960C94720D0895EF92FF92D7
:101BE0001F93CF93DF93EC01FC019C012C5F3F4FCF
:101BF00080E060FF02C09589892B66953196E217D7
:101C0000F307B9F7413009F44C899D85892B142FCE
:101C1000182B7E018EE0E80EF11C6A89612BC7014A
:101C20000E94720D6A8960956123C701DF91CF918F
:101C30001F91FF90EF900C94720D0F931F93CF9311
:101C4000DF93D82FC92F142F062F0F7040E01230CA
:101C500031F062956F70412F0E94EE0D412F602F81
:101C60008D2F9C2FDF91CF911F910F910C94EE0D32
:101C7000EF92FF920F931F93CF93DF9390E1899F91
:101C800080011124EB01CB0140967C01C8010E9428
:101C9000E03289930F5F1F4FCE15DF05B9F7DF9153
:101CA000CF911F910F91FF90EF900895DF92EF92E7
:101CB000FF920F931F93CF93DF93CDB7DEB760975B
:101CC0000FB6F894DEBF0FBECDBF082FF62EE42E60
:101CD000D52E11E0BE016F5F7F4F8FEF810F0E9405
:101CE000380ECE0101960E94EF0B2F85388982179E
:101CF0009307F9F4898180131CC08A818F77F812C9
:101D000018C08CE0FE013396AE2DBD2D01900D92D2
:101D10008A95E1F781E060960FB6F894DEBF0FBEBA
:101D2000CDBFDF91CF911F910F91FF90EF90DF908A
:101D300008951F5F103471F680E0EDCFCF92DF92EF
:101D4000FF920F931F93CF93DF9390E1899F8001C0
:101D50001124EB01CB0140966C01F990C8010E945F
:101D6000E032F81621F06F2DC8010E94E8320F5FB3
:101D70001F4FCC15DD0589F7DF91CF911F910F9192
:101D8000FF90DF90CF90089585ED8093BC00809107
:101D9000260490912704A0912804B0912904079665
:101DA000A11DB11D23E0B695A795979587952A9516
:101DB000D1F72091BC0024FD03C010924D0408957A
:101DC00040912604509127046091280470912904C1
:101DD000452B462B472B69F30097A105B10541F030
:101DE0002AE22A95F1F700C00197A109B109E1CFD4
:101DF000809125040C940F08FB01EF2B51F0DB01BF
:101E00000D900020E9F71197AD01461B570B0C947C
:101E1000300A08956F927F928F929F92AF92BF92F5
:101E2000CF92DF92EF92FF920F931F93CF93DF93A6
:101E3000CDB7DEB7A1970FB6F894DEBF0FBECDBF0A
:101E40003C01142F052F962E872E19A2223008F45C
:101E50002AE05E0181E2A80EB11CC22ED12CE12C39
:101E6000F12C612F702F892D982DA70196010E94CA
:101E7000682F812F902FA92DB82D122F032F942E6C
:101E8000852E6A3014F5605DF50162935F018C1553
:101E90009D05AE05BF0528F7BF01C3010E94FC0EDA
:101EA000A1960FB6F894DEBF0FBECDBFDF91CF91E4
:101EB0001F910F91FF90EF90DF90CF90BF90AF9068
:101EC0009F908F907F906F900895695CDDCF63E560
:101ED00072E00C94FC0E1F93CF93DF93D62FC72F85
:101EE000142F0E94050D62E272E083ED95E00E94DE
:101EF0000E0D8D2F9C2F111549F00E94050D83EDBD
:101F000095E0DF91CF911F910C94670FDF91CF91F6
:101F10001F910C94050DCF93DF93D82FC92F0E94EA
:101F2000FC0E8D2F9C2FDF91CF910C94670FCF93D8
:101F3000DF93D82FC92F0E940E0D8D2F9C2FDF917C
:101F4000CF910C94670F0C94FC0E0F931F93CF93BB
:101F5000DF93CDB7DEB762970FB6F894DEBF0FBE42
:101F6000CDBF6F87788B898B9A8B042F122F1B869E
:101F70001C861D861E86BE01615F7F4FCE010B96BB
:101F80000E94300380E30E94580C111531F066E581
:101F900072E083ED95E00E94A30F011599F0809106
:101FA00045018983809146018A83809147018B8313
:101FB0008AE38C831D82BE016F5F7F4F83ED95E0C6
:101FC0000E94A30F80914901898380914A018A83ED
:101FD0008AE38B8380914C018C8380914D018D83AA
:101FE0008EE28E8380914F018F838091500188878C
:101FF0008091510189871A86BE016F5F7F4F83ED03
:1020000095E00E94A30F111531F069E572E083EDB0
:1020100095E00E94A30F62960FB6F894DEBF0FBE44
:10202000CDBFDF91CF911F910F910895CF93DF9393
:10203000EC0188819981009711F00E948231198208
:1020400018821D821C821B821A82DF91CF91089513
:10205000009711F00C94823108950F931F93CF9342
:10206000DF93EC018B0188819981009729F02A8107
:102070003B812617370790F4B8016F5F7F4F0E94AE
:102080001332FC0180E0309751F0F983E8831B8321
:102090000A838C819D81892B09F4108281E0DF9174
:1020A000CF911F910F910895EF92FF920F931F937D
:1020B000CF93DF93EC017B01FB0101900020E9F756
:1020C00031978F01061B170BB8010E942D1081114B
:1020D00009C0CE01DF91CF911F910F91FF90EF903A
:1020E0000C9416101D830C83B70188819981DF91B0
:1020F000CF911F910F91FF90EF900C94D932CF9216
:10210000DF92FF920F931F93CF93DF9300D000D005
:1021100000D0CDB7DEB78C01F62E2091130180E1FF
:10212000289FB00111246A5F7D4F1C821B821E8292
:102130001D821A821982CE0101960E945410C98014
:10214000DA804F2DB801CE0101960E946B0FC601B7
:102150000F900F900F900F900F900F90DF91CF91F5
:102160001F910F91FF90DF90CF900C942810FC01ED
:10217000448150E060E270E006960C94D232CF9336
:10218000DF93C091AC05D091AD0567EA75E083EAB5
:1021900095E0209721F062EB75E08EEA95E00E94D1
:1021A000300380E20E94580C219731F444E451E05E
:1021B00061E086E00E9433048BE695E00E94B71050
:1021C000C091B6056C2F85E395E00E94DF0C6C2F63
:1021D0008FEF94E0DF91CF910C94DF0C8F929F9260
:1021E000AF92BF92CF92DF92EF92FF920F931F9325
:1021F000CF93DF936B017C01A7019601C701B60164
:102200000E9459346BE572E0811114C0C701B60118
:102210000E944F346FE572E0892B61F42FEF3FEF9E
:102220004FE75FE4C701B6010E944A34181694F4E0
:1022300063E672E083ED95E0DF91CF911F910F91FE
:10224000FF90EF90DF90CF90BF90AF909F908F90D6
:102250000C94FC0E2FEF3FEF4FE75FECC701B60188
:102260000E94C82F87FDE4CF20E030E0A901C7011C
:10227000B6010E94C82F87FF09C06DE283ED95E08B
:102280000E947C08F7FAF094F7F8F0942EE632E119
:1022900043E05AE3C701B6010E943D336B017C0164
:1022A0000E941B348B01D82FC92F0E94CD2F9B0178
:1022B000AC01B601C7010E943C336B017C012AE0EE
:1022C000A8016D2F7C2F83ED95E00E940A0F6EE22E
:1022D00083ED95E00E947C08C3E020E030E040E21E
:1022E00051E4B601C7010E942E30F62E072F182F99
:1022F000D92F0E941B344B01A12CB12C2AE0B5012F
:10230000A40183ED95E00E940A0FC501B4010E946B
:10231000CD2F9B01AC016F2D702F812F9D2F0E941F
:102320003C336B017C01CA95C1F6DF91CF911F91BF
:102330000F91FF90EF90DF90CF90BF90AF909F9064
:102340008F900895EF92FF920F931F93CF93DF9397
:10235000EC018B01CB010E94BF2F7C01BC01CE019F
:102360000E942D10811109C0CE01DF91CF911F91E4
:102370000F91FF90EF900C941610EC82FD82B80143
:1023800088819981DF91CF911F910F91FF90EF90FC
:102390000C94B82FCF92DF92FF920F931F93CF939D
:1023A000DF9300D000D000D0CDB7DEB78C01F62E81
:1023B0001C821B821E821D821A8219826BE172E0CE
:1023C000CE0101960E94A211C980DA804F2DB8017A
:1023D000CE0101960E946B0FC6010F900F900F90D7
:1023E0000F900F900F90DF91CF911F910F91FF9061
:1023F000DF90CF900C9428105F926F927F928F9213
:102400009F92AF92BF92CF92DF92EF92FF920F9383
:102410001F93CF93DF93CDB7DEB766970FB6F894CF
:10242000DEBF0FBECDBF782E962E542E652E812C8A
:10243000CE0101967C01A982BA82188B0F87B70161
:10244000882D0E94380EA980BA800F851889C7018F
:102450000E94EF0B67018017910789F57A102FC052
:102460008B2D8F7798122BC09B109AC08CE0E52D96
:10247000F62DDE01139601900D928A95E1F7C701C2
:102480000E94EF0B988B8F87B701882D0E949E0EBC
:1024900081E066960FB6F894DEBF0FBECDBFDF9128
:1024A000CF911F910F91FF90EF90DF90CF90BF9051
:1024B000AF909F908F907F906F905F9008958394DE
:1024C00090E48912B8CFE12CA982BA82188B0F87C9
:1024D000B6018E2D0E94380EA980BA800F8518890A
:1024E000C6010E94EF0B80179107F9F4E39420E4F2
:1024F000E212EACFF12CA982BA82188B0F87B601BB
:102500008F2D0E94380EA980BA800F851889C601C8
:102510000E94EF0B8017910711F4A7FC20C0F394E1
:1025200080E4F812E8CFEE24EA94FF24FA948CE0D9
:10253000E52DF62DDE01139601900D928A95E1F7B7
:1025400079829A82188B0F87C6010E94EF0B2FEFBA
:10255000E21641F08F87988BB6018E2D97CFEE242F
:10256000EA94E5CF2FEFF21629F08F87988BB6010A
:102570008F2D8CCF1C8A1B8A1E8A1D8A1A8A198A63
:102580006BEC74E0CE0141960E94A21109891A8970
:1025900061E0CE0141960E94CA11C8010E94281034
:1025A00080E077CF6F927F928F929F92AF92BF928F
:1025B000CF92DF92EF92FF920F931F93CF93DF930F
:1025C000CDB7DEB76F970FB6F894DEBF0FBECDBFA5
:1025D00080914C0690914D068930910509F462C0B6
:1025E000D8F4009709F479C0059709F4A1C16F9652
:1025F0000FB6F894DEBF0FBECDBFDF91CF911F9114
:102600000F91FF90EF90DF90CF90BF90AF909F9091
:102610008F907F906F9008958A30910559F10B97B4
:1026200031F780915A01898380915B018A8380917F
:102630005C018B83AE014F5F5F4F60E084E00E94DE
:10264000FC118115A1F20E944F0C1D8A1C8A1F8A61
:102650001E8A1B8A1A8A67E672E0CE0142960E94A1
:1026600054100A891B8961E0CE0142960E947F10B6
:10267000C80181C08CE090E06F960FB6F894DEBF81
:102680000FBECDBFDF91CF911F910F91FF90EF90C3
:10269000DF90CF90BF90AF909F908F907F906F9082
:1026A0000C94CB028091AB04811114C0AE014F5F3A
:1026B0005F4F60E084E00E94560E811559F08981D9
:1026C00080935A018A8180935B018B8180935C01A6
:1026D0000E94FC0280E090E0CFCF809185018115BF
:1026E00039F1109285010E94C10C1C821B821E824E
:1026F0001D821A82198260E872E0CE0101960E9462
:10270000A21109811A8142E061E0CE0101960E9486
:102710007D04C8010E9428108BE695E00E94B71046
:1027200085E395E00E94B7108FEF94E00E94B71008
:1027300080917301811135C08091FD04811509F4E8
:1027400056CF8091AB048E010F5F1F4F81112EC0B9
:102750001C821B821E821D821A8219826FE672E021
:10276000C8010E94A211E980FA80A80161E080E01E
:102770000E944A04C7016F960FB6F894DEBF0FBEE1
:10278000CDBFDF91CF911F910F91FF90EF90DF9020
:10279000CF90BF90AF909F908F907F906F900C9450
:1027A00028101092730185E090E066CF6090590187
:1027B00080905A0190905B0170905C0120915D01C6
:1027C00040915E0130915F0180E2F82E2A3038F0AE
:1027D000822F6AE00E94482F90E3F92EF80EF982CA
:1027E000822F6AE00E94482F50E3C52EC90ECA828C
:1027F0002AE32B83842F0E94482F70E3D72ED80E14
:10280000DC82E0E3EE2EE90EED822E83832F0E9420
:10281000482FF0E3AF2EA80EAF82A0E3BA2EB90E78
:10282000B8861986A80160E084E00E943304862DF2
:1028300090E0FC01EE0FFF1FE80FF91FEB5DFD4F6D
:102840008081898381818A8380E28B838C832AE0E3
:1028500080E2821628F0882D6AE00E94482F805D71
:102860008D832AE0882D622F0E94482F905D9E83E1
:102870008EE28F8380E2921620F0892D0E94482FED
:10288000805D88873AE0892D632F0E94482F905DF4
:1028900099878EE28A8782E38B8780E38C87872DF6
:1028A0000E94482F292F0E94482F905D9D87205D10
:1028B0002E871F86A80161E081E00E943304F9821F
:1028C000CA82DB82EC82AD82BE828AE38F834E01B4
:1028D00088E0880E911C5E01E2E1AE0EB11CD501CC
:1028E000F401350182918D930E171F07D9F740919E
:1028F000030550E0B30185E095E00E94C93280E213
:1029000089838A83FB82CC82DD82EE82F40182910C
:102910004F01F50181935F0108151905B9F7409141
:102920006F0550E0B30181E795E00E94C9325FCEA8
:1029300080918501811591F0109285011092AA0471
:102940000E94C10C8BE695E00E94B71085E395E0EC
:102950000E94B7108FEF94E00E94B710809173012E
:10296000811519F010927301B5CE80917C0181150B
:1029700049F010927C018091AA048F5F8730A0F506
:102980008093AA0480916A01811589F110926A01ED
:1029900064EB70E080E090E00E9414068AE00E9400
:1029A0003008892B19F481E080936A018FEF9091B0
:1029B00061019115F1F01092610164EB70E080E02B
:1029C00090E00E9414068BE00E943008892B09F4E5
:1029D000A6C021E0E091AA04E73008F0AEC0F0E024
:1029E000E159FB4C0C94A92F1092AA04CBCF80E0A4
:1029F000DECF811198C08091FD04811509F4F7CDD7
:102A0000198A10E2198380915A010AE0602F0E940E
:102A1000482F805D8A83905D9B831C831D838091FA
:102A20005B010E94482F805D8E83905D9F83188795
:102A3000198782E38A8780E38B8780915C010E94FB
:102A4000482F292F0E94482F905D9C87205D2D875D
:102A50001E878091590190E0FC01EE0FFF1FE80FE7
:102A6000F91FEB5DFD4F80818F878181888BAE01DF
:102A70004F5F5F4F60E080E00E94330480915D0112
:102A8000602F0E94482F805D8A83905D9B83809198
:102A90005E010E94482F805D8E83905D9F838091B0
:102AA0005F010E94482F805D8A87905D9B871C870D
:102AB0001D878091AB048111AFC096E589E79E87A1
:102AC0008F8780E7888BAE014F5F5F4F61E080E0CA
:102AD0000E9433048EE0ECE8F1E0DE0152960190B2
:102AE0000D928A95E1F78091AA04FE013196E80FD4
:102AF000F11DE80FF11D8289823008F078CDE1895F
:102B0000E03108F074CDF0E18F9FC00111248E5A9E
:102B1000994FE80FF92FF11D87E0808368CD81E0A0
:102B20008093610156CF2FEF55CF80915A01820FCC
:102B3000803230F081E080935A010E94FC025BCF2A
:102B40008111F9CF8FE1F7CF80915B01820F8D303A
:102B500020F081E080935B01F0CF8111FBCF8CE00E
:102B6000F9CF80915C01820F843620F089E1809357
:102B70005C01E3CF8931D8F783E6F9CF80915D011D
:102B8000820F8F3F21F487E180935D01D6CF88319A
:102B9000D8F310925D01D1CF80915E01820F8F3FFB
:102BA00021F48BE380935E01C8CF8C33D8F310926D
:102BB0005E01C3CF8FB7F89410924406109243067B
:102BC000109242068FBF80915F013AE0632F0E940E
:102BD000482F820F839F802D1124813F20F082E3B4
:102BE00080935F01AACF8333D8F310925F01A5CF02
:102BF0008091AB04811109C08FB7F89410924406FC
:102C000010924306109242068FBF8091AB0491E070
:102C100089278093AB0491CF9AE581E650CF8F92BC
:102C20009F92AF92BF92CF92DF92EF92FF920F935B
:102C30001F93CF93DF93CDB7DEB728970FB6F894E5
:102C4000DEBF0FBECDBF8C01DB01FA012FB7F894B8
:102C50004D915D916D917C91808191812FBFF801A3
:102C6000C180D280E380F4804A015B018C189D080A
:102C7000AE08BF08278182169104A104B10408F4AC
:102C800072C04183528363837483880F991F880FB6
:102C9000991F9683858381E08083809158018115F7
:102CA00009F461C01C821B821E821D821A82198255
:102CB00065EC74E0CE0101967C010E94A211C980EE
:102CC000DA8060E0C7010E94CA11C6010E94281084
:102CD000F80180858983F1E003371F0739F480917B
:102CE0004C0690914D06892B09F450C080E28A83EE
:102CF00080E48B8380E2D82EDC821D82B70183EDD5
:102D000095E00E94A30FF801418152816381748193
:102D10002AE083ED95E00E940A0F8EE28983F80194
:102D200025813681C90164E670E00E94542F605D00
:102D30006A83EAE0F0E0C901BF010E94542F282F06
:102D4000CB01BF010E94542F805D8B83205D2C83BB
:102D5000DD828DE68E8383E78F831886B70183ED4E
:102D600095E00E948B0F28960FB6F894DEBF0FBE39
:102D7000CDBFDF91CF911F910F91FF90EF90DF902A
:102D8000CF90BF90AF909F908F9008958BE2AFCF80
:102D9000CF92DF92EF92FF92CF93DF9300D000D0DB
:102DA00000D0CDB7DEB78091A8049091A904892BFB
:102DB000F9F08AE090E00E94CB020E94BF026E5CB4
:102DC0007F4F8F4F9F4F6B017C010E94BF026C159C
:102DD0007D058E059F0560F480914C0690914D060F
:102DE0000C9731F0E091A804F091A9040995EDCF7A
:102DF0001092A704E091A604E093130180E1E89FFC
:102E0000F0011124EB5FFD4F868597859093A9040F
:102E10008093A80489E090E00E94CB021C821B8270
:102E20001E821D821A82198267E672E0CE01019627
:102E30000E94A211E980FA8060E0CE0101960E9412
:102E4000CA11C7010E9428106091130120E1629FFE
:102E5000B00111246A5F7D4F83ED95E00E94A30FBE
:102E60006DE572E083ED95E00F900F900F900F905D
:102E70000F900F90DF91CF91FF90EF90DF90CF9068
:102E80000C94970FCF92DF92EF92FF920F931F93C4
:102E9000CF93DF93CDB7DEB768970FB6F894DEBF58
:102EA0000FBECDBF89E00E943008019791F481E008
:102EB0008093A70468960FB6F894DEBF0FBECDBF0F
:102EC000DF91CF911F910F91FF90EF90DF90CF9006
:102ED00008951C8A1B8A1E8A1D8A188E1F8A8E01DD
:102EE0000D5E1F4F69E572E0C8010E94A21180913A
:102EF0007C017801811581F08091A5048F5F83307A
:102F000008F080E010927C018093A50480E00E948C
:102F1000D10C81E00E94D10C1091A504113009F46C
:102F20006CC0123009F4BBC0111155C080916A0108
:102F3000811571F010926A018091A604811102C07E
:102F40008091A40481508093A60481E00E94D10C5A
:102F500080916101811591F0109261012091A60488
:102F60008091A4048150990B2817190611F011E0E3
:102F7000120F1093A60481E00E94D10C8091FD04F1
:102F8000811549F11C821B821E821D821A821982C0
:102F900063E572E0CE0101960E94A21109811A81B7
:102FA000AE014F5F5F4F60E080E00E944A04C801BD
:102FB0000E942810A70161E080E00E944A0440912D
:102FC000A60480E1489FA00111244A5F5D4F61E0A3
:102FD00084E00E9433048B899C8968960FB6F8942C
:102FE000DEBF0FBECDBFDF91CF911F910F91FF903C
:102FF000EF90DF90CF900C94281080916A0181159A
:1030000009F445C010926A018091580191E0892726
:10301000809358018091FD048115E9F21C821B8286
:103020001E821D821A8219826DE472E08E010F5F8A
:103030001F4FC8010E94A211C980DA80A80160E078
:1030400080E00E944A04C6010E942810A70161E0A6
:1030500080E00E944A048091580169E472E0811185
:1030600002C065E472E01C821B821E821D821A82ED
:103070001982C8010E94A211E980FA80A80161E0CA
:1030800084E00E944A04C7010E942810A4CF8091C6
:103090006101811509F4BECF10926101B5CF809115
:1030A0006A01811539F110926A01809113018983B7
:1030B000809158018A83AE014F5F5F4F63E080E0EB
:1030C0000E94FC110E944F0C188A1F861A8A198AC6
:1030D0001E861D866DE372E0CE010D960E94A21140
:1030E0000D851E8561E0CE010D960E94CA11C801B2
:1030F0000E942810809161018115D1F01092610128
:103100008BE090E090934D0680934C06E091130184
:1031100080E1E89FF0011124EB5FFD4F0684F78505
:10312000E02D09958DE090E090934D0680934C063C
:103130008091FD04811509F44ECF1C821B821E82F2
:103140001D821A82198266E372E0CE0101960E9406
:10315000A21109811A81AE014F5F5F4F60E080E0EC
:103160000E944A04C8010E9428101C821B821E82F1
:103170001D821A82198265E272E0CE0101960E94D8
:10318000A21109811A81AE014F5F5F4F61E080E0BB
:103190000E944A04C80178CFEF92FF921F93CF9309
:1031A000DF9300D000D000D0CDB7DEB7182FE0916C
:1031B000AC0485E0E89FF0011124E355FB4F408308
:1031C00051836283738314831C821B821E821D823F
:1031D0001A82198264EB70E0CE0101960E94A2115E
:1031E000E980FA8060E0CE0101960E94CA11C70111
:1031F0000E942810412F50E060E070E02AE083ED4B
:1032000095E00E940A0F6CEA70E083ED95E00E9461
:10321000970F8091AC048F5F8093AC040F900F9058
:103220000F900F900F900F90DF91CF911F91FF9013
:10323000EF9008952F923F924F925F926F927F92FC
:103240008F929F92AF92BF92CF92DF92EF92FF92B6
:103250000F931F93CF93DF93CDB7DEB7A0970FB631
:10326000F894DEBF0FBECDBFE0914C06F0914D0645
:10327000EC30F10508F0A3C1EA58FB4C0C94A92FDF
:103280008CE090E0A0960FB6F894DEBF0FBECDBFE5
:10329000DF91CF911F910F91FF90EF90DF90CF9032
:1032A000BF90AF909F908F907F906F905F904F9066
:1032B0003F902F900C94CB028FEF94E00E94B710B8
:1032C0008BE695E00E94B71085E395E00E94B71069
:1032D00019821A821B821C82AE014F5F5F4F60E031
:1032E00081E00E94560E811591F15B814C8129810C
:1032F00030E0ACE3B0E00E942D332A81620F711DF3
:10330000811D911D9B01A8EEB3E00E942D336093B7
:103310004001709341018093420190934301252F16
:1033200030E00E942D336B017C01242F30E0A4E6B5
:10333000B0E00E942D33C60ED71EE81EF91EC092C3
:103340003C01D0923D01E0923E01F0923F0124E029
:1033500030E03093A2052093A1058FE68093AB0562
:103360003093AD052093AC058093B60580E090E0E6
:1033700089CF80918501811599F1109285010E9474
:10338000C10C1C821B821E821D821A8219826BEB69
:1033900074E0CE0101960E94A21109811A8142E0D7
:1033A00061E0CE0101960E947D04C8010E942810B0
:1033B0001C821B821E821D821A8219826AEA74E0B4
:1033C000CE0101960E94A21109811A81AE014F5FC0
:1033D0005F4F61E080E00E944A04C8010E9428100B
:1033E00080917301811509F4EAC01092730185E0A0
:1033F00090E048CF80918501811509F487C0109233
:10340000850181E080934B060E94C10C1C821B82C7
:103410001E821D821A82198264EA74E0CE0101962E
:103420000E94A21109811A8144E063E0CE01019655
:103430000E947D04C8010E9428101C821B821E82EB
:103440001D821A82198263E974E0CE0101960E94FE
:10345000A21109811A81AE014F5F5F4F61E080E0E8
:103460000E944A04C8010E9428101092A3051092DD
:10347000A4051092A5051092A6051092A70510921A
:10348000A8051092A9051092AA051092AE051092F7
:10349000AF051092B0051092B1051092B2051092CE
:1034A000B3051092B4051092B5051092A2051092C2
:1034B000A1058BE68093AB051092AD051092AC058B
:1034C0008093B60567EA75E083EA95E00E943003D1
:1034D00080E20E94580C4091030550E060E472E0E5
:1034E00085E295E00E94C93240916F0550E06CE2A0
:1034F00071E081E995E00E94C9324091390550E0C0
:103500006CE171E08BE595E00E94C93280914B0639
:10351000811581F10E94BF02AB01BC0180913C0189
:1035200090913D01A0913E01B0913F0100914E0666
:1035300010914F062091500630915106800F911F37
:10354000A21FB31F84179507A607B70798F4109218
:103550004B061091AB05612F8FEF94E00E94DF0CBA
:10356000612F8BE695E00E94DF0C612F85E395E0EB
:103570000E94DF0C80917301811519F01092730184
:10358000F5CE80916A01811529F010926A0188E0D8
:1035900090E078CE8AE00E943008892BC1F38091B8
:1035A0006101811519F010926101F1CF8BE00E9449
:1035B0003008892B61F380917C01811119C0A0969C
:1035C0000FB6F894DEBF0FBECDBFDF91CF911F9134
:1035D0000F91FF90EF90DF90CF90BF90AF909F90B2
:1035E0008F907F906F905F904F903F902F900895B5
:1035F00010927C010E94ED021C821B821E821D82A1
:103600001A82198265E874E08E010F5F1F4FC801AE
:103610000E94A211E980FA8061E0C8010E947F1037
:10362000C7010E942810EDEAF4E08DEF94E04FEF1F
:103630005FEFBA01408351836283738314823596AE
:103640008E179F07B9F71092AC041C821B821E8252
:103650001D821A82198269E872E0C8010E94A211D3
:10366000E980FA8061E0C8010E94CA11C7010E9486
:10367000281040917D0150917E0160917F017091F1
:10368000800181E00E94CC1880917D0190917E01A3
:10369000A0917F01B09180018093A3059093A40530
:1036A000A093A505B093A6058093AE059093AF05B2
:1036B000A093B005B093B10521E030E03093A205AE
:1036C0002093A10588E68093AB053093AD05209348
:1036D000AC058093B60582E090E0D4CD8091850161
:1036E0008115C1F0109285011C821B821E821D82F1
:1036F0001A82198267E774E0CE0101960E94A21136
:1037000009811A8161E0CE0101960E947F10C801F3
:103710000E94281080917301811130CF8AE00E94AD
:103720003008892B09F094C085E090E09093A205C1
:103730008093A105865C9D4FDC018C918093AB0545
:103740008BE00E943008892B09F085C085E090E06D
:103750009093AD058093AC05865C9D4FFC01808104
:103760008093B6058091A1059091A205059709F077
:1037700075C01C821B821E821D821A82198261E71B
:1037800074E0CE0101960E94A21109811A81BE0146
:103790006F5F7F4F8BE695E00E949702C8010E9401
:1037A00028108091AC059091AD05059709F05BC09C
:1037B0001C821B821E821D821A8219826BE674E0B3
:1037C000CE0101960E94A21109811A81BE016F5F8C
:1037D0007F4F85E395E00E949702C8010E94281060
:1037E0008091A1059091A2052091AC053091AD0585
:1037F000822B932B1C821B821E821D821A821982AD
:10380000892BB1F560E674E0CE0101960E94A21109
:1038100009811A8161E0CE0101960E947F10C801E2
:103820000E9428108FEF94E00E94B71080916A01E7
:10383000811110926A0180916101811110926101E0
:1038400080917C01811110927C0181E090E01ACD81
:1038500080E090E06BCF80E090E07ACF8BE695E05F
:103860000E94B7109ECF85E395E00E94B710B8CFB5
:103870006AE574E0CE0101960E94A21109811A81C5
:10388000BE016F5F7F4F8FEF94E00E949702C801E7
:103890000E94281081E00E94D10C1C821B821E8293
:1038A0001D821A8219826BE474E0CE0101960E9497
:1038B000A21109811A81AE014F5F5F4F61E080E084
:1038C0000E944A04C8010E9428108091AC05909182
:1038D000AD05EFE0059721F480E580937106EEE0F9
:1038E0008091A1059091A205059729F4F0E0EE5A88
:1038F000F94F8CE4808B8091FE04811509F45FCE32
:1039000024E630E040E550E060ED77E083E0A0960B
:103910000FB6F894DEBF0FBECDBFDF91CF911F91E0
:103920000F91FF90EF90DF90CF90BF90AF909F905E
:103930008F907F906F905F904F903F902F900C945E
:10394000330C809185018115D9F0109285010E9478
:10395000C10C1C821B821E821D821A82198265E4A0
:1039600074E0CE0101960E94A21109811A8146E0FD
:1039700065E0CE0101960E947D04C8010E942810D6
:103980008091A1059091A205019709F06FC08091E7
:103990006A01811509F46AC010926A0140916B01B5
:1039A00050916C0160916D0170916E014093A7057B
:1039B0005093A8056093A9057093AA0582E090E052
:1039C0009093A2058093A1058BE68093AB0583E0DD
:1039D0000E94CC1867EA75E083EA95E00E94300304
:1039E00080E20E94580C6091AB058BE695E00E9446
:1039F000DF0C8AE380934B0144E451E060E082E015
:103A00000E9433041C821B821E821D821A8219822C
:103A100062EA72E0CE0101960E94A21109811A8128
:103A2000AE014F5F5F4F60E080E00E944A04C80132
:103A30000E9428101C821B821E821D821A821982FB
:103A400067E972E0CE0101960E94A21109811A81F4
:103A500060E0CE0101960E947F10C8010E942810EC
:103A600064E471E083ED95E00E948B0F8091AC05DA
:103A70009091AD05019709F08DC08091610181158C
:103A800009F488C010926101409162015091630174
:103A900060916401709165014093B2055093B30544
:103AA0006093B4057093B50582E090E09093AD0506
:103AB0008093AC058BE68093B60584E00E94CC1819
:103AC00062EB75E08EEA95E00E94300380E20E948E
:103AD000580C6091B60585E395E00E94DF0C80915B
:103AE000A1059091A2050197C1F41C821B821E8240
:103AF0001D821A82198269EB72E0CE0101960E9442
:103B0000A21109811A81AE014F5F5F4F60E080E032
:103B10000E944A04C8010E9428108AE380934B0146
:103B200044E451E061E082E00E9433041C821B8285
:103B30001E821D821A82198263EB72E0CE01019609
:103B40000E94A21109811A81AE014F5F5F4F61E0AF
:103B500080E00E944A04C8010E9428101C821B8237
:103B60001E821D821A82198267EA72E0CE010196D6
:103B70000E94A21109811A8160E0CE0101960E9483
:103B80007F10C8010E94281064E471E083ED95E085
:103B90000E948B0F8091A1059091A205029791F54B
:103BA0008091AC059091AD05029761F58091B205C9
:103BB0009091B305A091B405B091B5054091A705CA
:103BC0005091A8056091A9057091AA054817590759
:103BD0006A077B0790F462EB75E08EEA95E00E943D
:103BE000300380E20E94580C6091AB058FEF94E0A7
:103BF0000E94DF0C84E090E045CB67EA75E083EA41
:103C000095E0EDCF1091FD04111509F443C00E9419
:103C1000BF0269837A838B839C83BE016F5F7F4F72
:103C20008EEA95E00E94300380E20E94580C809159
:103C3000AC059091AD05019799F41091B605612FEF
:103C400085E395E00E94DF0C612F8FEF94E00E94E6
:103C5000DF0C44E451E061E082E00E94330410E0B4
:103C60008091A1059091A2050197A1F40091AB0567
:103C7000602F8BE695E00E94DF0C111559F0602F44
:103C80008FEF94E00E94DF0C44E451E060E082E0BA
:103C90000E94330480917301811509F490CC109235
:103CA00073011C821B821E821D821A82198266E3A6
:103CB00074E0CE0101960E94A21109811A8161E08F
:103CC000CE0101960E947F10C8010E9428104091E9
:103CD000740150917501609176017091770186E0D1
:103CE0000E94CC181C821B821E821D821A8219829D
:103CF00069E274E0CE0101960E94A21109811A8145
:103D000044E063E0CE0101960E947D04C8010E9458
:103D1000281022E030E03093A2052093A1058BE625
:103D20008093AB053093AD052093AC058093B60529
:103D300061CF80918501811509F470C110928501D0
:103D40001C821B821E821D821A8219826AE174E023
:103D50008E010F5F1F4FC8010E94A211E980FA80F7
:103D600061E0C8010E947F10C7010E942810F090F6
:103D70001B016AE070E080E090E00E9414060F8F63
:103D800018A3F11409F44AC169EB73E083ED95E0DF
:103D90000E94970F2091AC040DEA14E0F80180E036
:103DA000412C512C3201C12CD12C760188248A94CB
:103DB000982C5401821337C1FFEF8F169F06AF0670
:103DC000BF06C1F0D701C601C414D504E604F70448
:103DD00010F4D301C2010097A105B10559F088196B
:103DE0009909AA09BB0921E02B8B8F379E4EA64368
:103DF000B10508F41B8A212C312C8091AC042816C3
:103E0000310408F428C12FEF82169206A206B206EA
:103E100009F47EC0C114D104E104F10409F478C0AE
:103E2000411451046104710409F472C0D701C60140
:103E300088199909AA09BB098F8B988FA98FBA8F06
:103E4000A3019201281939094A095B092B8F3C8F7C
:103E50004D8F5E8F83ED95E00E94670F64E773E0FE
:103E600083ED95E00E94970F68E673E083ED95E09F
:103E70000E940E0D20E04B896F89788D898D9A8D77
:103E80000E94A50F83ED95E00E94670F6CE573E03B
:103E900083ED95E00E940E0D20E04B896B8D7C8DAB
:103EA0008D8D9E8D0E94A50F83ED95E00E94670F7A
:103EB0008F89988DA98DBA8D2B8D3C8D4D8D5E8D02
:103EC00082179307A407B50708F001C166E473E001
:103ED00083ED95E00E94970F6AE373E083ED95E030
:103EE0000E940E0DC301B2016C197D098E099F0954
:103EF0000E94CD2F20E030E04AE754E40E94A9332D
:103F00000E94EE1067E772E083ED95E00E948B0F50
:103F10008091AB04811509F47BC06BEE72E083EDF8
:103F200095E00E94970F8091AB04811509F4F6C0CB
:103F300080915A0140915B0120915C01E0905D010C
:103F4000F0905E0100915F011AE0612F0E94482FFE
:103F5000805D8983905D9A833EE23B83842F0E943B
:103F6000482F805D8C83905D9D833E8330E020539D
:103F7000384F82E38F83C90164E670E00E94542FBA
:103F8000CB01EAE0F0E0BF010E94542F805D8887FA
:103F9000C901BF010E94542F282FCB01BF010E94ED
:103FA000542F805D8987205D2A871B866FED72E024
:103FB00083ED95E00E940E0D6F8D78A183ED95E065
:103FC0000E948B0F8E2D612F0E94482F805D898368
:103FD000905D9A832AE32B838F2D0E94482F805D6A
:103FE0008C83905D9D832E83802F0E94482F805D5F
:103FF0008F83905D9887198663ED72E083ED95E07D
:104000000E940E0D6F8D78A183ED95E00E948B0FBD
:104010006CEB72E083ED95E00E94970F8091730145
:104020008111ACCACCCA9481913039F480809180DE
:10403000A280B3808F5F3596BDCE933029F4C080C7
:10404000D180E280F380F6CF9430A1F74080518098
:1040500062807380EFCFD8016D917D918D919C919D
:10406000681979098A099B0921E04B890E94A50FEB
:1040700065E772E083ED95E00E94A30FF80184816B
:104080008430F9F080F48130C9F064EA73E0833061
:1040900081F083ED95E00E94670FFFEF2F1A3F0A32
:1040A0000B5F1F4FAACE853079F06AE873E0863047
:1040B00081F783ED95E00E940E0DEBCF63EB73E08B
:1040C000F8CF64E973E0F5CF60E973E0F2CF8B8D50
:1040D0009C8DAD8DBE8D2F89388D498D5A8D82175F
:1040E0009307A407B50798F463E273E083ED95E0C6
:1040F0000E94970F67E173E083ED95E00E940E0D3B
:10410000C701B6016419750986099709F1CE61E006
:1041100073E083ED95E00E94970FFACE00E0F12C5A
:10412000E12C20E040E080E00FCF809185018115F7
:1041300009F487C01092850181E080934B061092AC
:10414000A3051092A4051092A5051092A6058091D2
:10415000400190914101A0914201B09143018093AF
:10416000A7059093A805A093A905B093AA0510925E
:10417000A2051092A1058BE68093AB051092AD05C8
:104180001092AC058093B60567EA75E083EA95E086
:104190000E94300380E20E94580C10924E010E944F
:1041A000C10C1C821B821E821D821A82198262E14E
:1041B00074E0CE0101960E94A21109811A8144E0A7
:1041C00063E0CE0101960E947D04C8010E94281080
:1041D00044E451E061E086E00E9433041C821B82CB
:1041E0001E821D821A82198268E074E0CE01019657
:1041F0000E94A21109811A81AE014F5F5F4F61E0F9
:1042000080E00E944A04C8010E94281087E0E3E889
:10421000F2E0DE01119601900D928A95E1F787E0B8
:10422000FE013196ABE5B5E001900D928A95E1F77C
:1042300087E0FE013196A5E2B5E001900D928A95E6
:10424000E1F780914B06811509F10E94BF02AB0195
:10425000BC0180913C0190913D01A0913E01B09143
:104260003F0100914E0610914F062091500630916B
:104270005106800F911FA21FB31F481759076A07E5
:104280007B0720F010924B060E94BF1080916A01BC
:10429000811541F110926A01809140019091410194
:1042A000A0914201B0914301813335E79307A10505
:1042B000B10508F459C080539547A109B10980930D
:1042C000400190934101A0934201B093430181E0EA
:1042D0008093850110924E0610924F061092500660
:1042E0001092510680916101811561F11092610176
:1042F0008091400190914101A0914201B091430110
:10430000813942EB940748E0A407B10520F080E929
:1043100092EBA8E0B0E0805D9A48AF4FBF4F80932A
:10432000400190934101A0934201B093430181E089
:104330008093850110924E0610924F0610925006FF
:104340001092510680917C01811531F010927C0110
:1043500086E090E00E94CB0280917301811509F400
:104360002EC91092730171CA80E395E7A0E0B0E016
:10437000A6CF80918501811509F45DC00E94ED02F0
:10438000109285011C821B821E821D821A82198254
:1043900068EF73E0CE0101960E94A21109811A8193
:1043A00061E0CE0101960E947F10C8010E94281092
:1043B0000E94C10C1C821B821E821D821A821982DD
:1043C00060EF73E0CE0101960E94A21109811A816B
:1043D00046E065E0CE0101960E947D04C8010E947E
:1043E000281081E090E09093AD058093AC0588E6BD
:1043F0008093B6050E94BF02462F572FBC01409301
:10440000AE055093AF056093B0057093B1058091F0
:10441000A7059091A805A091A905B091AA05840FC0
:10442000951FA61FB71F8093B2059093B305A09365
:10443000B405B093B505809173018115D9F0109240
:1044400073011C821B821E821D821A82198260EEF9
:1044500073E0CE0101960E94A21109811A8161E0E8
:10446000CE0101960E947F10C8010E9428100E9470
:104470004F0CEBC98091FD04811509F4A0C80E947E
:10448000BF02462F572FBC014093AE055093AF0596
:104490006093B0057093B1058091B2059091B3051A
:1044A000A091B405B091B50584179507A607B70785
:1044B000D0F0A0960FB6F894DEBF0FBECDBFDF914F
:1044C000CF911F910F91FF90EF90DF90CF90BF9011
:1044D000AF909F908F907F906F905F904F903F90A4
:1044E0002F900C94BF101C821B821E821D821A8288
:1044F000198260ED73E0CE0101960E94A21109813C
:104500001A8161E0CE0101960E947F10C8010E94CD
:10451000281081E090E00E94CB0220E030E040EDE6
:1045200057E068EC70E081E0F2C9C0904001D090A3
:104530004101E0904201F090430160913C01709193
:104540003D0180913E0190913F0128EE822E23E0B3
:10455000922EA12CB12CA50194010E94682F290153
:104560003A016B8B7C8B8D8B9E8BC701B60120E64D
:104570003AEE40E050E00E94682F2983C701B6015F
:10458000A50194010E94682F6CE3862E912CA12C2A
:10459000B12CCA01B901A50194010E94682F6A8358
:1045A000C301B201A50194010E94682F6B836B893E
:1045B0007C898D899E8924E630E040E050E00E94AD
:1045C000682F2C83AE014F5F5F4F60E081E00E9457
:1045D000FC11811511F40C94DF1A0E944F0C188AFB
:1045E0001F861A8A198A1E861D866AE772E0CE0126
:1045F0000D960E9454100D851E8561E0CE010D962A
:104600000E947F10C801A0960FB6F894DEBF0FBEBF
:10461000CDBFDF91CF911F910F91FF90EF90DF9071
:10462000CF90BF90AF909F908F907F906F905F9052
:104630004F903F902F900C9428101F921FB61F92FE
:1046400011242F938F939F93AF93BF93809147062D
:1046500090914806A0914906B0914A060196A11D85
:10466000B11D8093470690934806A0934906B093E6
:104670004A06809146068F5F80934606853228F071
:104680001092460681E08093450680914306909102
:10469000440601969093440680934306883E9340D7
:1046A00038F0109244061092430681E0809342064F
:1046B000BF91AF919F918F912F911F901FBE1F901F
:1046C00018951F920F920FB60F9211242F933F93BC
:1046D0004F935F936F937F938F939F93AF93BF930A
:1046E000EF93FF939091B900892F887F803509F46B
:1046F000C0C008F042C0803309F4B6C098F58831D4
:1047000001F1D0F4883009F4A7C0803109F4A4C0C5
:10471000811509F4F0C0FF91EF91BF91AF919F9186
:104720008F917F916F915F914F913F912F910F905A
:104730000FBE0F901F901895803209F495C08832F3
:1047400051F79091220480912104981778F5E09117
:10475000220481E08E0F80932204F0E0EF5FFB4F94
:1047600080817CC0803409F490C0883409F47EC014
:10477000883389F6809300046DC0803A09F49FC0A5
:10478000B8F5803809F489C050F5803611F1D8F4B5
:10479000883509F6E091220481E08E0F809322048F
:1047A0008091BB00F0E0EF5FFB4F808380914C0471
:1047B00081115CC081E080934B0484EA8093BC004B
:1047C00010924D04A8CF803721F0987E983609F0DA
:1047D000A2CF83E080934D041092FF0341C0803943
:1047E00009F45BC0987E983809F095CF85E839C008
:1047F000883BD9F058F5883A19F0803B09F08BCF07
:1048000084E080934D041092DE0310924A04E091FC
:104810009004F0919104099580914A04811105C09A
:1048200081E080934A0410922A04E091DE0381E043
:104830008E0F8093DE03F0E0E65DFB4F8081809376
:10484000BB009091DE0380914A0423C0907F903C8E
:1048500009F061CF85ECB2CF809123048093BB0037
:1048600085EC8093BC0057CF809300040E94C40E57
:1048700052CFE091220481E08E0F80932204809138
:10488000BB00F0E0EF5FFB4F8083909122048091AA
:104890002104981708F0AACFE3CF8091FF0380325C
:1048A00008F0A4CFE091FF0381E08E0F8093FF0317
:1048B0008091BB00F0E0E152FC4F8083D1CF85ECCA
:1048C0008093BC0010924D048091FF03803230F43D
:1048D000E091FF03F0E0E152FC4F10826091FF0392
:1048E00070E0E0918E04F0918F048FED93E00995D4
:1048F0001092FF0310CF10920004B8CF1F920F92B6
:104900000FB60F9211242F933F934F935F936F93A2
:104910007F938F939F93AF93BF93CF93EF93FF9327
:1049200083B1C091DD039091DC03C923982F90954A
:10493000C9238093DD03C4FF05C0E0910501F09118
:1049400006010995C5FF05C0E0910701F091080136
:104950000995C6FF05C0E0910901F0910A0109958A
:10496000C7FF05C0E0910B01F0910C010995C1FF53
:1049700005C0E0910D01F0910E010995C2FF05C03F
:10498000E0910F01F09110010995C3FF05C0E0917E
:104990001101F09112010995FF91EF91CF91BF9113
:1049A000AF919F918F917F916F915F914F913F91C7
:1049B0002F910F900FBE0F901F9018951F921FB64A
:1049C0001F9211242F933F938F939F93AF93BF9385
:1049D0008091D8039091D903A091DA03B091DB03C1
:1049E0003091D70323E0230F2D3750F50196A11DF9
:1049F000B11D2093D7038093D8039093D903A0933C
:104A0000DA03B093DB038091D3039091D403A09198
:104A1000D503B091D6030196A11DB11D8093D30398
:104A20009093D403A093D503B093D603BF91AF91D5
:104A30009F918F913F912F911F901FBE1F901895AE
:104A400026E8230F0296A11DB11DD3CF2F932FB7B8
:104A50002F938F939F93EF93FF93E0914303F091F4
:104A600044038081E0914903F0914A0382FD19C01B
:104A7000908180914C038F5F8F7320914D0382173B
:104A800041F0E0914C03F0E0ED5CFC4F958F80939A
:104A90004C03FF91EF919F918F912F912FBF2F91F9
:104AA00018958081F6CF1F920F920FB60F921124A6
:104AB0002F933F934F935F936F937F938F939F9326
:104AC000AF93BF93EF93FF9383E393E00E94920829
:104AD000FF91EF91BF91AF919F918F917F916F91D6
:104AE0005F914F913F912F910F900FBE0F901F90AC
:104AF00018951F921FB61F9211248F939F93AF9307
:104B0000BF93EF93FF9380912F0390913003A09177
:104B10003103B0913203892B8A2B8B2B99F1909121
:104B20002E03E0912C03F0912D038081892780834F
:104B300080912F0390913003A0913103B091320303
:104B4000181619061A061B069CF480912F039091E3
:104B50003003A0913103B09132030197A109B1094B
:104B600080932F0390933003A0933103B0933203CB
:104B7000FF91EF91BF91AF919F918F911F901FBEB9
:104B80001F901895809171008D7F809371008091A6
:104B90002E03E0912C03F0912D03908180958923C1
:104BA0008083E6CF1F920F920FB60F921124CF92FF
:104BB000DF92EF92FF920F931F932F933F934F93A8
:104BC0005F936F937F938F939F93AF93BF93EF9375
:104BD000FF93CF93DF93CDB7DEB76C97DEBFCDBF2A
:104BE0001092E9008091E80083FF30C08E010B5ED7
:104BF0001F4F68E0C8010E94980982EF8093E80087
:104C00008D89E02ED12E87FF12C09091E80090FF91
:104C1000FCCF982F907691112BC12F89388DEE897A
:104C2000EA3088F4F0E0EE57FB4C0C94A92F9EEF8D
:104C30009093E800EECF803841F580912603809371
:104C4000F1001092F1008EEF8093E8006C960FB6A1
:104C5000F894DEBF0FBECDBFDF91CF91FF91EF91F2
:104C6000BF91AF919F918F917F916F915F914F9184
:104C70003F912F911F910F91FF90EF90DF90CF9078
:104C80000F900FBE0F901F9018951092F100D9CF82
:104C90008111D9CF21303105B1F6809126038D7F66
:104CA00080932603D0CF8111CECF2130310559F624
:104CB000809126038260F4CF8091E80080FFFCCFD2
:104CC0008F8980688093E300BECFF88C0B8D1C8D9C
:104CD00022E01092E90010922A0310922903F212A6
:104CE0002EC010922803109227030E94410D1F82AC
:104CF00099E09983FA8291E09E8390EA98879AEFEF
:104D000099872091290330912A03275F3F4F3C83E5
:104D10002B838D831092E90010922A0310922903AD
:104D2000109328030093270349E050E0BE016F5F12
:104D30007F4F80E00E94230D0E94410D84CF10938D
:104D40002803009327030E94070ADC0112960D91A5
:104D50001C910115110531F4F1E0FF1214C06FE14F
:104D600071E05AC0D801ED91FC910480F581E02DED
:104D70006E2D7D2DC8010995009709F037C1F80106
:104D800000851185E6CFF3E0FF120EC08F898115F3
:104D900009F440C0823061F440E860E181E491E0D0
:104DA0000E94D40981114FCF81E28093EB004ECF56
:104DB000813029F440E86BE085E391E0F1CF833066
:104DC00099F70E94070ADC011296ED90FC908E0183
:104DD0000F5F1F4F6801E114F10469F4D8011C92C0
:104DE000F60101900020E9F73197BF016C197D09A8
:104DF00040E0C601D5CFD701ED91FC910680F78147
:104E0000E02DB801C7010995080F111DF701E084D5
:104E1000F184E1CF61E371E0FB01449150E080E86F
:104E20000E94230D10CF81E08093F1000CCF83709E
:104E30008111BACFEFEFF1E081E021E036E391910B
:104E4000911569F08093E9002093EB00DF019E91BA
:104E50009093EC003093ED008F5F873081F78EE701
:104E60008093EA001092EA008F898093D203EBCE00
:104E70008B8D9C8D1092E90010922A0310922903C9
:104E80009093280380932703898D811195C08E8983
:104E90009D89913A49F4813209F086CF47E050E08C
:104EA00064E171E080E0BCCF913209F07DCF8332C4
:104EB00069F48F89988DA0E0B0E080930101909310
:104EC0000201A0930301B0930401BDCE803269F4C6
:104ED0008091E80082FFFCCF67E084E191E00E94CE
:104EE00098098BEF8093E800AECE823209F0ABCE0A
:104EF0008F8980931B01EEEFFFE7859195918B3FA2
:104F00009C4D51F1E0E0F8E0809114019091150181
:104F1000A0911601B0911701803B9440A105B10505
:104F2000F1F480911B0180FD1AC0EE3F8AE0F80782
:104F300091F587E797E79183808380916000809364
:104F4000250388E19BE00FB6F894A8958093600054
:104F50000FBE9093600077CEEEEFFAE0D5CF808160
:104F600091818737974709F06ECEA89580916000B0
:104F70008861809360008091250380936000EE3FFC
:104F8000FA40A9F08091FE0A9091FF0A90930108DF
:104F90008093000858CE80910008909101088737CF
:104FA000980739F29093FF0A8093FE0AC2CF1092BD
:104FB000FF0A1092FE0A47CE0E94070ADC011296F1
:104FC0000D911C910115110509F4EECED801ED915A
:104FD000FC910190F081E02D6E2D7D2DC801099589
:104FE000811131CEF80100851185ECCF0CF02BCE6C
:104FF000DBCE1F921FB61F9211248F939F93809137
:10500000E1009091E100937F9093E10083FF0FC056
:105010001092E90091E09093EB001092EC0092E383
:105020009093ED001092D20398E09093F00082FFED
:1050300022C093E09093E9009091F200911519F04D
:105040009AE39093E8009091D003911541F09091EC
:10505000D00391509093D003911101C05D9A90912B
:105060002B03911541F090912B03915090932B03BA
:10507000911101C0289A84FF17C08091E2008E7EB2
:1050800081608093E2008091E1008F7E8093E10057
:105090008091D1038E7E80618093D1039F918F9107
:1050A0001F901FBE1F90189580FFF8CF8091E200DF
:1050B0008E7E80618093E2008091E1008E7E8093FD
:1050C000E1008091D1038E7E8160E6CFCDB7DEB75F
:1050D000A2970FB6F894DEBF0FBECDBF789484B50B
:1050E000826084BD84B5816084BD85B5826085BDE4
:1050F00085B5816085BD80916E00816080936E0072
:105100001092810080918100826080938100809163
:105110008100816080938100809180008160809314
:105120008000809191008260809391008091910035
:1051300081608093910080919000816080939000C5
:105140008091C10084608093C1008091C100826021
:105150008093C1008091C10081608093C1008091E3
:10516000C30081608093C3008091C00082608093FF
:10517000C0008091C20081608093C20080917A005B
:10518000846080937A0080917A00826080937A00B4
:1051900080917A00816080937A0080917A008068A3
:1051A00080937A001092D203109226031092D103BA
:1051B0008091D70081608093D70080EA8093D800E7
:1051C00089B5806189BD89B5826089BD89B5082F9F
:1051D000017080FFFBCF61E070E080E090E00E9412
:1051E00014068091D8008F7C80618093D8008091D4
:1051F000E000807F8093E0008091E1008E7E8093CC
:10520000E1008DE08093E200559A209AF894109284
:10521000800010928100109285001092840080918D
:1052200081008860809381008091810083608093F9
:10523000810089EF90E090938900809388008091AD
:105240006F00826080936F0078948FEF9FEF909350
:10525000E0058093DF051C821B821E821D821A825C
:10526000198267E171E0CE0101960E94A211E980E6
:10527000FA8060E0CE0101960E94CA11C7010E9427
:1052800028106BE872E083ED95E00E94A30F65E9BA
:1052900072E083ED95E00E948B0F109293041092C0
:1052A000920410929504109294040E94F10783EDE9
:1052B00094E0909391048093900484ED94E0909313
:1052C0008F0480938E0420E042E060E18CED92E058
:1052D0000E948A0D6091E1026D7F6093E102686037
:1052E0008CED92E00E94C0046FEF8CED92E00E9482
:1052F000D50D9DEBE92E90E0F92E18E023E7A22EC4
:10530000B12C6E0129E0C20ED11C3BE9832E912CF9
:1053100048E050E0B701CE0101960E94AF2F612F07
:1053200060648CED92E00E94C004C5010197F1F722
:10533000AE014F5F5F4F3A01D3016D913D018CED9E
:1053400092E00E94C804C4010197F1F76C147D0437
:1053500099F7B8E0EB0EF11C185F1034C9F661E064
:1053600082E10E94F80661E08CE00E94F80662E0AB
:1053700088E00E94F80662E089E00E94F80662E098
:105380008AE00E94F80662E08BE00E94F80623E3C0
:1053900033E0E0914303F091440382E08083E091A5
:1053A0003F03F09140031082E0914103F0914203EA
:1053B00087E6808310924B03E0914703F091480306
:1053C00086E08083E0914503F0914603808180610F
:1053D0008083E0914503F09146038081886080835B
:1053E000E0914503F0914603808180688083E091DD
:1053F0004503F091460380818F7D80838DEC90E0A2
:105400009093DA028093D90294E3E1E0F5E0DF01C2
:10541000492F1D924A95E9F747EC52E05093000559
:105420004093FF0487E08093030542E14093040525
:10543000EDE6F5E0DF011D929A95E9F730936C05F2
:1054400020936B0580936F05E8E3F5E093E3DF01BC
:105450001D929A95E9F7309336052093350598E02B
:105460009093370580933905AE01435F5F4F60E04D
:1054700080E00E94560E811509F45BC01C821B82DD
:105480001E821D821A8219826DE071E0CE010196A2
:105490000E94A211E980FA8061E0CE0101960E948B
:1054A000CA11C7010E9428101D8510936F058E85B3
:1054B00080936D058F8580936E058889809339056B
:1054C0008989809337058A8980933805AE014F5FBB
:1054D0005F4F61E080E00E94560E811509F452C1D1
:1054E000412F50E0BE016F5F7F4F8CE291E00E9440
:1054F000C9326CE271E083ED95E00E948B0FAE0142
:105500004F5F5F4F62E080E00E94560E811509F404
:1055100050C140916F0550E0BE016F5F7F4F8CE13D
:1055200091E00E94C9326CE171E083ED95E00E9448
:105530008B0F82E08093A404AE014F5F5F4F63E066
:1055400080E00E94560E811551F089818093A60457
:1055500081E09A81911101C080E08093580180918F
:10556000A604823010F01092A6040E94C81683ECA4
:1055700093E090930601809305011091DC0380E194
:105580000E94E10B8FED93E0909308018093070157
:1055900080E20E94E10B8BEF93E090930A018093ED
:1055A000090180E40E94E10B87E194E090930C01F3
:1055B00080930B01106F1093DC0380E80E94E10BD5
:1055C000B0919A01BF8FE0919B01E8A3F0919C01FB
:1055D000F9A320919D012AA370909E0160909F01E4
:1055E0005090A0014090A1011092FD041092FE0481
:1055F000809145068115D9F01092450631E030932F
:10560000FD04909141069F5F909341068091600157
:10561000981768F0909140069093FE04932790931A
:105620004006109241064BE1481B40936001809177
:1056300042068115F9F0109242068091AB04811563
:10564000C9F08CE0E9EAF2E0DE01119601900D92DA
:105650008A95E1F780915F018F5F8C3308F4F6C083
:1056600010925F0180915E018F5F8C3308F0B8C0AB
:1056700080935E018091CC05811551F01092CC058C
:105680004DEC55E06FEC75E08CE791E00E940F1651
:105690008091C505811551F01092C50546EC55E085
:1056A00068EC75E083E791E00E940F168091BE05DB
:1056B000811551F01092BE054FEB55E061EC75E09D
:1056C0008AE691E00E940F168091B705811551F08E
:1056D0001092B70548EB55E06AEB75E081E691E082
:1056E0000E940F16809173018115C9F180914C06BB
:1056F00090914D06892B99F564EB70E080E090E085
:105700000E9414060E94BF02C0907401D0907501DF
:10571000E0907601F090770158EEC50E53E0D51E6B
:10572000E11CF11C6C157D058E059F0508F491C0E8
:1057300089E00E943008892B91F40E94C10C1092DC
:10574000A504809113018093A60482E497E19093CD
:10575000A9048093A8048DE090E00E94CB02809180
:10576000A70481110E94C816E091A804F091A90431
:1057700009958091FD04811509F4E5C0C12CD12C57
:10578000312CB5C01C8E1B8E1E8E1D8E1A8E198E4E
:1057900061E071E0CE0149960E94A211E98CFA8C79
:1057A00061E0CE0149960E94CA11C7010E942810EB
:1057B000A6CE1C8E1B8E1E8E1D8E1A8E198E65EF28
:1057C00070E0CE0149960E94A211E98CFA8C61E04A
:1057D000CE0149960E94CA11C7010E942810A9CE85
:1057E00010925E0180915D018F5F883118F4809383
:1057F0005D0140CF10925D0190915A019F5F90939F
:105800005A0180915B01823029F420915C01237060
:10581000211549F0FE01E80FF11D2081291728F01C
:105820000E94FC0227CF2DE1F9CF91E090935A011D
:105830008F5F8D3018F480935B01F2CF90935B0102
:1058400080915C018F5F80935C01EACF80935F0160
:1058500011CF89E00E943008892B09F453CF68CF1B
:10586000F701EE5AF94F2080C7018B509D4F4C0134
:10587000DC018C91281671F1BF8DBD87E8A1EE8700
:10588000F9A1FF872AA1288B79826A825B824C82E8
:105890002091E3028FEF820F321608F4832D90E0FF
:1058A0003091E402303131F5243021F5AE014F5F03
:1058B0005F4F840F951FDC016C91610F60688CED68
:1058C00092E00E94C004622D8CED92E00E94C80418
:1058D000F40120821F5FFFEFEF1AFF0A103109F079
:1058E000BFCF20E1C20ED11C311009C0302E76018D
:1058F00010E0B6CFFE013D968E0F9F1FDCCF60E01B
:105900008FEF94E00E9492076091FE046111609114
:1059100015038BE695E00E9492076091FE046115E5
:1059200021F06091150381E0682785E395E00E94EE
:1059300092078091FE04811531F08091150391E06A
:1059400089278093150310912E06111509F444C080
:105950000E94BF024B015C018091240690912506B4
:10596000A0912606B0912706A5019401281B390BAA
:105970004A0B5B0BDA01C901209123062111A7C153
:10598000209128063091290682179307A105B105B9
:1059900018F1EEE1F1E0E0902C06F0902D068091F8
:1059A00000018C3029F4E4911E2F17FD0AC083C03A
:1059B0008F3F39F48CE080930001E4911E2FEF3F7C
:1059C000C1F481E0809323068092240690922506FC
:1059D000A0922606B092270620E030E0232B09F49F
:1059E00003CE0E94BE08811509F4FECD0E9400007E
:1059F000FBCDE33009F4B7C030F5E11509F444C03C
:105A000012E0E13009F057C010928000109281003E
:105A10008091810088608093810080918100816005
:105A200080938100E9EEF1E0E491F0E0EE0FFF1FDA
:105A3000EF53FE4F85919591E8E0F2E0E491E09319
:105A4000170311E038C0E43009F0AFCF1092C00066
:105A50001092C1008091C10088608093C100809144
:105A6000C10081608093C100E9EEF1E0E491F0E0D3
:105A7000EE0FFF1FEF53FE4F85919591E8E0F2E0A6
:105A8000E491E093160317C014BC15BC84B5826082
:105A900084BD85B5816085BDE9EEF1E0E491F0E07B
:105AA000EE0FFF1FEF53FE4F85919591E8E0F2E076
:105AB000E491E093180361E08CE00E94F8069701FE
:105AC00040E050E060E074E284EF90E00E948A2FB2
:105AD00069017A01F594E794D794C79461E0C61AF6
