:100000000C9486020C94AE020C94AE020C94AE02D8
:100010000C94AE020C94AE020C94AE020C94AE02A0
:100020000C94AE020C9480230C94FB260C94D424E4
:100030000C94AE020C94AE020C94AE020C94AE0280
:100040000C94AE020C9434220C94AE020C94AE02CA
:100050000C94AE020C94AE020C94AE020C94E0230D
:100060000C94AE020C9428240C9455240C94AE02EB
:100070000C94AE020C94AE020C94AE020C94AE0240
:100080000C947B240C94AE020C94AE020C94AE0241
:100090000C9463220C94AE020C94AE020C94AE024B
:1000A0000C94AE020C94AE020C94AE0220756C6FF0
:1000B0007A656E004C6F672074797023003D3D3D7A
:1000C000204B6F6E6563207A617A6E616D75203D9D
:1000D0003D3D0A005679736C6564656B3A20204E8D
:1000E00045524F5A484F444E4500526F7A64696CEE
:1000F0003A2020202000566974657A3A202020207A
:1001000020505241564120445241484100526F7A9A
:1001100064696C3A2020202000566974657A3A2080
:10012000202020204C455641204452414841005057
:1001300072617679206361733A20004C657679208C
:100140006361733A2020002D2D2D20536F75687246
:100150006E207A61766F6475202D2D2D00524553E7
:1001600045540043494C0043494C205052415641AC
:100170002044524148410043494C204C45564120BF
:100180004452414841005354415254000A3D3D3DC0
:10019000205A617A6E616D207A61766F6475203DB8
:1001A0003D3D001209120912091200091209120933
:1001B00012090000001209120000000000091209D3
:1001C00000000000001E0F1E00000000000F1E0FA8
:1001D000000000181C1E1F1E1C1800436879626175
:1001E0002044697370320043687962612044697306
:1001F000703100446973702E696E697400537461C4
:10020000727420000312010002EF02014041233604
:10021000800001010203010403090441726475694D
:100220006E6F204C4C430041726475696E6F204CB8
:10023000656F6E6172646F00080B000202020000BD
:100240000904000001020200000524001001052439
:1002500001010104240206052406000107058103AB
:1002600010004009040100020A0000000705020214
:10027000400000070583024000000000000023004A
:10028000260029002C002F000000000200090F00AA
:1002900000030401000C000000000000000000004A
:1002A0000000000000000000000000250028002BD6
:1002B000002E00310000000000240027002A002D3D
:1002C00000300004040404040304050202020204D2
:1002D00003020202020606060606060404020202E1
:1002E0000404040802011040804010204080408037
:1002F00008020401804020100201108010204040BC
:100300002053797374656D003E20004C3E53797321
:1003100074656D20503E4D6F64756C00556C6F7A3E
:10032000697400556C6F7A656E6F00567970005A6B
:1003300061700050756C7A79004D6F64756C002D9A
:100340002D3E002720616B7469766E69004D6F64E5
:10035000756C202700556B6F6E63656E6F005A6178
:10036000646F7374206F207679706973005A7275A8
:1003700073656E6F004D6572656E69207A72757374
:10038000656E6F0053746F706B790053746F706B90
:1003900079207370757374656E7900533E53746180
:1003A0007274202020523E5A7065740053544F508E
:1003B0004B5900523E46756E6B63652064523E4D4C
:1003C000656E750053544F504B5920532D53004CBC
:1003D000657661206472616861004C6576610050E9
:1003E0007261766120647261686100507261766149
:1003F000002020004F64706F63657420736B6F6E14
:1004000063696C005A727573656E69206F64706FF2
:10041000637475004F64706F636574005A6168613E
:100420006A656E206F64706F63657400533E5A6135
:1004300068616A6974004F44504F434554005A61E3
:10044000646F7374206F207679706973005A6176D7
:100450006F64207A727573656E004D6572656E69A2
:10046000207A727573656E6F005A61766F6400430F
:10047000485942412053454E5A4F52553A00202D7B
:10048000452D20004B6F6E63616B79204F4B002030
:100490002D452D2000202D452D2000434859424157
:1004A000206B6F6E63616B75005A61766F64207AA2
:1004B0006168616A656E00533E53746172742020F6
:1004C00020523E5A706574005A41564F4400523EC5
:1004D00046756E6B63652064523E4D656E750053C4
:1004E000544F504B592048550050756C7A20004CA1
:1004F0006F672070726970726176656E0045455055
:10050000524F4D20706C6E612100632D11241FBE6F
:10051000CFEFDAE0DEBFCDBF12E0A0E0B1E0E2E96C
:10052000F6E602C005900D92A436B107D9F726E091
:10053000A4E6B2E001C01D92AF31B207E1F712E0CC
:10054000C6E8D2E004C02197FE010E946D2EC53896
:10055000D107C9F70E9468270C9422330C9400003D
:10056000CF93DF93FC01DB015481369614968C9176
:1005700014978150990B40E0541303C0DF91CF9141
:10058000089514962D913C9115978217930770F456
:100590002D913C9111972115310541F0280F391FFC
:1005A000E901288121934F5F0197E6CF20E0FACF40
:1005B0002FB7F8946091F0057091F1058091F205E4
:1005C0009091F3052FBF0895CF93DF93D82FC92FB4
:1005D0000E94D8026093F7057093F8058093F9059F
:1005E0009093FA05D093F505C093F60581E08093CA
:1005F0007E011092F4051092750110926C01109218
:10060000630110925A01DF91CF9108958FB7F8944A
:100610001092EF051092EE051092ED059DE090937B
:1006200059011092EC058FBF08954F925F926F921F
:100630007F92AF92BF92CF92DF92EF92FF920F9391
:100640001F93CF93DF93FB01C080D180E280F380C2
:10065000FC0180819181A281B381C81AD90AEA0A7A
:10066000FB0AC701B60128EE33E040E050E00E94EB
:100670002C2E8B01CBEDD5E07D836C838CE3482E53
:10068000512C612C712CCA01B901A30192010E9465
:100690002C2EB62E6B83CA01B901A30192010E94D0
:1006A0002C2EA62E6A83C701B60120E83EEE46E353
:1006B00050E00E942C2EF90139832883C90168EE8D
:1006C00073E00E94182E6E8394E6E92EF12CCF0180
:1006D000B7010E94182ECB012AE030E0B9010E9438
:1006E000182E8F83CF01B9010E94182E482FCB01FD
:1006F000B9010E94182E888749874AE08A2D642F05
:100700000E940C2E8A879B878B2D0E940C2E8C8733
:100710009D87C801B7010E94182E6E87C801B901D4
:100720000E94182E482FCB01B9010E94182E8F87E6
:10073000488BDF91CF911F910F91FF90EF90DF9049
:10074000CF90BF90AF907F906F905F904F90089543
:100750008091F0059091F105A091F205B091F3051B
:1007600080932A0590932B05A0932C05B0932D051B
:1007700080918400909185009093290580932805AD
:1007800081E08093270508958091F0059091F1050F
:10079000A091F205B091F305809323059093240571
:1007A000A0932505B0932605809184009091850043
:1007B000909322058093210581E080932005089580
:1007C0008091F0059091F105A091F205B091F305AB
:1007D00080931C0590931D05A0931E05B0931F05E3
:1007E000809184009091850090931B0580931A0559
:1007F00081E08093190508958091F0059091F105AD
:10080000A091F205B091F30580931505909316051C
:10081000A0931705B09318058091840090918500EE
:10082000909314058093130581E080931205089539
:10083000FA0190E070E07195619571096071772718
:100840002191211519F08031910509F40895DC01F9
:10085000A60FB71FA550BA4F2C930196F1CFCF9397
:10086000DF93DA0190E1981B14964C91149794173A
:1008700008F4492FE62FF0E0F195E195F109E071D8
:10088000FF27E80FF11DE550FA4F80E090E0841754
:1008900018F0DF91CF91089514962D913C91159702
:1008A0008217930768F42D913C911197211531051A
:1008B00039F0280F391FE901288121930196E7CFEC
:1008C00020E0FBCF0F931F93CF93DF938C01C42FB6
:1008D000062E000C770B48E050E08BEF95E00E946D
:1008E00096316C2FCC0F770B48E050E083E096E018
:1008F0000E949631D80114968D919C91C0E1D0E070
:10090000C81BD90BD695C795C03128F4A80160E063
:100910008C2F0E942F04DD27FE01E650FA4F80E263
:100920008083D8011496ED91FC91E550FA4FEC0FBD
:10093000FD1F8083DF91CF911F910F91089544E0B7
:1009400063E00C94620480E090E0089508950895B7
:100950000895DC01ED91FC910684F785E02D40E0DF
:100960000994DC01ED91FC910684F785E02D41E0CE
:10097000099581E090E0089508950895DC0181E0F3
:1009800001C0880F6A95EAF71C968C931C971A96FB
:100990005C934E931997ED91FC9111970484F58522
:1009A000E02D60E0CD0109948091400490914104D4
:1009B000891B990B089590914104809140042FEF79
:1009C0003FEF981748F4E92FF0E0E450FC4F208106
:1009D00030E09F5F90934104C9010895E091410484
:1009E00080914004E81730F4F0E0E450FC4F80813F
:1009F00090E008958FEF9FEF089508952091F803F8
:100A0000260F3327331F21323105ECF42091FB03ED
:100A1000FC0180E090E0243069F082E00895A0912C
:100A2000F8032191AC0148525C4FA40FB52FB11DC2
:100A30002C930196861798F38091F803680F6093C2
:100A4000F80380E0089581E00895CF93DF930F923B
:100A5000CDB7DEB7FC016983809145048115F1F0C3
:100A600080914204803250F081E090E09383828351
:100A700080E090E00F90DF91CF9108958091430442
:100A8000E82FF0E0E45EFB4F998190838F5F8093C5
:100A900043048093420481E090E0ECCF61E0CE011A
:100AA00001960E94FE04F7CFCF92DF92EF92FF9261
:100AB0000F931F93CF93DF937C01CB018A01209189
:100AC00045042115D9F0EB016B01C40ED51ECC15E0
:100AD000DD0551F4C801DF91CF911F910F91FF9077
:100AE000EF90DF90CF9008956991D701ED91FC913F
:100AF0000190F081E02DC7010995E9CF642F0E9494
:100B0000FE04E8CF1F93CF93DF93DC0152968D91C3
:100B10009C915397009751F421E030E013963C9359
:100B20002E931297DF91CF911F9108951D96ED910D
:100B3000FC911E971C962C911C97322F30957FB7F5
:100B400054964C915497142F127041FD21C0F89483
:100B5000408143234083EC012197F1F748E0508125
:100B600060FF1BC0522B5083EC012197F1F7669573
:100B70004A95A9F78081111591F0832380837FBF67
:100B800052968D919C910197F1F781E090E0CACF48
:100B90006095F8944081422BDDCF5323E4CF822B24
:100BA000EDCF8FEF9FEF089580E090E008950895D6
:100BB0003FB7F8948091810390918203A0918303C1
:100BC000B091840326B5A89B05C02F3F19F001966C
:100BD000A11DB11D3FBFBA2FA92F982F8827BC0197
:100BE000CD01620F711D811D911D42E0660F771FBF
:100BF000881F991F4A95D1F708954F925F926F927F
:100C00007F928F929F92AF92BF92CF92DF92EF929C
:100C1000FF920F931F93CF93DF938B01D82FC92F90
:100C20000E94D805262F822E972E5C016801ED2E9A
:100C3000FC2E05C0C114D104E104F10409F10E94A5
:100C4000D8052B013C01481859086A087B08860121
:100C5000DE2DCF2D31E0C31AD108E108F108282D8F
:100C6000792DC50138EE830E33E0931EA11CB11C13
:100C700038EE431633E0530661047104D8F6D3CF3F
:100C8000DF91CF911F910F91FF90EF90DF90CF9068
:100C9000BF90AF909F908F907F906F905F904F909C
:100CA00008950F931F93CF93DF93EC01423018F018
:100CB0008C8188608C834F836887211529F04130AF
:100CC00019F48C8184608C8364E670E080E090E0AD
:100CD0000E94FD056C8164FD5CC0E881F981068499
:100CE000F785E02D42E063E0CE0109958BE496E4C0
:100CF0000197F1F7E881F9810684F785E02D42E05C
:100D000063E0CE01099503E512E0C8010197F1F710
:100D1000E881F9810684F785E02D42E063E0CE01A9
:100D20000995C8010197F1F7E881F9810684F785F3
:100D3000E02D42E062E0CE010995C8010197F1F78C
:100D40006C816062CE010E94A9048BEE90E0019755
:100D5000F1F784E08D836CE0CE010E94A90461E08C
:100D6000CE010E94A9048BE39FE10197F1F782E095
:100D70008E8366E0CE010E94A904E881F981048493
:100D8000F585E02D6FEFCE01DF91CF911F910F918F
:100D900009946062CE010E94A9048BE496E4019755
:100DA000F1F76C816062CE010E94A90403E512E0B4
:100DB000C8010197F1F76C816062CE010E94A9041D
:100DC000BCCFCF93DF9390E0FC01EE51FD4F249117
:100DD0008D539D4FFC0184918115D1F090E0880FD7
:100DE000991FFC01EB54FD4FA591B591FC01E9550C
:100DF000FD4FC591D5919FB7623069F4F8943C914D
:100E0000822F809583238C938881822B88839FBF38
:100E1000DF91CF910895F8948C91822B8C93F7CF2A
:100E200081508F30C0F5E82FF0E0EC5DFC4C0C9465
:100E30006D2E809180008F7780938000089580913F
:100E400080008F7DF9CF80918000877FF5CF84B5BA
:100E50008F7784BD089584B58F7DFBCF80919000FE
:100E60008F77809390000895809190008F7DF9CFC7
:100E700080919000877FF5CF8091C0008F7780931D
:100E8000C00008958091C0008F7DF9CF8091C2008D
:100E9000877F8093C20008951F93CF93DF93162F0F
:100EA000282F30E0F901E857FD4F8491F901EE5108
:100EB000FD4FD491F901ED53FD4FC491C115A1F03F
:100EC00081110E941007EC2FF0E0EE0FFF1FE95593
:100ED000FD4FA591B5919FB7F8948C91111108C061
:100EE000D095D823DC939FBFDF91CF911F910895B8
:100EF0008D2B8C93F8CFDF92EF92FF920F931F937D
:100F0000CF93DF938C01D62ED0E0F8018481D817DF
:100F100040F0DF91CF911F910F91FF90EF90DF9004
:100F200008957801ED0EF11CF701C68186898C13B6
:100F300002C0D114E9F19EE0C534C9F07CF4C0329E
:100F400019F024F4C11108C090E011C080ED8C0F9D
:100F500091ED9C0F8A3058F09FE009C09CE0C035AD
:100F600031F09DE0C53519F09BE0CC34A9F7F801CC
:100F7000A081B18162818381680F6D0F9295907F0E
:100F8000690FED91FC9111970190F081E02DCD0159
:100F90000995D1110AC0F8018581811531F061E010
:100FA000C03209F460E00E944C07F7018681868B0D
:100FB000DF5FABCF1092FB0381E08093FA031092C6
:100FC000F90361E082E00E944C0761E083E00E9447
:100FD0004C07E9EBF0E080818E7F808380818D7FFC
:100FE000808388E48093B80085E48093BC000895F2
:100FF000CF93DF9391E09093D2038115B9F0C09124
:10100000B800D091BA008091BC008A7B8093BC006C
:1010100060E082E00E944C0760E083E00E944C07A1
:101020000E94DA07D093BA00C093B800DF91CF9145
:101030000895CF93DF93282F30E0F901E857FD4F53
:101040008491F901EE51FD4FD491F901ED53FD4F1B
:10105000C491C11581F081110E941007EC2FF0E0BE
:10106000EE0FFF1FE658FD4FA591B591EC91ED23D2
:1010700081E0E11101C080E090E0DF91CF9108951F
:10108000FC018485958597FD0BC09FB7F89482E09D
:101090008093E9008091F2009FBF90E0019608954F
:1010A0009FB7F89482E08093E9008091F2009FBF9F
:1010B00090E0089583E08093E9008091F20081152B
:1010C00019F08AE38093E8000895CF93DF930F929D
:1010D000CDB7DEB7DC016983ED91FC910280F3812D
:1010E000E02D41E050E0BE016F5F7F4F09950F900A
:1010F000DF91CF910895FC01A48DA80FB92FB11DE8
:10110000A35ABF4F2C91848D90E001968F7399273D
:10111000848FA689B7892C93A089B1898C91827418
:101120008C93938D848D981306C00288F389E02DEB
:1011300080818F7D80830895FC01818D228D90E0D8
:10114000805C9F4F821B91098F739927089581EED0
:1011500092E00E949C089C0181E0232B09F480E02E
:10116000089580E090E0892B29F00E94A708811162
:101170000C9400000895FC01918D828D981731F038
:10118000828DE80FF11D858D90E008958FEF9FEF20
:101190000895FC01918D828D981761F0A28DAE0F9C
:1011A000BF2FB11D5D968C91928D9F5F9F73928F23
:1011B00090E008958FEF9FEF0895FC01538D448DCB
:1011C000842F90E0252F30E0821B930B541710F0F2
:1011D000CF96089501970895CF93DF93EC01888D02
:1011E00081110FC0DF91CF9108950FB607FC0DC09C
:1011F0008C9185FF0AC0808185FF07C0CE010E94C7
:101200007B08AA89BB89E889F9898C9185FDEDCF96
:10121000808186FFEACFE6CFEF92FF920F931F9374
:10122000CF93DF93EC01F62E81E0888F9B8D8C8D20
:10123000981319C0E889F989808185FF14C09FB788
:10124000F894EE89FF896083E889F9898081827446
:1012500080839FBF81E090E0DF91CF911F910F913C
:10126000FF90EF9008950B8D10E00F5F1F4F0F73ED
:101270001127E02E8C8D8E1579F0EB8DEC0FFD2F64
:10128000F11DE35AFF4FF0829FB7F8940B8FEA8964
:10129000FB8980818062DCCF0FB607FCEBCFE88949
:1012A000F989808185FFE6CFCE010E947B08E2CFDD
:1012B000CF92DF92EF92FF920F931F93CF93DF9322
:1012C0007C016A0100E010E00C151D0551F4C80115
:1012D000DF91CF911F910F91FF90EF90DF90CF9012
:1012E0000895EB01D701ED91FC910190F081E02D83
:1012F0006991C7010995892B51F30F5F1F4FBE01FB
:10130000E3CF615028F4289884E68093D9020895A9
:10131000FC018091F1008193CF01F3CF4091D7027E
:101320005091D8022091D5023091D602421753072E
:10133000BCF49091E80095709115D9F39091E80074
:1013400092FD19C08093F1008091D7029091D8024C
:1013500001968F739927892B19F48EEF8093E800FB
:101360008091D7029091D80201969093D8028093F1
:10137000D70281E0089580E00895EF92FF920F93E5
:101380001F93CF93DF93F82E192FE62E042F81E0C1
:10139000860F880F0E948E0983E00E948E09CF2D50
:1013A000D12FEC0EFD2EF11CCE15DF0511F481E0DE
:1013B0000EC0011599F0FE0184910E948E09182F2C
:1013C00080E00E948E09812321968111EDCFDF916B
:1013D000CF911F910F91FF90EF9008958881EDCFED
:1013E00080916D0281110DC082E08093690284E0DA
:1013F00080936A0210926C0210926B0281E08093DB
:101400006D0289E692E008952FB7F89483E0809307
:10141000E9009091E800892F807295FF04C09091B7
:10142000F20080E4891B2FBF08950E94040A90E017
:1014300008958F929F92AF92BF92CF92DF92EF92D8
:10144000FF920F931F93CF93DF937C018B01EA01EF
:1014500080910C01811571F180918003811551F10A
:1014600080917F0380FF05C08091E00082608093BF
:10147000E0006E01B12C8AEFA82E93E0892E2AE3BA
:10148000922E0CC00E94040A811129C0AA9491F0E6
:1014900061E070E080E090E00E94FD05C114D1049D
:1014A00089F7B110EFCF5D9884E680937E031C1618
:1014B0001D063CF081E090E0F70193838283C0E059
:1014C000D0E0CE01DF91CF911F910F91FF90EF906F
:1014D000DF90CF90BF90AF909F908F900895C816E7
:1014E000D1040CF48C2D9FB7F8948092E9002091E0
:1014F000E80025FD02C09FBFD1CF282F30E0C81AD9
:10150000D108A801815040F4020F131FB11451F00B
:101510009092E800B12CEFCFFA0141914093F10095
:10152000AF01F0CF8091E80085FDF4CF9092E80004
:10153000BB24B394C114D104F1F2ECCF9091800399
:10154000911103C08FEF9FEF08952FB7F89492E0A9
:101550009093E9009091F200492F50E0911102C060
:10156000452B31F0289884E68093D9028091F100D0
:10157000911102C02FBFE6CF9091F200911103C0EC
:101580009BE69093E8002FBF90E00895CF93DF9300
:10159000EC018C859D8597FF04C00E949E0A9D8763
:1015A0008C87DF91CF910895FC018485958597FD07
:1015B0000C949E0A2FEF3FEF3587248708958F9272
:1015C0009F92AF92BF92CF92DF92EF92FF920F93D2
:1015D0001F93CF93DF93D0914204C1E0D13208F042
:1015E0009EC0F09044040E94D8054B015C01C0915C
:1015F000FB03C1116EC082E08093FB0381E0809306
:10160000FA038FEF8093AE031092D003D093CF03F1
:101610002CE134E0AFEAB3E0F9018E2F821B8D1785
:1016200008F491C01092D1038091D103FF0CF82AE5
:10163000F092D1038091F903813009F087C01092B4
:10164000F9030E94D8056B017C018091D10380933E
:10165000BB008091D4039091D503A091D603B091A3
:10166000D703892B8A2B8B2BA1F00E94D805809061
:10167000D4039090D503A090D603B090D7036C19F3
:101680007D098E099F0986169706A806B90608F4F3
:1016900041C08091BC0083FDD8CF85EC8093BC0015
:1016A0000E94D8056B017C018091FB03823009F414
:1016B0004FC08091AE038F3F91F18091AE03C2E0A5
:1016C000803269F18091AE03C3E0803341F1C4E020
:1016D00026C08091D4039091D503A091D603B091F8
:1016E000D703892B8A2B8B2B09F481CF0E94D80535
:1016F0000091D4031091D5032091D6033091D703E4
:10170000681979098A099B090617170728073907F5
:1017100008F06DCF8091D3030E94F807C5E01092C6
:10172000430410924204109245048C2FDF91CF9114
:101730001F910F91FF90EF90DF90CF90BF90AF90EF
:101740009F908F90089581918D9367CF85EEA6CF5E
:101750008091D4039091D503A091D603B091D70383
:10176000892B8A2B8B2B09F49FCF0E94D805809060
:10177000D4039090D503A090D603B090D7036C19F2
:101780007D098E099F0986169706A806B90608F0F6
:101790008BCFC0CF93B190938B03EBE6F0E09081B9
:1017A000982B9083E8E6F0E0808181608083089543
:1017B000CF93C0910C016AE070E080E090E00E945D
:1017C000FD0581E0C11101C080E0CF910895FC01C9
:1017D000AC01425F5F4F8FEF9FEF2191922728E08E
:1017E000BC01880F991F77FF04C031E2832730E1E5
:1017F00093272A95A9F74E175F0779F708958091E7
:1018000000018C3069F4E4E0F2E0E4918FEF809322
:101810000001E330D1F040F4E11571F0E13079F0EE
:1018200060E08CE00C944C07E430D1F780917200BA
:101830008F7B80937200F4CF10926E00F1CF809175
:101840006F008D7F80936F00EBCF809171008D7F53
:1018500080937100E5CF8093DA057093D90560938A
:10186000D8055093D7054093D6053093D5052093DE
:10187000D4050E94D8026093D0057093D10580935F
:10188000D2059093D3051092CF050C94FF0B20E066
:1018900030E040E550E064EC79E081E00C942B0C02
:1018A0002091DB053091DC052115310509F458C084
:1018B0009091E105911509F44DC0905D909344011C
:1018C0009091E205911509F447C0905D9093450110
:1018D0009091E305911509F441C0905D9093460104
:1018E0009091E405905D4AE390934701409348014D
:1018F0009091E505911102C0232B11F080E3890F2F
:10190000809349018091E605805D80934A01809132
:10191000E90590E2853008F49AE390934B019091A9
:10192000E705905D90934C019091E805905D909350
:101930004D019EE290934E01805D80934F01809116
:10194000EA05805D809350018091EB05805D809376
:1019500051010895982FB2CF982FB8CF982FBECFAE
:10196000809344018093450180934601982F482F2E
:10197000BBCF40E150E060E270E08BEF95E00E9469
:10198000963140E150E060E270E08BE096E00C942C
:10199000963190E09195819591098071992740E168
:1019A00050E060E270E085509A4F0C949631CF93EE
:1019B000DF939C010696F901C481C20FD32FD11D7C
:1019C0006F71A62F660FBB0BAD5BBE4F2C173D078B
:1019D00019F4DF91CF910895EDA1EA3331F44C91E0
:1019E000FC014193CF012197F1CFEF710E2E000C36
:1019F000FF0BED5BFE4F4081F3CFCF93C82F80E20A
:101A00000E94500CC11519F08AE380934B0144E405
:101A100051E061E082E00E941804C09111056C2F32
:101A20008AE594E00E94D70C6C2F80E994E0CF9176
:101A30000C94D70C0F931F93CF93DF938C01EB0182
:101A4000FE016491611531F0C8010E94650821967C
:101A5000892BB1F7DF91CF911F910F910895FC0170
:101A600044815581608171818EE295E00C94190A60
:101A7000FF920F931F93CF93DF93F82EEB018B010F
:101A8000040F151FC017D10749F0F11469F0FE01CA
:101A900084910E948E0921968111F4CFDF91CF911C
:101AA0001F910F91FF9008958881F3CF0F931F939B
:101AB000CF93DF930F92CDB7DEB782E0898342E404
:101AC00050E068E372E080E80E94380D0E94F0095F
:101AD000DC0112960D911C910115110539F48981D3
:101AE0000F90DF91CF911F910F910895D801ED9143
:101AF000FC910280F381E02DBE016F5F7F4FC80132
:101B0000099597FDECCFF80100851185E5CFFC0123
:101B10008381811599F08181682B6083828191E0B6
:101B2000909345048093440410924304109242041D
:101B300086E494E00E9425050C94DF0A0895EF9254
:101B4000FF920F931F93CF93DF93EC01162F042F77
:101B5000F22E8B85888B10924104109240041092D3
:101B60004304109242040E94DA078CEB94E09093B5
:101B70003F0480933E048DEB94E090933D0480936A
:101B80003C048889EE24E394E09245048093440465
:101B90000E94DF0A811111C0E98A86E494E00E9464
:101BA000DB048E878989811549F01F861C8260E0DD
:101BB000CE010E960E94870D01C0198A2F2D402F4D
:101BC000612FCE01DF91CF911F910F91FF90EF9088
:101BD0000C945106FC01862F6485611599F02185CE
:101BE00032852115310521F4811107C060E005C05F
:101BF00021303105D9F78111F9CF6587CF010E96D4
:101C00000C94870D0895EF92FF921F93CF93DF936B
:101C1000EC01FC019C012C5F3F4F80E060FF02C0A3
:101C20009589892B66953196E217F307B9F741300C
:101C300009F44C899D85892B142F182B7E018EE089
:101C4000E80EF11C6A89612BC7010E94870D6A8921
:101C500060956123C701DF91CF911F91FF90EF90B5
:101C60000C94870D0F931F93CF93DF93D82FC92F19
:101C7000142F062F0F7040E0123031F062956F7014
:101C8000412F0E94030E412F602F8D2F9C2FDF913B
:101C9000CF911F910F910C94030EEF92FF920F932F
:101CA0001F93CF93DF9390E1899F80011124EB0173
:101CB000CB0140967C01C8010E94A43189930F5F3B
:101CC0001F4FCE15DF05B9F7DF91CF911F910F910F
:101CD000FF90EF900895DF92EF92FF920F931F9382
:101CE000CF93DF93CDB7DEB760970FB6F894DEBF22
:101CF0000FBECDBF082FF62EE42ED52E11E0BE016B
:101D00006F5F7F4F8FEF810F0E944D0ECE010196C6
:101D10000E94E70B2F85388982179307F9F4898190
:101D200080131CC08A818F77F81218C08CE0FE01E6
:101D30003396AE2DBD2D01900D928A95E1F781E08D
:101D400060960FB6F894DEBF0FBECDBFDF91CF9186
:101D50001F910F91FF90EF90DF9008951F5F103457
:101D600071F680E0EDCFCF92DF92FF920F931F9339
:101D7000CF93DF9390E1899F80011124EB01CB0188
:101D800040966C01F990C8010E94A431F81621F028
:101D90006F2DC8010E94AC310F5F1F4FCC15DD05C0
:101DA00089F7DF91CF911F910F91FF90DF90CF9036
:101DB000089585ED8093BC008091D4039091D50364
:101DC000A091D603B091D7030796A11DB11D23E0C2
:101DD000B695A795979587952A95D1F72091BC0040
:101DE00024FD03C01092FB0308954091D403509149
:101DF000D5036091D6037091D703452B462B472B13
:101E000069F30097A105B10541F02AE22A95F1F79F
:101E100000C00197A109B109E1CF8091D3030C94CF
:101E2000F807FB01EF2B51F0DB010D900020E9F7E3
:101E30001197AD01461B570B0C94190A08956F9228
:101E40007F928F929F92AF92BF92CF92DF92EF924A
:101E5000FF920F931F93CF93DF93CDB7DEB7A19778
:101E60000FB6F894DEBF0FBECDBF3C01142F052F77
:101E7000962E872E19A2223008F42AE05E0181E214
:101E8000A80EB11CC22ED12CE12CF12C612F702F89
:101E9000892D982DA70196010E942C2E812F902F1D
:101EA000A92DB82D122F032F942E852E6A3014F5EC
:101EB000605DF50162935F018C159D05AE05BF0560
:101EC00028F7BF01C3010E94110FA1960FB6F89425
:101ED000DEBF0FBECDBFDF91CF911F910F91FF905D
:101EE000EF90DF90CF90BF90AF909F908F907F90BA
:101EF0006F900895695CDDCF6DE172E00C94110F75
:101F0000FF920F931F93CF93DF93F82E092FD62FB5
:101F1000C72F142F0E94D80B811521F08F2D902FE1
:101F20000E942F0D0E94D80B811531F068E073E0FC
:101F30008EE295E00E941A0D111589F00E94D80BCF
:101F40008115D1F08D2F9C2F0E942F0D8EE295E0F0
:101F5000DF91CF911F910F91FF900C947C0F0E9405
:101F6000D80B811549F08D2F9C2FDF91CF911F91B8
:101F70000F91FF900C942F0DDF91CF911F910F9136
:101F8000FF900895CF93DF93D82FC92F0E94110F90
:101F90008D2F9C2FDF91CF910C947C0FCF93DF93EB
:101FA000D82FC92F0E941A0D8D2F9C2FDF91CF9112
:101FB0000C947C0F0C94110F0F931F93CF93DF930E
:101FC000CDB7DEB762970FB6F894DEBF0FBECDBFB8
:101FD0006F87788B898B9A8B042F122F1B861C8618
:101FE0001D861E86BE01615F7F4FCE010B960E944B
:101FF000150380E30E94500C111531F060E272E08D
:102000008EE295E00E94DA0F011599F0809145016A
:102010008983809146018A83809147018B838AE37B
:102020008C831D82BE016F5F7F4F8EE295E00E9420
:10203000DA0F80914901898380914A018A838AE37A
:102040008B8380914C018C8380914D018D838EE236
:102050008E8380914F018F8380915001888780917A
:10206000510189871A86BE016F5F7F4F8EE295E02E
:102070000E94DA0F111531F063E272E08EE295E012
:102080000E94DA0F62960FB6F894DEBF0FBECDBF86
:10209000DF91CF911F910F910895CF93DF93EC01C2
:1020A00088819981009711F00E9446301982188228
:1020B0001D821C821B821A82DF91CF9108950097A6
:1020C00011F00C94463008950F931F93CF93DF9334
:1020D000EC018B0188819981009729F02A813B814D
:1020E0002617370790F4B8016F5F7F4F0E94D730F3
:1020F000FC0180E0309751F0F983E8831B830A8369
:102100008C819D81892B09F4108281E0DF91CF9130
:102110001F910F910895EF92FF920F931F93CF930A
:10212000DF93EC017B01FB0101900020E9F731977F
:102130008F01061B170BB8010E946410811109C0A2
:10214000CE01DF91CF911F910F91FF90EF900C94F2
:102150004D101D830C83B70188819981DF91CF9148
:102160001F910F91FF90EF900C949D31CF92DF92D1
:10217000FF920F931F93CF93DF9300D000D000D036
:10218000CDB7DEB78C01F62E20911B0180E1289F90
:10219000B00111246F507E4F1C821B821E821D8253
:1021A0001A821982CE0101960E948B10C980DA80B2
:1021B0004F2DB801CE0101960E94800FC6010F90ED
:1021C0000F900F900F900F900F90DF91CF911F9174
:1021D0000F91FF90DF90CF900C945F10FC01448131
:1021E00050E060E270E006960C949631CF93DF9356
:1021F000C0910705D091080562E075E08EEF94E08C
:10220000209721F06DE075E089E095E00E941503CC
:1022100080E20E94500C219731F444E451E061E0E7
:1022200086E00E94180486EC94E00E94EE10C091B3
:1022300011056C2F80E994E00E94D70C6C2F8AE581
:1022400094E0DF91CF910C94D70C8F929F92AF9234
:10225000BF92CF92DF92EF92FF920F931F93CF9393
:10226000DF936B017C01A7019601C701B6010E94B3
:102270001D3365E272E0811114C0C701B6010E94EE
:10228000133369E272E0892B61F42FEF3FEF4FE7E0
:102290005FE4C701B6010E940E33181694F46DE294
:1022A00072E08EE295E0DF91CF911F910F91FF9048
:1022B000EF90DF90CF90BF90AF909F908F900C9455
:1022C000110F2FEF3FEF4FE75FECC701B6010E9400
:1022D0008C2E87FDE4CF20E030E0A901C701B601D4
:1022E0000E948C2E87FF09C06DE28EE295E00E946D
:1022F0006508F7FAF094F7F8F0942EE632E143E03F
:102300005AE3C701B6010E9401326B017C010E94B1
:10231000DF328B01D82FC92F0E94912E9B01AC0177
:10232000B601C7010E9400326B017C012AE0A801BE
:102330006D2F7C2F8EE295E00E941F0F6EE28EE2E1
:1023400095E00E946508C3E020E030E040E251E4FF
:10235000B601C7010E94F22EF62E072F182FD92F93
:102360000E94DF324B01A12CB12C2AE0B501A4015F
:102370008EE295E00E941F0FC501B4010E94912ECC
:102380009B01AC016F2D702F812F9D2F0E94003279
:102390006B017C01CA95C1F6DF91CF911F910F911E
:1023A000FF90EF90DF90CF90BF90AF909F908F9075
:1023B00008953F924F925F926F927F928F929F9279
:1023C000AF92BF92CF92DF92EF92FF920F931F9343
:1023D000CF93DF9300D000D0CDB7DEB70E94D80BEB
:1023E000811509F454C16CE871E08EE295E00E9419
:1023F000CE0F20917E058FE795E09A838983FC01BB
:1024000080E0812C912C5401C12CD12C76014424E4
:102410004A94542C32018213BFC09FEF49165906CB
:1024200069067906C1F0D701C601C814D904EA04C7
:10243000FB0410F4D501C4010097A105B10559F0C2
:1024400084199509A609B709332433948F379E4E12
:10245000A643B10508F4312C00E010E080917E0520
:102460000817110508F4B0C09FEF49165906690610
:10247000790609F476C0C114D104E104F10409F429
:1024800070C081149104A104B10409F46AC0D70199
:10249000C60184199509A609B70989839A83AB8374
:1024A000BC83D501C40184199509A609B7092C017B
:1024B0003D018EE295E00E947C0F67E471E08EE2C0
:1024C00095E00E94CE0F6BE371E08EE295E00E94F2
:1024D0001A0D20E0432D69817A818B819C810E94B5
:1024E000DC0F8EE295E00E947C0F6FE271E08EE2DD
:1024F00095E00E941A0D20E0432DC301B2010E9415
:10250000DC0F8EE295E00E947C0F89819A81AB817D
:10251000BC8184159505A605B70508F095C069E14D
:1025200071E08EE295E00E94CE0F6DE071E08EE2E8
:1025300095E00E941A0DC501B4016C197D098E0940
:102540009F090E94912E20E030E04AE754E40E9467
:102550006D320E94251163E372E08EE295E00E94E5
:10256000C20F6DEB70E08EE295E00F900F900F9030
:102570000F90DF91CF911F910F91FF90EF90DF901F
:10258000CF90BF90AF909F908F907F906F905F9013
:102590004F903F900C94CE0F9481913039F440804D
:1025A0005180628073808F5F359635CF933029F4E8
:1025B000C080D180E280F380F6CF9430A1F7808094
:1025C0009180A280B380EFCFA981BA816D917D9176
:1025D0008D919C91641975098609970921E0432D15
:1025E0000E94DC0F61E372E08EE295E00E94DA0F58
:1025F000E981FA818481843009F190F48130D9F045
:1026000067E771E0833091F08EE295E00E947C0FE5
:102610000F5F1F4F89819A8105969A8389831ECF08
:10262000853079F06DE571E0863071F78EE295E0E6
:102630000E941A0DE9CF66E871E0F8CF67E671E015
:10264000F5CF63E671E0F2CF89819A81AB81BC81DD
:10265000481659066A067B0698F466EF70E08EE22B
:1026600095E00E94CE0F6AEE70E08EE295E00E9447
:102670001A0DC701B601681979098A099B0961CF4A
:1026800064ED70E08EE295E00E94CE0F6ACF0F906D
:102690000F900F900F90DF91CF911F910F91FF90AE
:1026A000EF90DF90CF90BF90AF909F908F907F90F2
:1026B0006F905F904F903F900895EF92FF920F932D
:1026C0001F93CF93DF93EC018B01CB010E94832EEC
:1026D0007C01BC01CE010E946410811109C0CE01B1
:1026E000DF91CF911F910F91FF90EF900C944D10BF
:1026F000EC82FD82B80188819981DF91CF911F9191
:102700000F91FF90EF900C947C2ECF92DF92FF926E
:102710000F931F93CF93DF9300D000D000D0CDB79D
:10272000DEB78C01F62E1C821B821E821D821A824D
:10273000198261E073E0CE0101960E945D13C980A9
:10274000DA804F2DB801CE0101960E94800FC6019C
:102750000F900F900F900F900F900F90DF91CF91EF
:102760001F910F91FF90DF90CF900C945F105F92BC
:102770006F927F928F929F92AF92BF92CF92DF9291
:10278000EF92FF920F931F93CF93DF93CDB7DEB7F6
:1027900066970FB6F894DEBF0FBECDBF782E962E8B
:1027A000542E652E812CCE0101967C01A982BA821D
:1027B000188B0F87B701882D0E944D0EA980BA8013
:1027C0000F851889C7010E94E70B670180179107E1
:1027D00089F57A102FC08B2D8F7798122BC09B1004
:1027E0009AC08CE0E52DF62DDE01139601900D9236
:1027F0008A95E1F7C7010E94E70B988B8F87B70195
:10280000882D0E94B30E81E066960FB6F894DEBF65
:102810000FBECDBFDF91CF911F910F91FF90EF9031
:10282000DF90CF90BF90AF909F908F907F906F90F0
:102830005F900895839490E48912B8CFE12CA98227
:10284000BA82188B0F87B6018E2D0E944D0EA9807B
:10285000BA800F851889C6010E94E70B801791077F
:10286000F9F4E39420E4E212EACFF12CA982BA82CF
:10287000188B0F87B6018F2D0E944D0EA980BA804C
:102880000F851889C6010E94E70B8017910711F484
:10289000A7FC20C0F39480E4F812E8CFEE24EA9479
:1028A000FF24FA948CE0E52DF62DDE0113960190BD
:1028B0000D928A95E1F779829A82188B0F87C6016B
:1028C0000E94E70B2FEFE21641F08F87988BB6013D
:1028D0008E2D97CFEE24EA94E5CF2FEFF21629F054
:1028E0008F87988BB6018F2D8CCF1C8A1B8A1E8AEE
:1028F0001D8A1A8A198A6DEF74E0CE0141960E94F2
:102900005D1309891A8961E0CE0141960E94851301
:10291000C8010E945F1080E077CF0F931F93CF9381
:10292000DF9300D000D000D0CDB7DEB7EFE7F5E001
:102930008FEF9FEFDC0180839183A283B3831482A6
:10294000359625E0EF3CF207B1F710927E051C8228
:102950001B821E821D821A8219826FEE74E0CE01E4
:1029600001960E945D1309811A8161E0CE010196F2
:102970000E948513C8010F900F900F900F900F9039
:102980000F90DF91CF911F910F910C945F108F9258
:102990009F92AF92BF92CF92DF92EF92FF920F93EE
:1029A0001F93CF93DF93CDB7DEB728970FB6F89478
:1029B000DEBF0FBECDBF8C01DB01FA012FB7F8944B
:1029C0004D915D916D917C91808191812FBFF80136
:1029D000C180D280E380F4804A015B018C189D089D
:1029E000AE08BF08278182169104A104B10408F43F
:1029F0007EC04183528363837483880F991F880F3D
:102A0000991F9683858381E0808380915801811589
:102A100009F46DC01C821B821E821D821A821982DB
:102A200069EE74E0CE0101967C010E945D13C980BD
:102A3000DA8060E0C7010E948513C6010E945F1022
:102A4000F80180858983F1E00C361F0739F4809105
:102A5000F5059091F605892B09F45CC080E28A8324
:102A600080E48B8380E28C831D820E94D80B8115C9
:102A700029F0B7018EE295E00E94DA0F0E94D80B90
:102A8000811551F0F80141815281638174812AE0FE
:102A90008EE295E00E941F0F8EE28983F801258166
:102AA0003681C90164E670E00E94182E605D6A8379
:102AB000EAE0F0E0C901BF010E94182E282FCB01E7
:102AC000BF010E94182E805D8B83205D2C8380E2E5
:102AD0008D838DE68E8383E78F8318860E94D80BC3
:102AE000811529F0B7018EE295E00E94C20F289669
:102AF0000FB6F894DEBF0FBECDBFDF91CF911F910F
:102B00000F91FF90EF90DF90CF90BF90AF909F908C
:102B10008F9008958BE2A3CFCF92DF92EF92FF9236
:102B2000CF93DF9300D000D000D0CDB7DEB7809137
:102B3000560490915704892BF9F08AE090E00E94A6
:102B4000E4020E94D8026E5C7F4F8F4F9F4F6B0153
:102B50007C010E94D8026C157D058E059F0560F4EE
:102B60008091F5059091F6050C9731F0E0915604AF
:102B7000F09157040995EDCF10925504E09154045B
:102B8000E0931B0180E1E89FF0011124E051FE4F2A
:102B900086859785909357048093560489E090E04A
:102BA0000E94E4021C821B821E821D821A821982EC
:102BB0006DE473E0CE0101960E945D13E980FA8016
:102BC00060E0CE0101960E948513C7010E945F104C
:102BD0000E94D80B811561F060911B0120E1629F7A
:102BE000B00111246F507E4F8EE295E00E94DA0F03
:102BF0000E94D80B811591F063E473E08EE295E0BA
:102C00000F900F900F900F900F900F90DF91CF913A
:102C1000FF90EF90DF90CF900C94CE0F0F900F901D
:102C20000F900F900F900F90DF91CF91FF90EF904A
:102C3000DF90CF900895CF92DF92EF92FF920F93A3
:102C40001F93CF93DF93CDB7DEB768970FB6F89495
:102C5000DEBF0FBECDBF89E00E941908019791F435
:102C600081E08093550468960FB6F894DEBF0FBEDE
:102C7000CDBFDF91CF911F910F91FF90EF90DF902B
:102C8000CF9008951C8A1B8A1E8A1D8A188E1F8A5F
:102C90008E010D5E1F4F6FE373E0C8010E945D134C
:102CA000809175017801811581F0809153048F5FC7
:102CB000833008F080E0109275018093530480E027
:102CC0000E94C90C81E00E94C90C1091530411307C
:102CD00009F46CC0123009F4BBC0111155C08091C9
:102CE0006301811571F01092630180915404811188
:102CF00002C08091520481508093540481E00E946C
:102D0000C90C80915A01811591F010925A012091BD
:102D10005404809152048150990B2817190611F020
:102D200011E0120F1093540481E00E94C90C8091AD
:102D30005804811549F11C821B821E821D821A8251
:102D4000198269E373E0CE0101960E945D13098147
:102D50001A81AE014F5F5F4F60E080E00E942F0458
:102D6000C8010E945F10A70161E080E00E942F046B
:102D70004091540480E1489FA00111244F505E4FC0
:102D800061E084E00E9418048B899C8968960FB6E4
:102D9000F894DEBF0FBECDBFDF91CF911F910F9191
:102DA000FF90EF90DF90CF900C945F1080916301C3
:102DB000811509F445C0109263018091580191E09A
:102DC000892780935801809158048115E9F21C826B
:102DD0001B821E821D821A82198263E373E08E01B8
:102DE0000F5F1F4FC8010E945D13C980DA80A801E0
:102DF00060E080E00E942F04C6010E945F10A701DE
:102E000061E080E00E942F04809158016FE273E03E
:102E1000811102C06BE273E01C821B821E821D8244
:102E20001A821982C8010E945D13E980FA80A80104
:102E300061E084E00E942F04C7010E945F10A4CFCC
:102E400080915A01811509F4BECF10925A01B5CF75
:102E500080916301811539F11092630180911B010A
:102E60008983809158018A83AE014F5F5F4F63E091
:102E700080E00E94B7130E94470C188A1F861A8AA6
:102E8000198A1E861D8663E273E0CE010D960E94AC
:102E90005D130D851E8561E0CE010D960E948513A0
:102EA000C8010E945F1080915A018115D1F01092E3
:102EB0005A018BE090E09093F6058093F505E09140
:102EC0001B0180E1E89FF0011124E051FE4F0684D0
:102ED000F785E02D09958DE090E09093F6058093BD
:102EE000F50580915804811509F44ECF1C821B8290
:102EF0001E821D821A8219826CE173E0CE01019656
:102F00000E945D1309811A81AE014F5F5F4F60E03F
:102F100080E00E942F04C8010E945F101C821B8267
:102F20001E821D821A8219826BE073E0CE01019627
:102F30000E945D1309811A81AE014F5F5F4F61E00E
:102F400080E00E942F04C80178CFEF92FF921F9378
:102F5000CF93DF9300D000D000D0CDB7DEB7182FCD
:102F6000E0917E0585E0E89FF0011124E158FA4FD9
:102F7000408351836283738314831C821B821E826D
:102F80001D821A82198264EB70E0CE0101960E94C4
:102F90005D13E980FA8060E0CE0101960E948513FE
:102FA000C7010E945F100E94D80B811549F0412F84
:102FB00050E060E070E02AE08EE295E00E941F0F92
:102FC0000E94D80B811531F06CEA70E08EE295E03A
:102FD0000E94CE0F80917E058F5F80937E050F90BB
:102FE0000F900F900F900F900F90DF91CF911F9146
:102FF000FF90EF9008954F925F926F927F928F9221
:103000009F92AF92BF92CF92DF92EF92FF921F9367
:10301000CF93DF93CDB7DEB766970FB6F894DEBFD8
:103020000FBECDBFE091F505F091F605EC30F1054E
:1030300008F09EC1ED5CFC4C0C946D2E8CE090E091
:1030400066960FB6F894DEBF0FBECDBFDF91CF916D
:103050001F91FF90EF90DF90CF90BF90AF909F9027
:103060008F907F906F905F904F900C94E4028AE570
:1030700094E00E94EE1086EC94E00E94EE1080E94D
:1030800094E00E94EE1019821A821B821C82AE010B
:103090004F5F5F4F60E081E00E946B0E811591F100
:1030A0005B814C81298130E0ACE3B0E00E94F131DA
:1030B0002A81620F711D811D911D9B01A8EEB3E055
:1030C0000E94F1316093400170934101809342016D
:1030D00090934301252F30E00E94F1316B017C0178
:1030E000242F30E0A4E6B0E00E94F131C60ED71ED6
:1030F000E81EF91EC0923C01D0923D01E0923E01D3
:10310000F0923F0124E030E03093FD042093FC0472
:103110008FE680930605309308052093070580937A
:10312000110580E090E08CCF80917E01811599F1AE
:1031300010927E010E94B90C1C821B821E821D828D
:103140001A8219826FED74E0CE0101960E945D1320
:10315000E980FA8042E061E0CE0101960E946204BB
:10316000C7010E945F101C821B821E821D821A8270
:1031700019826EEC74E0CE0101960E945D13E98025
:10318000FA80AE014F5F5F4F61E080E00E942F0444
:10319000C7010E945F1080916C01811509F4E8C09D
:1031A00010926C0185E090E04BCF80917E018115FB
:1031B00009F485C010927E0181E08093F4050E949D
:1031C000B90C1C821B821E821D821A82198268EC35
:1031D00074E0CE0101960E945D13E980FA80CE0171
:1031E00001960E949F04C7010E945F101C821B82EF
:1031F0001E821D821A82198267EB74E0CE0101964D
:103200000E945D13E980FA80AE014F5F5F4F61E07D
:1032100080E00E942F04C7010E945F101092FE04FC
:103220001092FF0410920005109201051092020501
:1032300010920305109204051092050510920905DD
:1032400010920A0510920B0510920C0510920D05B4
:1032500010920E0510920F05109210051092FD04A9
:103260001092FC048BE680930605109208051092DC
:1032700007058093110562E075E08EEF94E00E94EF
:10328000150380E20E94500C40915E0450E066E11C
:1032900072E080E894E00E948D314091CA0450E0D1
:1032A0006CE271E08CEE94E00E948D3140919404C8
:1032B00050E06CE171E086EB94E00E948D318091EA
:1032C000F405811581F10E94D802AB01BC01809107
:1032D0003C0190913D01A0913E01B0913F01C09011
:1032E000F705D090F805E090F905F090FA058C0DFF
:1032F0009D1DAE1DBF1D84179507A607B70798F43F
:103300001092F40510910605612F8AE594E00E9461
:10331000D70C612F86EC94E00E94D70C612F80E9D6
:1033200094E00E94D70C80916C01811519F01092E5
:103330006C01F7CE80916301811529F01092630131
:1033400088E090E07DCE8AE00E941908892BC1F3C5
:1033500080915A01811519F010925A01F1CF8BE03A
:103360000E941908892B61F380917501811116C0A3
:1033700066960FB6F894DEBF0FBECDBFDF91CF913A
:103380001F91FF90EF90DF90CF90BF90AF909F90F4
:103390008F907F906F905F904F900895109275017D
:1033A0000E9406031C821B821E821D821A821982C1
:1033B00069EA74E0CE0101960E945D13E980FA800B
:1033C00061E0CE0101960E94B610C7010E945F1015
:1033D0000E948D144091760150917701609178019F
:1033E0007091790181E00E94A517809176019091FA
:1033F0007701A0917801B09179018093FE049093B8
:10340000FF04A0930005B0930105809309059093F4
:103410000A05A0930B05B0930C0521E030E0309332
:10342000FD042093FC0488E680930605309308058C
:10343000209307058093110582E090E001CE8091F2
:103440007E018115C1F010927E011C821B821E82BA
:103450001D821A8219826BE974E0CE0101960E94E6
:103460005D13E980FA8061E0CE0101960E94B610FA
:10347000C7010E945F1080916C01811158CF8AE0D2
:103480000E941908892B09F094C085E090E0909380
:10349000FD048093FC04805F9D4FFC01808180933C
:1034A00006058BE00E941908892B09F085C085E08C
:1034B00090E09093080580930705805F9D4FFC0185
:1034C0008081809311058091FC049091FD04059703
:1034D00009F075C01C821B821E821D821A8219820D
:1034E00065E974E0CE0101960E945D13E980FA80DF
:1034F000BE016F5F7F4F86EC94E00E94B002C7016F
:103500000E945F108091070590910805059709F0CA
:103510005BC01C821B821E821D821A8219826FE888
:1035200074E0CE0101960E945D13E980FA80BE012D
:103530006F5F7F4F80E994E00E94B002C7010E9454
:103540005F108091FC049091FD042091070530915B
:103550000805822B932B1C821B821E821D821A82DD
:103560001982892BB1F564E874E0CE0101960E94BE
:103570005D13E980FA8061E0CE0101960E94B610E9
:10358000C7010E945F108AE594E00E94EE108091CE
:10359000630181111092630180915A01811110928F
:1035A0005A018091750181111092750181E090E0BE
:1035B00047CD80E090E06BCF80E090E07ACF86EC62
:1035C00094E00E94EE109ECF80E994E00E94EE10FD
:1035D000B8CF6EE774E0CE0101960E945D13E980DA
:1035E000FA80BE016F5F7F4F8AE594E00E94B002CF
:1035F000C7010E945F1081E00E94C90C1C821B82DF
:103600001E821D821A8219826FE674E0CE01019635
:103610000E945D13E980FA80AE014F5F5F4F61E069
:1036200080E00E942F04C7010E945F10809107056F
:1036300090910805EFE0059721F480E580931A0644
:10364000EEE08091FC049091FD04059729F4F0E0F0
:10365000E550FA4F8CE4808B80915904811509F470
:1036600087CE24E630E040E550E060ED77E083E08F
:1036700066960FB6F894DEBF0FBECDBFDF91CF9137
:103680001F91FF90EF90DF90CF90BF90AF909F90F1
:103690008F907F906F905F904F900C942B0C809147
:1036A0007E018115D9F010927E010E94B90C1C8216
:1036B0001B821E821D821A82198269E674E0CE0185
:1036C00001960E945D13E980FA8046E065E0CE0134
:1036D00001960E946204C7010E945F108091FC0461
:1036E0009091FD04019709F073C0809163018115E9
:1036F00009F46EC01092630140916401509165011C
:103700006091660170916701409302055093030533
:10371000609304057093050582E090E09093FD04AA
:103720008093FC048BE68093060583E00E94A51736
:1037300062E075E08EEF94E00E94150380E20E9443
:10374000500C6091060586EC94E00E94D70C8AE349
:1037500080934B0144E451E060E082E00E94180451
:103760001C821B821E821D821A8219826AED73E0FE
:10377000CE0101960E945D13E980FA80AE014F5F91
:103780005F4F60E080E00E942F04C7010E945F103D
:103790001C821B821E821D821A8219826FEC73E0CA
:1037A000CE0101960E945D13E980FA8060E0CE01AF
:1037B00001960E94B610C7010E945F100E94D80BAC
:1037C000811531F064E471E08EE295E00E94C20F51
:1037D0008091070590910805019709F091C08091AB
:1037E0005A01811509F48CC010925A0140915B0175
:1037F00050915C0160915D0170915E0140930D05F7
:1038000050930E0560930F057093100582E090E0D1
:1038100090930805809307058BE68093110584E05B
:103820000E94A5176DE075E089E095E00E94150300
:1038300080E20E94500C6091110580E994E00E94A2
:10384000D70C8091FC049091FD040197C1F41C8277
:103850001B821E821D821A82198261EF73E0CE01E3
:1038600001960E945D13E980FA80AE014F5F5F4FC1
:1038700060E080E00E942F04C7010E945F108AE38D
:1038800080934B0144E451E061E082E00E9418041F
:103890001C821B821E821D821A8219826BEE73E0CB
:1038A000CE0101960E945D13E980FA80AE014F5F60
:1038B0005F4F61E080E00E942F04C7010E945F100B
:1038C0001C821B821E821D821A8219826FED73E098
:1038D000CE0101960E945D13E980FA8060E0CE017E
:1038E00001960E94B610C7010E945F100E94D80B7B
:1038F000811531F064E471E08EE295E00E94C20F20
:103900008091FC049091FD04029791F58091070548
:1039100090910805029761F580910D0590910E0533
:10392000A0910F05B091100540910205509103053B
:103930006091040570910505481759076A077B07D0
:1039400090F46DE075E089E095E00E94150380E257
:103950000E94500C609106058AE594E00E94D70C05
:1039600084E090E06DCB62E075E08EEF94E0EDCF07
:1039700010915804111509F443C00E94D8026983BC
:103980007A838B839C83BE016F5F7F4F89E095E0D4
:103990000E94150380E20E94500C809107059091CF
:1039A0000805019799F410911105612F80E994E0C1
:1039B0000E94D70C612F8AE594E00E94D70C44E462
:1039C00051E061E082E00E94180410E08091FC0464
:1039D0009091FD040197A1F4F09006056F2D86ECFF
:1039E00094E00E94D70C111559F06F2D8AE594E0F0
:1039F0000E94D70C44E451E060E082E00E94180489
:103A000080916C01811509F4B3CC10926C011C8279
:103A10001B821E821D821A8219826AE574E0CE0121
:103A200001960E945D13E980FA8061E0CE01019663
:103A30000E94B610C7010E945F1040916D01509125
:103A40006E0160916F017091700186E00E94A51770
:103A50001C821B821E821D821A8219826DE474E010
:103A6000CE0101960E945D13E980FA80CE01019695
:103A70000E949F04C7010E945F1022E030E0309353
:103A8000FD042093FC048BE6809306053093080523
:103A9000209307058093110563CF80917E018115E6
:103AA000D1F010927E011C821B821E821D821A821E
:103AB00019826EE374E0CE0101960E945D13E980E5
:103AC000FA8061E0CE0101960E94B610C7010E9403
:103AD0005F100E94D91180916C01811128CC48CCD3
:103AE00080917E01811509F485C010927E0181E0EC
:103AF0008093F4051092FE041092FF0410920005CA
:103B0000109201058091400190914101A0914201E4
:103B1000B09143018093020590930305A09304059F
:103B2000B09305051092FD041092FC048BE680937F
:103B3000060510920805109207058093110562E0B2
:103B400075E08EEF94E00E94150380E20E94500C15
:103B500010924E010E94B90C1C821B821E821D8293
:103B60001A82198266E374E0CE0101960E945D1309
:103B7000E980FA80CE0101960E949F04C7010E944D
:103B80005F1044E451E061E086E00E9418041C826A
:103B90001B821E821D821A8219826CE274E0CE01A1
:103BA00001960E945D13E980FA80AE014F5F5F4F7E
:103BB00061E080E00E942F04C7010E945F1087E04F
:103BC000EFE3F2E0DE01119601900D928A95E1F7A4
:103BD00087E0FE013196A6EBB4E001900D928A9544
:103BE000E1F787E0FE013196A0E8B4E001900D9284
:103BF0008A95E1F78091F405811509F10E94D802B8
:103C0000AB01BC0180913C0190913D01A0913E012E
:103C1000B0913F01C090F705D090F805E090F9050C
:103C2000F090FA058C0D9D1DAE1DBF1D481759075C
:103C30006A077B0720F01092F4050E94F61080912D
:103C40006301811541F110926301809140019091CF
:103C50004101A0914201B09143018133F5E79F07F3
:103C6000A105B10508F459C080539547A109B109D0
:103C70008093400190934101A0934201B09343018E
:103C800081E080937E011092F7051092F805109262
:103C9000F9051092FA0580915A01811561F110928F
:103CA0005A018091400190914101A0914201B0914F
:103CB0004301813922EB920728E0A207B10520F0E9
:103CC00080E992EBA8E0B0E0805D9A48AF4FBF4F2B
:103CD0008093400190934101A0934201B09343012E
:103CE00081E080937E011092F7051092F805109202
:103CF000F9051092FA0580917501811531F0109245
:103D0000750186E090E00E94E40280916C018115CB
:103D100009F42ECB10926C0149CC80E395E7A0E02A
:103D2000B0E0A6CF80917E01811509F45DC00E94AC
:103D3000060310927E011C821B821E821D821A8243
:103D400019826CE174E0CE0101960E945D13E98056
:103D5000FA8061E0CE0101960E94B610C7010E9470
:103D60005F100E94B90C1C821B821E821D821A8267
:103D7000198264E174E0CE0101960E945D13E9802E
:103D8000FA8046E065E0CE0101960E946204C70118
:103D90000E945F1081E090E09093080580930705F2
:103DA00088E6809311050E94D802462F572FBC0148
:103DB0004093090550930A0560930B0570930C0519
:103DC0008091020590910305A0910405B09105052D
:103DD000840F951FA61FB71F80930D0590930E05A6
:103DE000A0930F05B093100580916C018115D9F057
:103DF00010926C011C821B821E821D821A82198203
:103E000064E074E0CE0101960E945D13E980FA80BF
:103E100061E0CE0101960E94B610C7010E945F10BA
:103E20000E94470CC3CB80915804811509F4A0CAA5
:103E30000E94D802462F572FBC014093090550938A
:103E40000A0560930B0570930C0580910D05909108
:103E50000E05A0910F05B091100584179507A607D0
:103E6000B707B8F066960FB6F894DEBF0FBECDBFA9
:103E7000DF91CF911F91FF90EF90DF90CF90BF9097
:103E8000AF909F908F907F906F905F904F900C9429
:103E9000F6101C821B821E821D821A82198264EF18
:103EA00073E0CE0101960E945D13E980FA8061E023
:103EB000CE0101960E94B610C7010E945F1081E0FA
:103EC00090E00E94E40220E030E040ED57E068EC32
:103ED00070E081E0CDCBC0904001D0904101E090F6
:103EE0004201F090430160913C0170913D0180914D
:103EF0003E0190913F0128EE822E23E0922EA12CCC
:103F0000B12CA50194010E942C2E29013A016B8B42
:103F10007C8B8D8B9E8BC701B60120E63AEE40E08C
:103F200050E00E942C2E2983C701B601A5019401FF
:103F30000E942C2E6CE3862E912CA12CB12CCA0150
:103F4000B901A50194010E942C2E6A83C301B2011C
:103F5000A50194010E942C2E6B836B897C898D892D
:103F60009E8924E630E040E050E00E942C2E2C8315
:103F7000AE014F5F5F4F60E081E00E94B713811593
:103F800009F4F6C90E94470C188A1F861A8A198AF2
:103F90001E861D8666E372E0CE010D960E948B1090
:103FA000ED84FE8461E0CE010D960E94B610C7013B
:103FB00066960FB6F894DEBF0FBECDBFDF91CF91EE
:103FC0001F91FF90EF90DF90CF90BF90AF909F90A8
:103FD0008F907F906F905F904F900C945F100F9335
:103FE0001F93CF93DF9300D000D000D0CDB7DEB7C2
:103FF0008091F5059091F6058430910509F411C280
:10400000B0F48130910509F496C08230910509F42D
:1040100041C1892B09F44EC00F900F900F900F9063
:104020000F900F90DF91CF911F910F9108958930DC
:10403000910581F00A9781F78CE090E00F900F9046
:104040000F900F900F900F90DF91CF911F910F91D4
:104050000C94E4028AE594E00E94EE1086EC94E071
:104060000E94EE1080E994E00E94EE1040915E0400
:1040700050E066E172E080E894E00E948D3140916A
:10408000940450E06CE171E086EB94E00E948D3185
:1040900024E030E03093FD042093FC048FE680930D
:1040A000060530930805209307058093110580E0ED
:1040B00090E0C4CF80917E01811599F110927E012C
:1040C0000E94B90C1C821B821E821D821A821982D8
:1040D00064EC73E0CE0101960E945D1309811A81A0
:1040E00042E061E0CE0101960E946204C8010E9494
:1040F0005F101C821B821E821D821A82198263EB52
:1041000073E0CE0101960E945D1309811A81AE0110
:104110004F5F5F4F61E080E00E942F04C8010E9462
:104120005F1080916C01811509F476CF10926C01BB
:1041300081E090E083CF80917E01811509F45BC01E
:1041400010927E010E94B90C1C821B821E821D826D
:104150001A8219826CEA73E0CE0101960E945D1307
:1041600009811A81CE0101960E949F04C8010E9414
:104170005F101C821B821E821D821A8219826BE9CB
:1041800073E0CE0101960E945D1309811A81AE0190
:104190004F5F5F4F61E080E00E942F04C8010E94E2
:1041A0005F101092090510920A0510920B051092EB
:1041B0000C0510920D0510920E0510920F0510922D
:1041C000100510920805109207058BE680931105E3
:1041D0006DE075E089E095E00E94150380E20E94A1
:1041E000500C6BE68AE594E00E94D70C6BE680E900
:1041F00094E00E94D70C80916C01811519F0109207
:104200006C0155CF80917501811509F405CF10928D
:1042100075010E9406031C821B821E821D821A8267
:1042200019826BE873E0CE0101960E945D1309814B
:104230001A8161E0CE0101960E94B610C8010E9469
:104240005F100E948D14409176015091770160912A
:1042500078017091790181E00E94A5178091760123
:1042600090917701A0917801B0917901809309052F
:1042700090930A05A0930B05B0930C0581E090E0A4
:10428000909308058093070588E68093110582E0E6
:1042900090E0D4CE80917E018115D9F010927E01FC
:1042A0000E94B90C1C821B821E821D821A821982F6
:1042B00064E873E0CE0101960E945D1309811A81C2
:1042C00046E065E0CE0101960E946204C8010E94AA
:1042D0005F1080917501811509F43FC0109275013E
:1042E0004091760150917701609178017091790148
:1042F00040930D0550930E0560930F0570931005C4
:1043000085E00E94A51782E090E0909308058093D5
:1043100007058BE6809311056DE075E089E095E077
:104320000E94150381E00E94FD0C1C821B821E82EC
:104330001D821A82198265E573E0CE0101960E9402
:104340005D1309811A81CE0101960E949F04C80164
:104350000E945F1084E090E071CE80915804811536
:1043600081F00E94D80269837A838B839C83BE018B
:104370006F5F7F4F89E095E00E94150380E00E9407
:10438000FD0C80916C01811509F446CE10926C01F0
:104390001C821B821E821D821A82198265E773E0CD
:1043A000CE0101960E945D1309811A8161E0CE0160
:1043B00001960E94B610C8010E945F1040916D01E5
:1043C00050916E0160916F017091700186E00E94C2
:1043D000A5176DE671E089E095E00E94150381E084
:1043E0000E94FD0C1C821B821E821D821A82198271
:1043F0006DE673E0CE0101960E945D1309811A817A
:10440000CE0101960E949F04C8010E945F1082E0C5
:1044100090E090930805809307058BE68093110543
:1044200099CF80917E018115D1F010927E011C827E
:104430001B821E821D821A8219826EE573E0CE01F4
:1044400001960E945D1309811A8161E0CE010196F7
:104450000E94B610C8010E945F100E94D91180917D
:104460006C018111CCCED8CD1F921FB61F921124A2
:104470008F939F93AF93BF938091F0059091F10537
:10448000A091F205B091F3050196A11DB11D809395
:10449000F0059093F105A093F205B093F305809198
:1044A000EF058F5F8093EF05853228F01092EF05BE
:1044B00081E08093EE05BF91AF919F918F911F9006
:1044C0001FBE1F9018951F920F920FB60F921124C6
:1044D0002F933F934F935F936F937F938F939F930C
:1044E000AF93BF93EF93FF939091B900892F887F8B
:1044F000803509F4C0C008F042C0803309F4B6C06A
:1045000098F5883101F1D0F4883009F4A7C08031E2
:1045100009F4A4C0811509F4F0C0FF91EF91BF9197
:10452000AF919F918F917F916F915F914F913F914B
:104530002F910F900FBE0F901F901895803209F4A5
:1045400095C0883251F79091D0038091CF0398178E
:1045500078F5E091D00381E08E0F8093D003F0E0F6
:10456000E155FC4F80817CC0803409F490C08834D0
:1045700009F47EC0883389F68093AE036DC0803A1B
:1045800009F49FC0B8F5803809F489C050F5803629
:1045900011F1D8F4883509F6E091D00381E08E0F4F
:1045A0008093D0038091BB00F0E0E155FC4F808305
:1045B0008091FA0381115CC081E08093F90384EA61
:1045C0008093BC001092FB03A8CF803721F0987E27
:1045D000983609F0A2CF83E08093FB031092AD03DD
:1045E00041C0803909F45BC0987E983809F095CFB6
:1045F00085E839C0883BD9F058F5883A19F0803BF6
:1046000009F08BCF84E08093FB0310928C0310920F
:10461000F803E0913E04F0913F0409958091F8037E
:10462000811105C081E08093F8031092D803E091D6
:104630008C0381E08E0F80938C03F0E0E852FC4FF6
:1046400080818093BB0090918C038091F80323C0FC
:10465000907F903C09F061CF85ECB2CF8091D1037F
:104660008093BB0085EC8093BC0057CF8093AE0352
:104670000E94D90E52CFE091D00381E08E0F80933B
:10468000D0038091BB00F0E0E155FC4F8083909116
:10469000D0038091CF03981708F0AACFE3CF809181
:1046A000AD03803208F0A4CFE091AD0381E08E0F1E
:1046B0008093AD038091BB00F0E0E357FC4F808313
:1046C000D1CF85EC8093BC001092FB038091AD03A9
:1046D000803230F4E091AD03F0E0E357FC4F1082FC
:1046E0006091AD0370E0E0913C04F0913D048DE8F1
:1046F00093E009951092AD0310CF1092AE03B8CF9E
:104700001F920F920FB60F9211242F933F934F9346
:104710005F936F937F938F939F93AF93BF93CF9349
:10472000EF93FF9383B1C0918B0390918A03C923C8
:10473000982F9095C92380938B03C4FF05C0E09107
:104740000D01F0910E010995C5FF05C0E0910F0123
:10475000F09110010995C6FF05C0E0911101F0919B
:1047600012010995C7FF05C0E0911301F0911401F2
:104770000995C1FF05C0E0911501F0911601099559
:10478000C2FF05C0E0911701F09118010995C3FF20
:1047900005C0E0911901F0911A010995FF91EF917F
:1047A000CF91BF91AF919F918F917F916F915F91C9
:1047B0004F913F912F910F900FBE0F901F90189522
:1047C0001F921FB61F9211242F933F938F939F9395
:1047D000AF93BF938091860390918703A091880344
:1047E000B09189033091850323E0230F2D3750F5D5
:1047F0000196A11DB11D209385038093860390939C
:104800008703A0938803B0938903809181039091DB
:104810008203A0918303B09184030196A11DB11D71
:104820008093810390938203A0938303B0938403C6
:10483000BF91AF919F918F913F912F911F901FBE7C
:104840001F90189526E8230F0296A11DB11DD3CF06
:104850002F932FB72F938F939F93EF93FF93E09115
:10486000F102F091F2028081E091F702F091F802FA
:1048700082FD19C090818091FA028F5F8F73209121
:10488000FB02821741F0E091FA02F0E0EF51FD4F98
:10489000958F8093FA02FF91EF919F918F912F91C5
:1048A0002FBF2F9118958081F6CF1F920F920FB6D0
:1048B0000F9211242F933F934F935F936F937F93A6
:1048C0008F939F93AF93BF93EF93FF9381EE92E00B
:1048D0000E947B08FF91EF91BF91AF919F918F91C3
:1048E0007F916F915F914F913F912F910F900FBEEC
:1048F0000F901F9018951F921FB61F9211248F932F
:104900009F93AF93BF93EF93FF938091DD029091BC
:10491000DE02A091DF02B091E002892B8A2B8B2B63
:1049200099F19091DC02E091DA02F091DB02808152
:10493000892780838091DD029091DE02A091DF02C1
:10494000B091E002181619061A061B069CF4809115
:10495000DD029091DE02A091DF02B091E0020197AA
:10496000A109B1098093DD029093DE02A093DF02DA
:10497000B093E002FF91EF91BF91AF919F918F9122
:104980001F901FBE1F901895809171008D7F80939E
:1049900071008091DC02E091DA02F091DB029081FB
:1049A000809589238083E6CF1F920F920FB60F92D6
:1049B0001124CF92DF92EF92FF920F931F932F93C8
:1049C0003F934F935F936F937F938F939F93AF9397
:1049D000BF93EF93FF93CF93DF93CDB7DEB76C9781
:1049E000DEBFCDBF1092E9008091E80083FF30C0A8
:1049F0008E010B5E1F4F68E0C8010E94810982EFA3
:104A00008093E8008D89E02ED12E87FF12C090910F
:104A1000E80090FFFCCF982F907691112BC12F8941
:104A2000388DEE89EA3088F4F0E0E15CFC4C0C94BF
:104A30006D2E9EEF9093E800EECF803841F5809187
:104A4000D4028093F1001092F1008EEF8093E80081
:104A50006C960FB6F894DEBF0FBECDBFDF91CF913D
:104A6000FF91EF91BF91AF919F918F917F916F9146
:104A70005F914F913F912F911F910F91FF90EF9078
:104A8000DF90CF900F900FBE0F901F90189510924F
:104A9000F100D9CF8111D9CF21303105B1F6809104
:104AA000D4028D7F8093D402D0CF8111CECF21301C
:104AB000310559F68091D4028260F4CF8091E800EC
:104AC00080FFFCCF8F8980688093E300BECFF88C95
:104AD0000B8D1C8D22E01092E9001092D8021092EA
:104AE000D702F2122EC01092D6021092D5020E9466
:104AF000560D1F8299E09983FA8291E09E8390EA95
:104B000098879AEF99872091D7023091D802275F32
:104B10003F4F3C832B838D831092E9001092D80283
:104B20001092D7021093D6020093D50249E050E0CC
:104B3000BE016F5F7F4F80E00E94380D0E94560DCE
:104B400084CF1093D6020093D5020E94F009DC01B5
:104B500012960D911C910115110531F4F1E0FF122F
:104B600014C065E072E05AC0D801ED91FC91048058
:104B7000F581E02D6E2D7D2DC8010995009709F076
:104B800037C1F80100851185E6CFF3E0FF120EC0B2
:104B90008F89811509F440C0823061F440E860E1FA
:104BA00087E292E00E94BD0981114FCF81E280939C
:104BB000EB004ECF813029F440E86BE08BE192E0CE
:104BC000F1CF833099F70E94F009DC011296ED9045
:104BD000FC908E010F5F1F4F6801E114F10469F42E
:104BE000D8011C92F60101900020E9F73197BF012E
:104BF0006C197D0940E0C601D5CFD701ED91FC913C
:104C00000680F781E02DB801C7010995080F111D35
:104C1000F701E084F184E1CF67E172E0FB014491A8
:104C200050E080E80E94380D10CF81E08093F100C1
:104C30000CCF83708111BACFEAEEF1E081E021E080
:104C400036E39191911569F08093E9002093EB0090
:104C5000DF019E919093EC003093ED008F5F8730E1
:104C600081F78EE78093EA001092EA008F898093A3
:104C70008003EBCE8B8D9C8D1092E9001092D802B0
:104C80001092D7029093D6028093D502898D81111C
:104C900095C08E899D89913A49F4813209F086CF79
:104CA00047E050E065E071E080E0BCCF913209F070
:104CB0007DCF833269F48F89988DA0E0B0E0809336
:104CC000010190930201A0930301B0930401BDCEB2
:104CD000803269F48091E80082FFFCCF67E085E0D4
:104CE00091E00E9481098BEF8093E800AECE823282
:104CF00009F0ABCE8F8980930C01EEEFFFE7859131
:104D000095918B3F9C4D51F1E0E0F8E080910501D9
:104D100090910601A0910701B0910801803B944059
:104D2000A105B105F1F480910C0180FD1AC0EE3FA0
:104D30008AE0F80791F587E797E791838083809170
:104D400060008093D30288E19BE00FB6F894A895A9
:104D5000809360000FBE9093600077CEEEEFFAE094
:104D6000D5CF808191818737974709F06ECEA8957E
:104D7000809160008861809360008091D30280936D
:104D80006000EE3FFA40A9F08091FE0A9091FF0A80
:104D9000909301088093000858CE8091000890916C
:104DA00001088737980739F29093FF0A8093FE0A2B
:104DB000C2CF1092FF0A1092FE0A47CE0E94F0095D
:104DC000DC0112960D911C910115110509F4EECE2E
:104DD000D801ED91FC910190F081E02D6E2D7D2D9B
:104DE000C8010995811131CEF80100851185ECCFFC
:104DF0000CF02BCEDBCE1F921FB61F9211248F9387
:104E00009F938091E1009091E100937F9093E10066
:104E100083FF0FC01092E90091E09093EB00109295
:104E2000EC0092E39093ED001092800398E0909351
:104E3000F00082FF22C093E09093E9009091F2008D
:104E4000911519F09AE39093E80090917E039115E3
:104E500041F090917E03915090937E03911101C097
:104E60005D9A9091D902911541F09091D90291509B
:104E70009093D902911101C0289A84FF17C08091A4
:104E8000E2008E7E81608093E2008091E1008F7E5F
:104E90008093E10080917F038E7E806180937F0309
:104EA0009F918F911F901FBE1F90189580FFF8CF84
:104EB0008091E2008E7E80618093E2008091E1002B
:104EC0008E7E8093E10080917F038E7E8160E6CFAD
:104ED000CDB7DEB7A2970FB6F894DEBF0FBECDBF39
:104EE000789484B5826084BD84B5816084BD85B5C5
:104EF000826085BD85B5816085BD80916E008160D1
:104F000080936E0010928100809181008260809376
:104F10008100809181008160809381008091800078
:104F200081608093800080919100826080939100E5
:104F300080919100816080939100809190008160C8
:104F4000809390008091C10084608093C100809123
:104F5000C10082608093C1008091C1008160809314
:104F6000C1008091C30081608093C3008091C00024
:104F700082608093C0008091C20081608093C200F3
:104F800080917A00846080937A0080917A008260B8
:104F900080937A0080917A00816080937A0080917A
:104FA0007A00806880937A00109280031092D40275
:104FB00010927F038091D70081608093D70080EAB0
:104FC0008093D80089B5806189BD89B5826089BD2B
:104FD00089B5082F017080FFFBCF61E070E080E0B1
:104FE00090E00E94FD058091D8008F7C80618093C5
:104FF000D8008091E000807F8093E0008091E10004
:105000008E7E8093E1008DE08093E200559A209A95
:10501000F8941092800010928100109285001092F6
:10502000840080918100886080938100809181005C
:1050300083608093810089EF90E090938900809352
:10504000880080916F00826080936F0078948FEF6A
:105050009FEF90933B0580933A050E94D80B8115F2
:1050600009F484C21C821B821E821D821A8219824C
:105070006DEF71E0CE0101960E945D13E980FA8028
:1050800060E0CE0101960E948513C7010E945F1067
:105090000E94D80B811531F067E472E08EE295E052
:1050A0000E94DA0F0E94D80B811531F06FE472E094
:1050B0008EE295E00E94C20F1092410410924004CB
:1050C00010924304109242040E94DA078CEB94E0A1
:1050D00090933F0480933E048DEB94E090933D04C5
:1050E00080933C0420E042E060E18AE892E00E9484
:1050F0009F0D60918F026D7F60938F0268608AE8D8
:1051000092E00E94A9046FEF8AE892E00E94EA0D03
:1051100093EAE92E91E0F92E18E023E7A22EB12CB4
:105120006E0139E0C30ED11C3BE9832E912C48E07F
:1051300050E0B701CE0101960E94732E612F60648A
:105140008AE892E00E94A904C5010197F1F7AE0137
:105150004F5F5F4F3A01D3016D913D018AE892E0C4
:105160000E94B104C4010197F1F7C614D70499F75E
:10517000B8E0EB0EF11C185F1034C9F661E082E173
:105180000E94E10661E08CE00E94E10662E088E0B6
:105190000E94E10662E089E00E94E10662E08AE0A6
:1051A0000E94E10662E08BE00E94E10621EE32E01F
:1051B000E091F102F091F20282E08083E091ED0251
:1051C000F091EE021082E091EF02F091F00287E69A
:1051D00080831092F902E091F502F091F60286E0E8
:1051E0008083E091F302F091F402808180618083FA
:1051F000E091F302F091F402808188608083E09175
:10520000F302F091F402808180688083E091F302E0
:10521000F091F40280818F7D80838DEC90E09093FB
:1052200088028093870294E3ECE5F4E0DF01492FE4
:105230001D924A95E9F745E752E050935B0440938D
:105240005A0487E080935E0442E140935F04E8ECF7
:10525000F4E0DF011D929A95E9F73093C70420939B
:10526000C6048093CA04E3E9F4E093E3DF011D92EE
:105270009A95E9F7309391042093900498E09093E5
:10528000920480939404AE01435F5F4F60E080E03E
:105290000E946B0E811509F463C01C821B821E8262
:1052A0001D821A82198263EF71E0CE0101960E947D
:1052B0005D13E980FA8061E0CE0101960E948513BA
:1052C000C7010E945F101D851093CA048E858093CC
:1052D000C8048F858093C904888980939404898940
:1052E000809392048A8980939304AE014F5F5F4F4D
:1052F00061E080E00E946B0E811509F440C1412FEE
:1053000050E0BE016F5F7F4F8CE291E00E948D31D3
:105310000E94D80B811531F06CE271E08EE295E0CD
:105320000E94C20FAE014F5F5F4F62E080E00E94BB
:105330006B0E811509F43AC14091CA0450E0BE01D8
:105340006F5F7F4F8CE191E00E948D310E94D80BFE
:10535000811531F06CE171E08EE295E00E94C20FA0
:1053600082E080935204AE014F5F5F4F63E080E0C4
:105370000E946B0E811551F089818093540481E065
:105380009A81911101C080E080935801809154046A
:10539000823010F0109254040E948C1588EA93E039
:1053A00090930E0180930D0110918A0380E10E9479
:1053B000CA0B84EC93E09093100180930F0180E27C
:1053C0000E94CA0B80EE93E090931201809311012A
:1053D00080E40E94CA0B8CEF93E0909314018093B9
:1053E0001301106F10938A0380E80E94CA0BB091DA
:1053F0008501BF8FE0918601E8A3F0918701F9A3B1
:10540000209188012AA37090890160908A015090B0
:105410008B0140908C011092580410925904809195
:10542000EE058115D9F01092EE0531E03093580465
:105430009091ED059F5F9093ED058091590198172C
:1054400068F09091EC059093590493279093EC05A4
:105450001092ED054BE1481B4093590180912705BF
:10546000811551F01092270548E255E06AE275E097
:1054700085E791E00E94C71480912005811551F0C5
:105480001092200541E255E063E275E08CE691E080
:105490000E94C71480911905811551F010921905C9
:1054A0004AE155E06CE175E083E691E00E94C714A3
:1054B00080911205811551F01092120543E155E0DB
:1054C00065E175E08AE591E00E94C71480916C0166
:1054D0008115C9F18091F5059091F605892B99F513
:1054E00064EB70E080E090E00E94FD050E94D8022D
:1054F000C0906D01D0906E01E0906F01F09070014E
:1055000058EEC50E53E0D51EE11CF11C6C157D054F
:105510008E059F0508F461C089E00E941908892B57
:1055200091F40E94B90C1092530480911B01809356
:1055300054048BE196E190935704809356048DE0D8
:1055400090E00E94E4028091550481110E948C1524
:10555000E0915604F0915704099580915804811503
:1055600009F4B5C0C12CD12C312C85C00E94D802C1
:10557000603D77408105910508F46FCD73CD1C8E99
:105580001B8E1E8E1D8E1A8E198E67EE71E0CE0157
:1055900049960E945D13E98CFA8C61E0CE01499630
:1055A0000E948513C7010E945F10BCCE1C8E1B8E0B
:1055B0001E8E1D8E1A8E198E6BED71E0CE014996EE
:1055C0000E945D13E98CFA8C61E0CE0149960E943D
:1055D0008513C7010E945F10C3CE89E00E9419089D
:1055E000892B09F483CF98CFF701E550FA4F20803B
:1055F000C7018D559D4F4C01DC018C91281671F12E
:10560000BF8DBD87E8A1EE87F9A1FF872AA1288B6E
:1056100079826A825B824C82209191028FEF820FA5
:10562000321608F4832D90E030919202303131F53A
:10563000243021F5AE014F5F5F4F840F951FDC01D1
:105640006C91610F60688AE892E00E94A904622D63
:105650008AE892E00E94B104F40120821F5FFFEF0C
:10566000EF1AFF0A103109F0BFCF20E1C20ED11CA2
:10567000311009C0302E760110E0B6CFFE013D9604
:105680008E0F9F1FDCCF60E08AE594E00E947B07CD
:105690006091590461116091C30286EC94E00E940C
:1056A0007B0760915904611521F06091C30281E08C
:1056B000682780E994E00E947B0780915904811556
:1056C00031F08091C30291E089278093C302109149
:1056D000DA05111509F444C00E94D8024B015C019F
:1056E0008091D0059091D105A091D205B091D305BC
:1056F000A5019401281B390B4A0B5B0BDA01C90188
:105700002091CF052111A7C12091D4053091D50555
:1057100082179307A105B10518F1E4E0F2E0E090EB
:10572000D805F090D905809100018C3029F4E491DE
:105730001E2F17FD0AC083C08F3F39F48CE0809381
:105740000001E4911E2FEF3FC1F481E08093CF056B
:105750008092D0059092D105A092D205B092D30547
:1057600020E030E0232B09F456CE0E94A7088115D3
:1057700009F451CE0E9400004ECEE33009F4B7C0C8
:1057800030F5E11509F444C012E0E13009F057C0EA
:105790001092800010928100809181008860809337
:1057A000810080918100816080938100EFECF2E0C4
:1057B000E491F0E0EE0FFF1FE955FD4F85919591C3
:1057C000EEEEF2E0E491E093C50211E038C0E4307F
:1057D00009F0AFCF1092C0001092C1008091C100BB
:1057E00088608093C1008091C10081608093C10076
:1057F000EFECF2E0E491F0E0EE0FFF1FE955FD4F12
:1058000085919591EEEEF2E0E491E093C40217C029
:1058100014BC15BC84B5826084BD85B5816085BD2E
:10582000EFECF2E0E491F0E0EE0FFF1FE955FD4FE1
:1058300085919591EEEEF2E0E491E093C60261E08D
:105840008CE00E94E106970140E050E060E074E2E5
:1058500084EF90E00E944E2E69017A01F594E7945E
:10586000D794C79461E0C61AD108E108F108D701BE
:10587000C601612F6D7F611183C0C114E1E0DE06B6
:10588000E104F1040CF478C0DA01C90164E0B595D3
:10589000A795979587956A95D1F70197A109B109C1
:1058A000123009F007C181159140A105B1050CF432
:1058B0004CCF203460E436074105510508F445CF4C
:1058C000DA01C901F7E0B595A79597958795FA95FF
:1058D000D1F70197A109B109111137CF8115E1E085
:1058E0009E07A105B1050CF0D0C023E02FC0109297
:1058F00090001092910080919100886080939100B7
:1059000080919100816080939100EFECF2E0E4914E
:10591000F0E0EE0FFF1FE955FD4F859195919093B3
:10592000DB028093DA02EEEEF2E0E491E093DC0237
:1059300086CFDA01C901EBE0B595A79597958795D4
:10594000EA95D1F70197A109B10925E035B5387F6E
:10595000232B25BD87BD8FEF9FEFDC018093CF0206
:105960009093D002A093D102B093D20280916E00A6
:10597000826080936E00E9CE1111E7CE202FE6CF32
:10598000C114D104E1E0EE06F10454F1DA01C901D9
:1059900077E0B595A795979587957A95D1F7019773
:1059A000A109B10933E01130E9F420918100287F89
:1059B000232B2093810090938900809388008FEFA0
:1059C0009FEFDC018093CB029093CC02A093CD0299
:1059D000B093CE0280916F00826080936F00B5CE4D
:1059E000302FE1CF1330D9F420919100287F232B61
:1059F0002093910090939900809398008FEF9FEFF0
:105A0000DC018093DD029093DE02A093DF02B0936D
:105A1000E0028091710082608093710096CE143014
:105A200009F093CE2091C100287F232B2093C10041
:105A30008093CF008FEF9FEFDC018093C70290939C
:105A4000C802A093C902B093CA0280917200806418
:105A5000809372007ACE2091D6053091D7058217B7
:105A60009307A105B10508F47BCE0E94FF0B1092AD
:105A7000CF058092D0059092D105A092D205B09228
:105A8000D30511501093DA056BCEDA01C90169E034
:105A9000B595A795979587956A95D1F70197A1092F
:105AA000B109811561E09607A105B1050CF041CF60
:105AB00024E04CCF8115F1E09F07A105B1050CF062
:105AC000FFCE22E043CFCF92DF92EF92FF92CF93AF
:105AD000DF93E1EEF2E01382128288EEC82E83E0BB
