:100000000C946D050C9495050C9495050C94950530
:100010000C94C0330C9495050C9495050C9495059F
:100020000C9495050C9407350C9495050C94950546
:100030000C9495050C9455320C9495050C949505EB
:100040000C9495050C9495050C9427340C94950507
:100050000C946F340C9495340C9495050C94950580
:100060000C9495050C9495050C9499320C94950577
:100070000C94BB340C94E1340C9495056364696E64
:100080006F70737578585B0020756C6F7A656E00C1
:100090004C6F672074797023004E61706C6E656ED2
:1000A0006F206D6178207A617A6E616D752E204EB9
:1000B00045554C4F5A454E4F003D3D3D204B6F6ED0
:1000C0006563207A617A6E616D75203D3D3D0A0061
:1000D0004361733A20202020202020004461747561
:1000E0006D3A2020202020002D2D2D2D2D2D2D2D61
:1000F0002D2D2D2D2D2D2D2D2D2D2D2D2D005679E8
:10010000736C6564656B3A20204E45524F5A484FD8
:10011000444E4500526F7A64696C3A2020202000DA
:10012000566974657A3A2020202020505241564169
:1001300020445241484100526F7A64696C3A202051
:10014000202000566974657A3A20202020204C45F2
:1001500056412044524148410050726176792063F3
:1001600061733A20004C657679206361733A2020F0
:10017000002D2D2D20536F7568726E207A61766F79
:100180006475202D2D2D0052455345540043494C94
:100190000043494C2050524156412044524148416D
:1001A0000043494C204C45564120445241484100AF
:1001B0004D455A49434153005354415254000A3D5E
:1001C0003D3D205A617A6E616D207A61766F64756B
:1001D000203D3D3D001209120912091200091209C1
:1001E00012091209000000120912000000000009A3
:1001F000120900000000001E0F1E00000000000F8A
:100200001E0F000000181C1E1F1E1C1800436879DA
:100210006261206B6F6E66696775726163652064E9
:100220006973706C656A6520320043687962612089
:100230006B6F6E6669677572616365206469737060
:100240006C656A652031004B6F6E66696775726117
:10025000636520646973706C656A750053746172BC
:10026000742000533E4D6F7A6E6F737469204C2F6B
:10027000503E566F6C626100020000200023002691
:10028000002900000000020300000000000000053B
:100290000409080000000000000000000000000049
:1002A00000000000002200250028002B0000002193
:1002B00000240027002A00020202020202020204B5
:1002C00004040404040404030303030303030301F9
:1002D0000101010101010101020408102040800117
:1002E0000204081020408001020408102040800110
:1002F0000204081020408053797374656D003E201D
:10030000004C3E53797374656D20503E4D6F64759B
:100310006C00556C6F7A6974206E617374617665D8
:100320006E6900556C6F7A656E6F00567970005A71
:100330006170005A6F6272617A2063617320707518
:100340006C7A7500507265706E757469206D6F649B
:10035000756C75002D2D3E002720616B7469766EDB
:1003600069004D6F64756C202700202068656C70F3
:10037000202020202020202020202020202020207D
:1003800020202020202D207461746F206E61706FFA
:1003900076656461002020696E666F202020202031
:1003A000202020202020202020202020202020204D
:1003B0002D207A6F6272617A69207564616A6520A6
:1003C0006F2068617264776172652F6669726D77FC
:1003D00061726500202070657266203C317C303E81
:1003E0002020202020202020202020202020202D00
:1003F000207A61702F767970207A6F6272617A6FDD
:1004000076616E6920727963686C6F7374692070AD
:10041000726F6772616D7500202064656C203C6DA1
:100420003E203C6B3E202020202020202020202029
:100430002020202D20736D617A65207A617A6E61AB
:100440006D203C6D6F64756C3E203C6B6C69633E47
:10045000002020736574203C6D3E203C6B3E20489C
:10046000205B2C482C482E2E2E5D20202D206E61E6
:1004700073746176692070726F203C6D6F64756C67
:100480003E203C6B6C69633E20617A2031322068EB
:100490006F646E6F7420302D323535002020736507
:1004A00074203C6D3E203C6B3E20227465787422A3
:1004B000202020202020202D206E61737461766919
:1004C0002070726F203C6D6F64756C3E203C6B6CCD
:1004D00069633E20617A203132207A6E616B75004B
:1004E00020206C697374205B6D5D205B6B5D202048
:1004F00020202020202020202020202D20767970F0
:10050000697365207A617A6E616D792028767365EA
:10051000207C206A6564656E206D6F64756C207C3C
:10052000206A656E206D6F64756C2B6B6C6963005F
:100530000A5072696B617A793A00202020204C6F52
:1005400067207A617A6E616D753A20002020202044
:10055000506F636574206D6F64756C753A20002967
:100560000031363A31303A3339004175672032353F
:100570002032303235002028002B7635302D3230B5
:1005800058342D3078323700524D5320302E3300FE
:1005900046573A200053616B756C2053746F706B33
:1005A000792076352E300048573A2000205A616471
:1005B000656A202768656C70272E00436879626140
:1005C0002E004E657A6E616D79207072696B617A6A
:1005D0002E004E656E616C657A656E6F2E20005A36
:1005E000617A6E616D20736D617A616E2E00436871
:1005F0007962612E2028486F646E6F747920707262
:10060000657320746578743F290043687962612EB0
:10061000202854657874207072657320686F646E4A
:100620006F74793F29004F4B2E20546578742075E4
:100630006C6F7A656E2E00436879626E79207673EE
:100640007475702E004E616C657A656E6F3A20008D
:100650002D2D2D2D2D2D2D2D2D2D2D2D2D2D2D00F7
:10066000202000002000202000002000202000008A
:1006700020002D2D2D2D2D2D2D2D2D2D2D2D2D2DE4
:100680002D004D6F64756C204B6C69632044617460
:1006900061005072696A61746F2027002D2D353515
:1006A0002D2D20005465726D696E616C3A202768AB
:1006B000656C70270053657269616C203131353289
:1006C00030302F382F31626974004E617374617657
:1006D000656E69004A6520746F20616C65206A65EB
:1006E0006E2064656D6F206120646F2070616D65A0
:1006F0007469206E657A61706973756A652E00444D
:10070000656D6F20646F7374616C6F20706F6B79AF
:100710006E20756C6F7A697420737665206E6173D4
:10072000746176656E692E0053746F706B79005535
:100730007074696D650044656D6F005B202020203A
:10074000202032377833376D733D3939396D732056
:1007500020202020205D2020202043617320707203
:100760006920277C27002D2D3E207465726D696EEF
:10077000616C0044656D6F0044656D6F206B6F6E3A
:10078000636900446C6F757A6520526573657420E7
:100790003E204D656E75005265736574203E204E97
:1007A0006173746176656E6900533E506F73756E48
:1007B000204C503E2D2B20523E5A706574004461EF
:1007C00074756D20262063617300484F44494E596B
:1007D000005A61646F7374206F20767970697300BA
:1007E0005A727573656E6F004D6572656E69207A19
:1007F000727573656E6F004D657A69636173004C45
:100800002F503E556B6F6E63692020523E5A7275B1
:100810007369740053746F706B790053746F706BED
:1008200079207370757374656E79005265736574A1
:10083000203E205A7061746B790053746172742089
:100840003E205A6168616A69207A61766F6400535C
:10085000544F504B5900446C6F757A652052657344
:100860006574203E204D656E750052657365742079
:100870003E2046756E6B63650053544F504B5920B4
:10088000532D4C5000556B6F6E63656E6F00556B4A
:100890006F6E63656E6F005A61646F7374206F20B2
:1008A0007679706973005A727573656E6F004D6565
:1008B00072656E69207A727573656E6F004D657A28
:1008C0006963617300533E556B6F6E63692020202E
:1008D00020523E5A72757369740053746F706B794D
:1008E0000053746F706B79207370757374656E79D3
:1008F000005265736574203E205A7061746B7900F4
:100900005374617274203E205A6168616A69207A6A
:1009100061766F640053544F504B5900446C6F75AF
:100920007A65205265736574203E204D656E7500B2
:100930005265736574203E2046756E6B6365005387
:10094000544F504B5920532D53004C657661206411
:1009500072616861004C6576610050726176612059
:100960006472616861005072617661005A61766FED
:100970006420736B6F6E63696C004F64706F6365A6
:100980007420736B6F6E63696C005A727573656E59
:1009900069206F64706F637475004F64706F636576
:1009A00074005A6168616A656E206F64706F636578
:1009B000740052657365743E204D6572656E6920E2
:1009C0007A61766F64750053746172743E205A6167
:1009D00068616A6974004F44504F434554005A613E
:1009E000646F7374206F207679706973005A617632
:1009F0006F64207A727573656E004D6572656E69FD
:100A0000207A727573656E6F004D657A69636173E4
:100A1000005A61766F640043485942412053454E65
:100A20005A4F52553A00202D452D20004B6F6E63D2
:100A3000616B79204F4B00202D452D2000202D4546
:100A40002D20004348594241206B6F6E63616B75E6
:100A5000005A61766F64207A6168616A656E00523F
:100A600065736574203E205A7061746B790053740D
:100A7000617274203E205A6168616A69207A6176E9
:100A80006F64005A41564F4400446C6F757A65207C
:100A90005265736574203E204D656E750052657316
:100AA0006574203E2046756E6B63650053544F504D
:100AB0004B592048550050756C7A20004C6F6720C8
:100AC00070726970726176656E00454550524F4D87
:100AD00020706C6E61210000E63B11241FBECFEF39
:100AE000D0E1DEBFCDBF13E0A0E0B1E0ECEDFAE86D
:100AF00002C005900D92A633B107D9F727E0A6E30F
:100B0000B3E001C01D92AD37B207E1F715E0CDE6C5
:100B1000D5E004C02197FE010E94063DCC36D107E6
:100B2000C9F70E9463350C9459450C940000CF938B
:100B3000DF93FC01DB015481369614968C91149757
:100B40008150990B40E0541303C0DF91CF91089579
:100B500014962D913C9115978217930770F42D915F
:100B60003C9111972115310541F0280F391FE901FA
:100B7000288121934F5F0197E6CF20E0FACF2FB76E
:100B8000F89460911E0770911F0780912007909143
:100B900021072FBF0895CF93DF93D82FC92F0E942D
:100BA000BF056093250770932607809327079093CE
:100BB0002807D0932307C093240781E08093840102
:100BC0001092220710927B0110927201109269011B
:100BD0001092600110925701DF91CF9108958FB765
:100BE000F89410921D0710921C07109218079DE0B0
:100BF00090935601109217078FBF0895E09152010C
:100C0000A0915101F0E0A33050F1E053F84FB0E073
:100C1000A459BD4F2C9180915001280F3327331FC9
:100C20002E0F3F1FCF019695879596958795280F94
:100C3000391FCF0160E971E00E94B13C260F371FD8
:100C4000CF0164E670E00E94B13CC901861B970B9E
:100C500067E070E00E94B13C80934F010895E1533A
:100C6000F84FD5CF4F925F926F927F92AF92BF9223
:100C7000CF92DF92EF92FF920F931F93CF93DF9368
:100C8000FB01C080D180E280F380FC0180819181F2
:100C9000A281B381C81AD90AEA0AFB0AC701B601C0
:100CA00028EE33E040E050E00E94C53C8B01C6E0F6
:100CB000D7E07D836C838CE3482E512C612C712C02
:100CC000CA01B901A30192010E94C53CB62E6B83F3
:100CD000CA01B901A30192010E94C53CA62E6A83F4
:100CE000C701B60120E83EEE46E350E00E94C53C55
:100CF000F90139832883C90168EE73E00E94B13C91
:100D00006E8394E6E92EF12CCF01B7010E94B13C2D
:100D1000CB012AE030E0B9010E94B13C8F83CF01C2
:100D2000B9010E94B13C482FCB01B9010E94B13CEE
:100D3000888749874AE08A2D642F0E94A53C8A87CC
:100D40009B878B2D0E94A53C8C879D87C801B7018E
:100D50000E94B13C6E87C801B9010E94B13C482F86
:100D6000CB01B9010E94B13C8F87488BDF91CF91B5
:100D70001F910F91FF90EF90DF90CF90BF90AF90B9
:100D80007F906F905F904F90089580911E07909193
:100D90001F07A0912007B091210780930806909328
:100DA0000906A0930A06B0930B06809184009091E7
:100DB0008500909307068093060681E080930506E0
:100DC000089580911E0790911F07A0912007B09170
:100DD00021078093010690930206A0930306B09327
:100DE0000406809184009091850090930006809382
:100DF000FF0581E08093FE05089580911E07909184
:100E00001F07A0912007B09121078093FA059093C6
:100E1000FB05A093FC05B093FD05809184009091A3
:100E200085009093F9058093F80581E08093F7059C
:100E3000089580911E0790911F07A0912007B091FF
:100E400021078093F3059093F405A093F505B093E3
:100E5000F60580918400909185009093F20580932F
:100E6000F10581E08093F005089580911E0790912F
:100E70001F07A0912007B09121078093EC05909364
:100E8000ED05A093EE05B093EF058091840090915D
:100E900085009093EB058093EA0581E08093E90556
:100EA0000895FA0190E024E1629FB001112421919C
:100EB000211519F08431910509F40895DC01A60F7C
:100EC000B71FA75DB84F2C930196F1CFCF93DF9357
:100ED000DA0114962C91149794E1981B291708F4C1
:100EE000922FE82FF0E084E1689FE00DF11D1124BE
:100EF000E75DF84F20E030E0291718F0DF91CF913F
:100F0000089514964D915C9115972417350770F448
:100F10004D915C9111974115510541F0420F531FBE
:100F2000EA01888181932F5F3F4FE6CF80E0FACFBF
:100F30000F931F93CF93DF938C01C42F062E000CC9
:100F4000770B4AE050E089E297E00E949D406C2FC9
:100F5000CC0F770B4AE050E083E397E00E949D407E
:100F6000D80114968D919C91C4E1D0E0C81BD90B97
:100F7000D695C795C43128F4A80160E08C2F0E9453
:100F80006607DD27FE01E85DF84F80E28083D80127
:100F90001496ED91FC91E75DF84FEC0FFD1F8083F7
:100FA000DF91CF911F910F91089542E061E00C9481
:100FB000980744E063E00C94980746E065E00C94E1
:100FC000980780E090E00895089508950895DC0161
:100FD000ED91FC910684F785E02D40E00994DC0159
:100FE000ED91FC910684F785E02D41E0099581E0C3
:100FF00090E00895DC0181E001C0880F6A95EAF76E
:101000001C968C931C971A965C934E931997ED91AE
:10101000FC9111970484F585E02D60E0CD010994E1
:101020008091F3049091F204891B990B089590919B
:10103000F2048091F3042FEF3FEF981748F4E92F63
:10104000F0E0EE52FB4F208130E09F5F9093F2047E
:10105000C9010895E091F2048091F304E81730F497
:10106000F0E0EE52FB4F808190E008958FEF9FEF0C
:1010700008950895089508952091D104260F3327E7
:10108000331F21323105ECF42091D004FC0180E0C3
:1010900090E0243069F082E00895A091D10421917C
:1010A000AC0140555B4FA40FB52FB11D2C93019699
:1010B000861798F38091D104680F6093D10480E083
:1010C000089581E00895CF93DF930F92CDB7DEB7F7
:1010D000FC016983809117058115F1F08091140559
:1010E000803250F081E090E09383828380E090E052
:1010F0000F90DF91CF91089580911505E82FF0E0D2
:10110000EC50FB4F998190838F5F809315058093FE
:10111000140581E090E0ECCF61E0CE0101960E94E1
:101120003C08F7CFCF92DF92EF92FF920F931F937D
:10113000CF93DF937C01CB018A0120911705211504
:10114000D9F0EB016B01C40ED51ECC15DD0551F4B1
:10115000C801DF91CF911F910F91FF90EF90DF9029
:10116000CF9008956991D701ED91FC910190F081A4
:10117000E02DC7010995E9CF642F0E943C08E8CF14
:1011800085ED8093BC008091BC0084FDFCCF109263
:10119000D00408951F93CF93DF93DC0152968D9175
:1011A0009C915397009751F421E030E013963C93C3
:1011B0002E931297DF91CF911F9108951D96ED9177
:1011C000FC911E971C962C911C97322F30957FB75F
:1011D00054964C915497142F127041FD21C0F894ED
:1011E000408143234083EC012197F1F748E050818F
:1011F00060FF1BC0522B5083EC012197F1F76695DD
:101200004A95A9F78081111591F0832380837FBFD0
:1012100052968D919C910197F1F781E090E0CACFB1
:101220006095F8944081422BDDCF5323E4CF822B8D
:10123000EDCF8FEF9FEF089580E090E0089508953F
:101240003FB7F8948091710490917204A091730457
:10125000B091740426B5A89B05C02F3F19F00196E4
:10126000A11DB11D3FBFBA2FA92F982F8827BC0100
:10127000CD01620F711D811D911D42E0660F771F28
:10128000881F991F4A95D1F708954F925F926F92E8
:101290007F928F929F92AF92BF92CF92DF92EF9206
:1012A000FF920F931F93CF93DF938B01D82FC92FFA
:1012B0000E942009262F822E972E5C016801ED2EB8
:1012C000FC2E05C0C114D104E104F10409F10E940F
:1012D00020092B013C01481859086A087B0886013F
:1012E000DE2DCF2D31E0C31AD108E108F108282DF9
:1012F000792DC50138EE830E33E0931EA11CB11C7D
:1013000038EE431633E0530661047104D8F6D3CFA8
:10131000DF91CF911F910F91FF90EF90DF90CF90D1
:10132000BF90AF909F908F907F906F905F904F9005
:1013300008959C01019741F0220F331F220F331FA4
:10134000C90105970197F1F70895CF93DF93EC0159
:10135000423018F08C8188608C834F836887211518
:1013600029F0413019F48C8184608C8364E670E04C
:1013700080E090E00E9445096C8164FD5BC0E881DB
:10138000F9810684F785E02D42E063E0CE010995FE
:1013900084E991E10E949909E881F9810684F78541
:1013A000E02D42E063E0CE01099586E990E00E94DD
:1013B0009909E881F9810684F785E02D42E063E030
:1013C000CE01099586E990E00E949909E881F981AA
:1013D0000684F785E02D42E062E0CE01099586E9BA
:1013E00090E00E9499096C816062CE010E94E7073B
:1013F0008CE390E00E94990984E08D836CE0CE013B
:101400000E94E70761E0CE010E94E70780ED97E0C8
:101410000E94990982E08E8366E0CE010E94E70770
:10142000E881F9810484F585E02D6FEFCE01DF912D
:10143000CF9109946062CE010E94E70784E991E1AF
:101440000E9499096C816062CE010E94E70786E9DB
:1014500090E00E9499096C816062CE010E94E707CA
:10146000BECFCF93DF9390E0FC01E952FD4F249172
:1014700089549D4FFC0184918115D1F090E0880F33
:10148000991FFC01E355FD4FA591B591FC01ED5568
:10149000FD4FC591D5919FB7623069F4F8943C91A6
:1014A000822F809583238C938881822B88839FBF92
:1014B000DF91CF910895F8948C91822B8C93F7CF84
:1014C000853099F038F4833011F1843041F0823066
:1014D000D1F00895883069F0893089F008958091BD
:1014E00080008F77809380000895809180008F7DA9
:1014F000F9CF8091B0008F778093B00008958091EC
:10150000B0008F7DF9CF84B58F7784BD089584B501
:101510008F7DFBCF1F93CF93DF93162F282F30E0C3
:10152000F901ED57FD4F8491F901E952FD4FD49136
:10153000F901E954FD4FC491C115A1F081110E9438
:10154000600AEC2FF0E0EE0FFF1FED55FD4FA59167
:10155000B5919FB7F8948C91111108C0D095D823FC
:10156000DC939FBFDF91CF911F9108958D2B8C93BA
:10157000F8CFDF92EF92FF920F931F93CF93DF93F9
:101580008C01D62ED0E0F8018481D81740F0DF918D
:10159000CF911F910F91FF90EF90DF900895780108
:1015A000ED0EF11CF701C68186898C1302C0D1149F
:1015B000E9F19EE0C534C9F07CF4C03219F024F49E
:1015C000C11108C090E011C080ED8C0F91ED9C0F0F
:1015D0008A3058F09FE009C09CE0C03531F09DE0B2
:1015E000C53519F09BE0CC34A9F7F801A081B18191
:1015F00062818381680F6D0F9295907F690FED91E5
:10160000FC9111970190F081E02DCD010995D11148
:101610000AC0F8018581811531F061E0C03209F41A
:1016200060E00E948A0AF7018681868BDF5FABCF7C
:1016300060E08FE00E948A0A60E082E10C948A0AEE
:10164000CF93DF93282F30E0F901ED57FD4F8491C0
:10165000F901E952FD4FD491F901E954FD4FC491CC
:10166000C11581F081110E94600AEC2FF0E0EE0FAD
:10167000FF1FE758FD4FA591B591EC91ED2381E057
:10168000E11101C080E090E0DF91CF910895FC016D
:10169000A48DA80FB92FB11DA35ABF4F2C91848DD3
:1016A00090E001968F739927848FA689B7892C9330
:1016B000A089B1898C91837080648C93938D848D83
:1016C000981306C00288F389E02D80818F7D808386
:1016D0000895FC01818D228D90E0805C9F4F821BDC
:1016E00091098F73992708958CE096E00E94690B09
:1016F0009C0181E0232B09F480E0089584ED93E0C0
:101700000E94690B9C0181E0232B09F480E008957D
:1017100080E090E0892B29F00E94740B81110E94D7
:10172000000080E090E0892B29F00E947E0B81115F
:101730000C9400000895FC01918D828D981731F072
:10174000828DE80FF11D858D90E008958FEF9FEF5A
:101750000895FC01918D828D981761F0A28DAE0FD6
:10176000BF2FB11D5D968C91928D9F5F9F73928F5D
:1017700090E008958FEF9FEF0895FC01538D448D05
:10178000842F90E0252F30E0821B930B541710F02C
:10179000CF96089501970895CF93DF93EC01888D3C
:1017A00081110FC0DF91CF9108950FB607FC0DC0D6
:1017B0008C9185FF0AC0808185FF07C0CE010E9401
:1017C000470BAA89BB89E889F9898C9185FDEDCF02
:1017D000808186FFEACFE6CFEF92FF920F931F93AF
:1017E000CF93DF93EC01F62E81E0888F9B8D8C8D5B
:1017F00098131AC0E889F989808185FF15C09FB7C1
:10180000F894EE89FF896083E889F9898081837083
:10181000806480839FBF81E090E0DF91CF911F9132
:101820000F91FF90EF9008950B8D10E00F5F1F4F09
:101830000F731127E02E8C8D8E1579F0EB8DEC0F48
:10184000FD2FF11DE35AFF4FF0829FB7F8940B8FE5
:10185000EA89FB8980818062DCCF0FB607FCEBCF81
:10186000E889F989808185FFE6CFCE010E94470B88
:10187000E2CFFC01A089B1898C91A689B78982FD4C
:101880000FC09C91818D8F5F8F73228D821749F0DD
:10189000A18DAE0FBF2FB11D5D969C93818F0895D2
:1018A0008C910895CF92DF92EF92FF920F931F9346
:1018B000CF93DF937C016A0100E010E00C151D0559
:1018C00051F4C801DF91CF911F910F91FF90EF90DC
:1018D000DF90CF900895EB01D701ED91FC9101903D
:1018E000F081E02D6991C7010995892B51F30F5FB4
:1018F0001F4FBE01E3CF9091000189130EC0E8E7AE
:10190000F2E0E4919FEF90930001E13049F0E23082
:1019100069F0E11102C010926E0060E00C948A0A36
:1019200090916F009D7F90936F00F7CF9091700022
:101930009D7F9093700091E09093B0009091B100E2
:10194000987F94609093B1001092B300E6CF80939B
:1019500005077093040760930307509302074093B1
:101960000107309300072093FF060E94BF05609394
:10197000FB067093FC068093FD069093FE06109282
:10198000FA068CE00C947B0C20E030E040E550E05F
:1019900064EC79E081E00C94A70C1092F2041092B0
:1019A000F30410921505109214051092D00481E0F2
:1019B0008093AA041092A90461E081E10E948A0A3E
:1019C00061E080E10E948A0AE9EBF0E080818E7F8D
:1019D000808380818D7F808388E48093B80085E454
:1019E0008093BC008BE398E09093830480938204FF
:1019F0008AE398E09093860480938504089520916B
:101A0000140581E0213208F043C08091D004811197
:101A1000FCCF9091160532E03093D00431E0309342
:101A2000AA043FEF3093A80444EF54E05093AC0471
:101A30004093AB041092AE042093AD041092AF0417
:101A40002091AF04990F922B9093AF049091A90429
:101A5000913029F51092A9049091AF049093BB00A6
:101A60009091BC0093FDF8CF95EC9093BC009091C1
:101A7000D0049230E1F39091A8049F3F49F0809107
:101A8000A804803271F08091A804803361F483E06F
:101A9000109215051092140510921705089595EEF1
:101AA000E4CF82E0F5CF84E0F3CF0F931F932FB7FD
:101AB000F8948091760490917704A0917804B09185
:101AC00079042FBF8093140690931506A0931606F1
:101AD000B09317068CE096E00E94A90B8F3F980701
:101AE00021F52FB7F89440917604509177046091D6
:101AF0007804709179042FBF009114061091150697
:101B00002091160630911706401B510B620B730B88
:101B100000911006109111062091120630911306C3
:101B20004017510762077307A8F21F910F9108959C
:101B300090B190937E04EBE6F0E09081982B908337
:101B4000E8E6F0E08081816080830895FC01AC01CB
:101B5000425F5F4F8FEF9FEF2191922728E0BC01FA
:101B6000880F991F77FF04C031E2832730E1932764
:101B70002A95A9F74E175F0779F70895CF93DF935A
:101B8000EC010E94A60D9C0181E04E855F85421705
:101B9000530709F080E0DF91CF9108952091060767
:101BA000309107072115310509F458C090910C07B1
:101BB000911509F44DC0905D90933A0190910D07F5
:101BC000911509F447C0905D90933B0190910E07E9
:101BD000911509F441C0905D90933C0190910F07DD
:101BE000905D4AE390933D0140933E019091100730
:101BF000911102C0232B11F080E3890F80933F01E4
:101C000080911107805D809340018091140790E2DC
:101C1000853008F49AE39093410190911207905D0A
:101C20009093420190911307905D909343019EE23F
:101C300090934401805D8093450180911507805DFC
:101C40008093460180911607805D80934701089537
:101C5000982FB2CF982FB8CF982FBECF80933A014C
:101C600080933B0180933C01982F482FBBCF40E5E8
:101C700050E060E270E089E297E00C949D4024E13E
:101C8000829FC001112444E150E060E270E0875D72
:101C9000984F0C949D40CF93DF939C010696F901D9
:101CA000C481C20FD32FD11D6F71A62F660FBB0B3E
:101CB000A75CBE4F2C173D0719F4DF91CF91089513
:101CC000EDA1EA3331F44C91FC014193CF0121970E
:101CD000F1CFEF710E2E000CFF0BE75CFE4F408141
:101CE000F3CFCF93C82F80E20E94CE0DC11519F01B
:101CF0008AE3809341014AE351E063E086E00E9479
:101D00005107C091E8056C2F81E395E00E944B0ECE
:101D10006C2F87E695E0CF910C944B0EFC0144812B
:101D20005581608171818CE096E00C94520C0F9388
:101D30001F93CF93DF938C01EB01FE0164912196F9
:101D4000611521F0C8010E94EC0BF7CFDF91CF9114
:101D50001F910F9108950C94EC0BFC018381811568
:101D600099F08181682B6083828191E090931705BF
:101D700080931605109215051092140588E195E0E0
:101D80000E9463080C94FF0C0895EF92FF920F934A
:101D90001F93CF93DF93EC01162F042FF22E8B8528
:101DA000888B0E94CD0C8889EE24E394E09217057D
:101DB0008093160510921505109214050E94FF0CD1
:101DC000811111C0E98A88E195E00E9417088E8789
:101DD0008989811549F01F861C8260E0CE010E962C
:101DE0000E94AD0E01C0198A2F2D402F612FCE0108
:101DF000DF91CF911F910F91FF90EF900C94A50967
:101E0000FC01862F6485611599F0218532852115A5
:101E1000310521F4811107C060E005C02130310592
:101E2000D9F78111F9CF6587CF010E960C94AD0ECD
:101E30000895EF92FF921F93CF93DF93EC01FC0183
:101E40009C012C5F3F4F80E060FF02C09589892B89
:101E500066953196E217F307B9F7413009F44C89DA
:101E60009D85892B142F182B7E018EE0E80EF11C26
:101E70006A89612BC7010E94AD0E6A896095612352
:101E8000C701DF91CF911F91FF90EF900C94AD0EA1
:101E90000F931F93CF93DF93D82FC92F142F062FA3
:101EA0000F7040E0123031F062956F70412F0E9448
:101EB000190F412F602F8D2F9C2FDF91CF911F91F4
:101EC0000F910C94190FEF92FF920F931F93CF93E2
:101ED000DF9390E1899F80011124EB01CB014096B3
:101EE0007C01C8010E94DB4389930F5F1F4FCE1511
:101EF000DF05B9F7DF91CF911F910F91FF90EF9020
:101F00000895DF92EF92FF920F931F93CF93DF9389
:101F1000CDB7DEB760970FB6F894DEBF0FBECDBF6A
:101F2000082FF62EE42ED52E11E0BE016F5F7F4FF5
:101F30008FEF810F0E94630FCE0101960E94BE0DAC
:101F40008115F1F0998190131BC09A819F77F91246
:101F500017C09CE0FE013396AE2DBD2D01900D9271
:101F60009A95E1F760960FB6F894DEBF0FBECDBF2D
:101F7000DF91CF911F910F91FF90EF90DF90089527
:101F80001F5F103491F680E0EDCFCF92DF92FF9289
:101F90000F931F93CF93DF9390E1899F80011124CA
:101FA000EB01CB0140966C01F990C8010E94DB4324
:101FB000F81621F06F2DC8010E94E3430F5F1F4FF9
:101FC000CC15DD0589F7DF91CF911F910F91FF901F
:101FD000DF90CF900895CF93DF93EC0188819981B2
:101FE000009711F00E944D3F198218821D821C82B9
:101FF0001B821A82DF91CF910895009711F00C9403
:102000004D3F08950F931F93CF93DF93EC018B0106
:1020100088819981009729F02A813B81261737070B
:1020200090F4B8016F5F7F4F0E94DE3FFC0180E0BB
:10203000309751F0F983E8831B830A838C819D815B
:10204000892B09F4108281E0DF91CF911F910F91CC
:102050000895DC01FB014481558114968D919C917A
:1020600015978417950778F08D919C91009759F0FA
:10207000608171816115710531F00E94BF409C0142
:1020800081E0232B09F080E00895EF92FF920F93F7
:102090001F93CF93DF93EC017B01FB0101900020A4
:1020A000E9F731978F01061B170BB8010E94021048
:1020B000811109C0CE01DF91CF911F910F91FF9047
:1020C000EF900C94EB0F1D830C83B70188819981ED
:1020D000DF91CF911F910F91FF90EF900C94B8403A
:1020E000FB01EF2B51F0DB010D900020E9F7119778
:1020F000AD01461B570B0C94520C08956F927F92C2
:102100008F929F92AF92BF92CF92DF92EF92FF9207
:102110000F931F93CF93DF93CDB7DEB7A1970FB681
:10212000F894DEBF0FBECDBF3C01142F052F962EB5
:10213000872E19A2223008F42AE05E0181E2A80E5F
:10214000B11CC22ED12CE12CF12C612F702F892DC6
:10215000982DA70196010E94C53C812F902FA92D93
:10216000B82D122F032F942E852E6A3014F5605D42
:10217000F50162935F018C159D05AE05BF0528F73B
:10218000BF01C3010E947010A1960FB6F894DEBF84
:102190000FBECDBFDF91CF911F910F91FF90EF90B8
:1021A000DF90CF90BF90AF909F908F907F906F9077
:1021B0000895695CDDCF482F50E060E070E02AE0D0
:1021C0008CE096E00C947E1069E772E00C9470103D
:1021D0001F93CF93DF93D62FC72F142F0E948E0EFD
:1021E0006EEF72E08CE096E00E94970E8D2F9C2F90
:1021F000111549F00E948E0E8CE096E0DF91CF9190
:102200001F910C94E410DF91CF911F910C948E0ECE
:10221000CF92DF92FF920F931F93CF93DF9300D063
:1022200000D000D0CDB7DEB78C01F62E2091110181
:1022300080E1289FB001112464517E4F1C821B82D3
:102240001E821D821A821982CE0101960E944510BB
:10225000C980DA804F2DB801CE0101960E94E810A6
:10226000C6010F900F900F900F900F900F90DF917D
:10227000CF911F910F91FF90DF90CF900C94FD0FA5
:10228000CF93DF93D82FC92F0E9470108D2F9C2FD2
:10229000DF91CF910C94E410CF93DF93D82FC92F07
:1022A0000E94970E8D2F9C2FDF91CF910C94E410FC
:1022B0000C9470100F931F93CF93DF93CDB7DEB7BD
:1022C00062970FB6F894DEBF0FBECDBF6F87788BD5
:1022D000898B9A8B042F122F1B861C861D861E86C7
:1022E000BE01615F7F4FCE010B960E94320680E3F4
:1022F0000E94CE0D111531F06CE772E08CE096E093
:102300000E945811011599F080913B0189838091B9
:102310003C018A8380913D018B838AE38C831D82FB
:10232000BE016F5F7F4F8CE096E00E945811809154
:102330003F018983809140018A838AE38B83809166
:1023400042018C83809143018D838EE28E83809144
:1023500045018F8380914601888780914701898755
:102360001A86BE016F5F7F4F8CE096E00E94581185
:10237000111531F06FE772E08CE096E00E94581181
:1023800062960FB6F894DEBF0FBECDBFDF91CF913E
:102390001F910F910895EF92FF920F931F93CF9388
:1023A000DF93EC018B016115710569F0FB01019070
:1023B0000020E9F731977F01E61AF70AB7010E947A
:1023C0000210811109C0CE01DF91CF911F910F91B1
:1023D000FF90EF900C94EB0FFD82EC82B8018881A6
:1023E0009981DF91CF911F910F91FF90EF900C9405
:1023F000B840FC01448150E060E270E006960C9425
:102400009D40CF93DF93C091DE05D091DF0569ED4C
:1024100075E085ED95E0209721F064EE75E080EEA3
:1024200095E00E94320680E20E94CE0D219731F4A1
:102430004AE351E062E08AE00E9451078DE995E0AD
:102440000E94F911C091E8056C2F87E695E00E9483
:102450004B0E6C2F81E395E0DF91CF910C944B0EE6
:102460008F929F92AF92BF92CF92DF92EF92FF92A4
:102470000F931F93CF93DF936B017C01A70196010C
:10248000C701B6010E94544561E872E0811114C091
:10249000C701B6010E944A4565E872E0892B61F4E4
:1024A0002FEF3FEF4FE75FE4C701B6010E944545BC
:1024B000181694F469E872E08CE096E0DF91CF9111
:1024C0001F910F91FF90EF90DF90CF90BF90AF9052
:1024D0009F908F900C9470102FEF3FEF4FE75FECC1
:1024E000C701B6010E94903D87FDE4CF20E030E0B7
:1024F000A901C701B6010E94903D87FF09C06DE2A6
:102500008CE096E00E94AB0EF7FAF094F7F8F094A6
:102510002EE632E143E05AE3C701B6010E94384497
:102520006B017C010E9416458B01D82FC92F0E9498
:10253000953D9B01AC01B601C7010E9437446B0178
:102540007C012AE0A8016D2F7C2F8CE096E00E9490
:102550007E106EE28CE096E00E94AB0EC3E020E0BD
:1025600030E040E251E4B601C7010E94F63DF62E8C
:10257000072F182FD92F0E9416454B01A12CB12CE3
:102580002AE0B501A4018CE096E00E947E10C5010E
:10259000B4010E94953D9B01AC016F2D702F812FDE
:1025A0009D2F0E9437446B017C01CA95C1F6DF91D3
:1025B000CF911F910F91FF90EF90DF90CF90BF9040
:1025C000AF909F908F9008952F923F924F925F927D
:1025D0006F927F928F929F92AF92BF92CF92DF9233
:1025E000EF92FF920F931F93CF93DF93CDB7DEB798
:1025F00064970FB6F894DEBF0FBECDBF6EEB71E0EF
:102600008CE096E00E944C112091A9060AEA16E09F
:10261000F80180E0412C512C3201C12CD12C7601E3
:1026200088248A94982C540182134CC12FEF82166F
:102630009206A206B206C1F0D701C601C414D504A1
:10264000E604F70410F4D301C2010097A105B10517
:1026500059F088199909AA09BB0931E03C878F37DD
:102660009E4EA643B10508F41C86212C312C809186
:10267000A9062816310408F43DC12FEF82169206F0
:10268000A206B20609F47EC0C114D104E104F1042B
:1026900009F478C0411451046104710409F472C052
:1026A000D701C60188199909AA09BB098D879E8798
:1026B000AF87B88BA3019201281939094A095B0930
:1026C000298B3A8B4B8B5C8B8CE096E00E94E4105C
:1026D00061E771E08CE096E00E944C1165E671E0E4
:1026E0008CE096E00E94970E20E04C856D857E85FB
:1026F0008F8598890E945A118CE096E00E94E41020
:1027000069E571E08CE096E00E94970E20E04C8530
:1027100069897A898B899C890E945A118CE096E09C
:102720000E94E4108D859E85AF85B88929893A89F4
:102730004B895C8982179307A407B50708F01BC172
:1027400063E471E08CE096E00E944C1167E371E075
:102750008CE096E00E94970EC301B2016C197D09CE
:102760008E099F090E94953D20E030E04AE754E43D
:102770000E94A4440E9430126DE872E08CE096E062
:102780000E94401180912E05811509F47DC068EEEC
:1027900070E08CE096E00E944C1180912E0581152E
:1027A00009F410C1809150014091510120915201D2
:1027B000E0905301F0905401009155011AE0612F0F
:1027C0000E94A53C805D8983905D9A833EE23B83B5
:1027D000842F0E94A53C805D8C83905D9D833E8309
:1027E00030E02053384F82E38F83C90164E670E004
:1027F0000E94B13CCB01EAE0F0E0BF010E94B13C95
:10280000805D8887C901BF010E94B13C282FCB01A0
:10281000BF010E94B13C805D8987205D2A871B86AD
:102820006CED70E08CE096E00E94970EBE016F5F49
:102830007F4F8CE096E00E9440118E2D612F0E9408
:10284000A53C805D8983905D9A832AE32B838F2D3D
:102850000E94A53C805D8C83905D9D832E83802F9C
:102860000E94A53C805D8F83905D9887198660EDFE
:1028700070E08CE096E00E94970EBE016F5F7F4F84
:102880008CE096E00E94401169EB70E08CE096E0ED
:1028900064960FB6F894DEBF0FBECDBFDF91CF9127
:1028A0001F910F91FF90EF90DF90CF90BF90AF906E
:1028B0009F908F907F906F905F904F903F902F9060
:1028C0000C944C119481913039F480809180A280D5
:1028D000B3808F5F3596A8CE933029F4C080D18025
:1028E000E280F380F6CF9430A1F74080518062807F
:1028F0007380EFCFD8016D917D918D919C91681976
:1029000079098A099B0921E04C850E945A1163EBE1
:1029100072E08CE096E00E945811F80184818430C6
:1029200021F190F48230D9F08330E1F068EB71E06E
:10293000813081F08CE096E00E94E410FFEF2F1AC6
:102940003F0A0B5F1F4F93CE853091F067E871E02F
:10295000863081F78CE096E00E94970EEBCF60EB1B
:1029600071E0F8CF61EA71E0F5CF61E971E0F2CF93
:102970006DE871E0EFCF89899A89AB89BC892D8593
:102980003E854F85588982179307A407B50798F4A9
:1029900060E271E08CE096E00E944C1164E171E02D
:1029A0008CE096E00E94970EC701B6016419750984
:1029B00086099709D7CE6EEF70E08CE096E00E9412
:1029C0004C11E0CE00E0F12CE12C20E040E080E072
:1029D000F5CEEF92FF920F931F93CF93DF93EC010D
:1029E0008B01CB010E94613D7C01BC01CE010E94A4
:1029F0000210811109C0CE01DF91CF911F910F917B
:102A0000FF90EF900C94EB0FEC82FD82B80188816F
:102A10009981DF91CF911F910F91FF90EF900C94CE
:102A20005A3D0F931F93CF93DF9300D000D000D077
:102A3000CDB7DEB7EEEDF5E082E090E091838083E4
:102A40008BE6828764EE75E080EE95E00E943206A8
:102A500081E00E94710E1C821B821E821D821A82DE
:102A6000198265E878E0CE0101960E94E914098197
:102A70001A81CE0101960E94D907C8010E94FD0F5C
:102A800084E090E00F900F900F900F900F900F90B8
:102A9000DF91CF911F910F910C94CB050F931F9352
:102AA000CF93DF9300D000D000D0CDB7DEB78091B8
:102AB0002307909124078A30910561F188F40097EB
:102AC00009F4B4C0099709F449C00F900F900F9012
:102AD0000F900F900F90DF91CF911F910F9108955C
:102AE0000B9799F76FEF76E08CE096E00E944C111F
:102AF00064ED76E08CE096E00E944C110F900F9010
:102B00000F900F900F900F90DF91CF911F910F9129
:102B10000C94C40C1C821B821E821D821A82198294
:102B200068E777E0CE0101960E94E91409811A81D5
:102B300061E0CE0101960E940811C8010E94FD0FBC
:102B40008CE090E00F900F900F900F900F900F90EF
:102B5000DF91CF911F910F910C94CB050E94370EFE
:102B60001C821B821E821D821A82198263E777E013
:102B7000CE0101960E94E91409811A81CE010196C5
:102B80000E94D507C8010E94FD0F1C821B821E8275
:102B90001D821A82198266E677E0CE0101960E94B4
:102BA000E91409811A81AE014F5F5F4F63E084E051
:102BB0000E946607C8010E94FD0F4091350550E054
:102BC00066E672E087E595E00E9494404091A10599
:102BD00050E062E271E083EC95E00E949440409105
:102BE0006B0550E062E171E08DE895E00E94944051
:102BF0000E94EF050E94BF056093D9057093DA0526
:102C00008093DB059093DC051092D5051092D605D4
:102C10001092D7051092D8051092D4051092D305C2
:102C20008BE68093DD0580E090E08CCF809184017D
:102C3000811561F0109284018CE096E00E94E4100E
:102C40006BE377E08CE096E00E944C1180917B0171
:102C5000811191C0809172018111B7C08091690189
:102C6000811571F01092690181E080932B0524E6B3
:102C700030E040E550E060ED77E083E00E94A70C93
:102C800080916001811531F01092600110922B0546
:102C90000E94C40C80912F05811105C080912B05E5
:102CA000811509F44AC00E94BF056093D90570934D
:102CB000DA058093DB059093DC0569ED75E085ED21
:102CC00095E00E94320680E20E94CE0D4AE351E078
:102CD00061E086E00E9451078091D3059091D40570
:102CE0001C821B821E821D821A8219826FE277E08B
:102CF000892B11F068E277E0CE0101960E94E91479
:102D000009811A81AE014F5F5F4F61E080E00E9450
:102D10006607C8010E94FD0F1091DD05612F8DE946
:102D200095E00E944B0E612F87E695E00E944B0EC6
:102D3000612F81E395E00E944B0E80913005811553
:102D400009F463C08AE38093410160E972E08CE09A
:102D500096E00E9458116AE371E08CE096E00F90D3
:102D60000F900F900F900F900F90DF91CF911F91C8
:102D70000F910C94401110927B0180917C019091F5
:102D80007D01A0917E01B0917F018093D505909344
:102D9000D605A093D705B093D80581E090E0909335
:102DA000D4058093D30588E68093DD050E94EF0566
:102DB00028E933E040E550E06CED75E083E00E94E7
:102DC000A70C81E08093840180CE109272018091E3
:102DD0002C0591E0892780932C051C821B821E8282
:102DE0001D821A82198266E377E0CE0101960E9465
:102DF000E91409811A81CE0101960E94D507C80104
:102E00000E94FD0F0E94C40C29CF80912A056FE01B
:102E100073E0811107C080912F05811509F455CE0B
:102E20006EE972E08CE096E00F900F900F900F909B
:102E30000F900F90DF91CF911F910F910C9458112B
:102E40000F931F93CF93DF9300D000D000D0CDB766
:102E5000DEB70E94370E1C821B821E821D821A82E0
:102E600019826AEC76E0CE0101960E94E91409818C
:102E70001A81CE0101960E94D507C8010E94FD0F5C
:102E80001C821B821E821D821A82198265EB76E0EB
:102E9000CE0101960E94E91409811A81AE014F5FAB
:102EA0005F4F62E080E00E946607C8010E94FD0F4C
:102EB0001C821B821E821D821A82198264EA76E0BD
:102EC000CE0101960E94E91409811A81AE014F5F7B
:102ED0005F4F63E082E00E946607C8010E94FD0F19
:102EE0001C821B821E821D821A8219826CE976E086
:102EF000CE0101960E94E91409811A81BE016F5F1B
:102F00007F4F81E395E00E949705C8010E94FD0F65
:102F10008DE995E00E94F91187E695E00F900F90FA
:102F20000F900F900F900F90DF91CF911F910F9105
:102F30000C94F911CF92DF92FF920F931F93CF93CE
:102F4000DF9300D000D000D0CDB7DEB78C01F62ED5
:102F50001C821B821E821D821A82198267EF72E018
:102F6000CE0101960E94E914C980DA804F2DB80184
:102F7000CE0101960E94E810C6010F900F900F90AD
:102F80000F900F900F90DF91CF911F910F91FF90B5
:102F9000DF90CF900C94FD0F7F928F929F92AF9213
:102FA000BF92CF92DF92EF92FF920F931F93CF9336
:102FB000DF93CDB7DEB766970FB6F894DEBF0FBECE
:102FC000CDBF982EB62E742E852EA12C8E010F5FAC
:102FD0001F4FC982DA82B8018A2D0E94630FC9800F
:102FE000DA80C8010E94BE0D7801811579F19C102C
:102FF0002DC08D2D8F77B81229C0BD1083C08CE0F5
:10300000E72DF82DDE01139601900D928A95E1F7D8
:10301000C8010E94A60D988B8F87B8018A2D0E9447
:10302000C50F81E066960FB6F894DEBF0FBECDBF28
:10303000DF91CF911F910F91FF90EF90DF90CF9094
:10304000BF90AF909F908F907F900895A39480E45D
:10305000A812BFCF10E0C982DA82B701812F0E9487
:10306000630FC980DA80C7010E94BE0D8115B9F0D7
:103070001F5F103481F700E0C982DA82B701802F28
:103080000E94630FC980DA80C7010E94BE0D8115BE
:1030900011F0C7FC1AC00F5F003471F71FEF0FEF7C
:1030A0008CE0E72DF82DDE01139601900D928A95A4
:1030B000E1F79982BA82C7010E94A60D988B8F878B
:1030C0001F3F29F0B701812FAACF1FEFE9CFB7012A
:1030D000802F0F3F09F0A3CF1C8A1B8A1E8A1D8AEE
:1030E0001A8A198A6AEC7AE0CE0141960E94E914A4
:1030F00009891A8961E0CE0141960E949A17C80198
:103100000E94FD0F80E08ECF6F927F928F929F92F0
:10311000AF92BF92CF92DF92EF92FF920F931F93E5
:10312000CF93DF93CDB7DEB76F970FB6F894DEBFBE
:103130000FBECDBF80912307909124078930910560
:1031400009F462C0D8F4009709F479C0059709F42E
:10315000B4C16F960FB6F894DEBF0FBECDBFDF913E
:10316000CF911F910F91FF90EF90DF90CF90BF9084
:10317000AF909F908F907F906F9008958A309105C7
:1031800059F10B9731F7809150018983809151015A
:103190008A83809152018B83AE014F5F5F4F60E065
:1031A00084E00E94CC178115A1F20E94C40C1D8AF4
:1031B0001C8A1F8A1E8A1B8A1A8A62E972E0CE0163
:1031C00042960E9445100A891B8961E0CE01429611
:1031D0000E940811C80194C08CE090E06F960FB671
:1031E000F894DEBF0FBECDBFDF91CF911F910F913D
:1031F000FF90EF90DF90CF90BF90AF909F908F9017
:103200007F906F900C94CB0580912E05811114C096
:10321000AE014F5F5F4F60E084E00E94810F811537
:1032200059F08981809350018A81809351018B816B
:10323000809352010E94FE0580E090E0CFCF809104
:103240008401811529F1109284010E94370E1C829D
:103250001B821E821D821A8219826AEC77E0CE01DF
:1032600001960E94E91409811A81CE0101960E94FB
:10327000D507C8010E94FD0F8DE995E00E94F91164
:1032800087E695E00E94F91181E395E00E94F9112B
:103290008091720181114AC080912F05811509F436
:1032A00058CF80912E058E010F5F1F4F811143C0B3
:1032B0001C821B821E821D821A82198267E977E0B6
:1032C000C8010E94E914E980FA80A80162E081E067
:1032D0000E946607C7010E94FD0F1C821B821E828E
:1032E0001D821A82198263E877E0C8010E94E914FE
:1032F000E980FA80A80163E080E00E946607C701C8
:103300006F960FB6F894DEBF0FBECDBFDF91CF91A1
:103310001F910F91FF90EF90DF90CF90BF90AF90F3
:103320009F908F907F906F900C94FD0F1092720180
:1033300085E090E053CF60904F01809050019090D5
:1033400051017090520120915301409154013091EC
:10335000550180E2F82E2A3038F0822F6AE00E9470
:10336000A53C90E3F92EF80EF982822F6AE00E94C4
:10337000A53C50E3C52EC90ECA822AE32B83842FB5
:103380000E94A53C70E3D72ED80EDC82E0E3EE2E3F
:10339000E90EED822E83832F0E94A53CF0E3AF2E31
:1033A000A80EAF82A0E3BA2EB90EB8861986A8017E
:1033B00062E086E00E945107862D90E0FC01EE0F4E
:1033C000FF1FE80FF91FE55BFD4F80818983818135
:1033D0008A8380E28B838C832AE080E2821628F045
:1033E000882D6AE00E94A53C805D8D832AE0882DAF
:1033F000622F0E94A53C905D9E838EE28F8380E2C7
:10340000921620F0892D0E94A53C805D88873AE0C5
:10341000892D632F0E94A53C905D99878EE28A8753
:1034200082E38B8780E38C87872D0E94A53C292F20
:103430000E94A53C905D9D87205D2E871F86A80178
:1034400063E083E00E945107F982CA82DB82EC824A
:10345000AD82BE828AE38F834E0188E0880E911C84
:103460005E01E2E1AE0EB11CD501F401350182919D
:103470008D930E171F07D9F74091350550E0B30122
:1034800087E395E00E94944080E289838A83FB82EF
:10349000CC82DD82EE82F40182914F01F5018193AD
:1034A0005F0108151905B9F74091A10550E0B30176
:1034B00083EA95E00E9494404CCE8091840181156E
:1034C00009F43FC01092840110922D050E94370E1E
:1034D0001C821B821E821D821A8219826EEB77E08B
:1034E000CE0101960E94E91409811A81CE0101964C
:1034F0000E94D907C8010E94FD0F1C821B821E82F8
:103500001D821A82198269EA77E0CE0101960E9433
:10351000E91409811A81AE014F5F5F4F63E080E0DB
:103520000E946607C8010E94FD0F8DE995E00E9488
:10353000F91187E695E00E94F91181E395E00E9478
:10354000F91180917201811519F01092720174CEF7
:1035500080917B01811549F010927B0180912D05AE
:103560008F5F8730A0F580932D05809169018115CB
:1035700089F11092690168EC70E080E090E00E94AF
:1035800045098DE10E94200B892B19F481E080937D
:1035900069018FEF909160019115F1F01092600137
:1035A00068EC70E080E090E00E9445098EE10E94A6
:1035B000200B892B09F4A7C021E0E0912D05E7300D
:1035C00008F0AFC0F0E0E55AFA4B0C94063D1092BB
:1035D0002D05CBCF80E0DECF811199C080912F05E2
:1035E000811509F4B6CD198A10E219838091500132
:1035F0000AE0602F0E94A53C805D8A83905D9B83DA
:103600001C831D83809151010E94A53C805D8E83A7
:10361000905D9F831887198782E38A8780E38B8771
:10362000809152010E94A53C292F0E94A53C905DEB
:103630009C87205D2D871E8780914F0190E0FC01C3
:10364000EE0FFF1FE80FF91FE55BFD4F80818F87AD
:103650008181888BAE014F5F5F4F61E080E00E9407
:10366000510780915301602F0E94A53C805D8A83A1
:10367000905D9B83809154010E94A53C805D8E8368
:10368000905D9F83809155010E94A53C805D8A8753
:10369000905D9B871C871D8780912E058111B0C08E
:1036A00096E589E79E878F8780E7888BAE014F5F1D
:1036B0005F4F62E080E00E9451078EE0EBE8F1E0AE
:1036C000DE01529601900D928A95E1F780912D05C9
:1036D000FE013196E80FF11DE80FF11D82898F5F21
:1036E000843008F036CDE189E43108F032CDF4E1E0
:1036F0008F9FC0011124875D984FE80FF92FF11DAE
:1037000087E0808326CD81E08093600155CF2FEF45
:1037100054CF80915001820F803230F081E080934D
:1037200050010E94FE055ACF8111F9CF8FE1F7CFEA
:1037300080915101820F8D3020F081E08093510102
:10374000F0CF8111FBCF8CE0F9CF80915201820F35
:10375000843620F089E180935201E3CF8931D8F794
:1037600083E6F9CF80915301820F8F3F21F487E1E7
:1037700080935301D6CF8831D8F310925301D1CF23
:1037800080915401820F8F3F21F48BE38093540189
:10379000C8CF8C33D8F310925401C3CF8FB7F894AD
:1037A00010921B0710921A07109219078FBF809171
:1037B00055013AE0632F0E94A53C820F839F802D24
:1037C0001124813F20F082E380935501AACF8333F7
:1037D000D8F310925501A5CF80912E05811109C013
:1037E0008FB7F89410921B0710921A0710921907BE
:1037F0008FBF80912E0591E0892780932E0591CF70
:103800009AE581E64FCF2F923F924F925F926F924F
:103810007F928F929F92AF92BF92CF92DF92EF9260
:10382000FF920F931F93CF93DF93CDB7DEB7AD9782
:103830000FB6F894DEBF0FBECDBF809123079091E5
:1038400024078C30910569F08A30910519F581E3E0
:1038500095E00E94F9118CE090E09093240780930A
:103860002307AD960FB6F894DEBF0FBECDBFDF9134
:10387000CF911F910F91FF90EF90DF90CF90BF906D
:10388000AF909F908F907F906F905F904F903F9000
:103890002F900895099791F40E9420178CE096E0EC
:1038A0000E94690B892B29F4109224071092230798
:1038B000D8CF8CE096E00E94A90BF0CF8CE096E088
:1038C0000E94690B892B69F218A21F8E1E8E1D8E15
:1038D0001AA219A26E012DE1C20ED11C6BE772E093
:1038E000C6010E9445100D8D1E8DE9A0FAA00E9410
:1038F000550D9C01CFA2D8A62F3F320721F02A30C8
:10390000310509F0D2C10115110591F1E114F1045D
:1039100079F148015401D4018D914D01082E000C1C
:10392000990B0E94873D892BA9F7B1E0EB1AF108AA
:10393000E00EF11ED7018C91082E000C990B0E940D
:10394000873D892B21F0EA14FB0408F0D0C1BFEFBA
:10395000EB1AFB0AEA18FB080A151B0528F4A70155
:10396000B501C8010E949440F801EE0DFF1D1082C0
:103970001C821B821E821D821A82198262E976E0F5
:10398000FE0131963F01CF010E94E914A980BA805F
:1039900060E0C3010E940811C5010E94FD0F1E8F47
:1039A0000D8FFAA2E9A28FA198A50E948E0E60EA5F
:1039B00072E08CE096E00E9440111C821B821E8205
:1039C0001D821A82198262EA72E0C3010E944510C8
:1039D000A980BA80B3018FA198A50E942910982EC2
:1039E000C5010E94FD0F911409F4ABC18FEF9FEF49
:1039F0009A8B898B9CA38BA3CE0183969F938F93E5
:103A000042979F938F9387EA92E09F938F931F93A0
:103A10000F930E94DC4062E876E08CE096E00E9422
:103A20004C1162E776E08CE096E00E944C110FB6F4
:103A3000F894DEBF0FBECDBF812C912C43E656E03B
:103A400024E636E080E696E049A75AA72BA73CA7D4
:103A5000482E9DA76E013FE0C30ED11CB301882DF7
:103A60000E94630FC3010E94BE0D811509F471C04D
:103A7000B980B7FC6EC089899A8997FD04C0B816D1
:103A8000190609F066C02A80A22CE894A7F88BA139
:103A90009CA197FD04C0A816190609F05AC062EB54
:103AA00072E08CE096E00E94581184E66FE676E0C2
:103AB000B81638F49AE06CE676E0B91610F060E7D4
:103AC00076E08CE096E00E94970E8B2D0E94DB1032
:103AD00062EB72E08CE096E00E945811A4E629E6C1
:103AE00036E0B901AA1648F4BAE0E6E6F6E0BF010E
:103AF000AB1618F08AE696E0BC018CE096E00E94D6
:103B0000970E8A2D0E94DB1060E28CE096E00E9406
:103B1000EC0B27FEF0C062E28CE096E00E94AB0E58
:103B2000DE0113965D01F50161915F01611539F0C8
:103B30008CE096E00E94AB0ECA14DB04A1F762E2AF
:103B40008CE096E00E94AB0E8CE096E00E94E410C0
:103B50009394839420E4821281CF911431F060E534
:103B600076E08CE096E00E944C1165E476E08CE013
:103B700096E00E94970E892D0E94DB108CE096E063
:103B80000E94E410992493941C821B821E821D8241
:103B90001A82198265EB72E0C3010E944510A98068
:103BA000BA80B3018FA198A50E942910882EC50163
:103BB0000E94FD0F811409F42BC11C8A1B8A1E8AE6
:103BC0001D8A1A8A198A6E0131E1C30ED11C6BE776
:103BD00072E0C6010E94451067E376E0C6010E94CC
:103BE000E914E988FA88CE0185969F938F9302970E
:103BF0009F938F938AEB92E09F938F931F930F93E2
:103C00000E94DC400FB6F894DEBF0FBECDBF260188
:103C1000029709F0B8C060E270E0C8010E94A440B9
:103C2000009709F4B0C060E270E001960E94A440E1
:103C3000009709F4A8C060E270E001960E94A440D9
:103C4000DC01892B09F49FC0FD018D918032E1F3E5
:103C5000823209F078C06D0162E270E0CD010E940D
:103C6000A440AC01892B09F48EC08CE0F3011192C1
:103C70008A95E9F74C195D094D30510514F04CE077
:103C800050E0B601C3010E94CD406DA16068A30160
:103C90008BA10E94CC1766E276E0811102C06AE037
:103CA00076E0C2010E94E9146CC029831A82570190
:103CB0003FEFA31AB30A1E8F0D8FFAA2E9A2B50136
:103CC0008FA198A50E9402100D8D1E8DE9A0FAA06B
:103CD000811549F0BE016F5F7F4FC8018E0D9F1D9A
:103CE0000E94B84075010E94550D9C0105CEE1E08F
:103CF000EE1AF1081FCE9E012D5F3F4F1901B12C26
:103D0000D101AD901D01B4E669A57AA5AB1638F4D2
:103D1000EAE0642D7DA5AE1610F06BA57CA58CE0C5
:103D200096E00E94970E8A2D0E94DB10B394FCE06F
:103D3000BF1609F409CF6CE28CE096E00E94EC0B10
:103D4000DFCF912C21CF8CE0D3011D928A95E9F72A
:103D500063014E01BDE08B0E911C8081811519F02D
:103D60008C149D04B9F56DA16F77A3018BA10E94FE
:103D7000CC17811509F449C064EC72E0C2010E94BD
:103D8000CB11E988FA88FA8AE98AC2010E948E0E6C
:103D90008CE096E00E94E410C7010E94FD0FC8016C
:103DA000AD960FB6F894DEBF0FBECDBFDF91CF91B9
:103DB0001F910F91FF90EF90DF90CF90BF90AF9049
:103DC0009F908F907F906F905F904F903F902F903B
:103DD0000C94FD0F5F013196D5018C918032D1F3A7
:103DE000C5010E940C3D8115B1E09B0760F6F6010C
:103DF00081936F016CE270E0C5010E94A440FC0158
:103E0000892B09F4B0CF3196A8CF6EEE75E049CF7B
:103E10001C821B821E821D821A82198269ED72E049
:103E2000C3010E944510A980BA80B3018FA198A553
:103E30000E942910482EC5010E94FD0F411409F46B
:103E40004AC0CE0185969F938F9302979F938F933D
:103E50008EED92E09F938F931F930F930E94DC400F
:103E60000FB6F894DEBF0FBECDBF0297A1F5ADA08F
:103E7000BBA05982B301882D0E94630F5980C301F2
:103E80000E94BE0D982E811541F1B51026C08A8181
:103E90008F77A81222C08CE0FE017196DF01282FD7
:103EA0001D922A95E9F7DE01139601900D928A95ED
:103EB000E1F78B2D80688983C3010E94A60D988B42
:103EC0008F87B301882D0E94C50F6FED75E08CE0E0
:103ED00096E00E944C11812C0EC0839430E4831232
:103EE000C8CF62ED75E08CE096E00E94970E8824C2
:103EF0008394992493941C821B821E821D821A82B1
:103F0000198268EE72E0C3010E944510A980BA8050
:103F1000B3018FA198A50E942910D82EC5010E9437
:103F2000FD0FD11409F459C0270195E0A92EB12C39
:103F300085E0E816F10420F4570185E0482E512C65
:103F40001C821B821E821D821A8219826BE772E01C
:103F5000C3010E944510AE14BF0400F1A980BA80CD
:103F6000A114B10431F0C5010E942A3DCB01892B77
:103F700051F510922C050E942017C5010E94FD0FDB
:103F800099249394EF2861F5811409F4E1C06BEB57
:103F900075E08CE096E00E94970ECAC067014E144F
:103FA0005F0408F46201C00ED11ED6019C901C92E1
:103FB000B8016A0D7B1DC3010E94CB11A980BA8094
:103FC000F6019082CDCF6130710521F481E08093BC
:103FD0002C05D3CF88248394D0CFEF2809F49EC03A
:103FE0006EEE72E0C8010E94AF40892B91F560E34C
:103FF00075E08CE096E00E944C1160EE74E08CE07D
:1040000096E00E944C116CE974E08CE096E00E940E
:104010004C1161E574E08CE096E00E944C1168E17F
:1040200074E08CE096E00E944C1164ED73E08CE04B
:1040300096E00E944C1165E973E08CE096E00E94E6
:104040004C116AE673E08CE096E00E944C119924D2
:10405000939463EF72E0C8010E94AF40892B09F08E
:104060005DC067EA75E08CE096E00E94970E65E916
:1040700075E08CE096E00E944C1160E975E08CE000
:1040800096E00E94970E68E875E08CE096E00E944A
:10409000970E69E775E08CE096E00E94970E66E760
:1040A00075E08CE096E00E94970E6AE675E08CE081
:1040B00096E00E94970E60E28CE096E00E94EC0B86
:1040C00061E675E08CE096E00E94970E6FE575E082
:1040D0008CE096E00E944C116CE475E08CE096E078
:1040E0000E94970E809129050E94DB108CE096E0DB
:1040F0000E94E4106AE375E08CE096E00E94970E5F
:104100002AE040E150E060E070E08CE096E00E9440
:104110007E108CE096E00E94E41036CF911034CFF0
:1041200062EC75E08CE096E00E94970E81102FCF34
:104130006CEA75E08CE096E00E944C1124E630E0D9
:1041400040E550E060ED77E083E00E94A70C27CEC9
:104150008CE096E00E94E4100E94C40C20CE0F93E5
:104160001F93CF93DF9300D000D000D0CDB7DEB740
:10417000EAEAF6E08FEF9FEFDC0180839183A28370
:10418000B3831482359626E0EA3FF207B1F7109226
:10419000A9061C821B821E821D821A8219826CEB68
:1041A0007AE0CE0101960E94E91409811A8161E04A
:1041B000CE0101960E949A17C8010F900F900F90A0
:1041C0000F900F900F90DF91CF911F910F910C9452
:1041D000FD0F8F929F92AF92BF92CF92DF92EF929C
:1041E000FF920F931F93CF93DF93CDB7DEB728973E
:1041F0000FB6F894DEBF0FBECDBF8C01DB01FA0114
:104200002FB7F8944D915D916D917C918081918152
:104210002FBFF801C180D280E380F4804A015B01A6
:104220008C189D08AE08BF08278182169104A1044E
:10423000B10408F472C04183528363837483880F8E
:10424000991F880F991F9683858381E080838091D1
:104250004E01811509F461C01C821B821E821D82E1
:104260001A82198266EB7AE0CE0101967C010E94E7
:10427000E914C980DA8060E0C7010E949A17C6017C
:104280000E94FD0FF80180858983F1E002371F0746
:1042900039F48091230790912407892B09F450C0A9
:1042A00080E28A8380E48B8380E2D82EDC821D82C8
:1042B000B7018CE096E00E945811F80141815281CB
:1042C000638174812AE08CE096E00E947E108EE289
:1042D0008983F80125813681C90164E670E00E9476
:1042E000B13C605D6A83EAE0F0E0C901BF010E9471
:1042F000B13C282FCB01BF010E94B13C805D8B8374
:10430000205D2C83DD828DE68E8383E78F83188684
:10431000B7018CE096E00E94401128960FB6F89401
:10432000DEBF0FBECDBFDF91CF911F910F91FF90E8
:10433000EF90DF90CF90BF90AF909F908F900895B7
:104340008BE2AFCFCF92DF92EF92FF92CF93DF93CA
:1043500000D000D000D0CDB7DEB780912705909176
:104360002805892BF9F08AE090E00E94CB050E9495
:10437000BF056E5C7F4F8F4F9F4F6B017C010E948A
:10438000BF056C157D058E059F0560F480912307A0
:10439000909124070C9731F0E0912705F0912805C2
:1043A0000995EDCF10922605E0912505E0931101C6
:1043B00080E1E89FF0011124E551FE4F8685978545
:1043C000909328058093270589E090E00E94CB0513
:1043D0001C821B821E821D821A82198262E673E091
:1043E000CE0101960E94E914E980FA8060E0CE01D6
:1043F00001960E949A17C7010E94FD0F609111015A
:1044000020E1629FB001112464517E4F8CE096E060
:104410000E94581168E573E08CE096E00F900F90D1
:104420000F900F900F900F90DF91CF91FF90EF9032
:10443000DF90CF900C944C11CF92DF92EF92FF92CD
:104440000F931F93CF93DF93CDB7DEB768970FB667
:10445000F894DEBF0FBECDBF8CE10E94200B019708
:1044600091F481E08093260568960FB6F894DEBF3C
:104470000FBECDBFDF91CF911F910F91FF90EF90B5
:10448000DF90CF9008951C8A1B8A1E8A1D8A188E81
:104490001F8A8E010D5E1F4F64E573E0C8010E9404
:1044A000E91480917B017801811581F080912405C8
:1044B0008F5F833008F080E010927B0180932405A9
:1044C00080E00E943F0E81E00E943F0E1091240583
:1044D000113009F46CC0123009F4BBC0111155C081
:1044E00080916901811571F0109269018091250513
:1044F000811102C08091290581508093250581E0BA
:104500000E943F0E80916001811591F01092600130
:1045100020912505809129058150990B28171906AE
:1045200011F011E0120F1093250581E00E943F0E5B
:1045300080912F05811549F11C821B821E821D82EC
:104540001A82198264E473E0CE0101960E94E91494
:1045500009811A81AE014F5F5F4F60E082E00E94E7
:104560006607C8010E94FD0FA70161E082E00E947A
:1045700066074091250580E1489FA0011124445120
:104580005E4F61E086E00E9451078B899C896896A6
:104590000FB6F894DEBF0FBECDBFDF91CF911F9154
:1045A0000F91FF90EF90DF90CF900C94FD0F8091D2
:1045B0006901811509F445C01092690180914E018D
:1045C00091E0892780934E0180912F058115E9F2B2
:1045D0001C821B821E821D821A82198263E373E091
:1045E0008E010F5F1F4FC8010E94E914C980DA8055
:1045F000A80160E082E00E946607C6010E94FD0FEC
:10460000A70161E082E00E94660780914E016FE29F
:1046100073E0811102C06BE273E01C821B821E8278
:104620001D821A821982C8010E94E914E980FA8069
:10463000A80161E086E00E946607C7010E94FD0FA5
:10464000A4CF80916001811509F4BECF1092600162
:10465000B5CF80916901811539F11092690180917E
:104660001101898380914E018A83AE014F5F5F4FB4
:1046700063E080E00E94CC170E94C40C188A1F8659
:104680001A8A198A1E861D8663E273E0CE010D9692
:104690000E94E9140D851E8561E0CE010D960E94F1
:1046A0009A17C8010E94FD0F809160018115D1F019
:1046B000109260018BE090E0909324078093230791
:1046C000E091110180E1E89FF0011124E551FE4FD6
:1046D0000684F785E02D09958DE090E090932407FE
:1046E0008093230780912F05811509F44ECF1C82FA
:1046F0001B821E821D821A82198262E173E0CE0142
:1047000001960E94E91409811A81AE014F5F5F4F43
:1047100060E082E00E946607C8010E94FD0F1C82D3
:104720001B821E821D821A82198261E073E0CE0113
:1047300001960E94E91409811A81AE014F5F5F4F13
:1047400061E082E00E946607C80178CFEF92FF9295
:104750001F93CF93DF9300D000D000D0CDB7DEB74A
:10476000182FE091A906813039F18DEF810F843047
:1047700018F1EE3008F11C821B821E821D821A8203
:10478000198269E970E0CE0101960E94E914E9807E
:10479000FA8061E0CE0101960E949A17C7010F903E
:1047A0000F900F900F900F900F90DF91CF911F916E
:1047B000FF90EF900C94FD0F85E0E89FF00111242D
:1047C000E655F94F408351836283738314831C82BF
:1047D0001B821E821D821A82198260E970E0CE015E
:1047E00001960E94E914E980FA8060E0CE0101960A
:1047F0000E949A17C7010E94FD0F812F0E94DB10B3
:1048000068E870E08CE096E00E944C118091A90667
:104810008F5F8093A9060F900F900F900F900F90CD
:104820000F90DF91CF911F91FF90EF9008954F92DD
:104830005F926F927F928F929F92AF92BF92CF9230
:10484000DF92EF92FF920F931F93CF93DF93CDB739
:10485000DEB766970FB6F894DEBF0FBECDBFE0910E
:104860002307F0912407EC30F10508F0DEC1EE5982
:10487000FA4B0C94063D0E94180B8CE090E0669673
:104880000FB6F894DEBF0FBECDBFDF91CF911F9161
:104890000F91FF90EF90DF90CF90BF90AF909F90DF
:1048A0008F907F906F905F904F900C94CB0581E339
:1048B00095E00E94F9118DE995E00E94F91187E6D3
:1048C00095E00E94F9110E94180B19821A821B822E
:1048D0001C82AE014F5F5F4F60E081E00E94810F5C
:1048E000811591F15B814C81298130E0ACE3B0E02E
:1048F0000E9428442A81620F711D811D911D9B0118
:10490000A8EEB3E00E94284460933601709337010B
:104910008093380190933901252F30E00E9428447C
:104920006B017C01242F30E0A4E6B0E00E94284413
:10493000C60ED71EE81EF91EC0923201D092330176
:10494000E0923401F092350124E030E03093D40558
:104950002093D3058FE68093DD053093DF05209308
:10496000DE058093E80580E090E089CF80918401A6
:10497000811509F449C0109284010E94370E1C82EF
:104980001B821E821D821A8219826CEA7AE0CE0195
:1049900001960E94E91409811A81CE0101960E94B4
:1049A000D507C8010E94FD0F1C821B821E821D823A
:1049B0001A8219826DE97AE0CE0101960E94E9140B
:1049C00009811A81AE014F5F5F4F62E083E00E9470
:1049D0006607C8010E94FD0F1C821B821E821D8279
:1049E0001A82198269E87AE0CE0101960E94E914E0
:1049F00009811A81AE014F5F5F4F63E080E00E9442
:104A00006607C8010E94FD0F80917201811509F4AB
:104A10000CC11092720185E090E031CF8091840149
:104A2000811509F49DC01092840181E080932207D2
:104A30000E94370E1C821B821E821D821A821982DE
:104A400063E87AE0CE0101960E94E91409811A8197
:104A5000CE0101960E94D907C8010E94FD0F1C8259
:104A60001B821E821D821A8219826EE67AE0CE01B6
:104A700001960E94E91409811A81AE014F5F5F4FD0
:104A800062E080E00E946607C8010E94FD0F1C8260
:104A90001B821E821D821A8219826FE57AE0CE0186
:104AA00001960E94E91409811A81AE014F5F5F4FA0
:104AB00063E083E00E946607C8010E94FD0F109228
:104AC000D5051092D6051092D7051092D8051092F0
:104AD000D9051092DA051092DB051092DC051092D0
:104AE000E0051092E1051092E2051092E3051092A4
:104AF000E4051092E5051092E6051092E705109284
:104B0000D4051092D3058BE68093DD051092DF0566
:104B10001092DE058093E80569ED75E085ED95E07E
:104B20000E94320680E20E94CE0D4091350550E091
:104B300066E672E087E595E00E9494404091A10509
:104B400050E062E271E083EC95E00E949440409175
:104B50006B0550E062E171E08DE895E00E949440C1
:104B600080912207811581F10E94BF05AB01BC0134
:104B70008091320190913301A0913401B0913501BF
:104B800000912507109126072091270730912807CB
:104B9000800F911FA21FB31F84179507A607B707A1
:104BA00098F4109222071091DD05612F81E395E0C2
:104BB0000E944B0E612F8DE995E00E944B0E612FF4
:104BC00087E695E00E944B0E80917201811519F0E5
:104BD00010927201C8CE80916901811529F010925E
:104BE000690188E090E04BCE8DE10E94200B892B7B
:104BF000C1F380916001811519F010926001F1CF2D
:104C00008EE10E94200B892B61F380915701811561
:104C100019F010925701E5CF8FE10E94200B892BEC
:104C200001F380917B01811117C066960FB6F8944D
:104C3000DEBF0FBECDBFDF91CF911F910F91FF90CF
:104C4000EF90DF90CF90BF90AF909F908F907F902C
:104C50006F905F904F90089510927B010E94EF0536
:104C60001C821B821E821D821A82198261E57AE0F3
:104C7000CE0101960E94E91409811A8161E0CE01FA
:104C800001960E940811C8010E94FD0F0E94AF20EA
:104C900040917C0150917D0160917E0170917F0176
:104CA00081E00E94A62380917C0190917D01A091DA
:104CB0007E01B0917F018093D5059093D605A09396
:104CC000D705B093D8058093E0059093E105A093B4
:104CD000E205B093E30521E030E03093D405209362
:104CE000D30588E68093DD053093DF052093DE054C
:104CF0008093E80582E090E0C2CD80918401811527
:104D0000C1F0109284011C821B821E821D821A82B5
:104D1000198263E47AE0CE0101960E94E9140981C8
:104D20001A8161E0CE0101960E940811C8010E941B
:104D3000FD0F8091720181114BCF8DE10E94200BFC
:104D4000892B09F0A2C085E090E09093D405809370
:104D5000D305805A9D4FFC0180818093DD058EE153
:104D60000E94200B892B09F093C085E090E090937E
:104D7000DF058093DE05805A9D4FFC018081809382
:104D8000E8058FE10E94200B8C018091D305909162
:104D9000D405059709F07FC01C821B821E821D82EC
:104DA0001A8219826DE37AE0CE0101960E94E9141D
:104DB000E980FA80BE016F5F7F4F8DE995E00E9428
:104DC0009705C7010E94FD0F8091DE059091DF05D8
:104DD000059709F065C01C821B821E821D821A8203
:104DE000198267E37AE0CE0101960E94E914E98016
:104DF000FA80BE016F5F7F4F87E695E00E949705BE
:104E0000C7010E94FD0F8091D3059091D405209198
:104E1000DE053091DF05822B932B1C821B821E82C4
:104E20001D821A821982892B09F03FC001151105D4
:104E300009F43BC06CE27AE0CE0101960E94E914CD
:104E400009811A8161E0CE0101960E940811C80112
:104E50000E94FD0F81E395E00E94F91180916901A4
:104E6000811110926901809160018111109260019D
:104E700080917B01811110927B01809157018111FA
:104E80001092570181E090E0FACC80E090E05DCF95
:104E900080E090E06CCF8DE995E00E94F91194CF0D
:104EA00087E695E00E94F911AECF66E27AE0CE0186
:104EB00001960E94E914E980FA80BE016F5F7F4F7E
:104EC00081E395E00E949705C7010E94FD0F82E0F3
:104ED0000E943F0E1C821B821E821D821A82198232
:104EE00067E17AE0CE0101960E94E914E980FA8038
:104EF000AE014F5F5F4F62E080E00E946607C7012E
:104F00000E94FD0FE3E1012B21F48DE480936407FF
:104F1000E2E18091DE059091DF05059741F4AE2F27
:104F2000B0E0A75DB84F80E598968C93E1508091F2
:104F3000D3059091D405059729F4F0E0E75DF84F8B
:104F40008CE480A780913005811509F46ECE24E6AB
:104F500030E040E550E060ED77E083E066960FB624
:104F6000F894DEBF0FBECDBFDF91CF911F910F919F
:104F7000FF90EF90DF90CF90BF90AF909F908F9079
:104F80007F906F905F904F900C94A70C809184015C
:104F90008115C9F0109284010E94370E1C821B8279
:104FA0001E821D821A82198261E17AE0CE01019689
:104FB0000E94E91409811A81CE0101960E94DD0741
:104FC000C8010E94FD0F8091D3059091D4050197EF
:104FD00009F073C080916901811509F46EC01092C7
:104FE000690140916A0150916B0160916C0170916F
:104FF0006D014093D9055093DA056093DB057093FA
:10500000DC0582E090E09093D4058093D3058BE695
:105010008093DD0583E00E94A62361E08FE00E947B
:105020008A0A69ED75E085ED95E00E94320680E21E
:105030000E94CE0D6091DD058DE995E00E944B0E3A
:105040008AE3809341014AE351E062E086E00E94F6
:1050500051071C821B821E821D821A82198265E5FD
:1050600079E0CE0101960E94E91409811A81AE010E
:105070004F5F5F4F62E080E00E946607C8010E94B8
:10508000FD0F1C821B821E821D821A8219826AE415
:1050900079E0CE0101960E94E91409811A8160E04D
:1050A000CE0101960E940811C8010E94FD0F6AE31B
:1050B00071E08CE096E00E9440118091DE059091B5
:1050C000DF05019709F073C080916001811509F433
:1050D0006EC0109260014091610150916201609137
:1050E0006301709164014093E4055093E50560937A
:1050F000E6057093E70582E090E09093DF058093EA
:10510000DE058BE68093E80584E00E94A62361E03B
:1051100082E10E948A0A64EE75E080EE95E00E94CA
:10512000320680E20E94CE0D6091E80587E695E0A8
:105130000E944B0E8AE3809341014AE351E063E011
:1051400086E00E9451071C821B821E821D821A82E9
:10515000198266E679E0CE0101960E94E914098180
:105160001A81AE014F5F5F4F63E080E00E946607E7
:10517000C8010E94FD0F1C821B821E821D821A82A2
:1051800019826AE579E0CE0101960E94E91409814D
:105190001A8160E0CE0101960E940811C8010E94A8
:1051A000FD0F6AE371E08CE096E00E94401180916F
:1051B000D3059091D405029709F048C08091DE058F
:1051C0009091DF05029709F041C01C821B821E826C
:1051D0001D821A8219826CE679E0CE0101960E9446
:1051E000E91409811A81CE0101960E94D907C801EC
:1051F0000E94FD0F8091E4059091E505A091E605E0
:10520000B091E7054091D9055091DA056091DB0531
:105210007091DC05481759076A077B0790F464EE24
:1052200075E080EE95E00E94320680E20E94CE0D8D
:105230006091DD0581E395E00E944B0E84E090E0F3
:105240001ECB69ED75E085ED95E0EDCF10912F0552
:10525000111509F443C00E94BF0569837A838B83CB
:105260009C83BE016F5F7F4F80EE95E00E94320607
:1052700080E20E94CE0D8091DE059091DF050197BE
:1052800099F41091E805612F87E695E00E944B0E96
:10529000612F81E395E00E944B0E4AE351E063E009
:1052A00086E00E94510710E08091D3059091D405CB
:1052B0000197A1F40091DD05602F8DE995E00E9432
:1052C0004B0E111559F0602F81E395E00E944B0EB3
:1052D0004AE351E062E086E00E9451078091570165
:1052E0008115D9F1109257011C821B821E821D82EA
:1052F0001A82198269E07AE0CE0101960E94E914CF
:1053000009811A8161E0CE0101960E940811C8014D
:105310000E94FD0F409158015091590160915A012E
:1053200070915B0182E00E94A62368E571E080EE47
:1053300095E00E94320680E20E94CE0D8AE38093BF
:1053400041014AE351E061E086E00E94510748EFE5
:1053500052E061E080E00E94510780917201811566
:1053600009F463CC109272011C821B821E821D8282
:105370001A8219826AEF79E0CE0101960E94E9143F
:1053800009811A8161E0CE0101960E940811C801CD
:105390000E94FD0F4091730150917401609175015D
:1053A0007091760186E00E94A6231C821B821E82D9
:1053B0001D821A8219826DEE79E0CE0101960E945B
:1053C000E91409811A81CE0101960E94D907C8010A
:1053D0000E94FD0F22E030E03093D4052093D305E6
:1053E0008BE68093DD053093DF052093DE05809307
:1053F000E80524CF809184018115D1F010928401B9
:105400001C821B821E821D821A8219826EED79E037
:10541000CE0101960E94E91409811A8161E0CE0152
:1054200001960E940811C8010E94FD0F0E94E4121B
:1054300080917201811509F4F8CB109272010E94DB
:10544000180B91CA80918401811509F49DC01092B6
:10545000840181E0809322071092D5051092D60531
:105460001092D7051092D80580913601909137019E
:10547000A0913801B09139018093D9059093DA0554
:10548000A093DB05B093DC051092D4051092D305F0
:105490008BE68093DD051092DF051092DE05809388
:1054A000E80569ED75E085ED95E00E94320680E241
:1054B0000E94CE0D109244010E94370E1C821B8266
:1054C0001E821D821A82198266ED79E0CE01019654
:1054D0000E94E91409811A81CE0101960E94D90720
:1054E000C8010E94FD0F4AE351E062E08AE00E9499
:1054F00051071C821B821E821D821A82198267EC50
:1055000079E0CE0101960E94E91409811A81AE0169
:105510004F5F5F4F62E080E00E946607C8010E9413
:10552000FD0F1C821B821E821D821A82198262EB71
:1055300079E0CE0101960E94E91409811A81AE0139
:105540004F5F5F4F63E080E00E946607C8010E94E2
:10555000FD0F87E0E9E0F3E0DE01119601900D9286
:105560008A95E1F787E0FE013196ADE8B5E001905C
:105570000D928A95E1F787E0FE013196A7E5B5E047
:1055800001900D928A95E1F780912207811509F12A
:105590000E94BF05AB01BC018091320190913301A3
:1055A000A0913401B0913501009125071091260793
:1055B0002091270730912807800F911FA21FB31F4A
:1055C000481759076A077B0720F0109222070E94AC
:1055D000011280916901811541F110926901809158
:1055E000360190913701A0913801B0913901813392
:1055F000F5E79F07A105B10508F459C08053954709
:10560000A109B1098093360190933701A093380125
:10561000B093390181E080938401109225071092A4
:1056200026071092270710922807809160018115A4
:1056300061F1109260018091360190913701A09143
:105640003801B0913901813922EB920728E0A20795
:10565000B10520F080E992EBA8E0B0E0805D9A48C7
:10566000AF4FBF4F8093360190933701A09338011D
:10567000B093390181E08093840110922507109244
:105680002607109227071092280780917B01811529
:1056900031F010927B0186E090E00E94CB05809172
:1056A0007201811509F4C1CA10927201EBCB80E33B
:1056B00095E7A0E0B0E0A6CF80918401811509F4C0
:1056C0005BC00E94EF05109284011C821B821E8227
:1056D0001D821A82198262EA79E0CE0101960E9447
:1056E000E91409811A8161E0CE0101960E94081136
:1056F000C8010E94FD0F0E94370E1C821B821E8271
:105700001D821A8219826AE979E0CE0101960E940F
:10571000E91409811A81CE0101960E94DD07C801B2
:105720000E94FD0F81E090E09093DF058093DE05FD
:1057300088E68093E8050E94BF05462F572FBC01DD
:105740004093E0055093E1056093E2057093E30513
:105750008091D9059091DA05A091DB05B091DC0527
:10576000840F951FA61FB71F8093E4059093E5054E
:10577000A093E605B093E705809172018115D9F0F9
:10578000109272011C821B821E821D821A82198253
:105790006AE879E0CE0101960E94E91409811A8134
:1057A00061E0CE0101960E940811C8010E94FD0F20
:1057B0000E94C40C67CB80912F05811509F435CA6E
:1057C0000E94BF05462F572FBC014093E005509320
:1057D000E1056093E2057093E3058091E405909103
:1057E000E505A091E605B091E70584179507A607A2
:1057F000B707C0F066960FB6F894DEBF0FBECDBFF8
:10580000DF91CF911F910F91FF90EF90DF90CF909C
:10581000BF90AF909F908F907F906F905F904F90D0
:105820000C9401121C821B821E821D821A82198214
:105830006AE779E0CE0101960E94E91409811A8194
:1058400061E0CE0101960E940811C8010E94FD0F7F
:1058500081E090E00E94CB0520E030E040ED57E091
:1058600068EC70E081E07ACBC0903601D0903701CF
:10587000E0903801F090390160913201709133016C
:10588000809134019091350128EE822E23E0922EF2
:10589000A12CB12CA50194010E94C53C29013A011B
:1058A0006B8B7C8B8D8B9E8BC701B60120E63AEE0D
:1058B00040E050E00E94C53C2983C701B601A50124
:1058C00094010E94C53C6CE3862E912CA12CB12C36
:1058D000CA01B901A50194010E94C53C6A83C301B4
:1058E000B201A50194010E94C53C6B836B897C8940
:1058F0008D899E8924E630E040E050E00E94C53C5E
:105900002C83AE014F5F5F4F60E081E00E94CC17B7
:10591000811509F48AC90E94C40C188A1F861A8A44
:10592000198A1E861D8660E073E0CE010D960E94E6
:1059300045100D851E8561E0CE010D960E9408116F
:10594000C80166960FB6F894DEBF0FBECDBFDF91DB
:10595000CF911F910F91FF90EF90DF90CF90BF906C
:10596000AF909F908F907F906F905F904F900C942E
:10597000FD0F0F931F93CF93DF9300D000D000D083
:10598000CDB7DEB78091230790912407843091052D
:1059900009F497C2B0F48130910509F4AFC08230A8
:1059A000910509F472C1892B09F450C00F900F9032
:1059B0000F900F900F900F90DF91CF911F910F914B
:1059C00008958930910581F00A9781F78CE090E085
:1059D0000F900F900F900F900F900F90DF91CF913D
:1059E0001F910F910C94CB0581E395E00E94F91172
:1059F0008DE995E00E94F91187E695E00E94F91182
:105A00000E94180B4091350550E066E672E087E58C
:105A100095E00E94944040916B0550E062E171E096
:105A20008DE895E00E94944024E030E03093D40566
:105A30002093D3058FE68093DD053093DF05209317
:105A4000DE058093E80580E090E0C2CF809184017C
:105A5000811509F449C0109284010E94370E1C82FE
:105A60001B821E821D821A8219826FE379E0CE01A9
:105A700001960E94E91409811A81CE0101960E94C3
:105A8000D507C8010E94FD0F1C821B821E821D8249
:105A90001A82198260E379E0CE0101960E94E9142E
:105AA00009811A81AE014F5F5F4F62E083E00E947F
:105AB0006607C8010E94FD0F1C821B821E821D8288
:105AC0001A8219826CE179E0CE0101960E94E914F4
:105AD00009811A81AE014F5F5F4F63E080E00E9451
